{
  "_format": "hh-sol-artifact-1",
  "contractName": "Auction",
  "sourceName": "contracts/Auction.sol",
  "abi": [
    {
      "anonymous": false,
      "inputs": [
        {
          "indexed": false,
          "internalType": "uint256",
          "name": "startingPrice",
          "type": "uint256"
        },
        {
          "indexed": false,
          "internalType": "uint256",
          "name": "endTime",
          "type": "uint256"
        }
      ],
      "name": "AuctionCreated",
      "type": "event"
    },
    {
      "anonymous": false,
      "inputs": [
        {
          "indexed": false,
          "internalType": "address",
          "name": "bidder",
          "type": "address"
        },
        {
          "indexed": false,
          "internalType": "uint256",
          "name": "amount",
          "type": "uint256"
        }
      ],
      "name": "BidPlaced",
      "type": "event"
    },
    {
      "inputs": [],
      "name": "auctionDetails",
      "outputs": [
        {
          "internalType": "address",
          "name": "highestBidder",
          "type": "address"
        },
        {
          "internalType": "uint256",
          "name": "highestBid",
          "type": "uint256"
        },
        {
          "internalType": "uint256",
          "name": "startingPrice",
          "type": "uint256"
        },
        {
          "internalType": "uint256",
          "name": "currentPrice",
          "type": "uint256"
        },
        {
          "internalType": "uint256",
          "name": "endTime",
          "type": "uint256"
        }
      ],
      "stateMutability": "view",
      "type": "function"
    },
    {
      "inputs": [],
      "name": "bid",
      "outputs": [],
      "stateMutability": "payable",
      "type": "function"
    },
    {
      "inputs": [
        {
          "internalType": "uint256",
          "name": "_startingPrice",
          "type": "uint256"
        },
        {
          "internalType": "uint256",
          "name": "_endTime",
          "type": "uint256"
        }
      ],
      "name": "createAuction",
      "outputs": [],
      "stateMutability": "nonpayable",
      "type": "function"
    }
  ],
  "bytecode": "0x60808060405234610016576102ff908161001c8239f35b600080fdfe6080604081815260048036101561001557600080fd5b600092833560e01c9081630121683f146101c7575080630f0e31651461018157631998aeef1461004457600080fd5b8260031936011261017d578054421015610147576003543411156100f75750815482906001600160a01b0316806100c7575b507f3fabff0a9c3ecd6814702e247fa9733e5d0aa69e3a38590f92cb18f623a2254d82336bffffffffffffffffffffffff60a01b84541617835534600155346003558051338152346020820152a180f35b81808092600154908282156100ee575bf1156100e4578138610076565b51903d90823e3d90fd5b506108fc6100d7565b6020608492519162461bcd60e51b8352820152602560248201527f426964206d75737420626520686967686572207468616e2063757272656e7420604482015264707269636560d81b6064820152fd5b6020606492519162461bcd60e51b83528201526011602482015270105d58dd1a5bdb881a185cc8195b991959607a1b6044820152fd5b8280fd5b50903461017d578260031936011261017d5760a092600180851b039054169160015491600254906003549254938151958652602086015284015260608301526080820152f35b848484923461017d578160031936011261017d5783359060243590428211156102885750825160a0810181811067ffffffffffffffff821117610275579582608081937fe00a2da3a0f34a566402a244ab7ec63f8ab7472591cb18edf3269aa00461a41098998852898152896020820152868882015286606082015201526bffffffffffffffffffffffff60a01b87541687558660015583600255836003555582519182526020820152a180f35b634e487b7160e01b865260418752602486fd5b62461bcd60e51b8152602086820152601e60248201527f456e642074696d65206d75737420626520696e207468652066757475726500006044820152606490fdfea2646970667358221220632be6e33034657ade2bcfcad4742eeb99e16b63c213e4e755aaf7073775aeee64736f6c63430008140033",
  "linkReferences": {},
  "deployedLinkReferences": {}
}