{
  "_format": "hh-sol-artifact-1",
  "contractName": "User",
  "sourceName": "contracts/User.sol",
  "abi": [
    {
      "anonymous": false,
      "inputs": [
        {
          "indexed": true,
          "internalType": "address",
          "name": "previousOwner",
          "type": "address"
        },
        {
          "indexed": true,
          "internalType": "address",
          "name": "newOwner",
          "type": "address"
        }
      ],
      "name": "OwnershipTransferred",
      "type": "event"
    },
    {
      "anonymous": false,
      "inputs": [
        {
          "indexed": true,
          "internalType": "address",
          "name": "seller",
          "type": "address"
        },
        {
          "indexed": false,
          "internalType": "uint256",
          "name": "newRating",
          "type": "uint256"
        }
      ],
      "name": "RatingUpdated",
      "type": "event"
    },
    {
      "anonymous": false,
      "inputs": [
        {
          "indexed": true,
          "internalType": "address",
          "name": "user",
          "type": "address"
        },
        {
          "indexed": false,
          "internalType": "bool",
          "name": "isSeller",
          "type": "bool"
        }
      ],
      "name": "SellerStatusChanged",
      "type": "event"
    },
    {
      "anonymous": false,
      "inputs": [
        {
          "indexed": true,
          "internalType": "address",
          "name": "user",
          "type": "address"
        },
        {
          "indexed": false,
          "internalType": "string",
          "name": "username",
          "type": "string"
        }
      ],
      "name": "UserCreated",
      "type": "event"
    },
    {
      "anonymous": false,
      "inputs": [
        {
          "indexed": true,
          "internalType": "address",
          "name": "user",
          "type": "address"
        }
      ],
      "name": "UserUpdated",
      "type": "event"
    },
    {
      "inputs": [
        {
          "internalType": "address",
          "name": "auctionAddress",
          "type": "address"
        }
      ],
      "name": "addCreatedAuction",
      "outputs": [],
      "stateMutability": "nonpayable",
      "type": "function"
    },
    {
      "inputs": [
        {
          "internalType": "address",
          "name": "itemAddress",
          "type": "address"
        }
      ],
      "name": "addPurchase",
      "outputs": [],
      "stateMutability": "nonpayable",
      "type": "function"
    },
    {
      "inputs": [
        {
          "internalType": "uint256",
          "name": "",
          "type": "uint256"
        }
      ],
      "name": "allUsers",
      "outputs": [
        {
          "internalType": "address",
          "name": "",
          "type": "address"
        }
      ],
      "stateMutability": "view",
      "type": "function"
    },
    {
      "inputs": [],
      "name": "becomeSeller",
      "outputs": [],
      "stateMutability": "nonpayable",
      "type": "function"
    },
    {
      "inputs": [
        {
          "internalType": "string",
          "name": "_username",
          "type": "string"
        },
        {
          "internalType": "string",
          "name": "_email",
          "type": "string"
        },
        {
          "internalType": "string",
          "name": "_profileImage",
          "type": "string"
        },
        {
          "internalType": "string",
          "name": "_bio",
          "type": "string"
        }
      ],
      "name": "createUser",
      "outputs": [],
      "stateMutability": "nonpayable",
      "type": "function"
    },
    {
      "inputs": [],
      "name": "getAllUsers",
      "outputs": [
        {
          "internalType": "address[]",
          "name": "",
          "type": "address[]"
        }
      ],
      "stateMutability": "view",
      "type": "function"
    },
    {
      "inputs": [
        {
          "internalType": "address",
          "name": "user",
          "type": "address"
        }
      ],
      "name": "getUserCreatedAuctions",
      "outputs": [
        {
          "internalType": "address[]",
          "name": "",
          "type": "address[]"
        }
      ],
      "stateMutability": "view",
      "type": "function"
    },
    {
      "inputs": [
        {
          "internalType": "address",
          "name": "user",
          "type": "address"
        }
      ],
      "name": "getUserProfile",
      "outputs": [
        {
          "internalType": "string",
          "name": "username",
          "type": "string"
        },
        {
          "internalType": "string",
          "name": "email",
          "type": "string"
        },
        {
          "internalType": "string",
          "name": "profileImage",
          "type": "string"
        },
        {
          "internalType": "string",
          "name": "bio",
          "type": "string"
        },
        {
          "internalType": "bool",
          "name": "isSeller",
          "type": "bool"
        },
        {
          "internalType": "uint256",
          "name": "sellerRating",
          "type": "uint256"
        },
        {
          "internalType": "uint256",
          "name": "totalSales",
          "type": "uint256"
        },
        {
          "internalType": "uint256",
          "name": "totalPurchases",
          "type": "uint256"
        },
        {
          "internalType": "address[]",
          "name": "createdAuctions",
          "type": "address[]"
        },
        {
          "internalType": "address[]",
          "name": "purchasedItems",
          "type": "address[]"
        }
      ],
      "stateMutability": "view",
      "type": "function"
    },
    {
      "inputs": [
        {
          "internalType": "address",
          "name": "user",
          "type": "address"
        }
      ],
      "name": "getUserPurchases",
      "outputs": [
        {
          "internalType": "address[]",
          "name": "",
          "type": "address[]"
        }
      ],
      "stateMutability": "view",
      "type": "function"
    },
    {
      "inputs": [
        {
          "internalType": "address",
          "name": "seller",
          "type": "address"
        }
      ],
      "name": "incrementSales",
      "outputs": [],
      "stateMutability": "nonpayable",
      "type": "function"
    },
    {
      "inputs": [
        {
          "internalType": "address",
          "name": "user",
          "type": "address"
        }
      ],
      "name": "isUserSeller",
      "outputs": [
        {
          "internalType": "bool",
          "name": "",
          "type": "bool"
        }
      ],
      "stateMutability": "view",
      "type": "function"
    },
    {
      "inputs": [],
      "name": "owner",
      "outputs": [
        {
          "internalType": "address",
          "name": "",
          "type": "address"
        }
      ],
      "stateMutability": "view",
      "type": "function"
    },
    {
      "inputs": [],
      "name": "renounceOwnership",
      "outputs": [],
      "stateMutability": "nonpayable",
      "type": "function"
    },
    {
      "inputs": [
        {
          "internalType": "address",
          "name": "newOwner",
          "type": "address"
        }
      ],
      "name": "transferOwnership",
      "outputs": [],
      "stateMutability": "nonpayable",
      "type": "function"
    },
    {
      "inputs": [
        {
          "internalType": "string",
          "name": "_email",
          "type": "string"
        },
        {
          "internalType": "string",
          "name": "_profileImage",
          "type": "string"
        },
        {
          "internalType": "string",
          "name": "_bio",
          "type": "string"
        }
      ],
      "name": "updateProfile",
      "outputs": [],
      "stateMutability": "nonpayable",
      "type": "function"
    },
    {
      "inputs": [
        {
          "internalType": "address",
          "name": "seller",
          "type": "address"
        },
        {
          "internalType": "uint256",
          "name": "rating",
          "type": "uint256"
        }
      ],
      "name": "updateSellerRating",
      "outputs": [],
      "stateMutability": "nonpayable",
      "type": "function"
    },
    {
      "inputs": [
        {
          "internalType": "string",
          "name": "",
          "type": "string"
        }
      ],
      "name": "usernames",
      "outputs": [
        {
          "internalType": "bool",
          "name": "",
          "type": "bool"
        }
      ],
      "stateMutability": "view",
      "type": "function"
    },
    {
      "inputs": [
        {
          "internalType": "address",
          "name": "",
          "type": "address"
        }
      ],
      "name": "users",
      "outputs": [
        {
          "internalType": "string",
          "name": "username",
          "type": "string"
        },
        {
          "internalType": "string",
          "name": "email",
          "type": "string"
        },
        {
          "internalType": "string",
          "name": "profileImage",
          "type": "string"
        },
        {
          "internalType": "string",
          "name": "bio",
          "type": "string"
        },
        {
          "internalType": "bool",
          "name": "isSeller",
          "type": "bool"
        },
        {
          "internalType": "uint256",
          "name": "sellerRating",
          "type": "uint256"
        },
        {
          "internalType": "uint256",
          "name": "totalSales",
          "type": "uint256"
        },
        {
          "internalType": "uint256",
          "name": "totalPurchases",
          "type": "uint256"
        },
        {
          "internalType": "bool",
          "name": "exists",
          "type": "bool"
        }
      ],
      "stateMutability": "view",
      "type": "function"
    }
  ],
  "bytecode": "0x6080806040523461005f5760008054336001600160a01b0319821681178355916001600160a01b03909116907f8be0079c531659141344cd1fd0a4f28419497f9722a3daafe3b4186f6b6457e09080a360018055611adb90816100658239f35b600080fdfe6080604052600436101561001257600080fd5b60003560e01c80631105a5eb14611289578063358e29d214611195578063450ed73514611158578063517807e4146110ee578063694837a51461109d5780636f7fcddb146107eb578063715018a6146107925780638da5cb5b146107695780638f299b1e14610693578063987ee15614610506578063a2bdedf4146104ab578063a87430ba146103bb578063aaee301f1461035a578063bb54c00a14610318578063c6e5d8f6146102c7578063e2842d791461022e578063e417926a146101ab5763f2fde38b146100e257600080fd5b346101a65760203660031901126101a6576100fb6116e4565b61010361185f565b6001600160a01b0390811690811561015257600054826001600160601b0360a01b821617600055167f8be0079c531659141344cd1fd0a4f28419497f9722a3daafe3b4186f6b6457e0600080a3005b60405162461bcd60e51b815260206004820152602660248201527f4f776e61626c653a206e6577206f776e657220697320746865207a65726f206160448201526564647265737360d01b6064820152608490fd5b600080fd5b346101a65760203660031901126101a6576101c46116e4565b6101cc61185f565b6001600160a01b03166000818152600260205260409020600a01546101f39060ff166119a3565b80600052600260205261021060ff60046040600020015416611a0a565b6000526002602052600660406000200161022a81546119e5565b9055005b346101a65760003660031901126101a6576040518060045480825282602080930160046000527f8a35acfbc15ff81a39ae7d344fd709f28e8600b4aa8c65c6b64bfe7fe36bd19b9260005b858282106102a8575050506102909250038361166d565b6102a46040519282849384528301906116fa565b0390f35b85546001600160a01b0316845260019586019588955093019201610279565b346101a65760203660031901126101a6576001600160a01b036102e86116e4565b1660005260026020526102a46103046009604060002001611a4d565b6040519182916020835260208301906116fa565b346101a65760203660031901126101a6576001600160a01b036103396116e4565b166000526002602052602060ff600460406000200154166040519015158152f35b346101a65760203660031901126101a6576004356001600160401b0381116101a65760ff6103a560206103928194369060040161168e565b8160405193828580945193849201611737565b8101600381520301902054166040519015158152f35b346101a65760203660031901126101a6576001600160a01b036103dc6116e4565b16600052600260205261045e60406000206103f6816117b9565b90610403600182016117b9565b61040f600283016117b9565b9161041c600382016117b9565b9260ff6004830154169361048860058401549161047a60068601549461046c60ff600a60078a015499015416986040519c8d9c8d61012090818152019061175a565b8c810360208e01529061175a565b908a820360408c015261175a565b9088820360608a015261175a565b941515608087015260a086015260c085015260e084015215156101008301520390f35b346101a65760203660031901126101a6576004356004548110156101a65760046000527f8a35acfbc15ff81a39ae7d344fd709f28e8600b4aa8c65c6b64bfe7fe36bd19b01546040516001600160a01b039091168152602090f35b346101a65760203660031901126101a6576001600160a01b036105276116e4565b16600052600260205260406000206040519061054282611636565b61054b816117b9565b8252610559600182016117b9565b60208301908152908261056e600283016117b9565b6040820190815292610582600384016117b9565b60608301908152600484015460ff169060808401911515825260058501549160a08501928352600686015460c0860190815260078701549060e08701918252600888016105ce90611a4d565b926101009485890194855260098a016105e690611a4d565b998a610120809b0152600a015460ff1615159a6101409c8d9c8d82015251985190519151925115159751935194519551986040519d8e9d8e528d0161062a9161175a565b8c810360208e015261063b9161175a565b8b810360408d015261064c9161175a565b8a810360608c015261065d9161175a565b9460808a015260a089015260c088015260e087015285820390860152610682916116fa565b90838203908401526102a4916116fa565b346101a65760003660031901126101a6573360005260026020526106c160ff600a60406000200154166119a3565b6106c961194d565b33600052600260205260ff60046040600020015416610731573360005260026020526004604060002001600160ff19825416179055604051600181527f725bf9ef96ff99215c4e9c893b6c1febc02d9955b3b9d9dbe865c4273eb9ec5660203392a260018055005b60405162461bcd60e51b815260206004820152601060248201526f20b63932b0b23c90309039b2b63632b960811b6044820152606490fd5b346101a65760003660031901126101a6576000546040516001600160a01b039091168152602090f35b346101a65760003660031901126101a6576107ab61185f565b600080546001600160a01b0319811682556001600160a01b03167f8be0079c531659141344cd1fd0a4f28419497f9722a3daafe3b4186f6b6457e08280a3005b346101a65760803660031901126101a6576004356001600160401b0381116101a65761081b90369060040161168e565b6024356001600160401b0381116101a65761083a90369060040161168e565b906044356001600160401b0381116101a65761085a90369060040161168e565b6064356001600160401b0381116101a65761087990369060040161168e565b61088161194d565b33600052600260205260ff600a60406000200154166110625760ff60405160208186516108b18183858b01611737565b810160038152030190205416611024576003835110610fea576108d6845115156118b7565b604051906108e382611652565b60008252604051926108f484611652565b600084526040519561090587611636565b85875260208701526040860152606085015260006080850152600060a0850152600060c0850152600060e08501526101008401526101208301526001610140830152336000526002602052604060002082519283516001600160401b038111610c9f57610972835461177f565b601f8111610fb8575b506020601f8211600114610f4f578192939495600092610f44575b50508160011b916000199060031b1c19161782555b60208101519283516001600160401b038111610c9f576109ce600185015461177f565b601f8111610f0f575b506020601f8211600114610ea0578192939495600092610e95575b50508160011b916000199060031b1c19161760018401555b60408201519283516001600160401b038111610c9f57610a2d600283015461177f565b601f8111610e60575b506020601f8211600114610df1578192939495600092610de6575b50508160011b916000199060031b1c19161760028201555b60608301519283516001600160401b038111610c9f57610a8c600384015461177f565b601f8111610da6575b506020601f8211600114610d37578192939495600092610d2c575b50508160011b916000199060031b1c19161760038301555b610ae760808201511515600484019060ff801983541691151516179055565b60a0810151600583015560c0810151600683015560e081015160078301556101008101518051906001600160401b038211610c9f57600160401b8211610c9f576020906008850154836008870155808410610d0c575b500160088401600052602060002060005b838110610cef575050505060098201610120820151908151916001600160401b038311610c9f57600160401b8311610c9f576020908254848455808510610cd2575b500190600052602060002060005b838110610cb55786610bc787600a610140890151151591019060ff801983541691151516179055565b6040516020818351610bdc8183858801611737565b81016003815203019020600160ff19825416179055600454600160401b811015610c9f576001810180600455811015610c895760046000527f8a35acfbc15ff81a39ae7d344fd709f28e8600b4aa8c65c6b64bfe7fe36bd19b01336001600160601b0360a01b8254161790557f9954bce02f72fbdef0fa668ac6f42e434b5829615dac2fb22448054d2359d4f66040516020815280610c803394602083019061175a565b0390a260018055005b634e487b7160e01b600052603260045260246000fd5b634e487b7160e01b600052604160045260246000fd5b82516001600160a01b031681830155602090920191600101610b9e565b610ce99084600052858460002091820191016118f4565b87610b90565b82516001600160a01b031681830155602090920191600101610b4e565b610d269060088701600052848460002091820191016118f4565b86610b3d565b015190508580610ab0565b6003840160005260206000209060005b601f1984168110610d8e575060019394959683601f19811610610d75575b505050811b016003830155610ac8565b015160001960f88460031b161c19169055858080610d65565b9091602060018192858b015181550193019101610d47565b610dd690600385016000526020600020601f840160051c81019160208510610ddc575b601f0160051c01906118f4565b85610a95565b9091508190610dc9565b015190508580610a51565b6002830160005260206000209060005b601f1984168110610e48575060019394959683601f19811610610e2f575b505050811b016002820155610a69565b015160001960f88460031b161c19169055858080610e1f565b9091602060018192858b015181550193019101610e01565b610e8f90600284016000526020600020601f840160051c81019160208510610ddc57601f0160051c01906118f4565b85610a36565b0151905085806109f2565b6001850160005260206000209060005b601f1984168110610ef7575060019394959683601f19811610610ede575b505050811b016001840155610a0a565b015160001960f88460031b161c19169055858080610ece565b9091602060018192858b015181550193019101610eb0565b610f3e90600186016000526020600020601f840160051c81019160208510610ddc57601f0160051c01906118f4565b856109d7565b015190508580610996565b8360005260206000209060005b601f1984168110610fa0575060019394959683601f19811610610f87575b505050811b0182556109ab565b015160001960f88460031b161c19169055858080610f7a565b9091602060018192858b015181550193019101610f5c565b610fe490846000526020600020601f840160051c81019160208510610ddc57601f0160051c01906118f4565b8561097b565b60405162461bcd60e51b8152602060048201526012602482015271155cd95c9b985b59481d1bdbc81cda1bdc9d60721b6044820152606490fd5b60405162461bcd60e51b81526020600482015260166024820152752ab9b2b93730b6b29030b63932b0b23c903a30b5b2b760511b6044820152606490fd5b60405162461bcd60e51b81526020600482015260136024820152725573657220616c72656164792065786973747360681b6044820152606490fd5b346101a65760203660031901126101a6576110ec6110b96116e4565b3360005260026020526110d660ff600a60406000200154166119a3565b336000526002602052600860406000200161190b565b005b346101a65760203660031901126101a65761113d61110a6116e4565b33600052600260205261112760ff600a60406000200154166119a3565b336000526002602052600960406000200161190b565b336000526002602052600760406000200161022a81546119e5565b346101a65760203660031901126101a6576001600160a01b036111796116e4565b1660005260026020526102a46103046008604060002001611a4d565b346101a65760403660031901126101a6576111ae6116e4565b602435906111ba61185f565b60018060a01b0316908160005260026020526111e060ff600a60406000200154166119a3565b8160005260026020526111fd60ff60046040600020015416611a0a565b600581116112445760207fce13e498bb0636bb2524ac3412faa71320aa6c5166c02f75653c6631fa6a4ee491836000526002825280600560406000200155604051908152a2005b60405162461bcd60e51b815260206004820152601e60248201527f526174696e67206d757374206265206265747765656e203020616e64203500006044820152606490fd5b346101a65760603660031901126101a6576001600160401b036004358181116101a6576112ba90369060040161168e565b6024358281116101a6576112d290369060040161168e565b906044358381116101a6576112eb90369060040161168e565b92336000526020916002835261130b60ff600a60406000200154166119a3565b61131361194d565b61131f815115156118b7565b3360005260028352600193846040600020018251848111610c9f5780611345835461177f565b94601f95868111611608575b5087908683116001146115a55760009261159a575b5050600019600383901b1c191690871b1790555b3360005260028452600260406000200190805190848211610c9f5781906113a1845461177f565b85811161156c575b508690858311600114611509576000926114fe575b5050600019600383901b1c191690861b1790555b33600052600283526003604060002001928551928311610c9f576113f6845461177f565b8281116114c6575b5080918311600114611460575081929394600092611455575b5050600019600383901b1c191690831b1790555b337f0163b5f10e25c839f35e6f2b201b31e88e17f49e6956232de5d2e6bbae3b78b8600080a28055005b015190508480611417565b90601f198316958460005282600020926000905b8882106114af57505083869796959610611496575b505050811b01905561142b565b015160001960f88460031b161c19169055848080611489565b808885968294968601518155019501930190611474565b6114ef9085600052826000208480870160051c8201928588106114f5575b0160051c01906118f4565b866113fe565b925081926114e4565b0151905088806113be565b90889350601f1983169185600052886000209260005b8a828210611556575050841161153d575b505050811b0190556113d2565b015160001960f88460031b161c19169055888080611530565b8385015186558c9790950194938401930161151f565b6115949085600052886000208780860160051c8201928b87106114f5570160051c01906118f4565b896113a9565b015190508980611366565b90899350601f1983169185600052896000209260005b8b8282106115f257505084116115d9575b505050811b01905561137a565b015160001960f88460031b161c191690558980806115cc565b8385015186558d979095019493840193016115bb565b6116309085600052896000208880860160051c8201928c87106114f5570160051c01906118f4565b8a611351565b61016081019081106001600160401b03821117610c9f57604052565b602081019081106001600160401b03821117610c9f57604052565b90601f801991011681019081106001600160401b03821117610c9f57604052565b81601f820112156101a6578035906001600160401b038211610c9f57604051926116c2601f8401601f19166020018561166d565b828452602083830101116101a657816000926020809301838601378301015290565b600435906001600160a01b03821682036101a657565b90815180825260208080930193019160005b82811061171a575050505090565b83516001600160a01b03168552938101939281019260010161170c565b60005b83811061174a5750506000910152565b818101518382015260200161173a565b9060209161177381518092818552858086019101611737565b601f01601f1916010190565b90600182811c921680156117af575b602083101461179957565b634e487b7160e01b600052602260045260246000fd5b91607f169161178e565b90604051918260008254926117cd8461177f565b90818452600194858116908160001461183c57506001146117f9575b50506117f79250038361166d565b565b9093915060005260209081600020936000915b8183106118245750506117f7935082010138806117e9565b8554888401850152948501948794509183019161180c565b9150506117f794506020925060ff191682840152151560051b82010138806117e9565b6000546001600160a01b0316330361187357565b606460405162461bcd60e51b815260206004820152602060248201527f4f776e61626c653a2063616c6c6572206973206e6f7420746865206f776e65726044820152fd5b156118be57565b60405162461bcd60e51b815260206004820152600e60248201526d115b585a5b081c995c5d5a5c995960921b6044820152606490fd5b8181106118ff575050565b600081556001016118f4565b805490600160401b821015610c9f5760018201808255821015610c89576000526020600020019060018060a01b03166001600160601b0360a01b825416179055565b60026001541461195e576002600155565b60405162461bcd60e51b815260206004820152601f60248201527f5265656e7472616e637947756172643a207265656e7472616e742063616c6c006044820152606490fd5b156119aa57565b60405162461bcd60e51b8152602060048201526013602482015272155cd95c88191bd95cc81b9bdd08195e1a5cdd606a1b6044820152606490fd5b60001981146119f45760010190565b634e487b7160e01b600052601160045260246000fd5b15611a1157565b60405162461bcd60e51b81526020600482015260146024820152732ab9b2b91034b9903737ba10309039b2b63632b960611b6044820152606490fd5b9060405191828154918282526020928383019160005283600020936000905b828210611a82575050506117f79250038361166d565b85546001600160a01b031684526001958601958895509381019390910190611a6c56fea2646970667358221220e4230995810a95342fa144b0b32fadadc9af97a92a745a6a27882ee2944b17d164736f6c63430008140033",
  "linkReferences": {},
  "deployedLinkReferences": {}
}