{
  "_format": "hh-sol-artifact-1",
  "contractName": "AuctionFactory",
  "sourceName": "contracts/AuctionFactory.sol",
  "abi": [
    {
      "inputs": [],
      "stateMutability": "nonpayable",
      "type": "constructor"
    },
    {
      "anonymous": false,
      "inputs": [
        {
          "indexed": false,
          "internalType": "string",
          "name": "id",
          "type": "string"
        },
        {
          "indexed": false,
          "internalType": "address",
          "name": "creator",
          "type": "address"
        },
        {
          "indexed": false,
          "internalType": "enum AuctionFactory.AuctionType",
          "name": "auctionType",
          "type": "uint8"
        },
        {
          "indexed": false,
          "internalType": "uint256",
          "name": "startingPrice",
          "type": "uint256"
        },
        {
          "indexed": false,
          "internalType": "uint256",
          "name": "startTime",
          "type": "uint256"
        }
      ],
      "name": "AuctionCreated",
      "type": "event"
    },
    {
      "anonymous": false,
      "inputs": [
        {
          "indexed": false,
          "internalType": "string",
          "name": "auctionId",
          "type": "string"
        },
        {
          "indexed": false,
          "internalType": "address",
          "name": "winner",
          "type": "address"
        },
        {
          "indexed": false,
          "internalType": "uint256",
          "name": "finalPrice",
          "type": "uint256"
        }
      ],
      "name": "AuctionEnded",
      "type": "event"
    },
    {
      "anonymous": false,
      "inputs": [
        {
          "indexed": false,
          "internalType": "string",
          "name": "auctionId",
          "type": "string"
        },
        {
          "indexed": false,
          "internalType": "address",
          "name": "bidder",
          "type": "address"
        },
        {
          "indexed": false,
          "internalType": "uint256",
          "name": "amount",
          "type": "uint256"
        }
      ],
      "name": "BidPlaced",
      "type": "event"
    },
    {
      "anonymous": false,
      "inputs": [
        {
          "indexed": true,
          "internalType": "address",
          "name": "previousOwner",
          "type": "address"
        },
        {
          "indexed": true,
          "internalType": "address",
          "name": "newOwner",
          "type": "address"
        }
      ],
      "name": "OwnershipTransferred",
      "type": "event"
    },
    {
      "inputs": [
        {
          "internalType": "uint256",
          "name": "",
          "type": "uint256"
        }
      ],
      "name": "auctionIds",
      "outputs": [
        {
          "internalType": "string",
          "name": "",
          "type": "string"
        }
      ],
      "stateMutability": "view",
      "type": "function"
    },
    {
      "inputs": [
        {
          "internalType": "string",
          "name": "",
          "type": "string"
        }
      ],
      "name": "auctions",
      "outputs": [
        {
          "internalType": "string",
          "name": "id",
          "type": "string"
        },
        {
          "internalType": "address",
          "name": "creator",
          "type": "address"
        },
        {
          "internalType": "uint256",
          "name": "startingPrice",
          "type": "uint256"
        },
        {
          "internalType": "uint256",
          "name": "currentPrice",
          "type": "uint256"
        },
        {
          "internalType": "uint256",
          "name": "duration",
          "type": "uint256"
        },
        {
          "internalType": "uint256",
          "name": "startTime",
          "type": "uint256"
        },
        {
          "internalType": "uint256",
          "name": "endTime",
          "type": "uint256"
        },
        {
          "internalType": "string",
          "name": "description",
          "type": "string"
        },
        {
          "internalType": "string",
          "name": "title",
          "type": "string"
        },
        {
          "internalType": "enum AuctionFactory.AuctionType",
          "name": "auctionType",
          "type": "uint8"
        },
        {
          "internalType": "enum AuctionFactory.AuctionStatus",
          "name": "status",
          "type": "uint8"
        },
        {
          "internalType": "address",
          "name": "highestBidder",
          "type": "address"
        },
        {
          "internalType": "uint256",
          "name": "highestBid",
          "type": "uint256"
        },
        {
          "internalType": "bool",
          "name": "isPhysical",
          "type": "bool"
        }
      ],
      "stateMutability": "view",
      "type": "function"
    },
    {
      "inputs": [
        {
          "internalType": "string",
          "name": "_id",
          "type": "string"
        },
        {
          "internalType": "uint256",
          "name": "_startingPrice",
          "type": "uint256"
        },
        {
          "internalType": "uint256",
          "name": "_minimumPrice",
          "type": "uint256"
        },
        {
          "internalType": "uint256",
          "name": "_decrementAmount",
          "type": "uint256"
        },
        {
          "internalType": "uint256",
          "name": "_decrementTime",
          "type": "uint256"
        },
        {
          "internalType": "uint256",
          "name": "_duration",
          "type": "uint256"
        },
        {
          "internalType": "string",
          "name": "_description",
          "type": "string"
        },
        {
          "internalType": "string",
          "name": "_title",
          "type": "string"
        },
        {
          "internalType": "string",
          "name": "_itemDescription",
          "type": "string"
        }
      ],
      "name": "createDutchAuction",
      "outputs": [],
      "stateMutability": "nonpayable",
      "type": "function"
    },
    {
      "inputs": [
        {
          "internalType": "string",
          "name": "_id",
          "type": "string"
        },
        {
          "internalType": "uint256",
          "name": "_startingPrice",
          "type": "uint256"
        },
        {
          "internalType": "uint256",
          "name": "_duration",
          "type": "uint256"
        },
        {
          "internalType": "string",
          "name": "_description",
          "type": "string"
        },
        {
          "internalType": "string",
          "name": "_title",
          "type": "string"
        },
        {
          "internalType": "string",
          "name": "_itemDescription",
          "type": "string"
        }
      ],
      "name": "createEnglishAuction",
      "outputs": [],
      "stateMutability": "nonpayable",
      "type": "function"
    },
    {
      "inputs": [
        {
          "internalType": "string",
          "name": "",
          "type": "string"
        }
      ],
      "name": "dutchAuctions",
      "outputs": [
        {
          "internalType": "uint256",
          "name": "minimumPrice",
          "type": "uint256"
        },
        {
          "internalType": "uint256",
          "name": "decrementAmount",
          "type": "uint256"
        },
        {
          "internalType": "uint256",
          "name": "decrementTime",
          "type": "uint256"
        }
      ],
      "stateMutability": "view",
      "type": "function"
    },
    {
      "inputs": [
        {
          "internalType": "string",
          "name": "_id",
          "type": "string"
        }
      ],
      "name": "getAuction",
      "outputs": [
        {
          "components": [
            {
              "internalType": "string",
              "name": "id",
              "type": "string"
            },
            {
              "internalType": "address",
              "name": "creator",
              "type": "address"
            },
            {
              "internalType": "uint256",
              "name": "startingPrice",
              "type": "uint256"
            },
            {
              "internalType": "uint256",
              "name": "currentPrice",
              "type": "uint256"
            },
            {
              "internalType": "uint256",
              "name": "duration",
              "type": "uint256"
            },
            {
              "internalType": "uint256",
              "name": "startTime",
              "type": "uint256"
            },
            {
              "internalType": "uint256",
              "name": "endTime",
              "type": "uint256"
            },
            {
              "internalType": "string",
              "name": "description",
              "type": "string"
            },
            {
              "internalType": "string",
              "name": "title",
              "type": "string"
            },
            {
              "internalType": "enum AuctionFactory.AuctionType",
              "name": "auctionType",
              "type": "uint8"
            },
            {
              "internalType": "enum AuctionFactory.AuctionStatus",
              "name": "status",
              "type": "uint8"
            },
            {
              "internalType": "address",
              "name": "highestBidder",
              "type": "address"
            },
            {
              "internalType": "uint256",
              "name": "highestBid",
              "type": "uint256"
            },
            {
              "internalType": "bool",
              "name": "isPhysical",
              "type": "bool"
            }
          ],
          "internalType": "struct AuctionFactory.Auction",
          "name": "",
          "type": "tuple"
        }
      ],
      "stateMutability": "view",
      "type": "function"
    },
    {
      "inputs": [],
      "name": "getAuctionCount",
      "outputs": [
        {
          "internalType": "uint256",
          "name": "",
          "type": "uint256"
        }
      ],
      "stateMutability": "view",
      "type": "function"
    },
    {
      "inputs": [
        {
          "internalType": "string",
          "name": "_auctionId",
          "type": "string"
        }
      ],
      "name": "getCurrentPrice",
      "outputs": [
        {
          "internalType": "uint256",
          "name": "",
          "type": "uint256"
        }
      ],
      "stateMutability": "view",
      "type": "function"
    },
    {
      "inputs": [
        {
          "internalType": "string",
          "name": "_id",
          "type": "string"
        }
      ],
      "name": "getDutchAuctionDetails",
      "outputs": [
        {
          "components": [
            {
              "internalType": "uint256",
              "name": "minimumPrice",
              "type": "uint256"
            },
            {
              "internalType": "uint256",
              "name": "decrementAmount",
              "type": "uint256"
            },
            {
              "internalType": "uint256",
              "name": "decrementTime",
              "type": "uint256"
            }
          ],
          "internalType": "struct AuctionFactory.DutchAuctionDetails",
          "name": "",
          "type": "tuple"
        }
      ],
      "stateMutability": "view",
      "type": "function"
    },
    {
      "inputs": [],
      "name": "owner",
      "outputs": [
        {
          "internalType": "address",
          "name": "",
          "type": "address"
        }
      ],
      "stateMutability": "view",
      "type": "function"
    },
    {
      "inputs": [
        {
          "internalType": "string",
          "name": "_auctionId",
          "type": "string"
        }
      ],
      "name": "placeBid",
      "outputs": [],
      "stateMutability": "payable",
      "type": "function"
    },
    {
      "inputs": [],
      "name": "renounceOwnership",
      "outputs": [],
      "stateMutability": "nonpayable",
      "type": "function"
    },
    {
      "inputs": [
        {
          "internalType": "address",
          "name": "newOwner",
          "type": "address"
        }
      ],
      "name": "transferOwnership",
      "outputs": [],
      "stateMutability": "nonpayable",
      "type": "function"
    }
  ],
  "bytecode": "0x6080806040523461005e57600160008181558154336001600160a01b0319821681179093556001600160a01b0316907f8be0079c531659141344cd1fd0a4f28419497f9722a3daafe3b4186f6b6457e09080a361170990816100648239f35b600080fdfe6080604052600436101561001257600080fd5b60003560e01c80632a6433be146110e45780633f309f7514610cc257806342a0f24314610c805780636ec7277e14610bd4578063715018a614610b775780637e8ec4e6146108355780638da5cb5b1461080c5780638f517d9414610798578063b76b16181461063e578063c44e664014610620578063e967e60c14610422578063edd818491461017b5763f2fde38b146100ab57600080fd5b34610176576020366003190112610176576004356001600160a01b0381811691829003610176576100da611353565b811561012257600154826bffffffffffffffffffffffff60a01b821617600155167f8be0079c531659141344cd1fd0a4f28419497f9722a3daafe3b4186f6b6457e0600080a3005b60405162461bcd60e51b815260206004820152602660248201527f4f776e61626c653a206e6577206f776e657220697320746865207a65726f206160448201526564647265737360d01b6064820152608490fd5b600080fd5b34610176576020366003190112610176576004356001600160401b0381116101765760206101b06102289236906004016112e3565b60006101a06040516101c181611187565b6060815282858201528260408201528260608201528260808201528260a08201528260c0820152606060e08201526060610100820152826101208201528261014082015282610160820152826101808201520152816040519382858094519384920161129b565b810160028152030190206040519061023f82611187565b610248816111f5565b825260018101546001600160a01b03166020830152600281015460408301526003810154606083015260048101546080830152600581015460a0830152600681015460c083015261029b600782016111f5565b60e08301526102ac600882016111f5565b6101008301526009810154600260ff8216101561040c5760ff8116610120840152600460ff8260081c16101561040c5760ff918183600b9360081c1661014086015260018060a01b039060101c16610160850152600a81015461018085015201541615156101a08201526040518091602082526101a06103b561033d83516101c060208701526101e08601906112be565b60018060a01b0360208501511660408601526040840151606086015260608401516080860152608084015160a086015260a084015160c086015260c084015160e086015261039e60e085015191601f199283888303016101008901526112be565b9061010085015190868303016101208701526112be565b916103ca610120820151610140860190611339565b6103de610140820151610160860190611346565b6101608101516001600160a01b03166101808581019190915281015182850152015115156101c08301520390f35b634e487b7160e01b600052602160045260246000fd5b602080600319360112610176576004356001600160401b0381116101765761044e9036906004016112e3565b610456611588565b6040518281835161046a818385880161129b565b81016002815203019020916009830180549060ff8260081c16600481101561040c576001036105e35760068501544210156105aa57600385019182543411156105775760101c6001600160a01b03168061053a575b815462010000600160b01b0319163360101b62010000600160b01b03161782557f027aaa4de8a8577ab88766593b19e891945e65f7d03ad3551436d3db7feed2336105248686868a600a349101553490556040519283926060845260608401906112be565b9033908301523460408301520390a16001600055005b600080808093600a8a999897969901549082821561056e575bf11561056257909192856104bf565b6040513d6000823e3d90fd5b506108fc610553565b60405162461bcd60e51b815260048101859052600b60248201526a42696420746f6f206c6f7760a81b6044820152606490fd5b60405162461bcd60e51b8152600481018490526011602482015270105d58dd1a5bdb881a185cc8195b991959607a1b6044820152606490fd5b60405162461bcd60e51b815260048101849052601560248201527441756374696f6e206973206e6f742061637469766560581b6044820152606490fd5b34610176576000366003190112610176576020600454604051908152f35b34610176576020366003190112610176576004356001600160401b0381116101765761066e9036906004016112e3565b60405181818093516020819301916106859261129b565b81016002815203602001902061069a816111f5565b60018201546002830154600384015460048501546005860154600687015493966001600160a01b0395861696929593949093926106d9600786016111f5565b916106e6600887016111f5565b93600987015498600a88015497600b015460ff16986040519c8d9c8d966101c08089528801610714916112be565b966020015260408d015260608c015260808b015260a08a015260c089015287810360e0890152610743916112be565b868103610100880152610755916112be565b93610767610120870160ff8316611339565b61077c610140870160ff600884901c16611346565b60101c1661016085015261018084015215156101a08301520390f35b34610176576020366003190112610176576004356001600160401b038111610176576107e260206107cf60609336906004016112e3565b816040519382858094519384920161129b565b81016003815203019020805490600260018201549101549060405192835260208301526040820152f35b34610176576000366003190112610176576001546040516001600160a01b039091168152602090f35b346101765760c0366003190112610176576001600160401b03600435818111610176576108669036906004016112e3565b906024359160443591606435818111610176576108879036906004016112e3565b6084358281116101765761089f9036906004016112e3565b9160a435908111610176576108b89036906004016112e3565b506108c1611588565b8415610b24578315610adf576108d9835115156113ab565b6108e384426113ec565b604051946108f086611187565b84865233602087015286604087015286606087015260808601524260a086015260c085015260e0840152610100830152600061012083015260016101408301526000610160830152600061018083015260006101a0830152604051602081835161095d818385880161129b565b810160028152030190209261097383518561140f565b60208301516001850180546001600160a01b0319166001600160a01b0392831617905560408401516002860155606084015160038601556080840151600486015560a0840151600586015560c0840151600686015560e08401519093906109dd906007870161140f565b6109ef6101008201516008870161140f565b6101208101516009860195600282101561040c57865490610140840151600481101561040c576101608501516001600160b01b031990931660ff9094169390931760089390931b61ff001692909217951660101b62010000600160b01b0316949094179094557fefd82ec3b7bf59ce1807cf373242f443626ad30b23b093d3b3934c6b76d6555c93610abc936101a090600b90610180840151600a82015501910151151560ff80198354169116179055610aa88261151e565b60405192839260a0845260a08401906112be565b903360208401526000604084015260608301524260808301520390a16001600055005b60405162461bcd60e51b815260206004820152601f60248201527f4475726174696f6e206d7573742062652067726561746572207468616e2030006044820152606490fd5b60405162461bcd60e51b815260206004820152602560248201527f5374617274696e67207072696365206d75737420626520677265617465722074604482015264068616e20360dc1b6064820152608490fd5b3461017657600036600319011261017657610b90611353565b600180546001600160a01b031981169091556000906001600160a01b03167f8be0079c531659141344cd1fd0a4f28419497f9722a3daafe3b4186f6b6457e08280a3005b346101765760208060031936011261017657600435906001600160401b03821161017657610c3881610c0c60609436906004016112e3565b600060408051610c1b816111b9565b82815282858201520152816040519382858094519384920161129b565b810160038152030190209060405190610c50826111b9565b82549283835260406002600183015492848601938452015493019283526040519384525190830152516040820152f35b34610176576020366003190112610176576004356001600160401b03811161017657610cba610cb560209236906004016112e3565b6115eb565b604051908152f35b3461017657610120366003190112610176576001600160401b0360043581811161017657610cf49036906004016112e3565b9060c43581811161017657610d0d9036906004016112e3565b9060e43581811161017657610d269036906004016112e3565b906101043590811161017657610d409036906004016112e3565b50610d49611588565b604435602435111561108557606435156110305760843515610fdd57610d71835115156113ab565b610d7d60a435426113ec565b9160405192610d8b84611187565b8484523360208501526024356040850152602435606085015260a43560808501524260a085015260c084015260e0830152610100820152600161012082015260016101408201526000610160820152600061018082015260006101a082015260405191610df7836111b9565b6044358352606435602084015260843560408401526040516020818351610e21818385880161129b565b8101600281520301902092610e3783518561140f565b6001840160018060a01b036020850151166bffffffffffffffffffffffff60a01b82541617905560408301516002850155606083015160038501556080830151600485015560a0830151600585015560c08301516006850155610ea160e08401516007860161140f565b610eb36101008401516008860161140f565b61012083015192600284101561040c576009850154610140820151600481101561040c576101608301516001600160b01b031990921660ff9096169590951760089590951b61ff00169490941760109490941b62010000600160b01b03169390931760098501557fefd82ec3b7bf59ce1807cf373242f443626ad30b23b093d3b3934c6b76d6555c93610fb893906101a090600b90610180840151600a82015501910151151560ff801983541691161790556002604080516020818651610f7d8183858b0161129b565b810160038152030190209280518455602081015160018501550151910155610fa48161151e565b60405191829160a0835260a08301906112be565b3360208301526001604083015260243560608301524260808301520390a16001600055005b60405162461bcd60e51b815260206004820152602560248201527f44656372656d656e742074696d65206d75737420626520677265617465722074604482015264068616e20360dc1b6064820152608490fd5b60405162461bcd60e51b815260206004820152602760248201527f44656372656d656e7420616d6f756e74206d75737420626520677265617465726044820152660207468616e20360cc1b6064820152608490fd5b60405162461bcd60e51b815260206004820152603160248201527f5374617274696e67207072696365206d7573742062652067726561746572207460448201527068616e206d696e696d756d20707269636560781b6064820152608490fd5b3461017657602036600319011261017657600435600454811015610176576111356111499160046000527f8a35acfbc15ff81a39ae7d344fd709f28e8600b4aa8c65c6b64bfe7fe36bd19b016111f5565b6040519182916020835260208301906112be565b0390f35b90600182811c9216801561117d575b602083101461116757565b634e487b7160e01b600052602260045260246000fd5b91607f169161115c565b6101c081019081106001600160401b038211176111a357604052565b634e487b7160e01b600052604160045260246000fd5b606081019081106001600160401b038211176111a357604052565b90601f801991011681019081106001600160401b038211176111a357604052565b90604051918260008254926112098461114d565b9081845260019485811690816000146112785750600114611235575b5050611233925003836111d4565b565b9093915060005260209081600020936000915b81831061126057505061123393508201013880611225565b85548884018501529485019487945091830191611248565b91505061123394506020925060ff191682840152151560051b8201013880611225565b60005b8381106112ae5750506000910152565b818101518382015260200161129e565b906020916112d78151809281855285808601910161129b565b601f01601f1916010190565b81601f82011215610176578035906001600160401b0382116111a35760405192611317601f8401601f1916602001856111d4565b8284526020838301011161017657816000926020809301838601378301015290565b90600282101561040c5752565b90600482101561040c5752565b6001546001600160a01b0316330361136757565b606460405162461bcd60e51b815260206004820152602060248201527f4f776e61626c653a2063616c6c6572206973206e6f7420746865206f776e65726044820152fd5b156113b257565b60405162461bcd60e51b815260206004820152601260248201527149442063616e6e6f7420626520656d70747960701b6044820152606490fd5b919082018092116113f957565b634e487b7160e01b600052601160045260246000fd5b91909182516001600160401b0381116111a35761142c825461114d565b601f81116114d6575b50602080601f8311600114611472575081929394600092611467575b50508160011b916000199060031b1c1916179055565b015190503880611451565b90601f198316958460005282600020926000905b8882106114be575050836001959697106114a5575b505050811b019055565b015160001960f88460031b161c1916905538808061149b565b80600185968294968601518155019501930190611486565b600083815260208120601f840160051c81019260208510611514575b601f0160051c01915b828110611509575050611435565b8181556001016114fb565b90925082906114f2565b60045490680100000000000000008210156111a3576001820180600455821015611572576112339160046000527f8a35acfbc15ff81a39ae7d344fd709f28e8600b4aa8c65c6b64bfe7fe36bd19b0161140f565b634e487b7160e01b600052603260045260246000fd5b600260005414611599576002600055565b60405162461bcd60e51b815260206004820152601f60248201527f5265656e7472616e637947756172643a207265656e7472616e742063616c6c006044820152606490fd5b919082039182116113f957565b6040518151906020818185019361160381838761129b565b810160028152030190209160ff600984015416600281101561040c5760011461162f5750506003015490565b6116479160209160405193849283925192839161129b565b81016003815203019020906116606005820154426115de565b60028301549081156116bd5704906001830154918281029281840414901517156113f957600201548181118015906116aa575b6116a4576116a192506115de565b90565b50505490565b506116b582826115de565b835411611693565b634e487b7160e01b600052601260045260246000fdfea2646970667358221220559302e95be499c1ac1971fc96940b73fdb4851c8c2cc165f005ed8b04ace10464736f6c63430008140033",
  "linkReferences": {},
  "deployedLinkReferences": {}
}