{
  "_format": "hh-sol-artifact-1",
  "contractName": "DutchAuction",
  "sourceName": "contracts/DutchAuction.sol",
  "abi": [
    {
      "inputs": [
        {
          "internalType": "string",
          "name": "_description",
          "type": "string"
        },
        {
          "internalType": "string",
          "name": "_image",
          "type": "string"
        },
        {
          "internalType": "uint256",
          "name": "_startPrice",
          "type": "uint256"
        },
        {
          "internalType": "uint256",
          "name": "_endPrice",
          "type": "uint256"
        },
        {
          "internalType": "uint256",
          "name": "_duration",
          "type": "uint256"
        },
        {
          "internalType": "string",
          "name": "_name",
          "type": "string"
        },
        {
          "internalType": "string",
          "name": "_itemDescription",
          "type": "string"
        },
        {
          "internalType": "string",
          "name": "_condition",
          "type": "string"
        },
        {
          "internalType": "string",
          "name": "_dimensions",
          "type": "string"
        },
        {
          "internalType": "uint256",
          "name": "_weight",
          "type": "uint256"
        },
        {
          "internalType": "string[]",
          "name": "_images",
          "type": "string[]"
        },
        {
          "internalType": "string",
          "name": "_shippingAddress",
          "type": "string"
        },
        {
          "internalType": "bool",
          "name": "_isPhysical",
          "type": "bool"
        }
      ],
      "stateMutability": "nonpayable",
      "type": "constructor"
    },
    {
      "anonymous": false,
      "inputs": [
        {
          "indexed": true,
          "internalType": "address",
          "name": "seller",
          "type": "address"
        },
        {
          "indexed": false,
          "internalType": "uint256",
          "name": "startingPrice",
          "type": "uint256"
        },
        {
          "indexed": false,
          "internalType": "uint256",
          "name": "duration",
          "type": "uint256"
        },
        {
          "indexed": false,
          "internalType": "string",
          "name": "description",
          "type": "string"
        }
      ],
      "name": "AuctionCreated",
      "type": "event"
    },
    {
      "anonymous": false,
      "inputs": [
        {
          "indexed": true,
          "internalType": "address",
          "name": "winner",
          "type": "address"
        },
        {
          "indexed": false,
          "internalType": "uint256",
          "name": "amount",
          "type": "uint256"
        }
      ],
      "name": "AuctionEnded",
      "type": "event"
    },
    {
      "anonymous": false,
      "inputs": [
        {
          "indexed": true,
          "internalType": "address",
          "name": "bidder",
          "type": "address"
        },
        {
          "indexed": false,
          "internalType": "uint256",
          "name": "amount",
          "type": "uint256"
        }
      ],
      "name": "BidPlaced",
      "type": "event"
    },
    {
      "anonymous": false,
      "inputs": [
        {
          "indexed": true,
          "internalType": "address",
          "name": "buyer",
          "type": "address"
        },
        {
          "indexed": false,
          "internalType": "string",
          "name": "reason",
          "type": "string"
        }
      ],
      "name": "DisputeRaised",
      "type": "event"
    },
    {
      "anonymous": false,
      "inputs": [
        {
          "indexed": true,
          "internalType": "address",
          "name": "winner",
          "type": "address"
        },
        {
          "indexed": false,
          "internalType": "uint256",
          "name": "amount",
          "type": "uint256"
        }
      ],
      "name": "DisputeResolved",
      "type": "event"
    },
    {
      "anonymous": false,
      "inputs": [
        {
          "indexed": true,
          "internalType": "address",
          "name": "escrowAgent",
          "type": "address"
        },
        {
          "indexed": false,
          "internalType": "uint256",
          "name": "escrowFee",
          "type": "uint256"
        }
      ],
      "name": "EscrowCreated",
      "type": "event"
    },
    {
      "anonymous": false,
      "inputs": [
        {
          "indexed": false,
          "internalType": "uint256",
          "name": "amount",
          "type": "uint256"
        }
      ],
      "name": "EscrowFunded",
      "type": "event"
    },
    {
      "anonymous": false,
      "inputs": [
        {
          "indexed": true,
          "internalType": "address",
          "name": "buyer",
          "type": "address"
        },
        {
          "indexed": false,
          "internalType": "uint256",
          "name": "amount",
          "type": "uint256"
        }
      ],
      "name": "EscrowRefunded",
      "type": "event"
    },
    {
      "anonymous": false,
      "inputs": [
        {
          "indexed": true,
          "internalType": "address",
          "name": "seller",
          "type": "address"
        },
        {
          "indexed": false,
          "internalType": "uint256",
          "name": "amount",
          "type": "uint256"
        }
      ],
      "name": "EscrowReleased",
      "type": "event"
    },
    {
      "anonymous": false,
      "inputs": [
        {
          "indexed": true,
          "internalType": "address",
          "name": "buyer",
          "type": "address"
        },
        {
          "indexed": false,
          "internalType": "bool",
          "name": "conditionMet",
          "type": "bool"
        }
      ],
      "name": "ItemReceived",
      "type": "event"
    },
    {
      "anonymous": false,
      "inputs": [
        {
          "indexed": true,
          "internalType": "address",
          "name": "seller",
          "type": "address"
        },
        {
          "indexed": false,
          "internalType": "string",
          "name": "trackingNumber",
          "type": "string"
        }
      ],
      "name": "ItemShipped",
      "type": "event"
    },
    {
      "anonymous": false,
      "inputs": [
        {
          "indexed": false,
          "internalType": "address",
          "name": "account",
          "type": "address"
        }
      ],
      "name": "Paused",
      "type": "event"
    },
    {
      "anonymous": false,
      "inputs": [
        {
          "indexed": false,
          "internalType": "address",
          "name": "account",
          "type": "address"
        }
      ],
      "name": "Unpaused",
      "type": "event"
    },
    {
      "inputs": [],
      "name": "auctioneer",
      "outputs": [
        {
          "internalType": "address",
          "name": "",
          "type": "address"
        }
      ],
      "stateMutability": "view",
      "type": "function"
    },
    {
      "inputs": [
        {
          "internalType": "bool",
          "name": "conditionMet",
          "type": "bool"
        }
      ],
      "name": "confirmItemReceived",
      "outputs": [],
      "stateMutability": "nonpayable",
      "type": "function"
    },
    {
      "inputs": [],
      "name": "description",
      "outputs": [
        {
          "internalType": "string",
          "name": "",
          "type": "string"
        }
      ],
      "stateMutability": "view",
      "type": "function"
    },
    {
      "inputs": [],
      "name": "duration",
      "outputs": [
        {
          "internalType": "uint256",
          "name": "",
          "type": "uint256"
        }
      ],
      "stateMutability": "view",
      "type": "function"
    },
    {
      "inputs": [],
      "name": "endAuction",
      "outputs": [],
      "stateMutability": "nonpayable",
      "type": "function"
    },
    {
      "inputs": [],
      "name": "endPrice",
      "outputs": [
        {
          "internalType": "uint256",
          "name": "",
          "type": "uint256"
        }
      ],
      "stateMutability": "view",
      "type": "function"
    },
    {
      "inputs": [],
      "name": "escrow",
      "outputs": [
        {
          "internalType": "bool",
          "name": "isActive",
          "type": "bool"
        },
        {
          "internalType": "address",
          "name": "escrowAgent",
          "type": "address"
        },
        {
          "internalType": "uint256",
          "name": "escrowFee",
          "type": "uint256"
        },
        {
          "internalType": "bool",
          "name": "itemReceived",
          "type": "bool"
        },
        {
          "internalType": "bool",
          "name": "paymentReleased",
          "type": "bool"
        }
      ],
      "stateMutability": "view",
      "type": "function"
    },
    {
      "inputs": [],
      "name": "escrowBalance",
      "outputs": [
        {
          "internalType": "uint256",
          "name": "",
          "type": "uint256"
        }
      ],
      "stateMutability": "view",
      "type": "function"
    },
    {
      "inputs": [],
      "name": "escrowFunded",
      "outputs": [
        {
          "internalType": "bool",
          "name": "",
          "type": "bool"
        }
      ],
      "stateMutability": "view",
      "type": "function"
    },
    {
      "inputs": [],
      "name": "escrowReleased",
      "outputs": [
        {
          "internalType": "bool",
          "name": "",
          "type": "bool"
        }
      ],
      "stateMutability": "view",
      "type": "function"
    },
    {
      "inputs": [],
      "name": "fundEscrow",
      "outputs": [],
      "stateMutability": "payable",
      "type": "function"
    },
    {
      "inputs": [],
      "name": "getAuctionDetails",
      "outputs": [
        {
          "internalType": "address",
          "name": "sellerAddr",
          "type": "address"
        },
        {
          "internalType": "string",
          "name": "desc",
          "type": "string"
        },
        {
          "internalType": "string",
          "name": "img",
          "type": "string"
        },
        {
          "internalType": "uint256",
          "name": "currentPrice",
          "type": "uint256"
        },
        {
          "internalType": "uint256",
          "name": "auctionEndTime",
          "type": "uint256"
        },
        {
          "internalType": "bool",
          "name": "completed",
          "type": "bool"
        },
        {
          "internalType": "address",
          "name": "winnerAddr",
          "type": "address"
        },
        {
          "components": [
            {
              "internalType": "string",
              "name": "name",
              "type": "string"
            },
            {
              "internalType": "string",
              "name": "description",
              "type": "string"
            },
            {
              "internalType": "string",
              "name": "condition",
              "type": "string"
            },
            {
              "internalType": "string",
              "name": "dimensions",
              "type": "string"
            },
            {
              "internalType": "uint256",
              "name": "weight",
              "type": "uint256"
            },
            {
              "internalType": "string[]",
              "name": "images",
              "type": "string[]"
            },
            {
              "internalType": "string",
              "name": "shippingAddress",
              "type": "string"
            },
            {
              "internalType": "bool",
              "name": "isPhysical",
              "type": "bool"
            }
          ],
          "internalType": "struct IAuction.PhysicalItem",
          "name": "physicalItem",
          "type": "tuple"
        },
        {
          "components": [
            {
              "internalType": "bool",
              "name": "isActive",
              "type": "bool"
            },
            {
              "internalType": "address",
              "name": "escrowAgent",
              "type": "address"
            },
            {
              "internalType": "uint256",
              "name": "escrowFee",
              "type": "uint256"
            },
            {
              "internalType": "bool",
              "name": "itemReceived",
              "type": "bool"
            },
            {
              "internalType": "bool",
              "name": "paymentReleased",
              "type": "bool"
            }
          ],
          "internalType": "struct IAuction.Escrow",
          "name": "escrowInfo",
          "type": "tuple"
        }
      ],
      "stateMutability": "view",
      "type": "function"
    },
    {
      "inputs": [],
      "name": "getAuctionPrice",
      "outputs": [
        {
          "internalType": "uint256",
          "name": "",
          "type": "uint256"
        }
      ],
      "stateMutability": "view",
      "type": "function"
    },
    {
      "inputs": [],
      "name": "getCurrentPrice",
      "outputs": [
        {
          "internalType": "uint256",
          "name": "",
          "type": "uint256"
        }
      ],
      "stateMutability": "view",
      "type": "function"
    },
    {
      "inputs": [],
      "name": "getEscrowAmount",
      "outputs": [
        {
          "internalType": "uint256",
          "name": "",
          "type": "uint256"
        }
      ],
      "stateMutability": "view",
      "type": "function"
    },
    {
      "inputs": [],
      "name": "image",
      "outputs": [
        {
          "internalType": "string",
          "name": "",
          "type": "string"
        }
      ],
      "stateMutability": "view",
      "type": "function"
    },
    {
      "inputs": [],
      "name": "isCompleted",
      "outputs": [
        {
          "internalType": "bool",
          "name": "",
          "type": "bool"
        }
      ],
      "stateMutability": "view",
      "type": "function"
    },
    {
      "inputs": [],
      "name": "item",
      "outputs": [
        {
          "internalType": "string",
          "name": "name",
          "type": "string"
        },
        {
          "internalType": "string",
          "name": "description",
          "type": "string"
        },
        {
          "internalType": "string",
          "name": "condition",
          "type": "string"
        },
        {
          "internalType": "string",
          "name": "dimensions",
          "type": "string"
        },
        {
          "internalType": "uint256",
          "name": "weight",
          "type": "uint256"
        },
        {
          "internalType": "string",
          "name": "shippingAddress",
          "type": "string"
        },
        {
          "internalType": "bool",
          "name": "isPhysical",
          "type": "bool"
        }
      ],
      "stateMutability": "view",
      "type": "function"
    },
    {
      "inputs": [],
      "name": "paused",
      "outputs": [
        {
          "internalType": "bool",
          "name": "",
          "type": "bool"
        }
      ],
      "stateMutability": "view",
      "type": "function"
    },
    {
      "inputs": [],
      "name": "placeBid",
      "outputs": [],
      "stateMutability": "payable",
      "type": "function"
    },
    {
      "inputs": [
        {
          "internalType": "address",
          "name": "",
          "type": "address"
        }
      ],
      "name": "purchases",
      "outputs": [
        {
          "internalType": "uint256",
          "name": "",
          "type": "uint256"
        }
      ],
      "stateMutability": "pure",
      "type": "function"
    },
    {
      "inputs": [
        {
          "internalType": "string",
          "name": "reason",
          "type": "string"
        }
      ],
      "name": "raiseDispute",
      "outputs": [],
      "stateMutability": "nonpayable",
      "type": "function"
    },
    {
      "inputs": [
        {
          "internalType": "address",
          "name": "disputeWinner",
          "type": "address"
        }
      ],
      "name": "resolveDispute",
      "outputs": [],
      "stateMutability": "nonpayable",
      "type": "function"
    },
    {
      "inputs": [],
      "name": "seller",
      "outputs": [
        {
          "internalType": "address",
          "name": "",
          "type": "address"
        }
      ],
      "stateMutability": "view",
      "type": "function"
    },
    {
      "inputs": [
        {
          "internalType": "string",
          "name": "trackingNumber",
          "type": "string"
        }
      ],
      "name": "shipItem",
      "outputs": [],
      "stateMutability": "nonpayable",
      "type": "function"
    },
    {
      "inputs": [],
      "name": "startPrice",
      "outputs": [
        {
          "internalType": "uint256",
          "name": "",
          "type": "uint256"
        }
      ],
      "stateMutability": "view",
      "type": "function"
    },
    {
      "inputs": [],
      "name": "startTime",
      "outputs": [
        {
          "internalType": "uint256",
          "name": "",
          "type": "uint256"
        }
      ],
      "stateMutability": "view",
      "type": "function"
    },
    {
      "inputs": [],
      "name": "winner",
      "outputs": [
        {
          "internalType": "address",
          "name": "",
          "type": "address"
        }
      ],
      "stateMutability": "view",
      "type": "function"
    }
  ],
  "bytecode": "0x60806040523462000cfc576200298080380390816200001e8162000d42565b9182396101a081838101031262000cfc5780516001600160401b03811162000cfc57620000519083830190830162000d68565b60208201516001600160401b03811162000cfc57620000769084840190840162000d68565b9160408101519360608201519360808301519560a084015160018060401b03811162000cfc57620000ad9084860190860162000d68565b60c08501519096906001600160401b03811162000cfc57620000d59085870190870162000d68565b60e08601519098906001600160401b03811162000cfc57620000fd9086880190880162000d68565b6101008701519092906001600160401b03811162000cfc57620001269087890190890162000d68565b93610120880151956101408901519760018060401b03891162000cfc57808a01601f8a8c0101121562000cfc5789890151986001600160401b038a1162000649578960051b9060206200017b81840162000d42565b9b8c528b0190838d018d820184016020011162000cfc578c91602084838281870101955b010101831062000d0157505050506101608a0151906001600160401b03821162000cfc5761018091620001d7918c01908c0162000d68565b990151998a15158b0362000cfc576001600d55600e80546001600160a81b0319163360081b610100600160a81b03161790558051906001600160401b038211620006495781906200022a600f5462000dda565b601f811162000cba575b50602090601f831160011462000c3c5760009262000c30575b50508160011b916000199060031b1c191617600f555b8051906001600160401b038211620006495781906200028460105462000dda565b601f811162000bee575b50602090601f831160011462000b705760009262000b64575b50508160011b916000199060031b1c1916176010555b601155601255601355426014556015805460ff191690556040519761010089016001600160401b0381118a8210176200064957604052878952602089015260408801526060870152608086015260a085015260c0840152151560e083015280519060018060401b038211620006495781906200033b60025462000dda565b601f811162000b22575b50602090601f831160011462000aa45760009262000a98575b50508160011b916000199060031b1c1916176002555b60208101518051906001600160401b038211620006495781906200039a60035462000dda565b601f811162000a45575b50602090601f8311600114620009b657600092620009aa575b50508160011b916000199060031b1c1916176003555b60408101518051906001600160401b03821162000649578190620003f960045462000dda565b601f811162000957575b50602090601f8311600114620008c857600092620008bc575b50508160011b916000199060031b1c1916176004555b606081015180519091906001600160401b03811162000649576200045860055462000dda565b601f811162000885575b50602092601f82116001146200081a57928192936000926200080e575b50508160011b916000199060031b1c1916176005555b608081015160065560a081015180519068010000000000000000821162000649576007548260075580831062000783575b50600760009081526000805160206200290083398151915292916020015b8282106200065f5760c085015180519086906001600160401b03831162000649576200051260085462000dda565b601f8111620005fb575b50602090601f84116001146200057e5760e093916000918362000572575b50508160011b916000199060031b1c1916176008555b0151151560ff801960095416911617600955604051611aaf908162000e318239f35b0151905084806200053a565b6008600090815260008051602062002920833981519152929190601f198616905b818110620005e2575091600193918660e0979410620005c8575b505050811b0160085562000550565b015160001960f88460031b161c19169055848080620005b9565b929360206001819287860151815501950193016200059f565b6008600052620006379060008051602062002920833981519152601f860160051c810191602087106200063e575b601f0160051c019062000e17565b836200051c565b909150819062000629565b634e487b7160e01b600052604160045260246000fd5b80518051906001600160401b03821162000649576200067f865462000dda565b601f81116200074d575b50602090601f8311600114620006da579282600194936020938695600092620006ce575b5050600019600383901b1c191690841b1787555b01940191019092620004e4565b015190503880620006ad565b90601f198316918760005260206000209260005b8181106200073457509360209360019693879693838895106200071a575b505050811b018755620006c1565b015160001960f88460031b161c191690553880806200070c565b92936020600181928786015181550195019301620006ee565b6200077c90876000526020600020601f850160051c810191602086106200063e57601f0160051c019062000e17565b3862000689565b6007600052600080516020620029008339815191529081019083015b818110620007ae5750620004c6565b80620007bd6001925462000dda565b80620007cc575b50016200079f565b601f81118314620007e45750600081555b38620007c4565b60009082825262000804601f60208420920160051c820185830162000e17565b81835555620007dd565b0151905038806200047f565b601f19821693600560005260206000209160005b8681106200086c575083600195961062000852575b505050811b0160055562000495565b015160001960f88460031b161c1916905538808062000843565b919260206001819286850151815501940192016200082e565b620008b59060056000526020600020601f840160051c810191602085106200063e57601f0160051c019062000e17565b3862000462565b0151905038806200041c565b6004600090815293507f8a35acfbc15ff81a39ae7d344fd709f28e8600b4aa8c65c6b64bfe7fe36bd19b91905b601f19841685106200093b576001945083601f1981161062000921575b505050811b0160045562000432565b015160001960f88460031b161c1916905538808062000912565b81810151835560209485019460019093019290910190620008f5565b6004600052620009a3907f8a35acfbc15ff81a39ae7d344fd709f28e8600b4aa8c65c6b64bfe7fe36bd19b601f850160051c810191602086106200063e57601f0160051c019062000e17565b3862000403565b015190503880620003bd565b6003600090815293507fc2575a0e9e593c00f959f8c92f12db2869c3395a3b0502d05e2516446f71f85b91905b601f198416851062000a29576001945083601f1981161062000a0f575b505050811b01600355620003d3565b015160001960f88460031b161c1916905538808062000a00565b81810151835560209485019460019093019290910190620009e3565b600360005262000a91907fc2575a0e9e593c00f959f8c92f12db2869c3395a3b0502d05e2516446f71f85b601f850160051c810191602086106200063e57601f0160051c019062000e17565b38620003a4565b0151905038806200035e565b600260009081529350600080516020620028e083398151915291905b601f198416851062000b06576001945083601f1981161062000aec575b505050811b0160025562000374565b015160001960f88460031b161c1916905538808062000add565b8181015183556020948501946001909301929091019062000ac0565b600260005262000b5d90600080516020620028e0833981519152601f850160051c810191602086106200063e57601f0160051c019062000e17565b3862000345565b015190503880620002a7565b6010600090815293506000805160206200294083398151915291905b601f198416851062000bd2576001945083601f1981161062000bb8575b505050811b01601055620002bd565b015160001960f88460031b161c1916905538808062000ba9565b8181015183556020948501946001909301929091019062000b8c565b601060005262000c299060008051602062002940833981519152601f850160051c810191602086106200063e57601f0160051c019062000e17565b386200028e565b0151905038806200024d565b600f600090815293506000805160206200296083398151915291905b601f198416851062000c9e576001945083601f1981161062000c84575b505050811b01600f5562000263565b015160001960f88460031b161c1916905538808062000c75565b8181015183556020948501946001909301929091019062000c58565b600f60005262000cf59060008051602062002960833981519152601f850160051c810191602086106200063e57601f0160051c019062000e17565b3862000234565b600080fd5b8251936001600160401b03851162000cfc57828f956020809462000d308293838c8c0191878d01010162000d68565b8152019501949291959086916200019f565b6040519190601f01601f191682016001600160401b038111838210176200064957604052565b919080601f8401121562000cfc5782516001600160401b038111620006495760209062000d9e601f8201601f1916830162000d42565b9281845282828701011162000cfc5760005b81811062000dc657508260009394955001015290565b858101830151848201840152820162000db0565b90600182811c9216801562000e0c575b602083101462000df657565b634e487b7160e01b600052602260045260246000fd5b91607f169162000dea565b81811062000e23575050565b6000815560010162000e1756fe6080604052600436101561001257600080fd5b60003560e01c806308551a531461115b5780630fb5a6b41461113d5780633a6dcea214610d075780634bd25c6f14610627578063562e4d3814610ce457806356eec68d14610be05780635c975abb14610bbd5780635ec2c7bf14610bb8578063725a3b4b14610b295780637284e41614610b0d57806378e9792514610aef5780637b499faa14610ac9578063842a77d314610a9b57806388e7e36614610957578063a5d737ac1461081f578063a5e845b4146107fc578063b868723e146107de578063d8461182146106cd578063dfbf53ae146106a0578063e11e1b0c14610682578063e2fdcc171461062c578063eb91d37e14610627578063ecfc7ecc1461035f578063f1a9af8914610341578063f2a4a82e1461028f578063f3ccaac01461025b578063fa391c64146102385763fe67a54b1461015057600080fd5b346102335760003660031901126102335760155460ff81166101f65761017b601454601354906117e6565b42106101ba5760019060ff19161760155560007fdaec4582d5d9595688c8c98545fdd1c696d41c6aeaeb636737e84ed2f5c00eda6020604051838152a2005b60405162461bcd60e51b815260206004820152601460248201527341756374696f6e207374696c6c2061637469766560601b6044820152606490fd5b60405162461bcd60e51b8152602060048201526015602482015274105d58dd1a5bdb88185b1c9958591e48195b991959605a1b6044820152606490fd5b600080fd5b3461023357600036600319011261023357602060ff601554166040519015158152f35b346102335760003660031901126102335761028b6102776113ae565b604051918291602083526020830190611188565b0390f35b34610233576000366003190112610233576102f86102ab611462565b6102b3611516565b6103356102be6115ca565b6102c661167e565b90610322600654926103146102d9611732565b9361030660ff60095416986040519b8c9b60e08d5260e08d0190611188565b908b820360208d0152611188565b9089820360408b0152611188565b908782036060890152611188565b91608086015284820360a0860152611188565b90151560c08301520390f35b34610233576000366003190112610233576020601154604051908152f35b6000366003190112610233576002600d54146105e2576002600d55600e5460ff81166105aa576015549060ff821661056557610399611816565b80341061050e57610100600160a81b039160016affffffffffffffffffffff60a81b9485853360081b16911617176015556040513481527fdaec4582d5d9595688c8c98545fdd1c696d41c6aeaeb636737e84ed2f5c00eda60203392a260095460ff1615610494575050602060017f137fb716243bb1721111512a26c6a2d922e0bf3022df1ea74c7ef10ab3bc0dc792610431611a57565b946000608060405161044281611200565b85815230878201528860408201528260608201520152600a54913060081b169116171780600a5583600b5561ffff19600c5416600c5560405193845260018060a01b039060081c1692a25b6001600d55005b81935060008093508092819282908215610504575b60081c6001600160a01b031690f1156104ef578034116104ca575b5061048d565b600080806104d9819434611809565b8181156104fb575b3390f1156104ef57806104c4565b6040513d6000823e3d90fd5b506108fc6104e1565b6108fc91506104a9565b60405162461bcd60e51b815260206004820152602960248201527f426964206d757374206d656574206f7220657863656564207468652063757272604482015268656e7420707269636560b81b6064820152608490fd5b60405162461bcd60e51b815260206004820152601960248201527f41756374696f6e2068617320616c726561647920656e646564000000000000006044820152606490fd5b60405162461bcd60e51b815260206004820152601060248201526f14185d5cd8589b194e881c185d5cd95960821b6044820152606490fd5b60405162461bcd60e51b815260206004820152601f60248201527f5265656e7472616e637947756172643a207265656e7472616e742063616c6c006044820152606490fd5b6111c8565b346102335760003660031901126102335760a0600a5460ff600b54600c54906040519383811615158552600180871b039060081c16602085015260408401528181161515606084015260081c1615156080820152f35b34610233576000366003190112610233576020600054604051908152f35b346102335760003660031901126102335760155460405160089190911c6001600160a01b03168152602090f35b34610233576020366003190112610233576004356001600160a01b03818116918290036102335761070690600e5460081c16331461188b565b61071460ff600154166118d7565b61072360ff600a541615611963565b600c5461073360ff8216156119a5565b60ff8160081c166107995760207ff396531fad1d4dc2cd92386cdea800c92a507f8fe1bdb80313eb32a57481b1dc91610100600054916000805561ff00191617600c55610790600080808085895af161078a6119e9565b50611a19565b604051908152a2005b60405162461bcd60e51b815260206004820152601860248201527f5061796d656e7420616c72656164792072656c656173656400000000000000006044820152606490fd5b34610233576000366003190112610233576020601254604051908152f35b34610233576000366003190112610233576020610817611a57565b604051908152f35b60003660031901126102335761084360018060a01b03600e5460081c16331461188b565b60015460ff811661091a5734156108e55761085c611a57565b908134106108a0578160016020927f3b4f5a74452cddb80ae5a0d279eb7db6afd5e556e72ca2883016b1da7c9d21169460005560ff191617600155604051908152a1005b60405162461bcd60e51b815260206004820152601a60248201527f496e73756666696369656e7420657363726f7720616d6f756e740000000000006044820152606490fd5b60405162461bcd60e51b815260206004820152600d60248201526c09aeae6e840e6cadcc8408aa89609b1b6044820152606490fd5b60405162461bcd60e51b8152602060048201526015602482015274115cd8dc9bddc8185b1c9958591e48199d5b991959605a1b6044820152606490fd5b3461023357602036600319011261023357600435801515908181036102335760018060a01b03916109908360155460081c163314611917565b61099e60ff600154166118d7565b6109ad60ff600a541615611963565b610101600c546109c060ff8216156119a5565b61ffff191617600c556040519081527f27a5ccc16be6802bcec7c2477a2b588a54c808352ef7dab930058f65864b3ce960203392a215610a51577fe327b247066bdf32cf2493778e3fce4339b69c1e379a3b0dc780779bf67fe15560206000549260008055610a4060008080808886600e5460081c165af161078a6119e9565b600e5460081c1692604051908152a2005b5060005460008055610a6d600080808085335af161078a6119e9565b6040519081527f894ce7cc354d2a39de53f8dab6b0ad8c5ac65641e68aa2154fdb88bcc387e3dd60203392a2005b34610233576020366003190112610233576004356001600160a01b0381160361023357602060405160008152f35b3461023357600036600319011261023357602060ff60015460081c166040519015158152f35b34610233576000366003190112610233576020601454604051908152f35b346102335760003660031901126102335761028b6102776112c3565b3461023357610b373661125a565b610b4f60018060a01b0360155460081c163314611917565b610b5d60ff600154166118d7565b610b6c60ff600a541615611963565b610b7b60ff600c5416156119a5565b7f28b099eb575e23e32becd7c30dc8f9b2f98e370cdbf9841ea3338d9000402a256040516020815280610bb333946020830190611188565b0390a2005b61115b565b3461023357600036600319011261023357602060ff600e54166040519015158152f35b3461023357610bee3661125a565b610c0660018060a01b03600e5460081c16331461188b565b610c1460ff600154166118d7565b600a5460ff811615610cab57815115610c665760ff1916600a557f2eb59c65a13ffe423f16ef2c7edd21afcde560ef40c04008402e75d5c0b04b2f6040516020815280610bb333946020830190611188565b60405162461bcd60e51b815260206004820152601760248201527f496e76616c696420747261636b696e67206e756d6265720000000000000000006044820152606490fd5b60405162461bcd60e51b8152602060048201526011602482015270457363726f77206e6f742061637469766560781b6044820152606490fd5b3461023357600036600319011261023357602060ff600154166040519015158152f35b3461023357600036600319011261023357600060e0604051610d28816111e3565b606081526060602082015260606040820152606080820152826080820152606060a0820152606060c0820152015260006080604051610d6681611200565b8281528260208201528260408201528260608201520152600e54610d88611816565b90610d98601454601354906117e6565b60155492610da46112c3565b93610dad6113ae565b9260405193610dbb856111e3565b610dc3611462565b8552610dcd611516565b6020860152610dda6115ca565b6040860152610de761167e565b6060860152600654608086015260075467ffffffffffffffff81116111275760405190610e1a60208260051b018361121c565b808252602082019060076000527fa66cc928b5edb82af9bd49922954155ab7b0942694bea4ce44661d9a8736c688916000905b828210611050575050505060a0860152610efa90610e69611732565b60c087015260ff60095416151560e0870152610eec60405198610e8b8a611200565b600a5460ff811615158b5260018060a01b039060081c1660208b0152600b5460408b015260ff600c54818116151560608d015260081c16151560808b01526040519860018060a01b039060081c1689526101a08060208b0152890190611188565b908782036040890152611188565b926060860152608085015260ff8116151560a085015260018060a01b039060081c1660c084015282810360e0840152610f7d610f6b610f59610f4785516101008652610100860190611188565b60208601518582036020870152611188565b60408501518482036040860152611188565b60608401518382036060850152611188565b6080830151608083015260a08301519082810360a0840152815180825260208201916020808360051b8301019401926000915b8383106110235788808960808d8b60e080610fd78e60c088015185820360c0870152611188565b95015115159101528051151561010085015260208101516001600160a01b0316610120850152604081015161014085015260608101511515610160850152015115156101808301520390f35b9091929394602080611041600193601f198682030187528951611188565b97019301930191939290610fb0565b604051600085548060011c90600181161561111d575b60208210600182161461110757818452600181169081156110e457506001146110ac575b506001928261109e8594602094038261121c565b815201940191019092610e4d565b6000878152602081209092505b8183106110ce5750508101602001600161108a565b60018160209254838688010152019201916110b9565b60ff191660208581019190915291151560051b840190910191506001905061108a565b634e487b7160e01b600052602260045260246000fd5b90607f1690611066565b634e487b7160e01b600052604160045260246000fd5b34610233576000366003190112610233576020601354604051908152f35b3461023357600036600319011261023357600e5460405160089190911c6001600160a01b03168152602090f35b919082519283825260005b8481106111b4575050826000602080949584010152601f8019910116010190565b602081830181015184830182015201611193565b34610233576000366003190112610233576020610817611816565b610100810190811067ffffffffffffffff82111761112757604052565b60a0810190811067ffffffffffffffff82111761112757604052565b90601f8019910116810190811067ffffffffffffffff82111761112757604052565b67ffffffffffffffff811161112757601f01601f191660200190565b60206003198201126102335760043567ffffffffffffffff81116102335781602382011215610233578060040135906112928261123e565b926112a0604051948561121c565b828452602483830101116102335781600092602460209301838601378301015290565b604051906000600f5490600182811c908084169384156113a4575b602094858410811461139057838852879493929181156113705750600114611311575b505061130f9250038361121c565b565b90939150600f6000527f8d1108e10bcb7c27dddfc02ed9d693a074039d026cf4ea4240b40f7d581ac802936000915b81831061135857505061130f93508201013880611301565b85548884018501529485019487945091830191611340565b91505061130f94925060ff191682840152151560051b8201013880611301565b634e487b7160e01b85526022600452602485fd5b91607f16916112de565b60405190600060105490600182811c90808416938415611458575b6020948584108114611390578388528794939291811561137057506001146113f957505061130f9250038361121c565b9093915060106000527f1b6847dc741a1b0cd08d278845f9d819d87b734759afb55fe2de5cb82a9ae672936000915b81831061144057505061130f93508201013880611301565b85548884018501529485019487945091830191611428565b91607f16916113c9565b60405190600060025490600182811c9080841693841561150c575b6020948584108114611390578388528794939291811561137057506001146114ad57505061130f9250038361121c565b9093915060026000527f405787fa12a823e0f2b7631cc41b3ba8828b3321ca811111fa75cd3aa3bb5ace936000915b8183106114f457505061130f93508201013880611301565b855488840185015294850194879450918301916114dc565b91607f169161147d565b60405190600060035490600182811c908084169384156115c0575b60209485841081146113905783885287949392918115611370575060011461156157505061130f9250038361121c565b9093915060036000527fc2575a0e9e593c00f959f8c92f12db2869c3395a3b0502d05e2516446f71f85b936000915b8183106115a857505061130f93508201013880611301565b85548884018501529485019487945091830191611590565b91607f1691611531565b60405190600060045490600182811c90808416938415611674575b60209485841081146113905783885287949392918115611370575060011461161557505061130f9250038361121c565b9093915060046000527f8a35acfbc15ff81a39ae7d344fd709f28e8600b4aa8c65c6b64bfe7fe36bd19b936000915b81831061165c57505061130f93508201013880611301565b85548884018501529485019487945091830191611644565b91607f16916115e5565b60405190600060055490600182811c90808416938415611728575b6020948584108114611390578388528794939291811561137057506001146116c957505061130f9250038361121c565b9093915060056000527f036b6384b5eca791c62761152d0c79bb0604c104a5fb6f4eb0703f3154bb3db0936000915b81831061171057505061130f93508201013880611301565b855488840185015294850194879450918301916116f8565b91607f1691611699565b60405190600060085490600182811c908084169384156117dc575b60209485841081146113905783885287949392918115611370575060011461177d57505061130f9250038361121c565b9093915060086000527ff3f7a9fe364faab93b216da50a3214154f22a0a2b415b23a84c8169e8b636ee3936000915b8183106117c457505061130f93508201013880611301565b855488840185015294850194879450918301916117ac565b91607f169161174d565b919082018092116117f357565b634e487b7160e01b600052601160045260246000fd5b919082039182116117f357565b6014546013549061182782826117e6565b421015611883576118389042611809565b906011549061184960125483611809565b8381029381850414901517156117f357801561186d5761186a920490611809565b90565b634e487b7160e01b600052601260045260246000fd5b505060125490565b1561189257565b60405162461bcd60e51b815260206004820152601960248201527f4f6e6c792073656c6c65722063616e2063616c6c2074686973000000000000006044820152606490fd5b156118de57565b60405162461bcd60e51b8152602060048201526011602482015270115cd8dc9bddc81b9bdd08199d5b991959607a1b6044820152606490fd5b1561191e57565b60405162461bcd60e51b815260206004820152601860248201527f4f6e6c792062757965722063616e2063616c6c207468697300000000000000006044820152606490fd5b1561196a57565b60405162461bcd60e51b8152602060048201526013602482015272457363726f77207374696c6c2061637469766560681b6044820152606490fd5b156119ac57565b60405162461bcd60e51b8152602060048201526015602482015274125d195b48185b1c9958591e481c9958d95a5d9959605a1b6044820152606490fd5b3d15611a14573d906119fa8261123e565b91611a08604051938461121c565b82523d6000602084013e565b606090565b15611a2057565b60405162461bcd60e51b815260206004820152600f60248201526e151c985b9cd9995c8819985a5b1959608a1b6044820152606490fd5b611a5f611816565b8060011b90808204600214901517156117f357606490049056fea2646970667358221220dffa517a0cd3a29e5b85e7ce5fc87c57cfe2816e4943deb312336e90fe9da3c964736f6c63430008140033405787fa12a823e0f2b7631cc41b3ba8828b3321ca811111fa75cd3aa3bb5acea66cc928b5edb82af9bd49922954155ab7b0942694bea4ce44661d9a8736c688f3f7a9fe364faab93b216da50a3214154f22a0a2b415b23a84c8169e8b636ee31b6847dc741a1b0cd08d278845f9d819d87b734759afb55fe2de5cb82a9ae6728d1108e10bcb7c27dddfc02ed9d693a074039d026cf4ea4240b40f7d581ac802",
  "linkReferences": {},
  "deployedLinkReferences": {}
}