{"contracts/User.sol":{"User":{"abi":[{"anonymous":false,"inputs":[{"indexed":true,"internalType":"address","name":"previousOwner","type":"address"},{"indexed":true,"internalType":"address","name":"newOwner","type":"address"}],"name":"OwnershipTransferred","type":"event"},{"anonymous":false,"inputs":[{"indexed":true,"internalType":"address","name":"seller","type":"address"},{"indexed":false,"internalType":"uint256","name":"newRating","type":"uint256"}],"name":"RatingUpdated","type":"event"},{"anonymous":false,"inputs":[{"indexed":true,"internalType":"address","name":"user","type":"address"},{"indexed":false,"internalType":"bool","name":"isSeller","type":"bool"}],"name":"SellerStatusChanged","type":"event"},{"anonymous":false,"inputs":[{"indexed":true,"internalType":"address","name":"user","type":"address"},{"indexed":false,"internalType":"string","name":"username","type":"string"}],"name":"UserCreated","type":"event"},{"anonymous":false,"inputs":[{"indexed":true,"internalType":"address","name":"user","type":"address"}],"name":"UserUpdated","type":"event"},{"inputs":[{"internalType":"address","name":"auctionAddress","type":"address"}],"name":"addCreatedAuction","outputs":[],"stateMutability":"nonpayable","type":"function"},{"inputs":[{"internalType":"address","name":"itemAddress","type":"address"}],"name":"addPurchase","outputs":[],"stateMutability":"nonpayable","type":"function"},{"inputs":[{"internalType":"uint256","name":"","type":"uint256"}],"name":"allUsers","outputs":[{"internalType":"address","name":"","type":"address"}],"stateMutability":"view","type":"function"},{"inputs":[],"name":"becomeSeller","outputs":[],"stateMutability":"nonpayable","type":"function"},{"inputs":[{"internalType":"string","name":"_username","type":"string"},{"internalType":"string","name":"_email","type":"string"},{"internalType":"string","name":"_profileImage","type":"string"},{"internalType":"string","name":"_bio","type":"string"}],"name":"createUser","outputs":[],"stateMutability":"nonpayable","type":"function"},{"inputs":[],"name":"getAllUsers","outputs":[{"internalType":"address[]","name":"","type":"address[]"}],"stateMutability":"view","type":"function"},{"inputs":[{"internalType":"address","name":"user","type":"address"}],"name":"getUserCreatedAuctions","outputs":[{"internalType":"address[]","name":"","type":"address[]"}],"stateMutability":"view","type":"function"},{"inputs":[{"internalType":"address","name":"user","type":"address"}],"name":"getUserProfile","outputs":[{"internalType":"string","name":"username","type":"string"},{"internalType":"string","name":"email","type":"string"},{"internalType":"string","name":"profileImage","type":"string"},{"internalType":"string","name":"bio","type":"string"},{"internalType":"bool","name":"isSeller","type":"bool"},{"internalType":"uint256","name":"sellerRating","type":"uint256"},{"internalType":"uint256","name":"totalSales","type":"uint256"},{"internalType":"uint256","name":"totalPurchases","type":"uint256"},{"internalType":"address[]","name":"createdAuctions","type":"address[]"},{"internalType":"address[]","name":"purchasedItems","type":"address[]"}],"stateMutability":"view","type":"function"},{"inputs":[{"internalType":"address","name":"user","type":"address"}],"name":"getUserPurchases","outputs":[{"internalType":"address[]","name":"","type":"address[]"}],"stateMutability":"view","type":"function"},{"inputs":[{"internalType":"address","name":"seller","type":"address"}],"name":"incrementSales","outputs":[],"stateMutability":"nonpayable","type":"function"},{"inputs":[{"internalType":"address","name":"user","type":"address"}],"name":"isUserSeller","outputs":[{"internalType":"bool","name":"","type":"bool"}],"stateMutability":"view","type":"function"},{"inputs":[],"name":"owner","outputs":[{"internalType":"address","name":"","type":"address"}],"stateMutability":"view","type":"function"},{"inputs":[],"name":"renounceOwnership","outputs":[],"stateMutability":"nonpayable","type":"function"},{"inputs":[{"internalType":"address","name":"newOwner","type":"address"}],"name":"transferOwnership","outputs":[],"stateMutability":"nonpayable","type":"function"},{"inputs":[{"internalType":"string","name":"_email","type":"string"},{"internalType":"string","name":"_profileImage","type":"string"},{"internalType":"string","name":"_bio","type":"string"}],"name":"updateProfile","outputs":[],"stateMutability":"nonpayable","type":"function"},{"inputs":[{"internalType":"address","name":"seller","type":"address"},{"internalType":"uint256","name":"rating","type":"uint256"}],"name":"updateSellerRating","outputs":[],"stateMutability":"nonpayable","type":"function"},{"inputs":[{"internalType":"string","name":"","type":"string"}],"name":"usernames","outputs":[{"internalType":"bool","name":"","type":"bool"}],"stateMutability":"view","type":"function"},{"inputs":[{"internalType":"address","name":"","type":"address"}],"name":"users","outputs":[{"internalType":"string","name":"username","type":"string"},{"internalType":"string","name":"email","type":"string"},{"internalType":"string","name":"profileImage","type":"string"},{"internalType":"string","name":"bio","type":"string"},{"internalType":"bool","name":"isSeller","type":"bool"},{"internalType":"uint256","name":"sellerRating","type":"uint256"},{"internalType":"uint256","name":"totalSales","type":"uint256"},{"internalType":"uint256","name":"totalPurchases","type":"uint256"},{"internalType":"bool","name":"exists","type":"bool"}],"stateMutability":"view","type":"function"}],"evm":{"bytecode":{"linkReferences":{},"object":"6080806040523461005f5760008054336001600160a01b0319821681178355916001600160a01b03909116907f8be0079c531659141344cd1fd0a4f28419497f9722a3daafe3b4186f6b6457e09080a360018055611adb90816100658239f35b600080fdfe6080604052600436101561001257600080fd5b60003560e01c80631105a5eb14611289578063358e29d214611195578063450ed73514611158578063517807e4146110ee578063694837a51461109d5780636f7fcddb146107eb578063715018a6146107925780638da5cb5b146107695780638f299b1e14610693578063987ee15614610506578063a2bdedf4146104ab578063a87430ba146103bb578063aaee301f1461035a578063bb54c00a14610318578063c6e5d8f6146102c7578063e2842d791461022e578063e417926a146101ab5763f2fde38b146100e257600080fd5b346101a65760203660031901126101a6576100fb6116e4565b61010361185f565b6001600160a01b0390811690811561015257600054826001600160601b0360a01b821617600055167f8be0079c531659141344cd1fd0a4f28419497f9722a3daafe3b4186f6b6457e0600080a3005b60405162461bcd60e51b815260206004820152602660248201527f4f776e61626c653a206e6577206f776e657220697320746865207a65726f206160448201526564647265737360d01b6064820152608490fd5b600080fd5b346101a65760203660031901126101a6576101c46116e4565b6101cc61185f565b6001600160a01b03166000818152600260205260409020600a01546101f39060ff166119a3565b80600052600260205261021060ff60046040600020015416611a0a565b6000526002602052600660406000200161022a81546119e5565b9055005b346101a65760003660031901126101a6576040518060045480825282602080930160046000527f8a35acfbc15ff81a39ae7d344fd709f28e8600b4aa8c65c6b64bfe7fe36bd19b9260005b858282106102a8575050506102909250038361166d565b6102a46040519282849384528301906116fa565b0390f35b85546001600160a01b0316845260019586019588955093019201610279565b346101a65760203660031901126101a6576001600160a01b036102e86116e4565b1660005260026020526102a46103046009604060002001611a4d565b6040519182916020835260208301906116fa565b346101a65760203660031901126101a6576001600160a01b036103396116e4565b166000526002602052602060ff600460406000200154166040519015158152f35b346101a65760203660031901126101a6576004356001600160401b0381116101a65760ff6103a560206103928194369060040161168e565b8160405193828580945193849201611737565b8101600381520301902054166040519015158152f35b346101a65760203660031901126101a6576001600160a01b036103dc6116e4565b16600052600260205261045e60406000206103f6816117b9565b90610403600182016117b9565b61040f600283016117b9565b9161041c600382016117b9565b9260ff6004830154169361048860058401549161047a60068601549461046c60ff600a60078a015499015416986040519c8d9c8d61012090818152019061175a565b8c810360208e01529061175a565b908a820360408c015261175a565b9088820360608a015261175a565b941515608087015260a086015260c085015260e084015215156101008301520390f35b346101a65760203660031901126101a6576004356004548110156101a65760046000527f8a35acfbc15ff81a39ae7d344fd709f28e8600b4aa8c65c6b64bfe7fe36bd19b01546040516001600160a01b039091168152602090f35b346101a65760203660031901126101a6576001600160a01b036105276116e4565b16600052600260205260406000206040519061054282611636565b61054b816117b9565b8252610559600182016117b9565b60208301908152908261056e600283016117b9565b6040820190815292610582600384016117b9565b60608301908152600484015460ff169060808401911515825260058501549160a08501928352600686015460c0860190815260078701549060e08701918252600888016105ce90611a4d565b926101009485890194855260098a016105e690611a4d565b998a610120809b0152600a015460ff1615159a6101409c8d9c8d82015251985190519151925115159751935194519551986040519d8e9d8e528d0161062a9161175a565b8c810360208e015261063b9161175a565b8b810360408d015261064c9161175a565b8a810360608c015261065d9161175a565b9460808a015260a089015260c088015260e087015285820390860152610682916116fa565b90838203908401526102a4916116fa565b346101a65760003660031901126101a6573360005260026020526106c160ff600a60406000200154166119a3565b6106c961194d565b33600052600260205260ff60046040600020015416610731573360005260026020526004604060002001600160ff19825416179055604051600181527f725bf9ef96ff99215c4e9c893b6c1febc02d9955b3b9d9dbe865c4273eb9ec5660203392a260018055005b60405162461bcd60e51b815260206004820152601060248201526f20b63932b0b23c90309039b2b63632b960811b6044820152606490fd5b346101a65760003660031901126101a6576000546040516001600160a01b039091168152602090f35b346101a65760003660031901126101a6576107ab61185f565b600080546001600160a01b0319811682556001600160a01b03167f8be0079c531659141344cd1fd0a4f28419497f9722a3daafe3b4186f6b6457e08280a3005b346101a65760803660031901126101a6576004356001600160401b0381116101a65761081b90369060040161168e565b6024356001600160401b0381116101a65761083a90369060040161168e565b906044356001600160401b0381116101a65761085a90369060040161168e565b6064356001600160401b0381116101a65761087990369060040161168e565b61088161194d565b33600052600260205260ff600a60406000200154166110625760ff60405160208186516108b18183858b01611737565b810160038152030190205416611024576003835110610fea576108d6845115156118b7565b604051906108e382611652565b60008252604051926108f484611652565b600084526040519561090587611636565b85875260208701526040860152606085015260006080850152600060a0850152600060c0850152600060e08501526101008401526101208301526001610140830152336000526002602052604060002082519283516001600160401b038111610c9f57610972835461177f565b601f8111610fb8575b506020601f8211600114610f4f578192939495600092610f44575b50508160011b916000199060031b1c19161782555b60208101519283516001600160401b038111610c9f576109ce600185015461177f565b601f8111610f0f575b506020601f8211600114610ea0578192939495600092610e95575b50508160011b916000199060031b1c19161760018401555b60408201519283516001600160401b038111610c9f57610a2d600283015461177f565b601f8111610e60575b506020601f8211600114610df1578192939495600092610de6575b50508160011b916000199060031b1c19161760028201555b60608301519283516001600160401b038111610c9f57610a8c600384015461177f565b601f8111610da6575b506020601f8211600114610d37578192939495600092610d2c575b50508160011b916000199060031b1c19161760038301555b610ae760808201511515600484019060ff801983541691151516179055565b60a0810151600583015560c0810151600683015560e081015160078301556101008101518051906001600160401b038211610c9f57600160401b8211610c9f576020906008850154836008870155808410610d0c575b500160088401600052602060002060005b838110610cef575050505060098201610120820151908151916001600160401b038311610c9f57600160401b8311610c9f576020908254848455808510610cd2575b500190600052602060002060005b838110610cb55786610bc787600a610140890151151591019060ff801983541691151516179055565b6040516020818351610bdc8183858801611737565b81016003815203019020600160ff19825416179055600454600160401b811015610c9f576001810180600455811015610c895760046000527f8a35acfbc15ff81a39ae7d344fd709f28e8600b4aa8c65c6b64bfe7fe36bd19b01336001600160601b0360a01b8254161790557f9954bce02f72fbdef0fa668ac6f42e434b5829615dac2fb22448054d2359d4f66040516020815280610c803394602083019061175a565b0390a260018055005b634e487b7160e01b600052603260045260246000fd5b634e487b7160e01b600052604160045260246000fd5b82516001600160a01b031681830155602090920191600101610b9e565b610ce99084600052858460002091820191016118f4565b87610b90565b82516001600160a01b031681830155602090920191600101610b4e565b610d269060088701600052848460002091820191016118f4565b86610b3d565b015190508580610ab0565b6003840160005260206000209060005b601f1984168110610d8e575060019394959683601f19811610610d75575b505050811b016003830155610ac8565b015160001960f88460031b161c19169055858080610d65565b9091602060018192858b015181550193019101610d47565b610dd690600385016000526020600020601f840160051c81019160208510610ddc575b601f0160051c01906118f4565b85610a95565b9091508190610dc9565b015190508580610a51565b6002830160005260206000209060005b601f1984168110610e48575060019394959683601f19811610610e2f575b505050811b016002820155610a69565b015160001960f88460031b161c19169055858080610e1f565b9091602060018192858b015181550193019101610e01565b610e8f90600284016000526020600020601f840160051c81019160208510610ddc57601f0160051c01906118f4565b85610a36565b0151905085806109f2565b6001850160005260206000209060005b601f1984168110610ef7575060019394959683601f19811610610ede575b505050811b016001840155610a0a565b015160001960f88460031b161c19169055858080610ece565b9091602060018192858b015181550193019101610eb0565b610f3e90600186016000526020600020601f840160051c81019160208510610ddc57601f0160051c01906118f4565b856109d7565b015190508580610996565b8360005260206000209060005b601f1984168110610fa0575060019394959683601f19811610610f87575b505050811b0182556109ab565b015160001960f88460031b161c19169055858080610f7a565b9091602060018192858b015181550193019101610f5c565b610fe490846000526020600020601f840160051c81019160208510610ddc57601f0160051c01906118f4565b8561097b565b60405162461bcd60e51b8152602060048201526012602482015271155cd95c9b985b59481d1bdbc81cda1bdc9d60721b6044820152606490fd5b60405162461bcd60e51b81526020600482015260166024820152752ab9b2b93730b6b29030b63932b0b23c903a30b5b2b760511b6044820152606490fd5b60405162461bcd60e51b81526020600482015260136024820152725573657220616c72656164792065786973747360681b6044820152606490fd5b346101a65760203660031901126101a6576110ec6110b96116e4565b3360005260026020526110d660ff600a60406000200154166119a3565b336000526002602052600860406000200161190b565b005b346101a65760203660031901126101a65761113d61110a6116e4565b33600052600260205261112760ff600a60406000200154166119a3565b336000526002602052600960406000200161190b565b336000526002602052600760406000200161022a81546119e5565b346101a65760203660031901126101a6576001600160a01b036111796116e4565b1660005260026020526102a46103046008604060002001611a4d565b346101a65760403660031901126101a6576111ae6116e4565b602435906111ba61185f565b60018060a01b0316908160005260026020526111e060ff600a60406000200154166119a3565b8160005260026020526111fd60ff60046040600020015416611a0a565b600581116112445760207fce13e498bb0636bb2524ac3412faa71320aa6c5166c02f75653c6631fa6a4ee491836000526002825280600560406000200155604051908152a2005b60405162461bcd60e51b815260206004820152601e60248201527f526174696e67206d757374206265206265747765656e203020616e64203500006044820152606490fd5b346101a65760603660031901126101a6576001600160401b036004358181116101a6576112ba90369060040161168e565b6024358281116101a6576112d290369060040161168e565b906044358381116101a6576112eb90369060040161168e565b92336000526020916002835261130b60ff600a60406000200154166119a3565b61131361194d565b61131f815115156118b7565b3360005260028352600193846040600020018251848111610c9f5780611345835461177f565b94601f95868111611608575b5087908683116001146115a55760009261159a575b5050600019600383901b1c191690871b1790555b3360005260028452600260406000200190805190848211610c9f5781906113a1845461177f565b85811161156c575b508690858311600114611509576000926114fe575b5050600019600383901b1c191690861b1790555b33600052600283526003604060002001928551928311610c9f576113f6845461177f565b8281116114c6575b5080918311600114611460575081929394600092611455575b5050600019600383901b1c191690831b1790555b337f0163b5f10e25c839f35e6f2b201b31e88e17f49e6956232de5d2e6bbae3b78b8600080a28055005b015190508480611417565b90601f198316958460005282600020926000905b8882106114af57505083869796959610611496575b505050811b01905561142b565b015160001960f88460031b161c19169055848080611489565b808885968294968601518155019501930190611474565b6114ef9085600052826000208480870160051c8201928588106114f5575b0160051c01906118f4565b866113fe565b925081926114e4565b0151905088806113be565b90889350601f1983169185600052886000209260005b8a828210611556575050841161153d575b505050811b0190556113d2565b015160001960f88460031b161c19169055888080611530565b8385015186558c9790950194938401930161151f565b6115949085600052886000208780860160051c8201928b87106114f5570160051c01906118f4565b896113a9565b015190508980611366565b90899350601f1983169185600052896000209260005b8b8282106115f257505084116115d9575b505050811b01905561137a565b015160001960f88460031b161c191690558980806115cc565b8385015186558d979095019493840193016115bb565b6116309085600052896000208880860160051c8201928c87106114f5570160051c01906118f4565b8a611351565b61016081019081106001600160401b03821117610c9f57604052565b602081019081106001600160401b03821117610c9f57604052565b90601f801991011681019081106001600160401b03821117610c9f57604052565b81601f820112156101a6578035906001600160401b038211610c9f57604051926116c2601f8401601f19166020018561166d565b828452602083830101116101a657816000926020809301838601378301015290565b600435906001600160a01b03821682036101a657565b90815180825260208080930193019160005b82811061171a575050505090565b83516001600160a01b03168552938101939281019260010161170c565b60005b83811061174a5750506000910152565b818101518382015260200161173a565b9060209161177381518092818552858086019101611737565b601f01601f1916010190565b90600182811c921680156117af575b602083101461179957565b634e487b7160e01b600052602260045260246000fd5b91607f169161178e565b90604051918260008254926117cd8461177f565b90818452600194858116908160001461183c57506001146117f9575b50506117f79250038361166d565b565b9093915060005260209081600020936000915b8183106118245750506117f7935082010138806117e9565b8554888401850152948501948794509183019161180c565b9150506117f794506020925060ff191682840152151560051b82010138806117e9565b6000546001600160a01b0316330361187357565b606460405162461bcd60e51b815260206004820152602060248201527f4f776e61626c653a2063616c6c6572206973206e6f7420746865206f776e65726044820152fd5b156118be57565b60405162461bcd60e51b815260206004820152600e60248201526d115b585a5b081c995c5d5a5c995960921b6044820152606490fd5b8181106118ff575050565b600081556001016118f4565b805490600160401b821015610c9f5760018201808255821015610c89576000526020600020019060018060a01b03166001600160601b0360a01b825416179055565b60026001541461195e576002600155565b60405162461bcd60e51b815260206004820152601f60248201527f5265656e7472616e637947756172643a207265656e7472616e742063616c6c006044820152606490fd5b156119aa57565b60405162461bcd60e51b8152602060048201526013602482015272155cd95c88191bd95cc81b9bdd08195e1a5cdd606a1b6044820152606490fd5b60001981146119f45760010190565b634e487b7160e01b600052601160045260246000fd5b15611a1157565b60405162461bcd60e51b81526020600482015260146024820152732ab9b2b91034b9903737ba10309039b2b63632b960611b6044820152606490fd5b9060405191828154918282526020928383019160005283600020936000905b828210611a82575050506117f79250038361166d565b85546001600160a01b031684526001958601958895509381019390910190611a6c56fea2646970667358221220e4230995810a95342fa144b0b32fadadc9af97a92a745a6a27882ee2944b17d164736f6c63430008140033","opcodes":"PUSH1 0x80 DUP1 PUSH1 0x40 MSTORE CALLVALUE PUSH2 0x5F JUMPI PUSH1 0x0 DUP1 SLOAD CALLER PUSH1 0x1 PUSH1 0x1 PUSH1 0xA0 SHL SUB NOT DUP3 AND DUP2 OR DUP4 SSTORE SWAP2 PUSH1 0x1 PUSH1 0x1 PUSH1 0xA0 SHL SUB SWAP1 SWAP2 AND SWAP1 PUSH32 0x8BE0079C531659141344CD1FD0A4F28419497F9722A3DAAFE3B4186F6B6457E0 SWAP1 DUP1 LOG3 PUSH1 0x1 DUP1 SSTORE PUSH2 0x1ADB SWAP1 DUP2 PUSH2 0x65 DUP3 CODECOPY RETURN JUMPDEST PUSH1 0x0 DUP1 REVERT INVALID PUSH1 0x80 PUSH1 0x40 MSTORE PUSH1 0x4 CALLDATASIZE LT ISZERO PUSH2 0x12 JUMPI PUSH1 0x0 DUP1 REVERT JUMPDEST PUSH1 0x0 CALLDATALOAD PUSH1 0xE0 SHR DUP1 PUSH4 0x1105A5EB EQ PUSH2 0x1289 JUMPI DUP1 PUSH4 0x358E29D2 EQ PUSH2 0x1195 JUMPI DUP1 PUSH4 0x450ED735 EQ PUSH2 0x1158 JUMPI DUP1 PUSH4 0x517807E4 EQ PUSH2 0x10EE JUMPI DUP1 PUSH4 0x694837A5 EQ PUSH2 0x109D JUMPI DUP1 PUSH4 0x6F7FCDDB EQ PUSH2 0x7EB JUMPI DUP1 PUSH4 0x715018A6 EQ PUSH2 0x792 JUMPI DUP1 PUSH4 0x8DA5CB5B EQ PUSH2 0x769 JUMPI DUP1 PUSH4 0x8F299B1E EQ PUSH2 0x693 JUMPI DUP1 PUSH4 0x987EE156 EQ PUSH2 0x506 JUMPI DUP1 PUSH4 0xA2BDEDF4 EQ PUSH2 0x4AB JUMPI DUP1 PUSH4 0xA87430BA EQ PUSH2 0x3BB JUMPI DUP1 PUSH4 0xAAEE301F EQ PUSH2 0x35A JUMPI DUP1 PUSH4 0xBB54C00A EQ PUSH2 0x318 JUMPI DUP1 PUSH4 0xC6E5D8F6 EQ PUSH2 0x2C7 JUMPI DUP1 PUSH4 0xE2842D79 EQ PUSH2 0x22E JUMPI DUP1 PUSH4 0xE417926A EQ PUSH2 0x1AB JUMPI PUSH4 0xF2FDE38B EQ PUSH2 0xE2 JUMPI PUSH1 0x0 DUP1 REVERT JUMPDEST CALLVALUE PUSH2 0x1A6 JUMPI PUSH1 0x20 CALLDATASIZE PUSH1 0x3 NOT ADD SLT PUSH2 0x1A6 JUMPI PUSH2 0xFB PUSH2 0x16E4 JUMP JUMPDEST PUSH2 0x103 PUSH2 0x185F JUMP JUMPDEST PUSH1 0x1 PUSH1 0x1 PUSH1 0xA0 SHL SUB SWAP1 DUP2 AND SWAP1 DUP2 ISZERO PUSH2 0x152 JUMPI PUSH1 0x0 SLOAD DUP3 PUSH1 0x1 PUSH1 0x1 PUSH1 0x60 SHL SUB PUSH1 0xA0 SHL DUP3 AND OR PUSH1 0x0 SSTORE AND PUSH32 0x8BE0079C531659141344CD1FD0A4F28419497F9722A3DAAFE3B4186F6B6457E0 PUSH1 0x0 DUP1 LOG3 STOP JUMPDEST PUSH1 0x40 MLOAD PUSH3 0x461BCD PUSH1 0xE5 SHL DUP2 MSTORE PUSH1 0x20 PUSH1 0x4 DUP3 ADD MSTORE PUSH1 0x26 PUSH1 0x24 DUP3 ADD MSTORE PUSH32 0x4F776E61626C653A206E6577206F776E657220697320746865207A65726F2061 PUSH1 0x44 DUP3 ADD MSTORE PUSH6 0x646472657373 PUSH1 0xD0 SHL PUSH1 0x64 DUP3 ADD MSTORE PUSH1 0x84 SWAP1 REVERT JUMPDEST PUSH1 0x0 DUP1 REVERT JUMPDEST CALLVALUE PUSH2 0x1A6 JUMPI PUSH1 0x20 CALLDATASIZE PUSH1 0x3 NOT ADD SLT PUSH2 0x1A6 JUMPI PUSH2 0x1C4 PUSH2 0x16E4 JUMP JUMPDEST PUSH2 0x1CC PUSH2 0x185F JUMP JUMPDEST PUSH1 0x1 PUSH1 0x1 PUSH1 0xA0 SHL SUB AND PUSH1 0x0 DUP2 DUP2 MSTORE PUSH1 0x2 PUSH1 0x20 MSTORE PUSH1 0x40 SWAP1 KECCAK256 PUSH1 0xA ADD SLOAD PUSH2 0x1F3 SWAP1 PUSH1 0xFF AND PUSH2 0x19A3 JUMP JUMPDEST DUP1 PUSH1 0x0 MSTORE PUSH1 0x2 PUSH1 0x20 MSTORE PUSH2 0x210 PUSH1 0xFF PUSH1 0x4 PUSH1 0x40 PUSH1 0x0 KECCAK256 ADD SLOAD AND PUSH2 0x1A0A JUMP JUMPDEST PUSH1 0x0 MSTORE PUSH1 0x2 PUSH1 0x20 MSTORE PUSH1 0x6 PUSH1 0x40 PUSH1 0x0 KECCAK256 ADD PUSH2 0x22A DUP2 SLOAD PUSH2 0x19E5 JUMP JUMPDEST SWAP1 SSTORE STOP JUMPDEST CALLVALUE PUSH2 0x1A6 JUMPI PUSH1 0x0 CALLDATASIZE PUSH1 0x3 NOT ADD SLT PUSH2 0x1A6 JUMPI PUSH1 0x40 MLOAD DUP1 PUSH1 0x4 SLOAD DUP1 DUP3 MSTORE DUP3 PUSH1 0x20 DUP1 SWAP4 ADD PUSH1 0x4 PUSH1 0x0 MSTORE PUSH32 0x8A35ACFBC15FF81A39AE7D344FD709F28E8600B4AA8C65C6B64BFE7FE36BD19B SWAP3 PUSH1 0x0 JUMPDEST DUP6 DUP3 DUP3 LT PUSH2 0x2A8 JUMPI POP POP POP PUSH2 0x290 SWAP3 POP SUB DUP4 PUSH2 0x166D JUMP JUMPDEST PUSH2 0x2A4 PUSH1 0x40 MLOAD SWAP3 DUP3 DUP5 SWAP4 DUP5 MSTORE DUP4 ADD SWAP1 PUSH2 0x16FA JUMP JUMPDEST SUB SWAP1 RETURN JUMPDEST DUP6 SLOAD PUSH1 0x1 PUSH1 0x1 PUSH1 0xA0 SHL SUB AND DUP5 MSTORE PUSH1 0x1 SWAP6 DUP7 ADD SWAP6 DUP9 SWAP6 POP SWAP4 ADD SWAP3 ADD PUSH2 0x279 JUMP JUMPDEST CALLVALUE PUSH2 0x1A6 JUMPI PUSH1 0x20 CALLDATASIZE PUSH1 0x3 NOT ADD SLT PUSH2 0x1A6 JUMPI PUSH1 0x1 PUSH1 0x1 PUSH1 0xA0 SHL SUB PUSH2 0x2E8 PUSH2 0x16E4 JUMP JUMPDEST AND PUSH1 0x0 MSTORE PUSH1 0x2 PUSH1 0x20 MSTORE PUSH2 0x2A4 PUSH2 0x304 PUSH1 0x9 PUSH1 0x40 PUSH1 0x0 KECCAK256 ADD PUSH2 0x1A4D JUMP JUMPDEST PUSH1 0x40 MLOAD SWAP2 DUP3 SWAP2 PUSH1 0x20 DUP4 MSTORE PUSH1 0x20 DUP4 ADD SWAP1 PUSH2 0x16FA JUMP JUMPDEST CALLVALUE PUSH2 0x1A6 JUMPI PUSH1 0x20 CALLDATASIZE PUSH1 0x3 NOT ADD SLT PUSH2 0x1A6 JUMPI PUSH1 0x1 PUSH1 0x1 PUSH1 0xA0 SHL SUB PUSH2 0x339 PUSH2 0x16E4 JUMP JUMPDEST AND PUSH1 0x0 MSTORE PUSH1 0x2 PUSH1 0x20 MSTORE PUSH1 0x20 PUSH1 0xFF PUSH1 0x4 PUSH1 0x40 PUSH1 0x0 KECCAK256 ADD SLOAD AND PUSH1 0x40 MLOAD SWAP1 ISZERO ISZERO DUP2 MSTORE RETURN JUMPDEST CALLVALUE PUSH2 0x1A6 JUMPI PUSH1 0x20 CALLDATASIZE PUSH1 0x3 NOT ADD SLT PUSH2 0x1A6 JUMPI PUSH1 0x4 CALLDATALOAD PUSH1 0x1 PUSH1 0x1 PUSH1 0x40 SHL SUB DUP2 GT PUSH2 0x1A6 JUMPI PUSH1 0xFF PUSH2 0x3A5 PUSH1 0x20 PUSH2 0x392 DUP2 SWAP5 CALLDATASIZE SWAP1 PUSH1 0x4 ADD PUSH2 0x168E JUMP JUMPDEST DUP2 PUSH1 0x40 MLOAD SWAP4 DUP3 DUP6 DUP1 SWAP5 MLOAD SWAP4 DUP5 SWAP3 ADD PUSH2 0x1737 JUMP JUMPDEST DUP2 ADD PUSH1 0x3 DUP2 MSTORE SUB ADD SWAP1 KECCAK256 SLOAD AND PUSH1 0x40 MLOAD SWAP1 ISZERO ISZERO DUP2 MSTORE RETURN JUMPDEST CALLVALUE PUSH2 0x1A6 JUMPI PUSH1 0x20 CALLDATASIZE PUSH1 0x3 NOT ADD SLT PUSH2 0x1A6 JUMPI PUSH1 0x1 PUSH1 0x1 PUSH1 0xA0 SHL SUB PUSH2 0x3DC PUSH2 0x16E4 JUMP JUMPDEST AND PUSH1 0x0 MSTORE PUSH1 0x2 PUSH1 0x20 MSTORE PUSH2 0x45E PUSH1 0x40 PUSH1 0x0 KECCAK256 PUSH2 0x3F6 DUP2 PUSH2 0x17B9 JUMP JUMPDEST SWAP1 PUSH2 0x403 PUSH1 0x1 DUP3 ADD PUSH2 0x17B9 JUMP JUMPDEST PUSH2 0x40F PUSH1 0x2 DUP4 ADD PUSH2 0x17B9 JUMP JUMPDEST SWAP2 PUSH2 0x41C PUSH1 0x3 DUP3 ADD PUSH2 0x17B9 JUMP JUMPDEST SWAP3 PUSH1 0xFF PUSH1 0x4 DUP4 ADD SLOAD AND SWAP4 PUSH2 0x488 PUSH1 0x5 DUP5 ADD SLOAD SWAP2 PUSH2 0x47A PUSH1 0x6 DUP7 ADD SLOAD SWAP5 PUSH2 0x46C PUSH1 0xFF PUSH1 0xA PUSH1 0x7 DUP11 ADD SLOAD SWAP10 ADD SLOAD AND SWAP9 PUSH1 0x40 MLOAD SWAP13 DUP14 SWAP13 DUP14 PUSH2 0x120 SWAP1 DUP2 DUP2 MSTORE ADD SWAP1 PUSH2 0x175A JUMP JUMPDEST DUP13 DUP2 SUB PUSH1 0x20 DUP15 ADD MSTORE SWAP1 PUSH2 0x175A JUMP JUMPDEST SWAP1 DUP11 DUP3 SUB PUSH1 0x40 DUP13 ADD MSTORE PUSH2 0x175A JUMP JUMPDEST SWAP1 DUP9 DUP3 SUB PUSH1 0x60 DUP11 ADD MSTORE PUSH2 0x175A JUMP JUMPDEST SWAP5 ISZERO ISZERO PUSH1 0x80 DUP8 ADD MSTORE PUSH1 0xA0 DUP7 ADD MSTORE PUSH1 0xC0 DUP6 ADD MSTORE PUSH1 0xE0 DUP5 ADD MSTORE ISZERO ISZERO PUSH2 0x100 DUP4 ADD MSTORE SUB SWAP1 RETURN JUMPDEST CALLVALUE PUSH2 0x1A6 JUMPI PUSH1 0x20 CALLDATASIZE PUSH1 0x3 NOT ADD SLT PUSH2 0x1A6 JUMPI PUSH1 0x4 CALLDATALOAD PUSH1 0x4 SLOAD DUP2 LT ISZERO PUSH2 0x1A6 JUMPI PUSH1 0x4 PUSH1 0x0 MSTORE PUSH32 0x8A35ACFBC15FF81A39AE7D344FD709F28E8600B4AA8C65C6B64BFE7FE36BD19B ADD SLOAD PUSH1 0x40 MLOAD PUSH1 0x1 PUSH1 0x1 PUSH1 0xA0 SHL SUB SWAP1 SWAP2 AND DUP2 MSTORE PUSH1 0x20 SWAP1 RETURN JUMPDEST CALLVALUE PUSH2 0x1A6 JUMPI PUSH1 0x20 CALLDATASIZE PUSH1 0x3 NOT ADD SLT PUSH2 0x1A6 JUMPI PUSH1 0x1 PUSH1 0x1 PUSH1 0xA0 SHL SUB PUSH2 0x527 PUSH2 0x16E4 JUMP JUMPDEST AND PUSH1 0x0 MSTORE PUSH1 0x2 PUSH1 0x20 MSTORE PUSH1 0x40 PUSH1 0x0 KECCAK256 PUSH1 0x40 MLOAD SWAP1 PUSH2 0x542 DUP3 PUSH2 0x1636 JUMP JUMPDEST PUSH2 0x54B DUP2 PUSH2 0x17B9 JUMP JUMPDEST DUP3 MSTORE PUSH2 0x559 PUSH1 0x1 DUP3 ADD PUSH2 0x17B9 JUMP JUMPDEST PUSH1 0x20 DUP4 ADD SWAP1 DUP2 MSTORE SWAP1 DUP3 PUSH2 0x56E PUSH1 0x2 DUP4 ADD PUSH2 0x17B9 JUMP JUMPDEST PUSH1 0x40 DUP3 ADD SWAP1 DUP2 MSTORE SWAP3 PUSH2 0x582 PUSH1 0x3 DUP5 ADD PUSH2 0x17B9 JUMP JUMPDEST PUSH1 0x60 DUP4 ADD SWAP1 DUP2 MSTORE PUSH1 0x4 DUP5 ADD SLOAD PUSH1 0xFF AND SWAP1 PUSH1 0x80 DUP5 ADD SWAP2 ISZERO ISZERO DUP3 MSTORE PUSH1 0x5 DUP6 ADD SLOAD SWAP2 PUSH1 0xA0 DUP6 ADD SWAP3 DUP4 MSTORE PUSH1 0x6 DUP7 ADD SLOAD PUSH1 0xC0 DUP7 ADD SWAP1 DUP2 MSTORE PUSH1 0x7 DUP8 ADD SLOAD SWAP1 PUSH1 0xE0 DUP8 ADD SWAP2 DUP3 MSTORE PUSH1 0x8 DUP9 ADD PUSH2 0x5CE SWAP1 PUSH2 0x1A4D JUMP JUMPDEST SWAP3 PUSH2 0x100 SWAP5 DUP6 DUP10 ADD SWAP5 DUP6 MSTORE PUSH1 0x9 DUP11 ADD PUSH2 0x5E6 SWAP1 PUSH2 0x1A4D JUMP JUMPDEST SWAP10 DUP11 PUSH2 0x120 DUP1 SWAP12 ADD MSTORE PUSH1 0xA ADD SLOAD PUSH1 0xFF AND ISZERO ISZERO SWAP11 PUSH2 0x140 SWAP13 DUP14 SWAP13 DUP14 DUP3 ADD MSTORE MLOAD SWAP9 MLOAD SWAP1 MLOAD SWAP2 MLOAD SWAP3 MLOAD ISZERO ISZERO SWAP8 MLOAD SWAP4 MLOAD SWAP5 MLOAD SWAP6 MLOAD SWAP9 PUSH1 0x40 MLOAD SWAP14 DUP15 SWAP14 DUP15 MSTORE DUP14 ADD PUSH2 0x62A SWAP2 PUSH2 0x175A JUMP JUMPDEST DUP13 DUP2 SUB PUSH1 0x20 DUP15 ADD MSTORE PUSH2 0x63B SWAP2 PUSH2 0x175A JUMP JUMPDEST DUP12 DUP2 SUB PUSH1 0x40 DUP14 ADD MSTORE PUSH2 0x64C SWAP2 PUSH2 0x175A JUMP JUMPDEST DUP11 DUP2 SUB PUSH1 0x60 DUP13 ADD MSTORE PUSH2 0x65D SWAP2 PUSH2 0x175A JUMP JUMPDEST SWAP5 PUSH1 0x80 DUP11 ADD MSTORE PUSH1 0xA0 DUP10 ADD MSTORE PUSH1 0xC0 DUP9 ADD MSTORE PUSH1 0xE0 DUP8 ADD MSTORE DUP6 DUP3 SUB SWAP1 DUP7 ADD MSTORE PUSH2 0x682 SWAP2 PUSH2 0x16FA JUMP JUMPDEST SWAP1 DUP4 DUP3 SUB SWAP1 DUP5 ADD MSTORE PUSH2 0x2A4 SWAP2 PUSH2 0x16FA JUMP JUMPDEST CALLVALUE PUSH2 0x1A6 JUMPI PUSH1 0x0 CALLDATASIZE PUSH1 0x3 NOT ADD SLT PUSH2 0x1A6 JUMPI CALLER PUSH1 0x0 MSTORE PUSH1 0x2 PUSH1 0x20 MSTORE PUSH2 0x6C1 PUSH1 0xFF PUSH1 0xA PUSH1 0x40 PUSH1 0x0 KECCAK256 ADD SLOAD AND PUSH2 0x19A3 JUMP JUMPDEST PUSH2 0x6C9 PUSH2 0x194D JUMP JUMPDEST CALLER PUSH1 0x0 MSTORE PUSH1 0x2 PUSH1 0x20 MSTORE PUSH1 0xFF PUSH1 0x4 PUSH1 0x40 PUSH1 0x0 KECCAK256 ADD SLOAD AND PUSH2 0x731 JUMPI CALLER PUSH1 0x0 MSTORE PUSH1 0x2 PUSH1 0x20 MSTORE PUSH1 0x4 PUSH1 0x40 PUSH1 0x0 KECCAK256 ADD PUSH1 0x1 PUSH1 0xFF NOT DUP3 SLOAD AND OR SWAP1 SSTORE PUSH1 0x40 MLOAD PUSH1 0x1 DUP2 MSTORE PUSH32 0x725BF9EF96FF99215C4E9C893B6C1FEBC02D9955B3B9D9DBE865C4273EB9EC56 PUSH1 0x20 CALLER SWAP3 LOG2 PUSH1 0x1 DUP1 SSTORE STOP JUMPDEST PUSH1 0x40 MLOAD PUSH3 0x461BCD PUSH1 0xE5 SHL DUP2 MSTORE PUSH1 0x20 PUSH1 0x4 DUP3 ADD MSTORE PUSH1 0x10 PUSH1 0x24 DUP3 ADD MSTORE PUSH16 0x20B63932B0B23C90309039B2B63632B9 PUSH1 0x81 SHL PUSH1 0x44 DUP3 ADD MSTORE PUSH1 0x64 SWAP1 REVERT JUMPDEST CALLVALUE PUSH2 0x1A6 JUMPI PUSH1 0x0 CALLDATASIZE PUSH1 0x3 NOT ADD SLT PUSH2 0x1A6 JUMPI PUSH1 0x0 SLOAD PUSH1 0x40 MLOAD PUSH1 0x1 PUSH1 0x1 PUSH1 0xA0 SHL SUB SWAP1 SWAP2 AND DUP2 MSTORE PUSH1 0x20 SWAP1 RETURN JUMPDEST CALLVALUE PUSH2 0x1A6 JUMPI PUSH1 0x0 CALLDATASIZE PUSH1 0x3 NOT ADD SLT PUSH2 0x1A6 JUMPI PUSH2 0x7AB PUSH2 0x185F JUMP JUMPDEST PUSH1 0x0 DUP1 SLOAD PUSH1 0x1 PUSH1 0x1 PUSH1 0xA0 SHL SUB NOT DUP2 AND DUP3 SSTORE PUSH1 0x1 PUSH1 0x1 PUSH1 0xA0 SHL SUB AND PUSH32 0x8BE0079C531659141344CD1FD0A4F28419497F9722A3DAAFE3B4186F6B6457E0 DUP3 DUP1 LOG3 STOP JUMPDEST CALLVALUE PUSH2 0x1A6 JUMPI PUSH1 0x80 CALLDATASIZE PUSH1 0x3 NOT ADD SLT PUSH2 0x1A6 JUMPI PUSH1 0x4 CALLDATALOAD PUSH1 0x1 PUSH1 0x1 PUSH1 0x40 SHL SUB DUP2 GT PUSH2 0x1A6 JUMPI PUSH2 0x81B SWAP1 CALLDATASIZE SWAP1 PUSH1 0x4 ADD PUSH2 0x168E JUMP JUMPDEST PUSH1 0x24 CALLDATALOAD PUSH1 0x1 PUSH1 0x1 PUSH1 0x40 SHL SUB DUP2 GT PUSH2 0x1A6 JUMPI PUSH2 0x83A SWAP1 CALLDATASIZE SWAP1 PUSH1 0x4 ADD PUSH2 0x168E JUMP JUMPDEST SWAP1 PUSH1 0x44 CALLDATALOAD PUSH1 0x1 PUSH1 0x1 PUSH1 0x40 SHL SUB DUP2 GT PUSH2 0x1A6 JUMPI PUSH2 0x85A SWAP1 CALLDATASIZE SWAP1 PUSH1 0x4 ADD PUSH2 0x168E JUMP JUMPDEST PUSH1 0x64 CALLDATALOAD PUSH1 0x1 PUSH1 0x1 PUSH1 0x40 SHL SUB DUP2 GT PUSH2 0x1A6 JUMPI PUSH2 0x879 SWAP1 CALLDATASIZE SWAP1 PUSH1 0x4 ADD PUSH2 0x168E JUMP JUMPDEST PUSH2 0x881 PUSH2 0x194D JUMP JUMPDEST CALLER PUSH1 0x0 MSTORE PUSH1 0x2 PUSH1 0x20 MSTORE PUSH1 0xFF PUSH1 0xA PUSH1 0x40 PUSH1 0x0 KECCAK256 ADD SLOAD AND PUSH2 0x1062 JUMPI PUSH1 0xFF PUSH1 0x40 MLOAD PUSH1 0x20 DUP2 DUP7 MLOAD PUSH2 0x8B1 DUP2 DUP4 DUP6 DUP12 ADD PUSH2 0x1737 JUMP JUMPDEST DUP2 ADD PUSH1 0x3 DUP2 MSTORE SUB ADD SWAP1 KECCAK256 SLOAD AND PUSH2 0x1024 JUMPI PUSH1 0x3 DUP4 MLOAD LT PUSH2 0xFEA JUMPI PUSH2 0x8D6 DUP5 MLOAD ISZERO ISZERO PUSH2 0x18B7 JUMP JUMPDEST PUSH1 0x40 MLOAD SWAP1 PUSH2 0x8E3 DUP3 PUSH2 0x1652 JUMP JUMPDEST PUSH1 0x0 DUP3 MSTORE PUSH1 0x40 MLOAD SWAP3 PUSH2 0x8F4 DUP5 PUSH2 0x1652 JUMP JUMPDEST PUSH1 0x0 DUP5 MSTORE PUSH1 0x40 MLOAD SWAP6 PUSH2 0x905 DUP8 PUSH2 0x1636 JUMP JUMPDEST DUP6 DUP8 MSTORE PUSH1 0x20 DUP8 ADD MSTORE PUSH1 0x40 DUP7 ADD MSTORE PUSH1 0x60 DUP6 ADD MSTORE PUSH1 0x0 PUSH1 0x80 DUP6 ADD MSTORE PUSH1 0x0 PUSH1 0xA0 DUP6 ADD MSTORE PUSH1 0x0 PUSH1 0xC0 DUP6 ADD MSTORE PUSH1 0x0 PUSH1 0xE0 DUP6 ADD MSTORE PUSH2 0x100 DUP5 ADD MSTORE PUSH2 0x120 DUP4 ADD MSTORE PUSH1 0x1 PUSH2 0x140 DUP4 ADD MSTORE CALLER PUSH1 0x0 MSTORE PUSH1 0x2 PUSH1 0x20 MSTORE PUSH1 0x40 PUSH1 0x0 KECCAK256 DUP3 MLOAD SWAP3 DUP4 MLOAD PUSH1 0x1 PUSH1 0x1 PUSH1 0x40 SHL SUB DUP2 GT PUSH2 0xC9F JUMPI PUSH2 0x972 DUP4 SLOAD PUSH2 0x177F JUMP JUMPDEST PUSH1 0x1F DUP2 GT PUSH2 0xFB8 JUMPI JUMPDEST POP PUSH1 0x20 PUSH1 0x1F DUP3 GT PUSH1 0x1 EQ PUSH2 0xF4F JUMPI DUP2 SWAP3 SWAP4 SWAP5 SWAP6 PUSH1 0x0 SWAP3 PUSH2 0xF44 JUMPI JUMPDEST POP POP DUP2 PUSH1 0x1 SHL SWAP2 PUSH1 0x0 NOT SWAP1 PUSH1 0x3 SHL SHR NOT AND OR DUP3 SSTORE JUMPDEST PUSH1 0x20 DUP2 ADD MLOAD SWAP3 DUP4 MLOAD PUSH1 0x1 PUSH1 0x1 PUSH1 0x40 SHL SUB DUP2 GT PUSH2 0xC9F JUMPI PUSH2 0x9CE PUSH1 0x1 DUP6 ADD SLOAD PUSH2 0x177F JUMP JUMPDEST PUSH1 0x1F DUP2 GT PUSH2 0xF0F JUMPI JUMPDEST POP PUSH1 0x20 PUSH1 0x1F DUP3 GT PUSH1 0x1 EQ PUSH2 0xEA0 JUMPI DUP2 SWAP3 SWAP4 SWAP5 SWAP6 PUSH1 0x0 SWAP3 PUSH2 0xE95 JUMPI JUMPDEST POP POP DUP2 PUSH1 0x1 SHL SWAP2 PUSH1 0x0 NOT SWAP1 PUSH1 0x3 SHL SHR NOT AND OR PUSH1 0x1 DUP5 ADD SSTORE JUMPDEST PUSH1 0x40 DUP3 ADD MLOAD SWAP3 DUP4 MLOAD PUSH1 0x1 PUSH1 0x1 PUSH1 0x40 SHL SUB DUP2 GT PUSH2 0xC9F JUMPI PUSH2 0xA2D PUSH1 0x2 DUP4 ADD SLOAD PUSH2 0x177F JUMP JUMPDEST PUSH1 0x1F DUP2 GT PUSH2 0xE60 JUMPI JUMPDEST POP PUSH1 0x20 PUSH1 0x1F DUP3 GT PUSH1 0x1 EQ PUSH2 0xDF1 JUMPI DUP2 SWAP3 SWAP4 SWAP5 SWAP6 PUSH1 0x0 SWAP3 PUSH2 0xDE6 JUMPI JUMPDEST POP POP DUP2 PUSH1 0x1 SHL SWAP2 PUSH1 0x0 NOT SWAP1 PUSH1 0x3 SHL SHR NOT AND OR PUSH1 0x2 DUP3 ADD SSTORE JUMPDEST PUSH1 0x60 DUP4 ADD MLOAD SWAP3 DUP4 MLOAD PUSH1 0x1 PUSH1 0x1 PUSH1 0x40 SHL SUB DUP2 GT PUSH2 0xC9F JUMPI PUSH2 0xA8C PUSH1 0x3 DUP5 ADD SLOAD PUSH2 0x177F JUMP JUMPDEST PUSH1 0x1F DUP2 GT PUSH2 0xDA6 JUMPI JUMPDEST POP PUSH1 0x20 PUSH1 0x1F DUP3 GT PUSH1 0x1 EQ PUSH2 0xD37 JUMPI DUP2 SWAP3 SWAP4 SWAP5 SWAP6 PUSH1 0x0 SWAP3 PUSH2 0xD2C JUMPI JUMPDEST POP POP DUP2 PUSH1 0x1 SHL SWAP2 PUSH1 0x0 NOT SWAP1 PUSH1 0x3 SHL SHR NOT AND OR PUSH1 0x3 DUP4 ADD SSTORE JUMPDEST PUSH2 0xAE7 PUSH1 0x80 DUP3 ADD MLOAD ISZERO ISZERO PUSH1 0x4 DUP5 ADD SWAP1 PUSH1 0xFF DUP1 NOT DUP4 SLOAD AND SWAP2 ISZERO ISZERO AND OR SWAP1 SSTORE JUMP JUMPDEST PUSH1 0xA0 DUP2 ADD MLOAD PUSH1 0x5 DUP4 ADD SSTORE PUSH1 0xC0 DUP2 ADD MLOAD PUSH1 0x6 DUP4 ADD SSTORE PUSH1 0xE0 DUP2 ADD MLOAD PUSH1 0x7 DUP4 ADD SSTORE PUSH2 0x100 DUP2 ADD MLOAD DUP1 MLOAD SWAP1 PUSH1 0x1 PUSH1 0x1 PUSH1 0x40 SHL SUB DUP3 GT PUSH2 0xC9F JUMPI PUSH1 0x1 PUSH1 0x40 SHL DUP3 GT PUSH2 0xC9F JUMPI PUSH1 0x20 SWAP1 PUSH1 0x8 DUP6 ADD SLOAD DUP4 PUSH1 0x8 DUP8 ADD SSTORE DUP1 DUP5 LT PUSH2 0xD0C JUMPI JUMPDEST POP ADD PUSH1 0x8 DUP5 ADD PUSH1 0x0 MSTORE PUSH1 0x20 PUSH1 0x0 KECCAK256 PUSH1 0x0 JUMPDEST DUP4 DUP2 LT PUSH2 0xCEF JUMPI POP POP POP POP PUSH1 0x9 DUP3 ADD PUSH2 0x120 DUP3 ADD MLOAD SWAP1 DUP2 MLOAD SWAP2 PUSH1 0x1 PUSH1 0x1 PUSH1 0x40 SHL SUB DUP4 GT PUSH2 0xC9F JUMPI PUSH1 0x1 PUSH1 0x40 SHL DUP4 GT PUSH2 0xC9F JUMPI PUSH1 0x20 SWAP1 DUP3 SLOAD DUP5 DUP5 SSTORE DUP1 DUP6 LT PUSH2 0xCD2 JUMPI JUMPDEST POP ADD SWAP1 PUSH1 0x0 MSTORE PUSH1 0x20 PUSH1 0x0 KECCAK256 PUSH1 0x0 JUMPDEST DUP4 DUP2 LT PUSH2 0xCB5 JUMPI DUP7 PUSH2 0xBC7 DUP8 PUSH1 0xA PUSH2 0x140 DUP10 ADD MLOAD ISZERO ISZERO SWAP2 ADD SWAP1 PUSH1 0xFF DUP1 NOT DUP4 SLOAD AND SWAP2 ISZERO ISZERO AND OR SWAP1 SSTORE JUMP JUMPDEST PUSH1 0x40 MLOAD PUSH1 0x20 DUP2 DUP4 MLOAD PUSH2 0xBDC DUP2 DUP4 DUP6 DUP9 ADD PUSH2 0x1737 JUMP JUMPDEST DUP2 ADD PUSH1 0x3 DUP2 MSTORE SUB ADD SWAP1 KECCAK256 PUSH1 0x1 PUSH1 0xFF NOT DUP3 SLOAD AND OR SWAP1 SSTORE PUSH1 0x4 SLOAD PUSH1 0x1 PUSH1 0x40 SHL DUP2 LT ISZERO PUSH2 0xC9F JUMPI PUSH1 0x1 DUP2 ADD DUP1 PUSH1 0x4 SSTORE DUP2 LT ISZERO PUSH2 0xC89 JUMPI PUSH1 0x4 PUSH1 0x0 MSTORE PUSH32 0x8A35ACFBC15FF81A39AE7D344FD709F28E8600B4AA8C65C6B64BFE7FE36BD19B ADD CALLER PUSH1 0x1 PUSH1 0x1 PUSH1 0x60 SHL SUB PUSH1 0xA0 SHL DUP3 SLOAD AND OR SWAP1 SSTORE PUSH32 0x9954BCE02F72FBDEF0FA668AC6F42E434B5829615DAC2FB22448054D2359D4F6 PUSH1 0x40 MLOAD PUSH1 0x20 DUP2 MSTORE DUP1 PUSH2 0xC80 CALLER SWAP5 PUSH1 0x20 DUP4 ADD SWAP1 PUSH2 0x175A JUMP JUMPDEST SUB SWAP1 LOG2 PUSH1 0x1 DUP1 SSTORE STOP JUMPDEST PUSH4 0x4E487B71 PUSH1 0xE0 SHL PUSH1 0x0 MSTORE PUSH1 0x32 PUSH1 0x4 MSTORE PUSH1 0x24 PUSH1 0x0 REVERT JUMPDEST PUSH4 0x4E487B71 PUSH1 0xE0 SHL PUSH1 0x0 MSTORE PUSH1 0x41 PUSH1 0x4 MSTORE PUSH1 0x24 PUSH1 0x0 REVERT JUMPDEST DUP3 MLOAD PUSH1 0x1 PUSH1 0x1 PUSH1 0xA0 SHL SUB AND DUP2 DUP4 ADD SSTORE PUSH1 0x20 SWAP1 SWAP3 ADD SWAP2 PUSH1 0x1 ADD PUSH2 0xB9E JUMP JUMPDEST PUSH2 0xCE9 SWAP1 DUP5 PUSH1 0x0 MSTORE DUP6 DUP5 PUSH1 0x0 KECCAK256 SWAP2 DUP3 ADD SWAP2 ADD PUSH2 0x18F4 JUMP JUMPDEST DUP8 PUSH2 0xB90 JUMP JUMPDEST DUP3 MLOAD PUSH1 0x1 PUSH1 0x1 PUSH1 0xA0 SHL SUB AND DUP2 DUP4 ADD SSTORE PUSH1 0x20 SWAP1 SWAP3 ADD SWAP2 PUSH1 0x1 ADD PUSH2 0xB4E JUMP JUMPDEST PUSH2 0xD26 SWAP1 PUSH1 0x8 DUP8 ADD PUSH1 0x0 MSTORE DUP5 DUP5 PUSH1 0x0 KECCAK256 SWAP2 DUP3 ADD SWAP2 ADD PUSH2 0x18F4 JUMP JUMPDEST DUP7 PUSH2 0xB3D JUMP JUMPDEST ADD MLOAD SWAP1 POP DUP6 DUP1 PUSH2 0xAB0 JUMP JUMPDEST PUSH1 0x3 DUP5 ADD PUSH1 0x0 MSTORE PUSH1 0x20 PUSH1 0x0 KECCAK256 SWAP1 PUSH1 0x0 JUMPDEST PUSH1 0x1F NOT DUP5 AND DUP2 LT PUSH2 0xD8E JUMPI POP PUSH1 0x1 SWAP4 SWAP5 SWAP6 SWAP7 DUP4 PUSH1 0x1F NOT DUP2 AND LT PUSH2 0xD75 JUMPI JUMPDEST POP POP POP DUP2 SHL ADD PUSH1 0x3 DUP4 ADD SSTORE PUSH2 0xAC8 JUMP JUMPDEST ADD MLOAD PUSH1 0x0 NOT PUSH1 0xF8 DUP5 PUSH1 0x3 SHL AND SHR NOT AND SWAP1 SSTORE DUP6 DUP1 DUP1 PUSH2 0xD65 JUMP JUMPDEST SWAP1 SWAP2 PUSH1 0x20 PUSH1 0x1 DUP2 SWAP3 DUP6 DUP12 ADD MLOAD DUP2 SSTORE ADD SWAP4 ADD SWAP2 ADD PUSH2 0xD47 JUMP JUMPDEST PUSH2 0xDD6 SWAP1 PUSH1 0x3 DUP6 ADD PUSH1 0x0 MSTORE PUSH1 0x20 PUSH1 0x0 KECCAK256 PUSH1 0x1F DUP5 ADD PUSH1 0x5 SHR DUP2 ADD SWAP2 PUSH1 0x20 DUP6 LT PUSH2 0xDDC JUMPI JUMPDEST PUSH1 0x1F ADD PUSH1 0x5 SHR ADD SWAP1 PUSH2 0x18F4 JUMP JUMPDEST DUP6 PUSH2 0xA95 JUMP JUMPDEST SWAP1 SWAP2 POP DUP2 SWAP1 PUSH2 0xDC9 JUMP JUMPDEST ADD MLOAD SWAP1 POP DUP6 DUP1 PUSH2 0xA51 JUMP JUMPDEST PUSH1 0x2 DUP4 ADD PUSH1 0x0 MSTORE PUSH1 0x20 PUSH1 0x0 KECCAK256 SWAP1 PUSH1 0x0 JUMPDEST PUSH1 0x1F NOT DUP5 AND DUP2 LT PUSH2 0xE48 JUMPI POP PUSH1 0x1 SWAP4 SWAP5 SWAP6 SWAP7 DUP4 PUSH1 0x1F NOT DUP2 AND LT PUSH2 0xE2F JUMPI JUMPDEST POP POP POP DUP2 SHL ADD PUSH1 0x2 DUP3 ADD SSTORE PUSH2 0xA69 JUMP JUMPDEST ADD MLOAD PUSH1 0x0 NOT PUSH1 0xF8 DUP5 PUSH1 0x3 SHL AND SHR NOT AND SWAP1 SSTORE DUP6 DUP1 DUP1 PUSH2 0xE1F JUMP JUMPDEST SWAP1 SWAP2 PUSH1 0x20 PUSH1 0x1 DUP2 SWAP3 DUP6 DUP12 ADD MLOAD DUP2 SSTORE ADD SWAP4 ADD SWAP2 ADD PUSH2 0xE01 JUMP JUMPDEST PUSH2 0xE8F SWAP1 PUSH1 0x2 DUP5 ADD PUSH1 0x0 MSTORE PUSH1 0x20 PUSH1 0x0 KECCAK256 PUSH1 0x1F DUP5 ADD PUSH1 0x5 SHR DUP2 ADD SWAP2 PUSH1 0x20 DUP6 LT PUSH2 0xDDC JUMPI PUSH1 0x1F ADD PUSH1 0x5 SHR ADD SWAP1 PUSH2 0x18F4 JUMP JUMPDEST DUP6 PUSH2 0xA36 JUMP JUMPDEST ADD MLOAD SWAP1 POP DUP6 DUP1 PUSH2 0x9F2 JUMP JUMPDEST PUSH1 0x1 DUP6 ADD PUSH1 0x0 MSTORE PUSH1 0x20 PUSH1 0x0 KECCAK256 SWAP1 PUSH1 0x0 JUMPDEST PUSH1 0x1F NOT DUP5 AND DUP2 LT PUSH2 0xEF7 JUMPI POP PUSH1 0x1 SWAP4 SWAP5 SWAP6 SWAP7 DUP4 PUSH1 0x1F NOT DUP2 AND LT PUSH2 0xEDE JUMPI JUMPDEST POP POP POP DUP2 SHL ADD PUSH1 0x1 DUP5 ADD SSTORE PUSH2 0xA0A JUMP JUMPDEST ADD MLOAD PUSH1 0x0 NOT PUSH1 0xF8 DUP5 PUSH1 0x3 SHL AND SHR NOT AND SWAP1 SSTORE DUP6 DUP1 DUP1 PUSH2 0xECE JUMP JUMPDEST SWAP1 SWAP2 PUSH1 0x20 PUSH1 0x1 DUP2 SWAP3 DUP6 DUP12 ADD MLOAD DUP2 SSTORE ADD SWAP4 ADD SWAP2 ADD PUSH2 0xEB0 JUMP JUMPDEST PUSH2 0xF3E SWAP1 PUSH1 0x1 DUP7 ADD PUSH1 0x0 MSTORE PUSH1 0x20 PUSH1 0x0 KECCAK256 PUSH1 0x1F DUP5 ADD PUSH1 0x5 SHR DUP2 ADD SWAP2 PUSH1 0x20 DUP6 LT PUSH2 0xDDC JUMPI PUSH1 0x1F ADD PUSH1 0x5 SHR ADD SWAP1 PUSH2 0x18F4 JUMP JUMPDEST DUP6 PUSH2 0x9D7 JUMP JUMPDEST ADD MLOAD SWAP1 POP DUP6 DUP1 PUSH2 0x996 JUMP JUMPDEST DUP4 PUSH1 0x0 MSTORE PUSH1 0x20 PUSH1 0x0 KECCAK256 SWAP1 PUSH1 0x0 JUMPDEST PUSH1 0x1F NOT DUP5 AND DUP2 LT PUSH2 0xFA0 JUMPI POP PUSH1 0x1 SWAP4 SWAP5 SWAP6 SWAP7 DUP4 PUSH1 0x1F NOT DUP2 AND LT PUSH2 0xF87 JUMPI JUMPDEST POP POP POP DUP2 SHL ADD DUP3 SSTORE PUSH2 0x9AB JUMP JUMPDEST ADD MLOAD PUSH1 0x0 NOT PUSH1 0xF8 DUP5 PUSH1 0x3 SHL AND SHR NOT AND SWAP1 SSTORE DUP6 DUP1 DUP1 PUSH2 0xF7A JUMP JUMPDEST SWAP1 SWAP2 PUSH1 0x20 PUSH1 0x1 DUP2 SWAP3 DUP6 DUP12 ADD MLOAD DUP2 SSTORE ADD SWAP4 ADD SWAP2 ADD PUSH2 0xF5C JUMP JUMPDEST PUSH2 0xFE4 SWAP1 DUP5 PUSH1 0x0 MSTORE PUSH1 0x20 PUSH1 0x0 KECCAK256 PUSH1 0x1F DUP5 ADD PUSH1 0x5 SHR DUP2 ADD SWAP2 PUSH1 0x20 DUP6 LT PUSH2 0xDDC JUMPI PUSH1 0x1F ADD PUSH1 0x5 SHR ADD SWAP1 PUSH2 0x18F4 JUMP JUMPDEST DUP6 PUSH2 0x97B JUMP JUMPDEST PUSH1 0x40 MLOAD PUSH3 0x461BCD PUSH1 0xE5 SHL DUP2 MSTORE PUSH1 0x20 PUSH1 0x4 DUP3 ADD MSTORE PUSH1 0x12 PUSH1 0x24 DUP3 ADD MSTORE PUSH18 0x155CD95C9B985B59481D1BDBC81CDA1BDC9D PUSH1 0x72 SHL PUSH1 0x44 DUP3 ADD MSTORE PUSH1 0x64 SWAP1 REVERT JUMPDEST PUSH1 0x40 MLOAD PUSH3 0x461BCD PUSH1 0xE5 SHL DUP2 MSTORE PUSH1 0x20 PUSH1 0x4 DUP3 ADD MSTORE PUSH1 0x16 PUSH1 0x24 DUP3 ADD MSTORE PUSH22 0x2AB9B2B93730B6B29030B63932B0B23C903A30B5B2B7 PUSH1 0x51 SHL PUSH1 0x44 DUP3 ADD MSTORE PUSH1 0x64 SWAP1 REVERT JUMPDEST PUSH1 0x40 MLOAD PUSH3 0x461BCD PUSH1 0xE5 SHL DUP2 MSTORE PUSH1 0x20 PUSH1 0x4 DUP3 ADD MSTORE PUSH1 0x13 PUSH1 0x24 DUP3 ADD MSTORE PUSH19 0x5573657220616C726561647920657869737473 PUSH1 0x68 SHL PUSH1 0x44 DUP3 ADD MSTORE PUSH1 0x64 SWAP1 REVERT JUMPDEST CALLVALUE PUSH2 0x1A6 JUMPI PUSH1 0x20 CALLDATASIZE PUSH1 0x3 NOT ADD SLT PUSH2 0x1A6 JUMPI PUSH2 0x10EC PUSH2 0x10B9 PUSH2 0x16E4 JUMP JUMPDEST CALLER PUSH1 0x0 MSTORE PUSH1 0x2 PUSH1 0x20 MSTORE PUSH2 0x10D6 PUSH1 0xFF PUSH1 0xA PUSH1 0x40 PUSH1 0x0 KECCAK256 ADD SLOAD AND PUSH2 0x19A3 JUMP JUMPDEST CALLER PUSH1 0x0 MSTORE PUSH1 0x2 PUSH1 0x20 MSTORE PUSH1 0x8 PUSH1 0x40 PUSH1 0x0 KECCAK256 ADD PUSH2 0x190B JUMP JUMPDEST STOP JUMPDEST CALLVALUE PUSH2 0x1A6 JUMPI PUSH1 0x20 CALLDATASIZE PUSH1 0x3 NOT ADD SLT PUSH2 0x1A6 JUMPI PUSH2 0x113D PUSH2 0x110A PUSH2 0x16E4 JUMP JUMPDEST CALLER PUSH1 0x0 MSTORE PUSH1 0x2 PUSH1 0x20 MSTORE PUSH2 0x1127 PUSH1 0xFF PUSH1 0xA PUSH1 0x40 PUSH1 0x0 KECCAK256 ADD SLOAD AND PUSH2 0x19A3 JUMP JUMPDEST CALLER PUSH1 0x0 MSTORE PUSH1 0x2 PUSH1 0x20 MSTORE PUSH1 0x9 PUSH1 0x40 PUSH1 0x0 KECCAK256 ADD PUSH2 0x190B JUMP JUMPDEST CALLER PUSH1 0x0 MSTORE PUSH1 0x2 PUSH1 0x20 MSTORE PUSH1 0x7 PUSH1 0x40 PUSH1 0x0 KECCAK256 ADD PUSH2 0x22A DUP2 SLOAD PUSH2 0x19E5 JUMP JUMPDEST CALLVALUE PUSH2 0x1A6 JUMPI PUSH1 0x20 CALLDATASIZE PUSH1 0x3 NOT ADD SLT PUSH2 0x1A6 JUMPI PUSH1 0x1 PUSH1 0x1 PUSH1 0xA0 SHL SUB PUSH2 0x1179 PUSH2 0x16E4 JUMP JUMPDEST AND PUSH1 0x0 MSTORE PUSH1 0x2 PUSH1 0x20 MSTORE PUSH2 0x2A4 PUSH2 0x304 PUSH1 0x8 PUSH1 0x40 PUSH1 0x0 KECCAK256 ADD PUSH2 0x1A4D JUMP JUMPDEST CALLVALUE PUSH2 0x1A6 JUMPI PUSH1 0x40 CALLDATASIZE PUSH1 0x3 NOT ADD SLT PUSH2 0x1A6 JUMPI PUSH2 0x11AE PUSH2 0x16E4 JUMP JUMPDEST PUSH1 0x24 CALLDATALOAD SWAP1 PUSH2 0x11BA PUSH2 0x185F JUMP JUMPDEST PUSH1 0x1 DUP1 PUSH1 0xA0 SHL SUB AND SWAP1 DUP2 PUSH1 0x0 MSTORE PUSH1 0x2 PUSH1 0x20 MSTORE PUSH2 0x11E0 PUSH1 0xFF PUSH1 0xA PUSH1 0x40 PUSH1 0x0 KECCAK256 ADD SLOAD AND PUSH2 0x19A3 JUMP JUMPDEST DUP2 PUSH1 0x0 MSTORE PUSH1 0x2 PUSH1 0x20 MSTORE PUSH2 0x11FD PUSH1 0xFF PUSH1 0x4 PUSH1 0x40 PUSH1 0x0 KECCAK256 ADD SLOAD AND PUSH2 0x1A0A JUMP JUMPDEST PUSH1 0x5 DUP2 GT PUSH2 0x1244 JUMPI PUSH1 0x20 PUSH32 0xCE13E498BB0636BB2524AC3412FAA71320AA6C5166C02F75653C6631FA6A4EE4 SWAP2 DUP4 PUSH1 0x0 MSTORE PUSH1 0x2 DUP3 MSTORE DUP1 PUSH1 0x5 PUSH1 0x40 PUSH1 0x0 KECCAK256 ADD SSTORE PUSH1 0x40 MLOAD SWAP1 DUP2 MSTORE LOG2 STOP JUMPDEST PUSH1 0x40 MLOAD PUSH3 0x461BCD PUSH1 0xE5 SHL DUP2 MSTORE PUSH1 0x20 PUSH1 0x4 DUP3 ADD MSTORE PUSH1 0x1E PUSH1 0x24 DUP3 ADD MSTORE PUSH32 0x526174696E67206D757374206265206265747765656E203020616E6420350000 PUSH1 0x44 DUP3 ADD MSTORE PUSH1 0x64 SWAP1 REVERT JUMPDEST CALLVALUE PUSH2 0x1A6 JUMPI PUSH1 0x60 CALLDATASIZE PUSH1 0x3 NOT ADD SLT PUSH2 0x1A6 JUMPI PUSH1 0x1 PUSH1 0x1 PUSH1 0x40 SHL SUB PUSH1 0x4 CALLDATALOAD DUP2 DUP2 GT PUSH2 0x1A6 JUMPI PUSH2 0x12BA SWAP1 CALLDATASIZE SWAP1 PUSH1 0x4 ADD PUSH2 0x168E JUMP JUMPDEST PUSH1 0x24 CALLDATALOAD DUP3 DUP2 GT PUSH2 0x1A6 JUMPI PUSH2 0x12D2 SWAP1 CALLDATASIZE SWAP1 PUSH1 0x4 ADD PUSH2 0x168E JUMP JUMPDEST SWAP1 PUSH1 0x44 CALLDATALOAD DUP4 DUP2 GT PUSH2 0x1A6 JUMPI PUSH2 0x12EB SWAP1 CALLDATASIZE SWAP1 PUSH1 0x4 ADD PUSH2 0x168E JUMP JUMPDEST SWAP3 CALLER PUSH1 0x0 MSTORE PUSH1 0x20 SWAP2 PUSH1 0x2 DUP4 MSTORE PUSH2 0x130B PUSH1 0xFF PUSH1 0xA PUSH1 0x40 PUSH1 0x0 KECCAK256 ADD SLOAD AND PUSH2 0x19A3 JUMP JUMPDEST PUSH2 0x1313 PUSH2 0x194D JUMP JUMPDEST PUSH2 0x131F DUP2 MLOAD ISZERO ISZERO PUSH2 0x18B7 JUMP JUMPDEST CALLER PUSH1 0x0 MSTORE PUSH1 0x2 DUP4 MSTORE PUSH1 0x1 SWAP4 DUP5 PUSH1 0x40 PUSH1 0x0 KECCAK256 ADD DUP3 MLOAD DUP5 DUP2 GT PUSH2 0xC9F JUMPI DUP1 PUSH2 0x1345 DUP4 SLOAD PUSH2 0x177F JUMP JUMPDEST SWAP5 PUSH1 0x1F SWAP6 DUP7 DUP2 GT PUSH2 0x1608 JUMPI JUMPDEST POP DUP8 SWAP1 DUP7 DUP4 GT PUSH1 0x1 EQ PUSH2 0x15A5 JUMPI PUSH1 0x0 SWAP3 PUSH2 0x159A JUMPI JUMPDEST POP POP PUSH1 0x0 NOT PUSH1 0x3 DUP4 SWAP1 SHL SHR NOT AND SWAP1 DUP8 SHL OR SWAP1 SSTORE JUMPDEST CALLER PUSH1 0x0 MSTORE PUSH1 0x2 DUP5 MSTORE PUSH1 0x2 PUSH1 0x40 PUSH1 0x0 KECCAK256 ADD SWAP1 DUP1 MLOAD SWAP1 DUP5 DUP3 GT PUSH2 0xC9F JUMPI DUP2 SWAP1 PUSH2 0x13A1 DUP5 SLOAD PUSH2 0x177F JUMP JUMPDEST DUP6 DUP2 GT PUSH2 0x156C JUMPI JUMPDEST POP DUP7 SWAP1 DUP6 DUP4 GT PUSH1 0x1 EQ PUSH2 0x1509 JUMPI PUSH1 0x0 SWAP3 PUSH2 0x14FE JUMPI JUMPDEST POP POP PUSH1 0x0 NOT PUSH1 0x3 DUP4 SWAP1 SHL SHR NOT AND SWAP1 DUP7 SHL OR SWAP1 SSTORE JUMPDEST CALLER PUSH1 0x0 MSTORE PUSH1 0x2 DUP4 MSTORE PUSH1 0x3 PUSH1 0x40 PUSH1 0x0 KECCAK256 ADD SWAP3 DUP6 MLOAD SWAP3 DUP4 GT PUSH2 0xC9F JUMPI PUSH2 0x13F6 DUP5 SLOAD PUSH2 0x177F JUMP JUMPDEST DUP3 DUP2 GT PUSH2 0x14C6 JUMPI JUMPDEST POP DUP1 SWAP2 DUP4 GT PUSH1 0x1 EQ PUSH2 0x1460 JUMPI POP DUP2 SWAP3 SWAP4 SWAP5 PUSH1 0x0 SWAP3 PUSH2 0x1455 JUMPI JUMPDEST POP POP PUSH1 0x0 NOT PUSH1 0x3 DUP4 SWAP1 SHL SHR NOT AND SWAP1 DUP4 SHL OR SWAP1 SSTORE JUMPDEST CALLER PUSH32 0x163B5F10E25C839F35E6F2B201B31E88E17F49E6956232DE5D2E6BBAE3B78B8 PUSH1 0x0 DUP1 LOG2 DUP1 SSTORE STOP JUMPDEST ADD MLOAD SWAP1 POP DUP5 DUP1 PUSH2 0x1417 JUMP JUMPDEST SWAP1 PUSH1 0x1F NOT DUP4 AND SWAP6 DUP5 PUSH1 0x0 MSTORE DUP3 PUSH1 0x0 KECCAK256 SWAP3 PUSH1 0x0 SWAP1 JUMPDEST DUP9 DUP3 LT PUSH2 0x14AF JUMPI POP POP DUP4 DUP7 SWAP8 SWAP7 SWAP6 SWAP7 LT PUSH2 0x1496 JUMPI JUMPDEST POP POP POP DUP2 SHL ADD SWAP1 SSTORE PUSH2 0x142B JUMP JUMPDEST ADD MLOAD PUSH1 0x0 NOT PUSH1 0xF8 DUP5 PUSH1 0x3 SHL AND SHR NOT AND SWAP1 SSTORE DUP5 DUP1 DUP1 PUSH2 0x1489 JUMP JUMPDEST DUP1 DUP9 DUP6 SWAP7 DUP3 SWAP5 SWAP7 DUP7 ADD MLOAD DUP2 SSTORE ADD SWAP6 ADD SWAP4 ADD SWAP1 PUSH2 0x1474 JUMP JUMPDEST PUSH2 0x14EF SWAP1 DUP6 PUSH1 0x0 MSTORE DUP3 PUSH1 0x0 KECCAK256 DUP5 DUP1 DUP8 ADD PUSH1 0x5 SHR DUP3 ADD SWAP3 DUP6 DUP9 LT PUSH2 0x14F5 JUMPI JUMPDEST ADD PUSH1 0x5 SHR ADD SWAP1 PUSH2 0x18F4 JUMP JUMPDEST DUP7 PUSH2 0x13FE JUMP JUMPDEST SWAP3 POP DUP2 SWAP3 PUSH2 0x14E4 JUMP JUMPDEST ADD MLOAD SWAP1 POP DUP9 DUP1 PUSH2 0x13BE JUMP JUMPDEST SWAP1 DUP9 SWAP4 POP PUSH1 0x1F NOT DUP4 AND SWAP2 DUP6 PUSH1 0x0 MSTORE DUP9 PUSH1 0x0 KECCAK256 SWAP3 PUSH1 0x0 JUMPDEST DUP11 DUP3 DUP3 LT PUSH2 0x1556 JUMPI POP POP DUP5 GT PUSH2 0x153D JUMPI JUMPDEST POP POP POP DUP2 SHL ADD SWAP1 SSTORE PUSH2 0x13D2 JUMP JUMPDEST ADD MLOAD PUSH1 0x0 NOT PUSH1 0xF8 DUP5 PUSH1 0x3 SHL AND SHR NOT AND SWAP1 SSTORE DUP9 DUP1 DUP1 PUSH2 0x1530 JUMP JUMPDEST DUP4 DUP6 ADD MLOAD DUP7 SSTORE DUP13 SWAP8 SWAP1 SWAP6 ADD SWAP5 SWAP4 DUP5 ADD SWAP4 ADD PUSH2 0x151F JUMP JUMPDEST PUSH2 0x1594 SWAP1 DUP6 PUSH1 0x0 MSTORE DUP9 PUSH1 0x0 KECCAK256 DUP8 DUP1 DUP7 ADD PUSH1 0x5 SHR DUP3 ADD SWAP3 DUP12 DUP8 LT PUSH2 0x14F5 JUMPI ADD PUSH1 0x5 SHR ADD SWAP1 PUSH2 0x18F4 JUMP JUMPDEST DUP10 PUSH2 0x13A9 JUMP JUMPDEST ADD MLOAD SWAP1 POP DUP10 DUP1 PUSH2 0x1366 JUMP JUMPDEST SWAP1 DUP10 SWAP4 POP PUSH1 0x1F NOT DUP4 AND SWAP2 DUP6 PUSH1 0x0 MSTORE DUP10 PUSH1 0x0 KECCAK256 SWAP3 PUSH1 0x0 JUMPDEST DUP12 DUP3 DUP3 LT PUSH2 0x15F2 JUMPI POP POP DUP5 GT PUSH2 0x15D9 JUMPI JUMPDEST POP POP POP DUP2 SHL ADD SWAP1 SSTORE PUSH2 0x137A JUMP JUMPDEST ADD MLOAD PUSH1 0x0 NOT PUSH1 0xF8 DUP5 PUSH1 0x3 SHL AND SHR NOT AND SWAP1 SSTORE DUP10 DUP1 DUP1 PUSH2 0x15CC JUMP JUMPDEST DUP4 DUP6 ADD MLOAD DUP7 SSTORE DUP14 SWAP8 SWAP1 SWAP6 ADD SWAP5 SWAP4 DUP5 ADD SWAP4 ADD PUSH2 0x15BB JUMP JUMPDEST PUSH2 0x1630 SWAP1 DUP6 PUSH1 0x0 MSTORE DUP10 PUSH1 0x0 KECCAK256 DUP9 DUP1 DUP7 ADD PUSH1 0x5 SHR DUP3 ADD SWAP3 DUP13 DUP8 LT PUSH2 0x14F5 JUMPI ADD PUSH1 0x5 SHR ADD SWAP1 PUSH2 0x18F4 JUMP JUMPDEST DUP11 PUSH2 0x1351 JUMP JUMPDEST PUSH2 0x160 DUP2 ADD SWAP1 DUP2 LT PUSH1 0x1 PUSH1 0x1 PUSH1 0x40 SHL SUB DUP3 GT OR PUSH2 0xC9F JUMPI PUSH1 0x40 MSTORE JUMP JUMPDEST PUSH1 0x20 DUP2 ADD SWAP1 DUP2 LT PUSH1 0x1 PUSH1 0x1 PUSH1 0x40 SHL SUB DUP3 GT OR PUSH2 0xC9F JUMPI PUSH1 0x40 MSTORE JUMP JUMPDEST SWAP1 PUSH1 0x1F DUP1 NOT SWAP2 ADD AND DUP2 ADD SWAP1 DUP2 LT PUSH1 0x1 PUSH1 0x1 PUSH1 0x40 SHL SUB DUP3 GT OR PUSH2 0xC9F JUMPI PUSH1 0x40 MSTORE JUMP JUMPDEST DUP2 PUSH1 0x1F DUP3 ADD SLT ISZERO PUSH2 0x1A6 JUMPI DUP1 CALLDATALOAD SWAP1 PUSH1 0x1 PUSH1 0x1 PUSH1 0x40 SHL SUB DUP3 GT PUSH2 0xC9F JUMPI PUSH1 0x40 MLOAD SWAP3 PUSH2 0x16C2 PUSH1 0x1F DUP5 ADD PUSH1 0x1F NOT AND PUSH1 0x20 ADD DUP6 PUSH2 0x166D JUMP JUMPDEST DUP3 DUP5 MSTORE PUSH1 0x20 DUP4 DUP4 ADD ADD GT PUSH2 0x1A6 JUMPI DUP2 PUSH1 0x0 SWAP3 PUSH1 0x20 DUP1 SWAP4 ADD DUP4 DUP7 ADD CALLDATACOPY DUP4 ADD ADD MSTORE SWAP1 JUMP JUMPDEST PUSH1 0x4 CALLDATALOAD SWAP1 PUSH1 0x1 PUSH1 0x1 PUSH1 0xA0 SHL SUB DUP3 AND DUP3 SUB PUSH2 0x1A6 JUMPI JUMP JUMPDEST SWAP1 DUP2 MLOAD DUP1 DUP3 MSTORE PUSH1 0x20 DUP1 DUP1 SWAP4 ADD SWAP4 ADD SWAP2 PUSH1 0x0 JUMPDEST DUP3 DUP2 LT PUSH2 0x171A JUMPI POP POP POP POP SWAP1 JUMP JUMPDEST DUP4 MLOAD PUSH1 0x1 PUSH1 0x1 PUSH1 0xA0 SHL SUB AND DUP6 MSTORE SWAP4 DUP2 ADD SWAP4 SWAP3 DUP2 ADD SWAP3 PUSH1 0x1 ADD PUSH2 0x170C JUMP JUMPDEST PUSH1 0x0 JUMPDEST DUP4 DUP2 LT PUSH2 0x174A JUMPI POP POP PUSH1 0x0 SWAP2 ADD MSTORE JUMP JUMPDEST DUP2 DUP2 ADD MLOAD DUP4 DUP3 ADD MSTORE PUSH1 0x20 ADD PUSH2 0x173A JUMP JUMPDEST SWAP1 PUSH1 0x20 SWAP2 PUSH2 0x1773 DUP2 MLOAD DUP1 SWAP3 DUP2 DUP6 MSTORE DUP6 DUP1 DUP7 ADD SWAP2 ADD PUSH2 0x1737 JUMP JUMPDEST PUSH1 0x1F ADD PUSH1 0x1F NOT AND ADD ADD SWAP1 JUMP JUMPDEST SWAP1 PUSH1 0x1 DUP3 DUP2 SHR SWAP3 AND DUP1 ISZERO PUSH2 0x17AF JUMPI JUMPDEST PUSH1 0x20 DUP4 LT EQ PUSH2 0x1799 JUMPI JUMP JUMPDEST PUSH4 0x4E487B71 PUSH1 0xE0 SHL PUSH1 0x0 MSTORE PUSH1 0x22 PUSH1 0x4 MSTORE PUSH1 0x24 PUSH1 0x0 REVERT JUMPDEST SWAP2 PUSH1 0x7F AND SWAP2 PUSH2 0x178E JUMP JUMPDEST SWAP1 PUSH1 0x40 MLOAD SWAP2 DUP3 PUSH1 0x0 DUP3 SLOAD SWAP3 PUSH2 0x17CD DUP5 PUSH2 0x177F JUMP JUMPDEST SWAP1 DUP2 DUP5 MSTORE PUSH1 0x1 SWAP5 DUP6 DUP2 AND SWAP1 DUP2 PUSH1 0x0 EQ PUSH2 0x183C JUMPI POP PUSH1 0x1 EQ PUSH2 0x17F9 JUMPI JUMPDEST POP POP PUSH2 0x17F7 SWAP3 POP SUB DUP4 PUSH2 0x166D JUMP JUMPDEST JUMP JUMPDEST SWAP1 SWAP4 SWAP2 POP PUSH1 0x0 MSTORE PUSH1 0x20 SWAP1 DUP2 PUSH1 0x0 KECCAK256 SWAP4 PUSH1 0x0 SWAP2 JUMPDEST DUP2 DUP4 LT PUSH2 0x1824 JUMPI POP POP PUSH2 0x17F7 SWAP4 POP DUP3 ADD ADD CODESIZE DUP1 PUSH2 0x17E9 JUMP JUMPDEST DUP6 SLOAD DUP9 DUP5 ADD DUP6 ADD MSTORE SWAP5 DUP6 ADD SWAP5 DUP8 SWAP5 POP SWAP2 DUP4 ADD SWAP2 PUSH2 0x180C JUMP JUMPDEST SWAP2 POP POP PUSH2 0x17F7 SWAP5 POP PUSH1 0x20 SWAP3 POP PUSH1 0xFF NOT AND DUP3 DUP5 ADD MSTORE ISZERO ISZERO PUSH1 0x5 SHL DUP3 ADD ADD CODESIZE DUP1 PUSH2 0x17E9 JUMP JUMPDEST PUSH1 0x0 SLOAD PUSH1 0x1 PUSH1 0x1 PUSH1 0xA0 SHL SUB AND CALLER SUB PUSH2 0x1873 JUMPI JUMP JUMPDEST PUSH1 0x64 PUSH1 0x40 MLOAD PUSH3 0x461BCD PUSH1 0xE5 SHL DUP2 MSTORE PUSH1 0x20 PUSH1 0x4 DUP3 ADD MSTORE PUSH1 0x20 PUSH1 0x24 DUP3 ADD MSTORE PUSH32 0x4F776E61626C653A2063616C6C6572206973206E6F7420746865206F776E6572 PUSH1 0x44 DUP3 ADD MSTORE REVERT JUMPDEST ISZERO PUSH2 0x18BE JUMPI JUMP JUMPDEST PUSH1 0x40 MLOAD PUSH3 0x461BCD PUSH1 0xE5 SHL DUP2 MSTORE PUSH1 0x20 PUSH1 0x4 DUP3 ADD MSTORE PUSH1 0xE PUSH1 0x24 DUP3 ADD MSTORE PUSH14 0x115B585A5B081C995C5D5A5C9959 PUSH1 0x92 SHL PUSH1 0x44 DUP3 ADD MSTORE PUSH1 0x64 SWAP1 REVERT JUMPDEST DUP2 DUP2 LT PUSH2 0x18FF JUMPI POP POP JUMP JUMPDEST PUSH1 0x0 DUP2 SSTORE PUSH1 0x1 ADD PUSH2 0x18F4 JUMP JUMPDEST DUP1 SLOAD SWAP1 PUSH1 0x1 PUSH1 0x40 SHL DUP3 LT ISZERO PUSH2 0xC9F JUMPI PUSH1 0x1 DUP3 ADD DUP1 DUP3 SSTORE DUP3 LT ISZERO PUSH2 0xC89 JUMPI PUSH1 0x0 MSTORE PUSH1 0x20 PUSH1 0x0 KECCAK256 ADD SWAP1 PUSH1 0x1 DUP1 PUSH1 0xA0 SHL SUB AND PUSH1 0x1 PUSH1 0x1 PUSH1 0x60 SHL SUB PUSH1 0xA0 SHL DUP3 SLOAD AND OR SWAP1 SSTORE JUMP JUMPDEST PUSH1 0x2 PUSH1 0x1 SLOAD EQ PUSH2 0x195E JUMPI PUSH1 0x2 PUSH1 0x1 SSTORE JUMP JUMPDEST PUSH1 0x40 MLOAD PUSH3 0x461BCD PUSH1 0xE5 SHL DUP2 MSTORE PUSH1 0x20 PUSH1 0x4 DUP3 ADD MSTORE PUSH1 0x1F PUSH1 0x24 DUP3 ADD MSTORE PUSH32 0x5265656E7472616E637947756172643A207265656E7472616E742063616C6C00 PUSH1 0x44 DUP3 ADD MSTORE PUSH1 0x64 SWAP1 REVERT JUMPDEST ISZERO PUSH2 0x19AA JUMPI JUMP JUMPDEST PUSH1 0x40 MLOAD PUSH3 0x461BCD PUSH1 0xE5 SHL DUP2 MSTORE PUSH1 0x20 PUSH1 0x4 DUP3 ADD MSTORE PUSH1 0x13 PUSH1 0x24 DUP3 ADD MSTORE PUSH19 0x155CD95C88191BD95CC81B9BDD08195E1A5CDD PUSH1 0x6A SHL PUSH1 0x44 DUP3 ADD MSTORE PUSH1 0x64 SWAP1 REVERT JUMPDEST PUSH1 0x0 NOT DUP2 EQ PUSH2 0x19F4 JUMPI PUSH1 0x1 ADD SWAP1 JUMP JUMPDEST PUSH4 0x4E487B71 PUSH1 0xE0 SHL PUSH1 0x0 MSTORE PUSH1 0x11 PUSH1 0x4 MSTORE PUSH1 0x24 PUSH1 0x0 REVERT JUMPDEST ISZERO PUSH2 0x1A11 JUMPI JUMP JUMPDEST PUSH1 0x40 MLOAD PUSH3 0x461BCD PUSH1 0xE5 SHL DUP2 MSTORE PUSH1 0x20 PUSH1 0x4 DUP3 ADD MSTORE PUSH1 0x14 PUSH1 0x24 DUP3 ADD MSTORE PUSH20 0x2AB9B2B91034B9903737BA10309039B2B63632B9 PUSH1 0x61 SHL PUSH1 0x44 DUP3 ADD MSTORE PUSH1 0x64 SWAP1 REVERT JUMPDEST SWAP1 PUSH1 0x40 MLOAD SWAP2 DUP3 DUP2 SLOAD SWAP2 DUP3 DUP3 MSTORE PUSH1 0x20 SWAP3 DUP4 DUP4 ADD SWAP2 PUSH1 0x0 MSTORE DUP4 PUSH1 0x0 KECCAK256 SWAP4 PUSH1 0x0 SWAP1 JUMPDEST DUP3 DUP3 LT PUSH2 0x1A82 JUMPI POP POP POP PUSH2 0x17F7 SWAP3 POP SUB DUP4 PUSH2 0x166D JUMP JUMPDEST DUP6 SLOAD PUSH1 0x1 PUSH1 0x1 PUSH1 0xA0 SHL SUB AND DUP5 MSTORE PUSH1 0x1 SWAP6 DUP7 ADD SWAP6 DUP9 SWAP6 POP SWAP4 DUP2 ADD SWAP4 SWAP1 SWAP2 ADD SWAP1 PUSH2 0x1A6C JUMP INVALID LOG2 PUSH5 0x6970667358 0x22 SLT KECCAK256 0xE4 0x23 MULMOD SWAP6 DUP2 EXP SWAP6 CALLVALUE 0x2F LOG1 PREVRANDAO 0xB0 0xB3 0x2F 0xAD 0xAD 0xC9 0xAF SWAP8 0xA9 0x2A PUSH21 0x5A6A27882EE2944B17D164736F6C63430008140033 "},"methodIdentifiers":{"addCreatedAuction(address)":"694837a5","addPurchase(address)":"517807e4","allUsers(uint256)":"a2bdedf4","becomeSeller()":"8f299b1e","createUser(string,string,string,string)":"6f7fcddb","getAllUsers()":"e2842d79","getUserCreatedAuctions(address)":"450ed735","getUserProfile(address)":"987ee156","getUserPurchases(address)":"c6e5d8f6","incrementSales(address)":"e417926a","isUserSeller(address)":"bb54c00a","owner()":"8da5cb5b","renounceOwnership()":"715018a6","transferOwnership(address)":"f2fde38b","updateProfile(string,string,string)":"1105a5eb","updateSellerRating(address,uint256)":"358e29d2","usernames(string)":"aaee301f","users(address)":"a87430ba"}}}}}