{"contracts/DutchAuction.sol":{"DutchAuction":{"abi":[{"inputs":[{"internalType":"string","name":"_description","type":"string"},{"internalType":"string","name":"_image","type":"string"},{"internalType":"uint256","name":"_startPrice","type":"uint256"},{"internalType":"uint256","name":"_endPrice","type":"uint256"},{"internalType":"uint256","name":"_duration","type":"uint256"},{"internalType":"string","name":"_name","type":"string"},{"internalType":"string","name":"_itemDescription","type":"string"},{"internalType":"string","name":"_condition","type":"string"},{"internalType":"string","name":"_dimensions","type":"string"},{"internalType":"uint256","name":"_weight","type":"uint256"},{"internalType":"string[]","name":"_images","type":"string[]"},{"internalType":"string","name":"_shippingAddress","type":"string"},{"internalType":"bool","name":"_isPhysical","type":"bool"}],"stateMutability":"nonpayable","type":"constructor"},{"anonymous":false,"inputs":[{"indexed":true,"internalType":"address","name":"seller","type":"address"},{"indexed":false,"internalType":"uint256","name":"startingPrice","type":"uint256"},{"indexed":false,"internalType":"uint256","name":"duration","type":"uint256"},{"indexed":false,"internalType":"string","name":"description","type":"string"}],"name":"AuctionCreated","type":"event"},{"anonymous":false,"inputs":[{"indexed":true,"internalType":"address","name":"winner","type":"address"},{"indexed":false,"internalType":"uint256","name":"amount","type":"uint256"}],"name":"AuctionEnded","type":"event"},{"anonymous":false,"inputs":[{"indexed":true,"internalType":"address","name":"bidder","type":"address"},{"indexed":false,"internalType":"uint256","name":"amount","type":"uint256"}],"name":"BidPlaced","type":"event"},{"anonymous":false,"inputs":[{"indexed":true,"internalType":"address","name":"buyer","type":"address"},{"indexed":false,"internalType":"string","name":"reason","type":"string"}],"name":"DisputeRaised","type":"event"},{"anonymous":false,"inputs":[{"indexed":true,"internalType":"address","name":"winner","type":"address"},{"indexed":false,"internalType":"uint256","name":"amount","type":"uint256"}],"name":"DisputeResolved","type":"event"},{"anonymous":false,"inputs":[{"indexed":true,"internalType":"address","name":"escrowAgent","type":"address"},{"indexed":false,"internalType":"uint256","name":"escrowFee","type":"uint256"}],"name":"EscrowCreated","type":"event"},{"anonymous":false,"inputs":[{"indexed":false,"internalType":"uint256","name":"amount","type":"uint256"}],"name":"EscrowFunded","type":"event"},{"anonymous":false,"inputs":[{"indexed":true,"internalType":"address","name":"buyer","type":"address"},{"indexed":false,"internalType":"uint256","name":"amount","type":"uint256"}],"name":"EscrowRefunded","type":"event"},{"anonymous":false,"inputs":[{"indexed":true,"internalType":"address","name":"seller","type":"address"},{"indexed":false,"internalType":"uint256","name":"amount","type":"uint256"}],"name":"EscrowReleased","type":"event"},{"anonymous":false,"inputs":[{"indexed":true,"internalType":"address","name":"buyer","type":"address"},{"indexed":false,"internalType":"bool","name":"conditionMet","type":"bool"}],"name":"ItemReceived","type":"event"},{"anonymous":false,"inputs":[{"indexed":true,"internalType":"address","name":"seller","type":"address"},{"indexed":false,"internalType":"string","name":"trackingNumber","type":"string"}],"name":"ItemShipped","type":"event"},{"anonymous":false,"inputs":[{"indexed":false,"internalType":"address","name":"account","type":"address"}],"name":"Paused","type":"event"},{"anonymous":false,"inputs":[{"indexed":false,"internalType":"address","name":"account","type":"address"}],"name":"Unpaused","type":"event"},{"inputs":[],"name":"auctioneer","outputs":[{"internalType":"address","name":"","type":"address"}],"stateMutability":"view","type":"function"},{"inputs":[{"internalType":"bool","name":"conditionMet","type":"bool"}],"name":"confirmItemReceived","outputs":[],"stateMutability":"nonpayable","type":"function"},{"inputs":[],"name":"description","outputs":[{"internalType":"string","name":"","type":"string"}],"stateMutability":"view","type":"function"},{"inputs":[],"name":"duration","outputs":[{"internalType":"uint256","name":"","type":"uint256"}],"stateMutability":"view","type":"function"},{"inputs":[],"name":"endAuction","outputs":[],"stateMutability":"nonpayable","type":"function"},{"inputs":[],"name":"endPrice","outputs":[{"internalType":"uint256","name":"","type":"uint256"}],"stateMutability":"view","type":"function"},{"inputs":[],"name":"escrow","outputs":[{"internalType":"bool","name":"isActive","type":"bool"},{"internalType":"address","name":"escrowAgent","type":"address"},{"internalType":"uint256","name":"escrowFee","type":"uint256"},{"internalType":"bool","name":"itemReceived","type":"bool"},{"internalType":"bool","name":"paymentReleased","type":"bool"}],"stateMutability":"view","type":"function"},{"inputs":[],"name":"escrowBalance","outputs":[{"internalType":"uint256","name":"","type":"uint256"}],"stateMutability":"view","type":"function"},{"inputs":[],"name":"escrowFunded","outputs":[{"internalType":"bool","name":"","type":"bool"}],"stateMutability":"view","type":"function"},{"inputs":[],"name":"escrowReleased","outputs":[{"internalType":"bool","name":"","type":"bool"}],"stateMutability":"view","type":"function"},{"inputs":[],"name":"fundEscrow","outputs":[],"stateMutability":"payable","type":"function"},{"inputs":[],"name":"getAuctionDetails","outputs":[{"internalType":"address","name":"sellerAddr","type":"address"},{"internalType":"string","name":"desc","type":"string"},{"internalType":"string","name":"img","type":"string"},{"internalType":"uint256","name":"currentPrice","type":"uint256"},{"internalType":"uint256","name":"auctionEndTime","type":"uint256"},{"internalType":"bool","name":"completed","type":"bool"},{"internalType":"address","name":"winnerAddr","type":"address"},{"components":[{"internalType":"string","name":"name","type":"string"},{"internalType":"string","name":"description","type":"string"},{"internalType":"string","name":"condition","type":"string"},{"internalType":"string","name":"dimensions","type":"string"},{"internalType":"uint256","name":"weight","type":"uint256"},{"internalType":"string[]","name":"images","type":"string[]"},{"internalType":"string","name":"shippingAddress","type":"string"},{"internalType":"bool","name":"isPhysical","type":"bool"}],"internalType":"struct IAuction.PhysicalItem","name":"physicalItem","type":"tuple"},{"components":[{"internalType":"bool","name":"isActive","type":"bool"},{"internalType":"address","name":"escrowAgent","type":"address"},{"internalType":"uint256","name":"escrowFee","type":"uint256"},{"internalType":"bool","name":"itemReceived","type":"bool"},{"internalType":"bool","name":"paymentReleased","type":"bool"}],"internalType":"struct IAuction.Escrow","name":"escrowInfo","type":"tuple"}],"stateMutability":"view","type":"function"},{"inputs":[],"name":"getAuctionPrice","outputs":[{"internalType":"uint256","name":"","type":"uint256"}],"stateMutability":"view","type":"function"},{"inputs":[],"name":"getCurrentPrice","outputs":[{"internalType":"uint256","name":"","type":"uint256"}],"stateMutability":"view","type":"function"},{"inputs":[],"name":"getEscrowAmount","outputs":[{"internalType":"uint256","name":"","type":"uint256"}],"stateMutability":"view","type":"function"},{"inputs":[],"name":"image","outputs":[{"internalType":"string","name":"","type":"string"}],"stateMutability":"view","type":"function"},{"inputs":[],"name":"isCompleted","outputs":[{"internalType":"bool","name":"","type":"bool"}],"stateMutability":"view","type":"function"},{"inputs":[],"name":"item","outputs":[{"internalType":"string","name":"name","type":"string"},{"internalType":"string","name":"description","type":"string"},{"internalType":"string","name":"condition","type":"string"},{"internalType":"string","name":"dimensions","type":"string"},{"internalType":"uint256","name":"weight","type":"uint256"},{"internalType":"string","name":"shippingAddress","type":"string"},{"internalType":"bool","name":"isPhysical","type":"bool"}],"stateMutability":"view","type":"function"},{"inputs":[],"name":"paused","outputs":[{"internalType":"bool","name":"","type":"bool"}],"stateMutability":"view","type":"function"},{"inputs":[],"name":"placeBid","outputs":[],"stateMutability":"payable","type":"function"},{"inputs":[{"internalType":"address","name":"","type":"address"}],"name":"purchases","outputs":[{"internalType":"uint256","name":"","type":"uint256"}],"stateMutability":"pure","type":"function"},{"inputs":[{"internalType":"string","name":"reason","type":"string"}],"name":"raiseDispute","outputs":[],"stateMutability":"nonpayable","type":"function"},{"inputs":[{"internalType":"address","name":"disputeWinner","type":"address"}],"name":"resolveDispute","outputs":[],"stateMutability":"nonpayable","type":"function"},{"inputs":[],"name":"seller","outputs":[{"internalType":"address","name":"","type":"address"}],"stateMutability":"view","type":"function"},{"inputs":[{"internalType":"string","name":"trackingNumber","type":"string"}],"name":"shipItem","outputs":[],"stateMutability":"nonpayable","type":"function"},{"inputs":[],"name":"startPrice","outputs":[{"internalType":"uint256","name":"","type":"uint256"}],"stateMutability":"view","type":"function"},{"inputs":[],"name":"startTime","outputs":[{"internalType":"uint256","name":"","type":"uint256"}],"stateMutability":"view","type":"function"},{"inputs":[],"name":"winner","outputs":[{"internalType":"address","name":"","type":"address"}],"stateMutability":"view","type":"function"}],"evm":{"bytecode":{"linkReferences":{},"object":"60806040523462000cfc576200298080380390816200001e8162000d42565b9182396101a081838101031262000cfc5780516001600160401b03811162000cfc57620000519083830190830162000d68565b60208201516001600160401b03811162000cfc57620000769084840190840162000d68565b9160408101519360608201519360808301519560a084015160018060401b03811162000cfc57620000ad9084860190860162000d68565b60c08501519096906001600160401b03811162000cfc57620000d59085870190870162000d68565b60e08601519098906001600160401b03811162000cfc57620000fd9086880190880162000d68565b6101008701519092906001600160401b03811162000cfc57620001269087890190890162000d68565b93610120880151956101408901519760018060401b03891162000cfc57808a01601f8a8c0101121562000cfc5789890151986001600160401b038a1162000649578960051b9060206200017b81840162000d42565b9b8c528b0190838d018d820184016020011162000cfc578c91602084838281870101955b010101831062000d0157505050506101608a0151906001600160401b03821162000cfc5761018091620001d7918c01908c0162000d68565b990151998a15158b0362000cfc576001600d55600e80546001600160a81b0319163360081b610100600160a81b03161790558051906001600160401b038211620006495781906200022a600f5462000dda565b601f811162000cba575b50602090601f831160011462000c3c5760009262000c30575b50508160011b916000199060031b1c191617600f555b8051906001600160401b038211620006495781906200028460105462000dda565b601f811162000bee575b50602090601f831160011462000b705760009262000b64575b50508160011b916000199060031b1c1916176010555b601155601255601355426014556015805460ff191690556040519761010089016001600160401b0381118a8210176200064957604052878952602089015260408801526060870152608086015260a085015260c0840152151560e083015280519060018060401b038211620006495781906200033b60025462000dda565b601f811162000b22575b50602090601f831160011462000aa45760009262000a98575b50508160011b916000199060031b1c1916176002555b60208101518051906001600160401b038211620006495781906200039a60035462000dda565b601f811162000a45575b50602090601f8311600114620009b657600092620009aa575b50508160011b916000199060031b1c1916176003555b60408101518051906001600160401b03821162000649578190620003f960045462000dda565b601f811162000957575b50602090601f8311600114620008c857600092620008bc575b50508160011b916000199060031b1c1916176004555b606081015180519091906001600160401b03811162000649576200045860055462000dda565b601f811162000885575b50602092601f82116001146200081a57928192936000926200080e575b50508160011b916000199060031b1c1916176005555b608081015160065560a081015180519068010000000000000000821162000649576007548260075580831062000783575b50600760009081526000805160206200290083398151915292916020015b8282106200065f5760c085015180519086906001600160401b03831162000649576200051260085462000dda565b601f8111620005fb575b50602090601f84116001146200057e5760e093916000918362000572575b50508160011b916000199060031b1c1916176008555b0151151560ff801960095416911617600955604051611aaf908162000e318239f35b0151905084806200053a565b6008600090815260008051602062002920833981519152929190601f198616905b818110620005e2575091600193918660e0979410620005c8575b505050811b0160085562000550565b015160001960f88460031b161c19169055848080620005b9565b929360206001819287860151815501950193016200059f565b6008600052620006379060008051602062002920833981519152601f860160051c810191602087106200063e575b601f0160051c019062000e17565b836200051c565b909150819062000629565b634e487b7160e01b600052604160045260246000fd5b80518051906001600160401b03821162000649576200067f865462000dda565b601f81116200074d575b50602090601f8311600114620006da579282600194936020938695600092620006ce575b5050600019600383901b1c191690841b1787555b01940191019092620004e4565b015190503880620006ad565b90601f198316918760005260206000209260005b8181106200073457509360209360019693879693838895106200071a575b505050811b018755620006c1565b015160001960f88460031b161c191690553880806200070c565b92936020600181928786015181550195019301620006ee565b6200077c90876000526020600020601f850160051c810191602086106200063e57601f0160051c019062000e17565b3862000689565b6007600052600080516020620029008339815191529081019083015b818110620007ae5750620004c6565b80620007bd6001925462000dda565b80620007cc575b50016200079f565b601f81118314620007e45750600081555b38620007c4565b60009082825262000804601f60208420920160051c820185830162000e17565b81835555620007dd565b0151905038806200047f565b601f19821693600560005260206000209160005b8681106200086c575083600195961062000852575b505050811b0160055562000495565b015160001960f88460031b161c1916905538808062000843565b919260206001819286850151815501940192016200082e565b620008b59060056000526020600020601f840160051c810191602085106200063e57601f0160051c019062000e17565b3862000462565b0151905038806200041c565b6004600090815293507f8a35acfbc15ff81a39ae7d344fd709f28e8600b4aa8c65c6b64bfe7fe36bd19b91905b601f19841685106200093b576001945083601f1981161062000921575b505050811b0160045562000432565b015160001960f88460031b161c1916905538808062000912565b81810151835560209485019460019093019290910190620008f5565b6004600052620009a3907f8a35acfbc15ff81a39ae7d344fd709f28e8600b4aa8c65c6b64bfe7fe36bd19b601f850160051c810191602086106200063e57601f0160051c019062000e17565b3862000403565b015190503880620003bd565b6003600090815293507fc2575a0e9e593c00f959f8c92f12db2869c3395a3b0502d05e2516446f71f85b91905b601f198416851062000a29576001945083601f1981161062000a0f575b505050811b01600355620003d3565b015160001960f88460031b161c1916905538808062000a00565b81810151835560209485019460019093019290910190620009e3565b600360005262000a91907fc2575a0e9e593c00f959f8c92f12db2869c3395a3b0502d05e2516446f71f85b601f850160051c810191602086106200063e57601f0160051c019062000e17565b38620003a4565b0151905038806200035e565b600260009081529350600080516020620028e083398151915291905b601f198416851062000b06576001945083601f1981161062000aec575b505050811b0160025562000374565b015160001960f88460031b161c1916905538808062000add565b8181015183556020948501946001909301929091019062000ac0565b600260005262000b5d90600080516020620028e0833981519152601f850160051c810191602086106200063e57601f0160051c019062000e17565b3862000345565b015190503880620002a7565b6010600090815293506000805160206200294083398151915291905b601f198416851062000bd2576001945083601f1981161062000bb8575b505050811b01601055620002bd565b015160001960f88460031b161c1916905538808062000ba9565b8181015183556020948501946001909301929091019062000b8c565b601060005262000c299060008051602062002940833981519152601f850160051c810191602086106200063e57601f0160051c019062000e17565b386200028e565b0151905038806200024d565b600f600090815293506000805160206200296083398151915291905b601f198416851062000c9e576001945083601f1981161062000c84575b505050811b01600f5562000263565b015160001960f88460031b161c1916905538808062000c75565b8181015183556020948501946001909301929091019062000c58565b600f60005262000cf59060008051602062002960833981519152601f850160051c810191602086106200063e57601f0160051c019062000e17565b3862000234565b600080fd5b8251936001600160401b03851162000cfc57828f956020809462000d308293838c8c0191878d01010162000d68565b8152019501949291959086916200019f565b6040519190601f01601f191682016001600160401b038111838210176200064957604052565b919080601f8401121562000cfc5782516001600160401b038111620006495760209062000d9e601f8201601f1916830162000d42565b9281845282828701011162000cfc5760005b81811062000dc657508260009394955001015290565b858101830151848201840152820162000db0565b90600182811c9216801562000e0c575b602083101462000df657565b634e487b7160e01b600052602260045260246000fd5b91607f169162000dea565b81811062000e23575050565b6000815560010162000e1756fe6080604052600436101561001257600080fd5b60003560e01c806308551a531461115b5780630fb5a6b41461113d5780633a6dcea214610d075780634bd25c6f14610627578063562e4d3814610ce457806356eec68d14610be05780635c975abb14610bbd5780635ec2c7bf14610bb8578063725a3b4b14610b295780637284e41614610b0d57806378e9792514610aef5780637b499faa14610ac9578063842a77d314610a9b57806388e7e36614610957578063a5d737ac1461081f578063a5e845b4146107fc578063b868723e146107de578063d8461182146106cd578063dfbf53ae146106a0578063e11e1b0c14610682578063e2fdcc171461062c578063eb91d37e14610627578063ecfc7ecc1461035f578063f1a9af8914610341578063f2a4a82e1461028f578063f3ccaac01461025b578063fa391c64146102385763fe67a54b1461015057600080fd5b346102335760003660031901126102335760155460ff81166101f65761017b601454601354906117e6565b42106101ba5760019060ff19161760155560007fdaec4582d5d9595688c8c98545fdd1c696d41c6aeaeb636737e84ed2f5c00eda6020604051838152a2005b60405162461bcd60e51b815260206004820152601460248201527341756374696f6e207374696c6c2061637469766560601b6044820152606490fd5b60405162461bcd60e51b8152602060048201526015602482015274105d58dd1a5bdb88185b1c9958591e48195b991959605a1b6044820152606490fd5b600080fd5b3461023357600036600319011261023357602060ff601554166040519015158152f35b346102335760003660031901126102335761028b6102776113ae565b604051918291602083526020830190611188565b0390f35b34610233576000366003190112610233576102f86102ab611462565b6102b3611516565b6103356102be6115ca565b6102c661167e565b90610322600654926103146102d9611732565b9361030660ff60095416986040519b8c9b60e08d5260e08d0190611188565b908b820360208d0152611188565b9089820360408b0152611188565b908782036060890152611188565b91608086015284820360a0860152611188565b90151560c08301520390f35b34610233576000366003190112610233576020601154604051908152f35b6000366003190112610233576002600d54146105e2576002600d55600e5460ff81166105aa576015549060ff821661056557610399611816565b80341061050e57610100600160a81b039160016affffffffffffffffffffff60a81b9485853360081b16911617176015556040513481527fdaec4582d5d9595688c8c98545fdd1c696d41c6aeaeb636737e84ed2f5c00eda60203392a260095460ff1615610494575050602060017f137fb716243bb1721111512a26c6a2d922e0bf3022df1ea74c7ef10ab3bc0dc792610431611a57565b946000608060405161044281611200565b85815230878201528860408201528260608201520152600a54913060081b169116171780600a5583600b5561ffff19600c5416600c5560405193845260018060a01b039060081c1692a25b6001600d55005b81935060008093508092819282908215610504575b60081c6001600160a01b031690f1156104ef578034116104ca575b5061048d565b600080806104d9819434611809565b8181156104fb575b3390f1156104ef57806104c4565b6040513d6000823e3d90fd5b506108fc6104e1565b6108fc91506104a9565b60405162461bcd60e51b815260206004820152602960248201527f426964206d757374206d656574206f7220657863656564207468652063757272604482015268656e7420707269636560b81b6064820152608490fd5b60405162461bcd60e51b815260206004820152601960248201527f41756374696f6e2068617320616c726561647920656e646564000000000000006044820152606490fd5b60405162461bcd60e51b815260206004820152601060248201526f14185d5cd8589b194e881c185d5cd95960821b6044820152606490fd5b60405162461bcd60e51b815260206004820152601f60248201527f5265656e7472616e637947756172643a207265656e7472616e742063616c6c006044820152606490fd5b6111c8565b346102335760003660031901126102335760a0600a5460ff600b54600c54906040519383811615158552600180871b039060081c16602085015260408401528181161515606084015260081c1615156080820152f35b34610233576000366003190112610233576020600054604051908152f35b346102335760003660031901126102335760155460405160089190911c6001600160a01b03168152602090f35b34610233576020366003190112610233576004356001600160a01b03818116918290036102335761070690600e5460081c16331461188b565b61071460ff600154166118d7565b61072360ff600a541615611963565b600c5461073360ff8216156119a5565b60ff8160081c166107995760207ff396531fad1d4dc2cd92386cdea800c92a507f8fe1bdb80313eb32a57481b1dc91610100600054916000805561ff00191617600c55610790600080808085895af161078a6119e9565b50611a19565b604051908152a2005b60405162461bcd60e51b815260206004820152601860248201527f5061796d656e7420616c72656164792072656c656173656400000000000000006044820152606490fd5b34610233576000366003190112610233576020601254604051908152f35b34610233576000366003190112610233576020610817611a57565b604051908152f35b60003660031901126102335761084360018060a01b03600e5460081c16331461188b565b60015460ff811661091a5734156108e55761085c611a57565b908134106108a0578160016020927f3b4f5a74452cddb80ae5a0d279eb7db6afd5e556e72ca2883016b1da7c9d21169460005560ff191617600155604051908152a1005b60405162461bcd60e51b815260206004820152601a60248201527f496e73756666696369656e7420657363726f7720616d6f756e740000000000006044820152606490fd5b60405162461bcd60e51b815260206004820152600d60248201526c09aeae6e840e6cadcc8408aa89609b1b6044820152606490fd5b60405162461bcd60e51b8152602060048201526015602482015274115cd8dc9bddc8185b1c9958591e48199d5b991959605a1b6044820152606490fd5b3461023357602036600319011261023357600435801515908181036102335760018060a01b03916109908360155460081c163314611917565b61099e60ff600154166118d7565b6109ad60ff600a541615611963565b610101600c546109c060ff8216156119a5565b61ffff191617600c556040519081527f27a5ccc16be6802bcec7c2477a2b588a54c808352ef7dab930058f65864b3ce960203392a215610a51577fe327b247066bdf32cf2493778e3fce4339b69c1e379a3b0dc780779bf67fe15560206000549260008055610a4060008080808886600e5460081c165af161078a6119e9565b600e5460081c1692604051908152a2005b5060005460008055610a6d600080808085335af161078a6119e9565b6040519081527f894ce7cc354d2a39de53f8dab6b0ad8c5ac65641e68aa2154fdb88bcc387e3dd60203392a2005b34610233576020366003190112610233576004356001600160a01b0381160361023357602060405160008152f35b3461023357600036600319011261023357602060ff60015460081c166040519015158152f35b34610233576000366003190112610233576020601454604051908152f35b346102335760003660031901126102335761028b6102776112c3565b3461023357610b373661125a565b610b4f60018060a01b0360155460081c163314611917565b610b5d60ff600154166118d7565b610b6c60ff600a541615611963565b610b7b60ff600c5416156119a5565b7f28b099eb575e23e32becd7c30dc8f9b2f98e370cdbf9841ea3338d9000402a256040516020815280610bb333946020830190611188565b0390a2005b61115b565b3461023357600036600319011261023357602060ff600e54166040519015158152f35b3461023357610bee3661125a565b610c0660018060a01b03600e5460081c16331461188b565b610c1460ff600154166118d7565b600a5460ff811615610cab57815115610c665760ff1916600a557f2eb59c65a13ffe423f16ef2c7edd21afcde560ef40c04008402e75d5c0b04b2f6040516020815280610bb333946020830190611188565b60405162461bcd60e51b815260206004820152601760248201527f496e76616c696420747261636b696e67206e756d6265720000000000000000006044820152606490fd5b60405162461bcd60e51b8152602060048201526011602482015270457363726f77206e6f742061637469766560781b6044820152606490fd5b3461023357600036600319011261023357602060ff600154166040519015158152f35b3461023357600036600319011261023357600060e0604051610d28816111e3565b606081526060602082015260606040820152606080820152826080820152606060a0820152606060c0820152015260006080604051610d6681611200565b8281528260208201528260408201528260608201520152600e54610d88611816565b90610d98601454601354906117e6565b60155492610da46112c3565b93610dad6113ae565b9260405193610dbb856111e3565b610dc3611462565b8552610dcd611516565b6020860152610dda6115ca565b6040860152610de761167e565b6060860152600654608086015260075467ffffffffffffffff81116111275760405190610e1a60208260051b018361121c565b808252602082019060076000527fa66cc928b5edb82af9bd49922954155ab7b0942694bea4ce44661d9a8736c688916000905b828210611050575050505060a0860152610efa90610e69611732565b60c087015260ff60095416151560e0870152610eec60405198610e8b8a611200565b600a5460ff811615158b5260018060a01b039060081c1660208b0152600b5460408b015260ff600c54818116151560608d015260081c16151560808b01526040519860018060a01b039060081c1689526101a08060208b0152890190611188565b908782036040890152611188565b926060860152608085015260ff8116151560a085015260018060a01b039060081c1660c084015282810360e0840152610f7d610f6b610f59610f4785516101008652610100860190611188565b60208601518582036020870152611188565b60408501518482036040860152611188565b60608401518382036060850152611188565b6080830151608083015260a08301519082810360a0840152815180825260208201916020808360051b8301019401926000915b8383106110235788808960808d8b60e080610fd78e60c088015185820360c0870152611188565b95015115159101528051151561010085015260208101516001600160a01b0316610120850152604081015161014085015260608101511515610160850152015115156101808301520390f35b9091929394602080611041600193601f198682030187528951611188565b97019301930191939290610fb0565b604051600085548060011c90600181161561111d575b60208210600182161461110757818452600181169081156110e457506001146110ac575b506001928261109e8594602094038261121c565b815201940191019092610e4d565b6000878152602081209092505b8183106110ce5750508101602001600161108a565b60018160209254838688010152019201916110b9565b60ff191660208581019190915291151560051b840190910191506001905061108a565b634e487b7160e01b600052602260045260246000fd5b90607f1690611066565b634e487b7160e01b600052604160045260246000fd5b34610233576000366003190112610233576020601354604051908152f35b3461023357600036600319011261023357600e5460405160089190911c6001600160a01b03168152602090f35b919082519283825260005b8481106111b4575050826000602080949584010152601f8019910116010190565b602081830181015184830182015201611193565b34610233576000366003190112610233576020610817611816565b610100810190811067ffffffffffffffff82111761112757604052565b60a0810190811067ffffffffffffffff82111761112757604052565b90601f8019910116810190811067ffffffffffffffff82111761112757604052565b67ffffffffffffffff811161112757601f01601f191660200190565b60206003198201126102335760043567ffffffffffffffff81116102335781602382011215610233578060040135906112928261123e565b926112a0604051948561121c565b828452602483830101116102335781600092602460209301838601378301015290565b604051906000600f5490600182811c908084169384156113a4575b602094858410811461139057838852879493929181156113705750600114611311575b505061130f9250038361121c565b565b90939150600f6000527f8d1108e10bcb7c27dddfc02ed9d693a074039d026cf4ea4240b40f7d581ac802936000915b81831061135857505061130f93508201013880611301565b85548884018501529485019487945091830191611340565b91505061130f94925060ff191682840152151560051b8201013880611301565b634e487b7160e01b85526022600452602485fd5b91607f16916112de565b60405190600060105490600182811c90808416938415611458575b6020948584108114611390578388528794939291811561137057506001146113f957505061130f9250038361121c565b9093915060106000527f1b6847dc741a1b0cd08d278845f9d819d87b734759afb55fe2de5cb82a9ae672936000915b81831061144057505061130f93508201013880611301565b85548884018501529485019487945091830191611428565b91607f16916113c9565b60405190600060025490600182811c9080841693841561150c575b6020948584108114611390578388528794939291811561137057506001146114ad57505061130f9250038361121c565b9093915060026000527f405787fa12a823e0f2b7631cc41b3ba8828b3321ca811111fa75cd3aa3bb5ace936000915b8183106114f457505061130f93508201013880611301565b855488840185015294850194879450918301916114dc565b91607f169161147d565b60405190600060035490600182811c908084169384156115c0575b60209485841081146113905783885287949392918115611370575060011461156157505061130f9250038361121c565b9093915060036000527fc2575a0e9e593c00f959f8c92f12db2869c3395a3b0502d05e2516446f71f85b936000915b8183106115a857505061130f93508201013880611301565b85548884018501529485019487945091830191611590565b91607f1691611531565b60405190600060045490600182811c90808416938415611674575b60209485841081146113905783885287949392918115611370575060011461161557505061130f9250038361121c565b9093915060046000527f8a35acfbc15ff81a39ae7d344fd709f28e8600b4aa8c65c6b64bfe7fe36bd19b936000915b81831061165c57505061130f93508201013880611301565b85548884018501529485019487945091830191611644565b91607f16916115e5565b60405190600060055490600182811c90808416938415611728575b6020948584108114611390578388528794939291811561137057506001146116c957505061130f9250038361121c565b9093915060056000527f036b6384b5eca791c62761152d0c79bb0604c104a5fb6f4eb0703f3154bb3db0936000915b81831061171057505061130f93508201013880611301565b855488840185015294850194879450918301916116f8565b91607f1691611699565b60405190600060085490600182811c908084169384156117dc575b60209485841081146113905783885287949392918115611370575060011461177d57505061130f9250038361121c565b9093915060086000527ff3f7a9fe364faab93b216da50a3214154f22a0a2b415b23a84c8169e8b636ee3936000915b8183106117c457505061130f93508201013880611301565b855488840185015294850194879450918301916117ac565b91607f169161174d565b919082018092116117f357565b634e487b7160e01b600052601160045260246000fd5b919082039182116117f357565b6014546013549061182782826117e6565b421015611883576118389042611809565b906011549061184960125483611809565b8381029381850414901517156117f357801561186d5761186a920490611809565b90565b634e487b7160e01b600052601260045260246000fd5b505060125490565b1561189257565b60405162461bcd60e51b815260206004820152601960248201527f4f6e6c792073656c6c65722063616e2063616c6c2074686973000000000000006044820152606490fd5b156118de57565b60405162461bcd60e51b8152602060048201526011602482015270115cd8dc9bddc81b9bdd08199d5b991959607a1b6044820152606490fd5b1561191e57565b60405162461bcd60e51b815260206004820152601860248201527f4f6e6c792062757965722063616e2063616c6c207468697300000000000000006044820152606490fd5b1561196a57565b60405162461bcd60e51b8152602060048201526013602482015272457363726f77207374696c6c2061637469766560681b6044820152606490fd5b156119ac57565b60405162461bcd60e51b8152602060048201526015602482015274125d195b48185b1c9958591e481c9958d95a5d9959605a1b6044820152606490fd5b3d15611a14573d906119fa8261123e565b91611a08604051938461121c565b82523d6000602084013e565b606090565b15611a2057565b60405162461bcd60e51b815260206004820152600f60248201526e151c985b9cd9995c8819985a5b1959608a1b6044820152606490fd5b611a5f611816565b8060011b90808204600214901517156117f357606490049056fea2646970667358221220dffa517a0cd3a29e5b85e7ce5fc87c57cfe2816e4943deb312336e90fe9da3c964736f6c63430008140033405787fa12a823e0f2b7631cc41b3ba8828b3321ca811111fa75cd3aa3bb5acea66cc928b5edb82af9bd49922954155ab7b0942694bea4ce44661d9a8736c688f3f7a9fe364faab93b216da50a3214154f22a0a2b415b23a84c8169e8b636ee31b6847dc741a1b0cd08d278845f9d819d87b734759afb55fe2de5cb82a9ae6728d1108e10bcb7c27dddfc02ed9d693a074039d026cf4ea4240b40f7d581ac802","opcodes":"PUSH1 0x80 PUSH1 0x40 MSTORE CALLVALUE PUSH3 0xCFC JUMPI PUSH3 0x2980 DUP1 CODESIZE SUB SWAP1 DUP2 PUSH3 0x1E DUP2 PUSH3 0xD42 JUMP JUMPDEST SWAP2 DUP3 CODECOPY PUSH2 0x1A0 DUP2 DUP4 DUP2 ADD SUB SLT PUSH3 0xCFC JUMPI DUP1 MLOAD PUSH1 0x1 PUSH1 0x1 PUSH1 0x40 SHL SUB DUP2 GT PUSH3 0xCFC JUMPI PUSH3 0x51 SWAP1 DUP4 DUP4 ADD SWAP1 DUP4 ADD PUSH3 0xD68 JUMP JUMPDEST PUSH1 0x20 DUP3 ADD MLOAD PUSH1 0x1 PUSH1 0x1 PUSH1 0x40 SHL SUB DUP2 GT PUSH3 0xCFC JUMPI PUSH3 0x76 SWAP1 DUP5 DUP5 ADD SWAP1 DUP5 ADD PUSH3 0xD68 JUMP JUMPDEST SWAP2 PUSH1 0x40 DUP2 ADD MLOAD SWAP4 PUSH1 0x60 DUP3 ADD MLOAD SWAP4 PUSH1 0x80 DUP4 ADD MLOAD SWAP6 PUSH1 0xA0 DUP5 ADD MLOAD PUSH1 0x1 DUP1 PUSH1 0x40 SHL SUB DUP2 GT PUSH3 0xCFC JUMPI PUSH3 0xAD SWAP1 DUP5 DUP7 ADD SWAP1 DUP7 ADD PUSH3 0xD68 JUMP JUMPDEST PUSH1 0xC0 DUP6 ADD MLOAD SWAP1 SWAP7 SWAP1 PUSH1 0x1 PUSH1 0x1 PUSH1 0x40 SHL SUB DUP2 GT PUSH3 0xCFC JUMPI PUSH3 0xD5 SWAP1 DUP6 DUP8 ADD SWAP1 DUP8 ADD PUSH3 0xD68 JUMP JUMPDEST PUSH1 0xE0 DUP7 ADD MLOAD SWAP1 SWAP9 SWAP1 PUSH1 0x1 PUSH1 0x1 PUSH1 0x40 SHL SUB DUP2 GT PUSH3 0xCFC JUMPI PUSH3 0xFD SWAP1 DUP7 DUP9 ADD SWAP1 DUP9 ADD PUSH3 0xD68 JUMP JUMPDEST PUSH2 0x100 DUP8 ADD MLOAD SWAP1 SWAP3 SWAP1 PUSH1 0x1 PUSH1 0x1 PUSH1 0x40 SHL SUB DUP2 GT PUSH3 0xCFC JUMPI PUSH3 0x126 SWAP1 DUP8 DUP10 ADD SWAP1 DUP10 ADD PUSH3 0xD68 JUMP JUMPDEST SWAP4 PUSH2 0x120 DUP9 ADD MLOAD SWAP6 PUSH2 0x140 DUP10 ADD MLOAD SWAP8 PUSH1 0x1 DUP1 PUSH1 0x40 SHL SUB DUP10 GT PUSH3 0xCFC JUMPI DUP1 DUP11 ADD PUSH1 0x1F DUP11 DUP13 ADD ADD SLT ISZERO PUSH3 0xCFC JUMPI DUP10 DUP10 ADD MLOAD SWAP9 PUSH1 0x1 PUSH1 0x1 PUSH1 0x40 SHL SUB DUP11 GT PUSH3 0x649 JUMPI DUP10 PUSH1 0x5 SHL SWAP1 PUSH1 0x20 PUSH3 0x17B DUP2 DUP5 ADD PUSH3 0xD42 JUMP JUMPDEST SWAP12 DUP13 MSTORE DUP12 ADD SWAP1 DUP4 DUP14 ADD DUP14 DUP3 ADD DUP5 ADD PUSH1 0x20 ADD GT PUSH3 0xCFC JUMPI DUP13 SWAP2 PUSH1 0x20 DUP5 DUP4 DUP3 DUP2 DUP8 ADD ADD SWAP6 JUMPDEST ADD ADD ADD DUP4 LT PUSH3 0xD01 JUMPI POP POP POP POP PUSH2 0x160 DUP11 ADD MLOAD SWAP1 PUSH1 0x1 PUSH1 0x1 PUSH1 0x40 SHL SUB DUP3 GT PUSH3 0xCFC JUMPI PUSH2 0x180 SWAP2 PUSH3 0x1D7 SWAP2 DUP13 ADD SWAP1 DUP13 ADD PUSH3 0xD68 JUMP JUMPDEST SWAP10 ADD MLOAD SWAP10 DUP11 ISZERO ISZERO DUP12 SUB PUSH3 0xCFC JUMPI PUSH1 0x1 PUSH1 0xD SSTORE PUSH1 0xE DUP1 SLOAD PUSH1 0x1 PUSH1 0x1 PUSH1 0xA8 SHL SUB NOT AND CALLER PUSH1 0x8 SHL PUSH2 0x100 PUSH1 0x1 PUSH1 0xA8 SHL SUB AND OR SWAP1 SSTORE DUP1 MLOAD SWAP1 PUSH1 0x1 PUSH1 0x1 PUSH1 0x40 SHL SUB DUP3 GT PUSH3 0x649 JUMPI DUP2 SWAP1 PUSH3 0x22A PUSH1 0xF SLOAD PUSH3 0xDDA JUMP JUMPDEST PUSH1 0x1F DUP2 GT PUSH3 0xCBA JUMPI JUMPDEST POP PUSH1 0x20 SWAP1 PUSH1 0x1F DUP4 GT PUSH1 0x1 EQ PUSH3 0xC3C JUMPI PUSH1 0x0 SWAP3 PUSH3 0xC30 JUMPI JUMPDEST POP POP DUP2 PUSH1 0x1 SHL SWAP2 PUSH1 0x0 NOT SWAP1 PUSH1 0x3 SHL SHR NOT AND OR PUSH1 0xF SSTORE JUMPDEST DUP1 MLOAD SWAP1 PUSH1 0x1 PUSH1 0x1 PUSH1 0x40 SHL SUB DUP3 GT PUSH3 0x649 JUMPI DUP2 SWAP1 PUSH3 0x284 PUSH1 0x10 SLOAD PUSH3 0xDDA JUMP JUMPDEST PUSH1 0x1F DUP2 GT PUSH3 0xBEE JUMPI JUMPDEST POP PUSH1 0x20 SWAP1 PUSH1 0x1F DUP4 GT PUSH1 0x1 EQ PUSH3 0xB70 JUMPI PUSH1 0x0 SWAP3 PUSH3 0xB64 JUMPI JUMPDEST POP POP DUP2 PUSH1 0x1 SHL SWAP2 PUSH1 0x0 NOT SWAP1 PUSH1 0x3 SHL SHR NOT AND OR PUSH1 0x10 SSTORE JUMPDEST PUSH1 0x11 SSTORE PUSH1 0x12 SSTORE PUSH1 0x13 SSTORE TIMESTAMP PUSH1 0x14 SSTORE PUSH1 0x15 DUP1 SLOAD PUSH1 0xFF NOT AND SWAP1 SSTORE PUSH1 0x40 MLOAD SWAP8 PUSH2 0x100 DUP10 ADD PUSH1 0x1 PUSH1 0x1 PUSH1 0x40 SHL SUB DUP2 GT DUP11 DUP3 LT OR PUSH3 0x649 JUMPI PUSH1 0x40 MSTORE DUP8 DUP10 MSTORE PUSH1 0x20 DUP10 ADD MSTORE PUSH1 0x40 DUP9 ADD MSTORE PUSH1 0x60 DUP8 ADD MSTORE PUSH1 0x80 DUP7 ADD MSTORE PUSH1 0xA0 DUP6 ADD MSTORE PUSH1 0xC0 DUP5 ADD MSTORE ISZERO ISZERO PUSH1 0xE0 DUP4 ADD MSTORE DUP1 MLOAD SWAP1 PUSH1 0x1 DUP1 PUSH1 0x40 SHL SUB DUP3 GT PUSH3 0x649 JUMPI DUP2 SWAP1 PUSH3 0x33B PUSH1 0x2 SLOAD PUSH3 0xDDA JUMP JUMPDEST PUSH1 0x1F DUP2 GT PUSH3 0xB22 JUMPI JUMPDEST POP PUSH1 0x20 SWAP1 PUSH1 0x1F DUP4 GT PUSH1 0x1 EQ PUSH3 0xAA4 JUMPI PUSH1 0x0 SWAP3 PUSH3 0xA98 JUMPI JUMPDEST POP POP DUP2 PUSH1 0x1 SHL SWAP2 PUSH1 0x0 NOT SWAP1 PUSH1 0x3 SHL SHR NOT AND OR PUSH1 0x2 SSTORE JUMPDEST PUSH1 0x20 DUP2 ADD MLOAD DUP1 MLOAD SWAP1 PUSH1 0x1 PUSH1 0x1 PUSH1 0x40 SHL SUB DUP3 GT PUSH3 0x649 JUMPI DUP2 SWAP1 PUSH3 0x39A PUSH1 0x3 SLOAD PUSH3 0xDDA JUMP JUMPDEST PUSH1 0x1F DUP2 GT PUSH3 0xA45 JUMPI JUMPDEST POP PUSH1 0x20 SWAP1 PUSH1 0x1F DUP4 GT PUSH1 0x1 EQ PUSH3 0x9B6 JUMPI PUSH1 0x0 SWAP3 PUSH3 0x9AA JUMPI JUMPDEST POP POP DUP2 PUSH1 0x1 SHL SWAP2 PUSH1 0x0 NOT SWAP1 PUSH1 0x3 SHL SHR NOT AND OR PUSH1 0x3 SSTORE JUMPDEST PUSH1 0x40 DUP2 ADD MLOAD DUP1 MLOAD SWAP1 PUSH1 0x1 PUSH1 0x1 PUSH1 0x40 SHL SUB DUP3 GT PUSH3 0x649 JUMPI DUP2 SWAP1 PUSH3 0x3F9 PUSH1 0x4 SLOAD PUSH3 0xDDA JUMP JUMPDEST PUSH1 0x1F DUP2 GT PUSH3 0x957 JUMPI JUMPDEST POP PUSH1 0x20 SWAP1 PUSH1 0x1F DUP4 GT PUSH1 0x1 EQ PUSH3 0x8C8 JUMPI PUSH1 0x0 SWAP3 PUSH3 0x8BC JUMPI JUMPDEST POP POP DUP2 PUSH1 0x1 SHL SWAP2 PUSH1 0x0 NOT SWAP1 PUSH1 0x3 SHL SHR NOT AND OR PUSH1 0x4 SSTORE JUMPDEST PUSH1 0x60 DUP2 ADD MLOAD DUP1 MLOAD SWAP1 SWAP2 SWAP1 PUSH1 0x1 PUSH1 0x1 PUSH1 0x40 SHL SUB DUP2 GT PUSH3 0x649 JUMPI PUSH3 0x458 PUSH1 0x5 SLOAD PUSH3 0xDDA JUMP JUMPDEST PUSH1 0x1F DUP2 GT PUSH3 0x885 JUMPI JUMPDEST POP PUSH1 0x20 SWAP3 PUSH1 0x1F DUP3 GT PUSH1 0x1 EQ PUSH3 0x81A JUMPI SWAP3 DUP2 SWAP3 SWAP4 PUSH1 0x0 SWAP3 PUSH3 0x80E JUMPI JUMPDEST POP POP DUP2 PUSH1 0x1 SHL SWAP2 PUSH1 0x0 NOT SWAP1 PUSH1 0x3 SHL SHR NOT AND OR PUSH1 0x5 SSTORE JUMPDEST PUSH1 0x80 DUP2 ADD MLOAD PUSH1 0x6 SSTORE PUSH1 0xA0 DUP2 ADD MLOAD DUP1 MLOAD SWAP1 PUSH9 0x10000000000000000 DUP3 GT PUSH3 0x649 JUMPI PUSH1 0x7 SLOAD DUP3 PUSH1 0x7 SSTORE DUP1 DUP4 LT PUSH3 0x783 JUMPI JUMPDEST POP PUSH1 0x7 PUSH1 0x0 SWAP1 DUP2 MSTORE PUSH1 0x0 DUP1 MLOAD PUSH1 0x20 PUSH3 0x2900 DUP4 CODECOPY DUP2 MLOAD SWAP2 MSTORE SWAP3 SWAP2 PUSH1 0x20 ADD JUMPDEST DUP3 DUP3 LT PUSH3 0x65F JUMPI PUSH1 0xC0 DUP6 ADD MLOAD DUP1 MLOAD SWAP1 DUP7 SWAP1 PUSH1 0x1 PUSH1 0x1 PUSH1 0x40 SHL SUB DUP4 GT PUSH3 0x649 JUMPI PUSH3 0x512 PUSH1 0x8 SLOAD PUSH3 0xDDA JUMP JUMPDEST PUSH1 0x1F DUP2 GT PUSH3 0x5FB JUMPI JUMPDEST POP PUSH1 0x20 SWAP1 PUSH1 0x1F DUP5 GT PUSH1 0x1 EQ PUSH3 0x57E JUMPI PUSH1 0xE0 SWAP4 SWAP2 PUSH1 0x0 SWAP2 DUP4 PUSH3 0x572 JUMPI JUMPDEST POP POP DUP2 PUSH1 0x1 SHL SWAP2 PUSH1 0x0 NOT SWAP1 PUSH1 0x3 SHL SHR NOT AND OR PUSH1 0x8 SSTORE JUMPDEST ADD MLOAD ISZERO ISZERO PUSH1 0xFF DUP1 NOT PUSH1 0x9 SLOAD AND SWAP2 AND OR PUSH1 0x9 SSTORE PUSH1 0x40 MLOAD PUSH2 0x1AAF SWAP1 DUP2 PUSH3 0xE31 DUP3 CODECOPY RETURN JUMPDEST ADD MLOAD SWAP1 POP DUP5 DUP1 PUSH3 0x53A JUMP JUMPDEST PUSH1 0x8 PUSH1 0x0 SWAP1 DUP2 MSTORE PUSH1 0x0 DUP1 MLOAD PUSH1 0x20 PUSH3 0x2920 DUP4 CODECOPY DUP2 MLOAD SWAP2 MSTORE SWAP3 SWAP2 SWAP1 PUSH1 0x1F NOT DUP7 AND SWAP1 JUMPDEST DUP2 DUP2 LT PUSH3 0x5E2 JUMPI POP SWAP2 PUSH1 0x1 SWAP4 SWAP2 DUP7 PUSH1 0xE0 SWAP8 SWAP5 LT PUSH3 0x5C8 JUMPI JUMPDEST POP POP POP DUP2 SHL ADD PUSH1 0x8 SSTORE PUSH3 0x550 JUMP JUMPDEST ADD MLOAD PUSH1 0x0 NOT PUSH1 0xF8 DUP5 PUSH1 0x3 SHL AND SHR NOT AND SWAP1 SSTORE DUP5 DUP1 DUP1 PUSH3 0x5B9 JUMP JUMPDEST SWAP3 SWAP4 PUSH1 0x20 PUSH1 0x1 DUP2 SWAP3 DUP8 DUP7 ADD MLOAD DUP2 SSTORE ADD SWAP6 ADD SWAP4 ADD PUSH3 0x59F JUMP JUMPDEST PUSH1 0x8 PUSH1 0x0 MSTORE PUSH3 0x637 SWAP1 PUSH1 0x0 DUP1 MLOAD PUSH1 0x20 PUSH3 0x2920 DUP4 CODECOPY DUP2 MLOAD SWAP2 MSTORE PUSH1 0x1F DUP7 ADD PUSH1 0x5 SHR DUP2 ADD SWAP2 PUSH1 0x20 DUP8 LT PUSH3 0x63E JUMPI JUMPDEST PUSH1 0x1F ADD PUSH1 0x5 SHR ADD SWAP1 PUSH3 0xE17 JUMP JUMPDEST DUP4 PUSH3 0x51C JUMP JUMPDEST SWAP1 SWAP2 POP DUP2 SWAP1 PUSH3 0x629 JUMP JUMPDEST PUSH4 0x4E487B71 PUSH1 0xE0 SHL PUSH1 0x0 MSTORE PUSH1 0x41 PUSH1 0x4 MSTORE PUSH1 0x24 PUSH1 0x0 REVERT JUMPDEST DUP1 MLOAD DUP1 MLOAD SWAP1 PUSH1 0x1 PUSH1 0x1 PUSH1 0x40 SHL SUB DUP3 GT PUSH3 0x649 JUMPI PUSH3 0x67F DUP7 SLOAD PUSH3 0xDDA JUMP JUMPDEST PUSH1 0x1F DUP2 GT PUSH3 0x74D JUMPI JUMPDEST POP PUSH1 0x20 SWAP1 PUSH1 0x1F DUP4 GT PUSH1 0x1 EQ PUSH3 0x6DA JUMPI SWAP3 DUP3 PUSH1 0x1 SWAP5 SWAP4 PUSH1 0x20 SWAP4 DUP7 SWAP6 PUSH1 0x0 SWAP3 PUSH3 0x6CE JUMPI JUMPDEST POP POP PUSH1 0x0 NOT PUSH1 0x3 DUP4 SWAP1 SHL SHR NOT AND SWAP1 DUP5 SHL OR DUP8 SSTORE JUMPDEST ADD SWAP5 ADD SWAP2 ADD SWAP1 SWAP3 PUSH3 0x4E4 JUMP JUMPDEST ADD MLOAD SWAP1 POP CODESIZE DUP1 PUSH3 0x6AD JUMP JUMPDEST SWAP1 PUSH1 0x1F NOT DUP4 AND SWAP2 DUP8 PUSH1 0x0 MSTORE PUSH1 0x20 PUSH1 0x0 KECCAK256 SWAP3 PUSH1 0x0 JUMPDEST DUP2 DUP2 LT PUSH3 0x734 JUMPI POP SWAP4 PUSH1 0x20 SWAP4 PUSH1 0x1 SWAP7 SWAP4 DUP8 SWAP7 SWAP4 DUP4 DUP9 SWAP6 LT PUSH3 0x71A JUMPI JUMPDEST POP POP POP DUP2 SHL ADD DUP8 SSTORE PUSH3 0x6C1 JUMP JUMPDEST ADD MLOAD PUSH1 0x0 NOT PUSH1 0xF8 DUP5 PUSH1 0x3 SHL AND SHR NOT AND SWAP1 SSTORE CODESIZE DUP1 DUP1 PUSH3 0x70C JUMP JUMPDEST SWAP3 SWAP4 PUSH1 0x20 PUSH1 0x1 DUP2 SWAP3 DUP8 DUP7 ADD MLOAD DUP2 SSTORE ADD SWAP6 ADD SWAP4 ADD PUSH3 0x6EE JUMP JUMPDEST PUSH3 0x77C SWAP1 DUP8 PUSH1 0x0 MSTORE PUSH1 0x20 PUSH1 0x0 KECCAK256 PUSH1 0x1F DUP6 ADD PUSH1 0x5 SHR DUP2 ADD SWAP2 PUSH1 0x20 DUP7 LT PUSH3 0x63E JUMPI PUSH1 0x1F ADD PUSH1 0x5 SHR ADD SWAP1 PUSH3 0xE17 JUMP JUMPDEST CODESIZE PUSH3 0x689 JUMP JUMPDEST PUSH1 0x7 PUSH1 0x0 MSTORE PUSH1 0x0 DUP1 MLOAD PUSH1 0x20 PUSH3 0x2900 DUP4 CODECOPY DUP2 MLOAD SWAP2 MSTORE SWAP1 DUP2 ADD SWAP1 DUP4 ADD JUMPDEST DUP2 DUP2 LT PUSH3 0x7AE JUMPI POP PUSH3 0x4C6 JUMP JUMPDEST DUP1 PUSH3 0x7BD PUSH1 0x1 SWAP3 SLOAD PUSH3 0xDDA JUMP JUMPDEST DUP1 PUSH3 0x7CC JUMPI JUMPDEST POP ADD PUSH3 0x79F JUMP JUMPDEST PUSH1 0x1F DUP2 GT DUP4 EQ PUSH3 0x7E4 JUMPI POP PUSH1 0x0 DUP2 SSTORE JUMPDEST CODESIZE PUSH3 0x7C4 JUMP JUMPDEST PUSH1 0x0 SWAP1 DUP3 DUP3 MSTORE PUSH3 0x804 PUSH1 0x1F PUSH1 0x20 DUP5 KECCAK256 SWAP3 ADD PUSH1 0x5 SHR DUP3 ADD DUP6 DUP4 ADD PUSH3 0xE17 JUMP JUMPDEST DUP2 DUP4 SSTORE SSTORE PUSH3 0x7DD JUMP JUMPDEST ADD MLOAD SWAP1 POP CODESIZE DUP1 PUSH3 0x47F JUMP JUMPDEST PUSH1 0x1F NOT DUP3 AND SWAP4 PUSH1 0x5 PUSH1 0x0 MSTORE PUSH1 0x20 PUSH1 0x0 KECCAK256 SWAP2 PUSH1 0x0 JUMPDEST DUP7 DUP2 LT PUSH3 0x86C JUMPI POP DUP4 PUSH1 0x1 SWAP6 SWAP7 LT PUSH3 0x852 JUMPI JUMPDEST POP POP POP DUP2 SHL ADD PUSH1 0x5 SSTORE PUSH3 0x495 JUMP JUMPDEST ADD MLOAD PUSH1 0x0 NOT PUSH1 0xF8 DUP5 PUSH1 0x3 SHL AND SHR NOT AND SWAP1 SSTORE CODESIZE DUP1 DUP1 PUSH3 0x843 JUMP JUMPDEST SWAP2 SWAP3 PUSH1 0x20 PUSH1 0x1 DUP2 SWAP3 DUP7 DUP6 ADD MLOAD DUP2 SSTORE ADD SWAP5 ADD SWAP3 ADD PUSH3 0x82E JUMP JUMPDEST PUSH3 0x8B5 SWAP1 PUSH1 0x5 PUSH1 0x0 MSTORE PUSH1 0x20 PUSH1 0x0 KECCAK256 PUSH1 0x1F DUP5 ADD PUSH1 0x5 SHR DUP2 ADD SWAP2 PUSH1 0x20 DUP6 LT PUSH3 0x63E JUMPI PUSH1 0x1F ADD PUSH1 0x5 SHR ADD SWAP1 PUSH3 0xE17 JUMP JUMPDEST CODESIZE PUSH3 0x462 JUMP JUMPDEST ADD MLOAD SWAP1 POP CODESIZE DUP1 PUSH3 0x41C JUMP JUMPDEST PUSH1 0x4 PUSH1 0x0 SWAP1 DUP2 MSTORE SWAP4 POP PUSH32 0x8A35ACFBC15FF81A39AE7D344FD709F28E8600B4AA8C65C6B64BFE7FE36BD19B SWAP2 SWAP1 JUMPDEST PUSH1 0x1F NOT DUP5 AND DUP6 LT PUSH3 0x93B JUMPI PUSH1 0x1 SWAP5 POP DUP4 PUSH1 0x1F NOT DUP2 AND LT PUSH3 0x921 JUMPI JUMPDEST POP POP POP DUP2 SHL ADD PUSH1 0x4 SSTORE PUSH3 0x432 JUMP JUMPDEST ADD MLOAD PUSH1 0x0 NOT PUSH1 0xF8 DUP5 PUSH1 0x3 SHL AND SHR NOT AND SWAP1 SSTORE CODESIZE DUP1 DUP1 PUSH3 0x912 JUMP JUMPDEST DUP2 DUP2 ADD MLOAD DUP4 SSTORE PUSH1 0x20 SWAP5 DUP6 ADD SWAP5 PUSH1 0x1 SWAP1 SWAP4 ADD SWAP3 SWAP1 SWAP2 ADD SWAP1 PUSH3 0x8F5 JUMP JUMPDEST PUSH1 0x4 PUSH1 0x0 MSTORE PUSH3 0x9A3 SWAP1 PUSH32 0x8A35ACFBC15FF81A39AE7D344FD709F28E8600B4AA8C65C6B64BFE7FE36BD19B PUSH1 0x1F DUP6 ADD PUSH1 0x5 SHR DUP2 ADD SWAP2 PUSH1 0x20 DUP7 LT PUSH3 0x63E JUMPI PUSH1 0x1F ADD PUSH1 0x5 SHR ADD SWAP1 PUSH3 0xE17 JUMP JUMPDEST CODESIZE PUSH3 0x403 JUMP JUMPDEST ADD MLOAD SWAP1 POP CODESIZE DUP1 PUSH3 0x3BD JUMP JUMPDEST PUSH1 0x3 PUSH1 0x0 SWAP1 DUP2 MSTORE SWAP4 POP PUSH32 0xC2575A0E9E593C00F959F8C92F12DB2869C3395A3B0502D05E2516446F71F85B SWAP2 SWAP1 JUMPDEST PUSH1 0x1F NOT DUP5 AND DUP6 LT PUSH3 0xA29 JUMPI PUSH1 0x1 SWAP5 POP DUP4 PUSH1 0x1F NOT DUP2 AND LT PUSH3 0xA0F JUMPI JUMPDEST POP POP POP DUP2 SHL ADD PUSH1 0x3 SSTORE PUSH3 0x3D3 JUMP JUMPDEST ADD MLOAD PUSH1 0x0 NOT PUSH1 0xF8 DUP5 PUSH1 0x3 SHL AND SHR NOT AND SWAP1 SSTORE CODESIZE DUP1 DUP1 PUSH3 0xA00 JUMP JUMPDEST DUP2 DUP2 ADD MLOAD DUP4 SSTORE PUSH1 0x20 SWAP5 DUP6 ADD SWAP5 PUSH1 0x1 SWAP1 SWAP4 ADD SWAP3 SWAP1 SWAP2 ADD SWAP1 PUSH3 0x9E3 JUMP JUMPDEST PUSH1 0x3 PUSH1 0x0 MSTORE PUSH3 0xA91 SWAP1 PUSH32 0xC2575A0E9E593C00F959F8C92F12DB2869C3395A3B0502D05E2516446F71F85B PUSH1 0x1F DUP6 ADD PUSH1 0x5 SHR DUP2 ADD SWAP2 PUSH1 0x20 DUP7 LT PUSH3 0x63E JUMPI PUSH1 0x1F ADD PUSH1 0x5 SHR ADD SWAP1 PUSH3 0xE17 JUMP JUMPDEST CODESIZE PUSH3 0x3A4 JUMP JUMPDEST ADD MLOAD SWAP1 POP CODESIZE DUP1 PUSH3 0x35E JUMP JUMPDEST PUSH1 0x2 PUSH1 0x0 SWAP1 DUP2 MSTORE SWAP4 POP PUSH1 0x0 DUP1 MLOAD PUSH1 0x20 PUSH3 0x28E0 DUP4 CODECOPY DUP2 MLOAD SWAP2 MSTORE SWAP2 SWAP1 JUMPDEST PUSH1 0x1F NOT DUP5 AND DUP6 LT PUSH3 0xB06 JUMPI PUSH1 0x1 SWAP5 POP DUP4 PUSH1 0x1F NOT DUP2 AND LT PUSH3 0xAEC JUMPI JUMPDEST POP POP POP DUP2 SHL ADD PUSH1 0x2 SSTORE PUSH3 0x374 JUMP JUMPDEST ADD MLOAD PUSH1 0x0 NOT PUSH1 0xF8 DUP5 PUSH1 0x3 SHL AND SHR NOT AND SWAP1 SSTORE CODESIZE DUP1 DUP1 PUSH3 0xADD JUMP JUMPDEST DUP2 DUP2 ADD MLOAD DUP4 SSTORE PUSH1 0x20 SWAP5 DUP6 ADD SWAP5 PUSH1 0x1 SWAP1 SWAP4 ADD SWAP3 SWAP1 SWAP2 ADD SWAP1 PUSH3 0xAC0 JUMP JUMPDEST PUSH1 0x2 PUSH1 0x0 MSTORE PUSH3 0xB5D SWAP1 PUSH1 0x0 DUP1 MLOAD PUSH1 0x20 PUSH3 0x28E0 DUP4 CODECOPY DUP2 MLOAD SWAP2 MSTORE PUSH1 0x1F DUP6 ADD PUSH1 0x5 SHR DUP2 ADD SWAP2 PUSH1 0x20 DUP7 LT PUSH3 0x63E JUMPI PUSH1 0x1F ADD PUSH1 0x5 SHR ADD SWAP1 PUSH3 0xE17 JUMP JUMPDEST CODESIZE PUSH3 0x345 JUMP JUMPDEST ADD MLOAD SWAP1 POP CODESIZE DUP1 PUSH3 0x2A7 JUMP JUMPDEST PUSH1 0x10 PUSH1 0x0 SWAP1 DUP2 MSTORE SWAP4 POP PUSH1 0x0 DUP1 MLOAD PUSH1 0x20 PUSH3 0x2940 DUP4 CODECOPY DUP2 MLOAD SWAP2 MSTORE SWAP2 SWAP1 JUMPDEST PUSH1 0x1F NOT DUP5 AND DUP6 LT PUSH3 0xBD2 JUMPI PUSH1 0x1 SWAP5 POP DUP4 PUSH1 0x1F NOT DUP2 AND LT PUSH3 0xBB8 JUMPI JUMPDEST POP POP POP DUP2 SHL ADD PUSH1 0x10 SSTORE PUSH3 0x2BD JUMP JUMPDEST ADD MLOAD PUSH1 0x0 NOT PUSH1 0xF8 DUP5 PUSH1 0x3 SHL AND SHR NOT AND SWAP1 SSTORE CODESIZE DUP1 DUP1 PUSH3 0xBA9 JUMP JUMPDEST DUP2 DUP2 ADD MLOAD DUP4 SSTORE PUSH1 0x20 SWAP5 DUP6 ADD SWAP5 PUSH1 0x1 SWAP1 SWAP4 ADD SWAP3 SWAP1 SWAP2 ADD SWAP1 PUSH3 0xB8C JUMP JUMPDEST PUSH1 0x10 PUSH1 0x0 MSTORE PUSH3 0xC29 SWAP1 PUSH1 0x0 DUP1 MLOAD PUSH1 0x20 PUSH3 0x2940 DUP4 CODECOPY DUP2 MLOAD SWAP2 MSTORE PUSH1 0x1F DUP6 ADD PUSH1 0x5 SHR DUP2 ADD SWAP2 PUSH1 0x20 DUP7 LT PUSH3 0x63E JUMPI PUSH1 0x1F ADD PUSH1 0x5 SHR ADD SWAP1 PUSH3 0xE17 JUMP JUMPDEST CODESIZE PUSH3 0x28E JUMP JUMPDEST ADD MLOAD SWAP1 POP CODESIZE DUP1 PUSH3 0x24D JUMP JUMPDEST PUSH1 0xF PUSH1 0x0 SWAP1 DUP2 MSTORE SWAP4 POP PUSH1 0x0 DUP1 MLOAD PUSH1 0x20 PUSH3 0x2960 DUP4 CODECOPY DUP2 MLOAD SWAP2 MSTORE SWAP2 SWAP1 JUMPDEST PUSH1 0x1F NOT DUP5 AND DUP6 LT PUSH3 0xC9E JUMPI PUSH1 0x1 SWAP5 POP DUP4 PUSH1 0x1F NOT DUP2 AND LT PUSH3 0xC84 JUMPI JUMPDEST POP POP POP DUP2 SHL ADD PUSH1 0xF SSTORE PUSH3 0x263 JUMP JUMPDEST ADD MLOAD PUSH1 0x0 NOT PUSH1 0xF8 DUP5 PUSH1 0x3 SHL AND SHR NOT AND SWAP1 SSTORE CODESIZE DUP1 DUP1 PUSH3 0xC75 JUMP JUMPDEST DUP2 DUP2 ADD MLOAD DUP4 SSTORE PUSH1 0x20 SWAP5 DUP6 ADD SWAP5 PUSH1 0x1 SWAP1 SWAP4 ADD SWAP3 SWAP1 SWAP2 ADD SWAP1 PUSH3 0xC58 JUMP JUMPDEST PUSH1 0xF PUSH1 0x0 MSTORE PUSH3 0xCF5 SWAP1 PUSH1 0x0 DUP1 MLOAD PUSH1 0x20 PUSH3 0x2960 DUP4 CODECOPY DUP2 MLOAD SWAP2 MSTORE PUSH1 0x1F DUP6 ADD PUSH1 0x5 SHR DUP2 ADD SWAP2 PUSH1 0x20 DUP7 LT PUSH3 0x63E JUMPI PUSH1 0x1F ADD PUSH1 0x5 SHR ADD SWAP1 PUSH3 0xE17 JUMP JUMPDEST CODESIZE PUSH3 0x234 JUMP JUMPDEST PUSH1 0x0 DUP1 REVERT JUMPDEST DUP3 MLOAD SWAP4 PUSH1 0x1 PUSH1 0x1 PUSH1 0x40 SHL SUB DUP6 GT PUSH3 0xCFC JUMPI DUP3 DUP16 SWAP6 PUSH1 0x20 DUP1 SWAP5 PUSH3 0xD30 DUP3 SWAP4 DUP4 DUP13 DUP13 ADD SWAP2 DUP8 DUP14 ADD ADD ADD PUSH3 0xD68 JUMP JUMPDEST DUP2 MSTORE ADD SWAP6 ADD SWAP5 SWAP3 SWAP2 SWAP6 SWAP1 DUP7 SWAP2 PUSH3 0x19F JUMP JUMPDEST PUSH1 0x40 MLOAD SWAP2 SWAP1 PUSH1 0x1F ADD PUSH1 0x1F NOT AND DUP3 ADD PUSH1 0x1 PUSH1 0x1 PUSH1 0x40 SHL SUB DUP2 GT DUP4 DUP3 LT OR PUSH3 0x649 JUMPI PUSH1 0x40 MSTORE JUMP JUMPDEST SWAP2 SWAP1 DUP1 PUSH1 0x1F DUP5 ADD SLT ISZERO PUSH3 0xCFC JUMPI DUP3 MLOAD PUSH1 0x1 PUSH1 0x1 PUSH1 0x40 SHL SUB DUP2 GT PUSH3 0x649 JUMPI PUSH1 0x20 SWAP1 PUSH3 0xD9E PUSH1 0x1F DUP3 ADD PUSH1 0x1F NOT AND DUP4 ADD PUSH3 0xD42 JUMP JUMPDEST SWAP3 DUP2 DUP5 MSTORE DUP3 DUP3 DUP8 ADD ADD GT PUSH3 0xCFC JUMPI PUSH1 0x0 JUMPDEST DUP2 DUP2 LT PUSH3 0xDC6 JUMPI POP DUP3 PUSH1 0x0 SWAP4 SWAP5 SWAP6 POP ADD ADD MSTORE SWAP1 JUMP JUMPDEST DUP6 DUP2 ADD DUP4 ADD MLOAD DUP5 DUP3 ADD DUP5 ADD MSTORE DUP3 ADD PUSH3 0xDB0 JUMP JUMPDEST SWAP1 PUSH1 0x1 DUP3 DUP2 SHR SWAP3 AND DUP1 ISZERO PUSH3 0xE0C JUMPI JUMPDEST PUSH1 0x20 DUP4 LT EQ PUSH3 0xDF6 JUMPI JUMP JUMPDEST PUSH4 0x4E487B71 PUSH1 0xE0 SHL PUSH1 0x0 MSTORE PUSH1 0x22 PUSH1 0x4 MSTORE PUSH1 0x24 PUSH1 0x0 REVERT JUMPDEST SWAP2 PUSH1 0x7F AND SWAP2 PUSH3 0xDEA JUMP JUMPDEST DUP2 DUP2 LT PUSH3 0xE23 JUMPI POP POP JUMP JUMPDEST PUSH1 0x0 DUP2 SSTORE PUSH1 0x1 ADD PUSH3 0xE17 JUMP INVALID PUSH1 0x80 PUSH1 0x40 MSTORE PUSH1 0x4 CALLDATASIZE LT ISZERO PUSH2 0x12 JUMPI PUSH1 0x0 DUP1 REVERT JUMPDEST PUSH1 0x0 CALLDATALOAD PUSH1 0xE0 SHR DUP1 PUSH4 0x8551A53 EQ PUSH2 0x115B JUMPI DUP1 PUSH4 0xFB5A6B4 EQ PUSH2 0x113D JUMPI DUP1 PUSH4 0x3A6DCEA2 EQ PUSH2 0xD07 JUMPI DUP1 PUSH4 0x4BD25C6F EQ PUSH2 0x627 JUMPI DUP1 PUSH4 0x562E4D38 EQ PUSH2 0xCE4 JUMPI DUP1 PUSH4 0x56EEC68D EQ PUSH2 0xBE0 JUMPI DUP1 PUSH4 0x5C975ABB EQ PUSH2 0xBBD JUMPI DUP1 PUSH4 0x5EC2C7BF EQ PUSH2 0xBB8 JUMPI DUP1 PUSH4 0x725A3B4B EQ PUSH2 0xB29 JUMPI DUP1 PUSH4 0x7284E416 EQ PUSH2 0xB0D JUMPI DUP1 PUSH4 0x78E97925 EQ PUSH2 0xAEF JUMPI DUP1 PUSH4 0x7B499FAA EQ PUSH2 0xAC9 JUMPI DUP1 PUSH4 0x842A77D3 EQ PUSH2 0xA9B JUMPI DUP1 PUSH4 0x88E7E366 EQ PUSH2 0x957 JUMPI DUP1 PUSH4 0xA5D737AC EQ PUSH2 0x81F JUMPI DUP1 PUSH4 0xA5E845B4 EQ PUSH2 0x7FC JUMPI DUP1 PUSH4 0xB868723E EQ PUSH2 0x7DE JUMPI DUP1 PUSH4 0xD8461182 EQ PUSH2 0x6CD JUMPI DUP1 PUSH4 0xDFBF53AE EQ PUSH2 0x6A0 JUMPI DUP1 PUSH4 0xE11E1B0C EQ PUSH2 0x682 JUMPI DUP1 PUSH4 0xE2FDCC17 EQ PUSH2 0x62C JUMPI DUP1 PUSH4 0xEB91D37E EQ PUSH2 0x627 JUMPI DUP1 PUSH4 0xECFC7ECC EQ PUSH2 0x35F JUMPI DUP1 PUSH4 0xF1A9AF89 EQ PUSH2 0x341 JUMPI DUP1 PUSH4 0xF2A4A82E EQ PUSH2 0x28F JUMPI DUP1 PUSH4 0xF3CCAAC0 EQ PUSH2 0x25B JUMPI DUP1 PUSH4 0xFA391C64 EQ PUSH2 0x238 JUMPI PUSH4 0xFE67A54B EQ PUSH2 0x150 JUMPI PUSH1 0x0 DUP1 REVERT JUMPDEST CALLVALUE PUSH2 0x233 JUMPI PUSH1 0x0 CALLDATASIZE PUSH1 0x3 NOT ADD SLT PUSH2 0x233 JUMPI PUSH1 0x15 SLOAD PUSH1 0xFF DUP2 AND PUSH2 0x1F6 JUMPI PUSH2 0x17B PUSH1 0x14 SLOAD PUSH1 0x13 SLOAD SWAP1 PUSH2 0x17E6 JUMP JUMPDEST TIMESTAMP LT PUSH2 0x1BA JUMPI PUSH1 0x1 SWAP1 PUSH1 0xFF NOT AND OR PUSH1 0x15 SSTORE PUSH1 0x0 PUSH32 0xDAEC4582D5D9595688C8C98545FDD1C696D41C6AEAEB636737E84ED2F5C00EDA PUSH1 0x20 PUSH1 0x40 MLOAD DUP4 DUP2 MSTORE LOG2 STOP JUMPDEST PUSH1 0x40 MLOAD PUSH3 0x461BCD PUSH1 0xE5 SHL DUP2 MSTORE PUSH1 0x20 PUSH1 0x4 DUP3 ADD MSTORE PUSH1 0x14 PUSH1 0x24 DUP3 ADD MSTORE PUSH20 0x41756374696F6E207374696C6C20616374697665 PUSH1 0x60 SHL PUSH1 0x44 DUP3 ADD MSTORE PUSH1 0x64 SWAP1 REVERT JUMPDEST PUSH1 0x40 MLOAD PUSH3 0x461BCD PUSH1 0xE5 SHL DUP2 MSTORE PUSH1 0x20 PUSH1 0x4 DUP3 ADD MSTORE PUSH1 0x15 PUSH1 0x24 DUP3 ADD MSTORE PUSH21 0x105D58DD1A5BDB88185B1C9958591E48195B991959 PUSH1 0x5A SHL PUSH1 0x44 DUP3 ADD MSTORE PUSH1 0x64 SWAP1 REVERT JUMPDEST PUSH1 0x0 DUP1 REVERT JUMPDEST CALLVALUE PUSH2 0x233 JUMPI PUSH1 0x0 CALLDATASIZE PUSH1 0x3 NOT ADD SLT PUSH2 0x233 JUMPI PUSH1 0x20 PUSH1 0xFF PUSH1 0x15 SLOAD AND PUSH1 0x40 MLOAD SWAP1 ISZERO ISZERO DUP2 MSTORE RETURN JUMPDEST CALLVALUE PUSH2 0x233 JUMPI PUSH1 0x0 CALLDATASIZE PUSH1 0x3 NOT ADD SLT PUSH2 0x233 JUMPI PUSH2 0x28B PUSH2 0x277 PUSH2 0x13AE JUMP JUMPDEST PUSH1 0x40 MLOAD SWAP2 DUP3 SWAP2 PUSH1 0x20 DUP4 MSTORE PUSH1 0x20 DUP4 ADD SWAP1 PUSH2 0x1188 JUMP JUMPDEST SUB SWAP1 RETURN JUMPDEST CALLVALUE PUSH2 0x233 JUMPI PUSH1 0x0 CALLDATASIZE PUSH1 0x3 NOT ADD SLT PUSH2 0x233 JUMPI PUSH2 0x2F8 PUSH2 0x2AB PUSH2 0x1462 JUMP JUMPDEST PUSH2 0x2B3 PUSH2 0x1516 JUMP JUMPDEST PUSH2 0x335 PUSH2 0x2BE PUSH2 0x15CA JUMP JUMPDEST PUSH2 0x2C6 PUSH2 0x167E JUMP JUMPDEST SWAP1 PUSH2 0x322 PUSH1 0x6 SLOAD SWAP3 PUSH2 0x314 PUSH2 0x2D9 PUSH2 0x1732 JUMP JUMPDEST SWAP4 PUSH2 0x306 PUSH1 0xFF PUSH1 0x9 SLOAD AND SWAP9 PUSH1 0x40 MLOAD SWAP12 DUP13 SWAP12 PUSH1 0xE0 DUP14 MSTORE PUSH1 0xE0 DUP14 ADD SWAP1 PUSH2 0x1188 JUMP JUMPDEST SWAP1 DUP12 DUP3 SUB PUSH1 0x20 DUP14 ADD MSTORE PUSH2 0x1188 JUMP JUMPDEST SWAP1 DUP10 DUP3 SUB PUSH1 0x40 DUP12 ADD MSTORE PUSH2 0x1188 JUMP JUMPDEST SWAP1 DUP8 DUP3 SUB PUSH1 0x60 DUP10 ADD MSTORE PUSH2 0x1188 JUMP JUMPDEST SWAP2 PUSH1 0x80 DUP7 ADD MSTORE DUP5 DUP3 SUB PUSH1 0xA0 DUP7 ADD MSTORE PUSH2 0x1188 JUMP JUMPDEST SWAP1 ISZERO ISZERO PUSH1 0xC0 DUP4 ADD MSTORE SUB SWAP1 RETURN JUMPDEST CALLVALUE PUSH2 0x233 JUMPI PUSH1 0x0 CALLDATASIZE PUSH1 0x3 NOT ADD SLT PUSH2 0x233 JUMPI PUSH1 0x20 PUSH1 0x11 SLOAD PUSH1 0x40 MLOAD SWAP1 DUP2 MSTORE RETURN JUMPDEST PUSH1 0x0 CALLDATASIZE PUSH1 0x3 NOT ADD SLT PUSH2 0x233 JUMPI PUSH1 0x2 PUSH1 0xD SLOAD EQ PUSH2 0x5E2 JUMPI PUSH1 0x2 PUSH1 0xD SSTORE PUSH1 0xE SLOAD PUSH1 0xFF DUP2 AND PUSH2 0x5AA JUMPI PUSH1 0x15 SLOAD SWAP1 PUSH1 0xFF DUP3 AND PUSH2 0x565 JUMPI PUSH2 0x399 PUSH2 0x1816 JUMP JUMPDEST DUP1 CALLVALUE LT PUSH2 0x50E JUMPI PUSH2 0x100 PUSH1 0x1 PUSH1 0xA8 SHL SUB SWAP2 PUSH1 0x1 PUSH11 0xFFFFFFFFFFFFFFFFFFFFFF PUSH1 0xA8 SHL SWAP5 DUP6 DUP6 CALLER PUSH1 0x8 SHL AND SWAP2 AND OR OR PUSH1 0x15 SSTORE PUSH1 0x40 MLOAD CALLVALUE DUP2 MSTORE PUSH32 0xDAEC4582D5D9595688C8C98545FDD1C696D41C6AEAEB636737E84ED2F5C00EDA PUSH1 0x20 CALLER SWAP3 LOG2 PUSH1 0x9 SLOAD PUSH1 0xFF AND ISZERO PUSH2 0x494 JUMPI POP POP PUSH1 0x20 PUSH1 0x1 PUSH32 0x137FB716243BB1721111512A26C6A2D922E0BF3022DF1EA74C7EF10AB3BC0DC7 SWAP3 PUSH2 0x431 PUSH2 0x1A57 JUMP JUMPDEST SWAP5 PUSH1 0x0 PUSH1 0x80 PUSH1 0x40 MLOAD PUSH2 0x442 DUP2 PUSH2 0x1200 JUMP JUMPDEST DUP6 DUP2 MSTORE ADDRESS DUP8 DUP3 ADD MSTORE DUP9 PUSH1 0x40 DUP3 ADD MSTORE DUP3 PUSH1 0x60 DUP3 ADD MSTORE ADD MSTORE PUSH1 0xA SLOAD SWAP2 ADDRESS PUSH1 0x8 SHL AND SWAP2 AND OR OR DUP1 PUSH1 0xA SSTORE DUP4 PUSH1 0xB SSTORE PUSH2 0xFFFF NOT PUSH1 0xC SLOAD AND PUSH1 0xC SSTORE PUSH1 0x40 MLOAD SWAP4 DUP5 MSTORE PUSH1 0x1 DUP1 PUSH1 0xA0 SHL SUB SWAP1 PUSH1 0x8 SHR AND SWAP3 LOG2 JUMPDEST PUSH1 0x1 PUSH1 0xD SSTORE STOP JUMPDEST DUP2 SWAP4 POP PUSH1 0x0 DUP1 SWAP4 POP DUP1 SWAP3 DUP2 SWAP3 DUP3 SWAP1 DUP3 ISZERO PUSH2 0x504 JUMPI JUMPDEST PUSH1 0x8 SHR PUSH1 0x1 PUSH1 0x1 PUSH1 0xA0 SHL SUB AND SWAP1 CALL ISZERO PUSH2 0x4EF JUMPI DUP1 CALLVALUE GT PUSH2 0x4CA JUMPI JUMPDEST POP PUSH2 0x48D JUMP JUMPDEST PUSH1 0x0 DUP1 DUP1 PUSH2 0x4D9 DUP2 SWAP5 CALLVALUE PUSH2 0x1809 JUMP JUMPDEST DUP2 DUP2 ISZERO PUSH2 0x4FB JUMPI JUMPDEST CALLER SWAP1 CALL ISZERO PUSH2 0x4EF JUMPI DUP1 PUSH2 0x4C4 JUMP JUMPDEST PUSH1 0x40 MLOAD RETURNDATASIZE PUSH1 0x0 DUP3 RETURNDATACOPY RETURNDATASIZE SWAP1 REVERT JUMPDEST POP PUSH2 0x8FC PUSH2 0x4E1 JUMP JUMPDEST PUSH2 0x8FC SWAP2 POP PUSH2 0x4A9 JUMP JUMPDEST PUSH1 0x40 MLOAD PUSH3 0x461BCD PUSH1 0xE5 SHL DUP2 MSTORE PUSH1 0x20 PUSH1 0x4 DUP3 ADD MSTORE PUSH1 0x29 PUSH1 0x24 DUP3 ADD MSTORE PUSH32 0x426964206D757374206D656574206F7220657863656564207468652063757272 PUSH1 0x44 DUP3 ADD MSTORE PUSH9 0x656E74207072696365 PUSH1 0xB8 SHL PUSH1 0x64 DUP3 ADD MSTORE PUSH1 0x84 SWAP1 REVERT JUMPDEST PUSH1 0x40 MLOAD PUSH3 0x461BCD PUSH1 0xE5 SHL DUP2 MSTORE PUSH1 0x20 PUSH1 0x4 DUP3 ADD MSTORE PUSH1 0x19 PUSH1 0x24 DUP3 ADD MSTORE PUSH32 0x41756374696F6E2068617320616C726561647920656E64656400000000000000 PUSH1 0x44 DUP3 ADD MSTORE PUSH1 0x64 SWAP1 REVERT JUMPDEST PUSH1 0x40 MLOAD PUSH3 0x461BCD PUSH1 0xE5 SHL DUP2 MSTORE PUSH1 0x20 PUSH1 0x4 DUP3 ADD MSTORE PUSH1 0x10 PUSH1 0x24 DUP3 ADD MSTORE PUSH16 0x14185D5CD8589B194E881C185D5CD959 PUSH1 0x82 SHL PUSH1 0x44 DUP3 ADD MSTORE PUSH1 0x64 SWAP1 REVERT JUMPDEST PUSH1 0x40 MLOAD PUSH3 0x461BCD PUSH1 0xE5 SHL DUP2 MSTORE PUSH1 0x20 PUSH1 0x4 DUP3 ADD MSTORE PUSH1 0x1F PUSH1 0x24 DUP3 ADD MSTORE PUSH32 0x5265656E7472616E637947756172643A207265656E7472616E742063616C6C00 PUSH1 0x44 DUP3 ADD MSTORE PUSH1 0x64 SWAP1 REVERT JUMPDEST PUSH2 0x11C8 JUMP JUMPDEST CALLVALUE PUSH2 0x233 JUMPI PUSH1 0x0 CALLDATASIZE PUSH1 0x3 NOT ADD SLT PUSH2 0x233 JUMPI PUSH1 0xA0 PUSH1 0xA SLOAD PUSH1 0xFF PUSH1 0xB SLOAD PUSH1 0xC SLOAD SWAP1 PUSH1 0x40 MLOAD SWAP4 DUP4 DUP2 AND ISZERO ISZERO DUP6 MSTORE PUSH1 0x1 DUP1 DUP8 SHL SUB SWAP1 PUSH1 0x8 SHR AND PUSH1 0x20 DUP6 ADD MSTORE PUSH1 0x40 DUP5 ADD MSTORE DUP2 DUP2 AND ISZERO ISZERO PUSH1 0x60 DUP5 ADD MSTORE PUSH1 0x8 SHR AND ISZERO ISZERO PUSH1 0x80 DUP3 ADD MSTORE RETURN JUMPDEST CALLVALUE PUSH2 0x233 JUMPI PUSH1 0x0 CALLDATASIZE PUSH1 0x3 NOT ADD SLT PUSH2 0x233 JUMPI PUSH1 0x20 PUSH1 0x0 SLOAD PUSH1 0x40 MLOAD SWAP1 DUP2 MSTORE RETURN JUMPDEST CALLVALUE PUSH2 0x233 JUMPI PUSH1 0x0 CALLDATASIZE PUSH1 0x3 NOT ADD SLT PUSH2 0x233 JUMPI PUSH1 0x15 SLOAD PUSH1 0x40 MLOAD PUSH1 0x8 SWAP2 SWAP1 SWAP2 SHR PUSH1 0x1 PUSH1 0x1 PUSH1 0xA0 SHL SUB AND DUP2 MSTORE PUSH1 0x20 SWAP1 RETURN JUMPDEST CALLVALUE PUSH2 0x233 JUMPI PUSH1 0x20 CALLDATASIZE PUSH1 0x3 NOT ADD SLT PUSH2 0x233 JUMPI PUSH1 0x4 CALLDATALOAD PUSH1 0x1 PUSH1 0x1 PUSH1 0xA0 SHL SUB DUP2 DUP2 AND SWAP2 DUP3 SWAP1 SUB PUSH2 0x233 JUMPI PUSH2 0x706 SWAP1 PUSH1 0xE SLOAD PUSH1 0x8 SHR AND CALLER EQ PUSH2 0x188B JUMP JUMPDEST PUSH2 0x714 PUSH1 0xFF PUSH1 0x1 SLOAD AND PUSH2 0x18D7 JUMP JUMPDEST PUSH2 0x723 PUSH1 0xFF PUSH1 0xA SLOAD AND ISZERO PUSH2 0x1963 JUMP JUMPDEST PUSH1 0xC SLOAD PUSH2 0x733 PUSH1 0xFF DUP3 AND ISZERO PUSH2 0x19A5 JUMP JUMPDEST PUSH1 0xFF DUP2 PUSH1 0x8 SHR AND PUSH2 0x799 JUMPI PUSH1 0x20 PUSH32 0xF396531FAD1D4DC2CD92386CDEA800C92A507F8FE1BDB80313EB32A57481B1DC SWAP2 PUSH2 0x100 PUSH1 0x0 SLOAD SWAP2 PUSH1 0x0 DUP1 SSTORE PUSH2 0xFF00 NOT AND OR PUSH1 0xC SSTORE PUSH2 0x790 PUSH1 0x0 DUP1 DUP1 DUP1 DUP6 DUP10 GAS CALL PUSH2 0x78A PUSH2 0x19E9 JUMP JUMPDEST POP PUSH2 0x1A19 JUMP JUMPDEST PUSH1 0x40 MLOAD SWAP1 DUP2 MSTORE LOG2 STOP JUMPDEST PUSH1 0x40 MLOAD PUSH3 0x461BCD PUSH1 0xE5 SHL DUP2 MSTORE PUSH1 0x20 PUSH1 0x4 DUP3 ADD MSTORE PUSH1 0x18 PUSH1 0x24 DUP3 ADD MSTORE PUSH32 0x5061796D656E7420616C72656164792072656C65617365640000000000000000 PUSH1 0x44 DUP3 ADD MSTORE PUSH1 0x64 SWAP1 REVERT JUMPDEST CALLVALUE PUSH2 0x233 JUMPI PUSH1 0x0 CALLDATASIZE PUSH1 0x3 NOT ADD SLT PUSH2 0x233 JUMPI PUSH1 0x20 PUSH1 0x12 SLOAD PUSH1 0x40 MLOAD SWAP1 DUP2 MSTORE RETURN JUMPDEST CALLVALUE PUSH2 0x233 JUMPI PUSH1 0x0 CALLDATASIZE PUSH1 0x3 NOT ADD SLT PUSH2 0x233 JUMPI PUSH1 0x20 PUSH2 0x817 PUSH2 0x1A57 JUMP JUMPDEST PUSH1 0x40 MLOAD SWAP1 DUP2 MSTORE RETURN JUMPDEST PUSH1 0x0 CALLDATASIZE PUSH1 0x3 NOT ADD SLT PUSH2 0x233 JUMPI PUSH2 0x843 PUSH1 0x1 DUP1 PUSH1 0xA0 SHL SUB PUSH1 0xE SLOAD PUSH1 0x8 SHR AND CALLER EQ PUSH2 0x188B JUMP JUMPDEST PUSH1 0x1 SLOAD PUSH1 0xFF DUP2 AND PUSH2 0x91A JUMPI CALLVALUE ISZERO PUSH2 0x8E5 JUMPI PUSH2 0x85C PUSH2 0x1A57 JUMP JUMPDEST SWAP1 DUP2 CALLVALUE LT PUSH2 0x8A0 JUMPI DUP2 PUSH1 0x1 PUSH1 0x20 SWAP3 PUSH32 0x3B4F5A74452CDDB80AE5A0D279EB7DB6AFD5E556E72CA2883016B1DA7C9D2116 SWAP5 PUSH1 0x0 SSTORE PUSH1 0xFF NOT AND OR PUSH1 0x1 SSTORE PUSH1 0x40 MLOAD SWAP1 DUP2 MSTORE LOG1 STOP JUMPDEST PUSH1 0x40 MLOAD PUSH3 0x461BCD PUSH1 0xE5 SHL DUP2 MSTORE PUSH1 0x20 PUSH1 0x4 DUP3 ADD MSTORE PUSH1 0x1A PUSH1 0x24 DUP3 ADD MSTORE PUSH32 0x496E73756666696369656E7420657363726F7720616D6F756E74000000000000 PUSH1 0x44 DUP3 ADD MSTORE PUSH1 0x64 SWAP1 REVERT JUMPDEST PUSH1 0x40 MLOAD PUSH3 0x461BCD PUSH1 0xE5 SHL DUP2 MSTORE PUSH1 0x20 PUSH1 0x4 DUP3 ADD MSTORE PUSH1 0xD PUSH1 0x24 DUP3 ADD MSTORE PUSH13 0x9AEAE6E840E6CADCC8408AA89 PUSH1 0x9B SHL PUSH1 0x44 DUP3 ADD MSTORE PUSH1 0x64 SWAP1 REVERT JUMPDEST PUSH1 0x40 MLOAD PUSH3 0x461BCD PUSH1 0xE5 SHL DUP2 MSTORE PUSH1 0x20 PUSH1 0x4 DUP3 ADD MSTORE PUSH1 0x15 PUSH1 0x24 DUP3 ADD MSTORE PUSH21 0x115CD8DC9BDDC8185B1C9958591E48199D5B991959 PUSH1 0x5A SHL PUSH1 0x44 DUP3 ADD MSTORE PUSH1 0x64 SWAP1 REVERT JUMPDEST CALLVALUE PUSH2 0x233 JUMPI PUSH1 0x20 CALLDATASIZE PUSH1 0x3 NOT ADD SLT PUSH2 0x233 JUMPI PUSH1 0x4 CALLDATALOAD DUP1 ISZERO ISZERO SWAP1 DUP2 DUP2 SUB PUSH2 0x233 JUMPI PUSH1 0x1 DUP1 PUSH1 0xA0 SHL SUB SWAP2 PUSH2 0x990 DUP4 PUSH1 0x15 SLOAD PUSH1 0x8 SHR AND CALLER EQ PUSH2 0x1917 JUMP JUMPDEST PUSH2 0x99E PUSH1 0xFF PUSH1 0x1 SLOAD AND PUSH2 0x18D7 JUMP JUMPDEST PUSH2 0x9AD PUSH1 0xFF PUSH1 0xA SLOAD AND ISZERO PUSH2 0x1963 JUMP JUMPDEST PUSH2 0x101 PUSH1 0xC SLOAD PUSH2 0x9C0 PUSH1 0xFF DUP3 AND ISZERO PUSH2 0x19A5 JUMP JUMPDEST PUSH2 0xFFFF NOT AND OR PUSH1 0xC SSTORE PUSH1 0x40 MLOAD SWAP1 DUP2 MSTORE PUSH32 0x27A5CCC16BE6802BCEC7C2477A2B588A54C808352EF7DAB930058F65864B3CE9 PUSH1 0x20 CALLER SWAP3 LOG2 ISZERO PUSH2 0xA51 JUMPI PUSH32 0xE327B247066BDF32CF2493778E3FCE4339B69C1E379A3B0DC780779BF67FE155 PUSH1 0x20 PUSH1 0x0 SLOAD SWAP3 PUSH1 0x0 DUP1 SSTORE PUSH2 0xA40 PUSH1 0x0 DUP1 DUP1 DUP1 DUP9 DUP7 PUSH1 0xE SLOAD PUSH1 0x8 SHR AND GAS CALL PUSH2 0x78A PUSH2 0x19E9 JUMP JUMPDEST PUSH1 0xE SLOAD PUSH1 0x8 SHR AND SWAP3 PUSH1 0x40 MLOAD SWAP1 DUP2 MSTORE LOG2 STOP JUMPDEST POP PUSH1 0x0 SLOAD PUSH1 0x0 DUP1 SSTORE PUSH2 0xA6D PUSH1 0x0 DUP1 DUP1 DUP1 DUP6 CALLER GAS CALL PUSH2 0x78A PUSH2 0x19E9 JUMP JUMPDEST PUSH1 0x40 MLOAD SWAP1 DUP2 MSTORE PUSH32 0x894CE7CC354D2A39DE53F8DAB6B0AD8C5AC65641E68AA2154FDB88BCC387E3DD PUSH1 0x20 CALLER SWAP3 LOG2 STOP JUMPDEST CALLVALUE PUSH2 0x233 JUMPI PUSH1 0x20 CALLDATASIZE PUSH1 0x3 NOT ADD SLT PUSH2 0x233 JUMPI PUSH1 0x4 CALLDATALOAD PUSH1 0x1 PUSH1 0x1 PUSH1 0xA0 SHL SUB DUP2 AND SUB PUSH2 0x233 JUMPI PUSH1 0x20 PUSH1 0x40 MLOAD PUSH1 0x0 DUP2 MSTORE RETURN JUMPDEST CALLVALUE PUSH2 0x233 JUMPI PUSH1 0x0 CALLDATASIZE PUSH1 0x3 NOT ADD SLT PUSH2 0x233 JUMPI PUSH1 0x20 PUSH1 0xFF PUSH1 0x1 SLOAD PUSH1 0x8 SHR AND PUSH1 0x40 MLOAD SWAP1 ISZERO ISZERO DUP2 MSTORE RETURN JUMPDEST CALLVALUE PUSH2 0x233 JUMPI PUSH1 0x0 CALLDATASIZE PUSH1 0x3 NOT ADD SLT PUSH2 0x233 JUMPI PUSH1 0x20 PUSH1 0x14 SLOAD PUSH1 0x40 MLOAD SWAP1 DUP2 MSTORE RETURN JUMPDEST CALLVALUE PUSH2 0x233 JUMPI PUSH1 0x0 CALLDATASIZE PUSH1 0x3 NOT ADD SLT PUSH2 0x233 JUMPI PUSH2 0x28B PUSH2 0x277 PUSH2 0x12C3 JUMP JUMPDEST CALLVALUE PUSH2 0x233 JUMPI PUSH2 0xB37 CALLDATASIZE PUSH2 0x125A JUMP JUMPDEST PUSH2 0xB4F PUSH1 0x1 DUP1 PUSH1 0xA0 SHL SUB PUSH1 0x15 SLOAD PUSH1 0x8 SHR AND CALLER EQ PUSH2 0x1917 JUMP JUMPDEST PUSH2 0xB5D PUSH1 0xFF PUSH1 0x1 SLOAD AND PUSH2 0x18D7 JUMP JUMPDEST PUSH2 0xB6C PUSH1 0xFF PUSH1 0xA SLOAD AND ISZERO PUSH2 0x1963 JUMP JUMPDEST PUSH2 0xB7B PUSH1 0xFF PUSH1 0xC SLOAD AND ISZERO PUSH2 0x19A5 JUMP JUMPDEST PUSH32 0x28B099EB575E23E32BECD7C30DC8F9B2F98E370CDBF9841EA3338D9000402A25 PUSH1 0x40 MLOAD PUSH1 0x20 DUP2 MSTORE DUP1 PUSH2 0xBB3 CALLER SWAP5 PUSH1 0x20 DUP4 ADD SWAP1 PUSH2 0x1188 JUMP JUMPDEST SUB SWAP1 LOG2 STOP JUMPDEST PUSH2 0x115B JUMP JUMPDEST CALLVALUE PUSH2 0x233 JUMPI PUSH1 0x0 CALLDATASIZE PUSH1 0x3 NOT ADD SLT PUSH2 0x233 JUMPI PUSH1 0x20 PUSH1 0xFF PUSH1 0xE SLOAD AND PUSH1 0x40 MLOAD SWAP1 ISZERO ISZERO DUP2 MSTORE RETURN JUMPDEST CALLVALUE PUSH2 0x233 JUMPI PUSH2 0xBEE CALLDATASIZE PUSH2 0x125A JUMP JUMPDEST PUSH2 0xC06 PUSH1 0x1 DUP1 PUSH1 0xA0 SHL SUB PUSH1 0xE SLOAD PUSH1 0x8 SHR AND CALLER EQ PUSH2 0x188B JUMP JUMPDEST PUSH2 0xC14 PUSH1 0xFF PUSH1 0x1 SLOAD AND PUSH2 0x18D7 JUMP JUMPDEST PUSH1 0xA SLOAD PUSH1 0xFF DUP2 AND ISZERO PUSH2 0xCAB JUMPI DUP2 MLOAD ISZERO PUSH2 0xC66 JUMPI PUSH1 0xFF NOT AND PUSH1 0xA SSTORE PUSH32 0x2EB59C65A13FFE423F16EF2C7EDD21AFCDE560EF40C04008402E75D5C0B04B2F PUSH1 0x40 MLOAD PUSH1 0x20 DUP2 MSTORE DUP1 PUSH2 0xBB3 CALLER SWAP5 PUSH1 0x20 DUP4 ADD SWAP1 PUSH2 0x1188 JUMP JUMPDEST PUSH1 0x40 MLOAD PUSH3 0x461BCD PUSH1 0xE5 SHL DUP2 MSTORE PUSH1 0x20 PUSH1 0x4 DUP3 ADD MSTORE PUSH1 0x17 PUSH1 0x24 DUP3 ADD MSTORE PUSH32 0x496E76616C696420747261636B696E67206E756D626572000000000000000000 PUSH1 0x44 DUP3 ADD MSTORE PUSH1 0x64 SWAP1 REVERT JUMPDEST PUSH1 0x40 MLOAD PUSH3 0x461BCD PUSH1 0xE5 SHL DUP2 MSTORE PUSH1 0x20 PUSH1 0x4 DUP3 ADD MSTORE PUSH1 0x11 PUSH1 0x24 DUP3 ADD MSTORE PUSH17 0x457363726F77206E6F7420616374697665 PUSH1 0x78 SHL PUSH1 0x44 DUP3 ADD MSTORE PUSH1 0x64 SWAP1 REVERT JUMPDEST CALLVALUE PUSH2 0x233 JUMPI PUSH1 0x0 CALLDATASIZE PUSH1 0x3 NOT ADD SLT PUSH2 0x233 JUMPI PUSH1 0x20 PUSH1 0xFF PUSH1 0x1 SLOAD AND PUSH1 0x40 MLOAD SWAP1 ISZERO ISZERO DUP2 MSTORE RETURN JUMPDEST CALLVALUE PUSH2 0x233 JUMPI PUSH1 0x0 CALLDATASIZE PUSH1 0x3 NOT ADD SLT PUSH2 0x233 JUMPI PUSH1 0x0 PUSH1 0xE0 PUSH1 0x40 MLOAD PUSH2 0xD28 DUP2 PUSH2 0x11E3 JUMP JUMPDEST PUSH1 0x60 DUP2 MSTORE PUSH1 0x60 PUSH1 0x20 DUP3 ADD MSTORE PUSH1 0x60 PUSH1 0x40 DUP3 ADD MSTORE PUSH1 0x60 DUP1 DUP3 ADD MSTORE DUP3 PUSH1 0x80 DUP3 ADD MSTORE PUSH1 0x60 PUSH1 0xA0 DUP3 ADD MSTORE PUSH1 0x60 PUSH1 0xC0 DUP3 ADD MSTORE ADD MSTORE PUSH1 0x0 PUSH1 0x80 PUSH1 0x40 MLOAD PUSH2 0xD66 DUP2 PUSH2 0x1200 JUMP JUMPDEST DUP3 DUP2 MSTORE DUP3 PUSH1 0x20 DUP3 ADD MSTORE DUP3 PUSH1 0x40 DUP3 ADD MSTORE DUP3 PUSH1 0x60 DUP3 ADD MSTORE ADD MSTORE PUSH1 0xE SLOAD PUSH2 0xD88 PUSH2 0x1816 JUMP JUMPDEST SWAP1 PUSH2 0xD98 PUSH1 0x14 SLOAD PUSH1 0x13 SLOAD SWAP1 PUSH2 0x17E6 JUMP JUMPDEST PUSH1 0x15 SLOAD SWAP3 PUSH2 0xDA4 PUSH2 0x12C3 JUMP JUMPDEST SWAP4 PUSH2 0xDAD PUSH2 0x13AE JUMP JUMPDEST SWAP3 PUSH1 0x40 MLOAD SWAP4 PUSH2 0xDBB DUP6 PUSH2 0x11E3 JUMP JUMPDEST PUSH2 0xDC3 PUSH2 0x1462 JUMP JUMPDEST DUP6 MSTORE PUSH2 0xDCD PUSH2 0x1516 JUMP JUMPDEST PUSH1 0x20 DUP7 ADD MSTORE PUSH2 0xDDA PUSH2 0x15CA JUMP JUMPDEST PUSH1 0x40 DUP7 ADD MSTORE PUSH2 0xDE7 PUSH2 0x167E JUMP JUMPDEST PUSH1 0x60 DUP7 ADD MSTORE PUSH1 0x6 SLOAD PUSH1 0x80 DUP7 ADD MSTORE PUSH1 0x7 SLOAD PUSH8 0xFFFFFFFFFFFFFFFF DUP2 GT PUSH2 0x1127 JUMPI PUSH1 0x40 MLOAD SWAP1 PUSH2 0xE1A PUSH1 0x20 DUP3 PUSH1 0x5 SHL ADD DUP4 PUSH2 0x121C JUMP JUMPDEST DUP1 DUP3 MSTORE PUSH1 0x20 DUP3 ADD SWAP1 PUSH1 0x7 PUSH1 0x0 MSTORE PUSH32 0xA66CC928B5EDB82AF9BD49922954155AB7B0942694BEA4CE44661D9A8736C688 SWAP2 PUSH1 0x0 SWAP1 JUMPDEST DUP3 DUP3 LT PUSH2 0x1050 JUMPI POP POP POP POP PUSH1 0xA0 DUP7 ADD MSTORE PUSH2 0xEFA SWAP1 PUSH2 0xE69 PUSH2 0x1732 JUMP JUMPDEST PUSH1 0xC0 DUP8 ADD MSTORE PUSH1 0xFF PUSH1 0x9 SLOAD AND ISZERO ISZERO PUSH1 0xE0 DUP8 ADD MSTORE PUSH2 0xEEC PUSH1 0x40 MLOAD SWAP9 PUSH2 0xE8B DUP11 PUSH2 0x1200 JUMP JUMPDEST PUSH1 0xA SLOAD PUSH1 0xFF DUP2 AND ISZERO ISZERO DUP12 MSTORE PUSH1 0x1 DUP1 PUSH1 0xA0 SHL SUB SWAP1 PUSH1 0x8 SHR AND PUSH1 0x20 DUP12 ADD MSTORE PUSH1 0xB SLOAD PUSH1 0x40 DUP12 ADD MSTORE PUSH1 0xFF PUSH1 0xC SLOAD DUP2 DUP2 AND ISZERO ISZERO PUSH1 0x60 DUP14 ADD MSTORE PUSH1 0x8 SHR AND ISZERO ISZERO PUSH1 0x80 DUP12 ADD MSTORE PUSH1 0x40 MLOAD SWAP9 PUSH1 0x1 DUP1 PUSH1 0xA0 SHL SUB SWAP1 PUSH1 0x8 SHR AND DUP10 MSTORE PUSH2 0x1A0 DUP1 PUSH1 0x20 DUP12 ADD MSTORE DUP10 ADD SWAP1 PUSH2 0x1188 JUMP JUMPDEST SWAP1 DUP8 DUP3 SUB PUSH1 0x40 DUP10 ADD MSTORE PUSH2 0x1188 JUMP JUMPDEST SWAP3 PUSH1 0x60 DUP7 ADD MSTORE PUSH1 0x80 DUP6 ADD MSTORE PUSH1 0xFF DUP2 AND ISZERO ISZERO PUSH1 0xA0 DUP6 ADD MSTORE PUSH1 0x1 DUP1 PUSH1 0xA0 SHL SUB SWAP1 PUSH1 0x8 SHR AND PUSH1 0xC0 DUP5 ADD MSTORE DUP3 DUP2 SUB PUSH1 0xE0 DUP5 ADD MSTORE PUSH2 0xF7D PUSH2 0xF6B PUSH2 0xF59 PUSH2 0xF47 DUP6 MLOAD PUSH2 0x100 DUP7 MSTORE PUSH2 0x100 DUP7 ADD SWAP1 PUSH2 0x1188 JUMP JUMPDEST PUSH1 0x20 DUP7 ADD MLOAD DUP6 DUP3 SUB PUSH1 0x20 DUP8 ADD MSTORE PUSH2 0x1188 JUMP JUMPDEST PUSH1 0x40 DUP6 ADD MLOAD DUP5 DUP3 SUB PUSH1 0x40 DUP7 ADD MSTORE PUSH2 0x1188 JUMP JUMPDEST PUSH1 0x60 DUP5 ADD MLOAD DUP4 DUP3 SUB PUSH1 0x60 DUP6 ADD MSTORE PUSH2 0x1188 JUMP JUMPDEST PUSH1 0x80 DUP4 ADD MLOAD PUSH1 0x80 DUP4 ADD MSTORE PUSH1 0xA0 DUP4 ADD MLOAD SWAP1 DUP3 DUP2 SUB PUSH1 0xA0 DUP5 ADD MSTORE DUP2 MLOAD DUP1 DUP3 MSTORE PUSH1 0x20 DUP3 ADD SWAP2 PUSH1 0x20 DUP1 DUP4 PUSH1 0x5 SHL DUP4 ADD ADD SWAP5 ADD SWAP3 PUSH1 0x0 SWAP2 JUMPDEST DUP4 DUP4 LT PUSH2 0x1023 JUMPI DUP9 DUP1 DUP10 PUSH1 0x80 DUP14 DUP12 PUSH1 0xE0 DUP1 PUSH2 0xFD7 DUP15 PUSH1 0xC0 DUP9 ADD MLOAD DUP6 DUP3 SUB PUSH1 0xC0 DUP8 ADD MSTORE PUSH2 0x1188 JUMP JUMPDEST SWAP6 ADD MLOAD ISZERO ISZERO SWAP2 ADD MSTORE DUP1 MLOAD ISZERO ISZERO PUSH2 0x100 DUP6 ADD MSTORE PUSH1 0x20 DUP2 ADD MLOAD PUSH1 0x1 PUSH1 0x1 PUSH1 0xA0 SHL SUB AND PUSH2 0x120 DUP6 ADD MSTORE PUSH1 0x40 DUP2 ADD MLOAD PUSH2 0x140 DUP6 ADD MSTORE PUSH1 0x60 DUP2 ADD MLOAD ISZERO ISZERO PUSH2 0x160 DUP6 ADD MSTORE ADD MLOAD ISZERO ISZERO PUSH2 0x180 DUP4 ADD MSTORE SUB SWAP1 RETURN JUMPDEST SWAP1 SWAP2 SWAP3 SWAP4 SWAP5 PUSH1 0x20 DUP1 PUSH2 0x1041 PUSH1 0x1 SWAP4 PUSH1 0x1F NOT DUP7 DUP3 SUB ADD DUP8 MSTORE DUP10 MLOAD PUSH2 0x1188 JUMP JUMPDEST SWAP8 ADD SWAP4 ADD SWAP4 ADD SWAP2 SWAP4 SWAP3 SWAP1 PUSH2 0xFB0 JUMP JUMPDEST PUSH1 0x40 MLOAD PUSH1 0x0 DUP6 SLOAD DUP1 PUSH1 0x1 SHR SWAP1 PUSH1 0x1 DUP2 AND ISZERO PUSH2 0x111D JUMPI JUMPDEST PUSH1 0x20 DUP3 LT PUSH1 0x1 DUP3 AND EQ PUSH2 0x1107 JUMPI DUP2 DUP5 MSTORE PUSH1 0x1 DUP2 AND SWAP1 DUP2 ISZERO PUSH2 0x10E4 JUMPI POP PUSH1 0x1 EQ PUSH2 0x10AC JUMPI JUMPDEST POP PUSH1 0x1 SWAP3 DUP3 PUSH2 0x109E DUP6 SWAP5 PUSH1 0x20 SWAP5 SUB DUP3 PUSH2 0x121C JUMP JUMPDEST DUP2 MSTORE ADD SWAP5 ADD SWAP2 ADD SWAP1 SWAP3 PUSH2 0xE4D JUMP JUMPDEST PUSH1 0x0 DUP8 DUP2 MSTORE PUSH1 0x20 DUP2 KECCAK256 SWAP1 SWAP3 POP JUMPDEST DUP2 DUP4 LT PUSH2 0x10CE JUMPI POP POP DUP2 ADD PUSH1 0x20 ADD PUSH1 0x1 PUSH2 0x108A JUMP JUMPDEST PUSH1 0x1 DUP2 PUSH1 0x20 SWAP3 SLOAD DUP4 DUP7 DUP9 ADD ADD MSTORE ADD SWAP3 ADD SWAP2 PUSH2 0x10B9 JUMP JUMPDEST PUSH1 0xFF NOT AND PUSH1 0x20 DUP6 DUP2 ADD SWAP2 SWAP1 SWAP2 MSTORE SWAP2 ISZERO ISZERO PUSH1 0x5 SHL DUP5 ADD SWAP1 SWAP2 ADD SWAP2 POP PUSH1 0x1 SWAP1 POP PUSH2 0x108A JUMP JUMPDEST PUSH4 0x4E487B71 PUSH1 0xE0 SHL PUSH1 0x0 MSTORE PUSH1 0x22 PUSH1 0x4 MSTORE PUSH1 0x24 PUSH1 0x0 REVERT JUMPDEST SWAP1 PUSH1 0x7F AND SWAP1 PUSH2 0x1066 JUMP JUMPDEST PUSH4 0x4E487B71 PUSH1 0xE0 SHL PUSH1 0x0 MSTORE PUSH1 0x41 PUSH1 0x4 MSTORE PUSH1 0x24 PUSH1 0x0 REVERT JUMPDEST CALLVALUE PUSH2 0x233 JUMPI PUSH1 0x0 CALLDATASIZE PUSH1 0x3 NOT ADD SLT PUSH2 0x233 JUMPI PUSH1 0x20 PUSH1 0x13 SLOAD PUSH1 0x40 MLOAD SWAP1 DUP2 MSTORE RETURN JUMPDEST CALLVALUE PUSH2 0x233 JUMPI PUSH1 0x0 CALLDATASIZE PUSH1 0x3 NOT ADD SLT PUSH2 0x233 JUMPI PUSH1 0xE SLOAD PUSH1 0x40 MLOAD PUSH1 0x8 SWAP2 SWAP1 SWAP2 SHR PUSH1 0x1 PUSH1 0x1 PUSH1 0xA0 SHL SUB AND DUP2 MSTORE PUSH1 0x20 SWAP1 RETURN JUMPDEST SWAP2 SWAP1 DUP3 MLOAD SWAP3 DUP4 DUP3 MSTORE PUSH1 0x0 JUMPDEST DUP5 DUP2 LT PUSH2 0x11B4 JUMPI POP POP DUP3 PUSH1 0x0 PUSH1 0x20 DUP1 SWAP5 SWAP6 DUP5 ADD ADD MSTORE PUSH1 0x1F DUP1 NOT SWAP2 ADD AND ADD ADD SWAP1 JUMP JUMPDEST PUSH1 0x20 DUP2 DUP4 ADD DUP2 ADD MLOAD DUP5 DUP4 ADD DUP3 ADD MSTORE ADD PUSH2 0x1193 JUMP JUMPDEST CALLVALUE PUSH2 0x233 JUMPI PUSH1 0x0 CALLDATASIZE PUSH1 0x3 NOT ADD SLT PUSH2 0x233 JUMPI PUSH1 0x20 PUSH2 0x817 PUSH2 0x1816 JUMP JUMPDEST PUSH2 0x100 DUP2 ADD SWAP1 DUP2 LT PUSH8 0xFFFFFFFFFFFFFFFF DUP3 GT OR PUSH2 0x1127 JUMPI PUSH1 0x40 MSTORE JUMP JUMPDEST PUSH1 0xA0 DUP2 ADD SWAP1 DUP2 LT PUSH8 0xFFFFFFFFFFFFFFFF DUP3 GT OR PUSH2 0x1127 JUMPI PUSH1 0x40 MSTORE JUMP JUMPDEST SWAP1 PUSH1 0x1F DUP1 NOT SWAP2 ADD AND DUP2 ADD SWAP1 DUP2 LT PUSH8 0xFFFFFFFFFFFFFFFF DUP3 GT OR PUSH2 0x1127 JUMPI PUSH1 0x40 MSTORE JUMP JUMPDEST PUSH8 0xFFFFFFFFFFFFFFFF DUP2 GT PUSH2 0x1127 JUMPI PUSH1 0x1F ADD PUSH1 0x1F NOT AND PUSH1 0x20 ADD SWAP1 JUMP JUMPDEST PUSH1 0x20 PUSH1 0x3 NOT DUP3 ADD SLT PUSH2 0x233 JUMPI PUSH1 0x4 CALLDATALOAD PUSH8 0xFFFFFFFFFFFFFFFF DUP2 GT PUSH2 0x233 JUMPI DUP2 PUSH1 0x23 DUP3 ADD SLT ISZERO PUSH2 0x233 JUMPI DUP1 PUSH1 0x4 ADD CALLDATALOAD SWAP1 PUSH2 0x1292 DUP3 PUSH2 0x123E JUMP JUMPDEST SWAP3 PUSH2 0x12A0 PUSH1 0x40 MLOAD SWAP5 DUP6 PUSH2 0x121C JUMP JUMPDEST DUP3 DUP5 MSTORE PUSH1 0x24 DUP4 DUP4 ADD ADD GT PUSH2 0x233 JUMPI DUP2 PUSH1 0x0 SWAP3 PUSH1 0x24 PUSH1 0x20 SWAP4 ADD DUP4 DUP7 ADD CALLDATACOPY DUP4 ADD ADD MSTORE SWAP1 JUMP JUMPDEST PUSH1 0x40 MLOAD SWAP1 PUSH1 0x0 PUSH1 0xF SLOAD SWAP1 PUSH1 0x1 DUP3 DUP2 SHR SWAP1 DUP1 DUP5 AND SWAP4 DUP5 ISZERO PUSH2 0x13A4 JUMPI JUMPDEST PUSH1 0x20 SWAP5 DUP6 DUP5 LT DUP2 EQ PUSH2 0x1390 JUMPI DUP4 DUP9 MSTORE DUP8 SWAP5 SWAP4 SWAP3 SWAP2 DUP2 ISZERO PUSH2 0x1370 JUMPI POP PUSH1 0x1 EQ PUSH2 0x1311 JUMPI JUMPDEST POP POP PUSH2 0x130F SWAP3 POP SUB DUP4 PUSH2 0x121C JUMP JUMPDEST JUMP JUMPDEST SWAP1 SWAP4 SWAP2 POP PUSH1 0xF PUSH1 0x0 MSTORE PUSH32 0x8D1108E10BCB7C27DDDFC02ED9D693A074039D026CF4EA4240B40F7D581AC802 SWAP4 PUSH1 0x0 SWAP2 JUMPDEST DUP2 DUP4 LT PUSH2 0x1358 JUMPI POP POP PUSH2 0x130F SWAP4 POP DUP3 ADD ADD CODESIZE DUP1 PUSH2 0x1301 JUMP JUMPDEST DUP6 SLOAD DUP9 DUP5 ADD DUP6 ADD MSTORE SWAP5 DUP6 ADD SWAP5 DUP8 SWAP5 POP SWAP2 DUP4 ADD SWAP2 PUSH2 0x1340 JUMP JUMPDEST SWAP2 POP POP PUSH2 0x130F SWAP5 SWAP3 POP PUSH1 0xFF NOT AND DUP3 DUP5 ADD MSTORE ISZERO ISZERO PUSH1 0x5 SHL DUP3 ADD ADD CODESIZE DUP1 PUSH2 0x1301 JUMP JUMPDEST PUSH4 0x4E487B71 PUSH1 0xE0 SHL DUP6 MSTORE PUSH1 0x22 PUSH1 0x4 MSTORE PUSH1 0x24 DUP6 REVERT JUMPDEST SWAP2 PUSH1 0x7F AND SWAP2 PUSH2 0x12DE JUMP JUMPDEST PUSH1 0x40 MLOAD SWAP1 PUSH1 0x0 PUSH1 0x10 SLOAD SWAP1 PUSH1 0x1 DUP3 DUP2 SHR SWAP1 DUP1 DUP5 AND SWAP4 DUP5 ISZERO PUSH2 0x1458 JUMPI JUMPDEST PUSH1 0x20 SWAP5 DUP6 DUP5 LT DUP2 EQ PUSH2 0x1390 JUMPI DUP4 DUP9 MSTORE DUP8 SWAP5 SWAP4 SWAP3 SWAP2 DUP2 ISZERO PUSH2 0x1370 JUMPI POP PUSH1 0x1 EQ PUSH2 0x13F9 JUMPI POP POP PUSH2 0x130F SWAP3 POP SUB DUP4 PUSH2 0x121C JUMP JUMPDEST SWAP1 SWAP4 SWAP2 POP PUSH1 0x10 PUSH1 0x0 MSTORE PUSH32 0x1B6847DC741A1B0CD08D278845F9D819D87B734759AFB55FE2DE5CB82A9AE672 SWAP4 PUSH1 0x0 SWAP2 JUMPDEST DUP2 DUP4 LT PUSH2 0x1440 JUMPI POP POP PUSH2 0x130F SWAP4 POP DUP3 ADD ADD CODESIZE DUP1 PUSH2 0x1301 JUMP JUMPDEST DUP6 SLOAD DUP9 DUP5 ADD DUP6 ADD MSTORE SWAP5 DUP6 ADD SWAP5 DUP8 SWAP5 POP SWAP2 DUP4 ADD SWAP2 PUSH2 0x1428 JUMP JUMPDEST SWAP2 PUSH1 0x7F AND SWAP2 PUSH2 0x13C9 JUMP JUMPDEST PUSH1 0x40 MLOAD SWAP1 PUSH1 0x0 PUSH1 0x2 SLOAD SWAP1 PUSH1 0x1 DUP3 DUP2 SHR SWAP1 DUP1 DUP5 AND SWAP4 DUP5 ISZERO PUSH2 0x150C JUMPI JUMPDEST PUSH1 0x20 SWAP5 DUP6 DUP5 LT DUP2 EQ PUSH2 0x1390 JUMPI DUP4 DUP9 MSTORE DUP8 SWAP5 SWAP4 SWAP3 SWAP2 DUP2 ISZERO PUSH2 0x1370 JUMPI POP PUSH1 0x1 EQ PUSH2 0x14AD JUMPI POP POP PUSH2 0x130F SWAP3 POP SUB DUP4 PUSH2 0x121C JUMP JUMPDEST SWAP1 SWAP4 SWAP2 POP PUSH1 0x2 PUSH1 0x0 MSTORE PUSH32 0x405787FA12A823E0F2B7631CC41B3BA8828B3321CA811111FA75CD3AA3BB5ACE SWAP4 PUSH1 0x0 SWAP2 JUMPDEST DUP2 DUP4 LT PUSH2 0x14F4 JUMPI POP POP PUSH2 0x130F SWAP4 POP DUP3 ADD ADD CODESIZE DUP1 PUSH2 0x1301 JUMP JUMPDEST DUP6 SLOAD DUP9 DUP5 ADD DUP6 ADD MSTORE SWAP5 DUP6 ADD SWAP5 DUP8 SWAP5 POP SWAP2 DUP4 ADD SWAP2 PUSH2 0x14DC JUMP JUMPDEST SWAP2 PUSH1 0x7F AND SWAP2 PUSH2 0x147D JUMP JUMPDEST PUSH1 0x40 MLOAD SWAP1 PUSH1 0x0 PUSH1 0x3 SLOAD SWAP1 PUSH1 0x1 DUP3 DUP2 SHR SWAP1 DUP1 DUP5 AND SWAP4 DUP5 ISZERO PUSH2 0x15C0 JUMPI JUMPDEST PUSH1 0x20 SWAP5 DUP6 DUP5 LT DUP2 EQ PUSH2 0x1390 JUMPI DUP4 DUP9 MSTORE DUP8 SWAP5 SWAP4 SWAP3 SWAP2 DUP2 ISZERO PUSH2 0x1370 JUMPI POP PUSH1 0x1 EQ PUSH2 0x1561 JUMPI POP POP PUSH2 0x130F SWAP3 POP SUB DUP4 PUSH2 0x121C JUMP JUMPDEST SWAP1 SWAP4 SWAP2 POP PUSH1 0x3 PUSH1 0x0 MSTORE PUSH32 0xC2575A0E9E593C00F959F8C92F12DB2869C3395A3B0502D05E2516446F71F85B SWAP4 PUSH1 0x0 SWAP2 JUMPDEST DUP2 DUP4 LT PUSH2 0x15A8 JUMPI POP POP PUSH2 0x130F SWAP4 POP DUP3 ADD ADD CODESIZE DUP1 PUSH2 0x1301 JUMP JUMPDEST DUP6 SLOAD DUP9 DUP5 ADD DUP6 ADD MSTORE SWAP5 DUP6 ADD SWAP5 DUP8 SWAP5 POP SWAP2 DUP4 ADD SWAP2 PUSH2 0x1590 JUMP JUMPDEST SWAP2 PUSH1 0x7F AND SWAP2 PUSH2 0x1531 JUMP JUMPDEST PUSH1 0x40 MLOAD SWAP1 PUSH1 0x0 PUSH1 0x4 SLOAD SWAP1 PUSH1 0x1 DUP3 DUP2 SHR SWAP1 DUP1 DUP5 AND SWAP4 DUP5 ISZERO PUSH2 0x1674 JUMPI JUMPDEST PUSH1 0x20 SWAP5 DUP6 DUP5 LT DUP2 EQ PUSH2 0x1390 JUMPI DUP4 DUP9 MSTORE DUP8 SWAP5 SWAP4 SWAP3 SWAP2 DUP2 ISZERO PUSH2 0x1370 JUMPI POP PUSH1 0x1 EQ PUSH2 0x1615 JUMPI POP POP PUSH2 0x130F SWAP3 POP SUB DUP4 PUSH2 0x121C JUMP JUMPDEST SWAP1 SWAP4 SWAP2 POP PUSH1 0x4 PUSH1 0x0 MSTORE PUSH32 0x8A35ACFBC15FF81A39AE7D344FD709F28E8600B4AA8C65C6B64BFE7FE36BD19B SWAP4 PUSH1 0x0 SWAP2 JUMPDEST DUP2 DUP4 LT PUSH2 0x165C JUMPI POP POP PUSH2 0x130F SWAP4 POP DUP3 ADD ADD CODESIZE DUP1 PUSH2 0x1301 JUMP JUMPDEST DUP6 SLOAD DUP9 DUP5 ADD DUP6 ADD MSTORE SWAP5 DUP6 ADD SWAP5 DUP8 SWAP5 POP SWAP2 DUP4 ADD SWAP2 PUSH2 0x1644 JUMP JUMPDEST SWAP2 PUSH1 0x7F AND SWAP2 PUSH2 0x15E5 JUMP JUMPDEST PUSH1 0x40 MLOAD SWAP1 PUSH1 0x0 PUSH1 0x5 SLOAD SWAP1 PUSH1 0x1 DUP3 DUP2 SHR SWAP1 DUP1 DUP5 AND SWAP4 DUP5 ISZERO PUSH2 0x1728 JUMPI JUMPDEST PUSH1 0x20 SWAP5 DUP6 DUP5 LT DUP2 EQ PUSH2 0x1390 JUMPI DUP4 DUP9 MSTORE DUP8 SWAP5 SWAP4 SWAP3 SWAP2 DUP2 ISZERO PUSH2 0x1370 JUMPI POP PUSH1 0x1 EQ PUSH2 0x16C9 JUMPI POP POP PUSH2 0x130F SWAP3 POP SUB DUP4 PUSH2 0x121C JUMP JUMPDEST SWAP1 SWAP4 SWAP2 POP PUSH1 0x5 PUSH1 0x0 MSTORE PUSH32 0x36B6384B5ECA791C62761152D0C79BB0604C104A5FB6F4EB0703F3154BB3DB0 SWAP4 PUSH1 0x0 SWAP2 JUMPDEST DUP2 DUP4 LT PUSH2 0x1710 JUMPI POP POP PUSH2 0x130F SWAP4 POP DUP3 ADD ADD CODESIZE DUP1 PUSH2 0x1301 JUMP JUMPDEST DUP6 SLOAD DUP9 DUP5 ADD DUP6 ADD MSTORE SWAP5 DUP6 ADD SWAP5 DUP8 SWAP5 POP SWAP2 DUP4 ADD SWAP2 PUSH2 0x16F8 JUMP JUMPDEST SWAP2 PUSH1 0x7F AND SWAP2 PUSH2 0x1699 JUMP JUMPDEST PUSH1 0x40 MLOAD SWAP1 PUSH1 0x0 PUSH1 0x8 SLOAD SWAP1 PUSH1 0x1 DUP3 DUP2 SHR SWAP1 DUP1 DUP5 AND SWAP4 DUP5 ISZERO PUSH2 0x17DC JUMPI JUMPDEST PUSH1 0x20 SWAP5 DUP6 DUP5 LT DUP2 EQ PUSH2 0x1390 JUMPI DUP4 DUP9 MSTORE DUP8 SWAP5 SWAP4 SWAP3 SWAP2 DUP2 ISZERO PUSH2 0x1370 JUMPI POP PUSH1 0x1 EQ PUSH2 0x177D JUMPI POP POP PUSH2 0x130F SWAP3 POP SUB DUP4 PUSH2 0x121C JUMP JUMPDEST SWAP1 SWAP4 SWAP2 POP PUSH1 0x8 PUSH1 0x0 MSTORE PUSH32 0xF3F7A9FE364FAAB93B216DA50A3214154F22A0A2B415B23A84C8169E8B636EE3 SWAP4 PUSH1 0x0 SWAP2 JUMPDEST DUP2 DUP4 LT PUSH2 0x17C4 JUMPI POP POP PUSH2 0x130F SWAP4 POP DUP3 ADD ADD CODESIZE DUP1 PUSH2 0x1301 JUMP JUMPDEST DUP6 SLOAD DUP9 DUP5 ADD DUP6 ADD MSTORE SWAP5 DUP6 ADD SWAP5 DUP8 SWAP5 POP SWAP2 DUP4 ADD SWAP2 PUSH2 0x17AC JUMP JUMPDEST SWAP2 PUSH1 0x7F AND SWAP2 PUSH2 0x174D JUMP JUMPDEST SWAP2 SWAP1 DUP3 ADD DUP1 SWAP3 GT PUSH2 0x17F3 JUMPI JUMP JUMPDEST PUSH4 0x4E487B71 PUSH1 0xE0 SHL PUSH1 0x0 MSTORE PUSH1 0x11 PUSH1 0x4 MSTORE PUSH1 0x24 PUSH1 0x0 REVERT JUMPDEST SWAP2 SWAP1 DUP3 SUB SWAP2 DUP3 GT PUSH2 0x17F3 JUMPI JUMP JUMPDEST PUSH1 0x14 SLOAD PUSH1 0x13 SLOAD SWAP1 PUSH2 0x1827 DUP3 DUP3 PUSH2 0x17E6 JUMP JUMPDEST TIMESTAMP LT ISZERO PUSH2 0x1883 JUMPI PUSH2 0x1838 SWAP1 TIMESTAMP PUSH2 0x1809 JUMP JUMPDEST SWAP1 PUSH1 0x11 SLOAD SWAP1 PUSH2 0x1849 PUSH1 0x12 SLOAD DUP4 PUSH2 0x1809 JUMP JUMPDEST DUP4 DUP2 MUL SWAP4 DUP2 DUP6 DIV EQ SWAP1 ISZERO OR ISZERO PUSH2 0x17F3 JUMPI DUP1 ISZERO PUSH2 0x186D JUMPI PUSH2 0x186A SWAP3 DIV SWAP1 PUSH2 0x1809 JUMP JUMPDEST SWAP1 JUMP JUMPDEST PUSH4 0x4E487B71 PUSH1 0xE0 SHL PUSH1 0x0 MSTORE PUSH1 0x12 PUSH1 0x4 MSTORE PUSH1 0x24 PUSH1 0x0 REVERT JUMPDEST POP POP PUSH1 0x12 SLOAD SWAP1 JUMP JUMPDEST ISZERO PUSH2 0x1892 JUMPI JUMP JUMPDEST PUSH1 0x40 MLOAD PUSH3 0x461BCD PUSH1 0xE5 SHL DUP2 MSTORE PUSH1 0x20 PUSH1 0x4 DUP3 ADD MSTORE PUSH1 0x19 PUSH1 0x24 DUP3 ADD MSTORE PUSH32 0x4F6E6C792073656C6C65722063616E2063616C6C207468697300000000000000 PUSH1 0x44 DUP3 ADD MSTORE PUSH1 0x64 SWAP1 REVERT JUMPDEST ISZERO PUSH2 0x18DE JUMPI JUMP JUMPDEST PUSH1 0x40 MLOAD PUSH3 0x461BCD PUSH1 0xE5 SHL DUP2 MSTORE PUSH1 0x20 PUSH1 0x4 DUP3 ADD MSTORE PUSH1 0x11 PUSH1 0x24 DUP3 ADD MSTORE PUSH17 0x115CD8DC9BDDC81B9BDD08199D5B991959 PUSH1 0x7A SHL PUSH1 0x44 DUP3 ADD MSTORE PUSH1 0x64 SWAP1 REVERT JUMPDEST ISZERO PUSH2 0x191E JUMPI JUMP JUMPDEST PUSH1 0x40 MLOAD PUSH3 0x461BCD PUSH1 0xE5 SHL DUP2 MSTORE PUSH1 0x20 PUSH1 0x4 DUP3 ADD MSTORE PUSH1 0x18 PUSH1 0x24 DUP3 ADD MSTORE PUSH32 0x4F6E6C792062757965722063616E2063616C6C20746869730000000000000000 PUSH1 0x44 DUP3 ADD MSTORE PUSH1 0x64 SWAP1 REVERT JUMPDEST ISZERO PUSH2 0x196A JUMPI JUMP JUMPDEST PUSH1 0x40 MLOAD PUSH3 0x461BCD PUSH1 0xE5 SHL DUP2 MSTORE PUSH1 0x20 PUSH1 0x4 DUP3 ADD MSTORE PUSH1 0x13 PUSH1 0x24 DUP3 ADD MSTORE PUSH19 0x457363726F77207374696C6C20616374697665 PUSH1 0x68 SHL PUSH1 0x44 DUP3 ADD MSTORE PUSH1 0x64 SWAP1 REVERT JUMPDEST ISZERO PUSH2 0x19AC JUMPI JUMP JUMPDEST PUSH1 0x40 MLOAD PUSH3 0x461BCD PUSH1 0xE5 SHL DUP2 MSTORE PUSH1 0x20 PUSH1 0x4 DUP3 ADD MSTORE PUSH1 0x15 PUSH1 0x24 DUP3 ADD MSTORE PUSH21 0x125D195B48185B1C9958591E481C9958D95A5D9959 PUSH1 0x5A SHL PUSH1 0x44 DUP3 ADD MSTORE PUSH1 0x64 SWAP1 REVERT JUMPDEST RETURNDATASIZE ISZERO PUSH2 0x1A14 JUMPI RETURNDATASIZE SWAP1 PUSH2 0x19FA DUP3 PUSH2 0x123E JUMP JUMPDEST SWAP2 PUSH2 0x1A08 PUSH1 0x40 MLOAD SWAP4 DUP5 PUSH2 0x121C JUMP JUMPDEST DUP3 MSTORE RETURNDATASIZE PUSH1 0x0 PUSH1 0x20 DUP5 ADD RETURNDATACOPY JUMP JUMPDEST PUSH1 0x60 SWAP1 JUMP JUMPDEST ISZERO PUSH2 0x1A20 JUMPI JUMP JUMPDEST PUSH1 0x40 MLOAD PUSH3 0x461BCD PUSH1 0xE5 SHL DUP2 MSTORE PUSH1 0x20 PUSH1 0x4 DUP3 ADD MSTORE PUSH1 0xF PUSH1 0x24 DUP3 ADD MSTORE PUSH15 0x151C985B9CD9995C8819985A5B1959 PUSH1 0x8A SHL PUSH1 0x44 DUP3 ADD MSTORE PUSH1 0x64 SWAP1 REVERT JUMPDEST PUSH2 0x1A5F PUSH2 0x1816 JUMP JUMPDEST DUP1 PUSH1 0x1 SHL SWAP1 DUP1 DUP3 DIV PUSH1 0x2 EQ SWAP1 ISZERO OR ISZERO PUSH2 0x17F3 JUMPI PUSH1 0x64 SWAP1 DIV SWAP1 JUMP INVALID LOG2 PUSH5 0x6970667358 0x22 SLT KECCAK256 0xDF STATICCALL MLOAD PUSH27 0xCD3A29E5B85E7CE5FC87C57CFE2816E4943DEB312336E90FE9DA3 0xC9 PUSH5 0x736F6C6343 STOP ADDMOD EQ STOP CALLER BLOCKHASH JUMPI DUP8 STATICCALL SLT 0xA8 0x23 0xE0 CALLCODE 0xB7 PUSH4 0x1CC41B3B 0xA8 DUP3 DUP12 CALLER 0x21 0xCA DUP2 GT GT STATICCALL PUSH22 0xCD3AA3BB5ACEA66CC928B5EDB82AF9BD49922954155A 0xB7 0xB0 SWAP5 0x26 SWAP5 0xBE LOG4 0xCE PREVRANDAO PUSH7 0x1D9A8736C688F3 0xF7 0xA9 INVALID CALLDATASIZE 0x4F 0xAA 0xB9 EXTCODESIZE 0x21 PUSH14 0xA50A3214154F22A0A2B415B23A84 0xC8 AND SWAP15 DUP12 PUSH4 0x6EE31B68 SELFBALANCE 0xDC PUSH21 0x1A1B0CD08D278845F9D819D87B734759AFB55FE2DE 0x5C 0xB8 0x2A SWAP11 0xE6 PUSH19 0x8D1108E10BCB7C27DDDFC02ED9D693A074039D MUL PUSH13 0xF4EA4240B40F7D581AC8020000 "},"methodIdentifiers":{"auctioneer()":"5ec2c7bf","confirmItemReceived(bool)":"88e7e366","description()":"7284e416","duration()":"0fb5a6b4","endAuction()":"fe67a54b","endPrice()":"b868723e","escrow()":"e2fdcc17","escrowBalance()":"e11e1b0c","escrowFunded()":"562e4d38","escrowReleased()":"7b499faa","fundEscrow()":"a5d737ac","getAuctionDetails()":"3a6dcea2","getAuctionPrice()":"4bd25c6f","getCurrentPrice()":"eb91d37e","getEscrowAmount()":"a5e845b4","image()":"f3ccaac0","isCompleted()":"fa391c64","item()":"f2a4a82e","paused()":"5c975abb","placeBid()":"ecfc7ecc","purchases(address)":"842a77d3","raiseDispute(string)":"725a3b4b","resolveDispute(address)":"d8461182","seller()":"08551a53","shipItem(string)":"56eec68d","startPrice()":"f1a9af89","startTime()":"78e97925","winner()":"dfbf53ae"}}}}}