{"contracts/SealedBidAuction.sol":{"SealedBidAuction":{"abi":[{"inputs":[{"internalType":"uint256","name":"_duration","type":"uint256"},{"internalType":"uint256","name":"_startingPrice","type":"uint256"},{"internalType":"uint256","name":"_reservePrice","type":"uint256"},{"internalType":"string","name":"_name","type":"string"},{"internalType":"string","name":"_description","type":"string"},{"internalType":"string","name":"_condition","type":"string"},{"internalType":"string","name":"_dimensions","type":"string"},{"internalType":"uint256","name":"_weight","type":"uint256"},{"internalType":"string[]","name":"_images","type":"string[]"},{"internalType":"string","name":"_shippingAddress","type":"string"},{"internalType":"bool","name":"_isPhysical","type":"bool"}],"stateMutability":"nonpayable","type":"constructor"},{"anonymous":false,"inputs":[{"indexed":true,"internalType":"address","name":"seller","type":"address"},{"indexed":false,"internalType":"uint256","name":"startingPrice","type":"uint256"},{"indexed":false,"internalType":"uint256","name":"duration","type":"uint256"},{"indexed":false,"internalType":"string","name":"description","type":"string"}],"name":"AuctionCreated","type":"event"},{"anonymous":false,"inputs":[{"indexed":true,"internalType":"address","name":"winner","type":"address"},{"indexed":false,"internalType":"uint256","name":"amount","type":"uint256"}],"name":"AuctionEnded","type":"event"},{"anonymous":false,"inputs":[{"indexed":true,"internalType":"address","name":"bidder","type":"address"},{"indexed":false,"internalType":"uint256","name":"amount","type":"uint256"}],"name":"BidPlaced","type":"event"},{"anonymous":false,"inputs":[{"indexed":true,"internalType":"address","name":"buyer","type":"address"},{"indexed":false,"internalType":"string","name":"reason","type":"string"}],"name":"DisputeRaised","type":"event"},{"anonymous":false,"inputs":[{"indexed":true,"internalType":"address","name":"winner","type":"address"},{"indexed":false,"internalType":"uint256","name":"amount","type":"uint256"}],"name":"DisputeResolved","type":"event"},{"anonymous":false,"inputs":[{"indexed":true,"internalType":"address","name":"escrowAgent","type":"address"},{"indexed":false,"internalType":"uint256","name":"escrowFee","type":"uint256"}],"name":"EscrowCreated","type":"event"},{"anonymous":false,"inputs":[{"indexed":false,"internalType":"uint256","name":"amount","type":"uint256"}],"name":"EscrowFunded","type":"event"},{"anonymous":false,"inputs":[{"indexed":true,"internalType":"address","name":"buyer","type":"address"},{"indexed":false,"internalType":"uint256","name":"amount","type":"uint256"}],"name":"EscrowRefunded","type":"event"},{"anonymous":false,"inputs":[{"indexed":true,"internalType":"address","name":"seller","type":"address"},{"indexed":false,"internalType":"uint256","name":"amount","type":"uint256"}],"name":"EscrowReleased","type":"event"},{"anonymous":false,"inputs":[{"indexed":true,"internalType":"address","name":"buyer","type":"address"},{"indexed":false,"internalType":"bool","name":"conditionMet","type":"bool"}],"name":"ItemReceived","type":"event"},{"anonymous":false,"inputs":[{"indexed":true,"internalType":"address","name":"seller","type":"address"},{"indexed":false,"internalType":"string","name":"trackingNumber","type":"string"}],"name":"ItemShipped","type":"event"},{"anonymous":false,"inputs":[{"indexed":false,"internalType":"address","name":"account","type":"address"}],"name":"Paused","type":"event"},{"anonymous":false,"inputs":[{"indexed":false,"internalType":"address","name":"account","type":"address"}],"name":"Unpaused","type":"event"},{"inputs":[],"name":"auctioneer","outputs":[{"internalType":"address","name":"","type":"address"}],"stateMutability":"view","type":"function"},{"inputs":[{"internalType":"uint256","name":"","type":"uint256"}],"name":"bidders","outputs":[{"internalType":"address","name":"","type":"address"}],"stateMutability":"view","type":"function"},{"inputs":[{"internalType":"address","name":"","type":"address"}],"name":"bids","outputs":[{"internalType":"uint256","name":"","type":"uint256"}],"stateMutability":"view","type":"function"},{"inputs":[{"internalType":"bool","name":"conditionMet","type":"bool"}],"name":"confirmItemReceived","outputs":[],"stateMutability":"nonpayable","type":"function"},{"inputs":[],"name":"endAuction","outputs":[],"stateMutability":"nonpayable","type":"function"},{"inputs":[],"name":"endTime","outputs":[{"internalType":"uint256","name":"","type":"uint256"}],"stateMutability":"view","type":"function"},{"inputs":[],"name":"ended","outputs":[{"internalType":"bool","name":"","type":"bool"}],"stateMutability":"view","type":"function"},{"inputs":[],"name":"escrow","outputs":[{"internalType":"bool","name":"isActive","type":"bool"},{"internalType":"address","name":"escrowAgent","type":"address"},{"internalType":"uint256","name":"escrowFee","type":"uint256"},{"internalType":"bool","name":"itemReceived","type":"bool"},{"internalType":"bool","name":"paymentReleased","type":"bool"}],"stateMutability":"view","type":"function"},{"inputs":[],"name":"escrowBalance","outputs":[{"internalType":"uint256","name":"","type":"uint256"}],"stateMutability":"view","type":"function"},{"inputs":[],"name":"escrowFunded","outputs":[{"internalType":"bool","name":"","type":"bool"}],"stateMutability":"view","type":"function"},{"inputs":[],"name":"escrowReleased","outputs":[{"internalType":"bool","name":"","type":"bool"}],"stateMutability":"view","type":"function"},{"inputs":[],"name":"fundEscrow","outputs":[],"stateMutability":"payable","type":"function"},{"inputs":[],"name":"getAuctionDetails","outputs":[{"internalType":"address","name":"sellerAddr","type":"address"},{"internalType":"string","name":"desc","type":"string"},{"internalType":"string","name":"img","type":"string"},{"internalType":"uint256","name":"auctionPrice","type":"uint256"},{"internalType":"uint256","name":"auctionEndTime","type":"uint256"},{"internalType":"bool","name":"completed","type":"bool"},{"internalType":"address","name":"winnerAddr","type":"address"},{"components":[{"internalType":"string","name":"name","type":"string"},{"internalType":"string","name":"description","type":"string"},{"internalType":"string","name":"condition","type":"string"},{"internalType":"string","name":"dimensions","type":"string"},{"internalType":"uint256","name":"weight","type":"uint256"},{"internalType":"string[]","name":"images","type":"string[]"},{"internalType":"string","name":"shippingAddress","type":"string"},{"internalType":"bool","name":"isPhysical","type":"bool"}],"internalType":"struct IAuction.PhysicalItem","name":"physicalItem","type":"tuple"},{"components":[{"internalType":"bool","name":"isActive","type":"bool"},{"internalType":"address","name":"escrowAgent","type":"address"},{"internalType":"uint256","name":"escrowFee","type":"uint256"},{"internalType":"bool","name":"itemReceived","type":"bool"},{"internalType":"bool","name":"paymentReleased","type":"bool"}],"internalType":"struct IAuction.Escrow","name":"escrowInfo","type":"tuple"}],"stateMutability":"view","type":"function"},{"inputs":[],"name":"getAuctionPrice","outputs":[{"internalType":"uint256","name":"","type":"uint256"}],"stateMutability":"view","type":"function"},{"inputs":[],"name":"getBiddersCount","outputs":[{"internalType":"uint256","name":"","type":"uint256"}],"stateMutability":"view","type":"function"},{"inputs":[],"name":"getCurrentPrice","outputs":[{"internalType":"uint256","name":"","type":"uint256"}],"stateMutability":"view","type":"function"},{"inputs":[],"name":"getEscrowAmount","outputs":[{"internalType":"uint256","name":"","type":"uint256"}],"stateMutability":"view","type":"function"},{"inputs":[],"name":"highestBid","outputs":[{"internalType":"uint256","name":"","type":"uint256"}],"stateMutability":"view","type":"function"},{"inputs":[],"name":"item","outputs":[{"internalType":"string","name":"name","type":"string"},{"internalType":"string","name":"description","type":"string"},{"internalType":"string","name":"condition","type":"string"},{"internalType":"string","name":"dimensions","type":"string"},{"internalType":"uint256","name":"weight","type":"uint256"},{"internalType":"string","name":"shippingAddress","type":"string"},{"internalType":"bool","name":"isPhysical","type":"bool"}],"stateMutability":"view","type":"function"},{"inputs":[],"name":"paused","outputs":[{"internalType":"bool","name":"","type":"bool"}],"stateMutability":"view","type":"function"},{"inputs":[],"name":"placeBid","outputs":[],"stateMutability":"payable","type":"function"},{"inputs":[{"internalType":"address","name":"","type":"address"}],"name":"purchases","outputs":[{"internalType":"uint256","name":"","type":"uint256"}],"stateMutability":"pure","type":"function"},{"inputs":[{"internalType":"string","name":"reason","type":"string"}],"name":"raiseDispute","outputs":[],"stateMutability":"nonpayable","type":"function"},{"inputs":[],"name":"reservePrice","outputs":[{"internalType":"uint256","name":"","type":"uint256"}],"stateMutability":"view","type":"function"},{"inputs":[{"internalType":"address","name":"disputeWinner","type":"address"}],"name":"resolveDispute","outputs":[],"stateMutability":"nonpayable","type":"function"},{"inputs":[],"name":"seller","outputs":[{"internalType":"address","name":"","type":"address"}],"stateMutability":"view","type":"function"},{"inputs":[{"internalType":"string","name":"trackingNumber","type":"string"}],"name":"shipItem","outputs":[],"stateMutability":"nonpayable","type":"function"},{"inputs":[],"name":"startingPrice","outputs":[{"internalType":"uint256","name":"","type":"uint256"}],"stateMutability":"view","type":"function"},{"inputs":[],"name":"winner","outputs":[{"internalType":"address","name":"","type":"address"}],"stateMutability":"view","type":"function"}],"evm":{"bytecode":{"linkReferences":{},"object":"60806040523462000b155762002674803803806200001d8162000b4b565b9283398101906101608183031262000b155780516020820151604083015160608401519192916001600160401b03811162000b1557856200006091860162000b96565b60808501519091906001600160401b03811162000b1557866200008591870162000b96565b60a08601519095906001600160401b03811162000b155787620000aa91830162000b96565b60c08201519097906001600160401b03811162000b155781620000cf91840162000b96565b60e08301516101008401519091906001600160401b03811162000b155784019280601f8501121562000b15578351936001600160401b038511620005bd578460051b906020806200012281850162000b4b565b8098815201928201019183831162000b155760208201905b83821062000b1a57505050506101208501516001600160401b03811162000b1557610140916200016c91870162000b96565b94015194851515860362000b15576001600d5560ff19600e5416600e556012549088420180421162000aff57600f5560108a90556011556001600160a81b0319163360ff60a01b191617601255604051996001600160401b036101008c01908111908c1117620005bd576101008b016040908152878c5260208c018b90528b015260608a0152608089015260a088015260c0870152151560e08601528051906001600160401b038211620005bd5781906200022960025462000bed565b601f811162000abd575b50602090601f831160011462000a3f5760009262000a33575b50508160011b916000199060031b1c1916176002555b60208401518051906001600160401b038211620005bd5781906200028860035462000bed565b601f8111620009e0575b50602090601f8311600114620009515760009262000945575b50508160011b916000199060031b1c1916176003555b60408401518051906001600160401b038211620005bd578190620002e760045462000bed565b601f8111620008f2575b50602090601f8311600114620008635760009262000857575b50508160011b916000199060031b1c1916176004555b60608401518051906001600160401b038211620005bd5781906200034660055462000bed565b601f811162000820575b50602090601f8311600114620007915760009262000785575b50508160011b916000199060031b1c1916176005555b608084015160065560a0840151805190680100000000000000008211620005bd5760075482600755808310620006f9575b50600760009081526000805160206200263483398151915292916020015b828210620005d3575050505060c08401518051906001600160401b038211620005bd57620003fe60085462000bed565b601f81116200056f575b50602090601f8311600114620004cf5791807fa3d19677a52b6dff051e5813011905526090505e00fcea83c604776ad5ebfd6896979260e094600092620004c3575b50508160011b916000199060031b1c1916176008555b0151151560ff801960095416911617600955604051918252602082015260606040820152620004a083518094816060850152602060808501910162000b71565b3392601f01601f1916810181900360800190a26040516119d0908162000c448239f35b0151905038806200044a565b6008600090815260008051602062002654833981519152929190601f198516905b81811062000556575092600192859260e0967fa3d19677a52b6dff051e5813011905526090505e00fcea83c604776ad5ebfd689a9b96106200053c575b505050811b0160085562000460565b015160001960f88460031b161c191690553880806200052d565b92936020600181928786015181550195019301620004f0565b6008600052620005ab9060008051602062002654833981519152601f850160051c81019160208610620005b2575b601f0160051c019062000c2a565b3862000408565b90915081906200059d565b634e487b7160e01b600052604160045260246000fd5b80518051906001600160401b038211620005bd57620005f3865462000bed565b601f8111620006c3575b50602090601f83116001146200064e57928260019493602093869560009262000642575b5050600019600383901b1c191690841b1787555b01940191019092620003ce565b01519050388062000621565b908660005260206000209160005b601f1985168110620006aa575083602093600196938796938794601f1981161062000690575b505050811b01875562000635565b015160001960f88460031b161c1916905538808062000682565b919260206001819286850151815501940192016200065c565b620006f290876000526020600020601f850160051c81019160208610620005b257601f0160051c019062000c2a565b38620005fd565b600760005260008051602062002634833981519152908382015b818301811062000725575050620003b0565b80620007346001925462000bed565b8062000743575b500162000713565b601f811183146200075b5750600081555b386200073b565b6000908282526200077b601f60208420920160051c820185830162000c2a565b8183555562000754565b01519050388062000369565b6005600090815293507f036b6384b5eca791c62761152d0c79bb0604c104a5fb6f4eb0703f3154bb3db091905b601f198416851062000804576001945083601f19811610620007ea575b505050811b016005556200037f565b015160001960f88460031b161c19169055388080620007db565b81810151835560209485019460019093019290910190620007be565b620008509060056000526020600020601f850160051c81019160208610620005b257601f0160051c019062000c2a565b3862000350565b0151905038806200030a565b6004600090815293507f8a35acfbc15ff81a39ae7d344fd709f28e8600b4aa8c65c6b64bfe7fe36bd19b91905b601f1984168510620008d6576001945083601f19811610620008bc575b505050811b0160045562000320565b015160001960f88460031b161c19169055388080620008ad565b8181015183556020948501946001909301929091019062000890565b60046000526200093e907f8a35acfbc15ff81a39ae7d344fd709f28e8600b4aa8c65c6b64bfe7fe36bd19b601f850160051c81019160208610620005b257601f0160051c019062000c2a565b38620002f1565b015190503880620002ab565b6003600090815293507fc2575a0e9e593c00f959f8c92f12db2869c3395a3b0502d05e2516446f71f85b91905b601f1984168510620009c4576001945083601f19811610620009aa575b505050811b01600355620002c1565b015160001960f88460031b161c191690553880806200099b565b818101518355602094850194600190930192909101906200097e565b600360005262000a2c907fc2575a0e9e593c00f959f8c92f12db2869c3395a3b0502d05e2516446f71f85b601f850160051c81019160208610620005b257601f0160051c019062000c2a565b3862000292565b0151905038806200024c565b6002600090815293506000805160206200261483398151915291905b601f198416851062000aa1576001945083601f1981161062000a87575b505050811b0160025562000262565b015160001960f88460031b161c1916905538808062000a78565b8181015183556020948501946001909301929091019062000a5b565b600260005262000af89060008051602062002614833981519152601f850160051c81019160208610620005b257601f0160051c019062000c2a565b3862000233565b634e487b7160e01b600052601160045260246000fd5b600080fd5b81516001600160401b03811162000b155760209162000b3f8784809488010162000b96565b8152019101906200013a565b6040519190601f01601f191682016001600160401b03811183821017620005bd57604052565b60005b83811062000b855750506000910152565b818101518382015260200162000b74565b81601f8201121562000b155780516001600160401b038111620005bd5762000bc8601f8201601f191660200162000b4b565b928184526020828401011162000b155762000bea916020808501910162000b71565b90565b90600182811c9216801562000c1f575b602083101462000c0957565b634e487b7160e01b600052602260045260246000fd5b91607f169162000bfd565b81811062000c36575050565b6000815560010162000c2a56fe6080604052600436101561001257600080fd5b60003560e01c806308551a531461124957806312fa6feb146112235780633197cbb6146112055780633a6dcea214610df45780634bd25c6f1461068f578063562e4d3814610dd157806356eec68d14610cd05780635c975abb14610cad5780635ec2c7bf14610ca857806362ea82db14610c6a578063725a3b4b14610bde5780637b499faa14610bb8578063842a77d314610b8a57806388e7e36614610a4c578063a5d737ac14610917578063a5e845b4146108f4578063ab72bf32146108d6578063cff29dfd14610894578063d57bde7914610876578063d6fbf2021461068f578063d846118214610768578063db2e1eed1461074a578063dfbf53ae14610721578063e11e1b0c14610703578063e2fdcc17146106ad578063eb91d37e1461068f578063ecfc7ecc146103f8578063f2a4a82e146103465763fe67a54b1461015b57600080fd5b346103415760003660031901126103415760125460ff8160a01c1661030457600f5442106102c85760ff60a01b198116600160a01b176012556015546011549091908210156101df575b60018060a01b03601454167fdaec4582d5d9595688c8c98545fdd1c696d41c6aeaeb636737e84ed2f5c00eda6020601554604051908152a2005b60095460ff16156102935750506101f4611966565b60006080604051610204816112cf565b6001815230602082015283604082015282606082015201527f137fb716243bb1721111512a26c6a2d922e0bf3022df1ea74c7ef10ab3bc0dc760206001600a546101008260a81b033060081b16906affffffffffffffffffffff60a81b16171780600a5583600b5561ffff19600c5416600c5560405193845260018060a01b039060081c1692a25b38806101a5565b60008080938193829082156102be575b6001600160a01b031690f161028c576040513d6000823e3d90fd5b6108fc91506102a3565b60405162461bcd60e51b815260206004820152601460248201527341756374696f6e207374696c6c2061637469766560601b6044820152606490fd5b60405162461bcd60e51b8152602060048201526015602482015274105d58dd1a5bdb88185b1c9958591e48195b991959605a1b6044820152606490fd5b600080fd5b34610341576000366003190112610341576103af6103626114ca565b61036a6113df565b6103ec61037561157e565b61037d611632565b906103d9600654926103cb6103906116e6565b936103bd60ff60095416986040519b8c9b60e08d5260e08d0190611272565b908b820360208d0152611272565b9089820360408b0152611272565b908782036060890152611272565b91608086015284820360a0860152611272565b90151560c08301520390f35b6000366003190112610341576002600d541461064a576002600d5560ff600e54166106125760ff60125460a01c166105d957600f5442101561059e57601054341061054a5733600052601360205260406000205461050e5733600052601360205234604060002055601654680100000000000000008110156104f8578060016104849201601655611392565b81546001600160a01b0360039290921b91821b19163390911b17905560155434116104dd575b6040513481527f3fabff0a9c3ecd6814702e247fa9733e5d0aa69e3a38590f92cb18f623a2254d60203392a26001600d55005b601480546001600160a01b03191633179055346015556104aa565b634e487b7160e01b600052604160045260246000fd5b60405162461bcd60e51b8152602060048201526014602482015273105b1c9958591e481c1b1858d959081848189a5960621b6044820152606490fd5b60405162461bcd60e51b815260206004820152602660248201527f426964206d757374206d656574206f7220657863656564207374617274696e6760448201526520707269636560d01b6064820152608490fd5b60405162461bcd60e51b8152602060048201526013602482015272105d58dd1a5bdb881a185cc8195e1c1a5c9959606a1b6044820152606490fd5b60405162461bcd60e51b8152602060048201526011602482015270105d58dd1a5bdb881a185cc8195b991959607a1b6044820152606490fd5b60405162461bcd60e51b815260206004820152601060248201526f14185d5cd8589b194e881c185d5cd95960821b6044820152606490fd5b60405162461bcd60e51b815260206004820152601f60248201527f5265656e7472616e637947756172643a207265656e7472616e742063616c6c006044820152606490fd5b34610341576000366003190112610341576020601054604051908152f35b346103415760003660031901126103415760a0600a5460ff600b54600c54906040519383811615158552600180871b039060081c16602085015260408401528181161515606084015260081c1615156080820152f35b34610341576000366003190112610341576020600054604051908152f35b34610341576000366003190112610341576014546040516001600160a01b039091168152602090f35b34610341576000366003190112610341576020601154604051908152f35b34610341576020366003190112610341576004356001600160a01b03818116918290036103415761079e9060125416331461179a565b6107ac60ff600154166117e6565b6107bb60ff600a541615611872565b600c546107cb60ff8216156118b4565b60ff8160081c166108315760207ff396531fad1d4dc2cd92386cdea800c92a507f8fe1bdb80313eb32a57481b1dc91610100600054916000805561ff00191617600c55610828600080808085895af16108226118f8565b50611928565b604051908152a2005b60405162461bcd60e51b815260206004820152601860248201527f5061796d656e7420616c72656164792072656c656173656400000000000000006044820152606490fd5b34610341576000366003190112610341576020601554604051908152f35b3461034157602036600319011261034157600435601654811015610341576108bd602091611392565b905460405160039290921b1c6001600160a01b03168152f35b34610341576000366003190112610341576020601654604051908152f35b3461034157600036600319011261034157602061090f611966565b604051908152f35b60003660031901126103415761093860018060a01b0360125416331461179a565b60015460ff8116610a0f5734156109da57610951611966565b90813410610995578160016020927f3b4f5a74452cddb80ae5a0d279eb7db6afd5e556e72ca2883016b1da7c9d21169460005560ff191617600155604051908152a1005b60405162461bcd60e51b815260206004820152601a60248201527f496e73756666696369656e7420657363726f7720616d6f756e740000000000006044820152606490fd5b60405162461bcd60e51b815260206004820152600d60248201526c09aeae6e840e6cadcc8408aa89609b1b6044820152606490fd5b60405162461bcd60e51b8152602060048201526015602482015274115cd8dc9bddc8185b1c9958591e48199d5b991959605a1b6044820152606490fd5b346103415760203660031901126103415760043580151590818103610341576014546001600160a01b039290610a859084163314611826565b610a9360ff600154166117e6565b610aa260ff600a541615611872565b610101600c54610ab560ff8216156118b4565b61ffff191617600c556040519081527f27a5ccc16be6802bcec7c2477a2b588a54c808352ef7dab930058f65864b3ce960203392a215610b40577fe327b247066bdf32cf2493778e3fce4339b69c1e379a3b0dc780779bf67fe15560206000549260008055610b3260008080808886601254165af16108226118f8565b6012541692604051908152a2005b5060005460008055610b5c600080808085335af16108226118f8565b6040519081527f894ce7cc354d2a39de53f8dab6b0ad8c5ac65641e68aa2154fdb88bcc387e3dd60203392a2005b34610341576020366003190112610341576004356001600160a01b0381160361034157602060405160008152f35b3461034157600036600319011261034157602060ff60015460081c166040519015158152f35b3461034157610bec36611329565b610c0160018060a01b03601454163314611826565b610c0f60ff600154166117e6565b610c1e60ff600a541615611872565b610c2d60ff600c5416156118b4565b7f28b099eb575e23e32becd7c30dc8f9b2f98e370cdbf9841ea3338d9000402a256040516020815280610c6533946020830190611272565b0390a2005b34610341576020366003190112610341576004356001600160a01b038116908190036103415760005260136020526020604060002054604051908152f35b611249565b3461034157600036600319011261034157602060ff600e54166040519015158152f35b3461034157610cde36611329565b610cf360018060a01b0360125416331461179a565b610d0160ff600154166117e6565b600a5460ff811615610d9857815115610d535760ff1916600a557f2eb59c65a13ffe423f16ef2c7edd21afcde560ef40c04008402e75d5c0b04b2f6040516020815280610c6533946020830190611272565b60405162461bcd60e51b815260206004820152601760248201527f496e76616c696420747261636b696e67206e756d6265720000000000000000006044820152606490fd5b60405162461bcd60e51b8152602060048201526011602482015270457363726f77206e6f742061637469766560781b6044820152606490fd5b3461034157600036600319011261034157602060ff600154166040519015158152f35b3461034157600036600319011261034157600060e0604051610e15816112b2565b606081526060602082015260606040820152606080820152826080820152606060a0820152606060c0820152015260006080604051610e53816112cf565b8281526020810183905260408101839052606081018390520152601254601054600f546014546001600160a01b031691610e8b6113df565b9260405194602086019367ffffffffffffffff94878110868211176104f8576040526000875260405194610ebe866112b2565b610ec66114ca565b8652610ed06113df565b6020870152610edd61157e565b6040870152610eea611632565b606087015260065460808701526007549081116104f85760405190610f1560208260051b01836112eb565b808252602082019060076000527fa66cc928b5edb82af9bd49922954155ab7b0942694bea4ce44661d9a8736c688916000905b82821061112e575050505060a086015260ff9190610f646116e6565b60c08701528260095416151560e0870152610fe460405198610f858a6112cf565b600a5485811615158b5260018060a01b039060081c1660208b0152600b5460408b015284600c54818116151560608d015260081c16151560808b01526103bd6040519960018060a01b0386168b526101a08060208d01528b0190611272565b946060880152608087015260a01c16151560a085015260c084015282810360e084015261105b61104961103761102585516101008652610100860190611272565b60208601518582036020870152611272565b60408501518482036040860152611272565b60608401518382036060850152611272565b6080830151608083015260a08301519082810360a0840152815180825260208201916020808360051b8301019401926000915b8383106111015788808960808d8b60e0806110b58e60c088015185820360c0870152611272565b95015115159101528051151561010085015260208101516001600160a01b0316610120850152604081015161014085015260608101511515610160850152015115156101808301520390f35b909192939460208061111f600193601f198682030187528951611272565b9701930193019193929061108e565b604051600085548060011c9060018116156111fb575b6020821060018216146111e557818452600181169081156111c2575060011461118a575b506001928261117c859460209403826112eb565b815201940191019092610f48565b6000878152602081209092505b8183106111ac57505081016020016001611168565b6001816020925483868801015201920191611197565b60ff191660208581019190915291151560051b8401909101915060019050611168565b634e487b7160e01b600052602260045260246000fd5b90607f1690611144565b34610341576000366003190112610341576020600f54604051908152f35b3461034157600036600319011261034157602060ff60125460a01c166040519015158152f35b34610341576000366003190112610341576012546040516001600160a01b039091168152602090f35b919082519283825260005b84811061129e575050826000602080949584010152601f8019910116010190565b60208183018101518483018201520161127d565b610100810190811067ffffffffffffffff8211176104f857604052565b60a0810190811067ffffffffffffffff8211176104f857604052565b90601f8019910116810190811067ffffffffffffffff8211176104f857604052565b67ffffffffffffffff81116104f857601f01601f191660200190565b60206003198201126103415760043567ffffffffffffffff81116103415781602382011215610341578060040135906113618261130d565b9261136f60405194856112eb565b828452602483830101116103415781600092602460209301838601378301015290565b6016548110156113c95760166000527fd833147d7dc355ba459fc788f669e58cfaf9dc25ddcd0702e87d69c7b51242890190600090565b634e487b7160e01b600052603260045260246000fd5b60405190600060035490600182811c908084169384156114c0575b60209485841081146114ac578388528794939291811561148c575060011461142d575b505061142b925003836112eb565b565b9093915060036000527fc2575a0e9e593c00f959f8c92f12db2869c3395a3b0502d05e2516446f71f85b936000915b81831061147457505061142b9350820101388061141d565b8554888401850152948501948794509183019161145c565b91505061142b94925060ff191682840152151560051b820101388061141d565b634e487b7160e01b85526022600452602485fd5b91607f16916113fa565b60405190600060025490600182811c90808416938415611574575b60209485841081146114ac578388528794939291811561148c575060011461151557505061142b925003836112eb565b9093915060026000527f405787fa12a823e0f2b7631cc41b3ba8828b3321ca811111fa75cd3aa3bb5ace936000915b81831061155c57505061142b9350820101388061141d565b85548884018501529485019487945091830191611544565b91607f16916114e5565b60405190600060045490600182811c90808416938415611628575b60209485841081146114ac578388528794939291811561148c57506001146115c957505061142b925003836112eb565b9093915060046000527f8a35acfbc15ff81a39ae7d344fd709f28e8600b4aa8c65c6b64bfe7fe36bd19b936000915b81831061161057505061142b9350820101388061141d565b855488840185015294850194879450918301916115f8565b91607f1691611599565b60405190600060055490600182811c908084169384156116dc575b60209485841081146114ac578388528794939291811561148c575060011461167d57505061142b925003836112eb565b9093915060056000527f036b6384b5eca791c62761152d0c79bb0604c104a5fb6f4eb0703f3154bb3db0936000915b8183106116c457505061142b9350820101388061141d565b855488840185015294850194879450918301916116ac565b91607f169161164d565b60405190600060085490600182811c90808416938415611790575b60209485841081146114ac578388528794939291811561148c575060011461173157505061142b925003836112eb565b9093915060086000527ff3f7a9fe364faab93b216da50a3214154f22a0a2b415b23a84c8169e8b636ee3936000915b81831061177857505061142b9350820101388061141d565b85548884018501529485019487945091830191611760565b91607f1691611701565b156117a157565b60405162461bcd60e51b815260206004820152601960248201527f4f6e6c792073656c6c65722063616e2063616c6c2074686973000000000000006044820152606490fd5b156117ed57565b60405162461bcd60e51b8152602060048201526011602482015270115cd8dc9bddc81b9bdd08199d5b991959607a1b6044820152606490fd5b1561182d57565b60405162461bcd60e51b815260206004820152601860248201527f4f6e6c792062757965722063616e2063616c6c207468697300000000000000006044820152606490fd5b1561187957565b60405162461bcd60e51b8152602060048201526013602482015272457363726f77207374696c6c2061637469766560681b6044820152606490fd5b156118bb57565b60405162461bcd60e51b8152602060048201526015602482015274125d195b48185b1c9958591e481c9958d95a5d9959605a1b6044820152606490fd5b3d15611923573d906119098261130d565b9161191760405193846112eb565b82523d6000602084013e565b606090565b1561192f57565b60405162461bcd60e51b815260206004820152600f60248201526e151c985b9cd9995c8819985a5b1959608a1b6044820152606490fd5b6015548060011b908082046002149015171561198457612710900490565b634e487b7160e01b600052601160045260246000fdfea2646970667358221220d5478e3aa30c905540b1072c96e0ac2bdd9354cc01d526fa1725ee14f57c6a1d64736f6c63430008140033405787fa12a823e0f2b7631cc41b3ba8828b3321ca811111fa75cd3aa3bb5acea66cc928b5edb82af9bd49922954155ab7b0942694bea4ce44661d9a8736c688f3f7a9fe364faab93b216da50a3214154f22a0a2b415b23a84c8169e8b636ee3","opcodes":"PUSH1 0x80 PUSH1 0x40 MSTORE CALLVALUE PUSH3 0xB15 JUMPI PUSH3 0x2674 DUP1 CODESIZE SUB DUP1 PUSH3 0x1D DUP2 PUSH3 0xB4B JUMP JUMPDEST SWAP3 DUP4 CODECOPY DUP2 ADD SWAP1 PUSH2 0x160 DUP2 DUP4 SUB SLT PUSH3 0xB15 JUMPI DUP1 MLOAD PUSH1 0x20 DUP3 ADD MLOAD PUSH1 0x40 DUP4 ADD MLOAD PUSH1 0x60 DUP5 ADD MLOAD SWAP2 SWAP3 SWAP2 PUSH1 0x1 PUSH1 0x1 PUSH1 0x40 SHL SUB DUP2 GT PUSH3 0xB15 JUMPI DUP6 PUSH3 0x60 SWAP2 DUP7 ADD PUSH3 0xB96 JUMP JUMPDEST PUSH1 0x80 DUP6 ADD MLOAD SWAP1 SWAP2 SWAP1 PUSH1 0x1 PUSH1 0x1 PUSH1 0x40 SHL SUB DUP2 GT PUSH3 0xB15 JUMPI DUP7 PUSH3 0x85 SWAP2 DUP8 ADD PUSH3 0xB96 JUMP JUMPDEST PUSH1 0xA0 DUP7 ADD MLOAD SWAP1 SWAP6 SWAP1 PUSH1 0x1 PUSH1 0x1 PUSH1 0x40 SHL SUB DUP2 GT PUSH3 0xB15 JUMPI DUP8 PUSH3 0xAA SWAP2 DUP4 ADD PUSH3 0xB96 JUMP JUMPDEST PUSH1 0xC0 DUP3 ADD MLOAD SWAP1 SWAP8 SWAP1 PUSH1 0x1 PUSH1 0x1 PUSH1 0x40 SHL SUB DUP2 GT PUSH3 0xB15 JUMPI DUP2 PUSH3 0xCF SWAP2 DUP5 ADD PUSH3 0xB96 JUMP JUMPDEST PUSH1 0xE0 DUP4 ADD MLOAD PUSH2 0x100 DUP5 ADD MLOAD SWAP1 SWAP2 SWAP1 PUSH1 0x1 PUSH1 0x1 PUSH1 0x40 SHL SUB DUP2 GT PUSH3 0xB15 JUMPI DUP5 ADD SWAP3 DUP1 PUSH1 0x1F DUP6 ADD SLT ISZERO PUSH3 0xB15 JUMPI DUP4 MLOAD SWAP4 PUSH1 0x1 PUSH1 0x1 PUSH1 0x40 SHL SUB DUP6 GT PUSH3 0x5BD JUMPI DUP5 PUSH1 0x5 SHL SWAP1 PUSH1 0x20 DUP1 PUSH3 0x122 DUP2 DUP6 ADD PUSH3 0xB4B JUMP JUMPDEST DUP1 SWAP9 DUP2 MSTORE ADD SWAP3 DUP3 ADD ADD SWAP2 DUP4 DUP4 GT PUSH3 0xB15 JUMPI PUSH1 0x20 DUP3 ADD SWAP1 JUMPDEST DUP4 DUP3 LT PUSH3 0xB1A JUMPI POP POP POP POP PUSH2 0x120 DUP6 ADD MLOAD PUSH1 0x1 PUSH1 0x1 PUSH1 0x40 SHL SUB DUP2 GT PUSH3 0xB15 JUMPI PUSH2 0x140 SWAP2 PUSH3 0x16C SWAP2 DUP8 ADD PUSH3 0xB96 JUMP JUMPDEST SWAP5 ADD MLOAD SWAP5 DUP6 ISZERO ISZERO DUP7 SUB PUSH3 0xB15 JUMPI PUSH1 0x1 PUSH1 0xD SSTORE PUSH1 0xFF NOT PUSH1 0xE SLOAD AND PUSH1 0xE SSTORE PUSH1 0x12 SLOAD SWAP1 DUP9 TIMESTAMP ADD DUP1 TIMESTAMP GT PUSH3 0xAFF JUMPI PUSH1 0xF SSTORE PUSH1 0x10 DUP11 SWAP1 SSTORE PUSH1 0x11 SSTORE PUSH1 0x1 PUSH1 0x1 PUSH1 0xA8 SHL SUB NOT AND CALLER PUSH1 0xFF PUSH1 0xA0 SHL NOT AND OR PUSH1 0x12 SSTORE PUSH1 0x40 MLOAD SWAP10 PUSH1 0x1 PUSH1 0x1 PUSH1 0x40 SHL SUB PUSH2 0x100 DUP13 ADD SWAP1 DUP2 GT SWAP1 DUP13 GT OR PUSH3 0x5BD JUMPI PUSH2 0x100 DUP12 ADD PUSH1 0x40 SWAP1 DUP2 MSTORE DUP8 DUP13 MSTORE PUSH1 0x20 DUP13 ADD DUP12 SWAP1 MSTORE DUP12 ADD MSTORE PUSH1 0x60 DUP11 ADD MSTORE PUSH1 0x80 DUP10 ADD MSTORE PUSH1 0xA0 DUP9 ADD MSTORE PUSH1 0xC0 DUP8 ADD MSTORE ISZERO ISZERO PUSH1 0xE0 DUP7 ADD MSTORE DUP1 MLOAD SWAP1 PUSH1 0x1 PUSH1 0x1 PUSH1 0x40 SHL SUB DUP3 GT PUSH3 0x5BD JUMPI DUP2 SWAP1 PUSH3 0x229 PUSH1 0x2 SLOAD PUSH3 0xBED JUMP JUMPDEST PUSH1 0x1F DUP2 GT PUSH3 0xABD JUMPI JUMPDEST POP PUSH1 0x20 SWAP1 PUSH1 0x1F DUP4 GT PUSH1 0x1 EQ PUSH3 0xA3F JUMPI PUSH1 0x0 SWAP3 PUSH3 0xA33 JUMPI JUMPDEST POP POP DUP2 PUSH1 0x1 SHL SWAP2 PUSH1 0x0 NOT SWAP1 PUSH1 0x3 SHL SHR NOT AND OR PUSH1 0x2 SSTORE JUMPDEST PUSH1 0x20 DUP5 ADD MLOAD DUP1 MLOAD SWAP1 PUSH1 0x1 PUSH1 0x1 PUSH1 0x40 SHL SUB DUP3 GT PUSH3 0x5BD JUMPI DUP2 SWAP1 PUSH3 0x288 PUSH1 0x3 SLOAD PUSH3 0xBED JUMP JUMPDEST PUSH1 0x1F DUP2 GT PUSH3 0x9E0 JUMPI JUMPDEST POP PUSH1 0x20 SWAP1 PUSH1 0x1F DUP4 GT PUSH1 0x1 EQ PUSH3 0x951 JUMPI PUSH1 0x0 SWAP3 PUSH3 0x945 JUMPI JUMPDEST POP POP DUP2 PUSH1 0x1 SHL SWAP2 PUSH1 0x0 NOT SWAP1 PUSH1 0x3 SHL SHR NOT AND OR PUSH1 0x3 SSTORE JUMPDEST PUSH1 0x40 DUP5 ADD MLOAD DUP1 MLOAD SWAP1 PUSH1 0x1 PUSH1 0x1 PUSH1 0x40 SHL SUB DUP3 GT PUSH3 0x5BD JUMPI DUP2 SWAP1 PUSH3 0x2E7 PUSH1 0x4 SLOAD PUSH3 0xBED JUMP JUMPDEST PUSH1 0x1F DUP2 GT PUSH3 0x8F2 JUMPI JUMPDEST POP PUSH1 0x20 SWAP1 PUSH1 0x1F DUP4 GT PUSH1 0x1 EQ PUSH3 0x863 JUMPI PUSH1 0x0 SWAP3 PUSH3 0x857 JUMPI JUMPDEST POP POP DUP2 PUSH1 0x1 SHL SWAP2 PUSH1 0x0 NOT SWAP1 PUSH1 0x3 SHL SHR NOT AND OR PUSH1 0x4 SSTORE JUMPDEST PUSH1 0x60 DUP5 ADD MLOAD DUP1 MLOAD SWAP1 PUSH1 0x1 PUSH1 0x1 PUSH1 0x40 SHL SUB DUP3 GT PUSH3 0x5BD JUMPI DUP2 SWAP1 PUSH3 0x346 PUSH1 0x5 SLOAD PUSH3 0xBED JUMP JUMPDEST PUSH1 0x1F DUP2 GT PUSH3 0x820 JUMPI JUMPDEST POP PUSH1 0x20 SWAP1 PUSH1 0x1F DUP4 GT PUSH1 0x1 EQ PUSH3 0x791 JUMPI PUSH1 0x0 SWAP3 PUSH3 0x785 JUMPI JUMPDEST POP POP DUP2 PUSH1 0x1 SHL SWAP2 PUSH1 0x0 NOT SWAP1 PUSH1 0x3 SHL SHR NOT AND OR PUSH1 0x5 SSTORE JUMPDEST PUSH1 0x80 DUP5 ADD MLOAD PUSH1 0x6 SSTORE PUSH1 0xA0 DUP5 ADD MLOAD DUP1 MLOAD SWAP1 PUSH9 0x10000000000000000 DUP3 GT PUSH3 0x5BD JUMPI PUSH1 0x7 SLOAD DUP3 PUSH1 0x7 SSTORE DUP1 DUP4 LT PUSH3 0x6F9 JUMPI JUMPDEST POP PUSH1 0x7 PUSH1 0x0 SWAP1 DUP2 MSTORE PUSH1 0x0 DUP1 MLOAD PUSH1 0x20 PUSH3 0x2634 DUP4 CODECOPY DUP2 MLOAD SWAP2 MSTORE SWAP3 SWAP2 PUSH1 0x20 ADD JUMPDEST DUP3 DUP3 LT PUSH3 0x5D3 JUMPI POP POP POP POP PUSH1 0xC0 DUP5 ADD MLOAD DUP1 MLOAD SWAP1 PUSH1 0x1 PUSH1 0x1 PUSH1 0x40 SHL SUB DUP3 GT PUSH3 0x5BD JUMPI PUSH3 0x3FE PUSH1 0x8 SLOAD PUSH3 0xBED JUMP JUMPDEST PUSH1 0x1F DUP2 GT PUSH3 0x56F JUMPI JUMPDEST POP PUSH1 0x20 SWAP1 PUSH1 0x1F DUP4 GT PUSH1 0x1 EQ PUSH3 0x4CF JUMPI SWAP2 DUP1 PUSH32 0xA3D19677A52B6DFF051E5813011905526090505E00FCEA83C604776AD5EBFD68 SWAP7 SWAP8 SWAP3 PUSH1 0xE0 SWAP5 PUSH1 0x0 SWAP3 PUSH3 0x4C3 JUMPI JUMPDEST POP POP DUP2 PUSH1 0x1 SHL SWAP2 PUSH1 0x0 NOT SWAP1 PUSH1 0x3 SHL SHR NOT AND OR PUSH1 0x8 SSTORE JUMPDEST ADD MLOAD ISZERO ISZERO PUSH1 0xFF DUP1 NOT PUSH1 0x9 SLOAD AND SWAP2 AND OR PUSH1 0x9 SSTORE PUSH1 0x40 MLOAD SWAP2 DUP3 MSTORE PUSH1 0x20 DUP3 ADD MSTORE PUSH1 0x60 PUSH1 0x40 DUP3 ADD MSTORE PUSH3 0x4A0 DUP4 MLOAD DUP1 SWAP5 DUP2 PUSH1 0x60 DUP6 ADD MSTORE PUSH1 0x20 PUSH1 0x80 DUP6 ADD SWAP2 ADD PUSH3 0xB71 JUMP JUMPDEST CALLER SWAP3 PUSH1 0x1F ADD PUSH1 0x1F NOT AND DUP2 ADD DUP2 SWAP1 SUB PUSH1 0x80 ADD SWAP1 LOG2 PUSH1 0x40 MLOAD PUSH2 0x19D0 SWAP1 DUP2 PUSH3 0xC44 DUP3 CODECOPY RETURN JUMPDEST ADD MLOAD SWAP1 POP CODESIZE DUP1 PUSH3 0x44A JUMP JUMPDEST PUSH1 0x8 PUSH1 0x0 SWAP1 DUP2 MSTORE PUSH1 0x0 DUP1 MLOAD PUSH1 0x20 PUSH3 0x2654 DUP4 CODECOPY DUP2 MLOAD SWAP2 MSTORE SWAP3 SWAP2 SWAP1 PUSH1 0x1F NOT DUP6 AND SWAP1 JUMPDEST DUP2 DUP2 LT PUSH3 0x556 JUMPI POP SWAP3 PUSH1 0x1 SWAP3 DUP6 SWAP3 PUSH1 0xE0 SWAP7 PUSH32 0xA3D19677A52B6DFF051E5813011905526090505E00FCEA83C604776AD5EBFD68 SWAP11 SWAP12 SWAP7 LT PUSH3 0x53C JUMPI JUMPDEST POP POP POP DUP2 SHL ADD PUSH1 0x8 SSTORE PUSH3 0x460 JUMP JUMPDEST ADD MLOAD PUSH1 0x0 NOT PUSH1 0xF8 DUP5 PUSH1 0x3 SHL AND SHR NOT AND SWAP1 SSTORE CODESIZE DUP1 DUP1 PUSH3 0x52D JUMP JUMPDEST SWAP3 SWAP4 PUSH1 0x20 PUSH1 0x1 DUP2 SWAP3 DUP8 DUP7 ADD MLOAD DUP2 SSTORE ADD SWAP6 ADD SWAP4 ADD PUSH3 0x4F0 JUMP JUMPDEST PUSH1 0x8 PUSH1 0x0 MSTORE PUSH3 0x5AB SWAP1 PUSH1 0x0 DUP1 MLOAD PUSH1 0x20 PUSH3 0x2654 DUP4 CODECOPY DUP2 MLOAD SWAP2 MSTORE PUSH1 0x1F DUP6 ADD PUSH1 0x5 SHR DUP2 ADD SWAP2 PUSH1 0x20 DUP7 LT PUSH3 0x5B2 JUMPI JUMPDEST PUSH1 0x1F ADD PUSH1 0x5 SHR ADD SWAP1 PUSH3 0xC2A JUMP JUMPDEST CODESIZE PUSH3 0x408 JUMP JUMPDEST SWAP1 SWAP2 POP DUP2 SWAP1 PUSH3 0x59D JUMP JUMPDEST PUSH4 0x4E487B71 PUSH1 0xE0 SHL PUSH1 0x0 MSTORE PUSH1 0x41 PUSH1 0x4 MSTORE PUSH1 0x24 PUSH1 0x0 REVERT JUMPDEST DUP1 MLOAD DUP1 MLOAD SWAP1 PUSH1 0x1 PUSH1 0x1 PUSH1 0x40 SHL SUB DUP3 GT PUSH3 0x5BD JUMPI PUSH3 0x5F3 DUP7 SLOAD PUSH3 0xBED JUMP JUMPDEST PUSH1 0x1F DUP2 GT PUSH3 0x6C3 JUMPI JUMPDEST POP PUSH1 0x20 SWAP1 PUSH1 0x1F DUP4 GT PUSH1 0x1 EQ PUSH3 0x64E JUMPI SWAP3 DUP3 PUSH1 0x1 SWAP5 SWAP4 PUSH1 0x20 SWAP4 DUP7 SWAP6 PUSH1 0x0 SWAP3 PUSH3 0x642 JUMPI JUMPDEST POP POP PUSH1 0x0 NOT PUSH1 0x3 DUP4 SWAP1 SHL SHR NOT AND SWAP1 DUP5 SHL OR DUP8 SSTORE JUMPDEST ADD SWAP5 ADD SWAP2 ADD SWAP1 SWAP3 PUSH3 0x3CE JUMP JUMPDEST ADD MLOAD SWAP1 POP CODESIZE DUP1 PUSH3 0x621 JUMP JUMPDEST SWAP1 DUP7 PUSH1 0x0 MSTORE PUSH1 0x20 PUSH1 0x0 KECCAK256 SWAP2 PUSH1 0x0 JUMPDEST PUSH1 0x1F NOT DUP6 AND DUP2 LT PUSH3 0x6AA JUMPI POP DUP4 PUSH1 0x20 SWAP4 PUSH1 0x1 SWAP7 SWAP4 DUP8 SWAP7 SWAP4 DUP8 SWAP5 PUSH1 0x1F NOT DUP2 AND LT PUSH3 0x690 JUMPI JUMPDEST POP POP POP DUP2 SHL ADD DUP8 SSTORE PUSH3 0x635 JUMP JUMPDEST ADD MLOAD PUSH1 0x0 NOT PUSH1 0xF8 DUP5 PUSH1 0x3 SHL AND SHR NOT AND SWAP1 SSTORE CODESIZE DUP1 DUP1 PUSH3 0x682 JUMP JUMPDEST SWAP2 SWAP3 PUSH1 0x20 PUSH1 0x1 DUP2 SWAP3 DUP7 DUP6 ADD MLOAD DUP2 SSTORE ADD SWAP5 ADD SWAP3 ADD PUSH3 0x65C JUMP JUMPDEST PUSH3 0x6F2 SWAP1 DUP8 PUSH1 0x0 MSTORE PUSH1 0x20 PUSH1 0x0 KECCAK256 PUSH1 0x1F DUP6 ADD PUSH1 0x5 SHR DUP2 ADD SWAP2 PUSH1 0x20 DUP7 LT PUSH3 0x5B2 JUMPI PUSH1 0x1F ADD PUSH1 0x5 SHR ADD SWAP1 PUSH3 0xC2A JUMP JUMPDEST CODESIZE PUSH3 0x5FD JUMP JUMPDEST PUSH1 0x7 PUSH1 0x0 MSTORE PUSH1 0x0 DUP1 MLOAD PUSH1 0x20 PUSH3 0x2634 DUP4 CODECOPY DUP2 MLOAD SWAP2 MSTORE SWAP1 DUP4 DUP3 ADD JUMPDEST DUP2 DUP4 ADD DUP2 LT PUSH3 0x725 JUMPI POP POP PUSH3 0x3B0 JUMP JUMPDEST DUP1 PUSH3 0x734 PUSH1 0x1 SWAP3 SLOAD PUSH3 0xBED JUMP JUMPDEST DUP1 PUSH3 0x743 JUMPI JUMPDEST POP ADD PUSH3 0x713 JUMP JUMPDEST PUSH1 0x1F DUP2 GT DUP4 EQ PUSH3 0x75B JUMPI POP PUSH1 0x0 DUP2 SSTORE JUMPDEST CODESIZE PUSH3 0x73B JUMP JUMPDEST PUSH1 0x0 SWAP1 DUP3 DUP3 MSTORE PUSH3 0x77B PUSH1 0x1F PUSH1 0x20 DUP5 KECCAK256 SWAP3 ADD PUSH1 0x5 SHR DUP3 ADD DUP6 DUP4 ADD PUSH3 0xC2A JUMP JUMPDEST DUP2 DUP4 SSTORE SSTORE PUSH3 0x754 JUMP JUMPDEST ADD MLOAD SWAP1 POP CODESIZE DUP1 PUSH3 0x369 JUMP JUMPDEST PUSH1 0x5 PUSH1 0x0 SWAP1 DUP2 MSTORE SWAP4 POP PUSH32 0x36B6384B5ECA791C62761152D0C79BB0604C104A5FB6F4EB0703F3154BB3DB0 SWAP2 SWAP1 JUMPDEST PUSH1 0x1F NOT DUP5 AND DUP6 LT PUSH3 0x804 JUMPI PUSH1 0x1 SWAP5 POP DUP4 PUSH1 0x1F NOT DUP2 AND LT PUSH3 0x7EA JUMPI JUMPDEST POP POP POP DUP2 SHL ADD PUSH1 0x5 SSTORE PUSH3 0x37F JUMP JUMPDEST ADD MLOAD PUSH1 0x0 NOT PUSH1 0xF8 DUP5 PUSH1 0x3 SHL AND SHR NOT AND SWAP1 SSTORE CODESIZE DUP1 DUP1 PUSH3 0x7DB JUMP JUMPDEST DUP2 DUP2 ADD MLOAD DUP4 SSTORE PUSH1 0x20 SWAP5 DUP6 ADD SWAP5 PUSH1 0x1 SWAP1 SWAP4 ADD SWAP3 SWAP1 SWAP2 ADD SWAP1 PUSH3 0x7BE JUMP JUMPDEST PUSH3 0x850 SWAP1 PUSH1 0x5 PUSH1 0x0 MSTORE PUSH1 0x20 PUSH1 0x0 KECCAK256 PUSH1 0x1F DUP6 ADD PUSH1 0x5 SHR DUP2 ADD SWAP2 PUSH1 0x20 DUP7 LT PUSH3 0x5B2 JUMPI PUSH1 0x1F ADD PUSH1 0x5 SHR ADD SWAP1 PUSH3 0xC2A JUMP JUMPDEST CODESIZE PUSH3 0x350 JUMP JUMPDEST ADD MLOAD SWAP1 POP CODESIZE DUP1 PUSH3 0x30A JUMP JUMPDEST PUSH1 0x4 PUSH1 0x0 SWAP1 DUP2 MSTORE SWAP4 POP PUSH32 0x8A35ACFBC15FF81A39AE7D344FD709F28E8600B4AA8C65C6B64BFE7FE36BD19B SWAP2 SWAP1 JUMPDEST PUSH1 0x1F NOT DUP5 AND DUP6 LT PUSH3 0x8D6 JUMPI PUSH1 0x1 SWAP5 POP DUP4 PUSH1 0x1F NOT DUP2 AND LT PUSH3 0x8BC JUMPI JUMPDEST POP POP POP DUP2 SHL ADD PUSH1 0x4 SSTORE PUSH3 0x320 JUMP JUMPDEST ADD MLOAD PUSH1 0x0 NOT PUSH1 0xF8 DUP5 PUSH1 0x3 SHL AND SHR NOT AND SWAP1 SSTORE CODESIZE DUP1 DUP1 PUSH3 0x8AD JUMP JUMPDEST DUP2 DUP2 ADD MLOAD DUP4 SSTORE PUSH1 0x20 SWAP5 DUP6 ADD SWAP5 PUSH1 0x1 SWAP1 SWAP4 ADD SWAP3 SWAP1 SWAP2 ADD SWAP1 PUSH3 0x890 JUMP JUMPDEST PUSH1 0x4 PUSH1 0x0 MSTORE PUSH3 0x93E SWAP1 PUSH32 0x8A35ACFBC15FF81A39AE7D344FD709F28E8600B4AA8C65C6B64BFE7FE36BD19B PUSH1 0x1F DUP6 ADD PUSH1 0x5 SHR DUP2 ADD SWAP2 PUSH1 0x20 DUP7 LT PUSH3 0x5B2 JUMPI PUSH1 0x1F ADD PUSH1 0x5 SHR ADD SWAP1 PUSH3 0xC2A JUMP JUMPDEST CODESIZE PUSH3 0x2F1 JUMP JUMPDEST ADD MLOAD SWAP1 POP CODESIZE DUP1 PUSH3 0x2AB JUMP JUMPDEST PUSH1 0x3 PUSH1 0x0 SWAP1 DUP2 MSTORE SWAP4 POP PUSH32 0xC2575A0E9E593C00F959F8C92F12DB2869C3395A3B0502D05E2516446F71F85B SWAP2 SWAP1 JUMPDEST PUSH1 0x1F NOT DUP5 AND DUP6 LT PUSH3 0x9C4 JUMPI PUSH1 0x1 SWAP5 POP DUP4 PUSH1 0x1F NOT DUP2 AND LT PUSH3 0x9AA JUMPI JUMPDEST POP POP POP DUP2 SHL ADD PUSH1 0x3 SSTORE PUSH3 0x2C1 JUMP JUMPDEST ADD MLOAD PUSH1 0x0 NOT PUSH1 0xF8 DUP5 PUSH1 0x3 SHL AND SHR NOT AND SWAP1 SSTORE CODESIZE DUP1 DUP1 PUSH3 0x99B JUMP JUMPDEST DUP2 DUP2 ADD MLOAD DUP4 SSTORE PUSH1 0x20 SWAP5 DUP6 ADD SWAP5 PUSH1 0x1 SWAP1 SWAP4 ADD SWAP3 SWAP1 SWAP2 ADD SWAP1 PUSH3 0x97E JUMP JUMPDEST PUSH1 0x3 PUSH1 0x0 MSTORE PUSH3 0xA2C SWAP1 PUSH32 0xC2575A0E9E593C00F959F8C92F12DB2869C3395A3B0502D05E2516446F71F85B PUSH1 0x1F DUP6 ADD PUSH1 0x5 SHR DUP2 ADD SWAP2 PUSH1 0x20 DUP7 LT PUSH3 0x5B2 JUMPI PUSH1 0x1F ADD PUSH1 0x5 SHR ADD SWAP1 PUSH3 0xC2A JUMP JUMPDEST CODESIZE PUSH3 0x292 JUMP JUMPDEST ADD MLOAD SWAP1 POP CODESIZE DUP1 PUSH3 0x24C JUMP JUMPDEST PUSH1 0x2 PUSH1 0x0 SWAP1 DUP2 MSTORE SWAP4 POP PUSH1 0x0 DUP1 MLOAD PUSH1 0x20 PUSH3 0x2614 DUP4 CODECOPY DUP2 MLOAD SWAP2 MSTORE SWAP2 SWAP1 JUMPDEST PUSH1 0x1F NOT DUP5 AND DUP6 LT PUSH3 0xAA1 JUMPI PUSH1 0x1 SWAP5 POP DUP4 PUSH1 0x1F NOT DUP2 AND LT PUSH3 0xA87 JUMPI JUMPDEST POP POP POP DUP2 SHL ADD PUSH1 0x2 SSTORE PUSH3 0x262 JUMP JUMPDEST ADD MLOAD PUSH1 0x0 NOT PUSH1 0xF8 DUP5 PUSH1 0x3 SHL AND SHR NOT AND SWAP1 SSTORE CODESIZE DUP1 DUP1 PUSH3 0xA78 JUMP JUMPDEST DUP2 DUP2 ADD MLOAD DUP4 SSTORE PUSH1 0x20 SWAP5 DUP6 ADD SWAP5 PUSH1 0x1 SWAP1 SWAP4 ADD SWAP3 SWAP1 SWAP2 ADD SWAP1 PUSH3 0xA5B JUMP JUMPDEST PUSH1 0x2 PUSH1 0x0 MSTORE PUSH3 0xAF8 SWAP1 PUSH1 0x0 DUP1 MLOAD PUSH1 0x20 PUSH3 0x2614 DUP4 CODECOPY DUP2 MLOAD SWAP2 MSTORE PUSH1 0x1F DUP6 ADD PUSH1 0x5 SHR DUP2 ADD SWAP2 PUSH1 0x20 DUP7 LT PUSH3 0x5B2 JUMPI PUSH1 0x1F ADD PUSH1 0x5 SHR ADD SWAP1 PUSH3 0xC2A JUMP JUMPDEST CODESIZE PUSH3 0x233 JUMP JUMPDEST PUSH4 0x4E487B71 PUSH1 0xE0 SHL PUSH1 0x0 MSTORE PUSH1 0x11 PUSH1 0x4 MSTORE PUSH1 0x24 PUSH1 0x0 REVERT JUMPDEST PUSH1 0x0 DUP1 REVERT JUMPDEST DUP2 MLOAD PUSH1 0x1 PUSH1 0x1 PUSH1 0x40 SHL SUB DUP2 GT PUSH3 0xB15 JUMPI PUSH1 0x20 SWAP2 PUSH3 0xB3F DUP8 DUP5 DUP1 SWAP5 DUP9 ADD ADD PUSH3 0xB96 JUMP JUMPDEST DUP2 MSTORE ADD SWAP2 ADD SWAP1 PUSH3 0x13A JUMP JUMPDEST PUSH1 0x40 MLOAD SWAP2 SWAP1 PUSH1 0x1F ADD PUSH1 0x1F NOT AND DUP3 ADD PUSH1 0x1 PUSH1 0x1 PUSH1 0x40 SHL SUB DUP2 GT DUP4 DUP3 LT OR PUSH3 0x5BD JUMPI PUSH1 0x40 MSTORE JUMP JUMPDEST PUSH1 0x0 JUMPDEST DUP4 DUP2 LT PUSH3 0xB85 JUMPI POP POP PUSH1 0x0 SWAP2 ADD MSTORE JUMP JUMPDEST DUP2 DUP2 ADD MLOAD DUP4 DUP3 ADD MSTORE PUSH1 0x20 ADD PUSH3 0xB74 JUMP JUMPDEST DUP2 PUSH1 0x1F DUP3 ADD SLT ISZERO PUSH3 0xB15 JUMPI DUP1 MLOAD PUSH1 0x1 PUSH1 0x1 PUSH1 0x40 SHL SUB DUP2 GT PUSH3 0x5BD JUMPI PUSH3 0xBC8 PUSH1 0x1F DUP3 ADD PUSH1 0x1F NOT AND PUSH1 0x20 ADD PUSH3 0xB4B JUMP JUMPDEST SWAP3 DUP2 DUP5 MSTORE PUSH1 0x20 DUP3 DUP5 ADD ADD GT PUSH3 0xB15 JUMPI PUSH3 0xBEA SWAP2 PUSH1 0x20 DUP1 DUP6 ADD SWAP2 ADD PUSH3 0xB71 JUMP JUMPDEST SWAP1 JUMP JUMPDEST SWAP1 PUSH1 0x1 DUP3 DUP2 SHR SWAP3 AND DUP1 ISZERO PUSH3 0xC1F JUMPI JUMPDEST PUSH1 0x20 DUP4 LT EQ PUSH3 0xC09 JUMPI JUMP JUMPDEST PUSH4 0x4E487B71 PUSH1 0xE0 SHL PUSH1 0x0 MSTORE PUSH1 0x22 PUSH1 0x4 MSTORE PUSH1 0x24 PUSH1 0x0 REVERT JUMPDEST SWAP2 PUSH1 0x7F AND SWAP2 PUSH3 0xBFD JUMP JUMPDEST DUP2 DUP2 LT PUSH3 0xC36 JUMPI POP POP JUMP JUMPDEST PUSH1 0x0 DUP2 SSTORE PUSH1 0x1 ADD PUSH3 0xC2A JUMP INVALID PUSH1 0x80 PUSH1 0x40 MSTORE PUSH1 0x4 CALLDATASIZE LT ISZERO PUSH2 0x12 JUMPI PUSH1 0x0 DUP1 REVERT JUMPDEST PUSH1 0x0 CALLDATALOAD PUSH1 0xE0 SHR DUP1 PUSH4 0x8551A53 EQ PUSH2 0x1249 JUMPI DUP1 PUSH4 0x12FA6FEB EQ PUSH2 0x1223 JUMPI DUP1 PUSH4 0x3197CBB6 EQ PUSH2 0x1205 JUMPI DUP1 PUSH4 0x3A6DCEA2 EQ PUSH2 0xDF4 JUMPI DUP1 PUSH4 0x4BD25C6F EQ PUSH2 0x68F JUMPI DUP1 PUSH4 0x562E4D38 EQ PUSH2 0xDD1 JUMPI DUP1 PUSH4 0x56EEC68D EQ PUSH2 0xCD0 JUMPI DUP1 PUSH4 0x5C975ABB EQ PUSH2 0xCAD JUMPI DUP1 PUSH4 0x5EC2C7BF EQ PUSH2 0xCA8 JUMPI DUP1 PUSH4 0x62EA82DB EQ PUSH2 0xC6A JUMPI DUP1 PUSH4 0x725A3B4B EQ PUSH2 0xBDE JUMPI DUP1 PUSH4 0x7B499FAA EQ PUSH2 0xBB8 JUMPI DUP1 PUSH4 0x842A77D3 EQ PUSH2 0xB8A JUMPI DUP1 PUSH4 0x88E7E366 EQ PUSH2 0xA4C JUMPI DUP1 PUSH4 0xA5D737AC EQ PUSH2 0x917 JUMPI DUP1 PUSH4 0xA5E845B4 EQ PUSH2 0x8F4 JUMPI DUP1 PUSH4 0xAB72BF32 EQ PUSH2 0x8D6 JUMPI DUP1 PUSH4 0xCFF29DFD EQ PUSH2 0x894 JUMPI DUP1 PUSH4 0xD57BDE79 EQ PUSH2 0x876 JUMPI DUP1 PUSH4 0xD6FBF202 EQ PUSH2 0x68F JUMPI DUP1 PUSH4 0xD8461182 EQ PUSH2 0x768 JUMPI DUP1 PUSH4 0xDB2E1EED EQ PUSH2 0x74A JUMPI DUP1 PUSH4 0xDFBF53AE EQ PUSH2 0x721 JUMPI DUP1 PUSH4 0xE11E1B0C EQ PUSH2 0x703 JUMPI DUP1 PUSH4 0xE2FDCC17 EQ PUSH2 0x6AD JUMPI DUP1 PUSH4 0xEB91D37E EQ PUSH2 0x68F JUMPI DUP1 PUSH4 0xECFC7ECC EQ PUSH2 0x3F8 JUMPI DUP1 PUSH4 0xF2A4A82E EQ PUSH2 0x346 JUMPI PUSH4 0xFE67A54B EQ PUSH2 0x15B JUMPI PUSH1 0x0 DUP1 REVERT JUMPDEST CALLVALUE PUSH2 0x341 JUMPI PUSH1 0x0 CALLDATASIZE PUSH1 0x3 NOT ADD SLT PUSH2 0x341 JUMPI PUSH1 0x12 SLOAD PUSH1 0xFF DUP2 PUSH1 0xA0 SHR AND PUSH2 0x304 JUMPI PUSH1 0xF SLOAD TIMESTAMP LT PUSH2 0x2C8 JUMPI PUSH1 0xFF PUSH1 0xA0 SHL NOT DUP2 AND PUSH1 0x1 PUSH1 0xA0 SHL OR PUSH1 0x12 SSTORE PUSH1 0x15 SLOAD PUSH1 0x11 SLOAD SWAP1 SWAP2 SWAP1 DUP3 LT ISZERO PUSH2 0x1DF JUMPI JUMPDEST PUSH1 0x1 DUP1 PUSH1 0xA0 SHL SUB PUSH1 0x14 SLOAD AND PUSH32 0xDAEC4582D5D9595688C8C98545FDD1C696D41C6AEAEB636737E84ED2F5C00EDA PUSH1 0x20 PUSH1 0x15 SLOAD PUSH1 0x40 MLOAD SWAP1 DUP2 MSTORE LOG2 STOP JUMPDEST PUSH1 0x9 SLOAD PUSH1 0xFF AND ISZERO PUSH2 0x293 JUMPI POP POP PUSH2 0x1F4 PUSH2 0x1966 JUMP JUMPDEST PUSH1 0x0 PUSH1 0x80 PUSH1 0x40 MLOAD PUSH2 0x204 DUP2 PUSH2 0x12CF JUMP JUMPDEST PUSH1 0x1 DUP2 MSTORE ADDRESS PUSH1 0x20 DUP3 ADD MSTORE DUP4 PUSH1 0x40 DUP3 ADD MSTORE DUP3 PUSH1 0x60 DUP3 ADD MSTORE ADD MSTORE PUSH32 0x137FB716243BB1721111512A26C6A2D922E0BF3022DF1EA74C7EF10AB3BC0DC7 PUSH1 0x20 PUSH1 0x1 PUSH1 0xA SLOAD PUSH2 0x100 DUP3 PUSH1 0xA8 SHL SUB ADDRESS PUSH1 0x8 SHL AND SWAP1 PUSH11 0xFFFFFFFFFFFFFFFFFFFFFF PUSH1 0xA8 SHL AND OR OR DUP1 PUSH1 0xA SSTORE DUP4 PUSH1 0xB SSTORE PUSH2 0xFFFF NOT PUSH1 0xC SLOAD AND PUSH1 0xC SSTORE PUSH1 0x40 MLOAD SWAP4 DUP5 MSTORE PUSH1 0x1 DUP1 PUSH1 0xA0 SHL SUB SWAP1 PUSH1 0x8 SHR AND SWAP3 LOG2 JUMPDEST CODESIZE DUP1 PUSH2 0x1A5 JUMP JUMPDEST PUSH1 0x0 DUP1 DUP1 SWAP4 DUP2 SWAP4 DUP3 SWAP1 DUP3 ISZERO PUSH2 0x2BE JUMPI JUMPDEST PUSH1 0x1 PUSH1 0x1 PUSH1 0xA0 SHL SUB AND SWAP1 CALL PUSH2 0x28C JUMPI PUSH1 0x40 MLOAD RETURNDATASIZE PUSH1 0x0 DUP3 RETURNDATACOPY RETURNDATASIZE SWAP1 REVERT JUMPDEST PUSH2 0x8FC SWAP2 POP PUSH2 0x2A3 JUMP JUMPDEST PUSH1 0x40 MLOAD PUSH3 0x461BCD PUSH1 0xE5 SHL DUP2 MSTORE PUSH1 0x20 PUSH1 0x4 DUP3 ADD MSTORE PUSH1 0x14 PUSH1 0x24 DUP3 ADD MSTORE PUSH20 0x41756374696F6E207374696C6C20616374697665 PUSH1 0x60 SHL PUSH1 0x44 DUP3 ADD MSTORE PUSH1 0x64 SWAP1 REVERT JUMPDEST PUSH1 0x40 MLOAD PUSH3 0x461BCD PUSH1 0xE5 SHL DUP2 MSTORE PUSH1 0x20 PUSH1 0x4 DUP3 ADD MSTORE PUSH1 0x15 PUSH1 0x24 DUP3 ADD MSTORE PUSH21 0x105D58DD1A5BDB88185B1C9958591E48195B991959 PUSH1 0x5A SHL PUSH1 0x44 DUP3 ADD MSTORE PUSH1 0x64 SWAP1 REVERT JUMPDEST PUSH1 0x0 DUP1 REVERT JUMPDEST CALLVALUE PUSH2 0x341 JUMPI PUSH1 0x0 CALLDATASIZE PUSH1 0x3 NOT ADD SLT PUSH2 0x341 JUMPI PUSH2 0x3AF PUSH2 0x362 PUSH2 0x14CA JUMP JUMPDEST PUSH2 0x36A PUSH2 0x13DF JUMP JUMPDEST PUSH2 0x3EC PUSH2 0x375 PUSH2 0x157E JUMP JUMPDEST PUSH2 0x37D PUSH2 0x1632 JUMP JUMPDEST SWAP1 PUSH2 0x3D9 PUSH1 0x6 SLOAD SWAP3 PUSH2 0x3CB PUSH2 0x390 PUSH2 0x16E6 JUMP JUMPDEST SWAP4 PUSH2 0x3BD PUSH1 0xFF PUSH1 0x9 SLOAD AND SWAP9 PUSH1 0x40 MLOAD SWAP12 DUP13 SWAP12 PUSH1 0xE0 DUP14 MSTORE PUSH1 0xE0 DUP14 ADD SWAP1 PUSH2 0x1272 JUMP JUMPDEST SWAP1 DUP12 DUP3 SUB PUSH1 0x20 DUP14 ADD MSTORE PUSH2 0x1272 JUMP JUMPDEST SWAP1 DUP10 DUP3 SUB PUSH1 0x40 DUP12 ADD MSTORE PUSH2 0x1272 JUMP JUMPDEST SWAP1 DUP8 DUP3 SUB PUSH1 0x60 DUP10 ADD MSTORE PUSH2 0x1272 JUMP JUMPDEST SWAP2 PUSH1 0x80 DUP7 ADD MSTORE DUP5 DUP3 SUB PUSH1 0xA0 DUP7 ADD MSTORE PUSH2 0x1272 JUMP JUMPDEST SWAP1 ISZERO ISZERO PUSH1 0xC0 DUP4 ADD MSTORE SUB SWAP1 RETURN JUMPDEST PUSH1 0x0 CALLDATASIZE PUSH1 0x3 NOT ADD SLT PUSH2 0x341 JUMPI PUSH1 0x2 PUSH1 0xD SLOAD EQ PUSH2 0x64A JUMPI PUSH1 0x2 PUSH1 0xD SSTORE PUSH1 0xFF PUSH1 0xE SLOAD AND PUSH2 0x612 JUMPI PUSH1 0xFF PUSH1 0x12 SLOAD PUSH1 0xA0 SHR AND PUSH2 0x5D9 JUMPI PUSH1 0xF SLOAD TIMESTAMP LT ISZERO PUSH2 0x59E JUMPI PUSH1 0x10 SLOAD CALLVALUE LT PUSH2 0x54A JUMPI CALLER PUSH1 0x0 MSTORE PUSH1 0x13 PUSH1 0x20 MSTORE PUSH1 0x40 PUSH1 0x0 KECCAK256 SLOAD PUSH2 0x50E JUMPI CALLER PUSH1 0x0 MSTORE PUSH1 0x13 PUSH1 0x20 MSTORE CALLVALUE PUSH1 0x40 PUSH1 0x0 KECCAK256 SSTORE PUSH1 0x16 SLOAD PUSH9 0x10000000000000000 DUP2 LT ISZERO PUSH2 0x4F8 JUMPI DUP1 PUSH1 0x1 PUSH2 0x484 SWAP3 ADD PUSH1 0x16 SSTORE PUSH2 0x1392 JUMP JUMPDEST DUP2 SLOAD PUSH1 0x1 PUSH1 0x1 PUSH1 0xA0 SHL SUB PUSH1 0x3 SWAP3 SWAP1 SWAP3 SHL SWAP2 DUP3 SHL NOT AND CALLER SWAP1 SWAP2 SHL OR SWAP1 SSTORE PUSH1 0x15 SLOAD CALLVALUE GT PUSH2 0x4DD JUMPI JUMPDEST PUSH1 0x40 MLOAD CALLVALUE DUP2 MSTORE PUSH32 0x3FABFF0A9C3ECD6814702E247FA9733E5D0AA69E3A38590F92CB18F623A2254D PUSH1 0x20 CALLER SWAP3 LOG2 PUSH1 0x1 PUSH1 0xD SSTORE STOP JUMPDEST PUSH1 0x14 DUP1 SLOAD PUSH1 0x1 PUSH1 0x1 PUSH1 0xA0 SHL SUB NOT AND CALLER OR SWAP1 SSTORE CALLVALUE PUSH1 0x15 SSTORE PUSH2 0x4AA JUMP JUMPDEST PUSH4 0x4E487B71 PUSH1 0xE0 SHL PUSH1 0x0 MSTORE PUSH1 0x41 PUSH1 0x4 MSTORE PUSH1 0x24 PUSH1 0x0 REVERT JUMPDEST PUSH1 0x40 MLOAD PUSH3 0x461BCD PUSH1 0xE5 SHL DUP2 MSTORE PUSH1 0x20 PUSH1 0x4 DUP3 ADD MSTORE PUSH1 0x14 PUSH1 0x24 DUP3 ADD MSTORE PUSH20 0x105B1C9958591E481C1B1858D959081848189A59 PUSH1 0x62 SHL PUSH1 0x44 DUP3 ADD MSTORE PUSH1 0x64 SWAP1 REVERT JUMPDEST PUSH1 0x40 MLOAD PUSH3 0x461BCD PUSH1 0xE5 SHL DUP2 MSTORE PUSH1 0x20 PUSH1 0x4 DUP3 ADD MSTORE PUSH1 0x26 PUSH1 0x24 DUP3 ADD MSTORE PUSH32 0x426964206D757374206D656574206F7220657863656564207374617274696E67 PUSH1 0x44 DUP3 ADD MSTORE PUSH6 0x207072696365 PUSH1 0xD0 SHL PUSH1 0x64 DUP3 ADD MSTORE PUSH1 0x84 SWAP1 REVERT JUMPDEST PUSH1 0x40 MLOAD PUSH3 0x461BCD PUSH1 0xE5 SHL DUP2 MSTORE PUSH1 0x20 PUSH1 0x4 DUP3 ADD MSTORE PUSH1 0x13 PUSH1 0x24 DUP3 ADD MSTORE PUSH19 0x105D58DD1A5BDB881A185CC8195E1C1A5C9959 PUSH1 0x6A SHL PUSH1 0x44 DUP3 ADD MSTORE PUSH1 0x64 SWAP1 REVERT JUMPDEST PUSH1 0x40 MLOAD PUSH3 0x461BCD PUSH1 0xE5 SHL DUP2 MSTORE PUSH1 0x20 PUSH1 0x4 DUP3 ADD MSTORE PUSH1 0x11 PUSH1 0x24 DUP3 ADD MSTORE PUSH17 0x105D58DD1A5BDB881A185CC8195B991959 PUSH1 0x7A SHL PUSH1 0x44 DUP3 ADD MSTORE PUSH1 0x64 SWAP1 REVERT JUMPDEST PUSH1 0x40 MLOAD PUSH3 0x461BCD PUSH1 0xE5 SHL DUP2 MSTORE PUSH1 0x20 PUSH1 0x4 DUP3 ADD MSTORE PUSH1 0x10 PUSH1 0x24 DUP3 ADD MSTORE PUSH16 0x14185D5CD8589B194E881C185D5CD959 PUSH1 0x82 SHL PUSH1 0x44 DUP3 ADD MSTORE PUSH1 0x64 SWAP1 REVERT JUMPDEST PUSH1 0x40 MLOAD PUSH3 0x461BCD PUSH1 0xE5 SHL DUP2 MSTORE PUSH1 0x20 PUSH1 0x4 DUP3 ADD MSTORE PUSH1 0x1F PUSH1 0x24 DUP3 ADD MSTORE PUSH32 0x5265656E7472616E637947756172643A207265656E7472616E742063616C6C00 PUSH1 0x44 DUP3 ADD MSTORE PUSH1 0x64 SWAP1 REVERT JUMPDEST CALLVALUE PUSH2 0x341 JUMPI PUSH1 0x0 CALLDATASIZE PUSH1 0x3 NOT ADD SLT PUSH2 0x341 JUMPI PUSH1 0x20 PUSH1 0x10 SLOAD PUSH1 0x40 MLOAD SWAP1 DUP2 MSTORE RETURN JUMPDEST CALLVALUE PUSH2 0x341 JUMPI PUSH1 0x0 CALLDATASIZE PUSH1 0x3 NOT ADD SLT PUSH2 0x341 JUMPI PUSH1 0xA0 PUSH1 0xA SLOAD PUSH1 0xFF PUSH1 0xB SLOAD PUSH1 0xC SLOAD SWAP1 PUSH1 0x40 MLOAD SWAP4 DUP4 DUP2 AND ISZERO ISZERO DUP6 MSTORE PUSH1 0x1 DUP1 DUP8 SHL SUB SWAP1 PUSH1 0x8 SHR AND PUSH1 0x20 DUP6 ADD MSTORE PUSH1 0x40 DUP5 ADD MSTORE DUP2 DUP2 AND ISZERO ISZERO PUSH1 0x60 DUP5 ADD MSTORE PUSH1 0x8 SHR AND ISZERO ISZERO PUSH1 0x80 DUP3 ADD MSTORE RETURN JUMPDEST CALLVALUE PUSH2 0x341 JUMPI PUSH1 0x0 CALLDATASIZE PUSH1 0x3 NOT ADD SLT PUSH2 0x341 JUMPI PUSH1 0x20 PUSH1 0x0 SLOAD PUSH1 0x40 MLOAD SWAP1 DUP2 MSTORE RETURN JUMPDEST CALLVALUE PUSH2 0x341 JUMPI PUSH1 0x0 CALLDATASIZE PUSH1 0x3 NOT ADD SLT PUSH2 0x341 JUMPI PUSH1 0x14 SLOAD PUSH1 0x40 MLOAD PUSH1 0x1 PUSH1 0x1 PUSH1 0xA0 SHL SUB SWAP1 SWAP2 AND DUP2 MSTORE PUSH1 0x20 SWAP1 RETURN JUMPDEST CALLVALUE PUSH2 0x341 JUMPI PUSH1 0x0 CALLDATASIZE PUSH1 0x3 NOT ADD SLT PUSH2 0x341 JUMPI PUSH1 0x20 PUSH1 0x11 SLOAD PUSH1 0x40 MLOAD SWAP1 DUP2 MSTORE RETURN JUMPDEST CALLVALUE PUSH2 0x341 JUMPI PUSH1 0x20 CALLDATASIZE PUSH1 0x3 NOT ADD SLT PUSH2 0x341 JUMPI PUSH1 0x4 CALLDATALOAD PUSH1 0x1 PUSH1 0x1 PUSH1 0xA0 SHL SUB DUP2 DUP2 AND SWAP2 DUP3 SWAP1 SUB PUSH2 0x341 JUMPI PUSH2 0x79E SWAP1 PUSH1 0x12 SLOAD AND CALLER EQ PUSH2 0x179A JUMP JUMPDEST PUSH2 0x7AC PUSH1 0xFF PUSH1 0x1 SLOAD AND PUSH2 0x17E6 JUMP JUMPDEST PUSH2 0x7BB PUSH1 0xFF PUSH1 0xA SLOAD AND ISZERO PUSH2 0x1872 JUMP JUMPDEST PUSH1 0xC SLOAD PUSH2 0x7CB PUSH1 0xFF DUP3 AND ISZERO PUSH2 0x18B4 JUMP JUMPDEST PUSH1 0xFF DUP2 PUSH1 0x8 SHR AND PUSH2 0x831 JUMPI PUSH1 0x20 PUSH32 0xF396531FAD1D4DC2CD92386CDEA800C92A507F8FE1BDB80313EB32A57481B1DC SWAP2 PUSH2 0x100 PUSH1 0x0 SLOAD SWAP2 PUSH1 0x0 DUP1 SSTORE PUSH2 0xFF00 NOT AND OR PUSH1 0xC SSTORE PUSH2 0x828 PUSH1 0x0 DUP1 DUP1 DUP1 DUP6 DUP10 GAS CALL PUSH2 0x822 PUSH2 0x18F8 JUMP JUMPDEST POP PUSH2 0x1928 JUMP JUMPDEST PUSH1 0x40 MLOAD SWAP1 DUP2 MSTORE LOG2 STOP JUMPDEST PUSH1 0x40 MLOAD PUSH3 0x461BCD PUSH1 0xE5 SHL DUP2 MSTORE PUSH1 0x20 PUSH1 0x4 DUP3 ADD MSTORE PUSH1 0x18 PUSH1 0x24 DUP3 ADD MSTORE PUSH32 0x5061796D656E7420616C72656164792072656C65617365640000000000000000 PUSH1 0x44 DUP3 ADD MSTORE PUSH1 0x64 SWAP1 REVERT JUMPDEST CALLVALUE PUSH2 0x341 JUMPI PUSH1 0x0 CALLDATASIZE PUSH1 0x3 NOT ADD SLT PUSH2 0x341 JUMPI PUSH1 0x20 PUSH1 0x15 SLOAD PUSH1 0x40 MLOAD SWAP1 DUP2 MSTORE RETURN JUMPDEST CALLVALUE PUSH2 0x341 JUMPI PUSH1 0x20 CALLDATASIZE PUSH1 0x3 NOT ADD SLT PUSH2 0x341 JUMPI PUSH1 0x4 CALLDATALOAD PUSH1 0x16 SLOAD DUP2 LT ISZERO PUSH2 0x341 JUMPI PUSH2 0x8BD PUSH1 0x20 SWAP2 PUSH2 0x1392 JUMP JUMPDEST SWAP1 SLOAD PUSH1 0x40 MLOAD PUSH1 0x3 SWAP3 SWAP1 SWAP3 SHL SHR PUSH1 0x1 PUSH1 0x1 PUSH1 0xA0 SHL SUB AND DUP2 MSTORE RETURN JUMPDEST CALLVALUE PUSH2 0x341 JUMPI PUSH1 0x0 CALLDATASIZE PUSH1 0x3 NOT ADD SLT PUSH2 0x341 JUMPI PUSH1 0x20 PUSH1 0x16 SLOAD PUSH1 0x40 MLOAD SWAP1 DUP2 MSTORE RETURN JUMPDEST CALLVALUE PUSH2 0x341 JUMPI PUSH1 0x0 CALLDATASIZE PUSH1 0x3 NOT ADD SLT PUSH2 0x341 JUMPI PUSH1 0x20 PUSH2 0x90F PUSH2 0x1966 JUMP JUMPDEST PUSH1 0x40 MLOAD SWAP1 DUP2 MSTORE RETURN JUMPDEST PUSH1 0x0 CALLDATASIZE PUSH1 0x3 NOT ADD SLT PUSH2 0x341 JUMPI PUSH2 0x938 PUSH1 0x1 DUP1 PUSH1 0xA0 SHL SUB PUSH1 0x12 SLOAD AND CALLER EQ PUSH2 0x179A JUMP JUMPDEST PUSH1 0x1 SLOAD PUSH1 0xFF DUP2 AND PUSH2 0xA0F JUMPI CALLVALUE ISZERO PUSH2 0x9DA JUMPI PUSH2 0x951 PUSH2 0x1966 JUMP JUMPDEST SWAP1 DUP2 CALLVALUE LT PUSH2 0x995 JUMPI DUP2 PUSH1 0x1 PUSH1 0x20 SWAP3 PUSH32 0x3B4F5A74452CDDB80AE5A0D279EB7DB6AFD5E556E72CA2883016B1DA7C9D2116 SWAP5 PUSH1 0x0 SSTORE PUSH1 0xFF NOT AND OR PUSH1 0x1 SSTORE PUSH1 0x40 MLOAD SWAP1 DUP2 MSTORE LOG1 STOP JUMPDEST PUSH1 0x40 MLOAD PUSH3 0x461BCD PUSH1 0xE5 SHL DUP2 MSTORE PUSH1 0x20 PUSH1 0x4 DUP3 ADD MSTORE PUSH1 0x1A PUSH1 0x24 DUP3 ADD MSTORE PUSH32 0x496E73756666696369656E7420657363726F7720616D6F756E74000000000000 PUSH1 0x44 DUP3 ADD MSTORE PUSH1 0x64 SWAP1 REVERT JUMPDEST PUSH1 0x40 MLOAD PUSH3 0x461BCD PUSH1 0xE5 SHL DUP2 MSTORE PUSH1 0x20 PUSH1 0x4 DUP3 ADD MSTORE PUSH1 0xD PUSH1 0x24 DUP3 ADD MSTORE PUSH13 0x9AEAE6E840E6CADCC8408AA89 PUSH1 0x9B SHL PUSH1 0x44 DUP3 ADD MSTORE PUSH1 0x64 SWAP1 REVERT JUMPDEST PUSH1 0x40 MLOAD PUSH3 0x461BCD PUSH1 0xE5 SHL DUP2 MSTORE PUSH1 0x20 PUSH1 0x4 DUP3 ADD MSTORE PUSH1 0x15 PUSH1 0x24 DUP3 ADD MSTORE PUSH21 0x115CD8DC9BDDC8185B1C9958591E48199D5B991959 PUSH1 0x5A SHL PUSH1 0x44 DUP3 ADD MSTORE PUSH1 0x64 SWAP1 REVERT JUMPDEST CALLVALUE PUSH2 0x341 JUMPI PUSH1 0x20 CALLDATASIZE PUSH1 0x3 NOT ADD SLT PUSH2 0x341 JUMPI PUSH1 0x4 CALLDATALOAD DUP1 ISZERO ISZERO SWAP1 DUP2 DUP2 SUB PUSH2 0x341 JUMPI PUSH1 0x14 SLOAD PUSH1 0x1 PUSH1 0x1 PUSH1 0xA0 SHL SUB SWAP3 SWAP1 PUSH2 0xA85 SWAP1 DUP5 AND CALLER EQ PUSH2 0x1826 JUMP JUMPDEST PUSH2 0xA93 PUSH1 0xFF PUSH1 0x1 SLOAD AND PUSH2 0x17E6 JUMP JUMPDEST PUSH2 0xAA2 PUSH1 0xFF PUSH1 0xA SLOAD AND ISZERO PUSH2 0x1872 JUMP JUMPDEST PUSH2 0x101 PUSH1 0xC SLOAD PUSH2 0xAB5 PUSH1 0xFF DUP3 AND ISZERO PUSH2 0x18B4 JUMP JUMPDEST PUSH2 0xFFFF NOT AND OR PUSH1 0xC SSTORE PUSH1 0x40 MLOAD SWAP1 DUP2 MSTORE PUSH32 0x27A5CCC16BE6802BCEC7C2477A2B588A54C808352EF7DAB930058F65864B3CE9 PUSH1 0x20 CALLER SWAP3 LOG2 ISZERO PUSH2 0xB40 JUMPI PUSH32 0xE327B247066BDF32CF2493778E3FCE4339B69C1E379A3B0DC780779BF67FE155 PUSH1 0x20 PUSH1 0x0 SLOAD SWAP3 PUSH1 0x0 DUP1 SSTORE PUSH2 0xB32 PUSH1 0x0 DUP1 DUP1 DUP1 DUP9 DUP7 PUSH1 0x12 SLOAD AND GAS CALL PUSH2 0x822 PUSH2 0x18F8 JUMP JUMPDEST PUSH1 0x12 SLOAD AND SWAP3 PUSH1 0x40 MLOAD SWAP1 DUP2 MSTORE LOG2 STOP JUMPDEST POP PUSH1 0x0 SLOAD PUSH1 0x0 DUP1 SSTORE PUSH2 0xB5C PUSH1 0x0 DUP1 DUP1 DUP1 DUP6 CALLER GAS CALL PUSH2 0x822 PUSH2 0x18F8 JUMP JUMPDEST PUSH1 0x40 MLOAD SWAP1 DUP2 MSTORE PUSH32 0x894CE7CC354D2A39DE53F8DAB6B0AD8C5AC65641E68AA2154FDB88BCC387E3DD PUSH1 0x20 CALLER SWAP3 LOG2 STOP JUMPDEST CALLVALUE PUSH2 0x341 JUMPI PUSH1 0x20 CALLDATASIZE PUSH1 0x3 NOT ADD SLT PUSH2 0x341 JUMPI PUSH1 0x4 CALLDATALOAD PUSH1 0x1 PUSH1 0x1 PUSH1 0xA0 SHL SUB DUP2 AND SUB PUSH2 0x341 JUMPI PUSH1 0x20 PUSH1 0x40 MLOAD PUSH1 0x0 DUP2 MSTORE RETURN JUMPDEST CALLVALUE PUSH2 0x341 JUMPI PUSH1 0x0 CALLDATASIZE PUSH1 0x3 NOT ADD SLT PUSH2 0x341 JUMPI PUSH1 0x20 PUSH1 0xFF PUSH1 0x1 SLOAD PUSH1 0x8 SHR AND PUSH1 0x40 MLOAD SWAP1 ISZERO ISZERO DUP2 MSTORE RETURN JUMPDEST CALLVALUE PUSH2 0x341 JUMPI PUSH2 0xBEC CALLDATASIZE PUSH2 0x1329 JUMP JUMPDEST PUSH2 0xC01 PUSH1 0x1 DUP1 PUSH1 0xA0 SHL SUB PUSH1 0x14 SLOAD AND CALLER EQ PUSH2 0x1826 JUMP JUMPDEST PUSH2 0xC0F PUSH1 0xFF PUSH1 0x1 SLOAD AND PUSH2 0x17E6 JUMP JUMPDEST PUSH2 0xC1E PUSH1 0xFF PUSH1 0xA SLOAD AND ISZERO PUSH2 0x1872 JUMP JUMPDEST PUSH2 0xC2D PUSH1 0xFF PUSH1 0xC SLOAD AND ISZERO PUSH2 0x18B4 JUMP JUMPDEST PUSH32 0x28B099EB575E23E32BECD7C30DC8F9B2F98E370CDBF9841EA3338D9000402A25 PUSH1 0x40 MLOAD PUSH1 0x20 DUP2 MSTORE DUP1 PUSH2 0xC65 CALLER SWAP5 PUSH1 0x20 DUP4 ADD SWAP1 PUSH2 0x1272 JUMP JUMPDEST SUB SWAP1 LOG2 STOP JUMPDEST CALLVALUE PUSH2 0x341 JUMPI PUSH1 0x20 CALLDATASIZE PUSH1 0x3 NOT ADD SLT PUSH2 0x341 JUMPI PUSH1 0x4 CALLDATALOAD PUSH1 0x1 PUSH1 0x1 PUSH1 0xA0 SHL SUB DUP2 AND SWAP1 DUP2 SWAP1 SUB PUSH2 0x341 JUMPI PUSH1 0x0 MSTORE PUSH1 0x13 PUSH1 0x20 MSTORE PUSH1 0x20 PUSH1 0x40 PUSH1 0x0 KECCAK256 SLOAD PUSH1 0x40 MLOAD SWAP1 DUP2 MSTORE RETURN JUMPDEST PUSH2 0x1249 JUMP JUMPDEST CALLVALUE PUSH2 0x341 JUMPI PUSH1 0x0 CALLDATASIZE PUSH1 0x3 NOT ADD SLT PUSH2 0x341 JUMPI PUSH1 0x20 PUSH1 0xFF PUSH1 0xE SLOAD AND PUSH1 0x40 MLOAD SWAP1 ISZERO ISZERO DUP2 MSTORE RETURN JUMPDEST CALLVALUE PUSH2 0x341 JUMPI PUSH2 0xCDE CALLDATASIZE PUSH2 0x1329 JUMP JUMPDEST PUSH2 0xCF3 PUSH1 0x1 DUP1 PUSH1 0xA0 SHL SUB PUSH1 0x12 SLOAD AND CALLER EQ PUSH2 0x179A JUMP JUMPDEST PUSH2 0xD01 PUSH1 0xFF PUSH1 0x1 SLOAD AND PUSH2 0x17E6 JUMP JUMPDEST PUSH1 0xA SLOAD PUSH1 0xFF DUP2 AND ISZERO PUSH2 0xD98 JUMPI DUP2 MLOAD ISZERO PUSH2 0xD53 JUMPI PUSH1 0xFF NOT AND PUSH1 0xA SSTORE PUSH32 0x2EB59C65A13FFE423F16EF2C7EDD21AFCDE560EF40C04008402E75D5C0B04B2F PUSH1 0x40 MLOAD PUSH1 0x20 DUP2 MSTORE DUP1 PUSH2 0xC65 CALLER SWAP5 PUSH1 0x20 DUP4 ADD SWAP1 PUSH2 0x1272 JUMP JUMPDEST PUSH1 0x40 MLOAD PUSH3 0x461BCD PUSH1 0xE5 SHL DUP2 MSTORE PUSH1 0x20 PUSH1 0x4 DUP3 ADD MSTORE PUSH1 0x17 PUSH1 0x24 DUP3 ADD MSTORE PUSH32 0x496E76616C696420747261636B696E67206E756D626572000000000000000000 PUSH1 0x44 DUP3 ADD MSTORE PUSH1 0x64 SWAP1 REVERT JUMPDEST PUSH1 0x40 MLOAD PUSH3 0x461BCD PUSH1 0xE5 SHL DUP2 MSTORE PUSH1 0x20 PUSH1 0x4 DUP3 ADD MSTORE PUSH1 0x11 PUSH1 0x24 DUP3 ADD MSTORE PUSH17 0x457363726F77206E6F7420616374697665 PUSH1 0x78 SHL PUSH1 0x44 DUP3 ADD MSTORE PUSH1 0x64 SWAP1 REVERT JUMPDEST CALLVALUE PUSH2 0x341 JUMPI PUSH1 0x0 CALLDATASIZE PUSH1 0x3 NOT ADD SLT PUSH2 0x341 JUMPI PUSH1 0x20 PUSH1 0xFF PUSH1 0x1 SLOAD AND PUSH1 0x40 MLOAD SWAP1 ISZERO ISZERO DUP2 MSTORE RETURN JUMPDEST CALLVALUE PUSH2 0x341 JUMPI PUSH1 0x0 CALLDATASIZE PUSH1 0x3 NOT ADD SLT PUSH2 0x341 JUMPI PUSH1 0x0 PUSH1 0xE0 PUSH1 0x40 MLOAD PUSH2 0xE15 DUP2 PUSH2 0x12B2 JUMP JUMPDEST PUSH1 0x60 DUP2 MSTORE PUSH1 0x60 PUSH1 0x20 DUP3 ADD MSTORE PUSH1 0x60 PUSH1 0x40 DUP3 ADD MSTORE PUSH1 0x60 DUP1 DUP3 ADD MSTORE DUP3 PUSH1 0x80 DUP3 ADD MSTORE PUSH1 0x60 PUSH1 0xA0 DUP3 ADD MSTORE PUSH1 0x60 PUSH1 0xC0 DUP3 ADD MSTORE ADD MSTORE PUSH1 0x0 PUSH1 0x80 PUSH1 0x40 MLOAD PUSH2 0xE53 DUP2 PUSH2 0x12CF JUMP JUMPDEST DUP3 DUP2 MSTORE PUSH1 0x20 DUP2 ADD DUP4 SWAP1 MSTORE PUSH1 0x40 DUP2 ADD DUP4 SWAP1 MSTORE PUSH1 0x60 DUP2 ADD DUP4 SWAP1 MSTORE ADD MSTORE PUSH1 0x12 SLOAD PUSH1 0x10 SLOAD PUSH1 0xF SLOAD PUSH1 0x14 SLOAD PUSH1 0x1 PUSH1 0x1 PUSH1 0xA0 SHL SUB AND SWAP2 PUSH2 0xE8B PUSH2 0x13DF JUMP JUMPDEST SWAP3 PUSH1 0x40 MLOAD SWAP5 PUSH1 0x20 DUP7 ADD SWAP4 PUSH8 0xFFFFFFFFFFFFFFFF SWAP5 DUP8 DUP2 LT DUP7 DUP3 GT OR PUSH2 0x4F8 JUMPI PUSH1 0x40 MSTORE PUSH1 0x0 DUP8 MSTORE PUSH1 0x40 MLOAD SWAP5 PUSH2 0xEBE DUP7 PUSH2 0x12B2 JUMP JUMPDEST PUSH2 0xEC6 PUSH2 0x14CA JUMP JUMPDEST DUP7 MSTORE PUSH2 0xED0 PUSH2 0x13DF JUMP JUMPDEST PUSH1 0x20 DUP8 ADD MSTORE PUSH2 0xEDD PUSH2 0x157E JUMP JUMPDEST PUSH1 0x40 DUP8 ADD MSTORE PUSH2 0xEEA PUSH2 0x1632 JUMP JUMPDEST PUSH1 0x60 DUP8 ADD MSTORE PUSH1 0x6 SLOAD PUSH1 0x80 DUP8 ADD MSTORE PUSH1 0x7 SLOAD SWAP1 DUP2 GT PUSH2 0x4F8 JUMPI PUSH1 0x40 MLOAD SWAP1 PUSH2 0xF15 PUSH1 0x20 DUP3 PUSH1 0x5 SHL ADD DUP4 PUSH2 0x12EB JUMP JUMPDEST DUP1 DUP3 MSTORE PUSH1 0x20 DUP3 ADD SWAP1 PUSH1 0x7 PUSH1 0x0 MSTORE PUSH32 0xA66CC928B5EDB82AF9BD49922954155AB7B0942694BEA4CE44661D9A8736C688 SWAP2 PUSH1 0x0 SWAP1 JUMPDEST DUP3 DUP3 LT PUSH2 0x112E JUMPI POP POP POP POP PUSH1 0xA0 DUP7 ADD MSTORE PUSH1 0xFF SWAP2 SWAP1 PUSH2 0xF64 PUSH2 0x16E6 JUMP JUMPDEST PUSH1 0xC0 DUP8 ADD MSTORE DUP3 PUSH1 0x9 SLOAD AND ISZERO ISZERO PUSH1 0xE0 DUP8 ADD MSTORE PUSH2 0xFE4 PUSH1 0x40 MLOAD SWAP9 PUSH2 0xF85 DUP11 PUSH2 0x12CF JUMP JUMPDEST PUSH1 0xA SLOAD DUP6 DUP2 AND ISZERO ISZERO DUP12 MSTORE PUSH1 0x1 DUP1 PUSH1 0xA0 SHL SUB SWAP1 PUSH1 0x8 SHR AND PUSH1 0x20 DUP12 ADD MSTORE PUSH1 0xB SLOAD PUSH1 0x40 DUP12 ADD MSTORE DUP5 PUSH1 0xC SLOAD DUP2 DUP2 AND ISZERO ISZERO PUSH1 0x60 DUP14 ADD MSTORE PUSH1 0x8 SHR AND ISZERO ISZERO PUSH1 0x80 DUP12 ADD MSTORE PUSH2 0x3BD PUSH1 0x40 MLOAD SWAP10 PUSH1 0x1 DUP1 PUSH1 0xA0 SHL SUB DUP7 AND DUP12 MSTORE PUSH2 0x1A0 DUP1 PUSH1 0x20 DUP14 ADD MSTORE DUP12 ADD SWAP1 PUSH2 0x1272 JUMP JUMPDEST SWAP5 PUSH1 0x60 DUP9 ADD MSTORE PUSH1 0x80 DUP8 ADD MSTORE PUSH1 0xA0 SHR AND ISZERO ISZERO PUSH1 0xA0 DUP6 ADD MSTORE PUSH1 0xC0 DUP5 ADD MSTORE DUP3 DUP2 SUB PUSH1 0xE0 DUP5 ADD MSTORE PUSH2 0x105B PUSH2 0x1049 PUSH2 0x1037 PUSH2 0x1025 DUP6 MLOAD PUSH2 0x100 DUP7 MSTORE PUSH2 0x100 DUP7 ADD SWAP1 PUSH2 0x1272 JUMP JUMPDEST PUSH1 0x20 DUP7 ADD MLOAD DUP6 DUP3 SUB PUSH1 0x20 DUP8 ADD MSTORE PUSH2 0x1272 JUMP JUMPDEST PUSH1 0x40 DUP6 ADD MLOAD DUP5 DUP3 SUB PUSH1 0x40 DUP7 ADD MSTORE PUSH2 0x1272 JUMP JUMPDEST PUSH1 0x60 DUP5 ADD MLOAD DUP4 DUP3 SUB PUSH1 0x60 DUP6 ADD MSTORE PUSH2 0x1272 JUMP JUMPDEST PUSH1 0x80 DUP4 ADD MLOAD PUSH1 0x80 DUP4 ADD MSTORE PUSH1 0xA0 DUP4 ADD MLOAD SWAP1 DUP3 DUP2 SUB PUSH1 0xA0 DUP5 ADD MSTORE DUP2 MLOAD DUP1 DUP3 MSTORE PUSH1 0x20 DUP3 ADD SWAP2 PUSH1 0x20 DUP1 DUP4 PUSH1 0x5 SHL DUP4 ADD ADD SWAP5 ADD SWAP3 PUSH1 0x0 SWAP2 JUMPDEST DUP4 DUP4 LT PUSH2 0x1101 JUMPI DUP9 DUP1 DUP10 PUSH1 0x80 DUP14 DUP12 PUSH1 0xE0 DUP1 PUSH2 0x10B5 DUP15 PUSH1 0xC0 DUP9 ADD MLOAD DUP6 DUP3 SUB PUSH1 0xC0 DUP8 ADD MSTORE PUSH2 0x1272 JUMP JUMPDEST SWAP6 ADD MLOAD ISZERO ISZERO SWAP2 ADD MSTORE DUP1 MLOAD ISZERO ISZERO PUSH2 0x100 DUP6 ADD MSTORE PUSH1 0x20 DUP2 ADD MLOAD PUSH1 0x1 PUSH1 0x1 PUSH1 0xA0 SHL SUB AND PUSH2 0x120 DUP6 ADD MSTORE PUSH1 0x40 DUP2 ADD MLOAD PUSH2 0x140 DUP6 ADD MSTORE PUSH1 0x60 DUP2 ADD MLOAD ISZERO ISZERO PUSH2 0x160 DUP6 ADD MSTORE ADD MLOAD ISZERO ISZERO PUSH2 0x180 DUP4 ADD MSTORE SUB SWAP1 RETURN JUMPDEST SWAP1 SWAP2 SWAP3 SWAP4 SWAP5 PUSH1 0x20 DUP1 PUSH2 0x111F PUSH1 0x1 SWAP4 PUSH1 0x1F NOT DUP7 DUP3 SUB ADD DUP8 MSTORE DUP10 MLOAD PUSH2 0x1272 JUMP JUMPDEST SWAP8 ADD SWAP4 ADD SWAP4 ADD SWAP2 SWAP4 SWAP3 SWAP1 PUSH2 0x108E JUMP JUMPDEST PUSH1 0x40 MLOAD PUSH1 0x0 DUP6 SLOAD DUP1 PUSH1 0x1 SHR SWAP1 PUSH1 0x1 DUP2 AND ISZERO PUSH2 0x11FB JUMPI JUMPDEST PUSH1 0x20 DUP3 LT PUSH1 0x1 DUP3 AND EQ PUSH2 0x11E5 JUMPI DUP2 DUP5 MSTORE PUSH1 0x1 DUP2 AND SWAP1 DUP2 ISZERO PUSH2 0x11C2 JUMPI POP PUSH1 0x1 EQ PUSH2 0x118A JUMPI JUMPDEST POP PUSH1 0x1 SWAP3 DUP3 PUSH2 0x117C DUP6 SWAP5 PUSH1 0x20 SWAP5 SUB DUP3 PUSH2 0x12EB JUMP JUMPDEST DUP2 MSTORE ADD SWAP5 ADD SWAP2 ADD SWAP1 SWAP3 PUSH2 0xF48 JUMP JUMPDEST PUSH1 0x0 DUP8 DUP2 MSTORE PUSH1 0x20 DUP2 KECCAK256 SWAP1 SWAP3 POP JUMPDEST DUP2 DUP4 LT PUSH2 0x11AC JUMPI POP POP DUP2 ADD PUSH1 0x20 ADD PUSH1 0x1 PUSH2 0x1168 JUMP JUMPDEST PUSH1 0x1 DUP2 PUSH1 0x20 SWAP3 SLOAD DUP4 DUP7 DUP9 ADD ADD MSTORE ADD SWAP3 ADD SWAP2 PUSH2 0x1197 JUMP JUMPDEST PUSH1 0xFF NOT AND PUSH1 0x20 DUP6 DUP2 ADD SWAP2 SWAP1 SWAP2 MSTORE SWAP2 ISZERO ISZERO PUSH1 0x5 SHL DUP5 ADD SWAP1 SWAP2 ADD SWAP2 POP PUSH1 0x1 SWAP1 POP PUSH2 0x1168 JUMP JUMPDEST PUSH4 0x4E487B71 PUSH1 0xE0 SHL PUSH1 0x0 MSTORE PUSH1 0x22 PUSH1 0x4 MSTORE PUSH1 0x24 PUSH1 0x0 REVERT JUMPDEST SWAP1 PUSH1 0x7F AND SWAP1 PUSH2 0x1144 JUMP JUMPDEST CALLVALUE PUSH2 0x341 JUMPI PUSH1 0x0 CALLDATASIZE PUSH1 0x3 NOT ADD SLT PUSH2 0x341 JUMPI PUSH1 0x20 PUSH1 0xF SLOAD PUSH1 0x40 MLOAD SWAP1 DUP2 MSTORE RETURN JUMPDEST CALLVALUE PUSH2 0x341 JUMPI PUSH1 0x0 CALLDATASIZE PUSH1 0x3 NOT ADD SLT PUSH2 0x341 JUMPI PUSH1 0x20 PUSH1 0xFF PUSH1 0x12 SLOAD PUSH1 0xA0 SHR AND PUSH1 0x40 MLOAD SWAP1 ISZERO ISZERO DUP2 MSTORE RETURN JUMPDEST CALLVALUE PUSH2 0x341 JUMPI PUSH1 0x0 CALLDATASIZE PUSH1 0x3 NOT ADD SLT PUSH2 0x341 JUMPI PUSH1 0x12 SLOAD PUSH1 0x40 MLOAD PUSH1 0x1 PUSH1 0x1 PUSH1 0xA0 SHL SUB SWAP1 SWAP2 AND DUP2 MSTORE PUSH1 0x20 SWAP1 RETURN JUMPDEST SWAP2 SWAP1 DUP3 MLOAD SWAP3 DUP4 DUP3 MSTORE PUSH1 0x0 JUMPDEST DUP5 DUP2 LT PUSH2 0x129E JUMPI POP POP DUP3 PUSH1 0x0 PUSH1 0x20 DUP1 SWAP5 SWAP6 DUP5 ADD ADD MSTORE PUSH1 0x1F DUP1 NOT SWAP2 ADD AND ADD ADD SWAP1 JUMP JUMPDEST PUSH1 0x20 DUP2 DUP4 ADD DUP2 ADD MLOAD DUP5 DUP4 ADD DUP3 ADD MSTORE ADD PUSH2 0x127D JUMP JUMPDEST PUSH2 0x100 DUP2 ADD SWAP1 DUP2 LT PUSH8 0xFFFFFFFFFFFFFFFF DUP3 GT OR PUSH2 0x4F8 JUMPI PUSH1 0x40 MSTORE JUMP JUMPDEST PUSH1 0xA0 DUP2 ADD SWAP1 DUP2 LT PUSH8 0xFFFFFFFFFFFFFFFF DUP3 GT OR PUSH2 0x4F8 JUMPI PUSH1 0x40 MSTORE JUMP JUMPDEST SWAP1 PUSH1 0x1F DUP1 NOT SWAP2 ADD AND DUP2 ADD SWAP1 DUP2 LT PUSH8 0xFFFFFFFFFFFFFFFF DUP3 GT OR PUSH2 0x4F8 JUMPI PUSH1 0x40 MSTORE JUMP JUMPDEST PUSH8 0xFFFFFFFFFFFFFFFF DUP2 GT PUSH2 0x4F8 JUMPI PUSH1 0x1F ADD PUSH1 0x1F NOT AND PUSH1 0x20 ADD SWAP1 JUMP JUMPDEST PUSH1 0x20 PUSH1 0x3 NOT DUP3 ADD SLT PUSH2 0x341 JUMPI PUSH1 0x4 CALLDATALOAD PUSH8 0xFFFFFFFFFFFFFFFF DUP2 GT PUSH2 0x341 JUMPI DUP2 PUSH1 0x23 DUP3 ADD SLT ISZERO PUSH2 0x341 JUMPI DUP1 PUSH1 0x4 ADD CALLDATALOAD SWAP1 PUSH2 0x1361 DUP3 PUSH2 0x130D JUMP JUMPDEST SWAP3 PUSH2 0x136F PUSH1 0x40 MLOAD SWAP5 DUP6 PUSH2 0x12EB JUMP JUMPDEST DUP3 DUP5 MSTORE PUSH1 0x24 DUP4 DUP4 ADD ADD GT PUSH2 0x341 JUMPI DUP2 PUSH1 0x0 SWAP3 PUSH1 0x24 PUSH1 0x20 SWAP4 ADD DUP4 DUP7 ADD CALLDATACOPY DUP4 ADD ADD MSTORE SWAP1 JUMP JUMPDEST PUSH1 0x16 SLOAD DUP2 LT ISZERO PUSH2 0x13C9 JUMPI PUSH1 0x16 PUSH1 0x0 MSTORE PUSH32 0xD833147D7DC355BA459FC788F669E58CFAF9DC25DDCD0702E87D69C7B5124289 ADD SWAP1 PUSH1 0x0 SWAP1 JUMP JUMPDEST PUSH4 0x4E487B71 PUSH1 0xE0 SHL PUSH1 0x0 MSTORE PUSH1 0x32 PUSH1 0x4 MSTORE PUSH1 0x24 PUSH1 0x0 REVERT JUMPDEST PUSH1 0x40 MLOAD SWAP1 PUSH1 0x0 PUSH1 0x3 SLOAD SWAP1 PUSH1 0x1 DUP3 DUP2 SHR SWAP1 DUP1 DUP5 AND SWAP4 DUP5 ISZERO PUSH2 0x14C0 JUMPI JUMPDEST PUSH1 0x20 SWAP5 DUP6 DUP5 LT DUP2 EQ PUSH2 0x14AC JUMPI DUP4 DUP9 MSTORE DUP8 SWAP5 SWAP4 SWAP3 SWAP2 DUP2 ISZERO PUSH2 0x148C JUMPI POP PUSH1 0x1 EQ PUSH2 0x142D JUMPI JUMPDEST POP POP PUSH2 0x142B SWAP3 POP SUB DUP4 PUSH2 0x12EB JUMP JUMPDEST JUMP JUMPDEST SWAP1 SWAP4 SWAP2 POP PUSH1 0x3 PUSH1 0x0 MSTORE PUSH32 0xC2575A0E9E593C00F959F8C92F12DB2869C3395A3B0502D05E2516446F71F85B SWAP4 PUSH1 0x0 SWAP2 JUMPDEST DUP2 DUP4 LT PUSH2 0x1474 JUMPI POP POP PUSH2 0x142B SWAP4 POP DUP3 ADD ADD CODESIZE DUP1 PUSH2 0x141D JUMP JUMPDEST DUP6 SLOAD DUP9 DUP5 ADD DUP6 ADD MSTORE SWAP5 DUP6 ADD SWAP5 DUP8 SWAP5 POP SWAP2 DUP4 ADD SWAP2 PUSH2 0x145C JUMP JUMPDEST SWAP2 POP POP PUSH2 0x142B SWAP5 SWAP3 POP PUSH1 0xFF NOT AND DUP3 DUP5 ADD MSTORE ISZERO ISZERO PUSH1 0x5 SHL DUP3 ADD ADD CODESIZE DUP1 PUSH2 0x141D JUMP JUMPDEST PUSH4 0x4E487B71 PUSH1 0xE0 SHL DUP6 MSTORE PUSH1 0x22 PUSH1 0x4 MSTORE PUSH1 0x24 DUP6 REVERT JUMPDEST SWAP2 PUSH1 0x7F AND SWAP2 PUSH2 0x13FA JUMP JUMPDEST PUSH1 0x40 MLOAD SWAP1 PUSH1 0x0 PUSH1 0x2 SLOAD SWAP1 PUSH1 0x1 DUP3 DUP2 SHR SWAP1 DUP1 DUP5 AND SWAP4 DUP5 ISZERO PUSH2 0x1574 JUMPI JUMPDEST PUSH1 0x20 SWAP5 DUP6 DUP5 LT DUP2 EQ PUSH2 0x14AC JUMPI DUP4 DUP9 MSTORE DUP8 SWAP5 SWAP4 SWAP3 SWAP2 DUP2 ISZERO PUSH2 0x148C JUMPI POP PUSH1 0x1 EQ PUSH2 0x1515 JUMPI POP POP PUSH2 0x142B SWAP3 POP SUB DUP4 PUSH2 0x12EB JUMP JUMPDEST SWAP1 SWAP4 SWAP2 POP PUSH1 0x2 PUSH1 0x0 MSTORE PUSH32 0x405787FA12A823E0F2B7631CC41B3BA8828B3321CA811111FA75CD3AA3BB5ACE SWAP4 PUSH1 0x0 SWAP2 JUMPDEST DUP2 DUP4 LT PUSH2 0x155C JUMPI POP POP PUSH2 0x142B SWAP4 POP DUP3 ADD ADD CODESIZE DUP1 PUSH2 0x141D JUMP JUMPDEST DUP6 SLOAD DUP9 DUP5 ADD DUP6 ADD MSTORE SWAP5 DUP6 ADD SWAP5 DUP8 SWAP5 POP SWAP2 DUP4 ADD SWAP2 PUSH2 0x1544 JUMP JUMPDEST SWAP2 PUSH1 0x7F AND SWAP2 PUSH2 0x14E5 JUMP JUMPDEST PUSH1 0x40 MLOAD SWAP1 PUSH1 0x0 PUSH1 0x4 SLOAD SWAP1 PUSH1 0x1 DUP3 DUP2 SHR SWAP1 DUP1 DUP5 AND SWAP4 DUP5 ISZERO PUSH2 0x1628 JUMPI JUMPDEST PUSH1 0x20 SWAP5 DUP6 DUP5 LT DUP2 EQ PUSH2 0x14AC JUMPI DUP4 DUP9 MSTORE DUP8 SWAP5 SWAP4 SWAP3 SWAP2 DUP2 ISZERO PUSH2 0x148C JUMPI POP PUSH1 0x1 EQ PUSH2 0x15C9 JUMPI POP POP PUSH2 0x142B SWAP3 POP SUB DUP4 PUSH2 0x12EB JUMP JUMPDEST SWAP1 SWAP4 SWAP2 POP PUSH1 0x4 PUSH1 0x0 MSTORE PUSH32 0x8A35ACFBC15FF81A39AE7D344FD709F28E8600B4AA8C65C6B64BFE7FE36BD19B SWAP4 PUSH1 0x0 SWAP2 JUMPDEST DUP2 DUP4 LT PUSH2 0x1610 JUMPI POP POP PUSH2 0x142B SWAP4 POP DUP3 ADD ADD CODESIZE DUP1 PUSH2 0x141D JUMP JUMPDEST DUP6 SLOAD DUP9 DUP5 ADD DUP6 ADD MSTORE SWAP5 DUP6 ADD SWAP5 DUP8 SWAP5 POP SWAP2 DUP4 ADD SWAP2 PUSH2 0x15F8 JUMP JUMPDEST SWAP2 PUSH1 0x7F AND SWAP2 PUSH2 0x1599 JUMP JUMPDEST PUSH1 0x40 MLOAD SWAP1 PUSH1 0x0 PUSH1 0x5 SLOAD SWAP1 PUSH1 0x1 DUP3 DUP2 SHR SWAP1 DUP1 DUP5 AND SWAP4 DUP5 ISZERO PUSH2 0x16DC JUMPI JUMPDEST PUSH1 0x20 SWAP5 DUP6 DUP5 LT DUP2 EQ PUSH2 0x14AC JUMPI DUP4 DUP9 MSTORE DUP8 SWAP5 SWAP4 SWAP3 SWAP2 DUP2 ISZERO PUSH2 0x148C JUMPI POP PUSH1 0x1 EQ PUSH2 0x167D JUMPI POP POP PUSH2 0x142B SWAP3 POP SUB DUP4 PUSH2 0x12EB JUMP JUMPDEST SWAP1 SWAP4 SWAP2 POP PUSH1 0x5 PUSH1 0x0 MSTORE PUSH32 0x36B6384B5ECA791C62761152D0C79BB0604C104A5FB6F4EB0703F3154BB3DB0 SWAP4 PUSH1 0x0 SWAP2 JUMPDEST DUP2 DUP4 LT PUSH2 0x16C4 JUMPI POP POP PUSH2 0x142B SWAP4 POP DUP3 ADD ADD CODESIZE DUP1 PUSH2 0x141D JUMP JUMPDEST DUP6 SLOAD DUP9 DUP5 ADD DUP6 ADD MSTORE SWAP5 DUP6 ADD SWAP5 DUP8 SWAP5 POP SWAP2 DUP4 ADD SWAP2 PUSH2 0x16AC JUMP JUMPDEST SWAP2 PUSH1 0x7F AND SWAP2 PUSH2 0x164D JUMP JUMPDEST PUSH1 0x40 MLOAD SWAP1 PUSH1 0x0 PUSH1 0x8 SLOAD SWAP1 PUSH1 0x1 DUP3 DUP2 SHR SWAP1 DUP1 DUP5 AND SWAP4 DUP5 ISZERO PUSH2 0x1790 JUMPI JUMPDEST PUSH1 0x20 SWAP5 DUP6 DUP5 LT DUP2 EQ PUSH2 0x14AC JUMPI DUP4 DUP9 MSTORE DUP8 SWAP5 SWAP4 SWAP3 SWAP2 DUP2 ISZERO PUSH2 0x148C JUMPI POP PUSH1 0x1 EQ PUSH2 0x1731 JUMPI POP POP PUSH2 0x142B SWAP3 POP SUB DUP4 PUSH2 0x12EB JUMP JUMPDEST SWAP1 SWAP4 SWAP2 POP PUSH1 0x8 PUSH1 0x0 MSTORE PUSH32 0xF3F7A9FE364FAAB93B216DA50A3214154F22A0A2B415B23A84C8169E8B636EE3 SWAP4 PUSH1 0x0 SWAP2 JUMPDEST DUP2 DUP4 LT PUSH2 0x1778 JUMPI POP POP PUSH2 0x142B SWAP4 POP DUP3 ADD ADD CODESIZE DUP1 PUSH2 0x141D JUMP JUMPDEST DUP6 SLOAD DUP9 DUP5 ADD DUP6 ADD MSTORE SWAP5 DUP6 ADD SWAP5 DUP8 SWAP5 POP SWAP2 DUP4 ADD SWAP2 PUSH2 0x1760 JUMP JUMPDEST SWAP2 PUSH1 0x7F AND SWAP2 PUSH2 0x1701 JUMP JUMPDEST ISZERO PUSH2 0x17A1 JUMPI JUMP JUMPDEST PUSH1 0x40 MLOAD PUSH3 0x461BCD PUSH1 0xE5 SHL DUP2 MSTORE PUSH1 0x20 PUSH1 0x4 DUP3 ADD MSTORE PUSH1 0x19 PUSH1 0x24 DUP3 ADD MSTORE PUSH32 0x4F6E6C792073656C6C65722063616E2063616C6C207468697300000000000000 PUSH1 0x44 DUP3 ADD MSTORE PUSH1 0x64 SWAP1 REVERT JUMPDEST ISZERO PUSH2 0x17ED JUMPI JUMP JUMPDEST PUSH1 0x40 MLOAD PUSH3 0x461BCD PUSH1 0xE5 SHL DUP2 MSTORE PUSH1 0x20 PUSH1 0x4 DUP3 ADD MSTORE PUSH1 0x11 PUSH1 0x24 DUP3 ADD MSTORE PUSH17 0x115CD8DC9BDDC81B9BDD08199D5B991959 PUSH1 0x7A SHL PUSH1 0x44 DUP3 ADD MSTORE PUSH1 0x64 SWAP1 REVERT JUMPDEST ISZERO PUSH2 0x182D JUMPI JUMP JUMPDEST PUSH1 0x40 MLOAD PUSH3 0x461BCD PUSH1 0xE5 SHL DUP2 MSTORE PUSH1 0x20 PUSH1 0x4 DUP3 ADD MSTORE PUSH1 0x18 PUSH1 0x24 DUP3 ADD MSTORE PUSH32 0x4F6E6C792062757965722063616E2063616C6C20746869730000000000000000 PUSH1 0x44 DUP3 ADD MSTORE PUSH1 0x64 SWAP1 REVERT JUMPDEST ISZERO PUSH2 0x1879 JUMPI JUMP JUMPDEST PUSH1 0x40 MLOAD PUSH3 0x461BCD PUSH1 0xE5 SHL DUP2 MSTORE PUSH1 0x20 PUSH1 0x4 DUP3 ADD MSTORE PUSH1 0x13 PUSH1 0x24 DUP3 ADD MSTORE PUSH19 0x457363726F77207374696C6C20616374697665 PUSH1 0x68 SHL PUSH1 0x44 DUP3 ADD MSTORE PUSH1 0x64 SWAP1 REVERT JUMPDEST ISZERO PUSH2 0x18BB JUMPI JUMP JUMPDEST PUSH1 0x40 MLOAD PUSH3 0x461BCD PUSH1 0xE5 SHL DUP2 MSTORE PUSH1 0x20 PUSH1 0x4 DUP3 ADD MSTORE PUSH1 0x15 PUSH1 0x24 DUP3 ADD MSTORE PUSH21 0x125D195B48185B1C9958591E481C9958D95A5D9959 PUSH1 0x5A SHL PUSH1 0x44 DUP3 ADD MSTORE PUSH1 0x64 SWAP1 REVERT JUMPDEST RETURNDATASIZE ISZERO PUSH2 0x1923 JUMPI RETURNDATASIZE SWAP1 PUSH2 0x1909 DUP3 PUSH2 0x130D JUMP JUMPDEST SWAP2 PUSH2 0x1917 PUSH1 0x40 MLOAD SWAP4 DUP5 PUSH2 0x12EB JUMP JUMPDEST DUP3 MSTORE RETURNDATASIZE PUSH1 0x0 PUSH1 0x20 DUP5 ADD RETURNDATACOPY JUMP JUMPDEST PUSH1 0x60 SWAP1 JUMP JUMPDEST ISZERO PUSH2 0x192F JUMPI JUMP JUMPDEST PUSH1 0x40 MLOAD PUSH3 0x461BCD PUSH1 0xE5 SHL DUP2 MSTORE PUSH1 0x20 PUSH1 0x4 DUP3 ADD MSTORE PUSH1 0xF PUSH1 0x24 DUP3 ADD MSTORE PUSH15 0x151C985B9CD9995C8819985A5B1959 PUSH1 0x8A SHL PUSH1 0x44 DUP3 ADD MSTORE PUSH1 0x64 SWAP1 REVERT JUMPDEST PUSH1 0x15 SLOAD DUP1 PUSH1 0x1 SHL SWAP1 DUP1 DUP3 DIV PUSH1 0x2 EQ SWAP1 ISZERO OR ISZERO PUSH2 0x1984 JUMPI PUSH2 0x2710 SWAP1 DIV SWAP1 JUMP JUMPDEST PUSH4 0x4E487B71 PUSH1 0xE0 SHL PUSH1 0x0 MSTORE PUSH1 0x11 PUSH1 0x4 MSTORE PUSH1 0x24 PUSH1 0x0 REVERT INVALID LOG2 PUSH5 0x6970667358 0x22 SLT KECCAK256 0xD5 SELFBALANCE DUP15 GASPRICE LOG3 0xC SWAP1 SSTORE BLOCKHASH 0xB1 SMOD 0x2C SWAP7 0xE0 0xAC 0x2B 0xDD SWAP4 SLOAD 0xCC ADD 0xD5 0x26 STATICCALL OR 0x25 0xEE EQ CREATE2 PUSH29 0x6A1D64736F6C63430008140033405787FA12A823E0F2B7631CC41B3BA8 DUP3 DUP12 CALLER 0x21 0xCA DUP2 GT GT STATICCALL PUSH22 0xCD3AA3BB5ACEA66CC928B5EDB82AF9BD49922954155A 0xB7 0xB0 SWAP5 0x26 SWAP5 0xBE LOG4 0xCE PREVRANDAO PUSH7 0x1D9A8736C688F3 0xF7 0xA9 INVALID CALLDATASIZE 0x4F 0xAA 0xB9 EXTCODESIZE 0x21 PUSH14 0xA50A3214154F22A0A2B415B23A84 0xC8 AND SWAP15 DUP12 PUSH4 0x6EE30000 "},"methodIdentifiers":{"auctioneer()":"5ec2c7bf","bidders(uint256)":"cff29dfd","bids(address)":"62ea82db","confirmItemReceived(bool)":"88e7e366","endAuction()":"fe67a54b","endTime()":"3197cbb6","ended()":"12fa6feb","escrow()":"e2fdcc17","escrowBalance()":"e11e1b0c","escrowFunded()":"562e4d38","escrowReleased()":"7b499faa","fundEscrow()":"a5d737ac","getAuctionDetails()":"3a6dcea2","getAuctionPrice()":"4bd25c6f","getBiddersCount()":"ab72bf32","getCurrentPrice()":"eb91d37e","getEscrowAmount()":"a5e845b4","highestBid()":"d57bde79","item()":"f2a4a82e","paused()":"5c975abb","placeBid()":"ecfc7ecc","purchases(address)":"842a77d3","raiseDispute(string)":"725a3b4b","reservePrice()":"db2e1eed","resolveDispute(address)":"d8461182","seller()":"08551a53","shipItem(string)":"56eec68d","startingPrice()":"d6fbf202","winner()":"dfbf53ae"}}}}}