{"contracts/FixedSwapAuction.sol":{"FixedSwapAuction":{"abi":[{"inputs":[{"internalType":"string","name":"_description","type":"string"},{"internalType":"string","name":"_image","type":"string"},{"internalType":"uint256","name":"_price","type":"uint256"},{"internalType":"string","name":"_name","type":"string"},{"internalType":"string","name":"_itemDescription","type":"string"},{"internalType":"string","name":"_condition","type":"string"},{"internalType":"string","name":"_dimensions","type":"string"},{"internalType":"uint256","name":"_weight","type":"uint256"},{"internalType":"string[]","name":"_images","type":"string[]"},{"internalType":"string","name":"_shippingAddress","type":"string"},{"internalType":"bool","name":"_isPhysical","type":"bool"}],"stateMutability":"nonpayable","type":"constructor"},{"anonymous":false,"inputs":[{"indexed":true,"internalType":"address","name":"seller","type":"address"},{"indexed":false,"internalType":"uint256","name":"startingPrice","type":"uint256"},{"indexed":false,"internalType":"uint256","name":"duration","type":"uint256"},{"indexed":false,"internalType":"string","name":"description","type":"string"}],"name":"AuctionCreated","type":"event"},{"anonymous":false,"inputs":[{"indexed":true,"internalType":"address","name":"winner","type":"address"},{"indexed":false,"internalType":"uint256","name":"amount","type":"uint256"}],"name":"AuctionEnded","type":"event"},{"anonymous":false,"inputs":[{"indexed":true,"internalType":"address","name":"bidder","type":"address"},{"indexed":false,"internalType":"uint256","name":"amount","type":"uint256"}],"name":"BidPlaced","type":"event"},{"anonymous":false,"inputs":[{"indexed":true,"internalType":"address","name":"buyer","type":"address"},{"indexed":false,"internalType":"string","name":"reason","type":"string"}],"name":"DisputeRaised","type":"event"},{"anonymous":false,"inputs":[{"indexed":true,"internalType":"address","name":"winner","type":"address"},{"indexed":false,"internalType":"uint256","name":"amount","type":"uint256"}],"name":"DisputeResolved","type":"event"},{"anonymous":false,"inputs":[{"indexed":true,"internalType":"address","name":"escrowAgent","type":"address"},{"indexed":false,"internalType":"uint256","name":"escrowFee","type":"uint256"}],"name":"EscrowCreated","type":"event"},{"anonymous":false,"inputs":[{"indexed":false,"internalType":"uint256","name":"amount","type":"uint256"}],"name":"EscrowFunded","type":"event"},{"anonymous":false,"inputs":[{"indexed":true,"internalType":"address","name":"buyer","type":"address"},{"indexed":false,"internalType":"uint256","name":"amount","type":"uint256"}],"name":"EscrowRefunded","type":"event"},{"anonymous":false,"inputs":[{"indexed":true,"internalType":"address","name":"seller","type":"address"},{"indexed":false,"internalType":"uint256","name":"amount","type":"uint256"}],"name":"EscrowReleased","type":"event"},{"anonymous":false,"inputs":[{"indexed":true,"internalType":"address","name":"buyer","type":"address"},{"indexed":false,"internalType":"bool","name":"conditionMet","type":"bool"}],"name":"ItemReceived","type":"event"},{"anonymous":false,"inputs":[{"indexed":true,"internalType":"address","name":"seller","type":"address"},{"indexed":false,"internalType":"string","name":"trackingNumber","type":"string"}],"name":"ItemShipped","type":"event"},{"anonymous":false,"inputs":[{"indexed":false,"internalType":"address","name":"account","type":"address"}],"name":"Paused","type":"event"},{"anonymous":false,"inputs":[{"indexed":true,"internalType":"address","name":"buyer","type":"address"},{"indexed":false,"internalType":"uint256","name":"amount","type":"uint256"}],"name":"Purchase","type":"event"},{"anonymous":false,"inputs":[{"indexed":false,"internalType":"address","name":"account","type":"address"}],"name":"Unpaused","type":"event"},{"inputs":[],"name":"auctioneer","outputs":[{"internalType":"address","name":"","type":"address"}],"stateMutability":"view","type":"function"},{"inputs":[{"internalType":"bool","name":"conditionMet","type":"bool"}],"name":"confirmItemReceived","outputs":[],"stateMutability":"nonpayable","type":"function"},{"inputs":[],"name":"description","outputs":[{"internalType":"string","name":"","type":"string"}],"stateMutability":"view","type":"function"},{"inputs":[],"name":"endAuction","outputs":[],"stateMutability":"nonpayable","type":"function"},{"inputs":[],"name":"escrow","outputs":[{"internalType":"bool","name":"isActive","type":"bool"},{"internalType":"address","name":"escrowAgent","type":"address"},{"internalType":"uint256","name":"escrowFee","type":"uint256"},{"internalType":"bool","name":"itemReceived","type":"bool"},{"internalType":"bool","name":"paymentReleased","type":"bool"}],"stateMutability":"view","type":"function"},{"inputs":[],"name":"escrowBalance","outputs":[{"internalType":"uint256","name":"","type":"uint256"}],"stateMutability":"view","type":"function"},{"inputs":[],"name":"escrowFunded","outputs":[{"internalType":"bool","name":"","type":"bool"}],"stateMutability":"view","type":"function"},{"inputs":[],"name":"escrowReleased","outputs":[{"internalType":"bool","name":"","type":"bool"}],"stateMutability":"view","type":"function"},{"inputs":[],"name":"fundEscrow","outputs":[],"stateMutability":"payable","type":"function"},{"inputs":[],"name":"getAuctionDetails","outputs":[{"internalType":"address","name":"sellerAddr","type":"address"},{"internalType":"string","name":"desc","type":"string"},{"internalType":"string","name":"img","type":"string"},{"internalType":"uint256","name":"currentPrice","type":"uint256"},{"internalType":"uint256","name":"endTime","type":"uint256"},{"internalType":"bool","name":"completed","type":"bool"},{"internalType":"address","name":"winnerAddr","type":"address"},{"components":[{"internalType":"string","name":"name","type":"string"},{"internalType":"string","name":"description","type":"string"},{"internalType":"string","name":"condition","type":"string"},{"internalType":"string","name":"dimensions","type":"string"},{"internalType":"uint256","name":"weight","type":"uint256"},{"internalType":"string[]","name":"images","type":"string[]"},{"internalType":"string","name":"shippingAddress","type":"string"},{"internalType":"bool","name":"isPhysical","type":"bool"}],"internalType":"struct IAuction.PhysicalItem","name":"physicalItem","type":"tuple"},{"components":[{"internalType":"bool","name":"isActive","type":"bool"},{"internalType":"address","name":"escrowAgent","type":"address"},{"internalType":"uint256","name":"escrowFee","type":"uint256"},{"internalType":"bool","name":"itemReceived","type":"bool"},{"internalType":"bool","name":"paymentReleased","type":"bool"}],"internalType":"struct IAuction.Escrow","name":"escrowInfo","type":"tuple"}],"stateMutability":"view","type":"function"},{"inputs":[],"name":"getAuctionPrice","outputs":[{"internalType":"uint256","name":"","type":"uint256"}],"stateMutability":"view","type":"function"},{"inputs":[],"name":"getCurrentPrice","outputs":[{"internalType":"uint256","name":"","type":"uint256"}],"stateMutability":"view","type":"function"},{"inputs":[],"name":"getEscrowAmount","outputs":[{"internalType":"uint256","name":"","type":"uint256"}],"stateMutability":"view","type":"function"},{"inputs":[],"name":"image","outputs":[{"internalType":"string","name":"","type":"string"}],"stateMutability":"view","type":"function"},{"inputs":[],"name":"isCompleted","outputs":[{"internalType":"bool","name":"","type":"bool"}],"stateMutability":"view","type":"function"},{"inputs":[],"name":"item","outputs":[{"internalType":"string","name":"name","type":"string"},{"internalType":"string","name":"description","type":"string"},{"internalType":"string","name":"condition","type":"string"},{"internalType":"string","name":"dimensions","type":"string"},{"internalType":"uint256","name":"weight","type":"uint256"},{"internalType":"string","name":"shippingAddress","type":"string"},{"internalType":"bool","name":"isPhysical","type":"bool"}],"stateMutability":"view","type":"function"},{"inputs":[],"name":"paused","outputs":[{"internalType":"bool","name":"","type":"bool"}],"stateMutability":"view","type":"function"},{"inputs":[],"name":"placeBid","outputs":[],"stateMutability":"payable","type":"function"},{"inputs":[],"name":"price","outputs":[{"internalType":"uint256","name":"","type":"uint256"}],"stateMutability":"view","type":"function"},{"inputs":[{"internalType":"address","name":"","type":"address"}],"name":"purchases","outputs":[{"internalType":"uint256","name":"","type":"uint256"}],"stateMutability":"view","type":"function"},{"inputs":[{"internalType":"string","name":"reason","type":"string"}],"name":"raiseDispute","outputs":[],"stateMutability":"nonpayable","type":"function"},{"inputs":[{"internalType":"address","name":"disputeWinner","type":"address"}],"name":"resolveDispute","outputs":[],"stateMutability":"nonpayable","type":"function"},{"inputs":[],"name":"seller","outputs":[{"internalType":"address","name":"","type":"address"}],"stateMutability":"view","type":"function"},{"inputs":[{"internalType":"string","name":"trackingNumber","type":"string"}],"name":"shipItem","outputs":[],"stateMutability":"nonpayable","type":"function"},{"inputs":[],"name":"winner","outputs":[{"internalType":"address","name":"","type":"address"}],"stateMutability":"view","type":"function"}],"evm":{"bytecode":{"linkReferences":{},"object":"60806040523462000d405762002d43803803806200001d8162000d80565b92833961016082828101031262000d405781516001600160401b03811162000d4057620000509082840190840162000dcb565b60208301516001600160401b03811162000d4057620000759083850190850162000dcb565b604084015160608501519091906001600160401b03811162000d4057620000a29085870190870162000dcb565b60808601519095906001600160401b03811162000d4057620000ca9086830190830162000dcb565b60a08201519095906001600160401b03811162000d4057620000f29082840190840162000dcb565b60c08301516001600160401b03811162000d4057620001179083850190850162000dcb565b60e0840151610100850151939092906001600160401b03851162000d4057808601601f86880101121562000d405785850151946001600160401b038611620006c4578560051b9060206200016d81840162000d80565b809881520190838901602084838c0101011162000d40576020818a0101915b602084838c010101831062000d455750505050610120860151906001600160401b03821162000d405761014091620001c991880190880162000dcb565b95015195861515870362000d40576001600d55600e80546001600160a81b0319163360081b610100600160a81b031617905588516001600160401b038111620006c45762000219600f5462000e22565b601f811162000cfe575b50806020601f821160011462000c845760009162000c78575b508160011b916000199060031b1c191617600f555b8051906001600160401b038211620006c45781906200027260105462000e22565b601f811162000c36575b50602090601f831160011462000bb85760009262000bac575b50508160011b916000199060031b1c1916176010555b60118790556012805460ff19169055604051986101008a016001600160401b0381118b821017620006c4576040528a8a5260208a015260408901526060880152608087015260a086015260c0850152151560e0840152835160018060401b038111620006c4576200031e60025462000e22565b601f811162000b59575b506020601f821160011462000ae957819293949560009262000add575b50508160011b916000199060031b1c1916176002555b602083015180519093906001600160401b038111620006c4576200038160035462000e22565b601f811162000a8a575b506020601f821160011462000a1a57819293949560009262000a0e575b50508160011b916000199060031b1c1916176003555b604081015180519093906001600160401b038111620006c457620003e460045462000e22565b601f8111620009bb575b506020601f82116001146200094b5781929394956000926200093f575b50508160011b916000199060031b1c1916176004555b606082015180519093906001600160401b038111620006c4576200044760055462000e22565b601f811162000908575b506020601f8211600114620008985781929394956000926200088c575b50508160011b916000199060031b1c1916176005555b608083015160065560a0830151805190680100000000000000008211620006c4576007548260075580831062000800575b506007600090815260008051602062002cc383398151915292916020015b828210620006da575050505060c083015180519093906001600160401b038111620006c4576200050560085462000e22565b601f811162000676575b506020601f8211600114620005d757908060e093927fa3d19677a52b6dff051e5813011905526090505e00fcea83c604776ad5ebfd689697600092620005cb575b50508160011b916000199060031b1c1916176008555b0151151560ff8019600954169116176009556040519081526000602082015260606040820152620005a883518094816060850152602060808501910162000da6565b3392601f01601f1916810181900360800190a2604051611e4a908162000e798239f35b01519050388062000550565b6008600090815260008051602062002ce38339815191529690601f198416905b8181106200065d575096600192849260e096957fa3d19677a52b6dff051e5813011905526090505e00fcea83c604776ad5ebfd68999a1062000643575b505050811b0160085562000566565b015160001960f88460031b161c1916905538808062000634565b83830151895560019098019760209384019301620005f7565b6008600052620006b29060008051602062002ce3833981519152601f840160051c81019160208510620006b9575b601f0160051c019062000e5f565b386200050f565b9091508190620006a4565b634e487b7160e01b600052604160045260246000fd5b80518051906001600160401b038211620006c457620006fa865462000e22565b601f8111620007ca575b50602090601f83116001146200075557928260019493602093869560009262000749575b5050600019600383901b1c191690841b1787555b01940191019092620004d3565b01519050388062000728565b908660005260206000209160005b601f1985168110620007b1575083602093600196938796938794601f1981161062000797575b505050811b0187556200073c565b015160001960f88460031b161c1916905538808062000789565b9192602060018192868501518155019401920162000763565b620007f990876000526020600020601f850160051c81019160208610620006b957601f0160051c019062000e5f565b3862000704565b600760005260008051602062002cc3833981519152908382015b81830181106200082c575050620004b5565b806200083b6001925462000e22565b806200084a575b50016200081a565b601f81118314620008625750600081555b3862000842565b60009082825262000882601f60208420920160051c820185830162000e5f565b818355556200085b565b0151905038806200046e565b600560005260206000209060005b601f1984168110620008ef575060019394959683601f19811610620008d5575b505050811b0160055562000484565b015160001960f88460031b161c19169055388080620008c6565b9091602060018192858b015181550193019101620008a6565b620009389060056000526020600020601f840160051c81019160208510620006b957601f0160051c019062000e5f565b3862000451565b0151905038806200040b565b600460005260206000209060005b601f1984168110620009a2575060019394959683601f1981161062000988575b505050811b0160045562000421565b015160001960f88460031b161c1916905538808062000979565b9091602060018192858b01518155019301910162000959565b600460005262000a07907f8a35acfbc15ff81a39ae7d344fd709f28e8600b4aa8c65c6b64bfe7fe36bd19b601f840160051c81019160208510620006b957601f0160051c019062000e5f565b38620003ee565b015190503880620003a8565b600360005260206000209060005b601f198416811062000a71575060019394959683601f1981161062000a57575b505050811b01600355620003be565b015160001960f88460031b161c1916905538808062000a48565b9091602060018192858b01518155019301910162000a28565b600360005262000ad6907fc2575a0e9e593c00f959f8c92f12db2869c3395a3b0502d05e2516446f71f85b601f840160051c81019160208510620006b957601f0160051c019062000e5f565b386200038b565b01519050388062000345565b600260005260206000209060005b601f198416811062000b40575060019394959683601f1981161062000b26575b505050811b016002556200035b565b015160001960f88460031b161c1916905538808062000b17565b9091602060018192858b01518155019301910162000af7565b600260005262000ba5907f405787fa12a823e0f2b7631cc41b3ba8828b3321ca811111fa75cd3aa3bb5ace601f840160051c81019160208510620006b957601f0160051c019062000e5f565b3862000328565b01519050388062000295565b60106000908152935060008051602062002d0383398151915291905b601f198416851062000c1a576001945083601f1981161062000c00575b505050811b01601055620002ab565b015160001960f88460031b161c1916905538808062000bf1565b8181015183556020948501946001909301929091019062000bd4565b601060005262000c719060008051602062002d03833981519152601f850160051c81019160208610620006b957601f0160051c019062000e5f565b386200027c565b90508a0151386200023c565b600f6000908152925060008051602062002d23833981519152905b8c601f198416851062000ce657506001935082601f1981161062000ccc575b5050811b01600f5562000251565b8c015160001960f88460031b161c19169055388062000cbe565b81015182556020938401936001909201910162000c9f565b600f60005262000d399060008051602062002d23833981519152601f840160051c81019160208510620006b957601f0160051c019062000e5f565b3862000223565b600080fd5b8251906001600160401b03821162000d4057602080929162000d728d838095888c84019301010162000dcb565b81520193019290506200018c565b6040519190601f01601f191682016001600160401b03811183821017620006c457604052565b60005b83811062000dba5750506000910152565b818101518382015260200162000da9565b81601f8201121562000d405780516001600160401b038111620006c45762000dfd601f8201601f191660200162000d80565b928184526020828401011162000d405762000e1f916020808501910162000da6565b90565b90600182811c9216801562000e54575b602083101462000e3e57565b634e487b7160e01b600052602260045260246000fd5b91607f169162000e32565b81811062000e6b575050565b6000815560010162000e5f56fe6080604052600436101561001257600080fd5b60003560e01c806308551a5314611a105780633a6dcea21461114b5780634bd25c6f146109bc578063562e4d381461112857806356eec68d146110245780635c975abb146110015780635ec2c7bf14610ffc578063725a3b4b14610f6d5780637284e41614610eaa5780637b499faa14610e84578063842a77d314610e5657806388e7e36614610d12578063a035b1fe14610cf4578063a5d737ac14610ba9578063a5e845b414610b73578063d846118214610a62578063dfbf53ae14610a35578063e11e1b0c14610a17578063e2fdcc17146109c1578063eb91d37e146109bc578063ecfc7ecc146106a9578063f2a4a82e146102fb578063f3ccaac0146101e9578063fa391c64146101c65763fe67a54b1461012f57600080fd5b346101c15760003660031901126101c15760125460ff81166101845760019060ff19161760125560007fdaec4582d5d9595688c8c98545fdd1c696d41c6aeaeb636737e84ed2f5c00eda6020604051838152a2005b60405162461bcd60e51b8152602060048201526015602482015274105d58dd1a5bdb88185b1c9958591e48195b991959605a1b6044820152606490fd5b600080fd5b346101c15760003660031901126101c157602060ff601254166040519015158152f35b346101c15760003660031901126101c157604051600060105490600182811c918184169182156102f1575b60209485851084146102db5785879486865291826000146102bb57505060011461025e575b5061024692500383611ab6565b61025a604051928284938452830190611a3d565b0390f35b84915060106000527f1b6847dc741a1b0cd08d278845f9d819d87b734759afb55fe2de5cb82a9ae672906000915b8583106102a3575050610246935082010185610239565b8054838901850152879450869390920191810161028c565b60ff19168582015261024695151560051b85010192508791506102399050565b634e487b7160e01b600052602260045260246000fd5b92607f1692610214565b346101c15760003660031901126101c157604051600254600181811c92918181166000811561069f575b60209586811083146102db57808652869386939081156106815750600114610625575b5061035592500383611ab6565b604051600354909190808216600082841c821561061d575b87811083146102db57808652879386939081156105ff57506001146105a3575b5061039a92500383611ab6565b604051600454909190808216600082841c821561059b575b88811083146102db578086528893869390811561057d5750600114610521575b506103df92500383611ab6565b604051906000906005549081811c918181168015610517575b89841081146102db578386529081156104f957506001146104a4575b8660e087610498888c6104858a61042d818c0382611ab6565b6104776006549461046961043f611b5d565b9560ff600954169961045c6040519d8d8f9e8f9081520190611a3d565b918c8303908d0152611a3d565b9089820360408b0152611a3d565b908782036060890152611a3d565b91608086015284820360a0860152611a3d565b90151560c08301520390f35b6005600090815292507f036b6384b5eca791c62761152d0c79bb0604c104a5fb6f4eb0703f3154bb3db05b8284106104e6575050508101850161048582610414565b80548585018a01529288019281016104cf565b60ff1916858a01525050151560051b82018601905061048582610414565b92607f16926103f8565b600460009081529150847f8a35acfbc15ff81a39ae7d344fd709f28e8600b4aa8c65c6b64bfe7fe36bd19b5b82841061056657505050916103df9282010187926103d2565b80548885018701528794509285019286910161054d565b60ff19168486015250889390151560051b83010190506103df6103d2565b607f166103b2565b600360009081529150847fc2575a0e9e593c00f959f8c92f12db2869c3395a3b0502d05e2516446f71f85b5b8284106105e8575050509161039a92820101869261038d565b8054888501870152879450928501928691016105cf565b60ff19168486015250879390151560051b830101905061039a61038d565b607f1661036d565b600260009081529150847f405787fa12a823e0f2b7631cc41b3ba8828b3321ca811111fa75cd3aa3bb5ace5b82841061066a5750505091610355928201018592610348565b805488850187015287945092850192869101610651565b60ff19168486015250869390151560051b8301019050610355610348565b94607f1694610325565b60003660031901126101c1576002600d5414610977576002600d55600e5460ff811661093f576012549060ff82166108fa576011548034106108ab57610100600160a81b039160016affffffffffffffffffffff60a81b9485853360081b16911617176012556040513481527f3fabff0a9c3ecd6814702e247fa9733e5d0aa69e3a38590f92cb18f623a2254d60203392a26040513481527fdaec4582d5d9595688c8c98545fdd1c696d41c6aeaeb636737e84ed2f5c00eda60203392a260095460ff161561082b5750503460011b90348204600214341517156108155760016020916127107f137fb716243bb1721111512a26c6a2d922e0bf3022df1ea74c7ef10ab3bc0dc7940494600060806040516107c381611a9a565b85815230878201528860408201528260608201520152600a54913060081b169116171780600a5583600b5561ffff19600c5416600c5560405193845260018060a01b039060081c1692a25b6001600d55005b634e487b7160e01b600052601160045260246000fd5b6000935083925082918291829082156108a1575b60081c6001600160a01b031690f11561088c57601154803411610863575b5061080e565b80340390348211610815576000808093819382903414610898575b3390f11561088c578061085d565b6040513d6000823e3d90fd5b506108fc61087e565b6108fc915061083f565b60405162461bcd60e51b815260206004820152602160248201527f426964206d757374206d656574206f72206578636565642074686520707269636044820152606560f81b6064820152608490fd5b60405162461bcd60e51b815260206004820152601960248201527f41756374696f6e2068617320616c726561647920656e646564000000000000006044820152606490fd5b60405162461bcd60e51b815260206004820152601060248201526f14185d5cd8589b194e881c185d5cd95960821b6044820152606490fd5b60405162461bcd60e51b815260206004820152601f60248201527f5265656e7472616e637947756172643a207265656e7472616e742063616c6c006044820152606490fd5b610cf4565b346101c15760003660031901126101c15760a0600a5460ff600b54600c54906040519383811615158552600180871b039060081c16602085015260408401528181161515606084015260081c1615156080820152f35b346101c15760003660031901126101c1576020600054604051908152f35b346101c15760003660031901126101c15760125460405160089190911c6001600160a01b03168152602090f35b346101c15760203660031901126101c1576004356001600160a01b03818116918290036101c157610a9b90600e5460081c163314611c48565b610aa960ff60015416611c94565b610ab860ff600a541615611d20565b600c54610ac860ff821615611d62565b60ff8160081c16610b2e5760207ff396531fad1d4dc2cd92386cdea800c92a507f8fe1bdb80313eb32a57481b1dc91610100600054916000805561ff00191617600c55610b25600080808085895af1610b1f611da6565b50611dd6565b604051908152a2005b60405162461bcd60e51b815260206004820152601860248201527f5061796d656e7420616c72656164792072656c656173656400000000000000006044820152606490fd5b346101c15760003660031901126101c1576011548060011b90808204600214901517156108155760209061271060405191048152f35b60003660031901126101c157610bcd60018060a01b03600e5460081c163314611c48565b60015460ff8116610cb7573415610c82576011548060011b908082046002149015171561081557612710900490813410610c3d578160016020927f3b4f5a74452cddb80ae5a0d279eb7db6afd5e556e72ca2883016b1da7c9d21169460005560ff191617600155604051908152a1005b60405162461bcd60e51b815260206004820152601a60248201527f496e73756666696369656e7420657363726f7720616d6f756e740000000000006044820152606490fd5b60405162461bcd60e51b815260206004820152600d60248201526c09aeae6e840e6cadcc8408aa89609b1b6044820152606490fd5b60405162461bcd60e51b8152602060048201526015602482015274115cd8dc9bddc8185b1c9958591e48199d5b991959605a1b6044820152606490fd5b346101c15760003660031901126101c1576020601154604051908152f35b346101c15760203660031901126101c157600435801515908181036101c15760018060a01b0391610d4b8360125460081c163314611cd4565b610d5960ff60015416611c94565b610d6860ff600a541615611d20565b610101600c54610d7b60ff821615611d62565b61ffff191617600c556040519081527f27a5ccc16be6802bcec7c2477a2b588a54c808352ef7dab930058f65864b3ce960203392a215610e0c577fe327b247066bdf32cf2493778e3fce4339b69c1e379a3b0dc780779bf67fe15560206000549260008055610dfb60008080808886600e5460081c165af1610b1f611da6565b600e5460081c1692604051908152a2005b5060005460008055610e28600080808085335af1610b1f611da6565b6040519081527f894ce7cc354d2a39de53f8dab6b0ad8c5ac65641e68aa2154fdb88bcc387e3dd60203392a2005b346101c15760203660031901126101c1576004356001600160a01b038116036101c157602060405160008152f35b346101c15760003660031901126101c157602060ff60015460081c166040519015158152f35b346101c15760003660031901126101c1576040516000600f5490600182811c91818416918215610f63575b60209485851084146102db5785879486865291826000146102bb575050600114610f06575061024692500383611ab6565b849150600f6000527f8d1108e10bcb7c27dddfc02ed9d693a074039d026cf4ea4240b40f7d581ac802906000915b858310610f4b575050610246935082010185610239565b80548389018501528794508693909201918101610f34565b92607f1692610ed5565b346101c157610f7b36611af4565b610f9360018060a01b0360125460081c163314611cd4565b610fa160ff60015416611c94565b610fb060ff600a541615611d20565b610fbf60ff600c541615611d62565b7f28b099eb575e23e32becd7c30dc8f9b2f98e370cdbf9841ea3338d9000402a256040516020815280610ff733946020830190611a3d565b0390a2005b611a10565b346101c15760003660031901126101c157602060ff600e54166040519015158152f35b346101c15761103236611af4565b61104a60018060a01b03600e5460081c163314611c48565b61105860ff60015416611c94565b600a5460ff8116156110ef578151156110aa5760ff1916600a557f2eb59c65a13ffe423f16ef2c7edd21afcde560ef40c04008402e75d5c0b04b2f6040516020815280610ff733946020830190611a3d565b60405162461bcd60e51b815260206004820152601760248201527f496e76616c696420747261636b696e67206e756d6265720000000000000000006044820152606490fd5b60405162461bcd60e51b8152602060048201526011602482015270457363726f77206e6f742061637469766560781b6044820152606490fd5b346101c15760003660031901126101c157602060ff600154166040519015158152f35b346101c15760003660031901126101c157600060e060405161116c81611a7d565b606081526060602082015260606040820152606080820152826080820152606060a0820152606060c08201520152600060806040516111aa81611a9a565b8281528260208201528260408201528260608201520152600e5460115490601254604051926000600f548060011c9160018216918215611a06575b6020841083146102db5783885287929081156119e75750600114611986575b61121092500385611ab6565b6040519160006010548060011c916001821691821561197c575b6020841083146102db57838752869290811561195d57506001146118fc575b61125592500384611ab6565b6040519261126284611a7d565b60405160006002548060011c9160018216156118f2575b6020831060018316146102db578284528391600181169081156118d35750600114611872575b6112ab92500382611ab6565b845260405160006003548060011c916001821615611868575b6020831060018316146102db5782845283916001811690811561184957506001146117e8575b6112f692500382611ab6565b602085015260405160006004548060011c9160018216156117de575b6020831060018316146102db578284528391600181169081156117bf575060011461175e575b61134492500382611ab6565b604085015260405160006005548060011c916001821615611754575b6020831060018316146102db5782845283916001811690811561173557506001146116d4575b61139292500382611ab6565b6060850152600654608085015260075467ffffffffffffffff81116116be57604051906113c560208260051b0183611ab6565b808252602082019060076000527fa66cc928b5edb82af9bd49922954155ab7b0942694bea4ce44661d9a8736c688916000905b8282106115fd575050505060a08501526114a590611414611b5d565b60c086015260ff60095416151560e08601526114976040519761143689611a9a565b600a5460ff811615158a5260018060a01b039060081c1660208a0152600b5460408a015260ff600c54818116151560608c015260081c16151560808a01526040519760018060a01b039060081c1688526101a08060208a0152880190611a3d565b908682036040880152611a3d565b9160608501526000608085015260ff8116151560a085015260018060a01b039060081c1660c084015282810360e084015261152a6115186115066114f485516101008652610100860190611a3d565b60208601518582036020870152611a3d565b60408501518482036040860152611a3d565b60608401518382036060850152611a3d565b6080830151608083015260a08301519082810360a0840152815180825260208201916020808360051b8301019401926000915b8383106115d05788808960808d8b60e0806115848e60c088015185820360c0870152611a3d565b95015115159101528051151561010085015260208101516001600160a01b0316610120850152604081015161014085015260608101511515610160850152015115156101808301520390f35b90919293946020806115ee600193601f198682030187528951611a3d565b9701930193019193929061155d565b604051600085548060011c9060018116156116b4575b6020821060018216146102db57818452600181169081156116915750600114611659575b506001928261164b85946020940382611ab6565b8152019401910190926113f8565b6000878152602081209092505b81831061167b57505081016020016001611637565b6001816020925483868801015201920191611666565b60ff191660208581019190915291151560051b8401909101915060019050611637565b90607f1690611613565b634e487b7160e01b600052604160045260246000fd5b509060056000527f036b6384b5eca791c62761152d0c79bb0604c104a5fb6f4eb0703f3154bb3db0906000915b81831061171957505090602061139292820101611386565b6020919350806001915483858801015201910190918392611701565b6020925061139294915060ff191682840152151560051b820101611386565b91607f1691611360565b509060046000527f8a35acfbc15ff81a39ae7d344fd709f28e8600b4aa8c65c6b64bfe7fe36bd19b906000915b8183106117a357505090602061134492820101611338565b602091935080600191548385880101520191019091839261178b565b6020925061134494915060ff191682840152151560051b820101611338565b91607f1691611312565b509060036000527fc2575a0e9e593c00f959f8c92f12db2869c3395a3b0502d05e2516446f71f85b906000915b81831061182d5750509060206112f6928201016112ea565b6020919350806001915483858801015201910190918392611815565b602092506112f694915060ff191682840152151560051b8201016112ea565b91607f16916112c4565b509060026000527f405787fa12a823e0f2b7631cc41b3ba8828b3321ca811111fa75cd3aa3bb5ace906000915b8183106118b75750509060206112ab9282010161129f565b602091935080600191548385880101520191019091839261189f565b602092506112ab94915060ff191682840152151560051b82010161129f565b91607f1691611279565b509060106000527f1b6847dc741a1b0cd08d278845f9d819d87b734759afb55fe2de5cb82a9ae672906000915b81831061194157505090602061125592820101611249565b6020919350806001915483858a01015201910190918592611929565b6020925061125594915060ff191682840152151560051b820101611249565b92607f169261122a565b5090600f6000527f8d1108e10bcb7c27dddfc02ed9d693a074039d026cf4ea4240b40f7d581ac802906000915b8183106119cb57505090602061121092820101611204565b6020919350806001915483858b010152019101909186926119b3565b6020925061121094915060ff191682840152151560051b820101611204565b92607f16926111e5565b346101c15760003660031901126101c157600e5460405160089190911c6001600160a01b03168152602090f35b919082519283825260005b848110611a69575050826000602080949584010152601f8019910116010190565b602081830181015184830182015201611a48565b610100810190811067ffffffffffffffff8211176116be57604052565b60a0810190811067ffffffffffffffff8211176116be57604052565b90601f8019910116810190811067ffffffffffffffff8211176116be57604052565b67ffffffffffffffff81116116be57601f01601f191660200190565b60206003198201126101c15760043567ffffffffffffffff81116101c157816023820112156101c157806004013590611b2c82611ad8565b92611b3a6040519485611ab6565b828452602483830101116101c15781600092602460209301838601378301015290565b60405190600060085490600182811c90808416938415611c3e575b6020948584108114611c2a5783885287949392918115611c0a5750600114611bab575b5050611ba992500383611ab6565b565b9093915060086000527ff3f7a9fe364faab93b216da50a3214154f22a0a2b415b23a84c8169e8b636ee3936000915b818310611bf2575050611ba993508201013880611b9b565b85548884018501529485019487945091830191611bda565b915050611ba994925060ff191682840152151560051b8201013880611b9b565b634e487b7160e01b85526022600452602485fd5b91607f1691611b78565b15611c4f57565b60405162461bcd60e51b815260206004820152601960248201527f4f6e6c792073656c6c65722063616e2063616c6c2074686973000000000000006044820152606490fd5b15611c9b57565b60405162461bcd60e51b8152602060048201526011602482015270115cd8dc9bddc81b9bdd08199d5b991959607a1b6044820152606490fd5b15611cdb57565b60405162461bcd60e51b815260206004820152601860248201527f4f6e6c792062757965722063616e2063616c6c207468697300000000000000006044820152606490fd5b15611d2757565b60405162461bcd60e51b8152602060048201526013602482015272457363726f77207374696c6c2061637469766560681b6044820152606490fd5b15611d6957565b60405162461bcd60e51b8152602060048201526015602482015274125d195b48185b1c9958591e481c9958d95a5d9959605a1b6044820152606490fd5b3d15611dd1573d90611db782611ad8565b91611dc56040519384611ab6565b82523d6000602084013e565b606090565b15611ddd57565b60405162461bcd60e51b815260206004820152600f60248201526e151c985b9cd9995c8819985a5b1959608a1b6044820152606490fdfea2646970667358221220c38f5f810b1dc40743119099f0e422f9682c406de80b2d897418af51b65fa91b64736f6c63430008140033a66cc928b5edb82af9bd49922954155ab7b0942694bea4ce44661d9a8736c688f3f7a9fe364faab93b216da50a3214154f22a0a2b415b23a84c8169e8b636ee31b6847dc741a1b0cd08d278845f9d819d87b734759afb55fe2de5cb82a9ae6728d1108e10bcb7c27dddfc02ed9d693a074039d026cf4ea4240b40f7d581ac802","opcodes":"PUSH1 0x80 PUSH1 0x40 MSTORE CALLVALUE PUSH3 0xD40 JUMPI PUSH3 0x2D43 DUP1 CODESIZE SUB DUP1 PUSH3 0x1D DUP2 PUSH3 0xD80 JUMP JUMPDEST SWAP3 DUP4 CODECOPY PUSH2 0x160 DUP3 DUP3 DUP2 ADD SUB SLT PUSH3 0xD40 JUMPI DUP2 MLOAD PUSH1 0x1 PUSH1 0x1 PUSH1 0x40 SHL SUB DUP2 GT PUSH3 0xD40 JUMPI PUSH3 0x50 SWAP1 DUP3 DUP5 ADD SWAP1 DUP5 ADD PUSH3 0xDCB JUMP JUMPDEST PUSH1 0x20 DUP4 ADD MLOAD PUSH1 0x1 PUSH1 0x1 PUSH1 0x40 SHL SUB DUP2 GT PUSH3 0xD40 JUMPI PUSH3 0x75 SWAP1 DUP4 DUP6 ADD SWAP1 DUP6 ADD PUSH3 0xDCB JUMP JUMPDEST PUSH1 0x40 DUP5 ADD MLOAD PUSH1 0x60 DUP6 ADD MLOAD SWAP1 SWAP2 SWAP1 PUSH1 0x1 PUSH1 0x1 PUSH1 0x40 SHL SUB DUP2 GT PUSH3 0xD40 JUMPI PUSH3 0xA2 SWAP1 DUP6 DUP8 ADD SWAP1 DUP8 ADD PUSH3 0xDCB JUMP JUMPDEST PUSH1 0x80 DUP7 ADD MLOAD SWAP1 SWAP6 SWAP1 PUSH1 0x1 PUSH1 0x1 PUSH1 0x40 SHL SUB DUP2 GT PUSH3 0xD40 JUMPI PUSH3 0xCA SWAP1 DUP7 DUP4 ADD SWAP1 DUP4 ADD PUSH3 0xDCB JUMP JUMPDEST PUSH1 0xA0 DUP3 ADD MLOAD SWAP1 SWAP6 SWAP1 PUSH1 0x1 PUSH1 0x1 PUSH1 0x40 SHL SUB DUP2 GT PUSH3 0xD40 JUMPI PUSH3 0xF2 SWAP1 DUP3 DUP5 ADD SWAP1 DUP5 ADD PUSH3 0xDCB JUMP JUMPDEST PUSH1 0xC0 DUP4 ADD MLOAD PUSH1 0x1 PUSH1 0x1 PUSH1 0x40 SHL SUB DUP2 GT PUSH3 0xD40 JUMPI PUSH3 0x117 SWAP1 DUP4 DUP6 ADD SWAP1 DUP6 ADD PUSH3 0xDCB JUMP JUMPDEST PUSH1 0xE0 DUP5 ADD MLOAD PUSH2 0x100 DUP6 ADD MLOAD SWAP4 SWAP1 SWAP3 SWAP1 PUSH1 0x1 PUSH1 0x1 PUSH1 0x40 SHL SUB DUP6 GT PUSH3 0xD40 JUMPI DUP1 DUP7 ADD PUSH1 0x1F DUP7 DUP9 ADD ADD SLT ISZERO PUSH3 0xD40 JUMPI DUP6 DUP6 ADD MLOAD SWAP5 PUSH1 0x1 PUSH1 0x1 PUSH1 0x40 SHL SUB DUP7 GT PUSH3 0x6C4 JUMPI DUP6 PUSH1 0x5 SHL SWAP1 PUSH1 0x20 PUSH3 0x16D DUP2 DUP5 ADD PUSH3 0xD80 JUMP JUMPDEST DUP1 SWAP9 DUP2 MSTORE ADD SWAP1 DUP4 DUP10 ADD PUSH1 0x20 DUP5 DUP4 DUP13 ADD ADD ADD GT PUSH3 0xD40 JUMPI PUSH1 0x20 DUP2 DUP11 ADD ADD SWAP2 JUMPDEST PUSH1 0x20 DUP5 DUP4 DUP13 ADD ADD ADD DUP4 LT PUSH3 0xD45 JUMPI POP POP POP POP PUSH2 0x120 DUP7 ADD MLOAD SWAP1 PUSH1 0x1 PUSH1 0x1 PUSH1 0x40 SHL SUB DUP3 GT PUSH3 0xD40 JUMPI PUSH2 0x140 SWAP2 PUSH3 0x1C9 SWAP2 DUP9 ADD SWAP1 DUP9 ADD PUSH3 0xDCB JUMP JUMPDEST SWAP6 ADD MLOAD SWAP6 DUP7 ISZERO ISZERO DUP8 SUB PUSH3 0xD40 JUMPI PUSH1 0x1 PUSH1 0xD SSTORE PUSH1 0xE DUP1 SLOAD PUSH1 0x1 PUSH1 0x1 PUSH1 0xA8 SHL SUB NOT AND CALLER PUSH1 0x8 SHL PUSH2 0x100 PUSH1 0x1 PUSH1 0xA8 SHL SUB AND OR SWAP1 SSTORE DUP9 MLOAD PUSH1 0x1 PUSH1 0x1 PUSH1 0x40 SHL SUB DUP2 GT PUSH3 0x6C4 JUMPI PUSH3 0x219 PUSH1 0xF SLOAD PUSH3 0xE22 JUMP JUMPDEST PUSH1 0x1F DUP2 GT PUSH3 0xCFE JUMPI JUMPDEST POP DUP1 PUSH1 0x20 PUSH1 0x1F DUP3 GT PUSH1 0x1 EQ PUSH3 0xC84 JUMPI PUSH1 0x0 SWAP2 PUSH3 0xC78 JUMPI JUMPDEST POP DUP2 PUSH1 0x1 SHL SWAP2 PUSH1 0x0 NOT SWAP1 PUSH1 0x3 SHL SHR NOT AND OR PUSH1 0xF SSTORE JUMPDEST DUP1 MLOAD SWAP1 PUSH1 0x1 PUSH1 0x1 PUSH1 0x40 SHL SUB DUP3 GT PUSH3 0x6C4 JUMPI DUP2 SWAP1 PUSH3 0x272 PUSH1 0x10 SLOAD PUSH3 0xE22 JUMP JUMPDEST PUSH1 0x1F DUP2 GT PUSH3 0xC36 JUMPI JUMPDEST POP PUSH1 0x20 SWAP1 PUSH1 0x1F DUP4 GT PUSH1 0x1 EQ PUSH3 0xBB8 JUMPI PUSH1 0x0 SWAP3 PUSH3 0xBAC JUMPI JUMPDEST POP POP DUP2 PUSH1 0x1 SHL SWAP2 PUSH1 0x0 NOT SWAP1 PUSH1 0x3 SHL SHR NOT AND OR PUSH1 0x10 SSTORE JUMPDEST PUSH1 0x11 DUP8 SWAP1 SSTORE PUSH1 0x12 DUP1 SLOAD PUSH1 0xFF NOT AND SWAP1 SSTORE PUSH1 0x40 MLOAD SWAP9 PUSH2 0x100 DUP11 ADD PUSH1 0x1 PUSH1 0x1 PUSH1 0x40 SHL SUB DUP2 GT DUP12 DUP3 LT OR PUSH3 0x6C4 JUMPI PUSH1 0x40 MSTORE DUP11 DUP11 MSTORE PUSH1 0x20 DUP11 ADD MSTORE PUSH1 0x40 DUP10 ADD MSTORE PUSH1 0x60 DUP9 ADD MSTORE PUSH1 0x80 DUP8 ADD MSTORE PUSH1 0xA0 DUP7 ADD MSTORE PUSH1 0xC0 DUP6 ADD MSTORE ISZERO ISZERO PUSH1 0xE0 DUP5 ADD MSTORE DUP4 MLOAD PUSH1 0x1 DUP1 PUSH1 0x40 SHL SUB DUP2 GT PUSH3 0x6C4 JUMPI PUSH3 0x31E PUSH1 0x2 SLOAD PUSH3 0xE22 JUMP JUMPDEST PUSH1 0x1F DUP2 GT PUSH3 0xB59 JUMPI JUMPDEST POP PUSH1 0x20 PUSH1 0x1F DUP3 GT PUSH1 0x1 EQ PUSH3 0xAE9 JUMPI DUP2 SWAP3 SWAP4 SWAP5 SWAP6 PUSH1 0x0 SWAP3 PUSH3 0xADD JUMPI JUMPDEST POP POP DUP2 PUSH1 0x1 SHL SWAP2 PUSH1 0x0 NOT SWAP1 PUSH1 0x3 SHL SHR NOT AND OR PUSH1 0x2 SSTORE JUMPDEST PUSH1 0x20 DUP4 ADD MLOAD DUP1 MLOAD SWAP1 SWAP4 SWAP1 PUSH1 0x1 PUSH1 0x1 PUSH1 0x40 SHL SUB DUP2 GT PUSH3 0x6C4 JUMPI PUSH3 0x381 PUSH1 0x3 SLOAD PUSH3 0xE22 JUMP JUMPDEST PUSH1 0x1F DUP2 GT PUSH3 0xA8A JUMPI JUMPDEST POP PUSH1 0x20 PUSH1 0x1F DUP3 GT PUSH1 0x1 EQ PUSH3 0xA1A JUMPI DUP2 SWAP3 SWAP4 SWAP5 SWAP6 PUSH1 0x0 SWAP3 PUSH3 0xA0E JUMPI JUMPDEST POP POP DUP2 PUSH1 0x1 SHL SWAP2 PUSH1 0x0 NOT SWAP1 PUSH1 0x3 SHL SHR NOT AND OR PUSH1 0x3 SSTORE JUMPDEST PUSH1 0x40 DUP2 ADD MLOAD DUP1 MLOAD SWAP1 SWAP4 SWAP1 PUSH1 0x1 PUSH1 0x1 PUSH1 0x40 SHL SUB DUP2 GT PUSH3 0x6C4 JUMPI PUSH3 0x3E4 PUSH1 0x4 SLOAD PUSH3 0xE22 JUMP JUMPDEST PUSH1 0x1F DUP2 GT PUSH3 0x9BB JUMPI JUMPDEST POP PUSH1 0x20 PUSH1 0x1F DUP3 GT PUSH1 0x1 EQ PUSH3 0x94B JUMPI DUP2 SWAP3 SWAP4 SWAP5 SWAP6 PUSH1 0x0 SWAP3 PUSH3 0x93F JUMPI JUMPDEST POP POP DUP2 PUSH1 0x1 SHL SWAP2 PUSH1 0x0 NOT SWAP1 PUSH1 0x3 SHL SHR NOT AND OR PUSH1 0x4 SSTORE JUMPDEST PUSH1 0x60 DUP3 ADD MLOAD DUP1 MLOAD SWAP1 SWAP4 SWAP1 PUSH1 0x1 PUSH1 0x1 PUSH1 0x40 SHL SUB DUP2 GT PUSH3 0x6C4 JUMPI PUSH3 0x447 PUSH1 0x5 SLOAD PUSH3 0xE22 JUMP JUMPDEST PUSH1 0x1F DUP2 GT PUSH3 0x908 JUMPI JUMPDEST POP PUSH1 0x20 PUSH1 0x1F DUP3 GT PUSH1 0x1 EQ PUSH3 0x898 JUMPI DUP2 SWAP3 SWAP4 SWAP5 SWAP6 PUSH1 0x0 SWAP3 PUSH3 0x88C JUMPI JUMPDEST POP POP DUP2 PUSH1 0x1 SHL SWAP2 PUSH1 0x0 NOT SWAP1 PUSH1 0x3 SHL SHR NOT AND OR PUSH1 0x5 SSTORE JUMPDEST PUSH1 0x80 DUP4 ADD MLOAD PUSH1 0x6 SSTORE PUSH1 0xA0 DUP4 ADD MLOAD DUP1 MLOAD SWAP1 PUSH9 0x10000000000000000 DUP3 GT PUSH3 0x6C4 JUMPI PUSH1 0x7 SLOAD DUP3 PUSH1 0x7 SSTORE DUP1 DUP4 LT PUSH3 0x800 JUMPI JUMPDEST POP PUSH1 0x7 PUSH1 0x0 SWAP1 DUP2 MSTORE PUSH1 0x0 DUP1 MLOAD PUSH1 0x20 PUSH3 0x2CC3 DUP4 CODECOPY DUP2 MLOAD SWAP2 MSTORE SWAP3 SWAP2 PUSH1 0x20 ADD JUMPDEST DUP3 DUP3 LT PUSH3 0x6DA JUMPI POP POP POP POP PUSH1 0xC0 DUP4 ADD MLOAD DUP1 MLOAD SWAP1 SWAP4 SWAP1 PUSH1 0x1 PUSH1 0x1 PUSH1 0x40 SHL SUB DUP2 GT PUSH3 0x6C4 JUMPI PUSH3 0x505 PUSH1 0x8 SLOAD PUSH3 0xE22 JUMP JUMPDEST PUSH1 0x1F DUP2 GT PUSH3 0x676 JUMPI JUMPDEST POP PUSH1 0x20 PUSH1 0x1F DUP3 GT PUSH1 0x1 EQ PUSH3 0x5D7 JUMPI SWAP1 DUP1 PUSH1 0xE0 SWAP4 SWAP3 PUSH32 0xA3D19677A52B6DFF051E5813011905526090505E00FCEA83C604776AD5EBFD68 SWAP7 SWAP8 PUSH1 0x0 SWAP3 PUSH3 0x5CB JUMPI JUMPDEST POP POP DUP2 PUSH1 0x1 SHL SWAP2 PUSH1 0x0 NOT SWAP1 PUSH1 0x3 SHL SHR NOT AND OR PUSH1 0x8 SSTORE JUMPDEST ADD MLOAD ISZERO ISZERO PUSH1 0xFF DUP1 NOT PUSH1 0x9 SLOAD AND SWAP2 AND OR PUSH1 0x9 SSTORE PUSH1 0x40 MLOAD SWAP1 DUP2 MSTORE PUSH1 0x0 PUSH1 0x20 DUP3 ADD MSTORE PUSH1 0x60 PUSH1 0x40 DUP3 ADD MSTORE PUSH3 0x5A8 DUP4 MLOAD DUP1 SWAP5 DUP2 PUSH1 0x60 DUP6 ADD MSTORE PUSH1 0x20 PUSH1 0x80 DUP6 ADD SWAP2 ADD PUSH3 0xDA6 JUMP JUMPDEST CALLER SWAP3 PUSH1 0x1F ADD PUSH1 0x1F NOT AND DUP2 ADD DUP2 SWAP1 SUB PUSH1 0x80 ADD SWAP1 LOG2 PUSH1 0x40 MLOAD PUSH2 0x1E4A SWAP1 DUP2 PUSH3 0xE79 DUP3 CODECOPY RETURN JUMPDEST ADD MLOAD SWAP1 POP CODESIZE DUP1 PUSH3 0x550 JUMP JUMPDEST PUSH1 0x8 PUSH1 0x0 SWAP1 DUP2 MSTORE PUSH1 0x0 DUP1 MLOAD PUSH1 0x20 PUSH3 0x2CE3 DUP4 CODECOPY DUP2 MLOAD SWAP2 MSTORE SWAP7 SWAP1 PUSH1 0x1F NOT DUP5 AND SWAP1 JUMPDEST DUP2 DUP2 LT PUSH3 0x65D JUMPI POP SWAP7 PUSH1 0x1 SWAP3 DUP5 SWAP3 PUSH1 0xE0 SWAP7 SWAP6 PUSH32 0xA3D19677A52B6DFF051E5813011905526090505E00FCEA83C604776AD5EBFD68 SWAP10 SWAP11 LT PUSH3 0x643 JUMPI JUMPDEST POP POP POP DUP2 SHL ADD PUSH1 0x8 SSTORE PUSH3 0x566 JUMP JUMPDEST ADD MLOAD PUSH1 0x0 NOT PUSH1 0xF8 DUP5 PUSH1 0x3 SHL AND SHR NOT AND SWAP1 SSTORE CODESIZE DUP1 DUP1 PUSH3 0x634 JUMP JUMPDEST DUP4 DUP4 ADD MLOAD DUP10 SSTORE PUSH1 0x1 SWAP1 SWAP9 ADD SWAP8 PUSH1 0x20 SWAP4 DUP5 ADD SWAP4 ADD PUSH3 0x5F7 JUMP JUMPDEST PUSH1 0x8 PUSH1 0x0 MSTORE PUSH3 0x6B2 SWAP1 PUSH1 0x0 DUP1 MLOAD PUSH1 0x20 PUSH3 0x2CE3 DUP4 CODECOPY DUP2 MLOAD SWAP2 MSTORE PUSH1 0x1F DUP5 ADD PUSH1 0x5 SHR DUP2 ADD SWAP2 PUSH1 0x20 DUP6 LT PUSH3 0x6B9 JUMPI JUMPDEST PUSH1 0x1F ADD PUSH1 0x5 SHR ADD SWAP1 PUSH3 0xE5F JUMP JUMPDEST CODESIZE PUSH3 0x50F JUMP JUMPDEST SWAP1 SWAP2 POP DUP2 SWAP1 PUSH3 0x6A4 JUMP JUMPDEST PUSH4 0x4E487B71 PUSH1 0xE0 SHL PUSH1 0x0 MSTORE PUSH1 0x41 PUSH1 0x4 MSTORE PUSH1 0x24 PUSH1 0x0 REVERT JUMPDEST DUP1 MLOAD DUP1 MLOAD SWAP1 PUSH1 0x1 PUSH1 0x1 PUSH1 0x40 SHL SUB DUP3 GT PUSH3 0x6C4 JUMPI PUSH3 0x6FA DUP7 SLOAD PUSH3 0xE22 JUMP JUMPDEST PUSH1 0x1F DUP2 GT PUSH3 0x7CA JUMPI JUMPDEST POP PUSH1 0x20 SWAP1 PUSH1 0x1F DUP4 GT PUSH1 0x1 EQ PUSH3 0x755 JUMPI SWAP3 DUP3 PUSH1 0x1 SWAP5 SWAP4 PUSH1 0x20 SWAP4 DUP7 SWAP6 PUSH1 0x0 SWAP3 PUSH3 0x749 JUMPI JUMPDEST POP POP PUSH1 0x0 NOT PUSH1 0x3 DUP4 SWAP1 SHL SHR NOT AND SWAP1 DUP5 SHL OR DUP8 SSTORE JUMPDEST ADD SWAP5 ADD SWAP2 ADD SWAP1 SWAP3 PUSH3 0x4D3 JUMP JUMPDEST ADD MLOAD SWAP1 POP CODESIZE DUP1 PUSH3 0x728 JUMP JUMPDEST SWAP1 DUP7 PUSH1 0x0 MSTORE PUSH1 0x20 PUSH1 0x0 KECCAK256 SWAP2 PUSH1 0x0 JUMPDEST PUSH1 0x1F NOT DUP6 AND DUP2 LT PUSH3 0x7B1 JUMPI POP DUP4 PUSH1 0x20 SWAP4 PUSH1 0x1 SWAP7 SWAP4 DUP8 SWAP7 SWAP4 DUP8 SWAP5 PUSH1 0x1F NOT DUP2 AND LT PUSH3 0x797 JUMPI JUMPDEST POP POP POP DUP2 SHL ADD DUP8 SSTORE PUSH3 0x73C JUMP JUMPDEST ADD MLOAD PUSH1 0x0 NOT PUSH1 0xF8 DUP5 PUSH1 0x3 SHL AND SHR NOT AND SWAP1 SSTORE CODESIZE DUP1 DUP1 PUSH3 0x789 JUMP JUMPDEST SWAP2 SWAP3 PUSH1 0x20 PUSH1 0x1 DUP2 SWAP3 DUP7 DUP6 ADD MLOAD DUP2 SSTORE ADD SWAP5 ADD SWAP3 ADD PUSH3 0x763 JUMP JUMPDEST PUSH3 0x7F9 SWAP1 DUP8 PUSH1 0x0 MSTORE PUSH1 0x20 PUSH1 0x0 KECCAK256 PUSH1 0x1F DUP6 ADD PUSH1 0x5 SHR DUP2 ADD SWAP2 PUSH1 0x20 DUP7 LT PUSH3 0x6B9 JUMPI PUSH1 0x1F ADD PUSH1 0x5 SHR ADD SWAP1 PUSH3 0xE5F JUMP JUMPDEST CODESIZE PUSH3 0x704 JUMP JUMPDEST PUSH1 0x7 PUSH1 0x0 MSTORE PUSH1 0x0 DUP1 MLOAD PUSH1 0x20 PUSH3 0x2CC3 DUP4 CODECOPY DUP2 MLOAD SWAP2 MSTORE SWAP1 DUP4 DUP3 ADD JUMPDEST DUP2 DUP4 ADD DUP2 LT PUSH3 0x82C JUMPI POP POP PUSH3 0x4B5 JUMP JUMPDEST DUP1 PUSH3 0x83B PUSH1 0x1 SWAP3 SLOAD PUSH3 0xE22 JUMP JUMPDEST DUP1 PUSH3 0x84A JUMPI JUMPDEST POP ADD PUSH3 0x81A JUMP JUMPDEST PUSH1 0x1F DUP2 GT DUP4 EQ PUSH3 0x862 JUMPI POP PUSH1 0x0 DUP2 SSTORE JUMPDEST CODESIZE PUSH3 0x842 JUMP JUMPDEST PUSH1 0x0 SWAP1 DUP3 DUP3 MSTORE PUSH3 0x882 PUSH1 0x1F PUSH1 0x20 DUP5 KECCAK256 SWAP3 ADD PUSH1 0x5 SHR DUP3 ADD DUP6 DUP4 ADD PUSH3 0xE5F JUMP JUMPDEST DUP2 DUP4 SSTORE SSTORE PUSH3 0x85B JUMP JUMPDEST ADD MLOAD SWAP1 POP CODESIZE DUP1 PUSH3 0x46E JUMP JUMPDEST PUSH1 0x5 PUSH1 0x0 MSTORE PUSH1 0x20 PUSH1 0x0 KECCAK256 SWAP1 PUSH1 0x0 JUMPDEST PUSH1 0x1F NOT DUP5 AND DUP2 LT PUSH3 0x8EF JUMPI POP PUSH1 0x1 SWAP4 SWAP5 SWAP6 SWAP7 DUP4 PUSH1 0x1F NOT DUP2 AND LT PUSH3 0x8D5 JUMPI JUMPDEST POP POP POP DUP2 SHL ADD PUSH1 0x5 SSTORE PUSH3 0x484 JUMP JUMPDEST ADD MLOAD PUSH1 0x0 NOT PUSH1 0xF8 DUP5 PUSH1 0x3 SHL AND SHR NOT AND SWAP1 SSTORE CODESIZE DUP1 DUP1 PUSH3 0x8C6 JUMP JUMPDEST SWAP1 SWAP2 PUSH1 0x20 PUSH1 0x1 DUP2 SWAP3 DUP6 DUP12 ADD MLOAD DUP2 SSTORE ADD SWAP4 ADD SWAP2 ADD PUSH3 0x8A6 JUMP JUMPDEST PUSH3 0x938 SWAP1 PUSH1 0x5 PUSH1 0x0 MSTORE PUSH1 0x20 PUSH1 0x0 KECCAK256 PUSH1 0x1F DUP5 ADD PUSH1 0x5 SHR DUP2 ADD SWAP2 PUSH1 0x20 DUP6 LT PUSH3 0x6B9 JUMPI PUSH1 0x1F ADD PUSH1 0x5 SHR ADD SWAP1 PUSH3 0xE5F JUMP JUMPDEST CODESIZE PUSH3 0x451 JUMP JUMPDEST ADD MLOAD SWAP1 POP CODESIZE DUP1 PUSH3 0x40B JUMP JUMPDEST PUSH1 0x4 PUSH1 0x0 MSTORE PUSH1 0x20 PUSH1 0x0 KECCAK256 SWAP1 PUSH1 0x0 JUMPDEST PUSH1 0x1F NOT DUP5 AND DUP2 LT PUSH3 0x9A2 JUMPI POP PUSH1 0x1 SWAP4 SWAP5 SWAP6 SWAP7 DUP4 PUSH1 0x1F NOT DUP2 AND LT PUSH3 0x988 JUMPI JUMPDEST POP POP POP DUP2 SHL ADD PUSH1 0x4 SSTORE PUSH3 0x421 JUMP JUMPDEST ADD MLOAD PUSH1 0x0 NOT PUSH1 0xF8 DUP5 PUSH1 0x3 SHL AND SHR NOT AND SWAP1 SSTORE CODESIZE DUP1 DUP1 PUSH3 0x979 JUMP JUMPDEST SWAP1 SWAP2 PUSH1 0x20 PUSH1 0x1 DUP2 SWAP3 DUP6 DUP12 ADD MLOAD DUP2 SSTORE ADD SWAP4 ADD SWAP2 ADD PUSH3 0x959 JUMP JUMPDEST PUSH1 0x4 PUSH1 0x0 MSTORE PUSH3 0xA07 SWAP1 PUSH32 0x8A35ACFBC15FF81A39AE7D344FD709F28E8600B4AA8C65C6B64BFE7FE36BD19B PUSH1 0x1F DUP5 ADD PUSH1 0x5 SHR DUP2 ADD SWAP2 PUSH1 0x20 DUP6 LT PUSH3 0x6B9 JUMPI PUSH1 0x1F ADD PUSH1 0x5 SHR ADD SWAP1 PUSH3 0xE5F JUMP JUMPDEST CODESIZE PUSH3 0x3EE JUMP JUMPDEST ADD MLOAD SWAP1 POP CODESIZE DUP1 PUSH3 0x3A8 JUMP JUMPDEST PUSH1 0x3 PUSH1 0x0 MSTORE PUSH1 0x20 PUSH1 0x0 KECCAK256 SWAP1 PUSH1 0x0 JUMPDEST PUSH1 0x1F NOT DUP5 AND DUP2 LT PUSH3 0xA71 JUMPI POP PUSH1 0x1 SWAP4 SWAP5 SWAP6 SWAP7 DUP4 PUSH1 0x1F NOT DUP2 AND LT PUSH3 0xA57 JUMPI JUMPDEST POP POP POP DUP2 SHL ADD PUSH1 0x3 SSTORE PUSH3 0x3BE JUMP JUMPDEST ADD MLOAD PUSH1 0x0 NOT PUSH1 0xF8 DUP5 PUSH1 0x3 SHL AND SHR NOT AND SWAP1 SSTORE CODESIZE DUP1 DUP1 PUSH3 0xA48 JUMP JUMPDEST SWAP1 SWAP2 PUSH1 0x20 PUSH1 0x1 DUP2 SWAP3 DUP6 DUP12 ADD MLOAD DUP2 SSTORE ADD SWAP4 ADD SWAP2 ADD PUSH3 0xA28 JUMP JUMPDEST PUSH1 0x3 PUSH1 0x0 MSTORE PUSH3 0xAD6 SWAP1 PUSH32 0xC2575A0E9E593C00F959F8C92F12DB2869C3395A3B0502D05E2516446F71F85B PUSH1 0x1F DUP5 ADD PUSH1 0x5 SHR DUP2 ADD SWAP2 PUSH1 0x20 DUP6 LT PUSH3 0x6B9 JUMPI PUSH1 0x1F ADD PUSH1 0x5 SHR ADD SWAP1 PUSH3 0xE5F JUMP JUMPDEST CODESIZE PUSH3 0x38B JUMP JUMPDEST ADD MLOAD SWAP1 POP CODESIZE DUP1 PUSH3 0x345 JUMP JUMPDEST PUSH1 0x2 PUSH1 0x0 MSTORE PUSH1 0x20 PUSH1 0x0 KECCAK256 SWAP1 PUSH1 0x0 JUMPDEST PUSH1 0x1F NOT DUP5 AND DUP2 LT PUSH3 0xB40 JUMPI POP PUSH1 0x1 SWAP4 SWAP5 SWAP6 SWAP7 DUP4 PUSH1 0x1F NOT DUP2 AND LT PUSH3 0xB26 JUMPI JUMPDEST POP POP POP DUP2 SHL ADD PUSH1 0x2 SSTORE PUSH3 0x35B JUMP JUMPDEST ADD MLOAD PUSH1 0x0 NOT PUSH1 0xF8 DUP5 PUSH1 0x3 SHL AND SHR NOT AND SWAP1 SSTORE CODESIZE DUP1 DUP1 PUSH3 0xB17 JUMP JUMPDEST SWAP1 SWAP2 PUSH1 0x20 PUSH1 0x1 DUP2 SWAP3 DUP6 DUP12 ADD MLOAD DUP2 SSTORE ADD SWAP4 ADD SWAP2 ADD PUSH3 0xAF7 JUMP JUMPDEST PUSH1 0x2 PUSH1 0x0 MSTORE PUSH3 0xBA5 SWAP1 PUSH32 0x405787FA12A823E0F2B7631CC41B3BA8828B3321CA811111FA75CD3AA3BB5ACE PUSH1 0x1F DUP5 ADD PUSH1 0x5 SHR DUP2 ADD SWAP2 PUSH1 0x20 DUP6 LT PUSH3 0x6B9 JUMPI PUSH1 0x1F ADD PUSH1 0x5 SHR ADD SWAP1 PUSH3 0xE5F JUMP JUMPDEST CODESIZE PUSH3 0x328 JUMP JUMPDEST ADD MLOAD SWAP1 POP CODESIZE DUP1 PUSH3 0x295 JUMP JUMPDEST PUSH1 0x10 PUSH1 0x0 SWAP1 DUP2 MSTORE SWAP4 POP PUSH1 0x0 DUP1 MLOAD PUSH1 0x20 PUSH3 0x2D03 DUP4 CODECOPY DUP2 MLOAD SWAP2 MSTORE SWAP2 SWAP1 JUMPDEST PUSH1 0x1F NOT DUP5 AND DUP6 LT PUSH3 0xC1A JUMPI PUSH1 0x1 SWAP5 POP DUP4 PUSH1 0x1F NOT DUP2 AND LT PUSH3 0xC00 JUMPI JUMPDEST POP POP POP DUP2 SHL ADD PUSH1 0x10 SSTORE PUSH3 0x2AB JUMP JUMPDEST ADD MLOAD PUSH1 0x0 NOT PUSH1 0xF8 DUP5 PUSH1 0x3 SHL AND SHR NOT AND SWAP1 SSTORE CODESIZE DUP1 DUP1 PUSH3 0xBF1 JUMP JUMPDEST DUP2 DUP2 ADD MLOAD DUP4 SSTORE PUSH1 0x20 SWAP5 DUP6 ADD SWAP5 PUSH1 0x1 SWAP1 SWAP4 ADD SWAP3 SWAP1 SWAP2 ADD SWAP1 PUSH3 0xBD4 JUMP JUMPDEST PUSH1 0x10 PUSH1 0x0 MSTORE PUSH3 0xC71 SWAP1 PUSH1 0x0 DUP1 MLOAD PUSH1 0x20 PUSH3 0x2D03 DUP4 CODECOPY DUP2 MLOAD SWAP2 MSTORE PUSH1 0x1F DUP6 ADD PUSH1 0x5 SHR DUP2 ADD SWAP2 PUSH1 0x20 DUP7 LT PUSH3 0x6B9 JUMPI PUSH1 0x1F ADD PUSH1 0x5 SHR ADD SWAP1 PUSH3 0xE5F JUMP JUMPDEST CODESIZE PUSH3 0x27C JUMP JUMPDEST SWAP1 POP DUP11 ADD MLOAD CODESIZE PUSH3 0x23C JUMP JUMPDEST PUSH1 0xF PUSH1 0x0 SWAP1 DUP2 MSTORE SWAP3 POP PUSH1 0x0 DUP1 MLOAD PUSH1 0x20 PUSH3 0x2D23 DUP4 CODECOPY DUP2 MLOAD SWAP2 MSTORE SWAP1 JUMPDEST DUP13 PUSH1 0x1F NOT DUP5 AND DUP6 LT PUSH3 0xCE6 JUMPI POP PUSH1 0x1 SWAP4 POP DUP3 PUSH1 0x1F NOT DUP2 AND LT PUSH3 0xCCC JUMPI JUMPDEST POP POP DUP2 SHL ADD PUSH1 0xF SSTORE PUSH3 0x251 JUMP JUMPDEST DUP13 ADD MLOAD PUSH1 0x0 NOT PUSH1 0xF8 DUP5 PUSH1 0x3 SHL AND SHR NOT AND SWAP1 SSTORE CODESIZE DUP1 PUSH3 0xCBE JUMP JUMPDEST DUP2 ADD MLOAD DUP3 SSTORE PUSH1 0x20 SWAP4 DUP5 ADD SWAP4 PUSH1 0x1 SWAP1 SWAP3 ADD SWAP2 ADD PUSH3 0xC9F JUMP JUMPDEST PUSH1 0xF PUSH1 0x0 MSTORE PUSH3 0xD39 SWAP1 PUSH1 0x0 DUP1 MLOAD PUSH1 0x20 PUSH3 0x2D23 DUP4 CODECOPY DUP2 MLOAD SWAP2 MSTORE PUSH1 0x1F DUP5 ADD PUSH1 0x5 SHR DUP2 ADD SWAP2 PUSH1 0x20 DUP6 LT PUSH3 0x6B9 JUMPI PUSH1 0x1F ADD PUSH1 0x5 SHR ADD SWAP1 PUSH3 0xE5F JUMP JUMPDEST CODESIZE PUSH3 0x223 JUMP JUMPDEST PUSH1 0x0 DUP1 REVERT JUMPDEST DUP3 MLOAD SWAP1 PUSH1 0x1 PUSH1 0x1 PUSH1 0x40 SHL SUB DUP3 GT PUSH3 0xD40 JUMPI PUSH1 0x20 DUP1 SWAP3 SWAP2 PUSH3 0xD72 DUP14 DUP4 DUP1 SWAP6 DUP9 DUP13 DUP5 ADD SWAP4 ADD ADD ADD PUSH3 0xDCB JUMP JUMPDEST DUP2 MSTORE ADD SWAP4 ADD SWAP3 SWAP1 POP PUSH3 0x18C JUMP JUMPDEST PUSH1 0x40 MLOAD SWAP2 SWAP1 PUSH1 0x1F ADD PUSH1 0x1F NOT AND DUP3 ADD PUSH1 0x1 PUSH1 0x1 PUSH1 0x40 SHL SUB DUP2 GT DUP4 DUP3 LT OR PUSH3 0x6C4 JUMPI PUSH1 0x40 MSTORE JUMP JUMPDEST PUSH1 0x0 JUMPDEST DUP4 DUP2 LT PUSH3 0xDBA JUMPI POP POP PUSH1 0x0 SWAP2 ADD MSTORE JUMP JUMPDEST DUP2 DUP2 ADD MLOAD DUP4 DUP3 ADD MSTORE PUSH1 0x20 ADD PUSH3 0xDA9 JUMP JUMPDEST DUP2 PUSH1 0x1F DUP3 ADD SLT ISZERO PUSH3 0xD40 JUMPI DUP1 MLOAD PUSH1 0x1 PUSH1 0x1 PUSH1 0x40 SHL SUB DUP2 GT PUSH3 0x6C4 JUMPI PUSH3 0xDFD PUSH1 0x1F DUP3 ADD PUSH1 0x1F NOT AND PUSH1 0x20 ADD PUSH3 0xD80 JUMP JUMPDEST SWAP3 DUP2 DUP5 MSTORE PUSH1 0x20 DUP3 DUP5 ADD ADD GT PUSH3 0xD40 JUMPI PUSH3 0xE1F SWAP2 PUSH1 0x20 DUP1 DUP6 ADD SWAP2 ADD PUSH3 0xDA6 JUMP JUMPDEST SWAP1 JUMP JUMPDEST SWAP1 PUSH1 0x1 DUP3 DUP2 SHR SWAP3 AND DUP1 ISZERO PUSH3 0xE54 JUMPI JUMPDEST PUSH1 0x20 DUP4 LT EQ PUSH3 0xE3E JUMPI JUMP JUMPDEST PUSH4 0x4E487B71 PUSH1 0xE0 SHL PUSH1 0x0 MSTORE PUSH1 0x22 PUSH1 0x4 MSTORE PUSH1 0x24 PUSH1 0x0 REVERT JUMPDEST SWAP2 PUSH1 0x7F AND SWAP2 PUSH3 0xE32 JUMP JUMPDEST DUP2 DUP2 LT PUSH3 0xE6B JUMPI POP POP JUMP JUMPDEST PUSH1 0x0 DUP2 SSTORE PUSH1 0x1 ADD PUSH3 0xE5F JUMP INVALID PUSH1 0x80 PUSH1 0x40 MSTORE PUSH1 0x4 CALLDATASIZE LT ISZERO PUSH2 0x12 JUMPI PUSH1 0x0 DUP1 REVERT JUMPDEST PUSH1 0x0 CALLDATALOAD PUSH1 0xE0 SHR DUP1 PUSH4 0x8551A53 EQ PUSH2 0x1A10 JUMPI DUP1 PUSH4 0x3A6DCEA2 EQ PUSH2 0x114B JUMPI DUP1 PUSH4 0x4BD25C6F EQ PUSH2 0x9BC JUMPI DUP1 PUSH4 0x562E4D38 EQ PUSH2 0x1128 JUMPI DUP1 PUSH4 0x56EEC68D EQ PUSH2 0x1024 JUMPI DUP1 PUSH4 0x5C975ABB EQ PUSH2 0x1001 JUMPI DUP1 PUSH4 0x5EC2C7BF EQ PUSH2 0xFFC JUMPI DUP1 PUSH4 0x725A3B4B EQ PUSH2 0xF6D JUMPI DUP1 PUSH4 0x7284E416 EQ PUSH2 0xEAA JUMPI DUP1 PUSH4 0x7B499FAA EQ PUSH2 0xE84 JUMPI DUP1 PUSH4 0x842A77D3 EQ PUSH2 0xE56 JUMPI DUP1 PUSH4 0x88E7E366 EQ PUSH2 0xD12 JUMPI DUP1 PUSH4 0xA035B1FE EQ PUSH2 0xCF4 JUMPI DUP1 PUSH4 0xA5D737AC EQ PUSH2 0xBA9 JUMPI DUP1 PUSH4 0xA5E845B4 EQ PUSH2 0xB73 JUMPI DUP1 PUSH4 0xD8461182 EQ PUSH2 0xA62 JUMPI DUP1 PUSH4 0xDFBF53AE EQ PUSH2 0xA35 JUMPI DUP1 PUSH4 0xE11E1B0C EQ PUSH2 0xA17 JUMPI DUP1 PUSH4 0xE2FDCC17 EQ PUSH2 0x9C1 JUMPI DUP1 PUSH4 0xEB91D37E EQ PUSH2 0x9BC JUMPI DUP1 PUSH4 0xECFC7ECC EQ PUSH2 0x6A9 JUMPI DUP1 PUSH4 0xF2A4A82E EQ PUSH2 0x2FB JUMPI DUP1 PUSH4 0xF3CCAAC0 EQ PUSH2 0x1E9 JUMPI DUP1 PUSH4 0xFA391C64 EQ PUSH2 0x1C6 JUMPI PUSH4 0xFE67A54B EQ PUSH2 0x12F JUMPI PUSH1 0x0 DUP1 REVERT JUMPDEST CALLVALUE PUSH2 0x1C1 JUMPI PUSH1 0x0 CALLDATASIZE PUSH1 0x3 NOT ADD SLT PUSH2 0x1C1 JUMPI PUSH1 0x12 SLOAD PUSH1 0xFF DUP2 AND PUSH2 0x184 JUMPI PUSH1 0x1 SWAP1 PUSH1 0xFF NOT AND OR PUSH1 0x12 SSTORE PUSH1 0x0 PUSH32 0xDAEC4582D5D9595688C8C98545FDD1C696D41C6AEAEB636737E84ED2F5C00EDA PUSH1 0x20 PUSH1 0x40 MLOAD DUP4 DUP2 MSTORE LOG2 STOP JUMPDEST PUSH1 0x40 MLOAD PUSH3 0x461BCD PUSH1 0xE5 SHL DUP2 MSTORE PUSH1 0x20 PUSH1 0x4 DUP3 ADD MSTORE PUSH1 0x15 PUSH1 0x24 DUP3 ADD MSTORE PUSH21 0x105D58DD1A5BDB88185B1C9958591E48195B991959 PUSH1 0x5A SHL PUSH1 0x44 DUP3 ADD MSTORE PUSH1 0x64 SWAP1 REVERT JUMPDEST PUSH1 0x0 DUP1 REVERT JUMPDEST CALLVALUE PUSH2 0x1C1 JUMPI PUSH1 0x0 CALLDATASIZE PUSH1 0x3 NOT ADD SLT PUSH2 0x1C1 JUMPI PUSH1 0x20 PUSH1 0xFF PUSH1 0x12 SLOAD AND PUSH1 0x40 MLOAD SWAP1 ISZERO ISZERO DUP2 MSTORE RETURN JUMPDEST CALLVALUE PUSH2 0x1C1 JUMPI PUSH1 0x0 CALLDATASIZE PUSH1 0x3 NOT ADD SLT PUSH2 0x1C1 JUMPI PUSH1 0x40 MLOAD PUSH1 0x0 PUSH1 0x10 SLOAD SWAP1 PUSH1 0x1 DUP3 DUP2 SHR SWAP2 DUP2 DUP5 AND SWAP2 DUP3 ISZERO PUSH2 0x2F1 JUMPI JUMPDEST PUSH1 0x20 SWAP5 DUP6 DUP6 LT DUP5 EQ PUSH2 0x2DB JUMPI DUP6 DUP8 SWAP5 DUP7 DUP7 MSTORE SWAP2 DUP3 PUSH1 0x0 EQ PUSH2 0x2BB JUMPI POP POP PUSH1 0x1 EQ PUSH2 0x25E JUMPI JUMPDEST POP PUSH2 0x246 SWAP3 POP SUB DUP4 PUSH2 0x1AB6 JUMP JUMPDEST PUSH2 0x25A PUSH1 0x40 MLOAD SWAP3 DUP3 DUP5 SWAP4 DUP5 MSTORE DUP4 ADD SWAP1 PUSH2 0x1A3D JUMP JUMPDEST SUB SWAP1 RETURN JUMPDEST DUP5 SWAP2 POP PUSH1 0x10 PUSH1 0x0 MSTORE PUSH32 0x1B6847DC741A1B0CD08D278845F9D819D87B734759AFB55FE2DE5CB82A9AE672 SWAP1 PUSH1 0x0 SWAP2 JUMPDEST DUP6 DUP4 LT PUSH2 0x2A3 JUMPI POP POP PUSH2 0x246 SWAP4 POP DUP3 ADD ADD DUP6 PUSH2 0x239 JUMP JUMPDEST DUP1 SLOAD DUP4 DUP10 ADD DUP6 ADD MSTORE DUP8 SWAP5 POP DUP7 SWAP4 SWAP1 SWAP3 ADD SWAP2 DUP2 ADD PUSH2 0x28C JUMP JUMPDEST PUSH1 0xFF NOT AND DUP6 DUP3 ADD MSTORE PUSH2 0x246 SWAP6 ISZERO ISZERO PUSH1 0x5 SHL DUP6 ADD ADD SWAP3 POP DUP8 SWAP2 POP PUSH2 0x239 SWAP1 POP JUMP JUMPDEST PUSH4 0x4E487B71 PUSH1 0xE0 SHL PUSH1 0x0 MSTORE PUSH1 0x22 PUSH1 0x4 MSTORE PUSH1 0x24 PUSH1 0x0 REVERT JUMPDEST SWAP3 PUSH1 0x7F AND SWAP3 PUSH2 0x214 JUMP JUMPDEST CALLVALUE PUSH2 0x1C1 JUMPI PUSH1 0x0 CALLDATASIZE PUSH1 0x3 NOT ADD SLT PUSH2 0x1C1 JUMPI PUSH1 0x40 MLOAD PUSH1 0x2 SLOAD PUSH1 0x1 DUP2 DUP2 SHR SWAP3 SWAP2 DUP2 DUP2 AND PUSH1 0x0 DUP2 ISZERO PUSH2 0x69F JUMPI JUMPDEST PUSH1 0x20 SWAP6 DUP7 DUP2 LT DUP4 EQ PUSH2 0x2DB JUMPI DUP1 DUP7 MSTORE DUP7 SWAP4 DUP7 SWAP4 SWAP1 DUP2 ISZERO PUSH2 0x681 JUMPI POP PUSH1 0x1 EQ PUSH2 0x625 JUMPI JUMPDEST POP PUSH2 0x355 SWAP3 POP SUB DUP4 PUSH2 0x1AB6 JUMP JUMPDEST PUSH1 0x40 MLOAD PUSH1 0x3 SLOAD SWAP1 SWAP2 SWAP1 DUP1 DUP3 AND PUSH1 0x0 DUP3 DUP5 SHR DUP3 ISZERO PUSH2 0x61D JUMPI JUMPDEST DUP8 DUP2 LT DUP4 EQ PUSH2 0x2DB JUMPI DUP1 DUP7 MSTORE DUP8 SWAP4 DUP7 SWAP4 SWAP1 DUP2 ISZERO PUSH2 0x5FF JUMPI POP PUSH1 0x1 EQ PUSH2 0x5A3 JUMPI JUMPDEST POP PUSH2 0x39A SWAP3 POP SUB DUP4 PUSH2 0x1AB6 JUMP JUMPDEST PUSH1 0x40 MLOAD PUSH1 0x4 SLOAD SWAP1 SWAP2 SWAP1 DUP1 DUP3 AND PUSH1 0x0 DUP3 DUP5 SHR DUP3 ISZERO PUSH2 0x59B JUMPI JUMPDEST DUP9 DUP2 LT DUP4 EQ PUSH2 0x2DB JUMPI DUP1 DUP7 MSTORE DUP9 SWAP4 DUP7 SWAP4 SWAP1 DUP2 ISZERO PUSH2 0x57D JUMPI POP PUSH1 0x1 EQ PUSH2 0x521 JUMPI JUMPDEST POP PUSH2 0x3DF SWAP3 POP SUB DUP4 PUSH2 0x1AB6 JUMP JUMPDEST PUSH1 0x40 MLOAD SWAP1 PUSH1 0x0 SWAP1 PUSH1 0x5 SLOAD SWAP1 DUP2 DUP2 SHR SWAP2 DUP2 DUP2 AND DUP1 ISZERO PUSH2 0x517 JUMPI JUMPDEST DUP10 DUP5 LT DUP2 EQ PUSH2 0x2DB JUMPI DUP4 DUP7 MSTORE SWAP1 DUP2 ISZERO PUSH2 0x4F9 JUMPI POP PUSH1 0x1 EQ PUSH2 0x4A4 JUMPI JUMPDEST DUP7 PUSH1 0xE0 DUP8 PUSH2 0x498 DUP9 DUP13 PUSH2 0x485 DUP11 PUSH2 0x42D DUP2 DUP13 SUB DUP3 PUSH2 0x1AB6 JUMP JUMPDEST PUSH2 0x477 PUSH1 0x6 SLOAD SWAP5 PUSH2 0x469 PUSH2 0x43F PUSH2 0x1B5D JUMP JUMPDEST SWAP6 PUSH1 0xFF PUSH1 0x9 SLOAD AND SWAP10 PUSH2 0x45C PUSH1 0x40 MLOAD SWAP14 DUP14 DUP16 SWAP15 DUP16 SWAP1 DUP2 MSTORE ADD SWAP1 PUSH2 0x1A3D JUMP JUMPDEST SWAP2 DUP13 DUP4 SUB SWAP1 DUP14 ADD MSTORE PUSH2 0x1A3D JUMP JUMPDEST SWAP1 DUP10 DUP3 SUB PUSH1 0x40 DUP12 ADD MSTORE PUSH2 0x1A3D JUMP JUMPDEST SWAP1 DUP8 DUP3 SUB PUSH1 0x60 DUP10 ADD MSTORE PUSH2 0x1A3D JUMP JUMPDEST SWAP2 PUSH1 0x80 DUP7 ADD MSTORE DUP5 DUP3 SUB PUSH1 0xA0 DUP7 ADD MSTORE PUSH2 0x1A3D JUMP JUMPDEST SWAP1 ISZERO ISZERO PUSH1 0xC0 DUP4 ADD MSTORE SUB SWAP1 RETURN JUMPDEST PUSH1 0x5 PUSH1 0x0 SWAP1 DUP2 MSTORE SWAP3 POP PUSH32 0x36B6384B5ECA791C62761152D0C79BB0604C104A5FB6F4EB0703F3154BB3DB0 JUMPDEST DUP3 DUP5 LT PUSH2 0x4E6 JUMPI POP POP POP DUP2 ADD DUP6 ADD PUSH2 0x485 DUP3 PUSH2 0x414 JUMP JUMPDEST DUP1 SLOAD DUP6 DUP6 ADD DUP11 ADD MSTORE SWAP3 DUP9 ADD SWAP3 DUP2 ADD PUSH2 0x4CF JUMP JUMPDEST PUSH1 0xFF NOT AND DUP6 DUP11 ADD MSTORE POP POP ISZERO ISZERO PUSH1 0x5 SHL DUP3 ADD DUP7 ADD SWAP1 POP PUSH2 0x485 DUP3 PUSH2 0x414 JUMP JUMPDEST SWAP3 PUSH1 0x7F AND SWAP3 PUSH2 0x3F8 JUMP JUMPDEST PUSH1 0x4 PUSH1 0x0 SWAP1 DUP2 MSTORE SWAP2 POP DUP5 PUSH32 0x8A35ACFBC15FF81A39AE7D344FD709F28E8600B4AA8C65C6B64BFE7FE36BD19B JUMPDEST DUP3 DUP5 LT PUSH2 0x566 JUMPI POP POP POP SWAP2 PUSH2 0x3DF SWAP3 DUP3 ADD ADD DUP8 SWAP3 PUSH2 0x3D2 JUMP JUMPDEST DUP1 SLOAD DUP9 DUP6 ADD DUP8 ADD MSTORE DUP8 SWAP5 POP SWAP3 DUP6 ADD SWAP3 DUP7 SWAP2 ADD PUSH2 0x54D JUMP JUMPDEST PUSH1 0xFF NOT AND DUP5 DUP7 ADD MSTORE POP DUP9 SWAP4 SWAP1 ISZERO ISZERO PUSH1 0x5 SHL DUP4 ADD ADD SWAP1 POP PUSH2 0x3DF PUSH2 0x3D2 JUMP JUMPDEST PUSH1 0x7F AND PUSH2 0x3B2 JUMP JUMPDEST PUSH1 0x3 PUSH1 0x0 SWAP1 DUP2 MSTORE SWAP2 POP DUP5 PUSH32 0xC2575A0E9E593C00F959F8C92F12DB2869C3395A3B0502D05E2516446F71F85B JUMPDEST DUP3 DUP5 LT PUSH2 0x5E8 JUMPI POP POP POP SWAP2 PUSH2 0x39A SWAP3 DUP3 ADD ADD DUP7 SWAP3 PUSH2 0x38D JUMP JUMPDEST DUP1 SLOAD DUP9 DUP6 ADD DUP8 ADD MSTORE DUP8 SWAP5 POP SWAP3 DUP6 ADD SWAP3 DUP7 SWAP2 ADD PUSH2 0x5CF JUMP JUMPDEST PUSH1 0xFF NOT AND DUP5 DUP7 ADD MSTORE POP DUP8 SWAP4 SWAP1 ISZERO ISZERO PUSH1 0x5 SHL DUP4 ADD ADD SWAP1 POP PUSH2 0x39A PUSH2 0x38D JUMP JUMPDEST PUSH1 0x7F AND PUSH2 0x36D JUMP JUMPDEST PUSH1 0x2 PUSH1 0x0 SWAP1 DUP2 MSTORE SWAP2 POP DUP5 PUSH32 0x405787FA12A823E0F2B7631CC41B3BA8828B3321CA811111FA75CD3AA3BB5ACE JUMPDEST DUP3 DUP5 LT PUSH2 0x66A JUMPI POP POP POP SWAP2 PUSH2 0x355 SWAP3 DUP3 ADD ADD DUP6 SWAP3 PUSH2 0x348 JUMP JUMPDEST DUP1 SLOAD DUP9 DUP6 ADD DUP8 ADD MSTORE DUP8 SWAP5 POP SWAP3 DUP6 ADD SWAP3 DUP7 SWAP2 ADD PUSH2 0x651 JUMP JUMPDEST PUSH1 0xFF NOT AND DUP5 DUP7 ADD MSTORE POP DUP7 SWAP4 SWAP1 ISZERO ISZERO PUSH1 0x5 SHL DUP4 ADD ADD SWAP1 POP PUSH2 0x355 PUSH2 0x348 JUMP JUMPDEST SWAP5 PUSH1 0x7F AND SWAP5 PUSH2 0x325 JUMP JUMPDEST PUSH1 0x0 CALLDATASIZE PUSH1 0x3 NOT ADD SLT PUSH2 0x1C1 JUMPI PUSH1 0x2 PUSH1 0xD SLOAD EQ PUSH2 0x977 JUMPI PUSH1 0x2 PUSH1 0xD SSTORE PUSH1 0xE SLOAD PUSH1 0xFF DUP2 AND PUSH2 0x93F JUMPI PUSH1 0x12 SLOAD SWAP1 PUSH1 0xFF DUP3 AND PUSH2 0x8FA JUMPI PUSH1 0x11 SLOAD DUP1 CALLVALUE LT PUSH2 0x8AB JUMPI PUSH2 0x100 PUSH1 0x1 PUSH1 0xA8 SHL SUB SWAP2 PUSH1 0x1 PUSH11 0xFFFFFFFFFFFFFFFFFFFFFF PUSH1 0xA8 SHL SWAP5 DUP6 DUP6 CALLER PUSH1 0x8 SHL AND SWAP2 AND OR OR PUSH1 0x12 SSTORE PUSH1 0x40 MLOAD CALLVALUE DUP2 MSTORE PUSH32 0x3FABFF0A9C3ECD6814702E247FA9733E5D0AA69E3A38590F92CB18F623A2254D PUSH1 0x20 CALLER SWAP3 LOG2 PUSH1 0x40 MLOAD CALLVALUE DUP2 MSTORE PUSH32 0xDAEC4582D5D9595688C8C98545FDD1C696D41C6AEAEB636737E84ED2F5C00EDA PUSH1 0x20 CALLER SWAP3 LOG2 PUSH1 0x9 SLOAD PUSH1 0xFF AND ISZERO PUSH2 0x82B JUMPI POP POP CALLVALUE PUSH1 0x1 SHL SWAP1 CALLVALUE DUP3 DIV PUSH1 0x2 EQ CALLVALUE ISZERO OR ISZERO PUSH2 0x815 JUMPI PUSH1 0x1 PUSH1 0x20 SWAP2 PUSH2 0x2710 PUSH32 0x137FB716243BB1721111512A26C6A2D922E0BF3022DF1EA74C7EF10AB3BC0DC7 SWAP5 DIV SWAP5 PUSH1 0x0 PUSH1 0x80 PUSH1 0x40 MLOAD PUSH2 0x7C3 DUP2 PUSH2 0x1A9A JUMP JUMPDEST DUP6 DUP2 MSTORE ADDRESS DUP8 DUP3 ADD MSTORE DUP9 PUSH1 0x40 DUP3 ADD MSTORE DUP3 PUSH1 0x60 DUP3 ADD MSTORE ADD MSTORE PUSH1 0xA SLOAD SWAP2 ADDRESS PUSH1 0x8 SHL AND SWAP2 AND OR OR DUP1 PUSH1 0xA SSTORE DUP4 PUSH1 0xB SSTORE PUSH2 0xFFFF NOT PUSH1 0xC SLOAD AND PUSH1 0xC SSTORE PUSH1 0x40 MLOAD SWAP4 DUP5 MSTORE PUSH1 0x1 DUP1 PUSH1 0xA0 SHL SUB SWAP1 PUSH1 0x8 SHR AND SWAP3 LOG2 JUMPDEST PUSH1 0x1 PUSH1 0xD SSTORE STOP JUMPDEST PUSH4 0x4E487B71 PUSH1 0xE0 SHL PUSH1 0x0 MSTORE PUSH1 0x11 PUSH1 0x4 MSTORE PUSH1 0x24 PUSH1 0x0 REVERT JUMPDEST PUSH1 0x0 SWAP4 POP DUP4 SWAP3 POP DUP3 SWAP2 DUP3 SWAP2 DUP3 SWAP1 DUP3 ISZERO PUSH2 0x8A1 JUMPI JUMPDEST PUSH1 0x8 SHR PUSH1 0x1 PUSH1 0x1 PUSH1 0xA0 SHL SUB AND SWAP1 CALL ISZERO PUSH2 0x88C JUMPI PUSH1 0x11 SLOAD DUP1 CALLVALUE GT PUSH2 0x863 JUMPI JUMPDEST POP PUSH2 0x80E JUMP JUMPDEST DUP1 CALLVALUE SUB SWAP1 CALLVALUE DUP3 GT PUSH2 0x815 JUMPI PUSH1 0x0 DUP1 DUP1 SWAP4 DUP2 SWAP4 DUP3 SWAP1 CALLVALUE EQ PUSH2 0x898 JUMPI JUMPDEST CALLER SWAP1 CALL ISZERO PUSH2 0x88C JUMPI DUP1 PUSH2 0x85D JUMP JUMPDEST PUSH1 0x40 MLOAD RETURNDATASIZE PUSH1 0x0 DUP3 RETURNDATACOPY RETURNDATASIZE SWAP1 REVERT JUMPDEST POP PUSH2 0x8FC PUSH2 0x87E JUMP JUMPDEST PUSH2 0x8FC SWAP2 POP PUSH2 0x83F JUMP JUMPDEST PUSH1 0x40 MLOAD PUSH3 0x461BCD PUSH1 0xE5 SHL DUP2 MSTORE PUSH1 0x20 PUSH1 0x4 DUP3 ADD MSTORE PUSH1 0x21 PUSH1 0x24 DUP3 ADD MSTORE PUSH32 0x426964206D757374206D656574206F7220657863656564207468652070726963 PUSH1 0x44 DUP3 ADD MSTORE PUSH1 0x65 PUSH1 0xF8 SHL PUSH1 0x64 DUP3 ADD MSTORE PUSH1 0x84 SWAP1 REVERT JUMPDEST PUSH1 0x40 MLOAD PUSH3 0x461BCD PUSH1 0xE5 SHL DUP2 MSTORE PUSH1 0x20 PUSH1 0x4 DUP3 ADD MSTORE PUSH1 0x19 PUSH1 0x24 DUP3 ADD MSTORE PUSH32 0x41756374696F6E2068617320616C726561647920656E64656400000000000000 PUSH1 0x44 DUP3 ADD MSTORE PUSH1 0x64 SWAP1 REVERT JUMPDEST PUSH1 0x40 MLOAD PUSH3 0x461BCD PUSH1 0xE5 SHL DUP2 MSTORE PUSH1 0x20 PUSH1 0x4 DUP3 ADD MSTORE PUSH1 0x10 PUSH1 0x24 DUP3 ADD MSTORE PUSH16 0x14185D5CD8589B194E881C185D5CD959 PUSH1 0x82 SHL PUSH1 0x44 DUP3 ADD MSTORE PUSH1 0x64 SWAP1 REVERT JUMPDEST PUSH1 0x40 MLOAD PUSH3 0x461BCD PUSH1 0xE5 SHL DUP2 MSTORE PUSH1 0x20 PUSH1 0x4 DUP3 ADD MSTORE PUSH1 0x1F PUSH1 0x24 DUP3 ADD MSTORE PUSH32 0x5265656E7472616E637947756172643A207265656E7472616E742063616C6C00 PUSH1 0x44 DUP3 ADD MSTORE PUSH1 0x64 SWAP1 REVERT JUMPDEST PUSH2 0xCF4 JUMP JUMPDEST CALLVALUE PUSH2 0x1C1 JUMPI PUSH1 0x0 CALLDATASIZE PUSH1 0x3 NOT ADD SLT PUSH2 0x1C1 JUMPI PUSH1 0xA0 PUSH1 0xA SLOAD PUSH1 0xFF PUSH1 0xB SLOAD PUSH1 0xC SLOAD SWAP1 PUSH1 0x40 MLOAD SWAP4 DUP4 DUP2 AND ISZERO ISZERO DUP6 MSTORE PUSH1 0x1 DUP1 DUP8 SHL SUB SWAP1 PUSH1 0x8 SHR AND PUSH1 0x20 DUP6 ADD MSTORE PUSH1 0x40 DUP5 ADD MSTORE DUP2 DUP2 AND ISZERO ISZERO PUSH1 0x60 DUP5 ADD MSTORE PUSH1 0x8 SHR AND ISZERO ISZERO PUSH1 0x80 DUP3 ADD MSTORE RETURN JUMPDEST CALLVALUE PUSH2 0x1C1 JUMPI PUSH1 0x0 CALLDATASIZE PUSH1 0x3 NOT ADD SLT PUSH2 0x1C1 JUMPI PUSH1 0x20 PUSH1 0x0 SLOAD PUSH1 0x40 MLOAD SWAP1 DUP2 MSTORE RETURN JUMPDEST CALLVALUE PUSH2 0x1C1 JUMPI PUSH1 0x0 CALLDATASIZE PUSH1 0x3 NOT ADD SLT PUSH2 0x1C1 JUMPI PUSH1 0x12 SLOAD PUSH1 0x40 MLOAD PUSH1 0x8 SWAP2 SWAP1 SWAP2 SHR PUSH1 0x1 PUSH1 0x1 PUSH1 0xA0 SHL SUB AND DUP2 MSTORE PUSH1 0x20 SWAP1 RETURN JUMPDEST CALLVALUE PUSH2 0x1C1 JUMPI PUSH1 0x20 CALLDATASIZE PUSH1 0x3 NOT ADD SLT PUSH2 0x1C1 JUMPI PUSH1 0x4 CALLDATALOAD PUSH1 0x1 PUSH1 0x1 PUSH1 0xA0 SHL SUB DUP2 DUP2 AND SWAP2 DUP3 SWAP1 SUB PUSH2 0x1C1 JUMPI PUSH2 0xA9B SWAP1 PUSH1 0xE SLOAD PUSH1 0x8 SHR AND CALLER EQ PUSH2 0x1C48 JUMP JUMPDEST PUSH2 0xAA9 PUSH1 0xFF PUSH1 0x1 SLOAD AND PUSH2 0x1C94 JUMP JUMPDEST PUSH2 0xAB8 PUSH1 0xFF PUSH1 0xA SLOAD AND ISZERO PUSH2 0x1D20 JUMP JUMPDEST PUSH1 0xC SLOAD PUSH2 0xAC8 PUSH1 0xFF DUP3 AND ISZERO PUSH2 0x1D62 JUMP JUMPDEST PUSH1 0xFF DUP2 PUSH1 0x8 SHR AND PUSH2 0xB2E JUMPI PUSH1 0x20 PUSH32 0xF396531FAD1D4DC2CD92386CDEA800C92A507F8FE1BDB80313EB32A57481B1DC SWAP2 PUSH2 0x100 PUSH1 0x0 SLOAD SWAP2 PUSH1 0x0 DUP1 SSTORE PUSH2 0xFF00 NOT AND OR PUSH1 0xC SSTORE PUSH2 0xB25 PUSH1 0x0 DUP1 DUP1 DUP1 DUP6 DUP10 GAS CALL PUSH2 0xB1F PUSH2 0x1DA6 JUMP JUMPDEST POP PUSH2 0x1DD6 JUMP JUMPDEST PUSH1 0x40 MLOAD SWAP1 DUP2 MSTORE LOG2 STOP JUMPDEST PUSH1 0x40 MLOAD PUSH3 0x461BCD PUSH1 0xE5 SHL DUP2 MSTORE PUSH1 0x20 PUSH1 0x4 DUP3 ADD MSTORE PUSH1 0x18 PUSH1 0x24 DUP3 ADD MSTORE PUSH32 0x5061796D656E7420616C72656164792072656C65617365640000000000000000 PUSH1 0x44 DUP3 ADD MSTORE PUSH1 0x64 SWAP1 REVERT JUMPDEST CALLVALUE PUSH2 0x1C1 JUMPI PUSH1 0x0 CALLDATASIZE PUSH1 0x3 NOT ADD SLT PUSH2 0x1C1 JUMPI PUSH1 0x11 SLOAD DUP1 PUSH1 0x1 SHL SWAP1 DUP1 DUP3 DIV PUSH1 0x2 EQ SWAP1 ISZERO OR ISZERO PUSH2 0x815 JUMPI PUSH1 0x20 SWAP1 PUSH2 0x2710 PUSH1 0x40 MLOAD SWAP2 DIV DUP2 MSTORE RETURN JUMPDEST PUSH1 0x0 CALLDATASIZE PUSH1 0x3 NOT ADD SLT PUSH2 0x1C1 JUMPI PUSH2 0xBCD PUSH1 0x1 DUP1 PUSH1 0xA0 SHL SUB PUSH1 0xE SLOAD PUSH1 0x8 SHR AND CALLER EQ PUSH2 0x1C48 JUMP JUMPDEST PUSH1 0x1 SLOAD PUSH1 0xFF DUP2 AND PUSH2 0xCB7 JUMPI CALLVALUE ISZERO PUSH2 0xC82 JUMPI PUSH1 0x11 SLOAD DUP1 PUSH1 0x1 SHL SWAP1 DUP1 DUP3 DIV PUSH1 0x2 EQ SWAP1 ISZERO OR ISZERO PUSH2 0x815 JUMPI PUSH2 0x2710 SWAP1 DIV SWAP1 DUP2 CALLVALUE LT PUSH2 0xC3D JUMPI DUP2 PUSH1 0x1 PUSH1 0x20 SWAP3 PUSH32 0x3B4F5A74452CDDB80AE5A0D279EB7DB6AFD5E556E72CA2883016B1DA7C9D2116 SWAP5 PUSH1 0x0 SSTORE PUSH1 0xFF NOT AND OR PUSH1 0x1 SSTORE PUSH1 0x40 MLOAD SWAP1 DUP2 MSTORE LOG1 STOP JUMPDEST PUSH1 0x40 MLOAD PUSH3 0x461BCD PUSH1 0xE5 SHL DUP2 MSTORE PUSH1 0x20 PUSH1 0x4 DUP3 ADD MSTORE PUSH1 0x1A PUSH1 0x24 DUP3 ADD MSTORE PUSH32 0x496E73756666696369656E7420657363726F7720616D6F756E74000000000000 PUSH1 0x44 DUP3 ADD MSTORE PUSH1 0x64 SWAP1 REVERT JUMPDEST PUSH1 0x40 MLOAD PUSH3 0x461BCD PUSH1 0xE5 SHL DUP2 MSTORE PUSH1 0x20 PUSH1 0x4 DUP3 ADD MSTORE PUSH1 0xD PUSH1 0x24 DUP3 ADD MSTORE PUSH13 0x9AEAE6E840E6CADCC8408AA89 PUSH1 0x9B SHL PUSH1 0x44 DUP3 ADD MSTORE PUSH1 0x64 SWAP1 REVERT JUMPDEST PUSH1 0x40 MLOAD PUSH3 0x461BCD PUSH1 0xE5 SHL DUP2 MSTORE PUSH1 0x20 PUSH1 0x4 DUP3 ADD MSTORE PUSH1 0x15 PUSH1 0x24 DUP3 ADD MSTORE PUSH21 0x115CD8DC9BDDC8185B1C9958591E48199D5B991959 PUSH1 0x5A SHL PUSH1 0x44 DUP3 ADD MSTORE PUSH1 0x64 SWAP1 REVERT JUMPDEST CALLVALUE PUSH2 0x1C1 JUMPI PUSH1 0x0 CALLDATASIZE PUSH1 0x3 NOT ADD SLT PUSH2 0x1C1 JUMPI PUSH1 0x20 PUSH1 0x11 SLOAD PUSH1 0x40 MLOAD SWAP1 DUP2 MSTORE RETURN JUMPDEST CALLVALUE PUSH2 0x1C1 JUMPI PUSH1 0x20 CALLDATASIZE PUSH1 0x3 NOT ADD SLT PUSH2 0x1C1 JUMPI PUSH1 0x4 CALLDATALOAD DUP1 ISZERO ISZERO SWAP1 DUP2 DUP2 SUB PUSH2 0x1C1 JUMPI PUSH1 0x1 DUP1 PUSH1 0xA0 SHL SUB SWAP2 PUSH2 0xD4B DUP4 PUSH1 0x12 SLOAD PUSH1 0x8 SHR AND CALLER EQ PUSH2 0x1CD4 JUMP JUMPDEST PUSH2 0xD59 PUSH1 0xFF PUSH1 0x1 SLOAD AND PUSH2 0x1C94 JUMP JUMPDEST PUSH2 0xD68 PUSH1 0xFF PUSH1 0xA SLOAD AND ISZERO PUSH2 0x1D20 JUMP JUMPDEST PUSH2 0x101 PUSH1 0xC SLOAD PUSH2 0xD7B PUSH1 0xFF DUP3 AND ISZERO PUSH2 0x1D62 JUMP JUMPDEST PUSH2 0xFFFF NOT AND OR PUSH1 0xC SSTORE PUSH1 0x40 MLOAD SWAP1 DUP2 MSTORE PUSH32 0x27A5CCC16BE6802BCEC7C2477A2B588A54C808352EF7DAB930058F65864B3CE9 PUSH1 0x20 CALLER SWAP3 LOG2 ISZERO PUSH2 0xE0C JUMPI PUSH32 0xE327B247066BDF32CF2493778E3FCE4339B69C1E379A3B0DC780779BF67FE155 PUSH1 0x20 PUSH1 0x0 SLOAD SWAP3 PUSH1 0x0 DUP1 SSTORE PUSH2 0xDFB PUSH1 0x0 DUP1 DUP1 DUP1 DUP9 DUP7 PUSH1 0xE SLOAD PUSH1 0x8 SHR AND GAS CALL PUSH2 0xB1F PUSH2 0x1DA6 JUMP JUMPDEST PUSH1 0xE SLOAD PUSH1 0x8 SHR AND SWAP3 PUSH1 0x40 MLOAD SWAP1 DUP2 MSTORE LOG2 STOP JUMPDEST POP PUSH1 0x0 SLOAD PUSH1 0x0 DUP1 SSTORE PUSH2 0xE28 PUSH1 0x0 DUP1 DUP1 DUP1 DUP6 CALLER GAS CALL PUSH2 0xB1F PUSH2 0x1DA6 JUMP JUMPDEST PUSH1 0x40 MLOAD SWAP1 DUP2 MSTORE PUSH32 0x894CE7CC354D2A39DE53F8DAB6B0AD8C5AC65641E68AA2154FDB88BCC387E3DD PUSH1 0x20 CALLER SWAP3 LOG2 STOP JUMPDEST CALLVALUE PUSH2 0x1C1 JUMPI PUSH1 0x20 CALLDATASIZE PUSH1 0x3 NOT ADD SLT PUSH2 0x1C1 JUMPI PUSH1 0x4 CALLDATALOAD PUSH1 0x1 PUSH1 0x1 PUSH1 0xA0 SHL SUB DUP2 AND SUB PUSH2 0x1C1 JUMPI PUSH1 0x20 PUSH1 0x40 MLOAD PUSH1 0x0 DUP2 MSTORE RETURN JUMPDEST CALLVALUE PUSH2 0x1C1 JUMPI PUSH1 0x0 CALLDATASIZE PUSH1 0x3 NOT ADD SLT PUSH2 0x1C1 JUMPI PUSH1 0x20 PUSH1 0xFF PUSH1 0x1 SLOAD PUSH1 0x8 SHR AND PUSH1 0x40 MLOAD SWAP1 ISZERO ISZERO DUP2 MSTORE RETURN JUMPDEST CALLVALUE PUSH2 0x1C1 JUMPI PUSH1 0x0 CALLDATASIZE PUSH1 0x3 NOT ADD SLT PUSH2 0x1C1 JUMPI PUSH1 0x40 MLOAD PUSH1 0x0 PUSH1 0xF SLOAD SWAP1 PUSH1 0x1 DUP3 DUP2 SHR SWAP2 DUP2 DUP5 AND SWAP2 DUP3 ISZERO PUSH2 0xF63 JUMPI JUMPDEST PUSH1 0x20 SWAP5 DUP6 DUP6 LT DUP5 EQ PUSH2 0x2DB JUMPI DUP6 DUP8 SWAP5 DUP7 DUP7 MSTORE SWAP2 DUP3 PUSH1 0x0 EQ PUSH2 0x2BB JUMPI POP POP PUSH1 0x1 EQ PUSH2 0xF06 JUMPI POP PUSH2 0x246 SWAP3 POP SUB DUP4 PUSH2 0x1AB6 JUMP JUMPDEST DUP5 SWAP2 POP PUSH1 0xF PUSH1 0x0 MSTORE PUSH32 0x8D1108E10BCB7C27DDDFC02ED9D693A074039D026CF4EA4240B40F7D581AC802 SWAP1 PUSH1 0x0 SWAP2 JUMPDEST DUP6 DUP4 LT PUSH2 0xF4B JUMPI POP POP PUSH2 0x246 SWAP4 POP DUP3 ADD ADD DUP6 PUSH2 0x239 JUMP JUMPDEST DUP1 SLOAD DUP4 DUP10 ADD DUP6 ADD MSTORE DUP8 SWAP5 POP DUP7 SWAP4 SWAP1 SWAP3 ADD SWAP2 DUP2 ADD PUSH2 0xF34 JUMP JUMPDEST SWAP3 PUSH1 0x7F AND SWAP3 PUSH2 0xED5 JUMP JUMPDEST CALLVALUE PUSH2 0x1C1 JUMPI PUSH2 0xF7B CALLDATASIZE PUSH2 0x1AF4 JUMP JUMPDEST PUSH2 0xF93 PUSH1 0x1 DUP1 PUSH1 0xA0 SHL SUB PUSH1 0x12 SLOAD PUSH1 0x8 SHR AND CALLER EQ PUSH2 0x1CD4 JUMP JUMPDEST PUSH2 0xFA1 PUSH1 0xFF PUSH1 0x1 SLOAD AND PUSH2 0x1C94 JUMP JUMPDEST PUSH2 0xFB0 PUSH1 0xFF PUSH1 0xA SLOAD AND ISZERO PUSH2 0x1D20 JUMP JUMPDEST PUSH2 0xFBF PUSH1 0xFF PUSH1 0xC SLOAD AND ISZERO PUSH2 0x1D62 JUMP JUMPDEST PUSH32 0x28B099EB575E23E32BECD7C30DC8F9B2F98E370CDBF9841EA3338D9000402A25 PUSH1 0x40 MLOAD PUSH1 0x20 DUP2 MSTORE DUP1 PUSH2 0xFF7 CALLER SWAP5 PUSH1 0x20 DUP4 ADD SWAP1 PUSH2 0x1A3D JUMP JUMPDEST SUB SWAP1 LOG2 STOP JUMPDEST PUSH2 0x1A10 JUMP JUMPDEST CALLVALUE PUSH2 0x1C1 JUMPI PUSH1 0x0 CALLDATASIZE PUSH1 0x3 NOT ADD SLT PUSH2 0x1C1 JUMPI PUSH1 0x20 PUSH1 0xFF PUSH1 0xE SLOAD AND PUSH1 0x40 MLOAD SWAP1 ISZERO ISZERO DUP2 MSTORE RETURN JUMPDEST CALLVALUE PUSH2 0x1C1 JUMPI PUSH2 0x1032 CALLDATASIZE PUSH2 0x1AF4 JUMP JUMPDEST PUSH2 0x104A PUSH1 0x1 DUP1 PUSH1 0xA0 SHL SUB PUSH1 0xE SLOAD PUSH1 0x8 SHR AND CALLER EQ PUSH2 0x1C48 JUMP JUMPDEST PUSH2 0x1058 PUSH1 0xFF PUSH1 0x1 SLOAD AND PUSH2 0x1C94 JUMP JUMPDEST PUSH1 0xA SLOAD PUSH1 0xFF DUP2 AND ISZERO PUSH2 0x10EF JUMPI DUP2 MLOAD ISZERO PUSH2 0x10AA JUMPI PUSH1 0xFF NOT AND PUSH1 0xA SSTORE PUSH32 0x2EB59C65A13FFE423F16EF2C7EDD21AFCDE560EF40C04008402E75D5C0B04B2F PUSH1 0x40 MLOAD PUSH1 0x20 DUP2 MSTORE DUP1 PUSH2 0xFF7 CALLER SWAP5 PUSH1 0x20 DUP4 ADD SWAP1 PUSH2 0x1A3D JUMP JUMPDEST PUSH1 0x40 MLOAD PUSH3 0x461BCD PUSH1 0xE5 SHL DUP2 MSTORE PUSH1 0x20 PUSH1 0x4 DUP3 ADD MSTORE PUSH1 0x17 PUSH1 0x24 DUP3 ADD MSTORE PUSH32 0x496E76616C696420747261636B696E67206E756D626572000000000000000000 PUSH1 0x44 DUP3 ADD MSTORE PUSH1 0x64 SWAP1 REVERT JUMPDEST PUSH1 0x40 MLOAD PUSH3 0x461BCD PUSH1 0xE5 SHL DUP2 MSTORE PUSH1 0x20 PUSH1 0x4 DUP3 ADD MSTORE PUSH1 0x11 PUSH1 0x24 DUP3 ADD MSTORE PUSH17 0x457363726F77206E6F7420616374697665 PUSH1 0x78 SHL PUSH1 0x44 DUP3 ADD MSTORE PUSH1 0x64 SWAP1 REVERT JUMPDEST CALLVALUE PUSH2 0x1C1 JUMPI PUSH1 0x0 CALLDATASIZE PUSH1 0x3 NOT ADD SLT PUSH2 0x1C1 JUMPI PUSH1 0x20 PUSH1 0xFF PUSH1 0x1 SLOAD AND PUSH1 0x40 MLOAD SWAP1 ISZERO ISZERO DUP2 MSTORE RETURN JUMPDEST CALLVALUE PUSH2 0x1C1 JUMPI PUSH1 0x0 CALLDATASIZE PUSH1 0x3 NOT ADD SLT PUSH2 0x1C1 JUMPI PUSH1 0x0 PUSH1 0xE0 PUSH1 0x40 MLOAD PUSH2 0x116C DUP2 PUSH2 0x1A7D JUMP JUMPDEST PUSH1 0x60 DUP2 MSTORE PUSH1 0x60 PUSH1 0x20 DUP3 ADD MSTORE PUSH1 0x60 PUSH1 0x40 DUP3 ADD MSTORE PUSH1 0x60 DUP1 DUP3 ADD MSTORE DUP3 PUSH1 0x80 DUP3 ADD MSTORE PUSH1 0x60 PUSH1 0xA0 DUP3 ADD MSTORE PUSH1 0x60 PUSH1 0xC0 DUP3 ADD MSTORE ADD MSTORE PUSH1 0x0 PUSH1 0x80 PUSH1 0x40 MLOAD PUSH2 0x11AA DUP2 PUSH2 0x1A9A JUMP JUMPDEST DUP3 DUP2 MSTORE DUP3 PUSH1 0x20 DUP3 ADD MSTORE DUP3 PUSH1 0x40 DUP3 ADD MSTORE DUP3 PUSH1 0x60 DUP3 ADD MSTORE ADD MSTORE PUSH1 0xE SLOAD PUSH1 0x11 SLOAD SWAP1 PUSH1 0x12 SLOAD PUSH1 0x40 MLOAD SWAP3 PUSH1 0x0 PUSH1 0xF SLOAD DUP1 PUSH1 0x1 SHR SWAP2 PUSH1 0x1 DUP3 AND SWAP2 DUP3 ISZERO PUSH2 0x1A06 JUMPI JUMPDEST PUSH1 0x20 DUP5 LT DUP4 EQ PUSH2 0x2DB JUMPI DUP4 DUP9 MSTORE DUP8 SWAP3 SWAP1 DUP2 ISZERO PUSH2 0x19E7 JUMPI POP PUSH1 0x1 EQ PUSH2 0x1986 JUMPI JUMPDEST PUSH2 0x1210 SWAP3 POP SUB DUP6 PUSH2 0x1AB6 JUMP JUMPDEST PUSH1 0x40 MLOAD SWAP2 PUSH1 0x0 PUSH1 0x10 SLOAD DUP1 PUSH1 0x1 SHR SWAP2 PUSH1 0x1 DUP3 AND SWAP2 DUP3 ISZERO PUSH2 0x197C JUMPI JUMPDEST PUSH1 0x20 DUP5 LT DUP4 EQ PUSH2 0x2DB JUMPI DUP4 DUP8 MSTORE DUP7 SWAP3 SWAP1 DUP2 ISZERO PUSH2 0x195D JUMPI POP PUSH1 0x1 EQ PUSH2 0x18FC JUMPI JUMPDEST PUSH2 0x1255 SWAP3 POP SUB DUP5 PUSH2 0x1AB6 JUMP JUMPDEST PUSH1 0x40 MLOAD SWAP3 PUSH2 0x1262 DUP5 PUSH2 0x1A7D JUMP JUMPDEST PUSH1 0x40 MLOAD PUSH1 0x0 PUSH1 0x2 SLOAD DUP1 PUSH1 0x1 SHR SWAP2 PUSH1 0x1 DUP3 AND ISZERO PUSH2 0x18F2 JUMPI JUMPDEST PUSH1 0x20 DUP4 LT PUSH1 0x1 DUP4 AND EQ PUSH2 0x2DB JUMPI DUP3 DUP5 MSTORE DUP4 SWAP2 PUSH1 0x1 DUP2 AND SWAP1 DUP2 ISZERO PUSH2 0x18D3 JUMPI POP PUSH1 0x1 EQ PUSH2 0x1872 JUMPI JUMPDEST PUSH2 0x12AB SWAP3 POP SUB DUP3 PUSH2 0x1AB6 JUMP JUMPDEST DUP5 MSTORE PUSH1 0x40 MLOAD PUSH1 0x0 PUSH1 0x3 SLOAD DUP1 PUSH1 0x1 SHR SWAP2 PUSH1 0x1 DUP3 AND ISZERO PUSH2 0x1868 JUMPI JUMPDEST PUSH1 0x20 DUP4 LT PUSH1 0x1 DUP4 AND EQ PUSH2 0x2DB JUMPI DUP3 DUP5 MSTORE DUP4 SWAP2 PUSH1 0x1 DUP2 AND SWAP1 DUP2 ISZERO PUSH2 0x1849 JUMPI POP PUSH1 0x1 EQ PUSH2 0x17E8 JUMPI JUMPDEST PUSH2 0x12F6 SWAP3 POP SUB DUP3 PUSH2 0x1AB6 JUMP JUMPDEST PUSH1 0x20 DUP6 ADD MSTORE PUSH1 0x40 MLOAD PUSH1 0x0 PUSH1 0x4 SLOAD DUP1 PUSH1 0x1 SHR SWAP2 PUSH1 0x1 DUP3 AND ISZERO PUSH2 0x17DE JUMPI JUMPDEST PUSH1 0x20 DUP4 LT PUSH1 0x1 DUP4 AND EQ PUSH2 0x2DB JUMPI DUP3 DUP5 MSTORE DUP4 SWAP2 PUSH1 0x1 DUP2 AND SWAP1 DUP2 ISZERO PUSH2 0x17BF JUMPI POP PUSH1 0x1 EQ PUSH2 0x175E JUMPI JUMPDEST PUSH2 0x1344 SWAP3 POP SUB DUP3 PUSH2 0x1AB6 JUMP JUMPDEST PUSH1 0x40 DUP6 ADD MSTORE PUSH1 0x40 MLOAD PUSH1 0x0 PUSH1 0x5 SLOAD DUP1 PUSH1 0x1 SHR SWAP2 PUSH1 0x1 DUP3 AND ISZERO PUSH2 0x1754 JUMPI JUMPDEST PUSH1 0x20 DUP4 LT PUSH1 0x1 DUP4 AND EQ PUSH2 0x2DB JUMPI DUP3 DUP5 MSTORE DUP4 SWAP2 PUSH1 0x1 DUP2 AND SWAP1 DUP2 ISZERO PUSH2 0x1735 JUMPI POP PUSH1 0x1 EQ PUSH2 0x16D4 JUMPI JUMPDEST PUSH2 0x1392 SWAP3 POP SUB DUP3 PUSH2 0x1AB6 JUMP JUMPDEST PUSH1 0x60 DUP6 ADD MSTORE PUSH1 0x6 SLOAD PUSH1 0x80 DUP6 ADD MSTORE PUSH1 0x7 SLOAD PUSH8 0xFFFFFFFFFFFFFFFF DUP2 GT PUSH2 0x16BE JUMPI PUSH1 0x40 MLOAD SWAP1 PUSH2 0x13C5 PUSH1 0x20 DUP3 PUSH1 0x5 SHL ADD DUP4 PUSH2 0x1AB6 JUMP JUMPDEST DUP1 DUP3 MSTORE PUSH1 0x20 DUP3 ADD SWAP1 PUSH1 0x7 PUSH1 0x0 MSTORE PUSH32 0xA66CC928B5EDB82AF9BD49922954155AB7B0942694BEA4CE44661D9A8736C688 SWAP2 PUSH1 0x0 SWAP1 JUMPDEST DUP3 DUP3 LT PUSH2 0x15FD JUMPI POP POP POP POP PUSH1 0xA0 DUP6 ADD MSTORE PUSH2 0x14A5 SWAP1 PUSH2 0x1414 PUSH2 0x1B5D JUMP JUMPDEST PUSH1 0xC0 DUP7 ADD MSTORE PUSH1 0xFF PUSH1 0x9 SLOAD AND ISZERO ISZERO PUSH1 0xE0 DUP7 ADD MSTORE PUSH2 0x1497 PUSH1 0x40 MLOAD SWAP8 PUSH2 0x1436 DUP10 PUSH2 0x1A9A JUMP JUMPDEST PUSH1 0xA SLOAD PUSH1 0xFF DUP2 AND ISZERO ISZERO DUP11 MSTORE PUSH1 0x1 DUP1 PUSH1 0xA0 SHL SUB SWAP1 PUSH1 0x8 SHR AND PUSH1 0x20 DUP11 ADD MSTORE PUSH1 0xB SLOAD PUSH1 0x40 DUP11 ADD MSTORE PUSH1 0xFF PUSH1 0xC SLOAD DUP2 DUP2 AND ISZERO ISZERO PUSH1 0x60 DUP13 ADD MSTORE PUSH1 0x8 SHR AND ISZERO ISZERO PUSH1 0x80 DUP11 ADD MSTORE PUSH1 0x40 MLOAD SWAP8 PUSH1 0x1 DUP1 PUSH1 0xA0 SHL SUB SWAP1 PUSH1 0x8 SHR AND DUP9 MSTORE PUSH2 0x1A0 DUP1 PUSH1 0x20 DUP11 ADD MSTORE DUP9 ADD SWAP1 PUSH2 0x1A3D JUMP JUMPDEST SWAP1 DUP7 DUP3 SUB PUSH1 0x40 DUP9 ADD MSTORE PUSH2 0x1A3D JUMP JUMPDEST SWAP2 PUSH1 0x60 DUP6 ADD MSTORE PUSH1 0x0 PUSH1 0x80 DUP6 ADD MSTORE PUSH1 0xFF DUP2 AND ISZERO ISZERO PUSH1 0xA0 DUP6 ADD MSTORE PUSH1 0x1 DUP1 PUSH1 0xA0 SHL SUB SWAP1 PUSH1 0x8 SHR AND PUSH1 0xC0 DUP5 ADD MSTORE DUP3 DUP2 SUB PUSH1 0xE0 DUP5 ADD MSTORE PUSH2 0x152A PUSH2 0x1518 PUSH2 0x1506 PUSH2 0x14F4 DUP6 MLOAD PUSH2 0x100 DUP7 MSTORE PUSH2 0x100 DUP7 ADD SWAP1 PUSH2 0x1A3D JUMP JUMPDEST PUSH1 0x20 DUP7 ADD MLOAD DUP6 DUP3 SUB PUSH1 0x20 DUP8 ADD MSTORE PUSH2 0x1A3D JUMP JUMPDEST PUSH1 0x40 DUP6 ADD MLOAD DUP5 DUP3 SUB PUSH1 0x40 DUP7 ADD MSTORE PUSH2 0x1A3D JUMP JUMPDEST PUSH1 0x60 DUP5 ADD MLOAD DUP4 DUP3 SUB PUSH1 0x60 DUP6 ADD MSTORE PUSH2 0x1A3D JUMP JUMPDEST PUSH1 0x80 DUP4 ADD MLOAD PUSH1 0x80 DUP4 ADD MSTORE PUSH1 0xA0 DUP4 ADD MLOAD SWAP1 DUP3 DUP2 SUB PUSH1 0xA0 DUP5 ADD MSTORE DUP2 MLOAD DUP1 DUP3 MSTORE PUSH1 0x20 DUP3 ADD SWAP2 PUSH1 0x20 DUP1 DUP4 PUSH1 0x5 SHL DUP4 ADD ADD SWAP5 ADD SWAP3 PUSH1 0x0 SWAP2 JUMPDEST DUP4 DUP4 LT PUSH2 0x15D0 JUMPI DUP9 DUP1 DUP10 PUSH1 0x80 DUP14 DUP12 PUSH1 0xE0 DUP1 PUSH2 0x1584 DUP15 PUSH1 0xC0 DUP9 ADD MLOAD DUP6 DUP3 SUB PUSH1 0xC0 DUP8 ADD MSTORE PUSH2 0x1A3D JUMP JUMPDEST SWAP6 ADD MLOAD ISZERO ISZERO SWAP2 ADD MSTORE DUP1 MLOAD ISZERO ISZERO PUSH2 0x100 DUP6 ADD MSTORE PUSH1 0x20 DUP2 ADD MLOAD PUSH1 0x1 PUSH1 0x1 PUSH1 0xA0 SHL SUB AND PUSH2 0x120 DUP6 ADD MSTORE PUSH1 0x40 DUP2 ADD MLOAD PUSH2 0x140 DUP6 ADD MSTORE PUSH1 0x60 DUP2 ADD MLOAD ISZERO ISZERO PUSH2 0x160 DUP6 ADD MSTORE ADD MLOAD ISZERO ISZERO PUSH2 0x180 DUP4 ADD MSTORE SUB SWAP1 RETURN JUMPDEST SWAP1 SWAP2 SWAP3 SWAP4 SWAP5 PUSH1 0x20 DUP1 PUSH2 0x15EE PUSH1 0x1 SWAP4 PUSH1 0x1F NOT DUP7 DUP3 SUB ADD DUP8 MSTORE DUP10 MLOAD PUSH2 0x1A3D JUMP JUMPDEST SWAP8 ADD SWAP4 ADD SWAP4 ADD SWAP2 SWAP4 SWAP3 SWAP1 PUSH2 0x155D JUMP JUMPDEST PUSH1 0x40 MLOAD PUSH1 0x0 DUP6 SLOAD DUP1 PUSH1 0x1 SHR SWAP1 PUSH1 0x1 DUP2 AND ISZERO PUSH2 0x16B4 JUMPI JUMPDEST PUSH1 0x20 DUP3 LT PUSH1 0x1 DUP3 AND EQ PUSH2 0x2DB JUMPI DUP2 DUP5 MSTORE PUSH1 0x1 DUP2 AND SWAP1 DUP2 ISZERO PUSH2 0x1691 JUMPI POP PUSH1 0x1 EQ PUSH2 0x1659 JUMPI JUMPDEST POP PUSH1 0x1 SWAP3 DUP3 PUSH2 0x164B DUP6 SWAP5 PUSH1 0x20 SWAP5 SUB DUP3 PUSH2 0x1AB6 JUMP JUMPDEST DUP2 MSTORE ADD SWAP5 ADD SWAP2 ADD SWAP1 SWAP3 PUSH2 0x13F8 JUMP JUMPDEST PUSH1 0x0 DUP8 DUP2 MSTORE PUSH1 0x20 DUP2 KECCAK256 SWAP1 SWAP3 POP JUMPDEST DUP2 DUP4 LT PUSH2 0x167B JUMPI POP POP DUP2 ADD PUSH1 0x20 ADD PUSH1 0x1 PUSH2 0x1637 JUMP JUMPDEST PUSH1 0x1 DUP2 PUSH1 0x20 SWAP3 SLOAD DUP4 DUP7 DUP9 ADD ADD MSTORE ADD SWAP3 ADD SWAP2 PUSH2 0x1666 JUMP JUMPDEST PUSH1 0xFF NOT AND PUSH1 0x20 DUP6 DUP2 ADD SWAP2 SWAP1 SWAP2 MSTORE SWAP2 ISZERO ISZERO PUSH1 0x5 SHL DUP5 ADD SWAP1 SWAP2 ADD SWAP2 POP PUSH1 0x1 SWAP1 POP PUSH2 0x1637 JUMP JUMPDEST SWAP1 PUSH1 0x7F AND SWAP1 PUSH2 0x1613 JUMP JUMPDEST PUSH4 0x4E487B71 PUSH1 0xE0 SHL PUSH1 0x0 MSTORE PUSH1 0x41 PUSH1 0x4 MSTORE PUSH1 0x24 PUSH1 0x0 REVERT JUMPDEST POP SWAP1 PUSH1 0x5 PUSH1 0x0 MSTORE PUSH32 0x36B6384B5ECA791C62761152D0C79BB0604C104A5FB6F4EB0703F3154BB3DB0 SWAP1 PUSH1 0x0 SWAP2 JUMPDEST DUP2 DUP4 LT PUSH2 0x1719 JUMPI POP POP SWAP1 PUSH1 0x20 PUSH2 0x1392 SWAP3 DUP3 ADD ADD PUSH2 0x1386 JUMP JUMPDEST PUSH1 0x20 SWAP2 SWAP4 POP DUP1 PUSH1 0x1 SWAP2 SLOAD DUP4 DUP6 DUP9 ADD ADD MSTORE ADD SWAP2 ADD SWAP1 SWAP2 DUP4 SWAP3 PUSH2 0x1701 JUMP JUMPDEST PUSH1 0x20 SWAP3 POP PUSH2 0x1392 SWAP5 SWAP2 POP PUSH1 0xFF NOT AND DUP3 DUP5 ADD MSTORE ISZERO ISZERO PUSH1 0x5 SHL DUP3 ADD ADD PUSH2 0x1386 JUMP JUMPDEST SWAP2 PUSH1 0x7F AND SWAP2 PUSH2 0x1360 JUMP JUMPDEST POP SWAP1 PUSH1 0x4 PUSH1 0x0 MSTORE PUSH32 0x8A35ACFBC15FF81A39AE7D344FD709F28E8600B4AA8C65C6B64BFE7FE36BD19B SWAP1 PUSH1 0x0 SWAP2 JUMPDEST DUP2 DUP4 LT PUSH2 0x17A3 JUMPI POP POP SWAP1 PUSH1 0x20 PUSH2 0x1344 SWAP3 DUP3 ADD ADD PUSH2 0x1338 JUMP JUMPDEST PUSH1 0x20 SWAP2 SWAP4 POP DUP1 PUSH1 0x1 SWAP2 SLOAD DUP4 DUP6 DUP9 ADD ADD MSTORE ADD SWAP2 ADD SWAP1 SWAP2 DUP4 SWAP3 PUSH2 0x178B JUMP JUMPDEST PUSH1 0x20 SWAP3 POP PUSH2 0x1344 SWAP5 SWAP2 POP PUSH1 0xFF NOT AND DUP3 DUP5 ADD MSTORE ISZERO ISZERO PUSH1 0x5 SHL DUP3 ADD ADD PUSH2 0x1338 JUMP JUMPDEST SWAP2 PUSH1 0x7F AND SWAP2 PUSH2 0x1312 JUMP JUMPDEST POP SWAP1 PUSH1 0x3 PUSH1 0x0 MSTORE PUSH32 0xC2575A0E9E593C00F959F8C92F12DB2869C3395A3B0502D05E2516446F71F85B SWAP1 PUSH1 0x0 SWAP2 JUMPDEST DUP2 DUP4 LT PUSH2 0x182D JUMPI POP POP SWAP1 PUSH1 0x20 PUSH2 0x12F6 SWAP3 DUP3 ADD ADD PUSH2 0x12EA JUMP JUMPDEST PUSH1 0x20 SWAP2 SWAP4 POP DUP1 PUSH1 0x1 SWAP2 SLOAD DUP4 DUP6 DUP9 ADD ADD MSTORE ADD SWAP2 ADD SWAP1 SWAP2 DUP4 SWAP3 PUSH2 0x1815 JUMP JUMPDEST PUSH1 0x20 SWAP3 POP PUSH2 0x12F6 SWAP5 SWAP2 POP PUSH1 0xFF NOT AND DUP3 DUP5 ADD MSTORE ISZERO ISZERO PUSH1 0x5 SHL DUP3 ADD ADD PUSH2 0x12EA JUMP JUMPDEST SWAP2 PUSH1 0x7F AND SWAP2 PUSH2 0x12C4 JUMP JUMPDEST POP SWAP1 PUSH1 0x2 PUSH1 0x0 MSTORE PUSH32 0x405787FA12A823E0F2B7631CC41B3BA8828B3321CA811111FA75CD3AA3BB5ACE SWAP1 PUSH1 0x0 SWAP2 JUMPDEST DUP2 DUP4 LT PUSH2 0x18B7 JUMPI POP POP SWAP1 PUSH1 0x20 PUSH2 0x12AB SWAP3 DUP3 ADD ADD PUSH2 0x129F JUMP JUMPDEST PUSH1 0x20 SWAP2 SWAP4 POP DUP1 PUSH1 0x1 SWAP2 SLOAD DUP4 DUP6 DUP9 ADD ADD MSTORE ADD SWAP2 ADD SWAP1 SWAP2 DUP4 SWAP3 PUSH2 0x189F JUMP JUMPDEST PUSH1 0x20 SWAP3 POP PUSH2 0x12AB SWAP5 SWAP2 POP PUSH1 0xFF NOT AND DUP3 DUP5 ADD MSTORE ISZERO ISZERO PUSH1 0x5 SHL DUP3 ADD ADD PUSH2 0x129F JUMP JUMPDEST SWAP2 PUSH1 0x7F AND SWAP2 PUSH2 0x1279 JUMP JUMPDEST POP SWAP1 PUSH1 0x10 PUSH1 0x0 MSTORE PUSH32 0x1B6847DC741A1B0CD08D278845F9D819D87B734759AFB55FE2DE5CB82A9AE672 SWAP1 PUSH1 0x0 SWAP2 JUMPDEST DUP2 DUP4 LT PUSH2 0x1941 JUMPI POP POP SWAP1 PUSH1 0x20 PUSH2 0x1255 SWAP3 DUP3 ADD ADD PUSH2 0x1249 JUMP JUMPDEST PUSH1 0x20 SWAP2 SWAP4 POP DUP1 PUSH1 0x1 SWAP2 SLOAD DUP4 DUP6 DUP11 ADD ADD MSTORE ADD SWAP2 ADD SWAP1 SWAP2 DUP6 SWAP3 PUSH2 0x1929 JUMP JUMPDEST PUSH1 0x20 SWAP3 POP PUSH2 0x1255 SWAP5 SWAP2 POP PUSH1 0xFF NOT AND DUP3 DUP5 ADD MSTORE ISZERO ISZERO PUSH1 0x5 SHL DUP3 ADD ADD PUSH2 0x1249 JUMP JUMPDEST SWAP3 PUSH1 0x7F AND SWAP3 PUSH2 0x122A JUMP JUMPDEST POP SWAP1 PUSH1 0xF PUSH1 0x0 MSTORE PUSH32 0x8D1108E10BCB7C27DDDFC02ED9D693A074039D026CF4EA4240B40F7D581AC802 SWAP1 PUSH1 0x0 SWAP2 JUMPDEST DUP2 DUP4 LT PUSH2 0x19CB JUMPI POP POP SWAP1 PUSH1 0x20 PUSH2 0x1210 SWAP3 DUP3 ADD ADD PUSH2 0x1204 JUMP JUMPDEST PUSH1 0x20 SWAP2 SWAP4 POP DUP1 PUSH1 0x1 SWAP2 SLOAD DUP4 DUP6 DUP12 ADD ADD MSTORE ADD SWAP2 ADD SWAP1 SWAP2 DUP7 SWAP3 PUSH2 0x19B3 JUMP JUMPDEST PUSH1 0x20 SWAP3 POP PUSH2 0x1210 SWAP5 SWAP2 POP PUSH1 0xFF NOT AND DUP3 DUP5 ADD MSTORE ISZERO ISZERO PUSH1 0x5 SHL DUP3 ADD ADD PUSH2 0x1204 JUMP JUMPDEST SWAP3 PUSH1 0x7F AND SWAP3 PUSH2 0x11E5 JUMP JUMPDEST CALLVALUE PUSH2 0x1C1 JUMPI PUSH1 0x0 CALLDATASIZE PUSH1 0x3 NOT ADD SLT PUSH2 0x1C1 JUMPI PUSH1 0xE SLOAD PUSH1 0x40 MLOAD PUSH1 0x8 SWAP2 SWAP1 SWAP2 SHR PUSH1 0x1 PUSH1 0x1 PUSH1 0xA0 SHL SUB AND DUP2 MSTORE PUSH1 0x20 SWAP1 RETURN JUMPDEST SWAP2 SWAP1 DUP3 MLOAD SWAP3 DUP4 DUP3 MSTORE PUSH1 0x0 JUMPDEST DUP5 DUP2 LT PUSH2 0x1A69 JUMPI POP POP DUP3 PUSH1 0x0 PUSH1 0x20 DUP1 SWAP5 SWAP6 DUP5 ADD ADD MSTORE PUSH1 0x1F DUP1 NOT SWAP2 ADD AND ADD ADD SWAP1 JUMP JUMPDEST PUSH1 0x20 DUP2 DUP4 ADD DUP2 ADD MLOAD DUP5 DUP4 ADD DUP3 ADD MSTORE ADD PUSH2 0x1A48 JUMP JUMPDEST PUSH2 0x100 DUP2 ADD SWAP1 DUP2 LT PUSH8 0xFFFFFFFFFFFFFFFF DUP3 GT OR PUSH2 0x16BE JUMPI PUSH1 0x40 MSTORE JUMP JUMPDEST PUSH1 0xA0 DUP2 ADD SWAP1 DUP2 LT PUSH8 0xFFFFFFFFFFFFFFFF DUP3 GT OR PUSH2 0x16BE JUMPI PUSH1 0x40 MSTORE JUMP JUMPDEST SWAP1 PUSH1 0x1F DUP1 NOT SWAP2 ADD AND DUP2 ADD SWAP1 DUP2 LT PUSH8 0xFFFFFFFFFFFFFFFF DUP3 GT OR PUSH2 0x16BE JUMPI PUSH1 0x40 MSTORE JUMP JUMPDEST PUSH8 0xFFFFFFFFFFFFFFFF DUP2 GT PUSH2 0x16BE JUMPI PUSH1 0x1F ADD PUSH1 0x1F NOT AND PUSH1 0x20 ADD SWAP1 JUMP JUMPDEST PUSH1 0x20 PUSH1 0x3 NOT DUP3 ADD SLT PUSH2 0x1C1 JUMPI PUSH1 0x4 CALLDATALOAD PUSH8 0xFFFFFFFFFFFFFFFF DUP2 GT PUSH2 0x1C1 JUMPI DUP2 PUSH1 0x23 DUP3 ADD SLT ISZERO PUSH2 0x1C1 JUMPI DUP1 PUSH1 0x4 ADD CALLDATALOAD SWAP1 PUSH2 0x1B2C DUP3 PUSH2 0x1AD8 JUMP JUMPDEST SWAP3 PUSH2 0x1B3A PUSH1 0x40 MLOAD SWAP5 DUP6 PUSH2 0x1AB6 JUMP JUMPDEST DUP3 DUP5 MSTORE PUSH1 0x24 DUP4 DUP4 ADD ADD GT PUSH2 0x1C1 JUMPI DUP2 PUSH1 0x0 SWAP3 PUSH1 0x24 PUSH1 0x20 SWAP4 ADD DUP4 DUP7 ADD CALLDATACOPY DUP4 ADD ADD MSTORE SWAP1 JUMP JUMPDEST PUSH1 0x40 MLOAD SWAP1 PUSH1 0x0 PUSH1 0x8 SLOAD SWAP1 PUSH1 0x1 DUP3 DUP2 SHR SWAP1 DUP1 DUP5 AND SWAP4 DUP5 ISZERO PUSH2 0x1C3E JUMPI JUMPDEST PUSH1 0x20 SWAP5 DUP6 DUP5 LT DUP2 EQ PUSH2 0x1C2A JUMPI DUP4 DUP9 MSTORE DUP8 SWAP5 SWAP4 SWAP3 SWAP2 DUP2 ISZERO PUSH2 0x1C0A JUMPI POP PUSH1 0x1 EQ PUSH2 0x1BAB JUMPI JUMPDEST POP POP PUSH2 0x1BA9 SWAP3 POP SUB DUP4 PUSH2 0x1AB6 JUMP JUMPDEST JUMP JUMPDEST SWAP1 SWAP4 SWAP2 POP PUSH1 0x8 PUSH1 0x0 MSTORE PUSH32 0xF3F7A9FE364FAAB93B216DA50A3214154F22A0A2B415B23A84C8169E8B636EE3 SWAP4 PUSH1 0x0 SWAP2 JUMPDEST DUP2 DUP4 LT PUSH2 0x1BF2 JUMPI POP POP PUSH2 0x1BA9 SWAP4 POP DUP3 ADD ADD CODESIZE DUP1 PUSH2 0x1B9B JUMP JUMPDEST DUP6 SLOAD DUP9 DUP5 ADD DUP6 ADD MSTORE SWAP5 DUP6 ADD SWAP5 DUP8 SWAP5 POP SWAP2 DUP4 ADD SWAP2 PUSH2 0x1BDA JUMP JUMPDEST SWAP2 POP POP PUSH2 0x1BA9 SWAP5 SWAP3 POP PUSH1 0xFF NOT AND DUP3 DUP5 ADD MSTORE ISZERO ISZERO PUSH1 0x5 SHL DUP3 ADD ADD CODESIZE DUP1 PUSH2 0x1B9B JUMP JUMPDEST PUSH4 0x4E487B71 PUSH1 0xE0 SHL DUP6 MSTORE PUSH1 0x22 PUSH1 0x4 MSTORE PUSH1 0x24 DUP6 REVERT JUMPDEST SWAP2 PUSH1 0x7F AND SWAP2 PUSH2 0x1B78 JUMP JUMPDEST ISZERO PUSH2 0x1C4F JUMPI JUMP JUMPDEST PUSH1 0x40 MLOAD PUSH3 0x461BCD PUSH1 0xE5 SHL DUP2 MSTORE PUSH1 0x20 PUSH1 0x4 DUP3 ADD MSTORE PUSH1 0x19 PUSH1 0x24 DUP3 ADD MSTORE PUSH32 0x4F6E6C792073656C6C65722063616E2063616C6C207468697300000000000000 PUSH1 0x44 DUP3 ADD MSTORE PUSH1 0x64 SWAP1 REVERT JUMPDEST ISZERO PUSH2 0x1C9B JUMPI JUMP JUMPDEST PUSH1 0x40 MLOAD PUSH3 0x461BCD PUSH1 0xE5 SHL DUP2 MSTORE PUSH1 0x20 PUSH1 0x4 DUP3 ADD MSTORE PUSH1 0x11 PUSH1 0x24 DUP3 ADD MSTORE PUSH17 0x115CD8DC9BDDC81B9BDD08199D5B991959 PUSH1 0x7A SHL PUSH1 0x44 DUP3 ADD MSTORE PUSH1 0x64 SWAP1 REVERT JUMPDEST ISZERO PUSH2 0x1CDB JUMPI JUMP JUMPDEST PUSH1 0x40 MLOAD PUSH3 0x461BCD PUSH1 0xE5 SHL DUP2 MSTORE PUSH1 0x20 PUSH1 0x4 DUP3 ADD MSTORE PUSH1 0x18 PUSH1 0x24 DUP3 ADD MSTORE PUSH32 0x4F6E6C792062757965722063616E2063616C6C20746869730000000000000000 PUSH1 0x44 DUP3 ADD MSTORE PUSH1 0x64 SWAP1 REVERT JUMPDEST ISZERO PUSH2 0x1D27 JUMPI JUMP JUMPDEST PUSH1 0x40 MLOAD PUSH3 0x461BCD PUSH1 0xE5 SHL DUP2 MSTORE PUSH1 0x20 PUSH1 0x4 DUP3 ADD MSTORE PUSH1 0x13 PUSH1 0x24 DUP3 ADD MSTORE PUSH19 0x457363726F77207374696C6C20616374697665 PUSH1 0x68 SHL PUSH1 0x44 DUP3 ADD MSTORE PUSH1 0x64 SWAP1 REVERT JUMPDEST ISZERO PUSH2 0x1D69 JUMPI JUMP JUMPDEST PUSH1 0x40 MLOAD PUSH3 0x461BCD PUSH1 0xE5 SHL DUP2 MSTORE PUSH1 0x20 PUSH1 0x4 DUP3 ADD MSTORE PUSH1 0x15 PUSH1 0x24 DUP3 ADD MSTORE PUSH21 0x125D195B48185B1C9958591E481C9958D95A5D9959 PUSH1 0x5A SHL PUSH1 0x44 DUP3 ADD MSTORE PUSH1 0x64 SWAP1 REVERT JUMPDEST RETURNDATASIZE ISZERO PUSH2 0x1DD1 JUMPI RETURNDATASIZE SWAP1 PUSH2 0x1DB7 DUP3 PUSH2 0x1AD8 JUMP JUMPDEST SWAP2 PUSH2 0x1DC5 PUSH1 0x40 MLOAD SWAP4 DUP5 PUSH2 0x1AB6 JUMP JUMPDEST DUP3 MSTORE RETURNDATASIZE PUSH1 0x0 PUSH1 0x20 DUP5 ADD RETURNDATACOPY JUMP JUMPDEST PUSH1 0x60 SWAP1 JUMP JUMPDEST ISZERO PUSH2 0x1DDD JUMPI JUMP JUMPDEST PUSH1 0x40 MLOAD PUSH3 0x461BCD PUSH1 0xE5 SHL DUP2 MSTORE PUSH1 0x20 PUSH1 0x4 DUP3 ADD MSTORE PUSH1 0xF PUSH1 0x24 DUP3 ADD MSTORE PUSH15 0x151C985B9CD9995C8819985A5B1959 PUSH1 0x8A SHL PUSH1 0x44 DUP3 ADD MSTORE PUSH1 0x64 SWAP1 REVERT INVALID LOG2 PUSH5 0x6970667358 0x22 SLT KECCAK256 0xC3 DUP16 PUSH0 DUP2 SIGNEXTEND SAR 0xC4 SMOD NUMBER GT SWAP1 SWAP10 CREATE 0xE4 0x22 0xF9 PUSH9 0x2C406DE80B2D897418 0xAF MLOAD 0xB6 PUSH0 0xA9 SHL PUSH5 0x736F6C6343 STOP ADDMOD EQ STOP CALLER 0xA6 PUSH13 0xC928B5EDB82AF9BD4992295415 GAS 0xB7 0xB0 SWAP5 0x26 SWAP5 0xBE LOG4 0xCE PREVRANDAO PUSH7 0x1D9A8736C688F3 0xF7 0xA9 INVALID CALLDATASIZE 0x4F 0xAA 0xB9 EXTCODESIZE 0x21 PUSH14 0xA50A3214154F22A0A2B415B23A84 0xC8 AND SWAP15 DUP12 PUSH4 0x6EE31B68 SELFBALANCE 0xDC PUSH21 0x1A1B0CD08D278845F9D819D87B734759AFB55FE2DE 0x5C 0xB8 0x2A SWAP11 0xE6 PUSH19 0x8D1108E10BCB7C27DDDFC02ED9D693A074039D MUL PUSH13 0xF4EA4240B40F7D581AC8020000 "},"methodIdentifiers":{"auctioneer()":"5ec2c7bf","confirmItemReceived(bool)":"88e7e366","description()":"7284e416","endAuction()":"fe67a54b","escrow()":"e2fdcc17","escrowBalance()":"e11e1b0c","escrowFunded()":"562e4d38","escrowReleased()":"7b499faa","fundEscrow()":"a5d737ac","getAuctionDetails()":"3a6dcea2","getAuctionPrice()":"4bd25c6f","getCurrentPrice()":"eb91d37e","getEscrowAmount()":"a5e845b4","image()":"f3ccaac0","isCompleted()":"fa391c64","item()":"f2a4a82e","paused()":"5c975abb","placeBid()":"ecfc7ecc","price()":"a035b1fe","purchases(address)":"842a77d3","raiseDispute(string)":"725a3b4b","resolveDispute(address)":"d8461182","seller()":"08551a53","shipItem(string)":"56eec68d","winner()":"dfbf53ae"}}}}}