{"contracts/EnglishAuction.sol":{"EnglishAuction":{"abi":[{"inputs":[{"internalType":"string","name":"_description","type":"string"},{"internalType":"string","name":"_image","type":"string"},{"internalType":"uint256","name":"_startingPrice","type":"uint256"},{"internalType":"uint256","name":"_duration","type":"uint256"},{"internalType":"string","name":"_name","type":"string"},{"internalType":"string","name":"_itemDescription","type":"string"},{"internalType":"string","name":"_condition","type":"string"},{"internalType":"string","name":"_dimensions","type":"string"},{"internalType":"uint256","name":"_weight","type":"uint256"},{"internalType":"string[]","name":"_images","type":"string[]"},{"internalType":"string","name":"_shippingAddress","type":"string"},{"internalType":"bool","name":"_isPhysical","type":"bool"}],"stateMutability":"nonpayable","type":"constructor"},{"anonymous":false,"inputs":[{"indexed":true,"internalType":"address","name":"seller","type":"address"},{"indexed":false,"internalType":"uint256","name":"startingPrice","type":"uint256"},{"indexed":false,"internalType":"uint256","name":"duration","type":"uint256"},{"indexed":false,"internalType":"string","name":"description","type":"string"}],"name":"AuctionCreated","type":"event"},{"anonymous":false,"inputs":[{"indexed":true,"internalType":"address","name":"winner","type":"address"},{"indexed":false,"internalType":"uint256","name":"amount","type":"uint256"}],"name":"AuctionEnded","type":"event"},{"anonymous":false,"inputs":[{"indexed":true,"internalType":"address","name":"bidder","type":"address"},{"indexed":false,"internalType":"uint256","name":"amount","type":"uint256"}],"name":"BidPlaced","type":"event"},{"anonymous":false,"inputs":[{"indexed":true,"internalType":"address","name":"buyer","type":"address"},{"indexed":false,"internalType":"string","name":"reason","type":"string"}],"name":"DisputeRaised","type":"event"},{"anonymous":false,"inputs":[{"indexed":true,"internalType":"address","name":"winner","type":"address"},{"indexed":false,"internalType":"uint256","name":"amount","type":"uint256"}],"name":"DisputeResolved","type":"event"},{"anonymous":false,"inputs":[{"indexed":true,"internalType":"address","name":"escrowAgent","type":"address"},{"indexed":false,"internalType":"uint256","name":"escrowFee","type":"uint256"}],"name":"EscrowCreated","type":"event"},{"anonymous":false,"inputs":[{"indexed":false,"internalType":"uint256","name":"amount","type":"uint256"}],"name":"EscrowFunded","type":"event"},{"anonymous":false,"inputs":[{"indexed":true,"internalType":"address","name":"buyer","type":"address"},{"indexed":false,"internalType":"uint256","name":"amount","type":"uint256"}],"name":"EscrowRefunded","type":"event"},{"anonymous":false,"inputs":[{"indexed":true,"internalType":"address","name":"seller","type":"address"},{"indexed":false,"internalType":"uint256","name":"amount","type":"uint256"}],"name":"EscrowReleased","type":"event"},{"anonymous":false,"inputs":[{"indexed":true,"internalType":"address","name":"buyer","type":"address"},{"indexed":false,"internalType":"bool","name":"conditionMet","type":"bool"}],"name":"ItemReceived","type":"event"},{"anonymous":false,"inputs":[{"indexed":true,"internalType":"address","name":"seller","type":"address"},{"indexed":false,"internalType":"string","name":"trackingNumber","type":"string"}],"name":"ItemShipped","type":"event"},{"anonymous":false,"inputs":[{"indexed":false,"internalType":"address","name":"account","type":"address"}],"name":"Paused","type":"event"},{"anonymous":false,"inputs":[{"indexed":false,"internalType":"address","name":"account","type":"address"}],"name":"Unpaused","type":"event"},{"inputs":[],"name":"auctioneer","outputs":[{"internalType":"address","name":"","type":"address"}],"stateMutability":"view","type":"function"},{"inputs":[{"internalType":"bool","name":"conditionMet","type":"bool"}],"name":"confirmItemReceived","outputs":[],"stateMutability":"nonpayable","type":"function"},{"inputs":[],"name":"currentPrice","outputs":[{"internalType":"uint256","name":"","type":"uint256"}],"stateMutability":"view","type":"function"},{"inputs":[],"name":"description","outputs":[{"internalType":"string","name":"","type":"string"}],"stateMutability":"view","type":"function"},{"inputs":[],"name":"endAuction","outputs":[],"stateMutability":"nonpayable","type":"function"},{"inputs":[],"name":"endTime","outputs":[{"internalType":"uint256","name":"","type":"uint256"}],"stateMutability":"view","type":"function"},{"inputs":[],"name":"escrow","outputs":[{"internalType":"bool","name":"isActive","type":"bool"},{"internalType":"address","name":"escrowAgent","type":"address"},{"internalType":"uint256","name":"escrowFee","type":"uint256"},{"internalType":"bool","name":"itemReceived","type":"bool"},{"internalType":"bool","name":"paymentReleased","type":"bool"}],"stateMutability":"view","type":"function"},{"inputs":[],"name":"escrowBalance","outputs":[{"internalType":"uint256","name":"","type":"uint256"}],"stateMutability":"view","type":"function"},{"inputs":[],"name":"escrowFunded","outputs":[{"internalType":"bool","name":"","type":"bool"}],"stateMutability":"view","type":"function"},{"inputs":[],"name":"escrowReleased","outputs":[{"internalType":"bool","name":"","type":"bool"}],"stateMutability":"view","type":"function"},{"inputs":[],"name":"fundEscrow","outputs":[],"stateMutability":"payable","type":"function"},{"inputs":[],"name":"getAuctionDetails","outputs":[{"internalType":"address","name":"sellerAddr","type":"address"},{"internalType":"string","name":"desc","type":"string"},{"internalType":"string","name":"img","type":"string"},{"internalType":"uint256","name":"auctionPrice","type":"uint256"},{"internalType":"uint256","name":"auctionEndTime","type":"uint256"},{"internalType":"bool","name":"completed","type":"bool"},{"internalType":"address","name":"winnerAddr","type":"address"},{"components":[{"internalType":"string","name":"name","type":"string"},{"internalType":"string","name":"description","type":"string"},{"internalType":"string","name":"condition","type":"string"},{"internalType":"string","name":"dimensions","type":"string"},{"internalType":"uint256","name":"weight","type":"uint256"},{"internalType":"string[]","name":"images","type":"string[]"},{"internalType":"string","name":"shippingAddress","type":"string"},{"internalType":"bool","name":"isPhysical","type":"bool"}],"internalType":"struct IAuction.PhysicalItem","name":"physicalItem","type":"tuple"},{"components":[{"internalType":"bool","name":"isActive","type":"bool"},{"internalType":"address","name":"escrowAgent","type":"address"},{"internalType":"uint256","name":"escrowFee","type":"uint256"},{"internalType":"bool","name":"itemReceived","type":"bool"},{"internalType":"bool","name":"paymentReleased","type":"bool"}],"internalType":"struct IAuction.Escrow","name":"escrowInfo","type":"tuple"}],"stateMutability":"view","type":"function"},{"inputs":[],"name":"getAuctionPrice","outputs":[{"internalType":"uint256","name":"","type":"uint256"}],"stateMutability":"view","type":"function"},{"inputs":[],"name":"getCurrentPrice","outputs":[{"internalType":"uint256","name":"","type":"uint256"}],"stateMutability":"view","type":"function"},{"inputs":[],"name":"getEscrowAmount","outputs":[{"internalType":"uint256","name":"","type":"uint256"}],"stateMutability":"view","type":"function"},{"inputs":[],"name":"image","outputs":[{"internalType":"string","name":"","type":"string"}],"stateMutability":"view","type":"function"},{"inputs":[],"name":"isCompleted","outputs":[{"internalType":"bool","name":"","type":"bool"}],"stateMutability":"view","type":"function"},{"inputs":[],"name":"item","outputs":[{"internalType":"string","name":"name","type":"string"},{"internalType":"string","name":"description","type":"string"},{"internalType":"string","name":"condition","type":"string"},{"internalType":"string","name":"dimensions","type":"string"},{"internalType":"uint256","name":"weight","type":"uint256"},{"internalType":"string","name":"shippingAddress","type":"string"},{"internalType":"bool","name":"isPhysical","type":"bool"}],"stateMutability":"view","type":"function"},{"inputs":[],"name":"paused","outputs":[{"internalType":"bool","name":"","type":"bool"}],"stateMutability":"view","type":"function"},{"inputs":[],"name":"placeBid","outputs":[],"stateMutability":"payable","type":"function"},{"inputs":[{"internalType":"address","name":"","type":"address"}],"name":"purchases","outputs":[{"internalType":"uint256","name":"","type":"uint256"}],"stateMutability":"pure","type":"function"},{"inputs":[{"internalType":"string","name":"reason","type":"string"}],"name":"raiseDispute","outputs":[],"stateMutability":"nonpayable","type":"function"},{"inputs":[{"internalType":"address","name":"disputeWinner","type":"address"}],"name":"resolveDispute","outputs":[],"stateMutability":"nonpayable","type":"function"},{"inputs":[],"name":"seller","outputs":[{"internalType":"address","name":"","type":"address"}],"stateMutability":"view","type":"function"},{"inputs":[{"internalType":"string","name":"trackingNumber","type":"string"}],"name":"shipItem","outputs":[],"stateMutability":"nonpayable","type":"function"},{"inputs":[],"name":"startingPrice","outputs":[{"internalType":"uint256","name":"","type":"uint256"}],"stateMutability":"view","type":"function"},{"inputs":[],"name":"winner","outputs":[{"internalType":"address","name":"","type":"address"}],"stateMutability":"view","type":"function"}],"evm":{"bytecode":{"linkReferences":{},"object":"60806040523462000dc457620029a780380390816200001e8162000e04565b91823961018081838101031262000dc45780516001600160401b03811162000dc457620000519083830190830162000e4f565b60208201519091906001600160401b03811162000dc457620000799084830190830162000e4f565b604082015191606081015191608082015160018060401b03811162000dc457620000a99087840190840162000e4f565b60a08301519092906001600160401b03811162000dc457620000d19088830190830162000e4f565b60c08201519097906001600160401b03811162000dc457620000f99082840190840162000e4f565b60e08301516001600160401b03811162000dc4576200011e9083850190850162000e4f565b610100840151610120850151939092906001600160401b03851162000dc457808601601f86880101121562000dc45785850151946001600160401b038611620006d7578560051b9060206200017581840162000e04565b809881520190838901602084838c0101011162000dc4576020818a0101915b602084838c010101831062000dc95750505050610140860151906001600160401b03821162000dc45761016091620001d191880190880162000e4f565b95015195861515870362000dc4576001600d55600e80546001600160a81b0319163360081b610100600160a81b03161790558a516001600160401b038111620006d75762000221600f5462000ea6565b601f811162000d82575b50806020601f821160011462000d075760009162000cfb575b508160011b916000199060031b1c191617600f555b8051906001600160401b038211620006d75781906200027a60105462000ea6565b601f811162000cb9575b50602090601f831160011462000c3b5760009262000c2f575b50508160011b916000199060031b1c1916176010555b886011558860125587420180421162000c19576013556014805460ff60a01b191690556040519a6001600160401b036101008d01908111908d1117620006d7576101008c01604052878c5260208c015260408b015260608a0152608089015260a088015260c0870152151560e086015280519060018060401b038211620006d75781906200034360025462000ea6565b601f811162000bd7575b50602090601f831160011462000b595760009262000b4d575b50508160011b916000199060031b1c1916176002555b60208401518051906001600160401b038211620006d7578190620003a260035462000ea6565b601f811162000afa575b50602090601f831160011462000a6b5760009262000a5f575b50508160011b916000199060031b1c1916176003555b60408401518051906001600160401b038211620006d75781906200040160045462000ea6565b601f811162000a0c575b50602090601f83116001146200097d5760009262000971575b50508160011b916000199060031b1c1916176004555b60608401518051906001600160401b038211620006d75781906200046060055462000ea6565b601f81116200093a575b50602090601f8311600114620008ab576000926200089f575b50508160011b916000199060031b1c1916176005555b608084015160065560a0840151805190680100000000000000008211620006d7576007548260075580831062000813575b50600760009081526000805160206200292783398151915292916020015b828210620006ed575050505060c08401518051906001600160401b038211620006d7576200051860085462000ea6565b601f811162000689575b50602090601f8311600114620005e95791807fa3d19677a52b6dff051e5813011905526090505e00fcea83c604776ad5ebfd6896979260e094600092620005dd575b50508160011b916000199060031b1c1916176008555b0151151560ff801960095416911617600955604051918252602082015260606040820152620005ba83518094816060850152602060808501910162000e2a565b3392601f01601f1916810181900360800190a2604051611a0a908162000efd8239f35b01519050388062000564565b6008600090815260008051602062002947833981519152929190601f198516905b81811062000670575092600192859260e0967fa3d19677a52b6dff051e5813011905526090505e00fcea83c604776ad5ebfd689a9b961062000656575b505050811b016008556200057a565b015160001960f88460031b161c1916905538808062000647565b929360206001819287860151815501950193016200060a565b6008600052620006c59060008051602062002947833981519152601f850160051c81019160208610620006cc575b601f0160051c019062000ee3565b3862000522565b9091508190620006b7565b634e487b7160e01b600052604160045260246000fd5b80518051906001600160401b038211620006d7576200070d865462000ea6565b601f8111620007dd575b50602090601f8311600114620007685792826001949360209386956000926200075c575b5050600019600383901b1c191690841b1787555b01940191019092620004e8565b0151905038806200073b565b908660005260206000209160005b601f1985168110620007c4575083602093600196938796938794601f19811610620007aa575b505050811b0187556200074f565b015160001960f88460031b161c191690553880806200079c565b9192602060018192868501518155019401920162000776565b6200080c90876000526020600020601f850160051c81019160208610620006cc57601f0160051c019062000ee3565b3862000717565b600760005260008051602062002927833981519152908382015b81830181106200083f575050620004ca565b806200084e6001925462000ea6565b806200085d575b50016200082d565b601f81118314620008755750600081555b3862000855565b60009082825262000895601f60208420920160051c820185830162000ee3565b818355556200086e565b01519050388062000483565b6005600090815293507f036b6384b5eca791c62761152d0c79bb0604c104a5fb6f4eb0703f3154bb3db091905b601f19841685106200091e576001945083601f1981161062000904575b505050811b0160055562000499565b015160001960f88460031b161c19169055388080620008f5565b81810151835560209485019460019093019290910190620008d8565b6200096a9060056000526020600020601f850160051c81019160208610620006cc57601f0160051c019062000ee3565b386200046a565b01519050388062000424565b6004600090815293507f8a35acfbc15ff81a39ae7d344fd709f28e8600b4aa8c65c6b64bfe7fe36bd19b91905b601f1984168510620009f0576001945083601f19811610620009d6575b505050811b016004556200043a565b015160001960f88460031b161c19169055388080620009c7565b81810151835560209485019460019093019290910190620009aa565b600460005262000a58907f8a35acfbc15ff81a39ae7d344fd709f28e8600b4aa8c65c6b64bfe7fe36bd19b601f850160051c81019160208610620006cc57601f0160051c019062000ee3565b386200040b565b015190503880620003c5565b6003600090815293507fc2575a0e9e593c00f959f8c92f12db2869c3395a3b0502d05e2516446f71f85b91905b601f198416851062000ade576001945083601f1981161062000ac4575b505050811b01600355620003db565b015160001960f88460031b161c1916905538808062000ab5565b8181015183556020948501946001909301929091019062000a98565b600360005262000b46907fc2575a0e9e593c00f959f8c92f12db2869c3395a3b0502d05e2516446f71f85b601f850160051c81019160208610620006cc57601f0160051c019062000ee3565b38620003ac565b01519050388062000366565b6002600090815293506000805160206200290783398151915291905b601f198416851062000bbb576001945083601f1981161062000ba1575b505050811b016002556200037c565b015160001960f88460031b161c1916905538808062000b92565b8181015183556020948501946001909301929091019062000b75565b600260005262000c129060008051602062002907833981519152601f850160051c81019160208610620006cc57601f0160051c019062000ee3565b386200034d565b634e487b7160e01b600052601160045260246000fd5b0151905038806200029d565b6010600090815293506000805160206200296783398151915291905b601f198416851062000c9d576001945083601f1981161062000c83575b505050811b01601055620002b3565b015160001960f88460031b161c1916905538808062000c74565b8181015183556020948501946001909301929091019062000c57565b601060005262000cf49060008051602062002967833981519152601f850160051c81019160208610620006cc57601f0160051c019062000ee3565b3862000284565b90508c01513862000244565b600f6000908152925060008051602062002987833981519152908e5b601f198416851062000d69576001945083601f1981161062000d4f575b505050811b01600f5562000259565b015160001960f88460031b161c1916905538808e62000d40565b8101518255602093840193600190920191018e62000d23565b600f60005262000dbd9060008051602062002987833981519152601f840160051c81019160208510620006cc57601f0160051c019062000ee3565b386200022b565b600080fd5b8251906001600160401b03821162000dc457602080929162000df68d838095888c84019301010162000e4f565b815201930192905062000194565b6040519190601f01601f191682016001600160401b03811183821017620006d757604052565b60005b83811062000e3e5750506000910152565b818101518382015260200162000e2d565b81601f8201121562000dc45780516001600160401b038111620006d75762000e81601f8201601f191660200162000e04565b928184526020828401011162000dc45762000ea3916020808501910162000e2a565b90565b90600182811c9216801562000ed8575b602083101462000ec257565b634e487b7160e01b600052602260045260246000fd5b91607f169162000eb6565b81811062000eef575050565b6000815560010162000ee356fe6080604052600436101561001257600080fd5b60003560e01c806308551a531461117b5780633197cbb61461115d5780633a6dcea214610d395780634bd25c6f14610638578063562e4d3814610d1657806356eec68d14610c125780635c975abb14610bef5780635ec2c7bf14610bea578063725a3b4b14610b5e5780637284e41614610b425780637b499faa14610b1c578063842a77d314610aee57806388e7e366146109aa5780639d1b464a1461098c578063a5d737ac1461082c578063a5e845b414610809578063d6fbf202146107eb578063d8461182146106da578063dfbf53ae146106b1578063e11e1b0c14610693578063e2fdcc171461063d578063eb91d37e14610638578063ecfc7ecc14610427578063f2a4a82e14610375578063f3ccaac014610341578063fa391c641461031b5763fe67a54b1461014557600080fd5b346103165760003660031901126103165760145460ff8160a01c166102d957601354421061029d5760ff60a01b198116600160a01b176014556001600160a01b039081166101c1575b601454167fdaec4582d5d9595688c8c98545fdd1c696d41c6aeaeb636737e84ed2f5c00eda6020601254604051908152a2005b60095460ff1615610269576101d46119b7565b600060806040516101e481611205565b6001815230602082015283604082015282606082015201527f137fb716243bb1721111512a26c6a2d922e0bf3022df1ea74c7ef10ab3bc0dc76020836001600a546101008260a81b033060081b16906affffffffffffffffffffff60a81b16171780600a5584600b5561ffff19600c5416600c5560405194855260081c1692a261018e565b600080808084600e5460081c1660125490828215610294575bf161018e575b6040513d6000823e3d90fd5b506108fc610282565b60405162461bcd60e51b815260206004820152601460248201527341756374696f6e207374696c6c2061637469766560601b6044820152606490fd5b60405162461bcd60e51b8152602060048201526015602482015274105d58dd1a5bdb88185b1c9958591e48195b991959605a1b6044820152606490fd5b600080fd5b3461031657600036600319011261031657602060ff60145460a01c166040519015158152f35b346103165760003660031901126103165761037161035d6113b3565b6040519182916020835260208301906111a8565b0390f35b34610316576000366003190112610316576103de610391611467565b61039961151b565b61041b6103a46115cf565b6103ac611683565b90610408600654926103fa6103bf611737565b936103ec60ff60095416986040519b8c9b60e08d5260e08d01906111a8565b908b820360208d01526111a8565b9089820360408b01526111a8565b9087820360608901526111a8565b91608086015284820360a08601526111a8565b90151560c08301520390f35b6000366003190112610316576002600d54146105f3576002600d5560ff600e54166105bb5760145460ff8160a01c16610582576013544210156105475760125490813411156104f4576001600160a01b0316806104cf575b336bffffffffffffffffffffffff60a01b6014541617601455346012556040513481527f3fabff0a9c3ecd6814702e247fa9733e5d0aa69e3a38590f92cb18f623a2254d60203392a26001600d55005b600080809381938282156104eb575bf11561028857808061047f565b506108fc6104de565b60405162461bcd60e51b815260206004820152602560248201527f426964206d75737420626520686967686572207468616e2063757272656e7420604482015264707269636560d81b6064820152608490fd5b60405162461bcd60e51b8152602060048201526013602482015272105d58dd1a5bdb881a185cc8195e1c1a5c9959606a1b6044820152606490fd5b60405162461bcd60e51b8152602060048201526011602482015270105d58dd1a5bdb881a185cc8195b991959607a1b6044820152606490fd5b60405162461bcd60e51b815260206004820152601060248201526f14185d5cd8589b194e881c185d5cd95960821b6044820152606490fd5b60405162461bcd60e51b815260206004820152601f60248201527f5265656e7472616e637947756172643a207265656e7472616e742063616c6c006044820152606490fd5b61098c565b346103165760003660031901126103165760a0600a5460ff600b54600c54906040519383811615158552600180871b039060081c16602085015260408401528181161515606084015260081c1615156080820152f35b34610316576000366003190112610316576020600054604051908152f35b34610316576000366003190112610316576014546040516001600160a01b039091168152602090f35b34610316576020366003190112610316576004356001600160a01b03818116918290036103165761071390600e5460081c1633146117eb565b61072160ff60015416611837565b61073060ff600a5416156118c3565b600c5461074060ff821615611905565b60ff8160081c166107a65760207ff396531fad1d4dc2cd92386cdea800c92a507f8fe1bdb80313eb32a57481b1dc91610100600054916000805561ff00191617600c5561079d600080808085895af1610797611949565b50611979565b604051908152a2005b60405162461bcd60e51b815260206004820152601860248201527f5061796d656e7420616c72656164792072656c656173656400000000000000006044820152606490fd5b34610316576000366003190112610316576020601154604051908152f35b346103165760003660031901126103165760206108246119b7565b604051908152f35b60003660031901126103165761085060018060a01b03600e5460081c1633146117eb565b60015460ff811661094f57341561091a576012548060011b90808204600214901517156109045760649004908134106108bf578160016020927f3b4f5a74452cddb80ae5a0d279eb7db6afd5e556e72ca2883016b1da7c9d21169460005560ff191617600155604051908152a1005b60405162461bcd60e51b815260206004820152601a60248201527f496e73756666696369656e7420657363726f7720616d6f756e740000000000006044820152606490fd5b634e487b7160e01b600052601160045260246000fd5b60405162461bcd60e51b815260206004820152600d60248201526c09aeae6e840e6cadcc8408aa89609b1b6044820152606490fd5b60405162461bcd60e51b8152602060048201526015602482015274115cd8dc9bddc8185b1c9958591e48199d5b991959605a1b6044820152606490fd5b34610316576000366003190112610316576020601254604051908152f35b346103165760203660031901126103165760043580151590818103610316576014546001600160a01b0392906109e39084163314611877565b6109f160ff60015416611837565b610a0060ff600a5416156118c3565b610101600c54610a1360ff821615611905565b61ffff191617600c556040519081527f27a5ccc16be6802bcec7c2477a2b588a54c808352ef7dab930058f65864b3ce960203392a215610aa4577fe327b247066bdf32cf2493778e3fce4339b69c1e379a3b0dc780779bf67fe15560206000549260008055610a9360008080808886600e5460081c165af1610797611949565b600e5460081c1692604051908152a2005b5060005460008055610ac0600080808085335af1610797611949565b6040519081527f894ce7cc354d2a39de53f8dab6b0ad8c5ac65641e68aa2154fdb88bcc387e3dd60203392a2005b34610316576020366003190112610316576004356001600160a01b0381160361031657602060405160008152f35b3461031657600036600319011261031657602060ff60015460081c166040519015158152f35b346103165760003660031901126103165761037161035d6112c8565b3461031657610b6c3661125f565b610b8160018060a01b03601454163314611877565b610b8f60ff60015416611837565b610b9e60ff600a5416156118c3565b610bad60ff600c541615611905565b7f28b099eb575e23e32becd7c30dc8f9b2f98e370cdbf9841ea3338d9000402a256040516020815280610be5339460208301906111a8565b0390a2005b61117b565b3461031657600036600319011261031657602060ff600e54166040519015158152f35b3461031657610c203661125f565b610c3860018060a01b03600e5460081c1633146117eb565b610c4660ff60015416611837565b600a5460ff811615610cdd57815115610c985760ff1916600a557f2eb59c65a13ffe423f16ef2c7edd21afcde560ef40c04008402e75d5c0b04b2f6040516020815280610be5339460208301906111a8565b60405162461bcd60e51b815260206004820152601760248201527f496e76616c696420747261636b696e67206e756d6265720000000000000000006044820152606490fd5b60405162461bcd60e51b8152602060048201526011602482015270457363726f77206e6f742061637469766560781b6044820152606490fd5b3461031657600036600319011261031657602060ff600154166040519015158152f35b3461031657600036600319011261031657600060e0604051610d5a816111e8565b606081526060602082015260606040820152606080820152826080820152606060a0820152606060c0820152015260006080604051610d9881611205565b8281528260208201528260408201528260608201520152600e546012549060135460145492610dc56112c8565b93610dce6113b3565b9260405193610ddc856111e8565b610de4611467565b8552610dee61151b565b6020860152610dfb6115cf565b6040860152610e08611683565b6060860152600654608086015260075467ffffffffffffffff81116111475760405190610e3b60208260051b0183611221565b808252602082019060076000527fa66cc928b5edb82af9bd49922954155ab7b0942694bea4ce44661d9a8736c688916000905b828210611070575050505060a0860152610f1b90610e8a611737565b60c087015260ff60095416151560e0870152610f0d60405198610eac8a611205565b600a5460ff811615158b5260018060a01b039060081c1660208b0152600b5460408b015260ff600c54818116151560608d015260081c16151560808b01526040519860018060a01b039060081c1689526101a08060208b01528901906111a8565b9087820360408901526111a8565b926060860152608085015260ff8160a01c16151560a085015260018060a01b031660c084015282810360e0840152610f9d610f8b610f79610f67855161010086526101008601906111a8565b602086015185820360208701526111a8565b604085015184820360408601526111a8565b606084015183820360608501526111a8565b6080830151608083015260a08301519082810360a0840152815180825260208201916020808360051b8301019401926000915b8383106110435788808960808d8b60e080610ff78e60c088015185820360c08701526111a8565b95015115159101528051151561010085015260208101516001600160a01b0316610120850152604081015161014085015260608101511515610160850152015115156101808301520390f35b9091929394602080611061600193601f1986820301875289516111a8565b97019301930191939290610fd0565b604051600085548060011c90600181161561113d575b602082106001821614611127578184526001811690811561110457506001146110cc575b50600192826110be85946020940382611221565b815201940191019092610e6e565b6000878152602081209092505b8183106110ee575050810160200160016110aa565b60018160209254838688010152019201916110d9565b60ff191660208581019190915291151560051b84019091019150600190506110aa565b634e487b7160e01b600052602260045260246000fd5b90607f1690611086565b634e487b7160e01b600052604160045260246000fd5b34610316576000366003190112610316576020601354604051908152f35b3461031657600036600319011261031657600e5460405160089190911c6001600160a01b03168152602090f35b919082519283825260005b8481106111d4575050826000602080949584010152601f8019910116010190565b6020818301810151848301820152016111b3565b610100810190811067ffffffffffffffff82111761114757604052565b60a0810190811067ffffffffffffffff82111761114757604052565b90601f8019910116810190811067ffffffffffffffff82111761114757604052565b67ffffffffffffffff811161114757601f01601f191660200190565b60206003198201126103165760043567ffffffffffffffff811161031657816023820112156103165780600401359061129782611243565b926112a56040519485611221565b828452602483830101116103165781600092602460209301838601378301015290565b604051906000600f5490600182811c908084169384156113a9575b602094858410811461139557838852879493929181156113755750600114611316575b505061131492500383611221565b565b90939150600f6000527f8d1108e10bcb7c27dddfc02ed9d693a074039d026cf4ea4240b40f7d581ac802936000915b81831061135d57505061131493508201013880611306565b85548884018501529485019487945091830191611345565b91505061131494925060ff191682840152151560051b8201013880611306565b634e487b7160e01b85526022600452602485fd5b91607f16916112e3565b60405190600060105490600182811c9080841693841561145d575b6020948584108114611395578388528794939291811561137557506001146113fe57505061131492500383611221565b9093915060106000527f1b6847dc741a1b0cd08d278845f9d819d87b734759afb55fe2de5cb82a9ae672936000915b81831061144557505061131493508201013880611306565b8554888401850152948501948794509183019161142d565b91607f16916113ce565b60405190600060025490600182811c90808416938415611511575b6020948584108114611395578388528794939291811561137557506001146114b257505061131492500383611221565b9093915060026000527f405787fa12a823e0f2b7631cc41b3ba8828b3321ca811111fa75cd3aa3bb5ace936000915b8183106114f957505061131493508201013880611306565b855488840185015294850194879450918301916114e1565b91607f1691611482565b60405190600060035490600182811c908084169384156115c5575b60209485841081146113955783885287949392918115611375575060011461156657505061131492500383611221565b9093915060036000527fc2575a0e9e593c00f959f8c92f12db2869c3395a3b0502d05e2516446f71f85b936000915b8183106115ad57505061131493508201013880611306565b85548884018501529485019487945091830191611595565b91607f1691611536565b60405190600060045490600182811c90808416938415611679575b60209485841081146113955783885287949392918115611375575060011461161a57505061131492500383611221565b9093915060046000527f8a35acfbc15ff81a39ae7d344fd709f28e8600b4aa8c65c6b64bfe7fe36bd19b936000915b81831061166157505061131493508201013880611306565b85548884018501529485019487945091830191611649565b91607f16916115ea565b60405190600060055490600182811c9080841693841561172d575b6020948584108114611395578388528794939291811561137557506001146116ce57505061131492500383611221565b9093915060056000527f036b6384b5eca791c62761152d0c79bb0604c104a5fb6f4eb0703f3154bb3db0936000915b81831061171557505061131493508201013880611306565b855488840185015294850194879450918301916116fd565b91607f169161169e565b60405190600060085490600182811c908084169384156117e1575b60209485841081146113955783885287949392918115611375575060011461178257505061131492500383611221565b9093915060086000527ff3f7a9fe364faab93b216da50a3214154f22a0a2b415b23a84c8169e8b636ee3936000915b8183106117c957505061131493508201013880611306565b855488840185015294850194879450918301916117b1565b91607f1691611752565b156117f257565b60405162461bcd60e51b815260206004820152601960248201527f4f6e6c792073656c6c65722063616e2063616c6c2074686973000000000000006044820152606490fd5b1561183e57565b60405162461bcd60e51b8152602060048201526011602482015270115cd8dc9bddc81b9bdd08199d5b991959607a1b6044820152606490fd5b1561187e57565b60405162461bcd60e51b815260206004820152601860248201527f4f6e6c792062757965722063616e2063616c6c207468697300000000000000006044820152606490fd5b156118ca57565b60405162461bcd60e51b8152602060048201526013602482015272457363726f77207374696c6c2061637469766560681b6044820152606490fd5b1561190c57565b60405162461bcd60e51b8152602060048201526015602482015274125d195b48185b1c9958591e481c9958d95a5d9959605a1b6044820152606490fd5b3d15611974573d9061195a82611243565b916119686040519384611221565b82523d6000602084013e565b606090565b1561198057565b60405162461bcd60e51b815260206004820152600f60248201526e151c985b9cd9995c8819985a5b1959608a1b6044820152606490fd5b6012548060011b908082046002149015171561090457606490049056fea264697066735822122048c25ca5109fd4d99faa6b7bb30ace1bc2d9bb2179b03799484d3210b87ddf0364736f6c63430008140033405787fa12a823e0f2b7631cc41b3ba8828b3321ca811111fa75cd3aa3bb5acea66cc928b5edb82af9bd49922954155ab7b0942694bea4ce44661d9a8736c688f3f7a9fe364faab93b216da50a3214154f22a0a2b415b23a84c8169e8b636ee31b6847dc741a1b0cd08d278845f9d819d87b734759afb55fe2de5cb82a9ae6728d1108e10bcb7c27dddfc02ed9d693a074039d026cf4ea4240b40f7d581ac802","opcodes":"PUSH1 0x80 PUSH1 0x40 MSTORE CALLVALUE PUSH3 0xDC4 JUMPI PUSH3 0x29A7 DUP1 CODESIZE SUB SWAP1 DUP2 PUSH3 0x1E DUP2 PUSH3 0xE04 JUMP JUMPDEST SWAP2 DUP3 CODECOPY PUSH2 0x180 DUP2 DUP4 DUP2 ADD SUB SLT PUSH3 0xDC4 JUMPI DUP1 MLOAD PUSH1 0x1 PUSH1 0x1 PUSH1 0x40 SHL SUB DUP2 GT PUSH3 0xDC4 JUMPI PUSH3 0x51 SWAP1 DUP4 DUP4 ADD SWAP1 DUP4 ADD PUSH3 0xE4F JUMP JUMPDEST PUSH1 0x20 DUP3 ADD MLOAD SWAP1 SWAP2 SWAP1 PUSH1 0x1 PUSH1 0x1 PUSH1 0x40 SHL SUB DUP2 GT PUSH3 0xDC4 JUMPI PUSH3 0x79 SWAP1 DUP5 DUP4 ADD SWAP1 DUP4 ADD PUSH3 0xE4F JUMP JUMPDEST PUSH1 0x40 DUP3 ADD MLOAD SWAP2 PUSH1 0x60 DUP2 ADD MLOAD SWAP2 PUSH1 0x80 DUP3 ADD MLOAD PUSH1 0x1 DUP1 PUSH1 0x40 SHL SUB DUP2 GT PUSH3 0xDC4 JUMPI PUSH3 0xA9 SWAP1 DUP8 DUP5 ADD SWAP1 DUP5 ADD PUSH3 0xE4F JUMP JUMPDEST PUSH1 0xA0 DUP4 ADD MLOAD SWAP1 SWAP3 SWAP1 PUSH1 0x1 PUSH1 0x1 PUSH1 0x40 SHL SUB DUP2 GT PUSH3 0xDC4 JUMPI PUSH3 0xD1 SWAP1 DUP9 DUP4 ADD SWAP1 DUP4 ADD PUSH3 0xE4F JUMP JUMPDEST PUSH1 0xC0 DUP3 ADD MLOAD SWAP1 SWAP8 SWAP1 PUSH1 0x1 PUSH1 0x1 PUSH1 0x40 SHL SUB DUP2 GT PUSH3 0xDC4 JUMPI PUSH3 0xF9 SWAP1 DUP3 DUP5 ADD SWAP1 DUP5 ADD PUSH3 0xE4F JUMP JUMPDEST PUSH1 0xE0 DUP4 ADD MLOAD PUSH1 0x1 PUSH1 0x1 PUSH1 0x40 SHL SUB DUP2 GT PUSH3 0xDC4 JUMPI PUSH3 0x11E SWAP1 DUP4 DUP6 ADD SWAP1 DUP6 ADD PUSH3 0xE4F JUMP JUMPDEST PUSH2 0x100 DUP5 ADD MLOAD PUSH2 0x120 DUP6 ADD MLOAD SWAP4 SWAP1 SWAP3 SWAP1 PUSH1 0x1 PUSH1 0x1 PUSH1 0x40 SHL SUB DUP6 GT PUSH3 0xDC4 JUMPI DUP1 DUP7 ADD PUSH1 0x1F DUP7 DUP9 ADD ADD SLT ISZERO PUSH3 0xDC4 JUMPI DUP6 DUP6 ADD MLOAD SWAP5 PUSH1 0x1 PUSH1 0x1 PUSH1 0x40 SHL SUB DUP7 GT PUSH3 0x6D7 JUMPI DUP6 PUSH1 0x5 SHL SWAP1 PUSH1 0x20 PUSH3 0x175 DUP2 DUP5 ADD PUSH3 0xE04 JUMP JUMPDEST DUP1 SWAP9 DUP2 MSTORE ADD SWAP1 DUP4 DUP10 ADD PUSH1 0x20 DUP5 DUP4 DUP13 ADD ADD ADD GT PUSH3 0xDC4 JUMPI PUSH1 0x20 DUP2 DUP11 ADD ADD SWAP2 JUMPDEST PUSH1 0x20 DUP5 DUP4 DUP13 ADD ADD ADD DUP4 LT PUSH3 0xDC9 JUMPI POP POP POP POP PUSH2 0x140 DUP7 ADD MLOAD SWAP1 PUSH1 0x1 PUSH1 0x1 PUSH1 0x40 SHL SUB DUP3 GT PUSH3 0xDC4 JUMPI PUSH2 0x160 SWAP2 PUSH3 0x1D1 SWAP2 DUP9 ADD SWAP1 DUP9 ADD PUSH3 0xE4F JUMP JUMPDEST SWAP6 ADD MLOAD SWAP6 DUP7 ISZERO ISZERO DUP8 SUB PUSH3 0xDC4 JUMPI PUSH1 0x1 PUSH1 0xD SSTORE PUSH1 0xE DUP1 SLOAD PUSH1 0x1 PUSH1 0x1 PUSH1 0xA8 SHL SUB NOT AND CALLER PUSH1 0x8 SHL PUSH2 0x100 PUSH1 0x1 PUSH1 0xA8 SHL SUB AND OR SWAP1 SSTORE DUP11 MLOAD PUSH1 0x1 PUSH1 0x1 PUSH1 0x40 SHL SUB DUP2 GT PUSH3 0x6D7 JUMPI PUSH3 0x221 PUSH1 0xF SLOAD PUSH3 0xEA6 JUMP JUMPDEST PUSH1 0x1F DUP2 GT PUSH3 0xD82 JUMPI JUMPDEST POP DUP1 PUSH1 0x20 PUSH1 0x1F DUP3 GT PUSH1 0x1 EQ PUSH3 0xD07 JUMPI PUSH1 0x0 SWAP2 PUSH3 0xCFB JUMPI JUMPDEST POP DUP2 PUSH1 0x1 SHL SWAP2 PUSH1 0x0 NOT SWAP1 PUSH1 0x3 SHL SHR NOT AND OR PUSH1 0xF SSTORE JUMPDEST DUP1 MLOAD SWAP1 PUSH1 0x1 PUSH1 0x1 PUSH1 0x40 SHL SUB DUP3 GT PUSH3 0x6D7 JUMPI DUP2 SWAP1 PUSH3 0x27A PUSH1 0x10 SLOAD PUSH3 0xEA6 JUMP JUMPDEST PUSH1 0x1F DUP2 GT PUSH3 0xCB9 JUMPI JUMPDEST POP PUSH1 0x20 SWAP1 PUSH1 0x1F DUP4 GT PUSH1 0x1 EQ PUSH3 0xC3B JUMPI PUSH1 0x0 SWAP3 PUSH3 0xC2F JUMPI JUMPDEST POP POP DUP2 PUSH1 0x1 SHL SWAP2 PUSH1 0x0 NOT SWAP1 PUSH1 0x3 SHL SHR NOT AND OR PUSH1 0x10 SSTORE JUMPDEST DUP9 PUSH1 0x11 SSTORE DUP9 PUSH1 0x12 SSTORE DUP8 TIMESTAMP ADD DUP1 TIMESTAMP GT PUSH3 0xC19 JUMPI PUSH1 0x13 SSTORE PUSH1 0x14 DUP1 SLOAD PUSH1 0xFF PUSH1 0xA0 SHL NOT AND SWAP1 SSTORE PUSH1 0x40 MLOAD SWAP11 PUSH1 0x1 PUSH1 0x1 PUSH1 0x40 SHL SUB PUSH2 0x100 DUP14 ADD SWAP1 DUP2 GT SWAP1 DUP14 GT OR PUSH3 0x6D7 JUMPI PUSH2 0x100 DUP13 ADD PUSH1 0x40 MSTORE DUP8 DUP13 MSTORE PUSH1 0x20 DUP13 ADD MSTORE PUSH1 0x40 DUP12 ADD MSTORE PUSH1 0x60 DUP11 ADD MSTORE PUSH1 0x80 DUP10 ADD MSTORE PUSH1 0xA0 DUP9 ADD MSTORE PUSH1 0xC0 DUP8 ADD MSTORE ISZERO ISZERO PUSH1 0xE0 DUP7 ADD MSTORE DUP1 MLOAD SWAP1 PUSH1 0x1 DUP1 PUSH1 0x40 SHL SUB DUP3 GT PUSH3 0x6D7 JUMPI DUP2 SWAP1 PUSH3 0x343 PUSH1 0x2 SLOAD PUSH3 0xEA6 JUMP JUMPDEST PUSH1 0x1F DUP2 GT PUSH3 0xBD7 JUMPI JUMPDEST POP PUSH1 0x20 SWAP1 PUSH1 0x1F DUP4 GT PUSH1 0x1 EQ PUSH3 0xB59 JUMPI PUSH1 0x0 SWAP3 PUSH3 0xB4D JUMPI JUMPDEST POP POP DUP2 PUSH1 0x1 SHL SWAP2 PUSH1 0x0 NOT SWAP1 PUSH1 0x3 SHL SHR NOT AND OR PUSH1 0x2 SSTORE JUMPDEST PUSH1 0x20 DUP5 ADD MLOAD DUP1 MLOAD SWAP1 PUSH1 0x1 PUSH1 0x1 PUSH1 0x40 SHL SUB DUP3 GT PUSH3 0x6D7 JUMPI DUP2 SWAP1 PUSH3 0x3A2 PUSH1 0x3 SLOAD PUSH3 0xEA6 JUMP JUMPDEST PUSH1 0x1F DUP2 GT PUSH3 0xAFA JUMPI JUMPDEST POP PUSH1 0x20 SWAP1 PUSH1 0x1F DUP4 GT PUSH1 0x1 EQ PUSH3 0xA6B JUMPI PUSH1 0x0 SWAP3 PUSH3 0xA5F JUMPI JUMPDEST POP POP DUP2 PUSH1 0x1 SHL SWAP2 PUSH1 0x0 NOT SWAP1 PUSH1 0x3 SHL SHR NOT AND OR PUSH1 0x3 SSTORE JUMPDEST PUSH1 0x40 DUP5 ADD MLOAD DUP1 MLOAD SWAP1 PUSH1 0x1 PUSH1 0x1 PUSH1 0x40 SHL SUB DUP3 GT PUSH3 0x6D7 JUMPI DUP2 SWAP1 PUSH3 0x401 PUSH1 0x4 SLOAD PUSH3 0xEA6 JUMP JUMPDEST PUSH1 0x1F DUP2 GT PUSH3 0xA0C JUMPI JUMPDEST POP PUSH1 0x20 SWAP1 PUSH1 0x1F DUP4 GT PUSH1 0x1 EQ PUSH3 0x97D JUMPI PUSH1 0x0 SWAP3 PUSH3 0x971 JUMPI JUMPDEST POP POP DUP2 PUSH1 0x1 SHL SWAP2 PUSH1 0x0 NOT SWAP1 PUSH1 0x3 SHL SHR NOT AND OR PUSH1 0x4 SSTORE JUMPDEST PUSH1 0x60 DUP5 ADD MLOAD DUP1 MLOAD SWAP1 PUSH1 0x1 PUSH1 0x1 PUSH1 0x40 SHL SUB DUP3 GT PUSH3 0x6D7 JUMPI DUP2 SWAP1 PUSH3 0x460 PUSH1 0x5 SLOAD PUSH3 0xEA6 JUMP JUMPDEST PUSH1 0x1F DUP2 GT PUSH3 0x93A JUMPI JUMPDEST POP PUSH1 0x20 SWAP1 PUSH1 0x1F DUP4 GT PUSH1 0x1 EQ PUSH3 0x8AB JUMPI PUSH1 0x0 SWAP3 PUSH3 0x89F JUMPI JUMPDEST POP POP DUP2 PUSH1 0x1 SHL SWAP2 PUSH1 0x0 NOT SWAP1 PUSH1 0x3 SHL SHR NOT AND OR PUSH1 0x5 SSTORE JUMPDEST PUSH1 0x80 DUP5 ADD MLOAD PUSH1 0x6 SSTORE PUSH1 0xA0 DUP5 ADD MLOAD DUP1 MLOAD SWAP1 PUSH9 0x10000000000000000 DUP3 GT PUSH3 0x6D7 JUMPI PUSH1 0x7 SLOAD DUP3 PUSH1 0x7 SSTORE DUP1 DUP4 LT PUSH3 0x813 JUMPI JUMPDEST POP PUSH1 0x7 PUSH1 0x0 SWAP1 DUP2 MSTORE PUSH1 0x0 DUP1 MLOAD PUSH1 0x20 PUSH3 0x2927 DUP4 CODECOPY DUP2 MLOAD SWAP2 MSTORE SWAP3 SWAP2 PUSH1 0x20 ADD JUMPDEST DUP3 DUP3 LT PUSH3 0x6ED JUMPI POP POP POP POP PUSH1 0xC0 DUP5 ADD MLOAD DUP1 MLOAD SWAP1 PUSH1 0x1 PUSH1 0x1 PUSH1 0x40 SHL SUB DUP3 GT PUSH3 0x6D7 JUMPI PUSH3 0x518 PUSH1 0x8 SLOAD PUSH3 0xEA6 JUMP JUMPDEST PUSH1 0x1F DUP2 GT PUSH3 0x689 JUMPI JUMPDEST POP PUSH1 0x20 SWAP1 PUSH1 0x1F DUP4 GT PUSH1 0x1 EQ PUSH3 0x5E9 JUMPI SWAP2 DUP1 PUSH32 0xA3D19677A52B6DFF051E5813011905526090505E00FCEA83C604776AD5EBFD68 SWAP7 SWAP8 SWAP3 PUSH1 0xE0 SWAP5 PUSH1 0x0 SWAP3 PUSH3 0x5DD JUMPI JUMPDEST POP POP DUP2 PUSH1 0x1 SHL SWAP2 PUSH1 0x0 NOT SWAP1 PUSH1 0x3 SHL SHR NOT AND OR PUSH1 0x8 SSTORE JUMPDEST ADD MLOAD ISZERO ISZERO PUSH1 0xFF DUP1 NOT PUSH1 0x9 SLOAD AND SWAP2 AND OR PUSH1 0x9 SSTORE PUSH1 0x40 MLOAD SWAP2 DUP3 MSTORE PUSH1 0x20 DUP3 ADD MSTORE PUSH1 0x60 PUSH1 0x40 DUP3 ADD MSTORE PUSH3 0x5BA DUP4 MLOAD DUP1 SWAP5 DUP2 PUSH1 0x60 DUP6 ADD MSTORE PUSH1 0x20 PUSH1 0x80 DUP6 ADD SWAP2 ADD PUSH3 0xE2A JUMP JUMPDEST CALLER SWAP3 PUSH1 0x1F ADD PUSH1 0x1F NOT AND DUP2 ADD DUP2 SWAP1 SUB PUSH1 0x80 ADD SWAP1 LOG2 PUSH1 0x40 MLOAD PUSH2 0x1A0A SWAP1 DUP2 PUSH3 0xEFD DUP3 CODECOPY RETURN JUMPDEST ADD MLOAD SWAP1 POP CODESIZE DUP1 PUSH3 0x564 JUMP JUMPDEST PUSH1 0x8 PUSH1 0x0 SWAP1 DUP2 MSTORE PUSH1 0x0 DUP1 MLOAD PUSH1 0x20 PUSH3 0x2947 DUP4 CODECOPY DUP2 MLOAD SWAP2 MSTORE SWAP3 SWAP2 SWAP1 PUSH1 0x1F NOT DUP6 AND SWAP1 JUMPDEST DUP2 DUP2 LT PUSH3 0x670 JUMPI POP SWAP3 PUSH1 0x1 SWAP3 DUP6 SWAP3 PUSH1 0xE0 SWAP7 PUSH32 0xA3D19677A52B6DFF051E5813011905526090505E00FCEA83C604776AD5EBFD68 SWAP11 SWAP12 SWAP7 LT PUSH3 0x656 JUMPI JUMPDEST POP POP POP DUP2 SHL ADD PUSH1 0x8 SSTORE PUSH3 0x57A JUMP JUMPDEST ADD MLOAD PUSH1 0x0 NOT PUSH1 0xF8 DUP5 PUSH1 0x3 SHL AND SHR NOT AND SWAP1 SSTORE CODESIZE DUP1 DUP1 PUSH3 0x647 JUMP JUMPDEST SWAP3 SWAP4 PUSH1 0x20 PUSH1 0x1 DUP2 SWAP3 DUP8 DUP7 ADD MLOAD DUP2 SSTORE ADD SWAP6 ADD SWAP4 ADD PUSH3 0x60A JUMP JUMPDEST PUSH1 0x8 PUSH1 0x0 MSTORE PUSH3 0x6C5 SWAP1 PUSH1 0x0 DUP1 MLOAD PUSH1 0x20 PUSH3 0x2947 DUP4 CODECOPY DUP2 MLOAD SWAP2 MSTORE PUSH1 0x1F DUP6 ADD PUSH1 0x5 SHR DUP2 ADD SWAP2 PUSH1 0x20 DUP7 LT PUSH3 0x6CC JUMPI JUMPDEST PUSH1 0x1F ADD PUSH1 0x5 SHR ADD SWAP1 PUSH3 0xEE3 JUMP JUMPDEST CODESIZE PUSH3 0x522 JUMP JUMPDEST SWAP1 SWAP2 POP DUP2 SWAP1 PUSH3 0x6B7 JUMP JUMPDEST PUSH4 0x4E487B71 PUSH1 0xE0 SHL PUSH1 0x0 MSTORE PUSH1 0x41 PUSH1 0x4 MSTORE PUSH1 0x24 PUSH1 0x0 REVERT JUMPDEST DUP1 MLOAD DUP1 MLOAD SWAP1 PUSH1 0x1 PUSH1 0x1 PUSH1 0x40 SHL SUB DUP3 GT PUSH3 0x6D7 JUMPI PUSH3 0x70D DUP7 SLOAD PUSH3 0xEA6 JUMP JUMPDEST PUSH1 0x1F DUP2 GT PUSH3 0x7DD JUMPI JUMPDEST POP PUSH1 0x20 SWAP1 PUSH1 0x1F DUP4 GT PUSH1 0x1 EQ PUSH3 0x768 JUMPI SWAP3 DUP3 PUSH1 0x1 SWAP5 SWAP4 PUSH1 0x20 SWAP4 DUP7 SWAP6 PUSH1 0x0 SWAP3 PUSH3 0x75C JUMPI JUMPDEST POP POP PUSH1 0x0 NOT PUSH1 0x3 DUP4 SWAP1 SHL SHR NOT AND SWAP1 DUP5 SHL OR DUP8 SSTORE JUMPDEST ADD SWAP5 ADD SWAP2 ADD SWAP1 SWAP3 PUSH3 0x4E8 JUMP JUMPDEST ADD MLOAD SWAP1 POP CODESIZE DUP1 PUSH3 0x73B JUMP JUMPDEST SWAP1 DUP7 PUSH1 0x0 MSTORE PUSH1 0x20 PUSH1 0x0 KECCAK256 SWAP2 PUSH1 0x0 JUMPDEST PUSH1 0x1F NOT DUP6 AND DUP2 LT PUSH3 0x7C4 JUMPI POP DUP4 PUSH1 0x20 SWAP4 PUSH1 0x1 SWAP7 SWAP4 DUP8 SWAP7 SWAP4 DUP8 SWAP5 PUSH1 0x1F NOT DUP2 AND LT PUSH3 0x7AA JUMPI JUMPDEST POP POP POP DUP2 SHL ADD DUP8 SSTORE PUSH3 0x74F JUMP JUMPDEST ADD MLOAD PUSH1 0x0 NOT PUSH1 0xF8 DUP5 PUSH1 0x3 SHL AND SHR NOT AND SWAP1 SSTORE CODESIZE DUP1 DUP1 PUSH3 0x79C JUMP JUMPDEST SWAP2 SWAP3 PUSH1 0x20 PUSH1 0x1 DUP2 SWAP3 DUP7 DUP6 ADD MLOAD DUP2 SSTORE ADD SWAP5 ADD SWAP3 ADD PUSH3 0x776 JUMP JUMPDEST PUSH3 0x80C SWAP1 DUP8 PUSH1 0x0 MSTORE PUSH1 0x20 PUSH1 0x0 KECCAK256 PUSH1 0x1F DUP6 ADD PUSH1 0x5 SHR DUP2 ADD SWAP2 PUSH1 0x20 DUP7 LT PUSH3 0x6CC JUMPI PUSH1 0x1F ADD PUSH1 0x5 SHR ADD SWAP1 PUSH3 0xEE3 JUMP JUMPDEST CODESIZE PUSH3 0x717 JUMP JUMPDEST PUSH1 0x7 PUSH1 0x0 MSTORE PUSH1 0x0 DUP1 MLOAD PUSH1 0x20 PUSH3 0x2927 DUP4 CODECOPY DUP2 MLOAD SWAP2 MSTORE SWAP1 DUP4 DUP3 ADD JUMPDEST DUP2 DUP4 ADD DUP2 LT PUSH3 0x83F JUMPI POP POP PUSH3 0x4CA JUMP JUMPDEST DUP1 PUSH3 0x84E PUSH1 0x1 SWAP3 SLOAD PUSH3 0xEA6 JUMP JUMPDEST DUP1 PUSH3 0x85D JUMPI JUMPDEST POP ADD PUSH3 0x82D JUMP JUMPDEST PUSH1 0x1F DUP2 GT DUP4 EQ PUSH3 0x875 JUMPI POP PUSH1 0x0 DUP2 SSTORE JUMPDEST CODESIZE PUSH3 0x855 JUMP JUMPDEST PUSH1 0x0 SWAP1 DUP3 DUP3 MSTORE PUSH3 0x895 PUSH1 0x1F PUSH1 0x20 DUP5 KECCAK256 SWAP3 ADD PUSH1 0x5 SHR DUP3 ADD DUP6 DUP4 ADD PUSH3 0xEE3 JUMP JUMPDEST DUP2 DUP4 SSTORE SSTORE PUSH3 0x86E JUMP JUMPDEST ADD MLOAD SWAP1 POP CODESIZE DUP1 PUSH3 0x483 JUMP JUMPDEST PUSH1 0x5 PUSH1 0x0 SWAP1 DUP2 MSTORE SWAP4 POP PUSH32 0x36B6384B5ECA791C62761152D0C79BB0604C104A5FB6F4EB0703F3154BB3DB0 SWAP2 SWAP1 JUMPDEST PUSH1 0x1F NOT DUP5 AND DUP6 LT PUSH3 0x91E JUMPI PUSH1 0x1 SWAP5 POP DUP4 PUSH1 0x1F NOT DUP2 AND LT PUSH3 0x904 JUMPI JUMPDEST POP POP POP DUP2 SHL ADD PUSH1 0x5 SSTORE PUSH3 0x499 JUMP JUMPDEST ADD MLOAD PUSH1 0x0 NOT PUSH1 0xF8 DUP5 PUSH1 0x3 SHL AND SHR NOT AND SWAP1 SSTORE CODESIZE DUP1 DUP1 PUSH3 0x8F5 JUMP JUMPDEST DUP2 DUP2 ADD MLOAD DUP4 SSTORE PUSH1 0x20 SWAP5 DUP6 ADD SWAP5 PUSH1 0x1 SWAP1 SWAP4 ADD SWAP3 SWAP1 SWAP2 ADD SWAP1 PUSH3 0x8D8 JUMP JUMPDEST PUSH3 0x96A SWAP1 PUSH1 0x5 PUSH1 0x0 MSTORE PUSH1 0x20 PUSH1 0x0 KECCAK256 PUSH1 0x1F DUP6 ADD PUSH1 0x5 SHR DUP2 ADD SWAP2 PUSH1 0x20 DUP7 LT PUSH3 0x6CC JUMPI PUSH1 0x1F ADD PUSH1 0x5 SHR ADD SWAP1 PUSH3 0xEE3 JUMP JUMPDEST CODESIZE PUSH3 0x46A JUMP JUMPDEST ADD MLOAD SWAP1 POP CODESIZE DUP1 PUSH3 0x424 JUMP JUMPDEST PUSH1 0x4 PUSH1 0x0 SWAP1 DUP2 MSTORE SWAP4 POP PUSH32 0x8A35ACFBC15FF81A39AE7D344FD709F28E8600B4AA8C65C6B64BFE7FE36BD19B SWAP2 SWAP1 JUMPDEST PUSH1 0x1F NOT DUP5 AND DUP6 LT PUSH3 0x9F0 JUMPI PUSH1 0x1 SWAP5 POP DUP4 PUSH1 0x1F NOT DUP2 AND LT PUSH3 0x9D6 JUMPI JUMPDEST POP POP POP DUP2 SHL ADD PUSH1 0x4 SSTORE PUSH3 0x43A JUMP JUMPDEST ADD MLOAD PUSH1 0x0 NOT PUSH1 0xF8 DUP5 PUSH1 0x3 SHL AND SHR NOT AND SWAP1 SSTORE CODESIZE DUP1 DUP1 PUSH3 0x9C7 JUMP JUMPDEST DUP2 DUP2 ADD MLOAD DUP4 SSTORE PUSH1 0x20 SWAP5 DUP6 ADD SWAP5 PUSH1 0x1 SWAP1 SWAP4 ADD SWAP3 SWAP1 SWAP2 ADD SWAP1 PUSH3 0x9AA JUMP JUMPDEST PUSH1 0x4 PUSH1 0x0 MSTORE PUSH3 0xA58 SWAP1 PUSH32 0x8A35ACFBC15FF81A39AE7D344FD709F28E8600B4AA8C65C6B64BFE7FE36BD19B PUSH1 0x1F DUP6 ADD PUSH1 0x5 SHR DUP2 ADD SWAP2 PUSH1 0x20 DUP7 LT PUSH3 0x6CC JUMPI PUSH1 0x1F ADD PUSH1 0x5 SHR ADD SWAP1 PUSH3 0xEE3 JUMP JUMPDEST CODESIZE PUSH3 0x40B JUMP JUMPDEST ADD MLOAD SWAP1 POP CODESIZE DUP1 PUSH3 0x3C5 JUMP JUMPDEST PUSH1 0x3 PUSH1 0x0 SWAP1 DUP2 MSTORE SWAP4 POP PUSH32 0xC2575A0E9E593C00F959F8C92F12DB2869C3395A3B0502D05E2516446F71F85B SWAP2 SWAP1 JUMPDEST PUSH1 0x1F NOT DUP5 AND DUP6 LT PUSH3 0xADE JUMPI PUSH1 0x1 SWAP5 POP DUP4 PUSH1 0x1F NOT DUP2 AND LT PUSH3 0xAC4 JUMPI JUMPDEST POP POP POP DUP2 SHL ADD PUSH1 0x3 SSTORE PUSH3 0x3DB JUMP JUMPDEST ADD MLOAD PUSH1 0x0 NOT PUSH1 0xF8 DUP5 PUSH1 0x3 SHL AND SHR NOT AND SWAP1 SSTORE CODESIZE DUP1 DUP1 PUSH3 0xAB5 JUMP JUMPDEST DUP2 DUP2 ADD MLOAD DUP4 SSTORE PUSH1 0x20 SWAP5 DUP6 ADD SWAP5 PUSH1 0x1 SWAP1 SWAP4 ADD SWAP3 SWAP1 SWAP2 ADD SWAP1 PUSH3 0xA98 JUMP JUMPDEST PUSH1 0x3 PUSH1 0x0 MSTORE PUSH3 0xB46 SWAP1 PUSH32 0xC2575A0E9E593C00F959F8C92F12DB2869C3395A3B0502D05E2516446F71F85B PUSH1 0x1F DUP6 ADD PUSH1 0x5 SHR DUP2 ADD SWAP2 PUSH1 0x20 DUP7 LT PUSH3 0x6CC JUMPI PUSH1 0x1F ADD PUSH1 0x5 SHR ADD SWAP1 PUSH3 0xEE3 JUMP JUMPDEST CODESIZE PUSH3 0x3AC JUMP JUMPDEST ADD MLOAD SWAP1 POP CODESIZE DUP1 PUSH3 0x366 JUMP JUMPDEST PUSH1 0x2 PUSH1 0x0 SWAP1 DUP2 MSTORE SWAP4 POP PUSH1 0x0 DUP1 MLOAD PUSH1 0x20 PUSH3 0x2907 DUP4 CODECOPY DUP2 MLOAD SWAP2 MSTORE SWAP2 SWAP1 JUMPDEST PUSH1 0x1F NOT DUP5 AND DUP6 LT PUSH3 0xBBB JUMPI PUSH1 0x1 SWAP5 POP DUP4 PUSH1 0x1F NOT DUP2 AND LT PUSH3 0xBA1 JUMPI JUMPDEST POP POP POP DUP2 SHL ADD PUSH1 0x2 SSTORE PUSH3 0x37C JUMP JUMPDEST ADD MLOAD PUSH1 0x0 NOT PUSH1 0xF8 DUP5 PUSH1 0x3 SHL AND SHR NOT AND SWAP1 SSTORE CODESIZE DUP1 DUP1 PUSH3 0xB92 JUMP JUMPDEST DUP2 DUP2 ADD MLOAD DUP4 SSTORE PUSH1 0x20 SWAP5 DUP6 ADD SWAP5 PUSH1 0x1 SWAP1 SWAP4 ADD SWAP3 SWAP1 SWAP2 ADD SWAP1 PUSH3 0xB75 JUMP JUMPDEST PUSH1 0x2 PUSH1 0x0 MSTORE PUSH3 0xC12 SWAP1 PUSH1 0x0 DUP1 MLOAD PUSH1 0x20 PUSH3 0x2907 DUP4 CODECOPY DUP2 MLOAD SWAP2 MSTORE PUSH1 0x1F DUP6 ADD PUSH1 0x5 SHR DUP2 ADD SWAP2 PUSH1 0x20 DUP7 LT PUSH3 0x6CC JUMPI PUSH1 0x1F ADD PUSH1 0x5 SHR ADD SWAP1 PUSH3 0xEE3 JUMP JUMPDEST CODESIZE PUSH3 0x34D JUMP JUMPDEST PUSH4 0x4E487B71 PUSH1 0xE0 SHL PUSH1 0x0 MSTORE PUSH1 0x11 PUSH1 0x4 MSTORE PUSH1 0x24 PUSH1 0x0 REVERT JUMPDEST ADD MLOAD SWAP1 POP CODESIZE DUP1 PUSH3 0x29D JUMP JUMPDEST PUSH1 0x10 PUSH1 0x0 SWAP1 DUP2 MSTORE SWAP4 POP PUSH1 0x0 DUP1 MLOAD PUSH1 0x20 PUSH3 0x2967 DUP4 CODECOPY DUP2 MLOAD SWAP2 MSTORE SWAP2 SWAP1 JUMPDEST PUSH1 0x1F NOT DUP5 AND DUP6 LT PUSH3 0xC9D JUMPI PUSH1 0x1 SWAP5 POP DUP4 PUSH1 0x1F NOT DUP2 AND LT PUSH3 0xC83 JUMPI JUMPDEST POP POP POP DUP2 SHL ADD PUSH1 0x10 SSTORE PUSH3 0x2B3 JUMP JUMPDEST ADD MLOAD PUSH1 0x0 NOT PUSH1 0xF8 DUP5 PUSH1 0x3 SHL AND SHR NOT AND SWAP1 SSTORE CODESIZE DUP1 DUP1 PUSH3 0xC74 JUMP JUMPDEST DUP2 DUP2 ADD MLOAD DUP4 SSTORE PUSH1 0x20 SWAP5 DUP6 ADD SWAP5 PUSH1 0x1 SWAP1 SWAP4 ADD SWAP3 SWAP1 SWAP2 ADD SWAP1 PUSH3 0xC57 JUMP JUMPDEST PUSH1 0x10 PUSH1 0x0 MSTORE PUSH3 0xCF4 SWAP1 PUSH1 0x0 DUP1 MLOAD PUSH1 0x20 PUSH3 0x2967 DUP4 CODECOPY DUP2 MLOAD SWAP2 MSTORE PUSH1 0x1F DUP6 ADD PUSH1 0x5 SHR DUP2 ADD SWAP2 PUSH1 0x20 DUP7 LT PUSH3 0x6CC JUMPI PUSH1 0x1F ADD PUSH1 0x5 SHR ADD SWAP1 PUSH3 0xEE3 JUMP JUMPDEST CODESIZE PUSH3 0x284 JUMP JUMPDEST SWAP1 POP DUP13 ADD MLOAD CODESIZE PUSH3 0x244 JUMP JUMPDEST PUSH1 0xF PUSH1 0x0 SWAP1 DUP2 MSTORE SWAP3 POP PUSH1 0x0 DUP1 MLOAD PUSH1 0x20 PUSH3 0x2987 DUP4 CODECOPY DUP2 MLOAD SWAP2 MSTORE SWAP1 DUP15 JUMPDEST PUSH1 0x1F NOT DUP5 AND DUP6 LT PUSH3 0xD69 JUMPI PUSH1 0x1 SWAP5 POP DUP4 PUSH1 0x1F NOT DUP2 AND LT PUSH3 0xD4F JUMPI JUMPDEST POP POP POP DUP2 SHL ADD PUSH1 0xF SSTORE PUSH3 0x259 JUMP JUMPDEST ADD MLOAD PUSH1 0x0 NOT PUSH1 0xF8 DUP5 PUSH1 0x3 SHL AND SHR NOT AND SWAP1 SSTORE CODESIZE DUP1 DUP15 PUSH3 0xD40 JUMP JUMPDEST DUP2 ADD MLOAD DUP3 SSTORE PUSH1 0x20 SWAP4 DUP5 ADD SWAP4 PUSH1 0x1 SWAP1 SWAP3 ADD SWAP2 ADD DUP15 PUSH3 0xD23 JUMP JUMPDEST PUSH1 0xF PUSH1 0x0 MSTORE PUSH3 0xDBD SWAP1 PUSH1 0x0 DUP1 MLOAD PUSH1 0x20 PUSH3 0x2987 DUP4 CODECOPY DUP2 MLOAD SWAP2 MSTORE PUSH1 0x1F DUP5 ADD PUSH1 0x5 SHR DUP2 ADD SWAP2 PUSH1 0x20 DUP6 LT PUSH3 0x6CC JUMPI PUSH1 0x1F ADD PUSH1 0x5 SHR ADD SWAP1 PUSH3 0xEE3 JUMP JUMPDEST CODESIZE PUSH3 0x22B JUMP JUMPDEST PUSH1 0x0 DUP1 REVERT JUMPDEST DUP3 MLOAD SWAP1 PUSH1 0x1 PUSH1 0x1 PUSH1 0x40 SHL SUB DUP3 GT PUSH3 0xDC4 JUMPI PUSH1 0x20 DUP1 SWAP3 SWAP2 PUSH3 0xDF6 DUP14 DUP4 DUP1 SWAP6 DUP9 DUP13 DUP5 ADD SWAP4 ADD ADD ADD PUSH3 0xE4F JUMP JUMPDEST DUP2 MSTORE ADD SWAP4 ADD SWAP3 SWAP1 POP PUSH3 0x194 JUMP JUMPDEST PUSH1 0x40 MLOAD SWAP2 SWAP1 PUSH1 0x1F ADD PUSH1 0x1F NOT AND DUP3 ADD PUSH1 0x1 PUSH1 0x1 PUSH1 0x40 SHL SUB DUP2 GT DUP4 DUP3 LT OR PUSH3 0x6D7 JUMPI PUSH1 0x40 MSTORE JUMP JUMPDEST PUSH1 0x0 JUMPDEST DUP4 DUP2 LT PUSH3 0xE3E JUMPI POP POP PUSH1 0x0 SWAP2 ADD MSTORE JUMP JUMPDEST DUP2 DUP2 ADD MLOAD DUP4 DUP3 ADD MSTORE PUSH1 0x20 ADD PUSH3 0xE2D JUMP JUMPDEST DUP2 PUSH1 0x1F DUP3 ADD SLT ISZERO PUSH3 0xDC4 JUMPI DUP1 MLOAD PUSH1 0x1 PUSH1 0x1 PUSH1 0x40 SHL SUB DUP2 GT PUSH3 0x6D7 JUMPI PUSH3 0xE81 PUSH1 0x1F DUP3 ADD PUSH1 0x1F NOT AND PUSH1 0x20 ADD PUSH3 0xE04 JUMP JUMPDEST SWAP3 DUP2 DUP5 MSTORE PUSH1 0x20 DUP3 DUP5 ADD ADD GT PUSH3 0xDC4 JUMPI PUSH3 0xEA3 SWAP2 PUSH1 0x20 DUP1 DUP6 ADD SWAP2 ADD PUSH3 0xE2A JUMP JUMPDEST SWAP1 JUMP JUMPDEST SWAP1 PUSH1 0x1 DUP3 DUP2 SHR SWAP3 AND DUP1 ISZERO PUSH3 0xED8 JUMPI JUMPDEST PUSH1 0x20 DUP4 LT EQ PUSH3 0xEC2 JUMPI JUMP JUMPDEST PUSH4 0x4E487B71 PUSH1 0xE0 SHL PUSH1 0x0 MSTORE PUSH1 0x22 PUSH1 0x4 MSTORE PUSH1 0x24 PUSH1 0x0 REVERT JUMPDEST SWAP2 PUSH1 0x7F AND SWAP2 PUSH3 0xEB6 JUMP JUMPDEST DUP2 DUP2 LT PUSH3 0xEEF JUMPI POP POP JUMP JUMPDEST PUSH1 0x0 DUP2 SSTORE PUSH1 0x1 ADD PUSH3 0xEE3 JUMP INVALID PUSH1 0x80 PUSH1 0x40 MSTORE PUSH1 0x4 CALLDATASIZE LT ISZERO PUSH2 0x12 JUMPI PUSH1 0x0 DUP1 REVERT JUMPDEST PUSH1 0x0 CALLDATALOAD PUSH1 0xE0 SHR DUP1 PUSH4 0x8551A53 EQ PUSH2 0x117B JUMPI DUP1 PUSH4 0x3197CBB6 EQ PUSH2 0x115D JUMPI DUP1 PUSH4 0x3A6DCEA2 EQ PUSH2 0xD39 JUMPI DUP1 PUSH4 0x4BD25C6F EQ PUSH2 0x638 JUMPI DUP1 PUSH4 0x562E4D38 EQ PUSH2 0xD16 JUMPI DUP1 PUSH4 0x56EEC68D EQ PUSH2 0xC12 JUMPI DUP1 PUSH4 0x5C975ABB EQ PUSH2 0xBEF JUMPI DUP1 PUSH4 0x5EC2C7BF EQ PUSH2 0xBEA JUMPI DUP1 PUSH4 0x725A3B4B EQ PUSH2 0xB5E JUMPI DUP1 PUSH4 0x7284E416 EQ PUSH2 0xB42 JUMPI DUP1 PUSH4 0x7B499FAA EQ PUSH2 0xB1C JUMPI DUP1 PUSH4 0x842A77D3 EQ PUSH2 0xAEE JUMPI DUP1 PUSH4 0x88E7E366 EQ PUSH2 0x9AA JUMPI DUP1 PUSH4 0x9D1B464A EQ PUSH2 0x98C JUMPI DUP1 PUSH4 0xA5D737AC EQ PUSH2 0x82C JUMPI DUP1 PUSH4 0xA5E845B4 EQ PUSH2 0x809 JUMPI DUP1 PUSH4 0xD6FBF202 EQ PUSH2 0x7EB JUMPI DUP1 PUSH4 0xD8461182 EQ PUSH2 0x6DA JUMPI DUP1 PUSH4 0xDFBF53AE EQ PUSH2 0x6B1 JUMPI DUP1 PUSH4 0xE11E1B0C EQ PUSH2 0x693 JUMPI DUP1 PUSH4 0xE2FDCC17 EQ PUSH2 0x63D JUMPI DUP1 PUSH4 0xEB91D37E EQ PUSH2 0x638 JUMPI DUP1 PUSH4 0xECFC7ECC EQ PUSH2 0x427 JUMPI DUP1 PUSH4 0xF2A4A82E EQ PUSH2 0x375 JUMPI DUP1 PUSH4 0xF3CCAAC0 EQ PUSH2 0x341 JUMPI DUP1 PUSH4 0xFA391C64 EQ PUSH2 0x31B JUMPI PUSH4 0xFE67A54B EQ PUSH2 0x145 JUMPI PUSH1 0x0 DUP1 REVERT JUMPDEST CALLVALUE PUSH2 0x316 JUMPI PUSH1 0x0 CALLDATASIZE PUSH1 0x3 NOT ADD SLT PUSH2 0x316 JUMPI PUSH1 0x14 SLOAD PUSH1 0xFF DUP2 PUSH1 0xA0 SHR AND PUSH2 0x2D9 JUMPI PUSH1 0x13 SLOAD TIMESTAMP LT PUSH2 0x29D JUMPI PUSH1 0xFF PUSH1 0xA0 SHL NOT DUP2 AND PUSH1 0x1 PUSH1 0xA0 SHL OR PUSH1 0x14 SSTORE PUSH1 0x1 PUSH1 0x1 PUSH1 0xA0 SHL SUB SWAP1 DUP2 AND PUSH2 0x1C1 JUMPI JUMPDEST PUSH1 0x14 SLOAD AND PUSH32 0xDAEC4582D5D9595688C8C98545FDD1C696D41C6AEAEB636737E84ED2F5C00EDA PUSH1 0x20 PUSH1 0x12 SLOAD PUSH1 0x40 MLOAD SWAP1 DUP2 MSTORE LOG2 STOP JUMPDEST PUSH1 0x9 SLOAD PUSH1 0xFF AND ISZERO PUSH2 0x269 JUMPI PUSH2 0x1D4 PUSH2 0x19B7 JUMP JUMPDEST PUSH1 0x0 PUSH1 0x80 PUSH1 0x40 MLOAD PUSH2 0x1E4 DUP2 PUSH2 0x1205 JUMP JUMPDEST PUSH1 0x1 DUP2 MSTORE ADDRESS PUSH1 0x20 DUP3 ADD MSTORE DUP4 PUSH1 0x40 DUP3 ADD MSTORE DUP3 PUSH1 0x60 DUP3 ADD MSTORE ADD MSTORE PUSH32 0x137FB716243BB1721111512A26C6A2D922E0BF3022DF1EA74C7EF10AB3BC0DC7 PUSH1 0x20 DUP4 PUSH1 0x1 PUSH1 0xA SLOAD PUSH2 0x100 DUP3 PUSH1 0xA8 SHL SUB ADDRESS PUSH1 0x8 SHL AND SWAP1 PUSH11 0xFFFFFFFFFFFFFFFFFFFFFF PUSH1 0xA8 SHL AND OR OR DUP1 PUSH1 0xA SSTORE DUP5 PUSH1 0xB SSTORE PUSH2 0xFFFF NOT PUSH1 0xC SLOAD AND PUSH1 0xC SSTORE PUSH1 0x40 MLOAD SWAP5 DUP6 MSTORE PUSH1 0x8 SHR AND SWAP3 LOG2 PUSH2 0x18E JUMP JUMPDEST PUSH1 0x0 DUP1 DUP1 DUP1 DUP5 PUSH1 0xE SLOAD PUSH1 0x8 SHR AND PUSH1 0x12 SLOAD SWAP1 DUP3 DUP3 ISZERO PUSH2 0x294 JUMPI JUMPDEST CALL PUSH2 0x18E JUMPI JUMPDEST PUSH1 0x40 MLOAD RETURNDATASIZE PUSH1 0x0 DUP3 RETURNDATACOPY RETURNDATASIZE SWAP1 REVERT JUMPDEST POP PUSH2 0x8FC PUSH2 0x282 JUMP JUMPDEST PUSH1 0x40 MLOAD PUSH3 0x461BCD PUSH1 0xE5 SHL DUP2 MSTORE PUSH1 0x20 PUSH1 0x4 DUP3 ADD MSTORE PUSH1 0x14 PUSH1 0x24 DUP3 ADD MSTORE PUSH20 0x41756374696F6E207374696C6C20616374697665 PUSH1 0x60 SHL PUSH1 0x44 DUP3 ADD MSTORE PUSH1 0x64 SWAP1 REVERT JUMPDEST PUSH1 0x40 MLOAD PUSH3 0x461BCD PUSH1 0xE5 SHL DUP2 MSTORE PUSH1 0x20 PUSH1 0x4 DUP3 ADD MSTORE PUSH1 0x15 PUSH1 0x24 DUP3 ADD MSTORE PUSH21 0x105D58DD1A5BDB88185B1C9958591E48195B991959 PUSH1 0x5A SHL PUSH1 0x44 DUP3 ADD MSTORE PUSH1 0x64 SWAP1 REVERT JUMPDEST PUSH1 0x0 DUP1 REVERT JUMPDEST CALLVALUE PUSH2 0x316 JUMPI PUSH1 0x0 CALLDATASIZE PUSH1 0x3 NOT ADD SLT PUSH2 0x316 JUMPI PUSH1 0x20 PUSH1 0xFF PUSH1 0x14 SLOAD PUSH1 0xA0 SHR AND PUSH1 0x40 MLOAD SWAP1 ISZERO ISZERO DUP2 MSTORE RETURN JUMPDEST CALLVALUE PUSH2 0x316 JUMPI PUSH1 0x0 CALLDATASIZE PUSH1 0x3 NOT ADD SLT PUSH2 0x316 JUMPI PUSH2 0x371 PUSH2 0x35D PUSH2 0x13B3 JUMP JUMPDEST PUSH1 0x40 MLOAD SWAP2 DUP3 SWAP2 PUSH1 0x20 DUP4 MSTORE PUSH1 0x20 DUP4 ADD SWAP1 PUSH2 0x11A8 JUMP JUMPDEST SUB SWAP1 RETURN JUMPDEST CALLVALUE PUSH2 0x316 JUMPI PUSH1 0x0 CALLDATASIZE PUSH1 0x3 NOT ADD SLT PUSH2 0x316 JUMPI PUSH2 0x3DE PUSH2 0x391 PUSH2 0x1467 JUMP JUMPDEST PUSH2 0x399 PUSH2 0x151B JUMP JUMPDEST PUSH2 0x41B PUSH2 0x3A4 PUSH2 0x15CF JUMP JUMPDEST PUSH2 0x3AC PUSH2 0x1683 JUMP JUMPDEST SWAP1 PUSH2 0x408 PUSH1 0x6 SLOAD SWAP3 PUSH2 0x3FA PUSH2 0x3BF PUSH2 0x1737 JUMP JUMPDEST SWAP4 PUSH2 0x3EC PUSH1 0xFF PUSH1 0x9 SLOAD AND SWAP9 PUSH1 0x40 MLOAD SWAP12 DUP13 SWAP12 PUSH1 0xE0 DUP14 MSTORE PUSH1 0xE0 DUP14 ADD SWAP1 PUSH2 0x11A8 JUMP JUMPDEST SWAP1 DUP12 DUP3 SUB PUSH1 0x20 DUP14 ADD MSTORE PUSH2 0x11A8 JUMP JUMPDEST SWAP1 DUP10 DUP3 SUB PUSH1 0x40 DUP12 ADD MSTORE PUSH2 0x11A8 JUMP JUMPDEST SWAP1 DUP8 DUP3 SUB PUSH1 0x60 DUP10 ADD MSTORE PUSH2 0x11A8 JUMP JUMPDEST SWAP2 PUSH1 0x80 DUP7 ADD MSTORE DUP5 DUP3 SUB PUSH1 0xA0 DUP7 ADD MSTORE PUSH2 0x11A8 JUMP JUMPDEST SWAP1 ISZERO ISZERO PUSH1 0xC0 DUP4 ADD MSTORE SUB SWAP1 RETURN JUMPDEST PUSH1 0x0 CALLDATASIZE PUSH1 0x3 NOT ADD SLT PUSH2 0x316 JUMPI PUSH1 0x2 PUSH1 0xD SLOAD EQ PUSH2 0x5F3 JUMPI PUSH1 0x2 PUSH1 0xD SSTORE PUSH1 0xFF PUSH1 0xE SLOAD AND PUSH2 0x5BB JUMPI PUSH1 0x14 SLOAD PUSH1 0xFF DUP2 PUSH1 0xA0 SHR AND PUSH2 0x582 JUMPI PUSH1 0x13 SLOAD TIMESTAMP LT ISZERO PUSH2 0x547 JUMPI PUSH1 0x12 SLOAD SWAP1 DUP2 CALLVALUE GT ISZERO PUSH2 0x4F4 JUMPI PUSH1 0x1 PUSH1 0x1 PUSH1 0xA0 SHL SUB AND DUP1 PUSH2 0x4CF JUMPI JUMPDEST CALLER PUSH12 0xFFFFFFFFFFFFFFFFFFFFFFFF PUSH1 0xA0 SHL PUSH1 0x14 SLOAD AND OR PUSH1 0x14 SSTORE CALLVALUE PUSH1 0x12 SSTORE PUSH1 0x40 MLOAD CALLVALUE DUP2 MSTORE PUSH32 0x3FABFF0A9C3ECD6814702E247FA9733E5D0AA69E3A38590F92CB18F623A2254D PUSH1 0x20 CALLER SWAP3 LOG2 PUSH1 0x1 PUSH1 0xD SSTORE STOP JUMPDEST PUSH1 0x0 DUP1 DUP1 SWAP4 DUP2 SWAP4 DUP3 DUP3 ISZERO PUSH2 0x4EB JUMPI JUMPDEST CALL ISZERO PUSH2 0x288 JUMPI DUP1 DUP1 PUSH2 0x47F JUMP JUMPDEST POP PUSH2 0x8FC PUSH2 0x4DE JUMP JUMPDEST PUSH1 0x40 MLOAD PUSH3 0x461BCD PUSH1 0xE5 SHL DUP2 MSTORE PUSH1 0x20 PUSH1 0x4 DUP3 ADD MSTORE PUSH1 0x25 PUSH1 0x24 DUP3 ADD MSTORE PUSH32 0x426964206D75737420626520686967686572207468616E2063757272656E7420 PUSH1 0x44 DUP3 ADD MSTORE PUSH5 0x7072696365 PUSH1 0xD8 SHL PUSH1 0x64 DUP3 ADD MSTORE PUSH1 0x84 SWAP1 REVERT JUMPDEST PUSH1 0x40 MLOAD PUSH3 0x461BCD PUSH1 0xE5 SHL DUP2 MSTORE PUSH1 0x20 PUSH1 0x4 DUP3 ADD MSTORE PUSH1 0x13 PUSH1 0x24 DUP3 ADD MSTORE PUSH19 0x105D58DD1A5BDB881A185CC8195E1C1A5C9959 PUSH1 0x6A SHL PUSH1 0x44 DUP3 ADD MSTORE PUSH1 0x64 SWAP1 REVERT JUMPDEST PUSH1 0x40 MLOAD PUSH3 0x461BCD PUSH1 0xE5 SHL DUP2 MSTORE PUSH1 0x20 PUSH1 0x4 DUP3 ADD MSTORE PUSH1 0x11 PUSH1 0x24 DUP3 ADD MSTORE PUSH17 0x105D58DD1A5BDB881A185CC8195B991959 PUSH1 0x7A SHL PUSH1 0x44 DUP3 ADD MSTORE PUSH1 0x64 SWAP1 REVERT JUMPDEST PUSH1 0x40 MLOAD PUSH3 0x461BCD PUSH1 0xE5 SHL DUP2 MSTORE PUSH1 0x20 PUSH1 0x4 DUP3 ADD MSTORE PUSH1 0x10 PUSH1 0x24 DUP3 ADD MSTORE PUSH16 0x14185D5CD8589B194E881C185D5CD959 PUSH1 0x82 SHL PUSH1 0x44 DUP3 ADD MSTORE PUSH1 0x64 SWAP1 REVERT JUMPDEST PUSH1 0x40 MLOAD PUSH3 0x461BCD PUSH1 0xE5 SHL DUP2 MSTORE PUSH1 0x20 PUSH1 0x4 DUP3 ADD MSTORE PUSH1 0x1F PUSH1 0x24 DUP3 ADD MSTORE PUSH32 0x5265656E7472616E637947756172643A207265656E7472616E742063616C6C00 PUSH1 0x44 DUP3 ADD MSTORE PUSH1 0x64 SWAP1 REVERT JUMPDEST PUSH2 0x98C JUMP JUMPDEST CALLVALUE PUSH2 0x316 JUMPI PUSH1 0x0 CALLDATASIZE PUSH1 0x3 NOT ADD SLT PUSH2 0x316 JUMPI PUSH1 0xA0 PUSH1 0xA SLOAD PUSH1 0xFF PUSH1 0xB SLOAD PUSH1 0xC SLOAD SWAP1 PUSH1 0x40 MLOAD SWAP4 DUP4 DUP2 AND ISZERO ISZERO DUP6 MSTORE PUSH1 0x1 DUP1 DUP8 SHL SUB SWAP1 PUSH1 0x8 SHR AND PUSH1 0x20 DUP6 ADD MSTORE PUSH1 0x40 DUP5 ADD MSTORE DUP2 DUP2 AND ISZERO ISZERO PUSH1 0x60 DUP5 ADD MSTORE PUSH1 0x8 SHR AND ISZERO ISZERO PUSH1 0x80 DUP3 ADD MSTORE RETURN JUMPDEST CALLVALUE PUSH2 0x316 JUMPI PUSH1 0x0 CALLDATASIZE PUSH1 0x3 NOT ADD SLT PUSH2 0x316 JUMPI PUSH1 0x20 PUSH1 0x0 SLOAD PUSH1 0x40 MLOAD SWAP1 DUP2 MSTORE RETURN JUMPDEST CALLVALUE PUSH2 0x316 JUMPI PUSH1 0x0 CALLDATASIZE PUSH1 0x3 NOT ADD SLT PUSH2 0x316 JUMPI PUSH1 0x14 SLOAD PUSH1 0x40 MLOAD PUSH1 0x1 PUSH1 0x1 PUSH1 0xA0 SHL SUB SWAP1 SWAP2 AND DUP2 MSTORE PUSH1 0x20 SWAP1 RETURN JUMPDEST CALLVALUE PUSH2 0x316 JUMPI PUSH1 0x20 CALLDATASIZE PUSH1 0x3 NOT ADD SLT PUSH2 0x316 JUMPI PUSH1 0x4 CALLDATALOAD PUSH1 0x1 PUSH1 0x1 PUSH1 0xA0 SHL SUB DUP2 DUP2 AND SWAP2 DUP3 SWAP1 SUB PUSH2 0x316 JUMPI PUSH2 0x713 SWAP1 PUSH1 0xE SLOAD PUSH1 0x8 SHR AND CALLER EQ PUSH2 0x17EB JUMP JUMPDEST PUSH2 0x721 PUSH1 0xFF PUSH1 0x1 SLOAD AND PUSH2 0x1837 JUMP JUMPDEST PUSH2 0x730 PUSH1 0xFF PUSH1 0xA SLOAD AND ISZERO PUSH2 0x18C3 JUMP JUMPDEST PUSH1 0xC SLOAD PUSH2 0x740 PUSH1 0xFF DUP3 AND ISZERO PUSH2 0x1905 JUMP JUMPDEST PUSH1 0xFF DUP2 PUSH1 0x8 SHR AND PUSH2 0x7A6 JUMPI PUSH1 0x20 PUSH32 0xF396531FAD1D4DC2CD92386CDEA800C92A507F8FE1BDB80313EB32A57481B1DC SWAP2 PUSH2 0x100 PUSH1 0x0 SLOAD SWAP2 PUSH1 0x0 DUP1 SSTORE PUSH2 0xFF00 NOT AND OR PUSH1 0xC SSTORE PUSH2 0x79D PUSH1 0x0 DUP1 DUP1 DUP1 DUP6 DUP10 GAS CALL PUSH2 0x797 PUSH2 0x1949 JUMP JUMPDEST POP PUSH2 0x1979 JUMP JUMPDEST PUSH1 0x40 MLOAD SWAP1 DUP2 MSTORE LOG2 STOP JUMPDEST PUSH1 0x40 MLOAD PUSH3 0x461BCD PUSH1 0xE5 SHL DUP2 MSTORE PUSH1 0x20 PUSH1 0x4 DUP3 ADD MSTORE PUSH1 0x18 PUSH1 0x24 DUP3 ADD MSTORE PUSH32 0x5061796D656E7420616C72656164792072656C65617365640000000000000000 PUSH1 0x44 DUP3 ADD MSTORE PUSH1 0x64 SWAP1 REVERT JUMPDEST CALLVALUE PUSH2 0x316 JUMPI PUSH1 0x0 CALLDATASIZE PUSH1 0x3 NOT ADD SLT PUSH2 0x316 JUMPI PUSH1 0x20 PUSH1 0x11 SLOAD PUSH1 0x40 MLOAD SWAP1 DUP2 MSTORE RETURN JUMPDEST CALLVALUE PUSH2 0x316 JUMPI PUSH1 0x0 CALLDATASIZE PUSH1 0x3 NOT ADD SLT PUSH2 0x316 JUMPI PUSH1 0x20 PUSH2 0x824 PUSH2 0x19B7 JUMP JUMPDEST PUSH1 0x40 MLOAD SWAP1 DUP2 MSTORE RETURN JUMPDEST PUSH1 0x0 CALLDATASIZE PUSH1 0x3 NOT ADD SLT PUSH2 0x316 JUMPI PUSH2 0x850 PUSH1 0x1 DUP1 PUSH1 0xA0 SHL SUB PUSH1 0xE SLOAD PUSH1 0x8 SHR AND CALLER EQ PUSH2 0x17EB JUMP JUMPDEST PUSH1 0x1 SLOAD PUSH1 0xFF DUP2 AND PUSH2 0x94F JUMPI CALLVALUE ISZERO PUSH2 0x91A JUMPI PUSH1 0x12 SLOAD DUP1 PUSH1 0x1 SHL SWAP1 DUP1 DUP3 DIV PUSH1 0x2 EQ SWAP1 ISZERO OR ISZERO PUSH2 0x904 JUMPI PUSH1 0x64 SWAP1 DIV SWAP1 DUP2 CALLVALUE LT PUSH2 0x8BF JUMPI DUP2 PUSH1 0x1 PUSH1 0x20 SWAP3 PUSH32 0x3B4F5A74452CDDB80AE5A0D279EB7DB6AFD5E556E72CA2883016B1DA7C9D2116 SWAP5 PUSH1 0x0 SSTORE PUSH1 0xFF NOT AND OR PUSH1 0x1 SSTORE PUSH1 0x40 MLOAD SWAP1 DUP2 MSTORE LOG1 STOP JUMPDEST PUSH1 0x40 MLOAD PUSH3 0x461BCD PUSH1 0xE5 SHL DUP2 MSTORE PUSH1 0x20 PUSH1 0x4 DUP3 ADD MSTORE PUSH1 0x1A PUSH1 0x24 DUP3 ADD MSTORE PUSH32 0x496E73756666696369656E7420657363726F7720616D6F756E74000000000000 PUSH1 0x44 DUP3 ADD MSTORE PUSH1 0x64 SWAP1 REVERT JUMPDEST PUSH4 0x4E487B71 PUSH1 0xE0 SHL PUSH1 0x0 MSTORE PUSH1 0x11 PUSH1 0x4 MSTORE PUSH1 0x24 PUSH1 0x0 REVERT JUMPDEST PUSH1 0x40 MLOAD PUSH3 0x461BCD PUSH1 0xE5 SHL DUP2 MSTORE PUSH1 0x20 PUSH1 0x4 DUP3 ADD MSTORE PUSH1 0xD PUSH1 0x24 DUP3 ADD MSTORE PUSH13 0x9AEAE6E840E6CADCC8408AA89 PUSH1 0x9B SHL PUSH1 0x44 DUP3 ADD MSTORE PUSH1 0x64 SWAP1 REVERT JUMPDEST PUSH1 0x40 MLOAD PUSH3 0x461BCD PUSH1 0xE5 SHL DUP2 MSTORE PUSH1 0x20 PUSH1 0x4 DUP3 ADD MSTORE PUSH1 0x15 PUSH1 0x24 DUP3 ADD MSTORE PUSH21 0x115CD8DC9BDDC8185B1C9958591E48199D5B991959 PUSH1 0x5A SHL PUSH1 0x44 DUP3 ADD MSTORE PUSH1 0x64 SWAP1 REVERT JUMPDEST CALLVALUE PUSH2 0x316 JUMPI PUSH1 0x0 CALLDATASIZE PUSH1 0x3 NOT ADD SLT PUSH2 0x316 JUMPI PUSH1 0x20 PUSH1 0x12 SLOAD PUSH1 0x40 MLOAD SWAP1 DUP2 MSTORE RETURN JUMPDEST CALLVALUE PUSH2 0x316 JUMPI PUSH1 0x20 CALLDATASIZE PUSH1 0x3 NOT ADD SLT PUSH2 0x316 JUMPI PUSH1 0x4 CALLDATALOAD DUP1 ISZERO ISZERO SWAP1 DUP2 DUP2 SUB PUSH2 0x316 JUMPI PUSH1 0x14 SLOAD PUSH1 0x1 PUSH1 0x1 PUSH1 0xA0 SHL SUB SWAP3 SWAP1 PUSH2 0x9E3 SWAP1 DUP5 AND CALLER EQ PUSH2 0x1877 JUMP JUMPDEST PUSH2 0x9F1 PUSH1 0xFF PUSH1 0x1 SLOAD AND PUSH2 0x1837 JUMP JUMPDEST PUSH2 0xA00 PUSH1 0xFF PUSH1 0xA SLOAD AND ISZERO PUSH2 0x18C3 JUMP JUMPDEST PUSH2 0x101 PUSH1 0xC SLOAD PUSH2 0xA13 PUSH1 0xFF DUP3 AND ISZERO PUSH2 0x1905 JUMP JUMPDEST PUSH2 0xFFFF NOT AND OR PUSH1 0xC SSTORE PUSH1 0x40 MLOAD SWAP1 DUP2 MSTORE PUSH32 0x27A5CCC16BE6802BCEC7C2477A2B588A54C808352EF7DAB930058F65864B3CE9 PUSH1 0x20 CALLER SWAP3 LOG2 ISZERO PUSH2 0xAA4 JUMPI PUSH32 0xE327B247066BDF32CF2493778E3FCE4339B69C1E379A3B0DC780779BF67FE155 PUSH1 0x20 PUSH1 0x0 SLOAD SWAP3 PUSH1 0x0 DUP1 SSTORE PUSH2 0xA93 PUSH1 0x0 DUP1 DUP1 DUP1 DUP9 DUP7 PUSH1 0xE SLOAD PUSH1 0x8 SHR AND GAS CALL PUSH2 0x797 PUSH2 0x1949 JUMP JUMPDEST PUSH1 0xE SLOAD PUSH1 0x8 SHR AND SWAP3 PUSH1 0x40 MLOAD SWAP1 DUP2 MSTORE LOG2 STOP JUMPDEST POP PUSH1 0x0 SLOAD PUSH1 0x0 DUP1 SSTORE PUSH2 0xAC0 PUSH1 0x0 DUP1 DUP1 DUP1 DUP6 CALLER GAS CALL PUSH2 0x797 PUSH2 0x1949 JUMP JUMPDEST PUSH1 0x40 MLOAD SWAP1 DUP2 MSTORE PUSH32 0x894CE7CC354D2A39DE53F8DAB6B0AD8C5AC65641E68AA2154FDB88BCC387E3DD PUSH1 0x20 CALLER SWAP3 LOG2 STOP JUMPDEST CALLVALUE PUSH2 0x316 JUMPI PUSH1 0x20 CALLDATASIZE PUSH1 0x3 NOT ADD SLT PUSH2 0x316 JUMPI PUSH1 0x4 CALLDATALOAD PUSH1 0x1 PUSH1 0x1 PUSH1 0xA0 SHL SUB DUP2 AND SUB PUSH2 0x316 JUMPI PUSH1 0x20 PUSH1 0x40 MLOAD PUSH1 0x0 DUP2 MSTORE RETURN JUMPDEST CALLVALUE PUSH2 0x316 JUMPI PUSH1 0x0 CALLDATASIZE PUSH1 0x3 NOT ADD SLT PUSH2 0x316 JUMPI PUSH1 0x20 PUSH1 0xFF PUSH1 0x1 SLOAD PUSH1 0x8 SHR AND PUSH1 0x40 MLOAD SWAP1 ISZERO ISZERO DUP2 MSTORE RETURN JUMPDEST CALLVALUE PUSH2 0x316 JUMPI PUSH1 0x0 CALLDATASIZE PUSH1 0x3 NOT ADD SLT PUSH2 0x316 JUMPI PUSH2 0x371 PUSH2 0x35D PUSH2 0x12C8 JUMP JUMPDEST CALLVALUE PUSH2 0x316 JUMPI PUSH2 0xB6C CALLDATASIZE PUSH2 0x125F JUMP JUMPDEST PUSH2 0xB81 PUSH1 0x1 DUP1 PUSH1 0xA0 SHL SUB PUSH1 0x14 SLOAD AND CALLER EQ PUSH2 0x1877 JUMP JUMPDEST PUSH2 0xB8F PUSH1 0xFF PUSH1 0x1 SLOAD AND PUSH2 0x1837 JUMP JUMPDEST PUSH2 0xB9E PUSH1 0xFF PUSH1 0xA SLOAD AND ISZERO PUSH2 0x18C3 JUMP JUMPDEST PUSH2 0xBAD PUSH1 0xFF PUSH1 0xC SLOAD AND ISZERO PUSH2 0x1905 JUMP JUMPDEST PUSH32 0x28B099EB575E23E32BECD7C30DC8F9B2F98E370CDBF9841EA3338D9000402A25 PUSH1 0x40 MLOAD PUSH1 0x20 DUP2 MSTORE DUP1 PUSH2 0xBE5 CALLER SWAP5 PUSH1 0x20 DUP4 ADD SWAP1 PUSH2 0x11A8 JUMP JUMPDEST SUB SWAP1 LOG2 STOP JUMPDEST PUSH2 0x117B JUMP JUMPDEST CALLVALUE PUSH2 0x316 JUMPI PUSH1 0x0 CALLDATASIZE PUSH1 0x3 NOT ADD SLT PUSH2 0x316 JUMPI PUSH1 0x20 PUSH1 0xFF PUSH1 0xE SLOAD AND PUSH1 0x40 MLOAD SWAP1 ISZERO ISZERO DUP2 MSTORE RETURN JUMPDEST CALLVALUE PUSH2 0x316 JUMPI PUSH2 0xC20 CALLDATASIZE PUSH2 0x125F JUMP JUMPDEST PUSH2 0xC38 PUSH1 0x1 DUP1 PUSH1 0xA0 SHL SUB PUSH1 0xE SLOAD PUSH1 0x8 SHR AND CALLER EQ PUSH2 0x17EB JUMP JUMPDEST PUSH2 0xC46 PUSH1 0xFF PUSH1 0x1 SLOAD AND PUSH2 0x1837 JUMP JUMPDEST PUSH1 0xA SLOAD PUSH1 0xFF DUP2 AND ISZERO PUSH2 0xCDD JUMPI DUP2 MLOAD ISZERO PUSH2 0xC98 JUMPI PUSH1 0xFF NOT AND PUSH1 0xA SSTORE PUSH32 0x2EB59C65A13FFE423F16EF2C7EDD21AFCDE560EF40C04008402E75D5C0B04B2F PUSH1 0x40 MLOAD PUSH1 0x20 DUP2 MSTORE DUP1 PUSH2 0xBE5 CALLER SWAP5 PUSH1 0x20 DUP4 ADD SWAP1 PUSH2 0x11A8 JUMP JUMPDEST PUSH1 0x40 MLOAD PUSH3 0x461BCD PUSH1 0xE5 SHL DUP2 MSTORE PUSH1 0x20 PUSH1 0x4 DUP3 ADD MSTORE PUSH1 0x17 PUSH1 0x24 DUP3 ADD MSTORE PUSH32 0x496E76616C696420747261636B696E67206E756D626572000000000000000000 PUSH1 0x44 DUP3 ADD MSTORE PUSH1 0x64 SWAP1 REVERT JUMPDEST PUSH1 0x40 MLOAD PUSH3 0x461BCD PUSH1 0xE5 SHL DUP2 MSTORE PUSH1 0x20 PUSH1 0x4 DUP3 ADD MSTORE PUSH1 0x11 PUSH1 0x24 DUP3 ADD MSTORE PUSH17 0x457363726F77206E6F7420616374697665 PUSH1 0x78 SHL PUSH1 0x44 DUP3 ADD MSTORE PUSH1 0x64 SWAP1 REVERT JUMPDEST CALLVALUE PUSH2 0x316 JUMPI PUSH1 0x0 CALLDATASIZE PUSH1 0x3 NOT ADD SLT PUSH2 0x316 JUMPI PUSH1 0x20 PUSH1 0xFF PUSH1 0x1 SLOAD AND PUSH1 0x40 MLOAD SWAP1 ISZERO ISZERO DUP2 MSTORE RETURN JUMPDEST CALLVALUE PUSH2 0x316 JUMPI PUSH1 0x0 CALLDATASIZE PUSH1 0x3 NOT ADD SLT PUSH2 0x316 JUMPI PUSH1 0x0 PUSH1 0xE0 PUSH1 0x40 MLOAD PUSH2 0xD5A DUP2 PUSH2 0x11E8 JUMP JUMPDEST PUSH1 0x60 DUP2 MSTORE PUSH1 0x60 PUSH1 0x20 DUP3 ADD MSTORE PUSH1 0x60 PUSH1 0x40 DUP3 ADD MSTORE PUSH1 0x60 DUP1 DUP3 ADD MSTORE DUP3 PUSH1 0x80 DUP3 ADD MSTORE PUSH1 0x60 PUSH1 0xA0 DUP3 ADD MSTORE PUSH1 0x60 PUSH1 0xC0 DUP3 ADD MSTORE ADD MSTORE PUSH1 0x0 PUSH1 0x80 PUSH1 0x40 MLOAD PUSH2 0xD98 DUP2 PUSH2 0x1205 JUMP JUMPDEST DUP3 DUP2 MSTORE DUP3 PUSH1 0x20 DUP3 ADD MSTORE DUP3 PUSH1 0x40 DUP3 ADD MSTORE DUP3 PUSH1 0x60 DUP3 ADD MSTORE ADD MSTORE PUSH1 0xE SLOAD PUSH1 0x12 SLOAD SWAP1 PUSH1 0x13 SLOAD PUSH1 0x14 SLOAD SWAP3 PUSH2 0xDC5 PUSH2 0x12C8 JUMP JUMPDEST SWAP4 PUSH2 0xDCE PUSH2 0x13B3 JUMP JUMPDEST SWAP3 PUSH1 0x40 MLOAD SWAP4 PUSH2 0xDDC DUP6 PUSH2 0x11E8 JUMP JUMPDEST PUSH2 0xDE4 PUSH2 0x1467 JUMP JUMPDEST DUP6 MSTORE PUSH2 0xDEE PUSH2 0x151B JUMP JUMPDEST PUSH1 0x20 DUP7 ADD MSTORE PUSH2 0xDFB PUSH2 0x15CF JUMP JUMPDEST PUSH1 0x40 DUP7 ADD MSTORE PUSH2 0xE08 PUSH2 0x1683 JUMP JUMPDEST PUSH1 0x60 DUP7 ADD MSTORE PUSH1 0x6 SLOAD PUSH1 0x80 DUP7 ADD MSTORE PUSH1 0x7 SLOAD PUSH8 0xFFFFFFFFFFFFFFFF DUP2 GT PUSH2 0x1147 JUMPI PUSH1 0x40 MLOAD SWAP1 PUSH2 0xE3B PUSH1 0x20 DUP3 PUSH1 0x5 SHL ADD DUP4 PUSH2 0x1221 JUMP JUMPDEST DUP1 DUP3 MSTORE PUSH1 0x20 DUP3 ADD SWAP1 PUSH1 0x7 PUSH1 0x0 MSTORE PUSH32 0xA66CC928B5EDB82AF9BD49922954155AB7B0942694BEA4CE44661D9A8736C688 SWAP2 PUSH1 0x0 SWAP1 JUMPDEST DUP3 DUP3 LT PUSH2 0x1070 JUMPI POP POP POP POP PUSH1 0xA0 DUP7 ADD MSTORE PUSH2 0xF1B SWAP1 PUSH2 0xE8A PUSH2 0x1737 JUMP JUMPDEST PUSH1 0xC0 DUP8 ADD MSTORE PUSH1 0xFF PUSH1 0x9 SLOAD AND ISZERO ISZERO PUSH1 0xE0 DUP8 ADD MSTORE PUSH2 0xF0D PUSH1 0x40 MLOAD SWAP9 PUSH2 0xEAC DUP11 PUSH2 0x1205 JUMP JUMPDEST PUSH1 0xA SLOAD PUSH1 0xFF DUP2 AND ISZERO ISZERO DUP12 MSTORE PUSH1 0x1 DUP1 PUSH1 0xA0 SHL SUB SWAP1 PUSH1 0x8 SHR AND PUSH1 0x20 DUP12 ADD MSTORE PUSH1 0xB SLOAD PUSH1 0x40 DUP12 ADD MSTORE PUSH1 0xFF PUSH1 0xC SLOAD DUP2 DUP2 AND ISZERO ISZERO PUSH1 0x60 DUP14 ADD MSTORE PUSH1 0x8 SHR AND ISZERO ISZERO PUSH1 0x80 DUP12 ADD MSTORE PUSH1 0x40 MLOAD SWAP9 PUSH1 0x1 DUP1 PUSH1 0xA0 SHL SUB SWAP1 PUSH1 0x8 SHR AND DUP10 MSTORE PUSH2 0x1A0 DUP1 PUSH1 0x20 DUP12 ADD MSTORE DUP10 ADD SWAP1 PUSH2 0x11A8 JUMP JUMPDEST SWAP1 DUP8 DUP3 SUB PUSH1 0x40 DUP10 ADD MSTORE PUSH2 0x11A8 JUMP JUMPDEST SWAP3 PUSH1 0x60 DUP7 ADD MSTORE PUSH1 0x80 DUP6 ADD MSTORE PUSH1 0xFF DUP2 PUSH1 0xA0 SHR AND ISZERO ISZERO PUSH1 0xA0 DUP6 ADD MSTORE PUSH1 0x1 DUP1 PUSH1 0xA0 SHL SUB AND PUSH1 0xC0 DUP5 ADD MSTORE DUP3 DUP2 SUB PUSH1 0xE0 DUP5 ADD MSTORE PUSH2 0xF9D PUSH2 0xF8B PUSH2 0xF79 PUSH2 0xF67 DUP6 MLOAD PUSH2 0x100 DUP7 MSTORE PUSH2 0x100 DUP7 ADD SWAP1 PUSH2 0x11A8 JUMP JUMPDEST PUSH1 0x20 DUP7 ADD MLOAD DUP6 DUP3 SUB PUSH1 0x20 DUP8 ADD MSTORE PUSH2 0x11A8 JUMP JUMPDEST PUSH1 0x40 DUP6 ADD MLOAD DUP5 DUP3 SUB PUSH1 0x40 DUP7 ADD MSTORE PUSH2 0x11A8 JUMP JUMPDEST PUSH1 0x60 DUP5 ADD MLOAD DUP4 DUP3 SUB PUSH1 0x60 DUP6 ADD MSTORE PUSH2 0x11A8 JUMP JUMPDEST PUSH1 0x80 DUP4 ADD MLOAD PUSH1 0x80 DUP4 ADD MSTORE PUSH1 0xA0 DUP4 ADD MLOAD SWAP1 DUP3 DUP2 SUB PUSH1 0xA0 DUP5 ADD MSTORE DUP2 MLOAD DUP1 DUP3 MSTORE PUSH1 0x20 DUP3 ADD SWAP2 PUSH1 0x20 DUP1 DUP4 PUSH1 0x5 SHL DUP4 ADD ADD SWAP5 ADD SWAP3 PUSH1 0x0 SWAP2 JUMPDEST DUP4 DUP4 LT PUSH2 0x1043 JUMPI DUP9 DUP1 DUP10 PUSH1 0x80 DUP14 DUP12 PUSH1 0xE0 DUP1 PUSH2 0xFF7 DUP15 PUSH1 0xC0 DUP9 ADD MLOAD DUP6 DUP3 SUB PUSH1 0xC0 DUP8 ADD MSTORE PUSH2 0x11A8 JUMP JUMPDEST SWAP6 ADD MLOAD ISZERO ISZERO SWAP2 ADD MSTORE DUP1 MLOAD ISZERO ISZERO PUSH2 0x100 DUP6 ADD MSTORE PUSH1 0x20 DUP2 ADD MLOAD PUSH1 0x1 PUSH1 0x1 PUSH1 0xA0 SHL SUB AND PUSH2 0x120 DUP6 ADD MSTORE PUSH1 0x40 DUP2 ADD MLOAD PUSH2 0x140 DUP6 ADD MSTORE PUSH1 0x60 DUP2 ADD MLOAD ISZERO ISZERO PUSH2 0x160 DUP6 ADD MSTORE ADD MLOAD ISZERO ISZERO PUSH2 0x180 DUP4 ADD MSTORE SUB SWAP1 RETURN JUMPDEST SWAP1 SWAP2 SWAP3 SWAP4 SWAP5 PUSH1 0x20 DUP1 PUSH2 0x1061 PUSH1 0x1 SWAP4 PUSH1 0x1F NOT DUP7 DUP3 SUB ADD DUP8 MSTORE DUP10 MLOAD PUSH2 0x11A8 JUMP JUMPDEST SWAP8 ADD SWAP4 ADD SWAP4 ADD SWAP2 SWAP4 SWAP3 SWAP1 PUSH2 0xFD0 JUMP JUMPDEST PUSH1 0x40 MLOAD PUSH1 0x0 DUP6 SLOAD DUP1 PUSH1 0x1 SHR SWAP1 PUSH1 0x1 DUP2 AND ISZERO PUSH2 0x113D JUMPI JUMPDEST PUSH1 0x20 DUP3 LT PUSH1 0x1 DUP3 AND EQ PUSH2 0x1127 JUMPI DUP2 DUP5 MSTORE PUSH1 0x1 DUP2 AND SWAP1 DUP2 ISZERO PUSH2 0x1104 JUMPI POP PUSH1 0x1 EQ PUSH2 0x10CC JUMPI JUMPDEST POP PUSH1 0x1 SWAP3 DUP3 PUSH2 0x10BE DUP6 SWAP5 PUSH1 0x20 SWAP5 SUB DUP3 PUSH2 0x1221 JUMP JUMPDEST DUP2 MSTORE ADD SWAP5 ADD SWAP2 ADD SWAP1 SWAP3 PUSH2 0xE6E JUMP JUMPDEST PUSH1 0x0 DUP8 DUP2 MSTORE PUSH1 0x20 DUP2 KECCAK256 SWAP1 SWAP3 POP JUMPDEST DUP2 DUP4 LT PUSH2 0x10EE JUMPI POP POP DUP2 ADD PUSH1 0x20 ADD PUSH1 0x1 PUSH2 0x10AA JUMP JUMPDEST PUSH1 0x1 DUP2 PUSH1 0x20 SWAP3 SLOAD DUP4 DUP7 DUP9 ADD ADD MSTORE ADD SWAP3 ADD SWAP2 PUSH2 0x10D9 JUMP JUMPDEST PUSH1 0xFF NOT AND PUSH1 0x20 DUP6 DUP2 ADD SWAP2 SWAP1 SWAP2 MSTORE SWAP2 ISZERO ISZERO PUSH1 0x5 SHL DUP5 ADD SWAP1 SWAP2 ADD SWAP2 POP PUSH1 0x1 SWAP1 POP PUSH2 0x10AA JUMP JUMPDEST PUSH4 0x4E487B71 PUSH1 0xE0 SHL PUSH1 0x0 MSTORE PUSH1 0x22 PUSH1 0x4 MSTORE PUSH1 0x24 PUSH1 0x0 REVERT JUMPDEST SWAP1 PUSH1 0x7F AND SWAP1 PUSH2 0x1086 JUMP JUMPDEST PUSH4 0x4E487B71 PUSH1 0xE0 SHL PUSH1 0x0 MSTORE PUSH1 0x41 PUSH1 0x4 MSTORE PUSH1 0x24 PUSH1 0x0 REVERT JUMPDEST CALLVALUE PUSH2 0x316 JUMPI PUSH1 0x0 CALLDATASIZE PUSH1 0x3 NOT ADD SLT PUSH2 0x316 JUMPI PUSH1 0x20 PUSH1 0x13 SLOAD PUSH1 0x40 MLOAD SWAP1 DUP2 MSTORE RETURN JUMPDEST CALLVALUE PUSH2 0x316 JUMPI PUSH1 0x0 CALLDATASIZE PUSH1 0x3 NOT ADD SLT PUSH2 0x316 JUMPI PUSH1 0xE SLOAD PUSH1 0x40 MLOAD PUSH1 0x8 SWAP2 SWAP1 SWAP2 SHR PUSH1 0x1 PUSH1 0x1 PUSH1 0xA0 SHL SUB AND DUP2 MSTORE PUSH1 0x20 SWAP1 RETURN JUMPDEST SWAP2 SWAP1 DUP3 MLOAD SWAP3 DUP4 DUP3 MSTORE PUSH1 0x0 JUMPDEST DUP5 DUP2 LT PUSH2 0x11D4 JUMPI POP POP DUP3 PUSH1 0x0 PUSH1 0x20 DUP1 SWAP5 SWAP6 DUP5 ADD ADD MSTORE PUSH1 0x1F DUP1 NOT SWAP2 ADD AND ADD ADD SWAP1 JUMP JUMPDEST PUSH1 0x20 DUP2 DUP4 ADD DUP2 ADD MLOAD DUP5 DUP4 ADD DUP3 ADD MSTORE ADD PUSH2 0x11B3 JUMP JUMPDEST PUSH2 0x100 DUP2 ADD SWAP1 DUP2 LT PUSH8 0xFFFFFFFFFFFFFFFF DUP3 GT OR PUSH2 0x1147 JUMPI PUSH1 0x40 MSTORE JUMP JUMPDEST PUSH1 0xA0 DUP2 ADD SWAP1 DUP2 LT PUSH8 0xFFFFFFFFFFFFFFFF DUP3 GT OR PUSH2 0x1147 JUMPI PUSH1 0x40 MSTORE JUMP JUMPDEST SWAP1 PUSH1 0x1F DUP1 NOT SWAP2 ADD AND DUP2 ADD SWAP1 DUP2 LT PUSH8 0xFFFFFFFFFFFFFFFF DUP3 GT OR PUSH2 0x1147 JUMPI PUSH1 0x40 MSTORE JUMP JUMPDEST PUSH8 0xFFFFFFFFFFFFFFFF DUP2 GT PUSH2 0x1147 JUMPI PUSH1 0x1F ADD PUSH1 0x1F NOT AND PUSH1 0x20 ADD SWAP1 JUMP JUMPDEST PUSH1 0x20 PUSH1 0x3 NOT DUP3 ADD SLT PUSH2 0x316 JUMPI PUSH1 0x4 CALLDATALOAD PUSH8 0xFFFFFFFFFFFFFFFF DUP2 GT PUSH2 0x316 JUMPI DUP2 PUSH1 0x23 DUP3 ADD SLT ISZERO PUSH2 0x316 JUMPI DUP1 PUSH1 0x4 ADD CALLDATALOAD SWAP1 PUSH2 0x1297 DUP3 PUSH2 0x1243 JUMP JUMPDEST SWAP3 PUSH2 0x12A5 PUSH1 0x40 MLOAD SWAP5 DUP6 PUSH2 0x1221 JUMP JUMPDEST DUP3 DUP5 MSTORE PUSH1 0x24 DUP4 DUP4 ADD ADD GT PUSH2 0x316 JUMPI DUP2 PUSH1 0x0 SWAP3 PUSH1 0x24 PUSH1 0x20 SWAP4 ADD DUP4 DUP7 ADD CALLDATACOPY DUP4 ADD ADD MSTORE SWAP1 JUMP JUMPDEST PUSH1 0x40 MLOAD SWAP1 PUSH1 0x0 PUSH1 0xF SLOAD SWAP1 PUSH1 0x1 DUP3 DUP2 SHR SWAP1 DUP1 DUP5 AND SWAP4 DUP5 ISZERO PUSH2 0x13A9 JUMPI JUMPDEST PUSH1 0x20 SWAP5 DUP6 DUP5 LT DUP2 EQ PUSH2 0x1395 JUMPI DUP4 DUP9 MSTORE DUP8 SWAP5 SWAP4 SWAP3 SWAP2 DUP2 ISZERO PUSH2 0x1375 JUMPI POP PUSH1 0x1 EQ PUSH2 0x1316 JUMPI JUMPDEST POP POP PUSH2 0x1314 SWAP3 POP SUB DUP4 PUSH2 0x1221 JUMP JUMPDEST JUMP JUMPDEST SWAP1 SWAP4 SWAP2 POP PUSH1 0xF PUSH1 0x0 MSTORE PUSH32 0x8D1108E10BCB7C27DDDFC02ED9D693A074039D026CF4EA4240B40F7D581AC802 SWAP4 PUSH1 0x0 SWAP2 JUMPDEST DUP2 DUP4 LT PUSH2 0x135D JUMPI POP POP PUSH2 0x1314 SWAP4 POP DUP3 ADD ADD CODESIZE DUP1 PUSH2 0x1306 JUMP JUMPDEST DUP6 SLOAD DUP9 DUP5 ADD DUP6 ADD MSTORE SWAP5 DUP6 ADD SWAP5 DUP8 SWAP5 POP SWAP2 DUP4 ADD SWAP2 PUSH2 0x1345 JUMP JUMPDEST SWAP2 POP POP PUSH2 0x1314 SWAP5 SWAP3 POP PUSH1 0xFF NOT AND DUP3 DUP5 ADD MSTORE ISZERO ISZERO PUSH1 0x5 SHL DUP3 ADD ADD CODESIZE DUP1 PUSH2 0x1306 JUMP JUMPDEST PUSH4 0x4E487B71 PUSH1 0xE0 SHL DUP6 MSTORE PUSH1 0x22 PUSH1 0x4 MSTORE PUSH1 0x24 DUP6 REVERT JUMPDEST SWAP2 PUSH1 0x7F AND SWAP2 PUSH2 0x12E3 JUMP JUMPDEST PUSH1 0x40 MLOAD SWAP1 PUSH1 0x0 PUSH1 0x10 SLOAD SWAP1 PUSH1 0x1 DUP3 DUP2 SHR SWAP1 DUP1 DUP5 AND SWAP4 DUP5 ISZERO PUSH2 0x145D JUMPI JUMPDEST PUSH1 0x20 SWAP5 DUP6 DUP5 LT DUP2 EQ PUSH2 0x1395 JUMPI DUP4 DUP9 MSTORE DUP8 SWAP5 SWAP4 SWAP3 SWAP2 DUP2 ISZERO PUSH2 0x1375 JUMPI POP PUSH1 0x1 EQ PUSH2 0x13FE JUMPI POP POP PUSH2 0x1314 SWAP3 POP SUB DUP4 PUSH2 0x1221 JUMP JUMPDEST SWAP1 SWAP4 SWAP2 POP PUSH1 0x10 PUSH1 0x0 MSTORE PUSH32 0x1B6847DC741A1B0CD08D278845F9D819D87B734759AFB55FE2DE5CB82A9AE672 SWAP4 PUSH1 0x0 SWAP2 JUMPDEST DUP2 DUP4 LT PUSH2 0x1445 JUMPI POP POP PUSH2 0x1314 SWAP4 POP DUP3 ADD ADD CODESIZE DUP1 PUSH2 0x1306 JUMP JUMPDEST DUP6 SLOAD DUP9 DUP5 ADD DUP6 ADD MSTORE SWAP5 DUP6 ADD SWAP5 DUP8 SWAP5 POP SWAP2 DUP4 ADD SWAP2 PUSH2 0x142D JUMP JUMPDEST SWAP2 PUSH1 0x7F AND SWAP2 PUSH2 0x13CE JUMP JUMPDEST PUSH1 0x40 MLOAD SWAP1 PUSH1 0x0 PUSH1 0x2 SLOAD SWAP1 PUSH1 0x1 DUP3 DUP2 SHR SWAP1 DUP1 DUP5 AND SWAP4 DUP5 ISZERO PUSH2 0x1511 JUMPI JUMPDEST PUSH1 0x20 SWAP5 DUP6 DUP5 LT DUP2 EQ PUSH2 0x1395 JUMPI DUP4 DUP9 MSTORE DUP8 SWAP5 SWAP4 SWAP3 SWAP2 DUP2 ISZERO PUSH2 0x1375 JUMPI POP PUSH1 0x1 EQ PUSH2 0x14B2 JUMPI POP POP PUSH2 0x1314 SWAP3 POP SUB DUP4 PUSH2 0x1221 JUMP JUMPDEST SWAP1 SWAP4 SWAP2 POP PUSH1 0x2 PUSH1 0x0 MSTORE PUSH32 0x405787FA12A823E0F2B7631CC41B3BA8828B3321CA811111FA75CD3AA3BB5ACE SWAP4 PUSH1 0x0 SWAP2 JUMPDEST DUP2 DUP4 LT PUSH2 0x14F9 JUMPI POP POP PUSH2 0x1314 SWAP4 POP DUP3 ADD ADD CODESIZE DUP1 PUSH2 0x1306 JUMP JUMPDEST DUP6 SLOAD DUP9 DUP5 ADD DUP6 ADD MSTORE SWAP5 DUP6 ADD SWAP5 DUP8 SWAP5 POP SWAP2 DUP4 ADD SWAP2 PUSH2 0x14E1 JUMP JUMPDEST SWAP2 PUSH1 0x7F AND SWAP2 PUSH2 0x1482 JUMP JUMPDEST PUSH1 0x40 MLOAD SWAP1 PUSH1 0x0 PUSH1 0x3 SLOAD SWAP1 PUSH1 0x1 DUP3 DUP2 SHR SWAP1 DUP1 DUP5 AND SWAP4 DUP5 ISZERO PUSH2 0x15C5 JUMPI JUMPDEST PUSH1 0x20 SWAP5 DUP6 DUP5 LT DUP2 EQ PUSH2 0x1395 JUMPI DUP4 DUP9 MSTORE DUP8 SWAP5 SWAP4 SWAP3 SWAP2 DUP2 ISZERO PUSH2 0x1375 JUMPI POP PUSH1 0x1 EQ PUSH2 0x1566 JUMPI POP POP PUSH2 0x1314 SWAP3 POP SUB DUP4 PUSH2 0x1221 JUMP JUMPDEST SWAP1 SWAP4 SWAP2 POP PUSH1 0x3 PUSH1 0x0 MSTORE PUSH32 0xC2575A0E9E593C00F959F8C92F12DB2869C3395A3B0502D05E2516446F71F85B SWAP4 PUSH1 0x0 SWAP2 JUMPDEST DUP2 DUP4 LT PUSH2 0x15AD JUMPI POP POP PUSH2 0x1314 SWAP4 POP DUP3 ADD ADD CODESIZE DUP1 PUSH2 0x1306 JUMP JUMPDEST DUP6 SLOAD DUP9 DUP5 ADD DUP6 ADD MSTORE SWAP5 DUP6 ADD SWAP5 DUP8 SWAP5 POP SWAP2 DUP4 ADD SWAP2 PUSH2 0x1595 JUMP JUMPDEST SWAP2 PUSH1 0x7F AND SWAP2 PUSH2 0x1536 JUMP JUMPDEST PUSH1 0x40 MLOAD SWAP1 PUSH1 0x0 PUSH1 0x4 SLOAD SWAP1 PUSH1 0x1 DUP3 DUP2 SHR SWAP1 DUP1 DUP5 AND SWAP4 DUP5 ISZERO PUSH2 0x1679 JUMPI JUMPDEST PUSH1 0x20 SWAP5 DUP6 DUP5 LT DUP2 EQ PUSH2 0x1395 JUMPI DUP4 DUP9 MSTORE DUP8 SWAP5 SWAP4 SWAP3 SWAP2 DUP2 ISZERO PUSH2 0x1375 JUMPI POP PUSH1 0x1 EQ PUSH2 0x161A JUMPI POP POP PUSH2 0x1314 SWAP3 POP SUB DUP4 PUSH2 0x1221 JUMP JUMPDEST SWAP1 SWAP4 SWAP2 POP PUSH1 0x4 PUSH1 0x0 MSTORE PUSH32 0x8A35ACFBC15FF81A39AE7D344FD709F28E8600B4AA8C65C6B64BFE7FE36BD19B SWAP4 PUSH1 0x0 SWAP2 JUMPDEST DUP2 DUP4 LT PUSH2 0x1661 JUMPI POP POP PUSH2 0x1314 SWAP4 POP DUP3 ADD ADD CODESIZE DUP1 PUSH2 0x1306 JUMP JUMPDEST DUP6 SLOAD DUP9 DUP5 ADD DUP6 ADD MSTORE SWAP5 DUP6 ADD SWAP5 DUP8 SWAP5 POP SWAP2 DUP4 ADD SWAP2 PUSH2 0x1649 JUMP JUMPDEST SWAP2 PUSH1 0x7F AND SWAP2 PUSH2 0x15EA JUMP JUMPDEST PUSH1 0x40 MLOAD SWAP1 PUSH1 0x0 PUSH1 0x5 SLOAD SWAP1 PUSH1 0x1 DUP3 DUP2 SHR SWAP1 DUP1 DUP5 AND SWAP4 DUP5 ISZERO PUSH2 0x172D JUMPI JUMPDEST PUSH1 0x20 SWAP5 DUP6 DUP5 LT DUP2 EQ PUSH2 0x1395 JUMPI DUP4 DUP9 MSTORE DUP8 SWAP5 SWAP4 SWAP3 SWAP2 DUP2 ISZERO PUSH2 0x1375 JUMPI POP PUSH1 0x1 EQ PUSH2 0x16CE JUMPI POP POP PUSH2 0x1314 SWAP3 POP SUB DUP4 PUSH2 0x1221 JUMP JUMPDEST SWAP1 SWAP4 SWAP2 POP PUSH1 0x5 PUSH1 0x0 MSTORE PUSH32 0x36B6384B5ECA791C62761152D0C79BB0604C104A5FB6F4EB0703F3154BB3DB0 SWAP4 PUSH1 0x0 SWAP2 JUMPDEST DUP2 DUP4 LT PUSH2 0x1715 JUMPI POP POP PUSH2 0x1314 SWAP4 POP DUP3 ADD ADD CODESIZE DUP1 PUSH2 0x1306 JUMP JUMPDEST DUP6 SLOAD DUP9 DUP5 ADD DUP6 ADD MSTORE SWAP5 DUP6 ADD SWAP5 DUP8 SWAP5 POP SWAP2 DUP4 ADD SWAP2 PUSH2 0x16FD JUMP JUMPDEST SWAP2 PUSH1 0x7F AND SWAP2 PUSH2 0x169E JUMP JUMPDEST PUSH1 0x40 MLOAD SWAP1 PUSH1 0x0 PUSH1 0x8 SLOAD SWAP1 PUSH1 0x1 DUP3 DUP2 SHR SWAP1 DUP1 DUP5 AND SWAP4 DUP5 ISZERO PUSH2 0x17E1 JUMPI JUMPDEST PUSH1 0x20 SWAP5 DUP6 DUP5 LT DUP2 EQ PUSH2 0x1395 JUMPI DUP4 DUP9 MSTORE DUP8 SWAP5 SWAP4 SWAP3 SWAP2 DUP2 ISZERO PUSH2 0x1375 JUMPI POP PUSH1 0x1 EQ PUSH2 0x1782 JUMPI POP POP PUSH2 0x1314 SWAP3 POP SUB DUP4 PUSH2 0x1221 JUMP JUMPDEST SWAP1 SWAP4 SWAP2 POP PUSH1 0x8 PUSH1 0x0 MSTORE PUSH32 0xF3F7A9FE364FAAB93B216DA50A3214154F22A0A2B415B23A84C8169E8B636EE3 SWAP4 PUSH1 0x0 SWAP2 JUMPDEST DUP2 DUP4 LT PUSH2 0x17C9 JUMPI POP POP PUSH2 0x1314 SWAP4 POP DUP3 ADD ADD CODESIZE DUP1 PUSH2 0x1306 JUMP JUMPDEST DUP6 SLOAD DUP9 DUP5 ADD DUP6 ADD MSTORE SWAP5 DUP6 ADD SWAP5 DUP8 SWAP5 POP SWAP2 DUP4 ADD SWAP2 PUSH2 0x17B1 JUMP JUMPDEST SWAP2 PUSH1 0x7F AND SWAP2 PUSH2 0x1752 JUMP JUMPDEST ISZERO PUSH2 0x17F2 JUMPI JUMP JUMPDEST PUSH1 0x40 MLOAD PUSH3 0x461BCD PUSH1 0xE5 SHL DUP2 MSTORE PUSH1 0x20 PUSH1 0x4 DUP3 ADD MSTORE PUSH1 0x19 PUSH1 0x24 DUP3 ADD MSTORE PUSH32 0x4F6E6C792073656C6C65722063616E2063616C6C207468697300000000000000 PUSH1 0x44 DUP3 ADD MSTORE PUSH1 0x64 SWAP1 REVERT JUMPDEST ISZERO PUSH2 0x183E JUMPI JUMP JUMPDEST PUSH1 0x40 MLOAD PUSH3 0x461BCD PUSH1 0xE5 SHL DUP2 MSTORE PUSH1 0x20 PUSH1 0x4 DUP3 ADD MSTORE PUSH1 0x11 PUSH1 0x24 DUP3 ADD MSTORE PUSH17 0x115CD8DC9BDDC81B9BDD08199D5B991959 PUSH1 0x7A SHL PUSH1 0x44 DUP3 ADD MSTORE PUSH1 0x64 SWAP1 REVERT JUMPDEST ISZERO PUSH2 0x187E JUMPI JUMP JUMPDEST PUSH1 0x40 MLOAD PUSH3 0x461BCD PUSH1 0xE5 SHL DUP2 MSTORE PUSH1 0x20 PUSH1 0x4 DUP3 ADD MSTORE PUSH1 0x18 PUSH1 0x24 DUP3 ADD MSTORE PUSH32 0x4F6E6C792062757965722063616E2063616C6C20746869730000000000000000 PUSH1 0x44 DUP3 ADD MSTORE PUSH1 0x64 SWAP1 REVERT JUMPDEST ISZERO PUSH2 0x18CA JUMPI JUMP JUMPDEST PUSH1 0x40 MLOAD PUSH3 0x461BCD PUSH1 0xE5 SHL DUP2 MSTORE PUSH1 0x20 PUSH1 0x4 DUP3 ADD MSTORE PUSH1 0x13 PUSH1 0x24 DUP3 ADD MSTORE PUSH19 0x457363726F77207374696C6C20616374697665 PUSH1 0x68 SHL PUSH1 0x44 DUP3 ADD MSTORE PUSH1 0x64 SWAP1 REVERT JUMPDEST ISZERO PUSH2 0x190C JUMPI JUMP JUMPDEST PUSH1 0x40 MLOAD PUSH3 0x461BCD PUSH1 0xE5 SHL DUP2 MSTORE PUSH1 0x20 PUSH1 0x4 DUP3 ADD MSTORE PUSH1 0x15 PUSH1 0x24 DUP3 ADD MSTORE PUSH21 0x125D195B48185B1C9958591E481C9958D95A5D9959 PUSH1 0x5A SHL PUSH1 0x44 DUP3 ADD MSTORE PUSH1 0x64 SWAP1 REVERT JUMPDEST RETURNDATASIZE ISZERO PUSH2 0x1974 JUMPI RETURNDATASIZE SWAP1 PUSH2 0x195A DUP3 PUSH2 0x1243 JUMP JUMPDEST SWAP2 PUSH2 0x1968 PUSH1 0x40 MLOAD SWAP4 DUP5 PUSH2 0x1221 JUMP JUMPDEST DUP3 MSTORE RETURNDATASIZE PUSH1 0x0 PUSH1 0x20 DUP5 ADD RETURNDATACOPY JUMP JUMPDEST PUSH1 0x60 SWAP1 JUMP JUMPDEST ISZERO PUSH2 0x1980 JUMPI JUMP JUMPDEST PUSH1 0x40 MLOAD PUSH3 0x461BCD PUSH1 0xE5 SHL DUP2 MSTORE PUSH1 0x20 PUSH1 0x4 DUP3 ADD MSTORE PUSH1 0xF PUSH1 0x24 DUP3 ADD MSTORE PUSH15 0x151C985B9CD9995C8819985A5B1959 PUSH1 0x8A SHL PUSH1 0x44 DUP3 ADD MSTORE PUSH1 0x64 SWAP1 REVERT JUMPDEST PUSH1 0x12 SLOAD DUP1 PUSH1 0x1 SHL SWAP1 DUP1 DUP3 DIV PUSH1 0x2 EQ SWAP1 ISZERO OR ISZERO PUSH2 0x904 JUMPI PUSH1 0x64 SWAP1 DIV SWAP1 JUMP INVALID LOG2 PUSH5 0x6970667358 0x22 SLT KECCAK256 BASEFEE 0xC2 0x5C 0xA5 LT SWAP16 0xD4 0xD9 SWAP16 0xAA PUSH12 0x7BB30ACE1BC2D9BB2179B037 SWAP10 BASEFEE 0x4D ORIGIN LT 0xB8 PUSH30 0xDF0364736F6C63430008140033405787FA12A823E0F2B7631CC41B3BA882 DUP12 CALLER 0x21 0xCA DUP2 GT GT STATICCALL PUSH22 0xCD3AA3BB5ACEA66CC928B5EDB82AF9BD49922954155A 0xB7 0xB0 SWAP5 0x26 SWAP5 0xBE LOG4 0xCE PREVRANDAO PUSH7 0x1D9A8736C688F3 0xF7 0xA9 INVALID CALLDATASIZE 0x4F 0xAA 0xB9 EXTCODESIZE 0x21 PUSH14 0xA50A3214154F22A0A2B415B23A84 0xC8 AND SWAP15 DUP12 PUSH4 0x6EE31B68 SELFBALANCE 0xDC PUSH21 0x1A1B0CD08D278845F9D819D87B734759AFB55FE2DE 0x5C 0xB8 0x2A SWAP11 0xE6 PUSH19 0x8D1108E10BCB7C27DDDFC02ED9D693A074039D MUL PUSH13 0xF4EA4240B40F7D581AC8020000 "},"methodIdentifiers":{"auctioneer()":"5ec2c7bf","confirmItemReceived(bool)":"88e7e366","currentPrice()":"9d1b464a","description()":"7284e416","endAuction()":"fe67a54b","endTime()":"3197cbb6","escrow()":"e2fdcc17","escrowBalance()":"e11e1b0c","escrowFunded()":"562e4d38","escrowReleased()":"7b499faa","fundEscrow()":"a5d737ac","getAuctionDetails()":"3a6dcea2","getAuctionPrice()":"4bd25c6f","getCurrentPrice()":"eb91d37e","getEscrowAmount()":"a5e845b4","image()":"f3ccaac0","isCompleted()":"fa391c64","item()":"f2a4a82e","paused()":"5c975abb","placeBid()":"ecfc7ecc","purchases(address)":"842a77d3","raiseDispute(string)":"725a3b4b","resolveDispute(address)":"d8461182","seller()":"08551a53","shipItem(string)":"56eec68d","startingPrice()":"d6fbf202","winner()":"dfbf53ae"}}}}}