{"contracts/Auction.sol":{"Auction":{"abi":[{"anonymous":false,"inputs":[{"indexed":false,"internalType":"uint256","name":"startingPrice","type":"uint256"},{"indexed":false,"internalType":"uint256","name":"endTime","type":"uint256"}],"name":"AuctionCreated","type":"event"},{"anonymous":false,"inputs":[{"indexed":false,"internalType":"address","name":"bidder","type":"address"},{"indexed":false,"internalType":"uint256","name":"amount","type":"uint256"}],"name":"BidPlaced","type":"event"},{"inputs":[],"name":"auctionDetails","outputs":[{"internalType":"address","name":"highestBidder","type":"address"},{"internalType":"uint256","name":"highestBid","type":"uint256"},{"internalType":"uint256","name":"startingPrice","type":"uint256"},{"internalType":"uint256","name":"currentPrice","type":"uint256"},{"internalType":"uint256","name":"endTime","type":"uint256"}],"stateMutability":"view","type":"function"},{"inputs":[],"name":"bid","outputs":[],"stateMutability":"payable","type":"function"},{"inputs":[{"internalType":"uint256","name":"_startingPrice","type":"uint256"},{"internalType":"uint256","name":"_endTime","type":"uint256"}],"name":"createAuction","outputs":[],"stateMutability":"nonpayable","type":"function"}],"evm":{"bytecode":{"linkReferences":{},"object":"60808060405234610016576102ff908161001c8239f35b600080fdfe6080604081815260048036101561001557600080fd5b600092833560e01c9081630121683f146101c7575080630f0e31651461018157631998aeef1461004457600080fd5b8260031936011261017d578054421015610147576003543411156100f75750815482906001600160a01b0316806100c7575b507f3fabff0a9c3ecd6814702e247fa9733e5d0aa69e3a38590f92cb18f623a2254d82336bffffffffffffffffffffffff60a01b84541617835534600155346003558051338152346020820152a180f35b81808092600154908282156100ee575bf1156100e4578138610076565b51903d90823e3d90fd5b506108fc6100d7565b6020608492519162461bcd60e51b8352820152602560248201527f426964206d75737420626520686967686572207468616e2063757272656e7420604482015264707269636560d81b6064820152fd5b6020606492519162461bcd60e51b83528201526011602482015270105d58dd1a5bdb881a185cc8195b991959607a1b6044820152fd5b8280fd5b50903461017d578260031936011261017d5760a092600180851b039054169160015491600254906003549254938151958652602086015284015260608301526080820152f35b848484923461017d578160031936011261017d5783359060243590428211156102885750825160a0810181811067ffffffffffffffff821117610275579582608081937fe00a2da3a0f34a566402a244ab7ec63f8ab7472591cb18edf3269aa00461a41098998852898152896020820152868882015286606082015201526bffffffffffffffffffffffff60a01b87541687558660015583600255836003555582519182526020820152a180f35b634e487b7160e01b865260418752602486fd5b62461bcd60e51b8152602086820152601e60248201527f456e642074696d65206d75737420626520696e207468652066757475726500006044820152606490fdfea2646970667358221220632be6e33034657ade2bcfcad4742eeb99e16b63c213e4e755aaf7073775aeee64736f6c63430008140033","opcodes":"PUSH1 0x80 DUP1 PUSH1 0x40 MSTORE CALLVALUE PUSH2 0x16 JUMPI PUSH2 0x2FF SWAP1 DUP2 PUSH2 0x1C DUP3 CODECOPY RETURN JUMPDEST PUSH1 0x0 DUP1 REVERT INVALID PUSH1 0x80 PUSH1 0x40 DUP2 DUP2 MSTORE PUSH1 0x4 DUP1 CALLDATASIZE LT ISZERO PUSH2 0x15 JUMPI PUSH1 0x0 DUP1 REVERT JUMPDEST PUSH1 0x0 SWAP3 DUP4 CALLDATALOAD PUSH1 0xE0 SHR SWAP1 DUP2 PUSH4 0x121683F EQ PUSH2 0x1C7 JUMPI POP DUP1 PUSH4 0xF0E3165 EQ PUSH2 0x181 JUMPI PUSH4 0x1998AEEF EQ PUSH2 0x44 JUMPI PUSH1 0x0 DUP1 REVERT JUMPDEST DUP3 PUSH1 0x3 NOT CALLDATASIZE ADD SLT PUSH2 0x17D JUMPI DUP1 SLOAD TIMESTAMP LT ISZERO PUSH2 0x147 JUMPI PUSH1 0x3 SLOAD CALLVALUE GT ISZERO PUSH2 0xF7 JUMPI POP DUP2 SLOAD DUP3 SWAP1 PUSH1 0x1 PUSH1 0x1 PUSH1 0xA0 SHL SUB AND DUP1 PUSH2 0xC7 JUMPI JUMPDEST POP PUSH32 0x3FABFF0A9C3ECD6814702E247FA9733E5D0AA69E3A38590F92CB18F623A2254D DUP3 CALLER PUSH12 0xFFFFFFFFFFFFFFFFFFFFFFFF PUSH1 0xA0 SHL DUP5 SLOAD AND OR DUP4 SSTORE CALLVALUE PUSH1 0x1 SSTORE CALLVALUE PUSH1 0x3 SSTORE DUP1 MLOAD CALLER DUP2 MSTORE CALLVALUE PUSH1 0x20 DUP3 ADD MSTORE LOG1 DUP1 RETURN JUMPDEST DUP2 DUP1 DUP1 SWAP3 PUSH1 0x1 SLOAD SWAP1 DUP3 DUP3 ISZERO PUSH2 0xEE JUMPI JUMPDEST CALL ISZERO PUSH2 0xE4 JUMPI DUP2 CODESIZE PUSH2 0x76 JUMP JUMPDEST MLOAD SWAP1 RETURNDATASIZE SWAP1 DUP3 RETURNDATACOPY RETURNDATASIZE SWAP1 REVERT JUMPDEST POP PUSH2 0x8FC PUSH2 0xD7 JUMP JUMPDEST PUSH1 0x20 PUSH1 0x84 SWAP3 MLOAD SWAP2 PUSH3 0x461BCD PUSH1 0xE5 SHL DUP4 MSTORE DUP3 ADD MSTORE PUSH1 0x25 PUSH1 0x24 DUP3 ADD MSTORE PUSH32 0x426964206D75737420626520686967686572207468616E2063757272656E7420 PUSH1 0x44 DUP3 ADD MSTORE PUSH5 0x7072696365 PUSH1 0xD8 SHL PUSH1 0x64 DUP3 ADD MSTORE REVERT JUMPDEST PUSH1 0x20 PUSH1 0x64 SWAP3 MLOAD SWAP2 PUSH3 0x461BCD PUSH1 0xE5 SHL DUP4 MSTORE DUP3 ADD MSTORE PUSH1 0x11 PUSH1 0x24 DUP3 ADD MSTORE PUSH17 0x105D58DD1A5BDB881A185CC8195B991959 PUSH1 0x7A SHL PUSH1 0x44 DUP3 ADD MSTORE REVERT JUMPDEST DUP3 DUP1 REVERT JUMPDEST POP SWAP1 CALLVALUE PUSH2 0x17D JUMPI DUP3 PUSH1 0x3 NOT CALLDATASIZE ADD SLT PUSH2 0x17D JUMPI PUSH1 0xA0 SWAP3 PUSH1 0x1 DUP1 DUP6 SHL SUB SWAP1 SLOAD AND SWAP2 PUSH1 0x1 SLOAD SWAP2 PUSH1 0x2 SLOAD SWAP1 PUSH1 0x3 SLOAD SWAP3 SLOAD SWAP4 DUP2 MLOAD SWAP6 DUP7 MSTORE PUSH1 0x20 DUP7 ADD MSTORE DUP5 ADD MSTORE PUSH1 0x60 DUP4 ADD MSTORE PUSH1 0x80 DUP3 ADD MSTORE RETURN JUMPDEST DUP5 DUP5 DUP5 SWAP3 CALLVALUE PUSH2 0x17D JUMPI DUP2 PUSH1 0x3 NOT CALLDATASIZE ADD SLT PUSH2 0x17D JUMPI DUP4 CALLDATALOAD SWAP1 PUSH1 0x24 CALLDATALOAD SWAP1 TIMESTAMP DUP3 GT ISZERO PUSH2 0x288 JUMPI POP DUP3 MLOAD PUSH1 0xA0 DUP2 ADD DUP2 DUP2 LT PUSH8 0xFFFFFFFFFFFFFFFF DUP3 GT OR PUSH2 0x275 JUMPI SWAP6 DUP3 PUSH1 0x80 DUP2 SWAP4 PUSH32 0xE00A2DA3A0F34A566402A244AB7EC63F8AB7472591CB18EDF3269AA00461A410 SWAP9 SWAP10 DUP9 MSTORE DUP10 DUP2 MSTORE DUP10 PUSH1 0x20 DUP3 ADD MSTORE DUP7 DUP9 DUP3 ADD MSTORE DUP7 PUSH1 0x60 DUP3 ADD MSTORE ADD MSTORE PUSH12 0xFFFFFFFFFFFFFFFFFFFFFFFF PUSH1 0xA0 SHL DUP8 SLOAD AND DUP8 SSTORE DUP7 PUSH1 0x1 SSTORE DUP4 PUSH1 0x2 SSTORE DUP4 PUSH1 0x3 SSTORE SSTORE DUP3 MLOAD SWAP2 DUP3 MSTORE PUSH1 0x20 DUP3 ADD MSTORE LOG1 DUP1 RETURN JUMPDEST PUSH4 0x4E487B71 PUSH1 0xE0 SHL DUP7 MSTORE PUSH1 0x41 DUP8 MSTORE PUSH1 0x24 DUP7 REVERT JUMPDEST PUSH3 0x461BCD PUSH1 0xE5 SHL DUP2 MSTORE PUSH1 0x20 DUP7 DUP3 ADD MSTORE PUSH1 0x1E PUSH1 0x24 DUP3 ADD MSTORE PUSH32 0x456E642074696D65206D75737420626520696E20746865206675747572650000 PUSH1 0x44 DUP3 ADD MSTORE PUSH1 0x64 SWAP1 REVERT INVALID LOG2 PUSH5 0x6970667358 0x22 SLT KECCAK256 PUSH4 0x2BE6E330 CALLVALUE PUSH6 0x7ADE2BCFCAD4 PUSH21 0x2EEB99E16B63C213E4E755AAF7073775AEEE64736F PUSH13 0x63430008140033000000000000 "},"methodIdentifiers":{"auctionDetails()":"0f0e3165","bid()":"1998aeef","createAuction(uint256,uint256)":"0121683f"}}}}}