{"contracts/AuctionFactory.sol":{"AuctionFactory":{"abi":[{"inputs":[],"stateMutability":"nonpayable","type":"constructor"},{"anonymous":false,"inputs":[{"indexed":false,"internalType":"string","name":"id","type":"string"},{"indexed":false,"internalType":"address","name":"creator","type":"address"},{"indexed":false,"internalType":"enum AuctionFactory.AuctionType","name":"auctionType","type":"uint8"},{"indexed":false,"internalType":"uint256","name":"startingPrice","type":"uint256"},{"indexed":false,"internalType":"uint256","name":"startTime","type":"uint256"}],"name":"AuctionCreated","type":"event"},{"anonymous":false,"inputs":[{"indexed":false,"internalType":"string","name":"auctionId","type":"string"},{"indexed":false,"internalType":"address","name":"winner","type":"address"},{"indexed":false,"internalType":"uint256","name":"finalPrice","type":"uint256"}],"name":"AuctionEnded","type":"event"},{"anonymous":false,"inputs":[{"indexed":false,"internalType":"string","name":"auctionId","type":"string"},{"indexed":false,"internalType":"address","name":"bidder","type":"address"},{"indexed":false,"internalType":"uint256","name":"amount","type":"uint256"}],"name":"BidPlaced","type":"event"},{"anonymous":false,"inputs":[{"indexed":true,"internalType":"address","name":"previousOwner","type":"address"},{"indexed":true,"internalType":"address","name":"newOwner","type":"address"}],"name":"OwnershipTransferred","type":"event"},{"inputs":[{"internalType":"uint256","name":"","type":"uint256"}],"name":"auctionIds","outputs":[{"internalType":"string","name":"","type":"string"}],"stateMutability":"view","type":"function"},{"inputs":[{"internalType":"string","name":"","type":"string"}],"name":"auctions","outputs":[{"internalType":"string","name":"id","type":"string"},{"internalType":"address","name":"creator","type":"address"},{"internalType":"uint256","name":"startingPrice","type":"uint256"},{"internalType":"uint256","name":"currentPrice","type":"uint256"},{"internalType":"uint256","name":"duration","type":"uint256"},{"internalType":"uint256","name":"startTime","type":"uint256"},{"internalType":"uint256","name":"endTime","type":"uint256"},{"internalType":"string","name":"description","type":"string"},{"internalType":"string","name":"title","type":"string"},{"internalType":"enum AuctionFactory.AuctionType","name":"auctionType","type":"uint8"},{"internalType":"enum AuctionFactory.AuctionStatus","name":"status","type":"uint8"},{"internalType":"address","name":"highestBidder","type":"address"},{"internalType":"uint256","name":"highestBid","type":"uint256"},{"internalType":"bool","name":"isPhysical","type":"bool"}],"stateMutability":"view","type":"function"},{"inputs":[{"internalType":"string","name":"_id","type":"string"},{"internalType":"uint256","name":"_startingPrice","type":"uint256"},{"internalType":"uint256","name":"_minimumPrice","type":"uint256"},{"internalType":"uint256","name":"_decrementAmount","type":"uint256"},{"internalType":"uint256","name":"_decrementTime","type":"uint256"},{"internalType":"uint256","name":"_duration","type":"uint256"},{"internalType":"string","name":"_description","type":"string"},{"internalType":"string","name":"_title","type":"string"},{"internalType":"string","name":"_itemDescription","type":"string"}],"name":"createDutchAuction","outputs":[],"stateMutability":"nonpayable","type":"function"},{"inputs":[{"internalType":"string","name":"_id","type":"string"},{"internalType":"uint256","name":"_startingPrice","type":"uint256"},{"internalType":"uint256","name":"_duration","type":"uint256"},{"internalType":"string","name":"_description","type":"string"},{"internalType":"string","name":"_title","type":"string"},{"internalType":"string","name":"_itemDescription","type":"string"}],"name":"createEnglishAuction","outputs":[],"stateMutability":"nonpayable","type":"function"},{"inputs":[{"internalType":"string","name":"","type":"string"}],"name":"dutchAuctions","outputs":[{"internalType":"uint256","name":"minimumPrice","type":"uint256"},{"internalType":"uint256","name":"decrementAmount","type":"uint256"},{"internalType":"uint256","name":"decrementTime","type":"uint256"}],"stateMutability":"view","type":"function"},{"inputs":[{"internalType":"string","name":"_id","type":"string"}],"name":"getAuction","outputs":[{"components":[{"internalType":"string","name":"id","type":"string"},{"internalType":"address","name":"creator","type":"address"},{"internalType":"uint256","name":"startingPrice","type":"uint256"},{"internalType":"uint256","name":"currentPrice","type":"uint256"},{"internalType":"uint256","name":"duration","type":"uint256"},{"internalType":"uint256","name":"startTime","type":"uint256"},{"internalType":"uint256","name":"endTime","type":"uint256"},{"internalType":"string","name":"description","type":"string"},{"internalType":"string","name":"title","type":"string"},{"internalType":"enum AuctionFactory.AuctionType","name":"auctionType","type":"uint8"},{"internalType":"enum AuctionFactory.AuctionStatus","name":"status","type":"uint8"},{"internalType":"address","name":"highestBidder","type":"address"},{"internalType":"uint256","name":"highestBid","type":"uint256"},{"internalType":"bool","name":"isPhysical","type":"bool"}],"internalType":"struct AuctionFactory.Auction","name":"","type":"tuple"}],"stateMutability":"view","type":"function"},{"inputs":[],"name":"getAuctionCount","outputs":[{"internalType":"uint256","name":"","type":"uint256"}],"stateMutability":"view","type":"function"},{"inputs":[{"internalType":"string","name":"_auctionId","type":"string"}],"name":"getCurrentPrice","outputs":[{"internalType":"uint256","name":"","type":"uint256"}],"stateMutability":"view","type":"function"},{"inputs":[{"internalType":"string","name":"_id","type":"string"}],"name":"getDutchAuctionDetails","outputs":[{"components":[{"internalType":"uint256","name":"minimumPrice","type":"uint256"},{"internalType":"uint256","name":"decrementAmount","type":"uint256"},{"internalType":"uint256","name":"decrementTime","type":"uint256"}],"internalType":"struct AuctionFactory.DutchAuctionDetails","name":"","type":"tuple"}],"stateMutability":"view","type":"function"},{"inputs":[],"name":"owner","outputs":[{"internalType":"address","name":"","type":"address"}],"stateMutability":"view","type":"function"},{"inputs":[{"internalType":"string","name":"_auctionId","type":"string"}],"name":"placeBid","outputs":[],"stateMutability":"payable","type":"function"},{"inputs":[],"name":"renounceOwnership","outputs":[],"stateMutability":"nonpayable","type":"function"},{"inputs":[{"internalType":"address","name":"newOwner","type":"address"}],"name":"transferOwnership","outputs":[],"stateMutability":"nonpayable","type":"function"}],"evm":{"bytecode":{"linkReferences":{},"object":"6080806040523461005e57600160008181558154336001600160a01b0319821681179093556001600160a01b0316907f8be0079c531659141344cd1fd0a4f28419497f9722a3daafe3b4186f6b6457e09080a361170990816100648239f35b600080fdfe6080604052600436101561001257600080fd5b60003560e01c80632a6433be146110e45780633f309f7514610cc257806342a0f24314610c805780636ec7277e14610bd4578063715018a614610b775780637e8ec4e6146108355780638da5cb5b1461080c5780638f517d9414610798578063b76b16181461063e578063c44e664014610620578063e967e60c14610422578063edd818491461017b5763f2fde38b146100ab57600080fd5b34610176576020366003190112610176576004356001600160a01b0381811691829003610176576100da611353565b811561012257600154826bffffffffffffffffffffffff60a01b821617600155167f8be0079c531659141344cd1fd0a4f28419497f9722a3daafe3b4186f6b6457e0600080a3005b60405162461bcd60e51b815260206004820152602660248201527f4f776e61626c653a206e6577206f776e657220697320746865207a65726f206160448201526564647265737360d01b6064820152608490fd5b600080fd5b34610176576020366003190112610176576004356001600160401b0381116101765760206101b06102289236906004016112e3565b60006101a06040516101c181611187565b6060815282858201528260408201528260608201528260808201528260a08201528260c0820152606060e08201526060610100820152826101208201528261014082015282610160820152826101808201520152816040519382858094519384920161129b565b810160028152030190206040519061023f82611187565b610248816111f5565b825260018101546001600160a01b03166020830152600281015460408301526003810154606083015260048101546080830152600581015460a0830152600681015460c083015261029b600782016111f5565b60e08301526102ac600882016111f5565b6101008301526009810154600260ff8216101561040c5760ff8116610120840152600460ff8260081c16101561040c5760ff918183600b9360081c1661014086015260018060a01b039060101c16610160850152600a81015461018085015201541615156101a08201526040518091602082526101a06103b561033d83516101c060208701526101e08601906112be565b60018060a01b0360208501511660408601526040840151606086015260608401516080860152608084015160a086015260a084015160c086015260c084015160e086015261039e60e085015191601f199283888303016101008901526112be565b9061010085015190868303016101208701526112be565b916103ca610120820151610140860190611339565b6103de610140820151610160860190611346565b6101608101516001600160a01b03166101808581019190915281015182850152015115156101c08301520390f35b634e487b7160e01b600052602160045260246000fd5b602080600319360112610176576004356001600160401b0381116101765761044e9036906004016112e3565b610456611588565b6040518281835161046a818385880161129b565b81016002815203019020916009830180549060ff8260081c16600481101561040c576001036105e35760068501544210156105aa57600385019182543411156105775760101c6001600160a01b03168061053a575b815462010000600160b01b0319163360101b62010000600160b01b03161782557f027aaa4de8a8577ab88766593b19e891945e65f7d03ad3551436d3db7feed2336105248686868a600a349101553490556040519283926060845260608401906112be565b9033908301523460408301520390a16001600055005b600080808093600a8a999897969901549082821561056e575bf11561056257909192856104bf565b6040513d6000823e3d90fd5b506108fc610553565b60405162461bcd60e51b815260048101859052600b60248201526a42696420746f6f206c6f7760a81b6044820152606490fd5b60405162461bcd60e51b8152600481018490526011602482015270105d58dd1a5bdb881a185cc8195b991959607a1b6044820152606490fd5b60405162461bcd60e51b815260048101849052601560248201527441756374696f6e206973206e6f742061637469766560581b6044820152606490fd5b34610176576000366003190112610176576020600454604051908152f35b34610176576020366003190112610176576004356001600160401b0381116101765761066e9036906004016112e3565b60405181818093516020819301916106859261129b565b81016002815203602001902061069a816111f5565b60018201546002830154600384015460048501546005860154600687015493966001600160a01b0395861696929593949093926106d9600786016111f5565b916106e6600887016111f5565b93600987015498600a88015497600b015460ff16986040519c8d9c8d966101c08089528801610714916112be565b966020015260408d015260608c015260808b015260a08a015260c089015287810360e0890152610743916112be565b868103610100880152610755916112be565b93610767610120870160ff8316611339565b61077c610140870160ff600884901c16611346565b60101c1661016085015261018084015215156101a08301520390f35b34610176576020366003190112610176576004356001600160401b038111610176576107e260206107cf60609336906004016112e3565b816040519382858094519384920161129b565b81016003815203019020805490600260018201549101549060405192835260208301526040820152f35b34610176576000366003190112610176576001546040516001600160a01b039091168152602090f35b346101765760c0366003190112610176576001600160401b03600435818111610176576108669036906004016112e3565b906024359160443591606435818111610176576108879036906004016112e3565b6084358281116101765761089f9036906004016112e3565b9160a435908111610176576108b89036906004016112e3565b506108c1611588565b8415610b24578315610adf576108d9835115156113ab565b6108e384426113ec565b604051946108f086611187565b84865233602087015286604087015286606087015260808601524260a086015260c085015260e0840152610100830152600061012083015260016101408301526000610160830152600061018083015260006101a0830152604051602081835161095d818385880161129b565b810160028152030190209261097383518561140f565b60208301516001850180546001600160a01b0319166001600160a01b0392831617905560408401516002860155606084015160038601556080840151600486015560a0840151600586015560c0840151600686015560e08401519093906109dd906007870161140f565b6109ef6101008201516008870161140f565b6101208101516009860195600282101561040c57865490610140840151600481101561040c576101608501516001600160b01b031990931660ff9094169390931760089390931b61ff001692909217951660101b62010000600160b01b0316949094179094557fefd82ec3b7bf59ce1807cf373242f443626ad30b23b093d3b3934c6b76d6555c93610abc936101a090600b90610180840151600a82015501910151151560ff80198354169116179055610aa88261151e565b60405192839260a0845260a08401906112be565b903360208401526000604084015260608301524260808301520390a16001600055005b60405162461bcd60e51b815260206004820152601f60248201527f4475726174696f6e206d7573742062652067726561746572207468616e2030006044820152606490fd5b60405162461bcd60e51b815260206004820152602560248201527f5374617274696e67207072696365206d75737420626520677265617465722074604482015264068616e20360dc1b6064820152608490fd5b3461017657600036600319011261017657610b90611353565b600180546001600160a01b031981169091556000906001600160a01b03167f8be0079c531659141344cd1fd0a4f28419497f9722a3daafe3b4186f6b6457e08280a3005b346101765760208060031936011261017657600435906001600160401b03821161017657610c3881610c0c60609436906004016112e3565b600060408051610c1b816111b9565b82815282858201520152816040519382858094519384920161129b565b810160038152030190209060405190610c50826111b9565b82549283835260406002600183015492848601938452015493019283526040519384525190830152516040820152f35b34610176576020366003190112610176576004356001600160401b03811161017657610cba610cb560209236906004016112e3565b6115eb565b604051908152f35b3461017657610120366003190112610176576001600160401b0360043581811161017657610cf49036906004016112e3565b9060c43581811161017657610d0d9036906004016112e3565b9060e43581811161017657610d269036906004016112e3565b906101043590811161017657610d409036906004016112e3565b50610d49611588565b604435602435111561108557606435156110305760843515610fdd57610d71835115156113ab565b610d7d60a435426113ec565b9160405192610d8b84611187565b8484523360208501526024356040850152602435606085015260a43560808501524260a085015260c084015260e0830152610100820152600161012082015260016101408201526000610160820152600061018082015260006101a082015260405191610df7836111b9565b6044358352606435602084015260843560408401526040516020818351610e21818385880161129b565b8101600281520301902092610e3783518561140f565b6001840160018060a01b036020850151166bffffffffffffffffffffffff60a01b82541617905560408301516002850155606083015160038501556080830151600485015560a0830151600585015560c08301516006850155610ea160e08401516007860161140f565b610eb36101008401516008860161140f565b61012083015192600284101561040c576009850154610140820151600481101561040c576101608301516001600160b01b031990921660ff9096169590951760089590951b61ff00169490941760109490941b62010000600160b01b03169390931760098501557fefd82ec3b7bf59ce1807cf373242f443626ad30b23b093d3b3934c6b76d6555c93610fb893906101a090600b90610180840151600a82015501910151151560ff801983541691161790556002604080516020818651610f7d8183858b0161129b565b810160038152030190209280518455602081015160018501550151910155610fa48161151e565b60405191829160a0835260a08301906112be565b3360208301526001604083015260243560608301524260808301520390a16001600055005b60405162461bcd60e51b815260206004820152602560248201527f44656372656d656e742074696d65206d75737420626520677265617465722074604482015264068616e20360dc1b6064820152608490fd5b60405162461bcd60e51b815260206004820152602760248201527f44656372656d656e7420616d6f756e74206d75737420626520677265617465726044820152660207468616e20360cc1b6064820152608490fd5b60405162461bcd60e51b815260206004820152603160248201527f5374617274696e67207072696365206d7573742062652067726561746572207460448201527068616e206d696e696d756d20707269636560781b6064820152608490fd5b3461017657602036600319011261017657600435600454811015610176576111356111499160046000527f8a35acfbc15ff81a39ae7d344fd709f28e8600b4aa8c65c6b64bfe7fe36bd19b016111f5565b6040519182916020835260208301906112be565b0390f35b90600182811c9216801561117d575b602083101461116757565b634e487b7160e01b600052602260045260246000fd5b91607f169161115c565b6101c081019081106001600160401b038211176111a357604052565b634e487b7160e01b600052604160045260246000fd5b606081019081106001600160401b038211176111a357604052565b90601f801991011681019081106001600160401b038211176111a357604052565b90604051918260008254926112098461114d565b9081845260019485811690816000146112785750600114611235575b5050611233925003836111d4565b565b9093915060005260209081600020936000915b81831061126057505061123393508201013880611225565b85548884018501529485019487945091830191611248565b91505061123394506020925060ff191682840152151560051b8201013880611225565b60005b8381106112ae5750506000910152565b818101518382015260200161129e565b906020916112d78151809281855285808601910161129b565b601f01601f1916010190565b81601f82011215610176578035906001600160401b0382116111a35760405192611317601f8401601f1916602001856111d4565b8284526020838301011161017657816000926020809301838601378301015290565b90600282101561040c5752565b90600482101561040c5752565b6001546001600160a01b0316330361136757565b606460405162461bcd60e51b815260206004820152602060248201527f4f776e61626c653a2063616c6c6572206973206e6f7420746865206f776e65726044820152fd5b156113b257565b60405162461bcd60e51b815260206004820152601260248201527149442063616e6e6f7420626520656d70747960701b6044820152606490fd5b919082018092116113f957565b634e487b7160e01b600052601160045260246000fd5b91909182516001600160401b0381116111a35761142c825461114d565b601f81116114d6575b50602080601f8311600114611472575081929394600092611467575b50508160011b916000199060031b1c1916179055565b015190503880611451565b90601f198316958460005282600020926000905b8882106114be575050836001959697106114a5575b505050811b019055565b015160001960f88460031b161c1916905538808061149b565b80600185968294968601518155019501930190611486565b600083815260208120601f840160051c81019260208510611514575b601f0160051c01915b828110611509575050611435565b8181556001016114fb565b90925082906114f2565b60045490680100000000000000008210156111a3576001820180600455821015611572576112339160046000527f8a35acfbc15ff81a39ae7d344fd709f28e8600b4aa8c65c6b64bfe7fe36bd19b0161140f565b634e487b7160e01b600052603260045260246000fd5b600260005414611599576002600055565b60405162461bcd60e51b815260206004820152601f60248201527f5265656e7472616e637947756172643a207265656e7472616e742063616c6c006044820152606490fd5b919082039182116113f957565b6040518151906020818185019361160381838761129b565b810160028152030190209160ff600984015416600281101561040c5760011461162f5750506003015490565b6116479160209160405193849283925192839161129b565b81016003815203019020906116606005820154426115de565b60028301549081156116bd5704906001830154918281029281840414901517156113f957600201548181118015906116aa575b6116a4576116a192506115de565b90565b50505490565b506116b582826115de565b835411611693565b634e487b7160e01b600052601260045260246000fdfea2646970667358221220559302e95be499c1ac1971fc96940b73fdb4851c8c2cc165f005ed8b04ace10464736f6c63430008140033","opcodes":"PUSH1 0x80 DUP1 PUSH1 0x40 MSTORE CALLVALUE PUSH2 0x5E JUMPI PUSH1 0x1 PUSH1 0x0 DUP2 DUP2 SSTORE DUP2 SLOAD CALLER PUSH1 0x1 PUSH1 0x1 PUSH1 0xA0 SHL SUB NOT DUP3 AND DUP2 OR SWAP1 SWAP4 SSTORE PUSH1 0x1 PUSH1 0x1 PUSH1 0xA0 SHL SUB AND SWAP1 PUSH32 0x8BE0079C531659141344CD1FD0A4F28419497F9722A3DAAFE3B4186F6B6457E0 SWAP1 DUP1 LOG3 PUSH2 0x1709 SWAP1 DUP2 PUSH2 0x64 DUP3 CODECOPY RETURN JUMPDEST PUSH1 0x0 DUP1 REVERT INVALID PUSH1 0x80 PUSH1 0x40 MSTORE PUSH1 0x4 CALLDATASIZE LT ISZERO PUSH2 0x12 JUMPI PUSH1 0x0 DUP1 REVERT JUMPDEST PUSH1 0x0 CALLDATALOAD PUSH1 0xE0 SHR DUP1 PUSH4 0x2A6433BE EQ PUSH2 0x10E4 JUMPI DUP1 PUSH4 0x3F309F75 EQ PUSH2 0xCC2 JUMPI DUP1 PUSH4 0x42A0F243 EQ PUSH2 0xC80 JUMPI DUP1 PUSH4 0x6EC7277E EQ PUSH2 0xBD4 JUMPI DUP1 PUSH4 0x715018A6 EQ PUSH2 0xB77 JUMPI DUP1 PUSH4 0x7E8EC4E6 EQ PUSH2 0x835 JUMPI DUP1 PUSH4 0x8DA5CB5B EQ PUSH2 0x80C JUMPI DUP1 PUSH4 0x8F517D94 EQ PUSH2 0x798 JUMPI DUP1 PUSH4 0xB76B1618 EQ PUSH2 0x63E JUMPI DUP1 PUSH4 0xC44E6640 EQ PUSH2 0x620 JUMPI DUP1 PUSH4 0xE967E60C EQ PUSH2 0x422 JUMPI DUP1 PUSH4 0xEDD81849 EQ PUSH2 0x17B JUMPI PUSH4 0xF2FDE38B EQ PUSH2 0xAB JUMPI PUSH1 0x0 DUP1 REVERT JUMPDEST CALLVALUE PUSH2 0x176 JUMPI PUSH1 0x20 CALLDATASIZE PUSH1 0x3 NOT ADD SLT PUSH2 0x176 JUMPI PUSH1 0x4 CALLDATALOAD PUSH1 0x1 PUSH1 0x1 PUSH1 0xA0 SHL SUB DUP2 DUP2 AND SWAP2 DUP3 SWAP1 SUB PUSH2 0x176 JUMPI PUSH2 0xDA PUSH2 0x1353 JUMP JUMPDEST DUP2 ISZERO PUSH2 0x122 JUMPI PUSH1 0x1 SLOAD DUP3 PUSH12 0xFFFFFFFFFFFFFFFFFFFFFFFF PUSH1 0xA0 SHL DUP3 AND OR PUSH1 0x1 SSTORE AND PUSH32 0x8BE0079C531659141344CD1FD0A4F28419497F9722A3DAAFE3B4186F6B6457E0 PUSH1 0x0 DUP1 LOG3 STOP JUMPDEST PUSH1 0x40 MLOAD PUSH3 0x461BCD PUSH1 0xE5 SHL DUP2 MSTORE PUSH1 0x20 PUSH1 0x4 DUP3 ADD MSTORE PUSH1 0x26 PUSH1 0x24 DUP3 ADD MSTORE PUSH32 0x4F776E61626C653A206E6577206F776E657220697320746865207A65726F2061 PUSH1 0x44 DUP3 ADD MSTORE PUSH6 0x646472657373 PUSH1 0xD0 SHL PUSH1 0x64 DUP3 ADD MSTORE PUSH1 0x84 SWAP1 REVERT JUMPDEST PUSH1 0x0 DUP1 REVERT JUMPDEST CALLVALUE PUSH2 0x176 JUMPI PUSH1 0x20 CALLDATASIZE PUSH1 0x3 NOT ADD SLT PUSH2 0x176 JUMPI PUSH1 0x4 CALLDATALOAD PUSH1 0x1 PUSH1 0x1 PUSH1 0x40 SHL SUB DUP2 GT PUSH2 0x176 JUMPI PUSH1 0x20 PUSH2 0x1B0 PUSH2 0x228 SWAP3 CALLDATASIZE SWAP1 PUSH1 0x4 ADD PUSH2 0x12E3 JUMP JUMPDEST PUSH1 0x0 PUSH2 0x1A0 PUSH1 0x40 MLOAD PUSH2 0x1C1 DUP2 PUSH2 0x1187 JUMP JUMPDEST PUSH1 0x60 DUP2 MSTORE DUP3 DUP6 DUP3 ADD MSTORE DUP3 PUSH1 0x40 DUP3 ADD MSTORE DUP3 PUSH1 0x60 DUP3 ADD MSTORE DUP3 PUSH1 0x80 DUP3 ADD MSTORE DUP3 PUSH1 0xA0 DUP3 ADD MSTORE DUP3 PUSH1 0xC0 DUP3 ADD MSTORE PUSH1 0x60 PUSH1 0xE0 DUP3 ADD MSTORE PUSH1 0x60 PUSH2 0x100 DUP3 ADD MSTORE DUP3 PUSH2 0x120 DUP3 ADD MSTORE DUP3 PUSH2 0x140 DUP3 ADD MSTORE DUP3 PUSH2 0x160 DUP3 ADD MSTORE DUP3 PUSH2 0x180 DUP3 ADD MSTORE ADD MSTORE DUP2 PUSH1 0x40 MLOAD SWAP4 DUP3 DUP6 DUP1 SWAP5 MLOAD SWAP4 DUP5 SWAP3 ADD PUSH2 0x129B JUMP JUMPDEST DUP2 ADD PUSH1 0x2 DUP2 MSTORE SUB ADD SWAP1 KECCAK256 PUSH1 0x40 MLOAD SWAP1 PUSH2 0x23F DUP3 PUSH2 0x1187 JUMP JUMPDEST PUSH2 0x248 DUP2 PUSH2 0x11F5 JUMP JUMPDEST DUP3 MSTORE PUSH1 0x1 DUP2 ADD SLOAD PUSH1 0x1 PUSH1 0x1 PUSH1 0xA0 SHL SUB AND PUSH1 0x20 DUP4 ADD MSTORE PUSH1 0x2 DUP2 ADD SLOAD PUSH1 0x40 DUP4 ADD MSTORE PUSH1 0x3 DUP2 ADD SLOAD PUSH1 0x60 DUP4 ADD MSTORE PUSH1 0x4 DUP2 ADD SLOAD PUSH1 0x80 DUP4 ADD MSTORE PUSH1 0x5 DUP2 ADD SLOAD PUSH1 0xA0 DUP4 ADD MSTORE PUSH1 0x6 DUP2 ADD SLOAD PUSH1 0xC0 DUP4 ADD MSTORE PUSH2 0x29B PUSH1 0x7 DUP3 ADD PUSH2 0x11F5 JUMP JUMPDEST PUSH1 0xE0 DUP4 ADD MSTORE PUSH2 0x2AC PUSH1 0x8 DUP3 ADD PUSH2 0x11F5 JUMP JUMPDEST PUSH2 0x100 DUP4 ADD MSTORE PUSH1 0x9 DUP2 ADD SLOAD PUSH1 0x2 PUSH1 0xFF DUP3 AND LT ISZERO PUSH2 0x40C JUMPI PUSH1 0xFF DUP2 AND PUSH2 0x120 DUP5 ADD MSTORE PUSH1 0x4 PUSH1 0xFF DUP3 PUSH1 0x8 SHR AND LT ISZERO PUSH2 0x40C JUMPI PUSH1 0xFF SWAP2 DUP2 DUP4 PUSH1 0xB SWAP4 PUSH1 0x8 SHR AND PUSH2 0x140 DUP7 ADD MSTORE PUSH1 0x1 DUP1 PUSH1 0xA0 SHL SUB SWAP1 PUSH1 0x10 SHR AND PUSH2 0x160 DUP6 ADD MSTORE PUSH1 0xA DUP2 ADD SLOAD PUSH2 0x180 DUP6 ADD MSTORE ADD SLOAD AND ISZERO ISZERO PUSH2 0x1A0 DUP3 ADD MSTORE PUSH1 0x40 MLOAD DUP1 SWAP2 PUSH1 0x20 DUP3 MSTORE PUSH2 0x1A0 PUSH2 0x3B5 PUSH2 0x33D DUP4 MLOAD PUSH2 0x1C0 PUSH1 0x20 DUP8 ADD MSTORE PUSH2 0x1E0 DUP7 ADD SWAP1 PUSH2 0x12BE JUMP JUMPDEST PUSH1 0x1 DUP1 PUSH1 0xA0 SHL SUB PUSH1 0x20 DUP6 ADD MLOAD AND PUSH1 0x40 DUP7 ADD MSTORE PUSH1 0x40 DUP5 ADD MLOAD PUSH1 0x60 DUP7 ADD MSTORE PUSH1 0x60 DUP5 ADD MLOAD PUSH1 0x80 DUP7 ADD MSTORE PUSH1 0x80 DUP5 ADD MLOAD PUSH1 0xA0 DUP7 ADD MSTORE PUSH1 0xA0 DUP5 ADD MLOAD PUSH1 0xC0 DUP7 ADD MSTORE PUSH1 0xC0 DUP5 ADD MLOAD PUSH1 0xE0 DUP7 ADD MSTORE PUSH2 0x39E PUSH1 0xE0 DUP6 ADD MLOAD SWAP2 PUSH1 0x1F NOT SWAP3 DUP4 DUP9 DUP4 SUB ADD PUSH2 0x100 DUP10 ADD MSTORE PUSH2 0x12BE JUMP JUMPDEST SWAP1 PUSH2 0x100 DUP6 ADD MLOAD SWAP1 DUP7 DUP4 SUB ADD PUSH2 0x120 DUP8 ADD MSTORE PUSH2 0x12BE JUMP JUMPDEST SWAP2 PUSH2 0x3CA PUSH2 0x120 DUP3 ADD MLOAD PUSH2 0x140 DUP7 ADD SWAP1 PUSH2 0x1339 JUMP JUMPDEST PUSH2 0x3DE PUSH2 0x140 DUP3 ADD MLOAD PUSH2 0x160 DUP7 ADD SWAP1 PUSH2 0x1346 JUMP JUMPDEST PUSH2 0x160 DUP2 ADD MLOAD PUSH1 0x1 PUSH1 0x1 PUSH1 0xA0 SHL SUB AND PUSH2 0x180 DUP6 DUP2 ADD SWAP2 SWAP1 SWAP2 MSTORE DUP2 ADD MLOAD DUP3 DUP6 ADD MSTORE ADD MLOAD ISZERO ISZERO PUSH2 0x1C0 DUP4 ADD MSTORE SUB SWAP1 RETURN JUMPDEST PUSH4 0x4E487B71 PUSH1 0xE0 SHL PUSH1 0x0 MSTORE PUSH1 0x21 PUSH1 0x4 MSTORE PUSH1 0x24 PUSH1 0x0 REVERT JUMPDEST PUSH1 0x20 DUP1 PUSH1 0x3 NOT CALLDATASIZE ADD SLT PUSH2 0x176 JUMPI PUSH1 0x4 CALLDATALOAD PUSH1 0x1 PUSH1 0x1 PUSH1 0x40 SHL SUB DUP2 GT PUSH2 0x176 JUMPI PUSH2 0x44E SWAP1 CALLDATASIZE SWAP1 PUSH1 0x4 ADD PUSH2 0x12E3 JUMP JUMPDEST PUSH2 0x456 PUSH2 0x1588 JUMP JUMPDEST PUSH1 0x40 MLOAD DUP3 DUP2 DUP4 MLOAD PUSH2 0x46A DUP2 DUP4 DUP6 DUP9 ADD PUSH2 0x129B JUMP JUMPDEST DUP2 ADD PUSH1 0x2 DUP2 MSTORE SUB ADD SWAP1 KECCAK256 SWAP2 PUSH1 0x9 DUP4 ADD DUP1 SLOAD SWAP1 PUSH1 0xFF DUP3 PUSH1 0x8 SHR AND PUSH1 0x4 DUP2 LT ISZERO PUSH2 0x40C JUMPI PUSH1 0x1 SUB PUSH2 0x5E3 JUMPI PUSH1 0x6 DUP6 ADD SLOAD TIMESTAMP LT ISZERO PUSH2 0x5AA JUMPI PUSH1 0x3 DUP6 ADD SWAP2 DUP3 SLOAD CALLVALUE GT ISZERO PUSH2 0x577 JUMPI PUSH1 0x10 SHR PUSH1 0x1 PUSH1 0x1 PUSH1 0xA0 SHL SUB AND DUP1 PUSH2 0x53A JUMPI JUMPDEST DUP2 SLOAD PUSH3 0x10000 PUSH1 0x1 PUSH1 0xB0 SHL SUB NOT AND CALLER PUSH1 0x10 SHL PUSH3 0x10000 PUSH1 0x1 PUSH1 0xB0 SHL SUB AND OR DUP3 SSTORE PUSH32 0x27AAA4DE8A8577AB88766593B19E891945E65F7D03AD3551436D3DB7FEED233 PUSH2 0x524 DUP7 DUP7 DUP7 DUP11 PUSH1 0xA CALLVALUE SWAP2 ADD SSTORE CALLVALUE SWAP1 SSTORE PUSH1 0x40 MLOAD SWAP3 DUP4 SWAP3 PUSH1 0x60 DUP5 MSTORE PUSH1 0x60 DUP5 ADD SWAP1 PUSH2 0x12BE JUMP JUMPDEST SWAP1 CALLER SWAP1 DUP4 ADD MSTORE CALLVALUE PUSH1 0x40 DUP4 ADD MSTORE SUB SWAP1 LOG1 PUSH1 0x1 PUSH1 0x0 SSTORE STOP JUMPDEST PUSH1 0x0 DUP1 DUP1 DUP1 SWAP4 PUSH1 0xA DUP11 SWAP10 SWAP9 SWAP8 SWAP7 SWAP10 ADD SLOAD SWAP1 DUP3 DUP3 ISZERO PUSH2 0x56E JUMPI JUMPDEST CALL ISZERO PUSH2 0x562 JUMPI SWAP1 SWAP2 SWAP3 DUP6 PUSH2 0x4BF JUMP JUMPDEST PUSH1 0x40 MLOAD RETURNDATASIZE PUSH1 0x0 DUP3 RETURNDATACOPY RETURNDATASIZE SWAP1 REVERT JUMPDEST POP PUSH2 0x8FC PUSH2 0x553 JUMP JUMPDEST PUSH1 0x40 MLOAD PUSH3 0x461BCD PUSH1 0xE5 SHL DUP2 MSTORE PUSH1 0x4 DUP2 ADD DUP6 SWAP1 MSTORE PUSH1 0xB PUSH1 0x24 DUP3 ADD MSTORE PUSH11 0x42696420746F6F206C6F77 PUSH1 0xA8 SHL PUSH1 0x44 DUP3 ADD MSTORE PUSH1 0x64 SWAP1 REVERT JUMPDEST PUSH1 0x40 MLOAD PUSH3 0x461BCD PUSH1 0xE5 SHL DUP2 MSTORE PUSH1 0x4 DUP2 ADD DUP5 SWAP1 MSTORE PUSH1 0x11 PUSH1 0x24 DUP3 ADD MSTORE PUSH17 0x105D58DD1A5BDB881A185CC8195B991959 PUSH1 0x7A SHL PUSH1 0x44 DUP3 ADD MSTORE PUSH1 0x64 SWAP1 REVERT JUMPDEST PUSH1 0x40 MLOAD PUSH3 0x461BCD PUSH1 0xE5 SHL DUP2 MSTORE PUSH1 0x4 DUP2 ADD DUP5 SWAP1 MSTORE PUSH1 0x15 PUSH1 0x24 DUP3 ADD MSTORE PUSH21 0x41756374696F6E206973206E6F7420616374697665 PUSH1 0x58 SHL PUSH1 0x44 DUP3 ADD MSTORE PUSH1 0x64 SWAP1 REVERT JUMPDEST CALLVALUE PUSH2 0x176 JUMPI PUSH1 0x0 CALLDATASIZE PUSH1 0x3 NOT ADD SLT PUSH2 0x176 JUMPI PUSH1 0x20 PUSH1 0x4 SLOAD PUSH1 0x40 MLOAD SWAP1 DUP2 MSTORE RETURN JUMPDEST CALLVALUE PUSH2 0x176 JUMPI PUSH1 0x20 CALLDATASIZE PUSH1 0x3 NOT ADD SLT PUSH2 0x176 JUMPI PUSH1 0x4 CALLDATALOAD PUSH1 0x1 PUSH1 0x1 PUSH1 0x40 SHL SUB DUP2 GT PUSH2 0x176 JUMPI PUSH2 0x66E SWAP1 CALLDATASIZE SWAP1 PUSH1 0x4 ADD PUSH2 0x12E3 JUMP JUMPDEST PUSH1 0x40 MLOAD DUP2 DUP2 DUP1 SWAP4 MLOAD PUSH1 0x20 DUP2 SWAP4 ADD SWAP2 PUSH2 0x685 SWAP3 PUSH2 0x129B JUMP JUMPDEST DUP2 ADD PUSH1 0x2 DUP2 MSTORE SUB PUSH1 0x20 ADD SWAP1 KECCAK256 PUSH2 0x69A DUP2 PUSH2 0x11F5 JUMP JUMPDEST PUSH1 0x1 DUP3 ADD SLOAD PUSH1 0x2 DUP4 ADD SLOAD PUSH1 0x3 DUP5 ADD SLOAD PUSH1 0x4 DUP6 ADD SLOAD PUSH1 0x5 DUP7 ADD SLOAD PUSH1 0x6 DUP8 ADD SLOAD SWAP4 SWAP7 PUSH1 0x1 PUSH1 0x1 PUSH1 0xA0 SHL SUB SWAP6 DUP7 AND SWAP7 SWAP3 SWAP6 SWAP4 SWAP5 SWAP1 SWAP4 SWAP3 PUSH2 0x6D9 PUSH1 0x7 DUP7 ADD PUSH2 0x11F5 JUMP JUMPDEST SWAP2 PUSH2 0x6E6 PUSH1 0x8 DUP8 ADD PUSH2 0x11F5 JUMP JUMPDEST SWAP4 PUSH1 0x9 DUP8 ADD SLOAD SWAP9 PUSH1 0xA DUP9 ADD SLOAD SWAP8 PUSH1 0xB ADD SLOAD PUSH1 0xFF AND SWAP9 PUSH1 0x40 MLOAD SWAP13 DUP14 SWAP13 DUP14 SWAP7 PUSH2 0x1C0 DUP1 DUP10 MSTORE DUP9 ADD PUSH2 0x714 SWAP2 PUSH2 0x12BE JUMP JUMPDEST SWAP7 PUSH1 0x20 ADD MSTORE PUSH1 0x40 DUP14 ADD MSTORE PUSH1 0x60 DUP13 ADD MSTORE PUSH1 0x80 DUP12 ADD MSTORE PUSH1 0xA0 DUP11 ADD MSTORE PUSH1 0xC0 DUP10 ADD MSTORE DUP8 DUP2 SUB PUSH1 0xE0 DUP10 ADD MSTORE PUSH2 0x743 SWAP2 PUSH2 0x12BE JUMP JUMPDEST DUP7 DUP2 SUB PUSH2 0x100 DUP9 ADD MSTORE PUSH2 0x755 SWAP2 PUSH2 0x12BE JUMP JUMPDEST SWAP4 PUSH2 0x767 PUSH2 0x120 DUP8 ADD PUSH1 0xFF DUP4 AND PUSH2 0x1339 JUMP JUMPDEST PUSH2 0x77C PUSH2 0x140 DUP8 ADD PUSH1 0xFF PUSH1 0x8 DUP5 SWAP1 SHR AND PUSH2 0x1346 JUMP JUMPDEST PUSH1 0x10 SHR AND PUSH2 0x160 DUP6 ADD MSTORE PUSH2 0x180 DUP5 ADD MSTORE ISZERO ISZERO PUSH2 0x1A0 DUP4 ADD MSTORE SUB SWAP1 RETURN JUMPDEST CALLVALUE PUSH2 0x176 JUMPI PUSH1 0x20 CALLDATASIZE PUSH1 0x3 NOT ADD SLT PUSH2 0x176 JUMPI PUSH1 0x4 CALLDATALOAD PUSH1 0x1 PUSH1 0x1 PUSH1 0x40 SHL SUB DUP2 GT PUSH2 0x176 JUMPI PUSH2 0x7E2 PUSH1 0x20 PUSH2 0x7CF PUSH1 0x60 SWAP4 CALLDATASIZE SWAP1 PUSH1 0x4 ADD PUSH2 0x12E3 JUMP JUMPDEST DUP2 PUSH1 0x40 MLOAD SWAP4 DUP3 DUP6 DUP1 SWAP5 MLOAD SWAP4 DUP5 SWAP3 ADD PUSH2 0x129B JUMP JUMPDEST DUP2 ADD PUSH1 0x3 DUP2 MSTORE SUB ADD SWAP1 KECCAK256 DUP1 SLOAD SWAP1 PUSH1 0x2 PUSH1 0x1 DUP3 ADD SLOAD SWAP2 ADD SLOAD SWAP1 PUSH1 0x40 MLOAD SWAP3 DUP4 MSTORE PUSH1 0x20 DUP4 ADD MSTORE PUSH1 0x40 DUP3 ADD MSTORE RETURN JUMPDEST CALLVALUE PUSH2 0x176 JUMPI PUSH1 0x0 CALLDATASIZE PUSH1 0x3 NOT ADD SLT PUSH2 0x176 JUMPI PUSH1 0x1 SLOAD PUSH1 0x40 MLOAD PUSH1 0x1 PUSH1 0x1 PUSH1 0xA0 SHL SUB SWAP1 SWAP2 AND DUP2 MSTORE PUSH1 0x20 SWAP1 RETURN JUMPDEST CALLVALUE PUSH2 0x176 JUMPI PUSH1 0xC0 CALLDATASIZE PUSH1 0x3 NOT ADD SLT PUSH2 0x176 JUMPI PUSH1 0x1 PUSH1 0x1 PUSH1 0x40 SHL SUB PUSH1 0x4 CALLDATALOAD DUP2 DUP2 GT PUSH2 0x176 JUMPI PUSH2 0x866 SWAP1 CALLDATASIZE SWAP1 PUSH1 0x4 ADD PUSH2 0x12E3 JUMP JUMPDEST SWAP1 PUSH1 0x24 CALLDATALOAD SWAP2 PUSH1 0x44 CALLDATALOAD SWAP2 PUSH1 0x64 CALLDATALOAD DUP2 DUP2 GT PUSH2 0x176 JUMPI PUSH2 0x887 SWAP1 CALLDATASIZE SWAP1 PUSH1 0x4 ADD PUSH2 0x12E3 JUMP JUMPDEST PUSH1 0x84 CALLDATALOAD DUP3 DUP2 GT PUSH2 0x176 JUMPI PUSH2 0x89F SWAP1 CALLDATASIZE SWAP1 PUSH1 0x4 ADD PUSH2 0x12E3 JUMP JUMPDEST SWAP2 PUSH1 0xA4 CALLDATALOAD SWAP1 DUP2 GT PUSH2 0x176 JUMPI PUSH2 0x8B8 SWAP1 CALLDATASIZE SWAP1 PUSH1 0x4 ADD PUSH2 0x12E3 JUMP JUMPDEST POP PUSH2 0x8C1 PUSH2 0x1588 JUMP JUMPDEST DUP5 ISZERO PUSH2 0xB24 JUMPI DUP4 ISZERO PUSH2 0xADF JUMPI PUSH2 0x8D9 DUP4 MLOAD ISZERO ISZERO PUSH2 0x13AB JUMP JUMPDEST PUSH2 0x8E3 DUP5 TIMESTAMP PUSH2 0x13EC JUMP JUMPDEST PUSH1 0x40 MLOAD SWAP5 PUSH2 0x8F0 DUP7 PUSH2 0x1187 JUMP JUMPDEST DUP5 DUP7 MSTORE CALLER PUSH1 0x20 DUP8 ADD MSTORE DUP7 PUSH1 0x40 DUP8 ADD MSTORE DUP7 PUSH1 0x60 DUP8 ADD MSTORE PUSH1 0x80 DUP7 ADD MSTORE TIMESTAMP PUSH1 0xA0 DUP7 ADD MSTORE PUSH1 0xC0 DUP6 ADD MSTORE PUSH1 0xE0 DUP5 ADD MSTORE PUSH2 0x100 DUP4 ADD MSTORE PUSH1 0x0 PUSH2 0x120 DUP4 ADD MSTORE PUSH1 0x1 PUSH2 0x140 DUP4 ADD MSTORE PUSH1 0x0 PUSH2 0x160 DUP4 ADD MSTORE PUSH1 0x0 PUSH2 0x180 DUP4 ADD MSTORE PUSH1 0x0 PUSH2 0x1A0 DUP4 ADD MSTORE PUSH1 0x40 MLOAD PUSH1 0x20 DUP2 DUP4 MLOAD PUSH2 0x95D DUP2 DUP4 DUP6 DUP9 ADD PUSH2 0x129B JUMP JUMPDEST DUP2 ADD PUSH1 0x2 DUP2 MSTORE SUB ADD SWAP1 KECCAK256 SWAP3 PUSH2 0x973 DUP4 MLOAD DUP6 PUSH2 0x140F JUMP JUMPDEST PUSH1 0x20 DUP4 ADD MLOAD PUSH1 0x1 DUP6 ADD DUP1 SLOAD PUSH1 0x1 PUSH1 0x1 PUSH1 0xA0 SHL SUB NOT AND PUSH1 0x1 PUSH1 0x1 PUSH1 0xA0 SHL SUB SWAP3 DUP4 AND OR SWAP1 SSTORE PUSH1 0x40 DUP5 ADD MLOAD PUSH1 0x2 DUP7 ADD SSTORE PUSH1 0x60 DUP5 ADD MLOAD PUSH1 0x3 DUP7 ADD SSTORE PUSH1 0x80 DUP5 ADD MLOAD PUSH1 0x4 DUP7 ADD SSTORE PUSH1 0xA0 DUP5 ADD MLOAD PUSH1 0x5 DUP7 ADD SSTORE PUSH1 0xC0 DUP5 ADD MLOAD PUSH1 0x6 DUP7 ADD SSTORE PUSH1 0xE0 DUP5 ADD MLOAD SWAP1 SWAP4 SWAP1 PUSH2 0x9DD SWAP1 PUSH1 0x7 DUP8 ADD PUSH2 0x140F JUMP JUMPDEST PUSH2 0x9EF PUSH2 0x100 DUP3 ADD MLOAD PUSH1 0x8 DUP8 ADD PUSH2 0x140F JUMP JUMPDEST PUSH2 0x120 DUP2 ADD MLOAD PUSH1 0x9 DUP7 ADD SWAP6 PUSH1 0x2 DUP3 LT ISZERO PUSH2 0x40C JUMPI DUP7 SLOAD SWAP1 PUSH2 0x140 DUP5 ADD MLOAD PUSH1 0x4 DUP2 LT ISZERO PUSH2 0x40C JUMPI PUSH2 0x160 DUP6 ADD MLOAD PUSH1 0x1 PUSH1 0x1 PUSH1 0xB0 SHL SUB NOT SWAP1 SWAP4 AND PUSH1 0xFF SWAP1 SWAP5 AND SWAP4 SWAP1 SWAP4 OR PUSH1 0x8 SWAP4 SWAP1 SWAP4 SHL PUSH2 0xFF00 AND SWAP3 SWAP1 SWAP3 OR SWAP6 AND PUSH1 0x10 SHL PUSH3 0x10000 PUSH1 0x1 PUSH1 0xB0 SHL SUB AND SWAP5 SWAP1 SWAP5 OR SWAP1 SWAP5 SSTORE PUSH32 0xEFD82EC3B7BF59CE1807CF373242F443626AD30B23B093D3B3934C6B76D6555C SWAP4 PUSH2 0xABC SWAP4 PUSH2 0x1A0 SWAP1 PUSH1 0xB SWAP1 PUSH2 0x180 DUP5 ADD MLOAD PUSH1 0xA DUP3 ADD SSTORE ADD SWAP2 ADD MLOAD ISZERO ISZERO PUSH1 0xFF DUP1 NOT DUP4 SLOAD AND SWAP2 AND OR SWAP1 SSTORE PUSH2 0xAA8 DUP3 PUSH2 0x151E JUMP JUMPDEST PUSH1 0x40 MLOAD SWAP3 DUP4 SWAP3 PUSH1 0xA0 DUP5 MSTORE PUSH1 0xA0 DUP5 ADD SWAP1 PUSH2 0x12BE JUMP JUMPDEST SWAP1 CALLER PUSH1 0x20 DUP5 ADD MSTORE PUSH1 0x0 PUSH1 0x40 DUP5 ADD MSTORE PUSH1 0x60 DUP4 ADD MSTORE TIMESTAMP PUSH1 0x80 DUP4 ADD MSTORE SUB SWAP1 LOG1 PUSH1 0x1 PUSH1 0x0 SSTORE STOP JUMPDEST PUSH1 0x40 MLOAD PUSH3 0x461BCD PUSH1 0xE5 SHL DUP2 MSTORE PUSH1 0x20 PUSH1 0x4 DUP3 ADD MSTORE PUSH1 0x1F PUSH1 0x24 DUP3 ADD MSTORE PUSH32 0x4475726174696F6E206D7573742062652067726561746572207468616E203000 PUSH1 0x44 DUP3 ADD MSTORE PUSH1 0x64 SWAP1 REVERT JUMPDEST PUSH1 0x40 MLOAD PUSH3 0x461BCD PUSH1 0xE5 SHL DUP2 MSTORE PUSH1 0x20 PUSH1 0x4 DUP3 ADD MSTORE PUSH1 0x25 PUSH1 0x24 DUP3 ADD MSTORE PUSH32 0x5374617274696E67207072696365206D75737420626520677265617465722074 PUSH1 0x44 DUP3 ADD MSTORE PUSH5 0x68616E203 PUSH1 0xDC SHL PUSH1 0x64 DUP3 ADD MSTORE PUSH1 0x84 SWAP1 REVERT JUMPDEST CALLVALUE PUSH2 0x176 JUMPI PUSH1 0x0 CALLDATASIZE PUSH1 0x3 NOT ADD SLT PUSH2 0x176 JUMPI PUSH2 0xB90 PUSH2 0x1353 JUMP JUMPDEST PUSH1 0x1 DUP1 SLOAD PUSH1 0x1 PUSH1 0x1 PUSH1 0xA0 SHL SUB NOT DUP2 AND SWAP1 SWAP2 SSTORE PUSH1 0x0 SWAP1 PUSH1 0x1 PUSH1 0x1 PUSH1 0xA0 SHL SUB AND PUSH32 0x8BE0079C531659141344CD1FD0A4F28419497F9722A3DAAFE3B4186F6B6457E0 DUP3 DUP1 LOG3 STOP JUMPDEST CALLVALUE PUSH2 0x176 JUMPI PUSH1 0x20 DUP1 PUSH1 0x3 NOT CALLDATASIZE ADD SLT PUSH2 0x176 JUMPI PUSH1 0x4 CALLDATALOAD SWAP1 PUSH1 0x1 PUSH1 0x1 PUSH1 0x40 SHL SUB DUP3 GT PUSH2 0x176 JUMPI PUSH2 0xC38 DUP2 PUSH2 0xC0C PUSH1 0x60 SWAP5 CALLDATASIZE SWAP1 PUSH1 0x4 ADD PUSH2 0x12E3 JUMP JUMPDEST PUSH1 0x0 PUSH1 0x40 DUP1 MLOAD PUSH2 0xC1B DUP2 PUSH2 0x11B9 JUMP JUMPDEST DUP3 DUP2 MSTORE DUP3 DUP6 DUP3 ADD MSTORE ADD MSTORE DUP2 PUSH1 0x40 MLOAD SWAP4 DUP3 DUP6 DUP1 SWAP5 MLOAD SWAP4 DUP5 SWAP3 ADD PUSH2 0x129B JUMP JUMPDEST DUP2 ADD PUSH1 0x3 DUP2 MSTORE SUB ADD SWAP1 KECCAK256 SWAP1 PUSH1 0x40 MLOAD SWAP1 PUSH2 0xC50 DUP3 PUSH2 0x11B9 JUMP JUMPDEST DUP3 SLOAD SWAP3 DUP4 DUP4 MSTORE PUSH1 0x40 PUSH1 0x2 PUSH1 0x1 DUP4 ADD SLOAD SWAP3 DUP5 DUP7 ADD SWAP4 DUP5 MSTORE ADD SLOAD SWAP4 ADD SWAP3 DUP4 MSTORE PUSH1 0x40 MLOAD SWAP4 DUP5 MSTORE MLOAD SWAP1 DUP4 ADD MSTORE MLOAD PUSH1 0x40 DUP3 ADD MSTORE RETURN JUMPDEST CALLVALUE PUSH2 0x176 JUMPI PUSH1 0x20 CALLDATASIZE PUSH1 0x3 NOT ADD SLT PUSH2 0x176 JUMPI PUSH1 0x4 CALLDATALOAD PUSH1 0x1 PUSH1 0x1 PUSH1 0x40 SHL SUB DUP2 GT PUSH2 0x176 JUMPI PUSH2 0xCBA PUSH2 0xCB5 PUSH1 0x20 SWAP3 CALLDATASIZE SWAP1 PUSH1 0x4 ADD PUSH2 0x12E3 JUMP JUMPDEST PUSH2 0x15EB JUMP JUMPDEST PUSH1 0x40 MLOAD SWAP1 DUP2 MSTORE RETURN JUMPDEST CALLVALUE PUSH2 0x176 JUMPI PUSH2 0x120 CALLDATASIZE PUSH1 0x3 NOT ADD SLT PUSH2 0x176 JUMPI PUSH1 0x1 PUSH1 0x1 PUSH1 0x40 SHL SUB PUSH1 0x4 CALLDATALOAD DUP2 DUP2 GT PUSH2 0x176 JUMPI PUSH2 0xCF4 SWAP1 CALLDATASIZE SWAP1 PUSH1 0x4 ADD PUSH2 0x12E3 JUMP JUMPDEST SWAP1 PUSH1 0xC4 CALLDATALOAD DUP2 DUP2 GT PUSH2 0x176 JUMPI PUSH2 0xD0D SWAP1 CALLDATASIZE SWAP1 PUSH1 0x4 ADD PUSH2 0x12E3 JUMP JUMPDEST SWAP1 PUSH1 0xE4 CALLDATALOAD DUP2 DUP2 GT PUSH2 0x176 JUMPI PUSH2 0xD26 SWAP1 CALLDATASIZE SWAP1 PUSH1 0x4 ADD PUSH2 0x12E3 JUMP JUMPDEST SWAP1 PUSH2 0x104 CALLDATALOAD SWAP1 DUP2 GT PUSH2 0x176 JUMPI PUSH2 0xD40 SWAP1 CALLDATASIZE SWAP1 PUSH1 0x4 ADD PUSH2 0x12E3 JUMP JUMPDEST POP PUSH2 0xD49 PUSH2 0x1588 JUMP JUMPDEST PUSH1 0x44 CALLDATALOAD PUSH1 0x24 CALLDATALOAD GT ISZERO PUSH2 0x1085 JUMPI PUSH1 0x64 CALLDATALOAD ISZERO PUSH2 0x1030 JUMPI PUSH1 0x84 CALLDATALOAD ISZERO PUSH2 0xFDD JUMPI PUSH2 0xD71 DUP4 MLOAD ISZERO ISZERO PUSH2 0x13AB JUMP JUMPDEST PUSH2 0xD7D PUSH1 0xA4 CALLDATALOAD TIMESTAMP PUSH2 0x13EC JUMP JUMPDEST SWAP2 PUSH1 0x40 MLOAD SWAP3 PUSH2 0xD8B DUP5 PUSH2 0x1187 JUMP JUMPDEST DUP5 DUP5 MSTORE CALLER PUSH1 0x20 DUP6 ADD MSTORE PUSH1 0x24 CALLDATALOAD PUSH1 0x40 DUP6 ADD MSTORE PUSH1 0x24 CALLDATALOAD PUSH1 0x60 DUP6 ADD MSTORE PUSH1 0xA4 CALLDATALOAD PUSH1 0x80 DUP6 ADD MSTORE TIMESTAMP PUSH1 0xA0 DUP6 ADD MSTORE PUSH1 0xC0 DUP5 ADD MSTORE PUSH1 0xE0 DUP4 ADD MSTORE PUSH2 0x100 DUP3 ADD MSTORE PUSH1 0x1 PUSH2 0x120 DUP3 ADD MSTORE PUSH1 0x1 PUSH2 0x140 DUP3 ADD MSTORE PUSH1 0x0 PUSH2 0x160 DUP3 ADD MSTORE PUSH1 0x0 PUSH2 0x180 DUP3 ADD MSTORE PUSH1 0x0 PUSH2 0x1A0 DUP3 ADD MSTORE PUSH1 0x40 MLOAD SWAP2 PUSH2 0xDF7 DUP4 PUSH2 0x11B9 JUMP JUMPDEST PUSH1 0x44 CALLDATALOAD DUP4 MSTORE PUSH1 0x64 CALLDATALOAD PUSH1 0x20 DUP5 ADD MSTORE PUSH1 0x84 CALLDATALOAD PUSH1 0x40 DUP5 ADD MSTORE PUSH1 0x40 MLOAD PUSH1 0x20 DUP2 DUP4 MLOAD PUSH2 0xE21 DUP2 DUP4 DUP6 DUP9 ADD PUSH2 0x129B JUMP JUMPDEST DUP2 ADD PUSH1 0x2 DUP2 MSTORE SUB ADD SWAP1 KECCAK256 SWAP3 PUSH2 0xE37 DUP4 MLOAD DUP6 PUSH2 0x140F JUMP JUMPDEST PUSH1 0x1 DUP5 ADD PUSH1 0x1 DUP1 PUSH1 0xA0 SHL SUB PUSH1 0x20 DUP6 ADD MLOAD AND PUSH12 0xFFFFFFFFFFFFFFFFFFFFFFFF PUSH1 0xA0 SHL DUP3 SLOAD AND OR SWAP1 SSTORE PUSH1 0x40 DUP4 ADD MLOAD PUSH1 0x2 DUP6 ADD SSTORE PUSH1 0x60 DUP4 ADD MLOAD PUSH1 0x3 DUP6 ADD SSTORE PUSH1 0x80 DUP4 ADD MLOAD PUSH1 0x4 DUP6 ADD SSTORE PUSH1 0xA0 DUP4 ADD MLOAD PUSH1 0x5 DUP6 ADD SSTORE PUSH1 0xC0 DUP4 ADD MLOAD PUSH1 0x6 DUP6 ADD SSTORE PUSH2 0xEA1 PUSH1 0xE0 DUP5 ADD MLOAD PUSH1 0x7 DUP7 ADD PUSH2 0x140F JUMP JUMPDEST PUSH2 0xEB3 PUSH2 0x100 DUP5 ADD MLOAD PUSH1 0x8 DUP7 ADD PUSH2 0x140F JUMP JUMPDEST PUSH2 0x120 DUP4 ADD MLOAD SWAP3 PUSH1 0x2 DUP5 LT ISZERO PUSH2 0x40C JUMPI PUSH1 0x9 DUP6 ADD SLOAD PUSH2 0x140 DUP3 ADD MLOAD PUSH1 0x4 DUP2 LT ISZERO PUSH2 0x40C JUMPI PUSH2 0x160 DUP4 ADD MLOAD PUSH1 0x1 PUSH1 0x1 PUSH1 0xB0 SHL SUB NOT SWAP1 SWAP3 AND PUSH1 0xFF SWAP1 SWAP7 AND SWAP6 SWAP1 SWAP6 OR PUSH1 0x8 SWAP6 SWAP1 SWAP6 SHL PUSH2 0xFF00 AND SWAP5 SWAP1 SWAP5 OR PUSH1 0x10 SWAP5 SWAP1 SWAP5 SHL PUSH3 0x10000 PUSH1 0x1 PUSH1 0xB0 SHL SUB AND SWAP4 SWAP1 SWAP4 OR PUSH1 0x9 DUP6 ADD SSTORE PUSH32 0xEFD82EC3B7BF59CE1807CF373242F443626AD30B23B093D3B3934C6B76D6555C SWAP4 PUSH2 0xFB8 SWAP4 SWAP1 PUSH2 0x1A0 SWAP1 PUSH1 0xB SWAP1 PUSH2 0x180 DUP5 ADD MLOAD PUSH1 0xA DUP3 ADD SSTORE ADD SWAP2 ADD MLOAD ISZERO ISZERO PUSH1 0xFF DUP1 NOT DUP4 SLOAD AND SWAP2 AND OR SWAP1 SSTORE PUSH1 0x2 PUSH1 0x40 DUP1 MLOAD PUSH1 0x20 DUP2 DUP7 MLOAD PUSH2 0xF7D DUP2 DUP4 DUP6 DUP12 ADD PUSH2 0x129B JUMP JUMPDEST DUP2 ADD PUSH1 0x3 DUP2 MSTORE SUB ADD SWAP1 KECCAK256 SWAP3 DUP1 MLOAD DUP5 SSTORE PUSH1 0x20 DUP2 ADD MLOAD PUSH1 0x1 DUP6 ADD SSTORE ADD MLOAD SWAP2 ADD SSTORE PUSH2 0xFA4 DUP2 PUSH2 0x151E JUMP JUMPDEST PUSH1 0x40 MLOAD SWAP2 DUP3 SWAP2 PUSH1 0xA0 DUP4 MSTORE PUSH1 0xA0 DUP4 ADD SWAP1 PUSH2 0x12BE JUMP JUMPDEST CALLER PUSH1 0x20 DUP4 ADD MSTORE PUSH1 0x1 PUSH1 0x40 DUP4 ADD MSTORE PUSH1 0x24 CALLDATALOAD PUSH1 0x60 DUP4 ADD MSTORE TIMESTAMP PUSH1 0x80 DUP4 ADD MSTORE SUB SWAP1 LOG1 PUSH1 0x1 PUSH1 0x0 SSTORE STOP JUMPDEST PUSH1 0x40 MLOAD PUSH3 0x461BCD PUSH1 0xE5 SHL DUP2 MSTORE PUSH1 0x20 PUSH1 0x4 DUP3 ADD MSTORE PUSH1 0x25 PUSH1 0x24 DUP3 ADD MSTORE PUSH32 0x44656372656D656E742074696D65206D75737420626520677265617465722074 PUSH1 0x44 DUP3 ADD MSTORE PUSH5 0x68616E203 PUSH1 0xDC SHL PUSH1 0x64 DUP3 ADD MSTORE PUSH1 0x84 SWAP1 REVERT JUMPDEST PUSH1 0x40 MLOAD PUSH3 0x461BCD PUSH1 0xE5 SHL DUP2 MSTORE PUSH1 0x20 PUSH1 0x4 DUP3 ADD MSTORE PUSH1 0x27 PUSH1 0x24 DUP3 ADD MSTORE PUSH32 0x44656372656D656E7420616D6F756E74206D7573742062652067726561746572 PUSH1 0x44 DUP3 ADD MSTORE PUSH7 0x207468616E203 PUSH1 0xCC SHL PUSH1 0x64 DUP3 ADD MSTORE PUSH1 0x84 SWAP1 REVERT JUMPDEST PUSH1 0x40 MLOAD PUSH3 0x461BCD PUSH1 0xE5 SHL DUP2 MSTORE PUSH1 0x20 PUSH1 0x4 DUP3 ADD MSTORE PUSH1 0x31 PUSH1 0x24 DUP3 ADD MSTORE PUSH32 0x5374617274696E67207072696365206D75737420626520677265617465722074 PUSH1 0x44 DUP3 ADD MSTORE PUSH17 0x68616E206D696E696D756D207072696365 PUSH1 0x78 SHL PUSH1 0x64 DUP3 ADD MSTORE PUSH1 0x84 SWAP1 REVERT JUMPDEST CALLVALUE PUSH2 0x176 JUMPI PUSH1 0x20 CALLDATASIZE PUSH1 0x3 NOT ADD SLT PUSH2 0x176 JUMPI PUSH1 0x4 CALLDATALOAD PUSH1 0x4 SLOAD DUP2 LT ISZERO PUSH2 0x176 JUMPI PUSH2 0x1135 PUSH2 0x1149 SWAP2 PUSH1 0x4 PUSH1 0x0 MSTORE PUSH32 0x8A35ACFBC15FF81A39AE7D344FD709F28E8600B4AA8C65C6B64BFE7FE36BD19B ADD PUSH2 0x11F5 JUMP JUMPDEST PUSH1 0x40 MLOAD SWAP2 DUP3 SWAP2 PUSH1 0x20 DUP4 MSTORE PUSH1 0x20 DUP4 ADD SWAP1 PUSH2 0x12BE JUMP JUMPDEST SUB SWAP1 RETURN JUMPDEST SWAP1 PUSH1 0x1 DUP3 DUP2 SHR SWAP3 AND DUP1 ISZERO PUSH2 0x117D JUMPI JUMPDEST PUSH1 0x20 DUP4 LT EQ PUSH2 0x1167 JUMPI JUMP JUMPDEST PUSH4 0x4E487B71 PUSH1 0xE0 SHL PUSH1 0x0 MSTORE PUSH1 0x22 PUSH1 0x4 MSTORE PUSH1 0x24 PUSH1 0x0 REVERT JUMPDEST SWAP2 PUSH1 0x7F AND SWAP2 PUSH2 0x115C JUMP JUMPDEST PUSH2 0x1C0 DUP2 ADD SWAP1 DUP2 LT PUSH1 0x1 PUSH1 0x1 PUSH1 0x40 SHL SUB DUP3 GT OR PUSH2 0x11A3 JUMPI PUSH1 0x40 MSTORE JUMP JUMPDEST PUSH4 0x4E487B71 PUSH1 0xE0 SHL PUSH1 0x0 MSTORE PUSH1 0x41 PUSH1 0x4 MSTORE PUSH1 0x24 PUSH1 0x0 REVERT JUMPDEST PUSH1 0x60 DUP2 ADD SWAP1 DUP2 LT PUSH1 0x1 PUSH1 0x1 PUSH1 0x40 SHL SUB DUP3 GT OR PUSH2 0x11A3 JUMPI PUSH1 0x40 MSTORE JUMP JUMPDEST SWAP1 PUSH1 0x1F DUP1 NOT SWAP2 ADD AND DUP2 ADD SWAP1 DUP2 LT PUSH1 0x1 PUSH1 0x1 PUSH1 0x40 SHL SUB DUP3 GT OR PUSH2 0x11A3 JUMPI PUSH1 0x40 MSTORE JUMP JUMPDEST SWAP1 PUSH1 0x40 MLOAD SWAP2 DUP3 PUSH1 0x0 DUP3 SLOAD SWAP3 PUSH2 0x1209 DUP5 PUSH2 0x114D JUMP JUMPDEST SWAP1 DUP2 DUP5 MSTORE PUSH1 0x1 SWAP5 DUP6 DUP2 AND SWAP1 DUP2 PUSH1 0x0 EQ PUSH2 0x1278 JUMPI POP PUSH1 0x1 EQ PUSH2 0x1235 JUMPI JUMPDEST POP POP PUSH2 0x1233 SWAP3 POP SUB DUP4 PUSH2 0x11D4 JUMP JUMPDEST JUMP JUMPDEST SWAP1 SWAP4 SWAP2 POP PUSH1 0x0 MSTORE PUSH1 0x20 SWAP1 DUP2 PUSH1 0x0 KECCAK256 SWAP4 PUSH1 0x0 SWAP2 JUMPDEST DUP2 DUP4 LT PUSH2 0x1260 JUMPI POP POP PUSH2 0x1233 SWAP4 POP DUP3 ADD ADD CODESIZE DUP1 PUSH2 0x1225 JUMP JUMPDEST DUP6 SLOAD DUP9 DUP5 ADD DUP6 ADD MSTORE SWAP5 DUP6 ADD SWAP5 DUP8 SWAP5 POP SWAP2 DUP4 ADD SWAP2 PUSH2 0x1248 JUMP JUMPDEST SWAP2 POP POP PUSH2 0x1233 SWAP5 POP PUSH1 0x20 SWAP3 POP PUSH1 0xFF NOT AND DUP3 DUP5 ADD MSTORE ISZERO ISZERO PUSH1 0x5 SHL DUP3 ADD ADD CODESIZE DUP1 PUSH2 0x1225 JUMP JUMPDEST PUSH1 0x0 JUMPDEST DUP4 DUP2 LT PUSH2 0x12AE JUMPI POP POP PUSH1 0x0 SWAP2 ADD MSTORE JUMP JUMPDEST DUP2 DUP2 ADD MLOAD DUP4 DUP3 ADD MSTORE PUSH1 0x20 ADD PUSH2 0x129E JUMP JUMPDEST SWAP1 PUSH1 0x20 SWAP2 PUSH2 0x12D7 DUP2 MLOAD DUP1 SWAP3 DUP2 DUP6 MSTORE DUP6 DUP1 DUP7 ADD SWAP2 ADD PUSH2 0x129B JUMP JUMPDEST PUSH1 0x1F ADD PUSH1 0x1F NOT AND ADD ADD SWAP1 JUMP JUMPDEST DUP2 PUSH1 0x1F DUP3 ADD SLT ISZERO PUSH2 0x176 JUMPI DUP1 CALLDATALOAD SWAP1 PUSH1 0x1 PUSH1 0x1 PUSH1 0x40 SHL SUB DUP3 GT PUSH2 0x11A3 JUMPI PUSH1 0x40 MLOAD SWAP3 PUSH2 0x1317 PUSH1 0x1F DUP5 ADD PUSH1 0x1F NOT AND PUSH1 0x20 ADD DUP6 PUSH2 0x11D4 JUMP JUMPDEST DUP3 DUP5 MSTORE PUSH1 0x20 DUP4 DUP4 ADD ADD GT PUSH2 0x176 JUMPI DUP2 PUSH1 0x0 SWAP3 PUSH1 0x20 DUP1 SWAP4 ADD DUP4 DUP7 ADD CALLDATACOPY DUP4 ADD ADD MSTORE SWAP1 JUMP JUMPDEST SWAP1 PUSH1 0x2 DUP3 LT ISZERO PUSH2 0x40C JUMPI MSTORE JUMP JUMPDEST SWAP1 PUSH1 0x4 DUP3 LT ISZERO PUSH2 0x40C JUMPI MSTORE JUMP JUMPDEST PUSH1 0x1 SLOAD PUSH1 0x1 PUSH1 0x1 PUSH1 0xA0 SHL SUB AND CALLER SUB PUSH2 0x1367 JUMPI JUMP JUMPDEST PUSH1 0x64 PUSH1 0x40 MLOAD PUSH3 0x461BCD PUSH1 0xE5 SHL DUP2 MSTORE PUSH1 0x20 PUSH1 0x4 DUP3 ADD MSTORE PUSH1 0x20 PUSH1 0x24 DUP3 ADD MSTORE PUSH32 0x4F776E61626C653A2063616C6C6572206973206E6F7420746865206F776E6572 PUSH1 0x44 DUP3 ADD MSTORE REVERT JUMPDEST ISZERO PUSH2 0x13B2 JUMPI JUMP JUMPDEST PUSH1 0x40 MLOAD PUSH3 0x461BCD PUSH1 0xE5 SHL DUP2 MSTORE PUSH1 0x20 PUSH1 0x4 DUP3 ADD MSTORE PUSH1 0x12 PUSH1 0x24 DUP3 ADD MSTORE PUSH18 0x49442063616E6E6F7420626520656D707479 PUSH1 0x70 SHL PUSH1 0x44 DUP3 ADD MSTORE PUSH1 0x64 SWAP1 REVERT JUMPDEST SWAP2 SWAP1 DUP3 ADD DUP1 SWAP3 GT PUSH2 0x13F9 JUMPI JUMP JUMPDEST PUSH4 0x4E487B71 PUSH1 0xE0 SHL PUSH1 0x0 MSTORE PUSH1 0x11 PUSH1 0x4 MSTORE PUSH1 0x24 PUSH1 0x0 REVERT JUMPDEST SWAP2 SWAP1 SWAP2 DUP3 MLOAD PUSH1 0x1 PUSH1 0x1 PUSH1 0x40 SHL SUB DUP2 GT PUSH2 0x11A3 JUMPI PUSH2 0x142C DUP3 SLOAD PUSH2 0x114D JUMP JUMPDEST PUSH1 0x1F DUP2 GT PUSH2 0x14D6 JUMPI JUMPDEST POP PUSH1 0x20 DUP1 PUSH1 0x1F DUP4 GT PUSH1 0x1 EQ PUSH2 0x1472 JUMPI POP DUP2 SWAP3 SWAP4 SWAP5 PUSH1 0x0 SWAP3 PUSH2 0x1467 JUMPI JUMPDEST POP POP DUP2 PUSH1 0x1 SHL SWAP2 PUSH1 0x0 NOT SWAP1 PUSH1 0x3 SHL SHR NOT AND OR SWAP1 SSTORE JUMP JUMPDEST ADD MLOAD SWAP1 POP CODESIZE DUP1 PUSH2 0x1451 JUMP JUMPDEST SWAP1 PUSH1 0x1F NOT DUP4 AND SWAP6 DUP5 PUSH1 0x0 MSTORE DUP3 PUSH1 0x0 KECCAK256 SWAP3 PUSH1 0x0 SWAP1 JUMPDEST DUP9 DUP3 LT PUSH2 0x14BE JUMPI POP POP DUP4 PUSH1 0x1 SWAP6 SWAP7 SWAP8 LT PUSH2 0x14A5 JUMPI JUMPDEST POP POP POP DUP2 SHL ADD SWAP1 SSTORE JUMP JUMPDEST ADD MLOAD PUSH1 0x0 NOT PUSH1 0xF8 DUP5 PUSH1 0x3 SHL AND SHR NOT AND SWAP1 SSTORE CODESIZE DUP1 DUP1 PUSH2 0x149B JUMP JUMPDEST DUP1 PUSH1 0x1 DUP6 SWAP7 DUP3 SWAP5 SWAP7 DUP7 ADD MLOAD DUP2 SSTORE ADD SWAP6 ADD SWAP4 ADD SWAP1 PUSH2 0x1486 JUMP JUMPDEST PUSH1 0x0 DUP4 DUP2 MSTORE PUSH1 0x20 DUP2 KECCAK256 PUSH1 0x1F DUP5 ADD PUSH1 0x5 SHR DUP2 ADD SWAP3 PUSH1 0x20 DUP6 LT PUSH2 0x1514 JUMPI JUMPDEST PUSH1 0x1F ADD PUSH1 0x5 SHR ADD SWAP2 JUMPDEST DUP3 DUP2 LT PUSH2 0x1509 JUMPI POP POP PUSH2 0x1435 JUMP JUMPDEST DUP2 DUP2 SSTORE PUSH1 0x1 ADD PUSH2 0x14FB JUMP JUMPDEST SWAP1 SWAP3 POP DUP3 SWAP1 PUSH2 0x14F2 JUMP JUMPDEST PUSH1 0x4 SLOAD SWAP1 PUSH9 0x10000000000000000 DUP3 LT ISZERO PUSH2 0x11A3 JUMPI PUSH1 0x1 DUP3 ADD DUP1 PUSH1 0x4 SSTORE DUP3 LT ISZERO PUSH2 0x1572 JUMPI PUSH2 0x1233 SWAP2 PUSH1 0x4 PUSH1 0x0 MSTORE PUSH32 0x8A35ACFBC15FF81A39AE7D344FD709F28E8600B4AA8C65C6B64BFE7FE36BD19B ADD PUSH2 0x140F JUMP JUMPDEST PUSH4 0x4E487B71 PUSH1 0xE0 SHL PUSH1 0x0 MSTORE PUSH1 0x32 PUSH1 0x4 MSTORE PUSH1 0x24 PUSH1 0x0 REVERT JUMPDEST PUSH1 0x2 PUSH1 0x0 SLOAD EQ PUSH2 0x1599 JUMPI PUSH1 0x2 PUSH1 0x0 SSTORE JUMP JUMPDEST PUSH1 0x40 MLOAD PUSH3 0x461BCD PUSH1 0xE5 SHL DUP2 MSTORE PUSH1 0x20 PUSH1 0x4 DUP3 ADD MSTORE PUSH1 0x1F PUSH1 0x24 DUP3 ADD MSTORE PUSH32 0x5265656E7472616E637947756172643A207265656E7472616E742063616C6C00 PUSH1 0x44 DUP3 ADD MSTORE PUSH1 0x64 SWAP1 REVERT JUMPDEST SWAP2 SWAP1 DUP3 SUB SWAP2 DUP3 GT PUSH2 0x13F9 JUMPI JUMP JUMPDEST PUSH1 0x40 MLOAD DUP2 MLOAD SWAP1 PUSH1 0x20 DUP2 DUP2 DUP6 ADD SWAP4 PUSH2 0x1603 DUP2 DUP4 DUP8 PUSH2 0x129B JUMP JUMPDEST DUP2 ADD PUSH1 0x2 DUP2 MSTORE SUB ADD SWAP1 KECCAK256 SWAP2 PUSH1 0xFF PUSH1 0x9 DUP5 ADD SLOAD AND PUSH1 0x2 DUP2 LT ISZERO PUSH2 0x40C JUMPI PUSH1 0x1 EQ PUSH2 0x162F JUMPI POP POP PUSH1 0x3 ADD SLOAD SWAP1 JUMP JUMPDEST PUSH2 0x1647 SWAP2 PUSH1 0x20 SWAP2 PUSH1 0x40 MLOAD SWAP4 DUP5 SWAP3 DUP4 SWAP3 MLOAD SWAP3 DUP4 SWAP2 PUSH2 0x129B JUMP JUMPDEST DUP2 ADD PUSH1 0x3 DUP2 MSTORE SUB ADD SWAP1 KECCAK256 SWAP1 PUSH2 0x1660 PUSH1 0x5 DUP3 ADD SLOAD TIMESTAMP PUSH2 0x15DE JUMP JUMPDEST PUSH1 0x2 DUP4 ADD SLOAD SWAP1 DUP2 ISZERO PUSH2 0x16BD JUMPI DIV SWAP1 PUSH1 0x1 DUP4 ADD SLOAD SWAP2 DUP3 DUP2 MUL SWAP3 DUP2 DUP5 DIV EQ SWAP1 ISZERO OR ISZERO PUSH2 0x13F9 JUMPI PUSH1 0x2 ADD SLOAD DUP2 DUP2 GT DUP1 ISZERO SWAP1 PUSH2 0x16AA JUMPI JUMPDEST PUSH2 0x16A4 JUMPI PUSH2 0x16A1 SWAP3 POP PUSH2 0x15DE JUMP JUMPDEST SWAP1 JUMP JUMPDEST POP POP SLOAD SWAP1 JUMP JUMPDEST POP PUSH2 0x16B5 DUP3 DUP3 PUSH2 0x15DE JUMP JUMPDEST DUP4 SLOAD GT PUSH2 0x1693 JUMP JUMPDEST PUSH4 0x4E487B71 PUSH1 0xE0 SHL PUSH1 0x0 MSTORE PUSH1 0x12 PUSH1 0x4 MSTORE PUSH1 0x24 PUSH1 0x0 REVERT INVALID LOG2 PUSH5 0x6970667358 0x22 SLT KECCAK256 SSTORE SWAP4 MUL 0xE9 JUMPDEST 0xE4 SWAP10 0xC1 0xAC NOT PUSH18 0xFC96940B73FDB4851C8C2CC165F005ED8B04 0xAC 0xE1 DIV PUSH5 0x736F6C6343 STOP ADDMOD EQ STOP CALLER "},"methodIdentifiers":{"auctionIds(uint256)":"2a6433be","auctions(string)":"b76b1618","createDutchAuction(string,uint256,uint256,uint256,uint256,uint256,string,string,string)":"3f309f75","createEnglishAuction(string,uint256,uint256,string,string,string)":"7e8ec4e6","dutchAuctions(string)":"8f517d94","getAuction(string)":"edd81849","getAuctionCount()":"c44e6640","getCurrentPrice(string)":"42a0f243","getDutchAuctionDetails(string)":"6ec7277e","owner()":"8da5cb5b","placeBid(string)":"e967e60c","renounceOwnership()":"715018a6","transferOwnership(address)":"f2fde38b"}}}}}