{
  "_format": "hh-sol-artifact-1",
  "contractName": "EnglishAuction",
  "sourceName": "contracts/EnglishAuction.sol",
  "abi": [
    {
      "inputs": [
        {
          "internalType": "string",
          "name": "_description",
          "type": "string"
        },
        {
          "internalType": "string",
          "name": "_image",
          "type": "string"
        },
        {
          "internalType": "uint256",
          "name": "_startingPrice",
          "type": "uint256"
        },
        {
          "internalType": "uint256",
          "name": "_duration",
          "type": "uint256"
        },
        {
          "internalType": "string",
          "name": "_name",
          "type": "string"
        },
        {
          "internalType": "string",
          "name": "_itemDescription",
          "type": "string"
        },
        {
          "internalType": "string",
          "name": "_condition",
          "type": "string"
        },
        {
          "internalType": "string",
          "name": "_dimensions",
          "type": "string"
        },
        {
          "internalType": "uint256",
          "name": "_weight",
          "type": "uint256"
        },
        {
          "internalType": "string[]",
          "name": "_images",
          "type": "string[]"
        },
        {
          "internalType": "string",
          "name": "_shippingAddress",
          "type": "string"
        },
        {
          "internalType": "bool",
          "name": "_isPhysical",
          "type": "bool"
        }
      ],
      "stateMutability": "nonpayable",
      "type": "constructor"
    },
    {
      "anonymous": false,
      "inputs": [
        {
          "indexed": true,
          "internalType": "address",
          "name": "seller",
          "type": "address"
        },
        {
          "indexed": false,
          "internalType": "uint256",
          "name": "startingPrice",
          "type": "uint256"
        },
        {
          "indexed": false,
          "internalType": "uint256",
          "name": "duration",
          "type": "uint256"
        },
        {
          "indexed": false,
          "internalType": "string",
          "name": "description",
          "type": "string"
        }
      ],
      "name": "AuctionCreated",
      "type": "event"
    },
    {
      "anonymous": false,
      "inputs": [
        {
          "indexed": true,
          "internalType": "address",
          "name": "winner",
          "type": "address"
        },
        {
          "indexed": false,
          "internalType": "uint256",
          "name": "amount",
          "type": "uint256"
        }
      ],
      "name": "AuctionEnded",
      "type": "event"
    },
    {
      "anonymous": false,
      "inputs": [
        {
          "indexed": true,
          "internalType": "address",
          "name": "bidder",
          "type": "address"
        },
        {
          "indexed": false,
          "internalType": "uint256",
          "name": "amount",
          "type": "uint256"
        }
      ],
      "name": "BidPlaced",
      "type": "event"
    },
    {
      "anonymous": false,
      "inputs": [
        {
          "indexed": true,
          "internalType": "address",
          "name": "buyer",
          "type": "address"
        },
        {
          "indexed": false,
          "internalType": "string",
          "name": "reason",
          "type": "string"
        }
      ],
      "name": "DisputeRaised",
      "type": "event"
    },
    {
      "anonymous": false,
      "inputs": [
        {
          "indexed": true,
          "internalType": "address",
          "name": "winner",
          "type": "address"
        },
        {
          "indexed": false,
          "internalType": "uint256",
          "name": "amount",
          "type": "uint256"
        }
      ],
      "name": "DisputeResolved",
      "type": "event"
    },
    {
      "anonymous": false,
      "inputs": [
        {
          "indexed": true,
          "internalType": "address",
          "name": "escrowAgent",
          "type": "address"
        },
        {
          "indexed": false,
          "internalType": "uint256",
          "name": "escrowFee",
          "type": "uint256"
        }
      ],
      "name": "EscrowCreated",
      "type": "event"
    },
    {
      "anonymous": false,
      "inputs": [
        {
          "indexed": false,
          "internalType": "uint256",
          "name": "amount",
          "type": "uint256"
        }
      ],
      "name": "EscrowFunded",
      "type": "event"
    },
    {
      "anonymous": false,
      "inputs": [
        {
          "indexed": true,
          "internalType": "address",
          "name": "buyer",
          "type": "address"
        },
        {
          "indexed": false,
          "internalType": "uint256",
          "name": "amount",
          "type": "uint256"
        }
      ],
      "name": "EscrowRefunded",
      "type": "event"
    },
    {
      "anonymous": false,
      "inputs": [
        {
          "indexed": true,
          "internalType": "address",
          "name": "seller",
          "type": "address"
        },
        {
          "indexed": false,
          "internalType": "uint256",
          "name": "amount",
          "type": "uint256"
        }
      ],
      "name": "EscrowReleased",
      "type": "event"
    },
    {
      "anonymous": false,
      "inputs": [
        {
          "indexed": true,
          "internalType": "address",
          "name": "buyer",
          "type": "address"
        },
        {
          "indexed": false,
          "internalType": "bool",
          "name": "conditionMet",
          "type": "bool"
        }
      ],
      "name": "ItemReceived",
      "type": "event"
    },
    {
      "anonymous": false,
      "inputs": [
        {
          "indexed": true,
          "internalType": "address",
          "name": "seller",
          "type": "address"
        },
        {
          "indexed": false,
          "internalType": "string",
          "name": "trackingNumber",
          "type": "string"
        }
      ],
      "name": "ItemShipped",
      "type": "event"
    },
    {
      "anonymous": false,
      "inputs": [
        {
          "indexed": false,
          "internalType": "address",
          "name": "account",
          "type": "address"
        }
      ],
      "name": "Paused",
      "type": "event"
    },
    {
      "anonymous": false,
      "inputs": [
        {
          "indexed": false,
          "internalType": "address",
          "name": "account",
          "type": "address"
        }
      ],
      "name": "Unpaused",
      "type": "event"
    },
    {
      "inputs": [],
      "name": "auctioneer",
      "outputs": [
        {
          "internalType": "address",
          "name": "",
          "type": "address"
        }
      ],
      "stateMutability": "view",
      "type": "function"
    },
    {
      "inputs": [
        {
          "internalType": "bool",
          "name": "conditionMet",
          "type": "bool"
        }
      ],
      "name": "confirmItemReceived",
      "outputs": [],
      "stateMutability": "nonpayable",
      "type": "function"
    },
    {
      "inputs": [],
      "name": "currentPrice",
      "outputs": [
        {
          "internalType": "uint256",
          "name": "",
          "type": "uint256"
        }
      ],
      "stateMutability": "view",
      "type": "function"
    },
    {
      "inputs": [],
      "name": "description",
      "outputs": [
        {
          "internalType": "string",
          "name": "",
          "type": "string"
        }
      ],
      "stateMutability": "view",
      "type": "function"
    },
    {
      "inputs": [],
      "name": "endAuction",
      "outputs": [],
      "stateMutability": "nonpayable",
      "type": "function"
    },
    {
      "inputs": [],
      "name": "endTime",
      "outputs": [
        {
          "internalType": "uint256",
          "name": "",
          "type": "uint256"
        }
      ],
      "stateMutability": "view",
      "type": "function"
    },
    {
      "inputs": [],
      "name": "escrow",
      "outputs": [
        {
          "internalType": "bool",
          "name": "isActive",
          "type": "bool"
        },
        {
          "internalType": "address",
          "name": "escrowAgent",
          "type": "address"
        },
        {
          "internalType": "uint256",
          "name": "escrowFee",
          "type": "uint256"
        },
        {
          "internalType": "bool",
          "name": "itemReceived",
          "type": "bool"
        },
        {
          "internalType": "bool",
          "name": "paymentReleased",
          "type": "bool"
        }
      ],
      "stateMutability": "view",
      "type": "function"
    },
    {
      "inputs": [],
      "name": "escrowBalance",
      "outputs": [
        {
          "internalType": "uint256",
          "name": "",
          "type": "uint256"
        }
      ],
      "stateMutability": "view",
      "type": "function"
    },
    {
      "inputs": [],
      "name": "escrowFunded",
      "outputs": [
        {
          "internalType": "bool",
          "name": "",
          "type": "bool"
        }
      ],
      "stateMutability": "view",
      "type": "function"
    },
    {
      "inputs": [],
      "name": "escrowReleased",
      "outputs": [
        {
          "internalType": "bool",
          "name": "",
          "type": "bool"
        }
      ],
      "stateMutability": "view",
      "type": "function"
    },
    {
      "inputs": [],
      "name": "fundEscrow",
      "outputs": [],
      "stateMutability": "payable",
      "type": "function"
    },
    {
      "inputs": [],
      "name": "getAuctionDetails",
      "outputs": [
        {
          "internalType": "address",
          "name": "sellerAddr",
          "type": "address"
        },
        {
          "internalType": "string",
          "name": "desc",
          "type": "string"
        },
        {
          "internalType": "string",
          "name": "img",
          "type": "string"
        },
        {
          "internalType": "uint256",
          "name": "auctionPrice",
          "type": "uint256"
        },
        {
          "internalType": "uint256",
          "name": "auctionEndTime",
          "type": "uint256"
        },
        {
          "internalType": "bool",
          "name": "completed",
          "type": "bool"
        },
        {
          "internalType": "address",
          "name": "winnerAddr",
          "type": "address"
        },
        {
          "components": [
            {
              "internalType": "string",
              "name": "name",
              "type": "string"
            },
            {
              "internalType": "string",
              "name": "description",
              "type": "string"
            },
            {
              "internalType": "string",
              "name": "condition",
              "type": "string"
            },
            {
              "internalType": "string",
              "name": "dimensions",
              "type": "string"
            },
            {
              "internalType": "uint256",
              "name": "weight",
              "type": "uint256"
            },
            {
              "internalType": "string[]",
              "name": "images",
              "type": "string[]"
            },
            {
              "internalType": "string",
              "name": "shippingAddress",
              "type": "string"
            },
            {
              "internalType": "bool",
              "name": "isPhysical",
              "type": "bool"
            }
          ],
          "internalType": "struct IAuction.PhysicalItem",
          "name": "physicalItem",
          "type": "tuple"
        },
        {
          "components": [
            {
              "internalType": "bool",
              "name": "isActive",
              "type": "bool"
            },
            {
              "internalType": "address",
              "name": "escrowAgent",
              "type": "address"
            },
            {
              "internalType": "uint256",
              "name": "escrowFee",
              "type": "uint256"
            },
            {
              "internalType": "bool",
              "name": "itemReceived",
              "type": "bool"
            },
            {
              "internalType": "bool",
              "name": "paymentReleased",
              "type": "bool"
            }
          ],
          "internalType": "struct IAuction.Escrow",
          "name": "escrowInfo",
          "type": "tuple"
        }
      ],
      "stateMutability": "view",
      "type": "function"
    },
    {
      "inputs": [],
      "name": "getAuctionPrice",
      "outputs": [
        {
          "internalType": "uint256",
          "name": "",
          "type": "uint256"
        }
      ],
      "stateMutability": "view",
      "type": "function"
    },
    {
      "inputs": [],
      "name": "getCurrentPrice",
      "outputs": [
        {
          "internalType": "uint256",
          "name": "",
          "type": "uint256"
        }
      ],
      "stateMutability": "view",
      "type": "function"
    },
    {
      "inputs": [],
      "name": "getEscrowAmount",
      "outputs": [
        {
          "internalType": "uint256",
          "name": "",
          "type": "uint256"
        }
      ],
      "stateMutability": "view",
      "type": "function"
    },
    {
      "inputs": [],
      "name": "image",
      "outputs": [
        {
          "internalType": "string",
          "name": "",
          "type": "string"
        }
      ],
      "stateMutability": "view",
      "type": "function"
    },
    {
      "inputs": [],
      "name": "isCompleted",
      "outputs": [
        {
          "internalType": "bool",
          "name": "",
          "type": "bool"
        }
      ],
      "stateMutability": "view",
      "type": "function"
    },
    {
      "inputs": [],
      "name": "item",
      "outputs": [
        {
          "internalType": "string",
          "name": "name",
          "type": "string"
        },
        {
          "internalType": "string",
          "name": "description",
          "type": "string"
        },
        {
          "internalType": "string",
          "name": "condition",
          "type": "string"
        },
        {
          "internalType": "string",
          "name": "dimensions",
          "type": "string"
        },
        {
          "internalType": "uint256",
          "name": "weight",
          "type": "uint256"
        },
        {
          "internalType": "string",
          "name": "shippingAddress",
          "type": "string"
        },
        {
          "internalType": "bool",
          "name": "isPhysical",
          "type": "bool"
        }
      ],
      "stateMutability": "view",
      "type": "function"
    },
    {
      "inputs": [],
      "name": "paused",
      "outputs": [
        {
          "internalType": "bool",
          "name": "",
          "type": "bool"
        }
      ],
      "stateMutability": "view",
      "type": "function"
    },
    {
      "inputs": [],
      "name": "placeBid",
      "outputs": [],
      "stateMutability": "payable",
      "type": "function"
    },
    {
      "inputs": [
        {
          "internalType": "address",
          "name": "",
          "type": "address"
        }
      ],
      "name": "purchases",
      "outputs": [
        {
          "internalType": "uint256",
          "name": "",
          "type": "uint256"
        }
      ],
      "stateMutability": "pure",
      "type": "function"
    },
    {
      "inputs": [
        {
          "internalType": "string",
          "name": "reason",
          "type": "string"
        }
      ],
      "name": "raiseDispute",
      "outputs": [],
      "stateMutability": "nonpayable",
      "type": "function"
    },
    {
      "inputs": [
        {
          "internalType": "address",
          "name": "disputeWinner",
          "type": "address"
        }
      ],
      "name": "resolveDispute",
      "outputs": [],
      "stateMutability": "nonpayable",
      "type": "function"
    },
    {
      "inputs": [],
      "name": "seller",
      "outputs": [
        {
          "internalType": "address",
          "name": "",
          "type": "address"
        }
      ],
      "stateMutability": "view",
      "type": "function"
    },
    {
      "inputs": [
        {
          "internalType": "string",
          "name": "trackingNumber",
          "type": "string"
        }
      ],
      "name": "shipItem",
      "outputs": [],
      "stateMutability": "nonpayable",
      "type": "function"
    },
    {
      "inputs": [],
      "name": "startingPrice",
      "outputs": [
        {
          "internalType": "uint256",
          "name": "",
          "type": "uint256"
        }
      ],
      "stateMutability": "view",
      "type": "function"
    },
    {
      "inputs": [],
      "name": "winner",
      "outputs": [
        {
          "internalType": "address",
          "name": "",
          "type": "address"
        }
      ],
      "stateMutability": "view",
      "type": "function"
    }
  ],
  "bytecode": "0x60806040523462000dc457620029a780380390816200001e8162000e04565b91823961018081838101031262000dc45780516001600160401b03811162000dc457620000519083830190830162000e4f565b60208201519091906001600160401b03811162000dc457620000799084830190830162000e4f565b604082015191606081015191608082015160018060401b03811162000dc457620000a99087840190840162000e4f565b60a08301519092906001600160401b03811162000dc457620000d19088830190830162000e4f565b60c08201519097906001600160401b03811162000dc457620000f99082840190840162000e4f565b60e08301516001600160401b03811162000dc4576200011e9083850190850162000e4f565b610100840151610120850151939092906001600160401b03851162000dc457808601601f86880101121562000dc45785850151946001600160401b038611620006d7578560051b9060206200017581840162000e04565b809881520190838901602084838c0101011162000dc4576020818a0101915b602084838c010101831062000dc95750505050610140860151906001600160401b03821162000dc45761016091620001d191880190880162000e4f565b95015195861515870362000dc4576001600d55600e80546001600160a81b0319163360081b610100600160a81b03161790558a516001600160401b038111620006d75762000221600f5462000ea6565b601f811162000d82575b50806020601f821160011462000d075760009162000cfb575b508160011b916000199060031b1c191617600f555b8051906001600160401b038211620006d75781906200027a60105462000ea6565b601f811162000cb9575b50602090601f831160011462000c3b5760009262000c2f575b50508160011b916000199060031b1c1916176010555b886011558860125587420180421162000c19576013556014805460ff60a01b191690556040519a6001600160401b036101008d01908111908d1117620006d7576101008c01604052878c5260208c015260408b015260608a0152608089015260a088015260c0870152151560e086015280519060018060401b038211620006d75781906200034360025462000ea6565b601f811162000bd7575b50602090601f831160011462000b595760009262000b4d575b50508160011b916000199060031b1c1916176002555b60208401518051906001600160401b038211620006d7578190620003a260035462000ea6565b601f811162000afa575b50602090601f831160011462000a6b5760009262000a5f575b50508160011b916000199060031b1c1916176003555b60408401518051906001600160401b038211620006d75781906200040160045462000ea6565b601f811162000a0c575b50602090601f83116001146200097d5760009262000971575b50508160011b916000199060031b1c1916176004555b60608401518051906001600160401b038211620006d75781906200046060055462000ea6565b601f81116200093a575b50602090601f8311600114620008ab576000926200089f575b50508160011b916000199060031b1c1916176005555b608084015160065560a0840151805190680100000000000000008211620006d7576007548260075580831062000813575b50600760009081526000805160206200292783398151915292916020015b828210620006ed575050505060c08401518051906001600160401b038211620006d7576200051860085462000ea6565b601f811162000689575b50602090601f8311600114620005e95791807fa3d19677a52b6dff051e5813011905526090505e00fcea83c604776ad5ebfd6896979260e094600092620005dd575b50508160011b916000199060031b1c1916176008555b0151151560ff801960095416911617600955604051918252602082015260606040820152620005ba83518094816060850152602060808501910162000e2a565b3392601f01601f1916810181900360800190a2604051611a0a908162000efd8239f35b01519050388062000564565b6008600090815260008051602062002947833981519152929190601f198516905b81811062000670575092600192859260e0967fa3d19677a52b6dff051e5813011905526090505e00fcea83c604776ad5ebfd689a9b961062000656575b505050811b016008556200057a565b015160001960f88460031b161c1916905538808062000647565b929360206001819287860151815501950193016200060a565b6008600052620006c59060008051602062002947833981519152601f850160051c81019160208610620006cc575b601f0160051c019062000ee3565b3862000522565b9091508190620006b7565b634e487b7160e01b600052604160045260246000fd5b80518051906001600160401b038211620006d7576200070d865462000ea6565b601f8111620007dd575b50602090601f8311600114620007685792826001949360209386956000926200075c575b5050600019600383901b1c191690841b1787555b01940191019092620004e8565b0151905038806200073b565b908660005260206000209160005b601f1985168110620007c4575083602093600196938796938794601f19811610620007aa575b505050811b0187556200074f565b015160001960f88460031b161c191690553880806200079c565b9192602060018192868501518155019401920162000776565b6200080c90876000526020600020601f850160051c81019160208610620006cc57601f0160051c019062000ee3565b3862000717565b600760005260008051602062002927833981519152908382015b81830181106200083f575050620004ca565b806200084e6001925462000ea6565b806200085d575b50016200082d565b601f81118314620008755750600081555b3862000855565b60009082825262000895601f60208420920160051c820185830162000ee3565b818355556200086e565b01519050388062000483565b6005600090815293507f036b6384b5eca791c62761152d0c79bb0604c104a5fb6f4eb0703f3154bb3db091905b601f19841685106200091e576001945083601f1981161062000904575b505050811b0160055562000499565b015160001960f88460031b161c19169055388080620008f5565b81810151835560209485019460019093019290910190620008d8565b6200096a9060056000526020600020601f850160051c81019160208610620006cc57601f0160051c019062000ee3565b386200046a565b01519050388062000424565b6004600090815293507f8a35acfbc15ff81a39ae7d344fd709f28e8600b4aa8c65c6b64bfe7fe36bd19b91905b601f1984168510620009f0576001945083601f19811610620009d6575b505050811b016004556200043a565b015160001960f88460031b161c19169055388080620009c7565b81810151835560209485019460019093019290910190620009aa565b600460005262000a58907f8a35acfbc15ff81a39ae7d344fd709f28e8600b4aa8c65c6b64bfe7fe36bd19b601f850160051c81019160208610620006cc57601f0160051c019062000ee3565b386200040b565b015190503880620003c5565b6003600090815293507fc2575a0e9e593c00f959f8c92f12db2869c3395a3b0502d05e2516446f71f85b91905b601f198416851062000ade576001945083601f1981161062000ac4575b505050811b01600355620003db565b015160001960f88460031b161c1916905538808062000ab5565b8181015183556020948501946001909301929091019062000a98565b600360005262000b46907fc2575a0e9e593c00f959f8c92f12db2869c3395a3b0502d05e2516446f71f85b601f850160051c81019160208610620006cc57601f0160051c019062000ee3565b38620003ac565b01519050388062000366565b6002600090815293506000805160206200290783398151915291905b601f198416851062000bbb576001945083601f1981161062000ba1575b505050811b016002556200037c565b015160001960f88460031b161c1916905538808062000b92565b8181015183556020948501946001909301929091019062000b75565b600260005262000c129060008051602062002907833981519152601f850160051c81019160208610620006cc57601f0160051c019062000ee3565b386200034d565b634e487b7160e01b600052601160045260246000fd5b0151905038806200029d565b6010600090815293506000805160206200296783398151915291905b601f198416851062000c9d576001945083601f1981161062000c83575b505050811b01601055620002b3565b015160001960f88460031b161c1916905538808062000c74565b8181015183556020948501946001909301929091019062000c57565b601060005262000cf49060008051602062002967833981519152601f850160051c81019160208610620006cc57601f0160051c019062000ee3565b3862000284565b90508c01513862000244565b600f6000908152925060008051602062002987833981519152908e5b601f198416851062000d69576001945083601f1981161062000d4f575b505050811b01600f5562000259565b015160001960f88460031b161c1916905538808e62000d40565b8101518255602093840193600190920191018e62000d23565b600f60005262000dbd9060008051602062002987833981519152601f840160051c81019160208510620006cc57601f0160051c019062000ee3565b386200022b565b600080fd5b8251906001600160401b03821162000dc457602080929162000df68d838095888c84019301010162000e4f565b815201930192905062000194565b6040519190601f01601f191682016001600160401b03811183821017620006d757604052565b60005b83811062000e3e5750506000910152565b818101518382015260200162000e2d565b81601f8201121562000dc45780516001600160401b038111620006d75762000e81601f8201601f191660200162000e04565b928184526020828401011162000dc45762000ea3916020808501910162000e2a565b90565b90600182811c9216801562000ed8575b602083101462000ec257565b634e487b7160e01b600052602260045260246000fd5b91607f169162000eb6565b81811062000eef575050565b6000815560010162000ee356fe6080604052600436101561001257600080fd5b60003560e01c806308551a531461117b5780633197cbb61461115d5780633a6dcea214610d395780634bd25c6f14610638578063562e4d3814610d1657806356eec68d14610c125780635c975abb14610bef5780635ec2c7bf14610bea578063725a3b4b14610b5e5780637284e41614610b425780637b499faa14610b1c578063842a77d314610aee57806388e7e366146109aa5780639d1b464a1461098c578063a5d737ac1461082c578063a5e845b414610809578063d6fbf202146107eb578063d8461182146106da578063dfbf53ae146106b1578063e11e1b0c14610693578063e2fdcc171461063d578063eb91d37e14610638578063ecfc7ecc14610427578063f2a4a82e14610375578063f3ccaac014610341578063fa391c641461031b5763fe67a54b1461014557600080fd5b346103165760003660031901126103165760145460ff8160a01c166102d957601354421061029d5760ff60a01b198116600160a01b176014556001600160a01b039081166101c1575b601454167fdaec4582d5d9595688c8c98545fdd1c696d41c6aeaeb636737e84ed2f5c00eda6020601254604051908152a2005b60095460ff1615610269576101d46119b7565b600060806040516101e481611205565b6001815230602082015283604082015282606082015201527f137fb716243bb1721111512a26c6a2d922e0bf3022df1ea74c7ef10ab3bc0dc76020836001600a546101008260a81b033060081b16906affffffffffffffffffffff60a81b16171780600a5584600b5561ffff19600c5416600c5560405194855260081c1692a261018e565b600080808084600e5460081c1660125490828215610294575bf161018e575b6040513d6000823e3d90fd5b506108fc610282565b60405162461bcd60e51b815260206004820152601460248201527341756374696f6e207374696c6c2061637469766560601b6044820152606490fd5b60405162461bcd60e51b8152602060048201526015602482015274105d58dd1a5bdb88185b1c9958591e48195b991959605a1b6044820152606490fd5b600080fd5b3461031657600036600319011261031657602060ff60145460a01c166040519015158152f35b346103165760003660031901126103165761037161035d6113b3565b6040519182916020835260208301906111a8565b0390f35b34610316576000366003190112610316576103de610391611467565b61039961151b565b61041b6103a46115cf565b6103ac611683565b90610408600654926103fa6103bf611737565b936103ec60ff60095416986040519b8c9b60e08d5260e08d01906111a8565b908b820360208d01526111a8565b9089820360408b01526111a8565b9087820360608901526111a8565b91608086015284820360a08601526111a8565b90151560c08301520390f35b6000366003190112610316576002600d54146105f3576002600d5560ff600e54166105bb5760145460ff8160a01c16610582576013544210156105475760125490813411156104f4576001600160a01b0316806104cf575b336bffffffffffffffffffffffff60a01b6014541617601455346012556040513481527f3fabff0a9c3ecd6814702e247fa9733e5d0aa69e3a38590f92cb18f623a2254d60203392a26001600d55005b600080809381938282156104eb575bf11561028857808061047f565b506108fc6104de565b60405162461bcd60e51b815260206004820152602560248201527f426964206d75737420626520686967686572207468616e2063757272656e7420604482015264707269636560d81b6064820152608490fd5b60405162461bcd60e51b8152602060048201526013602482015272105d58dd1a5bdb881a185cc8195e1c1a5c9959606a1b6044820152606490fd5b60405162461bcd60e51b8152602060048201526011602482015270105d58dd1a5bdb881a185cc8195b991959607a1b6044820152606490fd5b60405162461bcd60e51b815260206004820152601060248201526f14185d5cd8589b194e881c185d5cd95960821b6044820152606490fd5b60405162461bcd60e51b815260206004820152601f60248201527f5265656e7472616e637947756172643a207265656e7472616e742063616c6c006044820152606490fd5b61098c565b346103165760003660031901126103165760a0600a5460ff600b54600c54906040519383811615158552600180871b039060081c16602085015260408401528181161515606084015260081c1615156080820152f35b34610316576000366003190112610316576020600054604051908152f35b34610316576000366003190112610316576014546040516001600160a01b039091168152602090f35b34610316576020366003190112610316576004356001600160a01b03818116918290036103165761071390600e5460081c1633146117eb565b61072160ff60015416611837565b61073060ff600a5416156118c3565b600c5461074060ff821615611905565b60ff8160081c166107a65760207ff396531fad1d4dc2cd92386cdea800c92a507f8fe1bdb80313eb32a57481b1dc91610100600054916000805561ff00191617600c5561079d600080808085895af1610797611949565b50611979565b604051908152a2005b60405162461bcd60e51b815260206004820152601860248201527f5061796d656e7420616c72656164792072656c656173656400000000000000006044820152606490fd5b34610316576000366003190112610316576020601154604051908152f35b346103165760003660031901126103165760206108246119b7565b604051908152f35b60003660031901126103165761085060018060a01b03600e5460081c1633146117eb565b60015460ff811661094f57341561091a576012548060011b90808204600214901517156109045760649004908134106108bf578160016020927f3b4f5a74452cddb80ae5a0d279eb7db6afd5e556e72ca2883016b1da7c9d21169460005560ff191617600155604051908152a1005b60405162461bcd60e51b815260206004820152601a60248201527f496e73756666696369656e7420657363726f7720616d6f756e740000000000006044820152606490fd5b634e487b7160e01b600052601160045260246000fd5b60405162461bcd60e51b815260206004820152600d60248201526c09aeae6e840e6cadcc8408aa89609b1b6044820152606490fd5b60405162461bcd60e51b8152602060048201526015602482015274115cd8dc9bddc8185b1c9958591e48199d5b991959605a1b6044820152606490fd5b34610316576000366003190112610316576020601254604051908152f35b346103165760203660031901126103165760043580151590818103610316576014546001600160a01b0392906109e39084163314611877565b6109f160ff60015416611837565b610a0060ff600a5416156118c3565b610101600c54610a1360ff821615611905565b61ffff191617600c556040519081527f27a5ccc16be6802bcec7c2477a2b588a54c808352ef7dab930058f65864b3ce960203392a215610aa4577fe327b247066bdf32cf2493778e3fce4339b69c1e379a3b0dc780779bf67fe15560206000549260008055610a9360008080808886600e5460081c165af1610797611949565b600e5460081c1692604051908152a2005b5060005460008055610ac0600080808085335af1610797611949565b6040519081527f894ce7cc354d2a39de53f8dab6b0ad8c5ac65641e68aa2154fdb88bcc387e3dd60203392a2005b34610316576020366003190112610316576004356001600160a01b0381160361031657602060405160008152f35b3461031657600036600319011261031657602060ff60015460081c166040519015158152f35b346103165760003660031901126103165761037161035d6112c8565b3461031657610b6c3661125f565b610b8160018060a01b03601454163314611877565b610b8f60ff60015416611837565b610b9e60ff600a5416156118c3565b610bad60ff600c541615611905565b7f28b099eb575e23e32becd7c30dc8f9b2f98e370cdbf9841ea3338d9000402a256040516020815280610be5339460208301906111a8565b0390a2005b61117b565b3461031657600036600319011261031657602060ff600e54166040519015158152f35b3461031657610c203661125f565b610c3860018060a01b03600e5460081c1633146117eb565b610c4660ff60015416611837565b600a5460ff811615610cdd57815115610c985760ff1916600a557f2eb59c65a13ffe423f16ef2c7edd21afcde560ef40c04008402e75d5c0b04b2f6040516020815280610be5339460208301906111a8565b60405162461bcd60e51b815260206004820152601760248201527f496e76616c696420747261636b696e67206e756d6265720000000000000000006044820152606490fd5b60405162461bcd60e51b8152602060048201526011602482015270457363726f77206e6f742061637469766560781b6044820152606490fd5b3461031657600036600319011261031657602060ff600154166040519015158152f35b3461031657600036600319011261031657600060e0604051610d5a816111e8565b606081526060602082015260606040820152606080820152826080820152606060a0820152606060c0820152015260006080604051610d9881611205565b8281528260208201528260408201528260608201520152600e546012549060135460145492610dc56112c8565b93610dce6113b3565b9260405193610ddc856111e8565b610de4611467565b8552610dee61151b565b6020860152610dfb6115cf565b6040860152610e08611683565b6060860152600654608086015260075467ffffffffffffffff81116111475760405190610e3b60208260051b0183611221565b808252602082019060076000527fa66cc928b5edb82af9bd49922954155ab7b0942694bea4ce44661d9a8736c688916000905b828210611070575050505060a0860152610f1b90610e8a611737565b60c087015260ff60095416151560e0870152610f0d60405198610eac8a611205565b600a5460ff811615158b5260018060a01b039060081c1660208b0152600b5460408b015260ff600c54818116151560608d015260081c16151560808b01526040519860018060a01b039060081c1689526101a08060208b01528901906111a8565b9087820360408901526111a8565b926060860152608085015260ff8160a01c16151560a085015260018060a01b031660c084015282810360e0840152610f9d610f8b610f79610f67855161010086526101008601906111a8565b602086015185820360208701526111a8565b604085015184820360408601526111a8565b606084015183820360608501526111a8565b6080830151608083015260a08301519082810360a0840152815180825260208201916020808360051b8301019401926000915b8383106110435788808960808d8b60e080610ff78e60c088015185820360c08701526111a8565b95015115159101528051151561010085015260208101516001600160a01b0316610120850152604081015161014085015260608101511515610160850152015115156101808301520390f35b9091929394602080611061600193601f1986820301875289516111a8565b97019301930191939290610fd0565b604051600085548060011c90600181161561113d575b602082106001821614611127578184526001811690811561110457506001146110cc575b50600192826110be85946020940382611221565b815201940191019092610e6e565b6000878152602081209092505b8183106110ee575050810160200160016110aa565b60018160209254838688010152019201916110d9565b60ff191660208581019190915291151560051b84019091019150600190506110aa565b634e487b7160e01b600052602260045260246000fd5b90607f1690611086565b634e487b7160e01b600052604160045260246000fd5b34610316576000366003190112610316576020601354604051908152f35b3461031657600036600319011261031657600e5460405160089190911c6001600160a01b03168152602090f35b919082519283825260005b8481106111d4575050826000602080949584010152601f8019910116010190565b6020818301810151848301820152016111b3565b610100810190811067ffffffffffffffff82111761114757604052565b60a0810190811067ffffffffffffffff82111761114757604052565b90601f8019910116810190811067ffffffffffffffff82111761114757604052565b67ffffffffffffffff811161114757601f01601f191660200190565b60206003198201126103165760043567ffffffffffffffff811161031657816023820112156103165780600401359061129782611243565b926112a56040519485611221565b828452602483830101116103165781600092602460209301838601378301015290565b604051906000600f5490600182811c908084169384156113a9575b602094858410811461139557838852879493929181156113755750600114611316575b505061131492500383611221565b565b90939150600f6000527f8d1108e10bcb7c27dddfc02ed9d693a074039d026cf4ea4240b40f7d581ac802936000915b81831061135d57505061131493508201013880611306565b85548884018501529485019487945091830191611345565b91505061131494925060ff191682840152151560051b8201013880611306565b634e487b7160e01b85526022600452602485fd5b91607f16916112e3565b60405190600060105490600182811c9080841693841561145d575b6020948584108114611395578388528794939291811561137557506001146113fe57505061131492500383611221565b9093915060106000527f1b6847dc741a1b0cd08d278845f9d819d87b734759afb55fe2de5cb82a9ae672936000915b81831061144557505061131493508201013880611306565b8554888401850152948501948794509183019161142d565b91607f16916113ce565b60405190600060025490600182811c90808416938415611511575b6020948584108114611395578388528794939291811561137557506001146114b257505061131492500383611221565b9093915060026000527f405787fa12a823e0f2b7631cc41b3ba8828b3321ca811111fa75cd3aa3bb5ace936000915b8183106114f957505061131493508201013880611306565b855488840185015294850194879450918301916114e1565b91607f1691611482565b60405190600060035490600182811c908084169384156115c5575b60209485841081146113955783885287949392918115611375575060011461156657505061131492500383611221565b9093915060036000527fc2575a0e9e593c00f959f8c92f12db2869c3395a3b0502d05e2516446f71f85b936000915b8183106115ad57505061131493508201013880611306565b85548884018501529485019487945091830191611595565b91607f1691611536565b60405190600060045490600182811c90808416938415611679575b60209485841081146113955783885287949392918115611375575060011461161a57505061131492500383611221565b9093915060046000527f8a35acfbc15ff81a39ae7d344fd709f28e8600b4aa8c65c6b64bfe7fe36bd19b936000915b81831061166157505061131493508201013880611306565b85548884018501529485019487945091830191611649565b91607f16916115ea565b60405190600060055490600182811c9080841693841561172d575b6020948584108114611395578388528794939291811561137557506001146116ce57505061131492500383611221565b9093915060056000527f036b6384b5eca791c62761152d0c79bb0604c104a5fb6f4eb0703f3154bb3db0936000915b81831061171557505061131493508201013880611306565b855488840185015294850194879450918301916116fd565b91607f169161169e565b60405190600060085490600182811c908084169384156117e1575b60209485841081146113955783885287949392918115611375575060011461178257505061131492500383611221565b9093915060086000527ff3f7a9fe364faab93b216da50a3214154f22a0a2b415b23a84c8169e8b636ee3936000915b8183106117c957505061131493508201013880611306565b855488840185015294850194879450918301916117b1565b91607f1691611752565b156117f257565b60405162461bcd60e51b815260206004820152601960248201527f4f6e6c792073656c6c65722063616e2063616c6c2074686973000000000000006044820152606490fd5b1561183e57565b60405162461bcd60e51b8152602060048201526011602482015270115cd8dc9bddc81b9bdd08199d5b991959607a1b6044820152606490fd5b1561187e57565b60405162461bcd60e51b815260206004820152601860248201527f4f6e6c792062757965722063616e2063616c6c207468697300000000000000006044820152606490fd5b156118ca57565b60405162461bcd60e51b8152602060048201526013602482015272457363726f77207374696c6c2061637469766560681b6044820152606490fd5b1561190c57565b60405162461bcd60e51b8152602060048201526015602482015274125d195b48185b1c9958591e481c9958d95a5d9959605a1b6044820152606490fd5b3d15611974573d9061195a82611243565b916119686040519384611221565b82523d6000602084013e565b606090565b1561198057565b60405162461bcd60e51b815260206004820152600f60248201526e151c985b9cd9995c8819985a5b1959608a1b6044820152606490fd5b6012548060011b908082046002149015171561090457606490049056fea264697066735822122048c25ca5109fd4d99faa6b7bb30ace1bc2d9bb2179b03799484d3210b87ddf0364736f6c63430008140033405787fa12a823e0f2b7631cc41b3ba8828b3321ca811111fa75cd3aa3bb5acea66cc928b5edb82af9bd49922954155ab7b0942694bea4ce44661d9a8736c688f3f7a9fe364faab93b216da50a3214154f22a0a2b415b23a84c8169e8b636ee31b6847dc741a1b0cd08d278845f9d819d87b734759afb55fe2de5cb82a9ae6728d1108e10bcb7c27dddfc02ed9d693a074039d026cf4ea4240b40f7d581ac802",
  "linkReferences": {},
  "deployedLinkReferences": {}
}