{
  "_format": "hh-sol-artifact-1",
  "contractName": "FixedSwapAuction",
  "sourceName": "contracts/FixedSwapAuction.sol",
  "abi": [
    {
      "inputs": [
        {
          "internalType": "string",
          "name": "_description",
          "type": "string"
        },
        {
          "internalType": "string",
          "name": "_image",
          "type": "string"
        },
        {
          "internalType": "uint256",
          "name": "_price",
          "type": "uint256"
        },
        {
          "internalType": "string",
          "name": "_name",
          "type": "string"
        },
        {
          "internalType": "string",
          "name": "_itemDescription",
          "type": "string"
        },
        {
          "internalType": "string",
          "name": "_condition",
          "type": "string"
        },
        {
          "internalType": "string",
          "name": "_dimensions",
          "type": "string"
        },
        {
          "internalType": "uint256",
          "name": "_weight",
          "type": "uint256"
        },
        {
          "internalType": "string[]",
          "name": "_images",
          "type": "string[]"
        },
        {
          "internalType": "string",
          "name": "_shippingAddress",
          "type": "string"
        },
        {
          "internalType": "bool",
          "name": "_isPhysical",
          "type": "bool"
        }
      ],
      "stateMutability": "nonpayable",
      "type": "constructor"
    },
    {
      "anonymous": false,
      "inputs": [
        {
          "indexed": true,
          "internalType": "address",
          "name": "seller",
          "type": "address"
        },
        {
          "indexed": false,
          "internalType": "uint256",
          "name": "startingPrice",
          "type": "uint256"
        },
        {
          "indexed": false,
          "internalType": "uint256",
          "name": "duration",
          "type": "uint256"
        },
        {
          "indexed": false,
          "internalType": "string",
          "name": "description",
          "type": "string"
        }
      ],
      "name": "AuctionCreated",
      "type": "event"
    },
    {
      "anonymous": false,
      "inputs": [
        {
          "indexed": true,
          "internalType": "address",
          "name": "winner",
          "type": "address"
        },
        {
          "indexed": false,
          "internalType": "uint256",
          "name": "amount",
          "type": "uint256"
        }
      ],
      "name": "AuctionEnded",
      "type": "event"
    },
    {
      "anonymous": false,
      "inputs": [
        {
          "indexed": true,
          "internalType": "address",
          "name": "bidder",
          "type": "address"
        },
        {
          "indexed": false,
          "internalType": "uint256",
          "name": "amount",
          "type": "uint256"
        }
      ],
      "name": "BidPlaced",
      "type": "event"
    },
    {
      "anonymous": false,
      "inputs": [
        {
          "indexed": true,
          "internalType": "address",
          "name": "buyer",
          "type": "address"
        },
        {
          "indexed": false,
          "internalType": "string",
          "name": "reason",
          "type": "string"
        }
      ],
      "name": "DisputeRaised",
      "type": "event"
    },
    {
      "anonymous": false,
      "inputs": [
        {
          "indexed": true,
          "internalType": "address",
          "name": "winner",
          "type": "address"
        },
        {
          "indexed": false,
          "internalType": "uint256",
          "name": "amount",
          "type": "uint256"
        }
      ],
      "name": "DisputeResolved",
      "type": "event"
    },
    {
      "anonymous": false,
      "inputs": [
        {
          "indexed": true,
          "internalType": "address",
          "name": "escrowAgent",
          "type": "address"
        },
        {
          "indexed": false,
          "internalType": "uint256",
          "name": "escrowFee",
          "type": "uint256"
        }
      ],
      "name": "EscrowCreated",
      "type": "event"
    },
    {
      "anonymous": false,
      "inputs": [
        {
          "indexed": false,
          "internalType": "uint256",
          "name": "amount",
          "type": "uint256"
        }
      ],
      "name": "EscrowFunded",
      "type": "event"
    },
    {
      "anonymous": false,
      "inputs": [
        {
          "indexed": true,
          "internalType": "address",
          "name": "buyer",
          "type": "address"
        },
        {
          "indexed": false,
          "internalType": "uint256",
          "name": "amount",
          "type": "uint256"
        }
      ],
      "name": "EscrowRefunded",
      "type": "event"
    },
    {
      "anonymous": false,
      "inputs": [
        {
          "indexed": true,
          "internalType": "address",
          "name": "seller",
          "type": "address"
        },
        {
          "indexed": false,
          "internalType": "uint256",
          "name": "amount",
          "type": "uint256"
        }
      ],
      "name": "EscrowReleased",
      "type": "event"
    },
    {
      "anonymous": false,
      "inputs": [
        {
          "indexed": true,
          "internalType": "address",
          "name": "buyer",
          "type": "address"
        },
        {
          "indexed": false,
          "internalType": "bool",
          "name": "conditionMet",
          "type": "bool"
        }
      ],
      "name": "ItemReceived",
      "type": "event"
    },
    {
      "anonymous": false,
      "inputs": [
        {
          "indexed": true,
          "internalType": "address",
          "name": "seller",
          "type": "address"
        },
        {
          "indexed": false,
          "internalType": "string",
          "name": "trackingNumber",
          "type": "string"
        }
      ],
      "name": "ItemShipped",
      "type": "event"
    },
    {
      "anonymous": false,
      "inputs": [
        {
          "indexed": false,
          "internalType": "address",
          "name": "account",
          "type": "address"
        }
      ],
      "name": "Paused",
      "type": "event"
    },
    {
      "anonymous": false,
      "inputs": [
        {
          "indexed": true,
          "internalType": "address",
          "name": "buyer",
          "type": "address"
        },
        {
          "indexed": false,
          "internalType": "uint256",
          "name": "amount",
          "type": "uint256"
        }
      ],
      "name": "Purchase",
      "type": "event"
    },
    {
      "anonymous": false,
      "inputs": [
        {
          "indexed": false,
          "internalType": "address",
          "name": "account",
          "type": "address"
        }
      ],
      "name": "Unpaused",
      "type": "event"
    },
    {
      "inputs": [],
      "name": "auctioneer",
      "outputs": [
        {
          "internalType": "address",
          "name": "",
          "type": "address"
        }
      ],
      "stateMutability": "view",
      "type": "function"
    },
    {
      "inputs": [
        {
          "internalType": "bool",
          "name": "conditionMet",
          "type": "bool"
        }
      ],
      "name": "confirmItemReceived",
      "outputs": [],
      "stateMutability": "nonpayable",
      "type": "function"
    },
    {
      "inputs": [],
      "name": "description",
      "outputs": [
        {
          "internalType": "string",
          "name": "",
          "type": "string"
        }
      ],
      "stateMutability": "view",
      "type": "function"
    },
    {
      "inputs": [],
      "name": "endAuction",
      "outputs": [],
      "stateMutability": "nonpayable",
      "type": "function"
    },
    {
      "inputs": [],
      "name": "escrow",
      "outputs": [
        {
          "internalType": "bool",
          "name": "isActive",
          "type": "bool"
        },
        {
          "internalType": "address",
          "name": "escrowAgent",
          "type": "address"
        },
        {
          "internalType": "uint256",
          "name": "escrowFee",
          "type": "uint256"
        },
        {
          "internalType": "bool",
          "name": "itemReceived",
          "type": "bool"
        },
        {
          "internalType": "bool",
          "name": "paymentReleased",
          "type": "bool"
        }
      ],
      "stateMutability": "view",
      "type": "function"
    },
    {
      "inputs": [],
      "name": "escrowBalance",
      "outputs": [
        {
          "internalType": "uint256",
          "name": "",
          "type": "uint256"
        }
      ],
      "stateMutability": "view",
      "type": "function"
    },
    {
      "inputs": [],
      "name": "escrowFunded",
      "outputs": [
        {
          "internalType": "bool",
          "name": "",
          "type": "bool"
        }
      ],
      "stateMutability": "view",
      "type": "function"
    },
    {
      "inputs": [],
      "name": "escrowReleased",
      "outputs": [
        {
          "internalType": "bool",
          "name": "",
          "type": "bool"
        }
      ],
      "stateMutability": "view",
      "type": "function"
    },
    {
      "inputs": [],
      "name": "fundEscrow",
      "outputs": [],
      "stateMutability": "payable",
      "type": "function"
    },
    {
      "inputs": [],
      "name": "getAuctionDetails",
      "outputs": [
        {
          "internalType": "address",
          "name": "sellerAddr",
          "type": "address"
        },
        {
          "internalType": "string",
          "name": "desc",
          "type": "string"
        },
        {
          "internalType": "string",
          "name": "img",
          "type": "string"
        },
        {
          "internalType": "uint256",
          "name": "currentPrice",
          "type": "uint256"
        },
        {
          "internalType": "uint256",
          "name": "endTime",
          "type": "uint256"
        },
        {
          "internalType": "bool",
          "name": "completed",
          "type": "bool"
        },
        {
          "internalType": "address",
          "name": "winnerAddr",
          "type": "address"
        },
        {
          "components": [
            {
              "internalType": "string",
              "name": "name",
              "type": "string"
            },
            {
              "internalType": "string",
              "name": "description",
              "type": "string"
            },
            {
              "internalType": "string",
              "name": "condition",
              "type": "string"
            },
            {
              "internalType": "string",
              "name": "dimensions",
              "type": "string"
            },
            {
              "internalType": "uint256",
              "name": "weight",
              "type": "uint256"
            },
            {
              "internalType": "string[]",
              "name": "images",
              "type": "string[]"
            },
            {
              "internalType": "string",
              "name": "shippingAddress",
              "type": "string"
            },
            {
              "internalType": "bool",
              "name": "isPhysical",
              "type": "bool"
            }
          ],
          "internalType": "struct IAuction.PhysicalItem",
          "name": "physicalItem",
          "type": "tuple"
        },
        {
          "components": [
            {
              "internalType": "bool",
              "name": "isActive",
              "type": "bool"
            },
            {
              "internalType": "address",
              "name": "escrowAgent",
              "type": "address"
            },
            {
              "internalType": "uint256",
              "name": "escrowFee",
              "type": "uint256"
            },
            {
              "internalType": "bool",
              "name": "itemReceived",
              "type": "bool"
            },
            {
              "internalType": "bool",
              "name": "paymentReleased",
              "type": "bool"
            }
          ],
          "internalType": "struct IAuction.Escrow",
          "name": "escrowInfo",
          "type": "tuple"
        }
      ],
      "stateMutability": "view",
      "type": "function"
    },
    {
      "inputs": [],
      "name": "getAuctionPrice",
      "outputs": [
        {
          "internalType": "uint256",
          "name": "",
          "type": "uint256"
        }
      ],
      "stateMutability": "view",
      "type": "function"
    },
    {
      "inputs": [],
      "name": "getCurrentPrice",
      "outputs": [
        {
          "internalType": "uint256",
          "name": "",
          "type": "uint256"
        }
      ],
      "stateMutability": "view",
      "type": "function"
    },
    {
      "inputs": [],
      "name": "getEscrowAmount",
      "outputs": [
        {
          "internalType": "uint256",
          "name": "",
          "type": "uint256"
        }
      ],
      "stateMutability": "view",
      "type": "function"
    },
    {
      "inputs": [],
      "name": "image",
      "outputs": [
        {
          "internalType": "string",
          "name": "",
          "type": "string"
        }
      ],
      "stateMutability": "view",
      "type": "function"
    },
    {
      "inputs": [],
      "name": "isCompleted",
      "outputs": [
        {
          "internalType": "bool",
          "name": "",
          "type": "bool"
        }
      ],
      "stateMutability": "view",
      "type": "function"
    },
    {
      "inputs": [],
      "name": "item",
      "outputs": [
        {
          "internalType": "string",
          "name": "name",
          "type": "string"
        },
        {
          "internalType": "string",
          "name": "description",
          "type": "string"
        },
        {
          "internalType": "string",
          "name": "condition",
          "type": "string"
        },
        {
          "internalType": "string",
          "name": "dimensions",
          "type": "string"
        },
        {
          "internalType": "uint256",
          "name": "weight",
          "type": "uint256"
        },
        {
          "internalType": "string",
          "name": "shippingAddress",
          "type": "string"
        },
        {
          "internalType": "bool",
          "name": "isPhysical",
          "type": "bool"
        }
      ],
      "stateMutability": "view",
      "type": "function"
    },
    {
      "inputs": [],
      "name": "paused",
      "outputs": [
        {
          "internalType": "bool",
          "name": "",
          "type": "bool"
        }
      ],
      "stateMutability": "view",
      "type": "function"
    },
    {
      "inputs": [],
      "name": "placeBid",
      "outputs": [],
      "stateMutability": "payable",
      "type": "function"
    },
    {
      "inputs": [],
      "name": "price",
      "outputs": [
        {
          "internalType": "uint256",
          "name": "",
          "type": "uint256"
        }
      ],
      "stateMutability": "view",
      "type": "function"
    },
    {
      "inputs": [
        {
          "internalType": "address",
          "name": "",
          "type": "address"
        }
      ],
      "name": "purchases",
      "outputs": [
        {
          "internalType": "uint256",
          "name": "",
          "type": "uint256"
        }
      ],
      "stateMutability": "view",
      "type": "function"
    },
    {
      "inputs": [
        {
          "internalType": "string",
          "name": "reason",
          "type": "string"
        }
      ],
      "name": "raiseDispute",
      "outputs": [],
      "stateMutability": "nonpayable",
      "type": "function"
    },
    {
      "inputs": [
        {
          "internalType": "address",
          "name": "disputeWinner",
          "type": "address"
        }
      ],
      "name": "resolveDispute",
      "outputs": [],
      "stateMutability": "nonpayable",
      "type": "function"
    },
    {
      "inputs": [],
      "name": "seller",
      "outputs": [
        {
          "internalType": "address",
          "name": "",
          "type": "address"
        }
      ],
      "stateMutability": "view",
      "type": "function"
    },
    {
      "inputs": [
        {
          "internalType": "string",
          "name": "trackingNumber",
          "type": "string"
        }
      ],
      "name": "shipItem",
      "outputs": [],
      "stateMutability": "nonpayable",
      "type": "function"
    },
    {
      "inputs": [],
      "name": "winner",
      "outputs": [
        {
          "internalType": "address",
          "name": "",
          "type": "address"
        }
      ],
      "stateMutability": "view",
      "type": "function"
    }
  ],
  "bytecode": "0x60806040523462000d405762002d43803803806200001d8162000d80565b92833961016082828101031262000d405781516001600160401b03811162000d4057620000509082840190840162000dcb565b60208301516001600160401b03811162000d4057620000759083850190850162000dcb565b604084015160608501519091906001600160401b03811162000d4057620000a29085870190870162000dcb565b60808601519095906001600160401b03811162000d4057620000ca9086830190830162000dcb565b60a08201519095906001600160401b03811162000d4057620000f29082840190840162000dcb565b60c08301516001600160401b03811162000d4057620001179083850190850162000dcb565b60e0840151610100850151939092906001600160401b03851162000d4057808601601f86880101121562000d405785850151946001600160401b038611620006c4578560051b9060206200016d81840162000d80565b809881520190838901602084838c0101011162000d40576020818a0101915b602084838c010101831062000d455750505050610120860151906001600160401b03821162000d405761014091620001c991880190880162000dcb565b95015195861515870362000d40576001600d55600e80546001600160a81b0319163360081b610100600160a81b031617905588516001600160401b038111620006c45762000219600f5462000e22565b601f811162000cfe575b50806020601f821160011462000c845760009162000c78575b508160011b916000199060031b1c191617600f555b8051906001600160401b038211620006c45781906200027260105462000e22565b601f811162000c36575b50602090601f831160011462000bb85760009262000bac575b50508160011b916000199060031b1c1916176010555b60118790556012805460ff19169055604051986101008a016001600160401b0381118b821017620006c4576040528a8a5260208a015260408901526060880152608087015260a086015260c0850152151560e0840152835160018060401b038111620006c4576200031e60025462000e22565b601f811162000b59575b506020601f821160011462000ae957819293949560009262000add575b50508160011b916000199060031b1c1916176002555b602083015180519093906001600160401b038111620006c4576200038160035462000e22565b601f811162000a8a575b506020601f821160011462000a1a57819293949560009262000a0e575b50508160011b916000199060031b1c1916176003555b604081015180519093906001600160401b038111620006c457620003e460045462000e22565b601f8111620009bb575b506020601f82116001146200094b5781929394956000926200093f575b50508160011b916000199060031b1c1916176004555b606082015180519093906001600160401b038111620006c4576200044760055462000e22565b601f811162000908575b506020601f8211600114620008985781929394956000926200088c575b50508160011b916000199060031b1c1916176005555b608083015160065560a0830151805190680100000000000000008211620006c4576007548260075580831062000800575b506007600090815260008051602062002cc383398151915292916020015b828210620006da575050505060c083015180519093906001600160401b038111620006c4576200050560085462000e22565b601f811162000676575b506020601f8211600114620005d757908060e093927fa3d19677a52b6dff051e5813011905526090505e00fcea83c604776ad5ebfd689697600092620005cb575b50508160011b916000199060031b1c1916176008555b0151151560ff8019600954169116176009556040519081526000602082015260606040820152620005a883518094816060850152602060808501910162000da6565b3392601f01601f1916810181900360800190a2604051611e4a908162000e798239f35b01519050388062000550565b6008600090815260008051602062002ce38339815191529690601f198416905b8181106200065d575096600192849260e096957fa3d19677a52b6dff051e5813011905526090505e00fcea83c604776ad5ebfd68999a1062000643575b505050811b0160085562000566565b015160001960f88460031b161c1916905538808062000634565b83830151895560019098019760209384019301620005f7565b6008600052620006b29060008051602062002ce3833981519152601f840160051c81019160208510620006b9575b601f0160051c019062000e5f565b386200050f565b9091508190620006a4565b634e487b7160e01b600052604160045260246000fd5b80518051906001600160401b038211620006c457620006fa865462000e22565b601f8111620007ca575b50602090601f83116001146200075557928260019493602093869560009262000749575b5050600019600383901b1c191690841b1787555b01940191019092620004d3565b01519050388062000728565b908660005260206000209160005b601f1985168110620007b1575083602093600196938796938794601f1981161062000797575b505050811b0187556200073c565b015160001960f88460031b161c1916905538808062000789565b9192602060018192868501518155019401920162000763565b620007f990876000526020600020601f850160051c81019160208610620006b957601f0160051c019062000e5f565b3862000704565b600760005260008051602062002cc3833981519152908382015b81830181106200082c575050620004b5565b806200083b6001925462000e22565b806200084a575b50016200081a565b601f81118314620008625750600081555b3862000842565b60009082825262000882601f60208420920160051c820185830162000e5f565b818355556200085b565b0151905038806200046e565b600560005260206000209060005b601f1984168110620008ef575060019394959683601f19811610620008d5575b505050811b0160055562000484565b015160001960f88460031b161c19169055388080620008c6565b9091602060018192858b015181550193019101620008a6565b620009389060056000526020600020601f840160051c81019160208510620006b957601f0160051c019062000e5f565b3862000451565b0151905038806200040b565b600460005260206000209060005b601f1984168110620009a2575060019394959683601f1981161062000988575b505050811b0160045562000421565b015160001960f88460031b161c1916905538808062000979565b9091602060018192858b01518155019301910162000959565b600460005262000a07907f8a35acfbc15ff81a39ae7d344fd709f28e8600b4aa8c65c6b64bfe7fe36bd19b601f840160051c81019160208510620006b957601f0160051c019062000e5f565b38620003ee565b015190503880620003a8565b600360005260206000209060005b601f198416811062000a71575060019394959683601f1981161062000a57575b505050811b01600355620003be565b015160001960f88460031b161c1916905538808062000a48565b9091602060018192858b01518155019301910162000a28565b600360005262000ad6907fc2575a0e9e593c00f959f8c92f12db2869c3395a3b0502d05e2516446f71f85b601f840160051c81019160208510620006b957601f0160051c019062000e5f565b386200038b565b01519050388062000345565b600260005260206000209060005b601f198416811062000b40575060019394959683601f1981161062000b26575b505050811b016002556200035b565b015160001960f88460031b161c1916905538808062000b17565b9091602060018192858b01518155019301910162000af7565b600260005262000ba5907f405787fa12a823e0f2b7631cc41b3ba8828b3321ca811111fa75cd3aa3bb5ace601f840160051c81019160208510620006b957601f0160051c019062000e5f565b3862000328565b01519050388062000295565b60106000908152935060008051602062002d0383398151915291905b601f198416851062000c1a576001945083601f1981161062000c00575b505050811b01601055620002ab565b015160001960f88460031b161c1916905538808062000bf1565b8181015183556020948501946001909301929091019062000bd4565b601060005262000c719060008051602062002d03833981519152601f850160051c81019160208610620006b957601f0160051c019062000e5f565b386200027c565b90508a0151386200023c565b600f6000908152925060008051602062002d23833981519152905b8c601f198416851062000ce657506001935082601f1981161062000ccc575b5050811b01600f5562000251565b8c015160001960f88460031b161c19169055388062000cbe565b81015182556020938401936001909201910162000c9f565b600f60005262000d399060008051602062002d23833981519152601f840160051c81019160208510620006b957601f0160051c019062000e5f565b3862000223565b600080fd5b8251906001600160401b03821162000d4057602080929162000d728d838095888c84019301010162000dcb565b81520193019290506200018c565b6040519190601f01601f191682016001600160401b03811183821017620006c457604052565b60005b83811062000dba5750506000910152565b818101518382015260200162000da9565b81601f8201121562000d405780516001600160401b038111620006c45762000dfd601f8201601f191660200162000d80565b928184526020828401011162000d405762000e1f916020808501910162000da6565b90565b90600182811c9216801562000e54575b602083101462000e3e57565b634e487b7160e01b600052602260045260246000fd5b91607f169162000e32565b81811062000e6b575050565b6000815560010162000e5f56fe6080604052600436101561001257600080fd5b60003560e01c806308551a5314611a105780633a6dcea21461114b5780634bd25c6f146109bc578063562e4d381461112857806356eec68d146110245780635c975abb146110015780635ec2c7bf14610ffc578063725a3b4b14610f6d5780637284e41614610eaa5780637b499faa14610e84578063842a77d314610e5657806388e7e36614610d12578063a035b1fe14610cf4578063a5d737ac14610ba9578063a5e845b414610b73578063d846118214610a62578063dfbf53ae14610a35578063e11e1b0c14610a17578063e2fdcc17146109c1578063eb91d37e146109bc578063ecfc7ecc146106a9578063f2a4a82e146102fb578063f3ccaac0146101e9578063fa391c64146101c65763fe67a54b1461012f57600080fd5b346101c15760003660031901126101c15760125460ff81166101845760019060ff19161760125560007fdaec4582d5d9595688c8c98545fdd1c696d41c6aeaeb636737e84ed2f5c00eda6020604051838152a2005b60405162461bcd60e51b8152602060048201526015602482015274105d58dd1a5bdb88185b1c9958591e48195b991959605a1b6044820152606490fd5b600080fd5b346101c15760003660031901126101c157602060ff601254166040519015158152f35b346101c15760003660031901126101c157604051600060105490600182811c918184169182156102f1575b60209485851084146102db5785879486865291826000146102bb57505060011461025e575b5061024692500383611ab6565b61025a604051928284938452830190611a3d565b0390f35b84915060106000527f1b6847dc741a1b0cd08d278845f9d819d87b734759afb55fe2de5cb82a9ae672906000915b8583106102a3575050610246935082010185610239565b8054838901850152879450869390920191810161028c565b60ff19168582015261024695151560051b85010192508791506102399050565b634e487b7160e01b600052602260045260246000fd5b92607f1692610214565b346101c15760003660031901126101c157604051600254600181811c92918181166000811561069f575b60209586811083146102db57808652869386939081156106815750600114610625575b5061035592500383611ab6565b604051600354909190808216600082841c821561061d575b87811083146102db57808652879386939081156105ff57506001146105a3575b5061039a92500383611ab6565b604051600454909190808216600082841c821561059b575b88811083146102db578086528893869390811561057d5750600114610521575b506103df92500383611ab6565b604051906000906005549081811c918181168015610517575b89841081146102db578386529081156104f957506001146104a4575b8660e087610498888c6104858a61042d818c0382611ab6565b6104776006549461046961043f611b5d565b9560ff600954169961045c6040519d8d8f9e8f9081520190611a3d565b918c8303908d0152611a3d565b9089820360408b0152611a3d565b908782036060890152611a3d565b91608086015284820360a0860152611a3d565b90151560c08301520390f35b6005600090815292507f036b6384b5eca791c62761152d0c79bb0604c104a5fb6f4eb0703f3154bb3db05b8284106104e6575050508101850161048582610414565b80548585018a01529288019281016104cf565b60ff1916858a01525050151560051b82018601905061048582610414565b92607f16926103f8565b600460009081529150847f8a35acfbc15ff81a39ae7d344fd709f28e8600b4aa8c65c6b64bfe7fe36bd19b5b82841061056657505050916103df9282010187926103d2565b80548885018701528794509285019286910161054d565b60ff19168486015250889390151560051b83010190506103df6103d2565b607f166103b2565b600360009081529150847fc2575a0e9e593c00f959f8c92f12db2869c3395a3b0502d05e2516446f71f85b5b8284106105e8575050509161039a92820101869261038d565b8054888501870152879450928501928691016105cf565b60ff19168486015250879390151560051b830101905061039a61038d565b607f1661036d565b600260009081529150847f405787fa12a823e0f2b7631cc41b3ba8828b3321ca811111fa75cd3aa3bb5ace5b82841061066a5750505091610355928201018592610348565b805488850187015287945092850192869101610651565b60ff19168486015250869390151560051b8301019050610355610348565b94607f1694610325565b60003660031901126101c1576002600d5414610977576002600d55600e5460ff811661093f576012549060ff82166108fa576011548034106108ab57610100600160a81b039160016affffffffffffffffffffff60a81b9485853360081b16911617176012556040513481527f3fabff0a9c3ecd6814702e247fa9733e5d0aa69e3a38590f92cb18f623a2254d60203392a26040513481527fdaec4582d5d9595688c8c98545fdd1c696d41c6aeaeb636737e84ed2f5c00eda60203392a260095460ff161561082b5750503460011b90348204600214341517156108155760016020916127107f137fb716243bb1721111512a26c6a2d922e0bf3022df1ea74c7ef10ab3bc0dc7940494600060806040516107c381611a9a565b85815230878201528860408201528260608201520152600a54913060081b169116171780600a5583600b5561ffff19600c5416600c5560405193845260018060a01b039060081c1692a25b6001600d55005b634e487b7160e01b600052601160045260246000fd5b6000935083925082918291829082156108a1575b60081c6001600160a01b031690f11561088c57601154803411610863575b5061080e565b80340390348211610815576000808093819382903414610898575b3390f11561088c578061085d565b6040513d6000823e3d90fd5b506108fc61087e565b6108fc915061083f565b60405162461bcd60e51b815260206004820152602160248201527f426964206d757374206d656574206f72206578636565642074686520707269636044820152606560f81b6064820152608490fd5b60405162461bcd60e51b815260206004820152601960248201527f41756374696f6e2068617320616c726561647920656e646564000000000000006044820152606490fd5b60405162461bcd60e51b815260206004820152601060248201526f14185d5cd8589b194e881c185d5cd95960821b6044820152606490fd5b60405162461bcd60e51b815260206004820152601f60248201527f5265656e7472616e637947756172643a207265656e7472616e742063616c6c006044820152606490fd5b610cf4565b346101c15760003660031901126101c15760a0600a5460ff600b54600c54906040519383811615158552600180871b039060081c16602085015260408401528181161515606084015260081c1615156080820152f35b346101c15760003660031901126101c1576020600054604051908152f35b346101c15760003660031901126101c15760125460405160089190911c6001600160a01b03168152602090f35b346101c15760203660031901126101c1576004356001600160a01b03818116918290036101c157610a9b90600e5460081c163314611c48565b610aa960ff60015416611c94565b610ab860ff600a541615611d20565b600c54610ac860ff821615611d62565b60ff8160081c16610b2e5760207ff396531fad1d4dc2cd92386cdea800c92a507f8fe1bdb80313eb32a57481b1dc91610100600054916000805561ff00191617600c55610b25600080808085895af1610b1f611da6565b50611dd6565b604051908152a2005b60405162461bcd60e51b815260206004820152601860248201527f5061796d656e7420616c72656164792072656c656173656400000000000000006044820152606490fd5b346101c15760003660031901126101c1576011548060011b90808204600214901517156108155760209061271060405191048152f35b60003660031901126101c157610bcd60018060a01b03600e5460081c163314611c48565b60015460ff8116610cb7573415610c82576011548060011b908082046002149015171561081557612710900490813410610c3d578160016020927f3b4f5a74452cddb80ae5a0d279eb7db6afd5e556e72ca2883016b1da7c9d21169460005560ff191617600155604051908152a1005b60405162461bcd60e51b815260206004820152601a60248201527f496e73756666696369656e7420657363726f7720616d6f756e740000000000006044820152606490fd5b60405162461bcd60e51b815260206004820152600d60248201526c09aeae6e840e6cadcc8408aa89609b1b6044820152606490fd5b60405162461bcd60e51b8152602060048201526015602482015274115cd8dc9bddc8185b1c9958591e48199d5b991959605a1b6044820152606490fd5b346101c15760003660031901126101c1576020601154604051908152f35b346101c15760203660031901126101c157600435801515908181036101c15760018060a01b0391610d4b8360125460081c163314611cd4565b610d5960ff60015416611c94565b610d6860ff600a541615611d20565b610101600c54610d7b60ff821615611d62565b61ffff191617600c556040519081527f27a5ccc16be6802bcec7c2477a2b588a54c808352ef7dab930058f65864b3ce960203392a215610e0c577fe327b247066bdf32cf2493778e3fce4339b69c1e379a3b0dc780779bf67fe15560206000549260008055610dfb60008080808886600e5460081c165af1610b1f611da6565b600e5460081c1692604051908152a2005b5060005460008055610e28600080808085335af1610b1f611da6565b6040519081527f894ce7cc354d2a39de53f8dab6b0ad8c5ac65641e68aa2154fdb88bcc387e3dd60203392a2005b346101c15760203660031901126101c1576004356001600160a01b038116036101c157602060405160008152f35b346101c15760003660031901126101c157602060ff60015460081c166040519015158152f35b346101c15760003660031901126101c1576040516000600f5490600182811c91818416918215610f63575b60209485851084146102db5785879486865291826000146102bb575050600114610f06575061024692500383611ab6565b849150600f6000527f8d1108e10bcb7c27dddfc02ed9d693a074039d026cf4ea4240b40f7d581ac802906000915b858310610f4b575050610246935082010185610239565b80548389018501528794508693909201918101610f34565b92607f1692610ed5565b346101c157610f7b36611af4565b610f9360018060a01b0360125460081c163314611cd4565b610fa160ff60015416611c94565b610fb060ff600a541615611d20565b610fbf60ff600c541615611d62565b7f28b099eb575e23e32becd7c30dc8f9b2f98e370cdbf9841ea3338d9000402a256040516020815280610ff733946020830190611a3d565b0390a2005b611a10565b346101c15760003660031901126101c157602060ff600e54166040519015158152f35b346101c15761103236611af4565b61104a60018060a01b03600e5460081c163314611c48565b61105860ff60015416611c94565b600a5460ff8116156110ef578151156110aa5760ff1916600a557f2eb59c65a13ffe423f16ef2c7edd21afcde560ef40c04008402e75d5c0b04b2f6040516020815280610ff733946020830190611a3d565b60405162461bcd60e51b815260206004820152601760248201527f496e76616c696420747261636b696e67206e756d6265720000000000000000006044820152606490fd5b60405162461bcd60e51b8152602060048201526011602482015270457363726f77206e6f742061637469766560781b6044820152606490fd5b346101c15760003660031901126101c157602060ff600154166040519015158152f35b346101c15760003660031901126101c157600060e060405161116c81611a7d565b606081526060602082015260606040820152606080820152826080820152606060a0820152606060c08201520152600060806040516111aa81611a9a565b8281528260208201528260408201528260608201520152600e5460115490601254604051926000600f548060011c9160018216918215611a06575b6020841083146102db5783885287929081156119e75750600114611986575b61121092500385611ab6565b6040519160006010548060011c916001821691821561197c575b6020841083146102db57838752869290811561195d57506001146118fc575b61125592500384611ab6565b6040519261126284611a7d565b60405160006002548060011c9160018216156118f2575b6020831060018316146102db578284528391600181169081156118d35750600114611872575b6112ab92500382611ab6565b845260405160006003548060011c916001821615611868575b6020831060018316146102db5782845283916001811690811561184957506001146117e8575b6112f692500382611ab6565b602085015260405160006004548060011c9160018216156117de575b6020831060018316146102db578284528391600181169081156117bf575060011461175e575b61134492500382611ab6565b604085015260405160006005548060011c916001821615611754575b6020831060018316146102db5782845283916001811690811561173557506001146116d4575b61139292500382611ab6565b6060850152600654608085015260075467ffffffffffffffff81116116be57604051906113c560208260051b0183611ab6565b808252602082019060076000527fa66cc928b5edb82af9bd49922954155ab7b0942694bea4ce44661d9a8736c688916000905b8282106115fd575050505060a08501526114a590611414611b5d565b60c086015260ff60095416151560e08601526114976040519761143689611a9a565b600a5460ff811615158a5260018060a01b039060081c1660208a0152600b5460408a015260ff600c54818116151560608c015260081c16151560808a01526040519760018060a01b039060081c1688526101a08060208a0152880190611a3d565b908682036040880152611a3d565b9160608501526000608085015260ff8116151560a085015260018060a01b039060081c1660c084015282810360e084015261152a6115186115066114f485516101008652610100860190611a3d565b60208601518582036020870152611a3d565b60408501518482036040860152611a3d565b60608401518382036060850152611a3d565b6080830151608083015260a08301519082810360a0840152815180825260208201916020808360051b8301019401926000915b8383106115d05788808960808d8b60e0806115848e60c088015185820360c0870152611a3d565b95015115159101528051151561010085015260208101516001600160a01b0316610120850152604081015161014085015260608101511515610160850152015115156101808301520390f35b90919293946020806115ee600193601f198682030187528951611a3d565b9701930193019193929061155d565b604051600085548060011c9060018116156116b4575b6020821060018216146102db57818452600181169081156116915750600114611659575b506001928261164b85946020940382611ab6565b8152019401910190926113f8565b6000878152602081209092505b81831061167b57505081016020016001611637565b6001816020925483868801015201920191611666565b60ff191660208581019190915291151560051b8401909101915060019050611637565b90607f1690611613565b634e487b7160e01b600052604160045260246000fd5b509060056000527f036b6384b5eca791c62761152d0c79bb0604c104a5fb6f4eb0703f3154bb3db0906000915b81831061171957505090602061139292820101611386565b6020919350806001915483858801015201910190918392611701565b6020925061139294915060ff191682840152151560051b820101611386565b91607f1691611360565b509060046000527f8a35acfbc15ff81a39ae7d344fd709f28e8600b4aa8c65c6b64bfe7fe36bd19b906000915b8183106117a357505090602061134492820101611338565b602091935080600191548385880101520191019091839261178b565b6020925061134494915060ff191682840152151560051b820101611338565b91607f1691611312565b509060036000527fc2575a0e9e593c00f959f8c92f12db2869c3395a3b0502d05e2516446f71f85b906000915b81831061182d5750509060206112f6928201016112ea565b6020919350806001915483858801015201910190918392611815565b602092506112f694915060ff191682840152151560051b8201016112ea565b91607f16916112c4565b509060026000527f405787fa12a823e0f2b7631cc41b3ba8828b3321ca811111fa75cd3aa3bb5ace906000915b8183106118b75750509060206112ab9282010161129f565b602091935080600191548385880101520191019091839261189f565b602092506112ab94915060ff191682840152151560051b82010161129f565b91607f1691611279565b509060106000527f1b6847dc741a1b0cd08d278845f9d819d87b734759afb55fe2de5cb82a9ae672906000915b81831061194157505090602061125592820101611249565b6020919350806001915483858a01015201910190918592611929565b6020925061125594915060ff191682840152151560051b820101611249565b92607f169261122a565b5090600f6000527f8d1108e10bcb7c27dddfc02ed9d693a074039d026cf4ea4240b40f7d581ac802906000915b8183106119cb57505090602061121092820101611204565b6020919350806001915483858b010152019101909186926119b3565b6020925061121094915060ff191682840152151560051b820101611204565b92607f16926111e5565b346101c15760003660031901126101c157600e5460405160089190911c6001600160a01b03168152602090f35b919082519283825260005b848110611a69575050826000602080949584010152601f8019910116010190565b602081830181015184830182015201611a48565b610100810190811067ffffffffffffffff8211176116be57604052565b60a0810190811067ffffffffffffffff8211176116be57604052565b90601f8019910116810190811067ffffffffffffffff8211176116be57604052565b67ffffffffffffffff81116116be57601f01601f191660200190565b60206003198201126101c15760043567ffffffffffffffff81116101c157816023820112156101c157806004013590611b2c82611ad8565b92611b3a6040519485611ab6565b828452602483830101116101c15781600092602460209301838601378301015290565b60405190600060085490600182811c90808416938415611c3e575b6020948584108114611c2a5783885287949392918115611c0a5750600114611bab575b5050611ba992500383611ab6565b565b9093915060086000527ff3f7a9fe364faab93b216da50a3214154f22a0a2b415b23a84c8169e8b636ee3936000915b818310611bf2575050611ba993508201013880611b9b565b85548884018501529485019487945091830191611bda565b915050611ba994925060ff191682840152151560051b8201013880611b9b565b634e487b7160e01b85526022600452602485fd5b91607f1691611b78565b15611c4f57565b60405162461bcd60e51b815260206004820152601960248201527f4f6e6c792073656c6c65722063616e2063616c6c2074686973000000000000006044820152606490fd5b15611c9b57565b60405162461bcd60e51b8152602060048201526011602482015270115cd8dc9bddc81b9bdd08199d5b991959607a1b6044820152606490fd5b15611cdb57565b60405162461bcd60e51b815260206004820152601860248201527f4f6e6c792062757965722063616e2063616c6c207468697300000000000000006044820152606490fd5b15611d2757565b60405162461bcd60e51b8152602060048201526013602482015272457363726f77207374696c6c2061637469766560681b6044820152606490fd5b15611d6957565b60405162461bcd60e51b8152602060048201526015602482015274125d195b48185b1c9958591e481c9958d95a5d9959605a1b6044820152606490fd5b3d15611dd1573d90611db782611ad8565b91611dc56040519384611ab6565b82523d6000602084013e565b606090565b15611ddd57565b60405162461bcd60e51b815260206004820152600f60248201526e151c985b9cd9995c8819985a5b1959608a1b6044820152606490fdfea2646970667358221220c38f5f810b1dc40743119099f0e422f9682c406de80b2d897418af51b65fa91b64736f6c63430008140033a66cc928b5edb82af9bd49922954155ab7b0942694bea4ce44661d9a8736c688f3f7a9fe364faab93b216da50a3214154f22a0a2b415b23a84c8169e8b636ee31b6847dc741a1b0cd08d278845f9d819d87b734759afb55fe2de5cb82a9ae6728d1108e10bcb7c27dddfc02ed9d693a074039d026cf4ea4240b40f7d581ac802",
  "linkReferences": {},
  "deployedLinkReferences": {}
}