{
  "contractName": "Auction",
  "abi": [
    {
      "anonymous": false,
      "inputs": [
        {
          "indexed": false,
          "internalType": "uint256",
          "name": "startingPrice",
          "type": "uint256"
        },
        {
          "indexed": false,
          "internalType": "uint256",
          "name": "endTime",
          "type": "uint256"
        }
      ],
      "name": "AuctionCreated",
      "type": "event"
    },
    {
      "anonymous": false,
      "inputs": [
        {
          "indexed": false,
          "internalType": "address",
          "name": "bidder",
          "type": "address"
        },
        {
          "indexed": false,
          "internalType": "uint256",
          "name": "amount",
          "type": "uint256"
        }
      ],
      "name": "BidPlaced",
      "type": "event"
    },
    {
      "inputs": [],
      "name": "auctionDetails",
      "outputs": [
        {
          "internalType": "address",
          "name": "highestBidder",
          "type": "address"
        },
        {
          "internalType": "uint256",
          "name": "highestBid",
          "type": "uint256"
        },
        {
          "internalType": "uint256",
          "name": "startingPrice",
          "type": "uint256"
        },
        {
          "internalType": "uint256",
          "name": "currentPrice",
          "type": "uint256"
        },
        {
          "internalType": "uint256",
          "name": "endTime",
          "type": "uint256"
        }
      ],
      "stateMutability": "view",
      "type": "function",
      "constant": true
    },
    {
      "inputs": [
        {
          "internalType": "uint256",
          "name": "_startingPrice",
          "type": "uint256"
        },
        {
          "internalType": "uint256",
          "name": "_endTime",
          "type": "uint256"
        }
      ],
      "name": "createAuction",
      "outputs": [],
      "stateMutability": "nonpayable",
      "type": "function"
    },
    {
      "inputs": [],
      "name": "bid",
      "outputs": [],
      "stateMutability": "payable",
      "type": "function",
      "payable": true
    }
  ],
  "bytecode": "0x608060405234801561001057600080fd5b506106ed806100206000396000f3fe6080604052600436106100345760003560e01c80630121683f146100395780630f0e3165146100625780631998aeef14610091575b600080fd5b34801561004557600080fd5b50610060600480360381019061005b919061040e565b61009b565b005b34801561006e57600080fd5b506100776101cc565b604051610088959493929190610577565b60405180910390f35b610099610210565b005b4281116100dd576040517f08c379a00000000000000000000000000000000000000000000000000000000081526004016100d4906105ea565b60405180910390fd5b6040518060a00160405280600073ffffffffffffffffffffffffffffffffffffffff16815260200160008152602001838152602001838152602001828152506000808201518160000160006101000a81548173ffffffffffffffffffffffffffffffffffffffff021916908373ffffffffffffffffffffffffffffffffffffffff160217905550602082015181600101556040820151816002015560608201518160030155608082015181600401559050507fe00a2da3a0f34a566402a244ab7ec63f8ab7472591cb18edf3269aa00461a41082826040516101c092919061062a565b60405180910390a15050565b60008060000160009054906101000a900473ffffffffffffffffffffffffffffffffffffffff16908060010154908060020154908060030154908060040154905085565b6000600401544210610257576040517f08c379a000000000000000000000000000000000000000000000000000000000815260040161024e906105ca565b60405180910390fd5b600060030154341161029e576040517f08c379a00000000000000000000000000000000000000000000000000000000081526004016102959061060a565b60405180910390fd5b600073ffffffffffffffffffffffffffffffffffffffff166000800160009054906101000a900473ffffffffffffffffffffffffffffffffffffffff1673ffffffffffffffffffffffffffffffffffffffff1614610367576000800160009054906101000a900473ffffffffffffffffffffffffffffffffffffffff1673ffffffffffffffffffffffffffffffffffffffff166108fc6000600101549081150290604051600060405180830381858888f19350505050158015610365573d6000803e3d6000fd5b505b336000800160006101000a81548173ffffffffffffffffffffffffffffffffffffffff021916908373ffffffffffffffffffffffffffffffffffffffff16021790555034600060010181905550346000600301819055507f3fabff0a9c3ecd6814702e247fa9733e5d0aa69e3a38590f92cb18f623a2254d33346040516103ef92919061054e565b60405180910390a1565b600081359050610408816106a0565b92915050565b6000806040838503121561042157600080fd5b600061042f858286016103f9565b9250506020610440858286016103f9565b9150509250929050565b61045381610664565b82525050565b6000610466601183610653565b91507f41756374696f6e2068617320656e6465640000000000000000000000000000006000830152602082019050919050565b60006104a6601e83610653565b91507f456e642074696d65206d75737420626520696e207468652066757475726500006000830152602082019050919050565b60006104e6602583610653565b91507f426964206d75737420626520686967686572207468616e2063757272656e742060008301527f70726963650000000000000000000000000000000000000000000000000000006020830152604082019050919050565b61054881610696565b82525050565b6000604082019050610563600083018561044a565b610570602083018461053f565b9392505050565b600060a08201905061058c600083018861044a565b610599602083018761053f565b6105a6604083018661053f565b6105b3606083018561053f565b6105c0608083018461053f565b9695505050505050565b600060208201905081810360008301526105e381610459565b9050919050565b6000602082019050818103600083015261060381610499565b9050919050565b60006020820190508181036000830152610623816104d9565b9050919050565b600060408201905061063f600083018561053f565b61064c602083018461053f565b9392505050565b600082825260208201905092915050565b600061066f82610676565b9050919050565b600073ffffffffffffffffffffffffffffffffffffffff82169050919050565b6000819050919050565b6106a981610696565b81146106b457600080fd5b5056fea2646970667358221220a801f6765a25c8fa87567562280b58f6f40d8cbd7172d47f782358e76fcbf45264736f6c63430008000033",
  "immutableReferences": {},
  "source": "// SPDX-License-Identifier: UNLICENSED\r\npragma solidity ^0.8.0;\r\n\r\ncontract Auction {\r\n    struct AuctionDetails {\r\n        address highestBidder;\r\n        uint highestBid;\r\n        uint startingPrice;\r\n        uint currentPrice;\r\n        uint endTime;\r\n    }\r\n\r\n    AuctionDetails public auctionDetails;\r\n\r\n    event AuctionCreated(uint startingPrice, uint endTime);\r\n    event BidPlaced(address bidder, uint amount);\r\n\r\n    function createAuction(uint _startingPrice, uint _endTime) public {\r\n        require(_endTime > block.timestamp, \"End time must be in the future\");\r\n\r\n        auctionDetails = AuctionDetails({\r\n            highestBidder: address(0),\r\n            highestBid: 0,\r\n            startingPrice: _startingPrice,\r\n            currentPrice: _startingPrice,\r\n            endTime: _endTime\r\n        });\r\n\r\n        emit AuctionCreated(_startingPrice, _endTime);\r\n    }\r\n\r\n    function bid() public payable {\r\n        require(block.timestamp < auctionDetails.endTime, \"Auction has ended\");\r\n        require(\r\n            msg.value > auctionDetails.currentPrice,\r\n            \"Bid must be higher than current price\"\r\n        );\r\n\r\n        if (auctionDetails.highestBidder != address(0)) {\r\n            payable(auctionDetails.highestBidder).transfer(\r\n                auctionDetails.highestBid\r\n            );\r\n        }\r\n\r\n        auctionDetails.highestBidder = msg.sender;\r\n        auctionDetails.highestBid = msg.value;\r\n        auctionDetails.currentPrice = msg.value;\r\n\r\n        emit BidPlaced(msg.sender, msg.value);\r\n    }\r\n}\r\n",
  "sourcePath": "C:\\Users\\dani\\Desktop\\TENI DeFi\\contracts\\Auction.sol",
  "compiler": {
    "name": "solc",
    "version": "0.8.0+commit.c7dfd78e.Emscripten.clang"
  },
  "schemaVersion": "3.4.16",
  "updatedAt": "2025-03-15T05:26:29.705Z",
  "networkType": "ethereum",
  "devdoc": {
    "kind": "dev",
    "methods": {},
    "version": 1
  },
  "userdoc": {
    "kind": "user",
    "methods": {},
    "version": 1
  }
}