{
  "contractName": "DutchAuction",
  "abi": [
    {
      "inputs": [
        {
          "internalType": "string",
          "name": "_description",
          "type": "string"
        },
        {
          "internalType": "string",
          "name": "_image",
          "type": "string"
        },
        {
          "internalType": "uint256",
          "name": "_startPrice",
          "type": "uint256"
        },
        {
          "internalType": "uint256",
          "name": "_endPrice",
          "type": "uint256"
        },
        {
          "internalType": "uint256",
          "name": "_duration",
          "type": "uint256"
        }
      ],
      "stateMutability": "nonpayable",
      "type": "constructor"
    },
    {
      "anonymous": false,
      "inputs": [
        {
          "indexed": false,
          "internalType": "address",
          "name": "winner",
          "type": "address"
        },
        {
          "indexed": false,
          "internalType": "uint256",
          "name": "amount",
          "type": "uint256"
        }
      ],
      "name": "AuctionEnded",
      "type": "event"
    },
    {
      "inputs": [],
      "name": "auctioneer",
      "outputs": [
        {
          "internalType": "address",
          "name": "",
          "type": "address"
        }
      ],
      "stateMutability": "view",
      "type": "function"
    },
    {
      "inputs": [],
      "name": "description",
      "outputs": [
        {
          "internalType": "string",
          "name": "",
          "type": "string"
        }
      ],
      "stateMutability": "view",
      "type": "function"
    },
    {
      "inputs": [],
      "name": "duration",
      "outputs": [
        {
          "internalType": "uint256",
          "name": "",
          "type": "uint256"
        }
      ],
      "stateMutability": "view",
      "type": "function"
    },
    {
      "inputs": [],
      "name": "endPrice",
      "outputs": [
        {
          "internalType": "uint256",
          "name": "",
          "type": "uint256"
        }
      ],
      "stateMutability": "view",
      "type": "function"
    },
    {
      "inputs": [],
      "name": "image",
      "outputs": [
        {
          "internalType": "string",
          "name": "",
          "type": "string"
        }
      ],
      "stateMutability": "view",
      "type": "function"
    },
    {
      "inputs": [],
      "name": "isCompleted",
      "outputs": [
        {
          "internalType": "bool",
          "name": "",
          "type": "bool"
        }
      ],
      "stateMutability": "view",
      "type": "function"
    },
    {
      "inputs": [],
      "name": "startPrice",
      "outputs": [
        {
          "internalType": "uint256",
          "name": "",
          "type": "uint256"
        }
      ],
      "stateMutability": "view",
      "type": "function"
    },
    {
      "inputs": [],
      "name": "startTime",
      "outputs": [
        {
          "internalType": "uint256",
          "name": "",
          "type": "uint256"
        }
      ],
      "stateMutability": "view",
      "type": "function"
    },
    {
      "inputs": [],
      "name": "winner",
      "outputs": [
        {
          "internalType": "address",
          "name": "",
          "type": "address"
        }
      ],
      "stateMutability": "view",
      "type": "function"
    },
    {
      "inputs": [],
      "name": "getCurrentPrice",
      "outputs": [
        {
          "internalType": "uint256",
          "name": "",
          "type": "uint256"
        }
      ],
      "stateMutability": "view",
      "type": "function"
    },
    {
      "inputs": [],
      "name": "bid",
      "outputs": [],
      "stateMutability": "payable",
      "type": "function"
    }
  ],
  "bytecode": "0x60806040523480156200001157600080fd5b5060405162000f3038038062000f30833981810160405281019062000037919062000224565b336000806101000a81548173ffffffffffffffffffffffffffffffffffffffff021916908373ffffffffffffffffffffffffffffffffffffffff16021790555084600190805190602001906200008f929190620000eb565b508360029080519060200190620000a8929190620000eb565b50826003819055508160048190555080600581905550426006819055506000600760006101000a81548160ff02191690831515021790555050505050506200042d565b828054620000f9906200037f565b90600052602060002090601f0160209004810192826200011d576000855562000169565b82601f106200013857805160ff191683800117855562000169565b8280016001018555821562000169579182015b82811115620001685782518255916020019190600101906200014b565b5b5090506200017891906200017c565b5090565b5b80821115620001975760008160009055506001016200017d565b5090565b6000620001b2620001ac846200030c565b620002d8565b905082815260208101848484011115620001cb57600080fd5b620001d884828562000349565b509392505050565b600082601f830112620001f257600080fd5b8151620002048482602086016200019b565b91505092915050565b6000815190506200021e8162000413565b92915050565b600080600080600060a086880312156200023d57600080fd5b600086015167ffffffffffffffff8111156200025857600080fd5b6200026688828901620001e0565b955050602086015167ffffffffffffffff8111156200028457600080fd5b6200029288828901620001e0565b9450506040620002a5888289016200020d565b9350506060620002b8888289016200020d565b9250506080620002cb888289016200020d565b9150509295509295909350565b6000604051905081810181811067ffffffffffffffff82111715620003025762000301620003e4565b5b8060405250919050565b600067ffffffffffffffff8211156200032a5762000329620003e4565b5b601f19601f8301169050602081019050919050565b6000819050919050565b60005b83811015620003695780820151818401526020810190506200034c565b8381111562000379576000848401525b50505050565b600060028204905060018216806200039857607f821691505b60208210811415620003af57620003ae620003b5565b5b50919050565b7f4e487b7100000000000000000000000000000000000000000000000000000000600052602260045260246000fd5b7f4e487b7100000000000000000000000000000000000000000000000000000000600052604160045260246000fd5b6200041e816200033f565b81146200042a57600080fd5b50565b610af3806200043d6000396000f3fe60806040526004361061009c5760003560e01c8063b868723e11610064578063b868723e14610157578063dfbf53ae14610182578063eb91d37e146101ad578063f1a9af89146101d8578063f3ccaac014610203578063fa391c641461022e5761009c565b80630fb5a6b4146100a15780631998aeef146100cc5780635ec2c7bf146100d65780637284e4161461010157806378e979251461012c575b600080fd5b3480156100ad57600080fd5b506100b6610259565b6040516100c39190610826565b60405180910390f35b6100d461025f565b005b3480156100e257600080fd5b506100eb610458565b6040516100f89190610765565b60405180910390f35b34801561010d57600080fd5b5061011661047c565b60405161012391906107c4565b60405180910390f35b34801561013857600080fd5b5061014161050a565b60405161014e9190610826565b60405180910390f35b34801561016357600080fd5b5061016c610510565b6040516101799190610826565b60405180910390f35b34801561018e57600080fd5b50610197610516565b6040516101a49190610765565b60405180910390f35b3480156101b957600080fd5b506101c261053c565b6040516101cf9190610826565b60405180910390f35b3480156101e457600080fd5b506101ed6105b2565b6040516101fa9190610826565b60405180910390f35b34801561020f57600080fd5b506102186105b8565b60405161022591906107c4565b60405180910390f35b34801561023a57600080fd5b50610243610646565b60405161025091906107a9565b60405180910390f35b60055481565b600760009054906101000a900460ff16156102af576040517f08c379a00000000000000000000000000000000000000000000000000000000081526004016102a6906107e6565b60405180910390fd5b60006102b961053c565b9050803410156102fe576040517f08c379a00000000000000000000000000000000000000000000000000000000081526004016102f590610806565b60405180910390fd5b6001600760006101000a81548160ff02191690831515021790555033600760016101000a81548173ffffffffffffffffffffffffffffffffffffffff021916908373ffffffffffffffffffffffffffffffffffffffff1602179055507fdaec4582d5d9595688c8c98545fdd1c696d41c6aeaeb636737e84ed2f5c00eda333460405161038b929190610780565b60405180910390a160008054906101000a900473ffffffffffffffffffffffffffffffffffffffff1673ffffffffffffffffffffffffffffffffffffffff166108fc829081150290604051600060405180830381858888f193505050501580156103f9573d6000803e3d6000fd5b5080341115610455573373ffffffffffffffffffffffffffffffffffffffff166108fc8234610428919061093e565b9081150290604051600060405180830381858888f19350505050158015610453573d6000803e3d6000fd5b505b50565b60008054906101000a900473ffffffffffffffffffffffffffffffffffffffff1681565b60018054610489906109ed565b80601f01602080910402602001604051908101604052809291908181526020018280546104b5906109ed565b80156105025780601f106104d757610100808354040283529160200191610502565b820191906000526020600020905b8154815290600101906020018083116104e557829003601f168201915b505050505081565b60065481565b60045481565b600760019054906101000a900473ffffffffffffffffffffffffffffffffffffffff1681565b600060055460065461054e919061085d565b421061055e5760045490506105af565b60006006544261056e919061093e565b9050600060055482600454600354610586919061093e565b61059091906108e4565b61059a91906108b3565b9050806003546105aa919061093e565b925050505b90565b60035481565b600280546105c5906109ed565b80601f01602080910402602001604051908101604052809291908181526020018280546105f1906109ed565b801561063e5780601f106106135761010080835404028352916020019161063e565b820191906000526020600020905b81548152906001019060200180831161062157829003601f168201915b505050505081565b600760009054906101000a900460ff1681565b61066281610972565b82525050565b61067181610984565b82525050565b600061068282610841565b61068c818561084c565b935061069c8185602086016109ba565b6106a581610aac565b840191505092915050565b60006106bd60198361084c565b91507f41756374696f6e2068617320616c726561647920656e646564000000000000006000830152602082019050919050565b60006106fd60298361084c565b91507f426964206d757374206d656574206f722065786365656420746865206375727260008301527f656e7420707269636500000000000000000000000000000000000000000000006020830152604082019050919050565b61075f816109b0565b82525050565b600060208201905061077a6000830184610659565b92915050565b60006040820190506107956000830185610659565b6107a26020830184610756565b9392505050565b60006020820190506107be6000830184610668565b92915050565b600060208201905081810360008301526107de8184610677565b905092915050565b600060208201905081810360008301526107ff816106b0565b9050919050565b6000602082019050818103600083015261081f816106f0565b9050919050565b600060208201905061083b6000830184610756565b92915050565b600081519050919050565b600082825260208201905092915050565b6000610868826109b0565b9150610873836109b0565b9250827fffffffffffffffffffffffffffffffffffffffffffffffffffffffffffffffff038211156108a8576108a7610a1f565b5b828201905092915050565b60006108be826109b0565b91506108c9836109b0565b9250826108d9576108d8610a4e565b5b828204905092915050565b60006108ef826109b0565b91506108fa836109b0565b9250817fffffffffffffffffffffffffffffffffffffffffffffffffffffffffffffffff048311821515161561093357610932610a1f565b5b828202905092915050565b6000610949826109b0565b9150610954836109b0565b92508282101561096757610966610a1f565b5b828203905092915050565b600061097d82610990565b9050919050565b60008115159050919050565b600073ffffffffffffffffffffffffffffffffffffffff82169050919050565b6000819050919050565b60005b838110156109d85780820151818401526020810190506109bd565b838111156109e7576000848401525b50505050565b60006002820490506001821680610a0557607f821691505b60208210811415610a1957610a18610a7d565b5b50919050565b7f4e487b7100000000000000000000000000000000000000000000000000000000600052601160045260246000fd5b7f4e487b7100000000000000000000000000000000000000000000000000000000600052601260045260246000fd5b7f4e487b7100000000000000000000000000000000000000000000000000000000600052602260045260246000fd5b6000601f19601f830116905091905056fea26469706673582212208880dc6808b676d918f102db10c9d60dd94d79a0aec05b5ea6be1ceaba70d4d464736f6c63430008000033",
  "immutableReferences": {},
  "source": "// SPDX-License-Identifier: MIT\r\npragma solidity ^0.8.0;\r\n\r\ncontract DutchAuction {\r\n    address public auctioneer;\r\n    string public description;\r\n    string public image;\r\n    uint public startPrice;\r\n    uint public endPrice;\r\n    uint public duration;\r\n    uint public startTime;\r\n    bool public isCompleted;\r\n    address public winner;\r\n\r\n    event AuctionEnded(address winner, uint amount);\r\n\r\n    constructor(\r\n        string memory _description,\r\n        string memory _image,\r\n        uint _startPrice,\r\n        uint _endPrice,\r\n        uint _duration\r\n    ) {\r\n        auctioneer = msg.sender;\r\n        description = _description;\r\n        image = _image;\r\n        startPrice = _startPrice;\r\n        endPrice = _endPrice;\r\n        duration = _duration;\r\n        startTime = block.timestamp;\r\n        isCompleted = false;\r\n    }\r\n\r\n    function getCurrentPrice() public view returns (uint) {\r\n        if (block.timestamp >= startTime + duration) {\r\n            return endPrice;\r\n        }\r\n        uint elapsedTime = block.timestamp - startTime;\r\n        uint priceDrop = ((startPrice - endPrice) * elapsedTime) / duration;\r\n        return startPrice - priceDrop;\r\n    }\r\n\r\n    function bid() external payable {\r\n        require(!isCompleted, \"Auction has already ended\");\r\n        uint currentPrice = getCurrentPrice();\r\n        require(\r\n            msg.value >= currentPrice,\r\n            \"Bid must meet or exceed the current price\"\r\n        );\r\n\r\n        isCompleted = true;\r\n        winner = msg.sender;\r\n\r\n        emit AuctionEnded(msg.sender, msg.value);\r\n\r\n        payable(auctioneer).transfer(currentPrice);\r\n        if (msg.value > currentPrice) {\r\n            payable(msg.sender).transfer(msg.value - currentPrice);\r\n        }\r\n    }\r\n}\r\n",
  "sourcePath": "C:\\Users\\dani\\Desktop\\TENI DeFi\\contracts\\DutchAuction.sol",
  "compiler": {
    "name": "solc",
    "version": "0.8.0+commit.c7dfd78e.Emscripten.clang"
  },
  "schemaVersion": "3.4.16",
  "updatedAt": "2025-03-15T21:08:24.112Z",
  "devdoc": {
    "kind": "dev",
    "methods": {},
    "version": 1
  },
  "userdoc": {
    "kind": "user",
    "methods": {},
    "version": 1
  }
}