{
  "contractName": "EnglishAuction",
  "abi": [
    {
      "inputs": [
        {
          "internalType": "string",
          "name": "_description",
          "type": "string"
        },
        {
          "internalType": "string",
          "name": "_image",
          "type": "string"
        },
        {
          "internalType": "uint256",
          "name": "_startingPrice",
          "type": "uint256"
        },
        {
          "internalType": "uint256",
          "name": "_endTime",
          "type": "uint256"
        }
      ],
      "stateMutability": "nonpayable",
      "type": "constructor"
    },
    {
      "anonymous": false,
      "inputs": [
        {
          "indexed": false,
          "internalType": "address",
          "name": "winner",
          "type": "address"
        },
        {
          "indexed": false,
          "internalType": "uint256",
          "name": "amount",
          "type": "uint256"
        }
      ],
      "name": "AuctionEnded",
      "type": "event"
    },
    {
      "anonymous": false,
      "inputs": [
        {
          "indexed": false,
          "internalType": "address",
          "name": "bidder",
          "type": "address"
        },
        {
          "indexed": false,
          "internalType": "uint256",
          "name": "amount",
          "type": "uint256"
        }
      ],
      "name": "NewBid",
      "type": "event"
    },
    {
      "inputs": [],
      "name": "auctioneer",
      "outputs": [
        {
          "internalType": "address",
          "name": "",
          "type": "address"
        }
      ],
      "stateMutability": "view",
      "type": "function"
    },
    {
      "inputs": [],
      "name": "description",
      "outputs": [
        {
          "internalType": "string",
          "name": "",
          "type": "string"
        }
      ],
      "stateMutability": "view",
      "type": "function"
    },
    {
      "inputs": [],
      "name": "endTime",
      "outputs": [
        {
          "internalType": "uint256",
          "name": "",
          "type": "uint256"
        }
      ],
      "stateMutability": "view",
      "type": "function"
    },
    {
      "inputs": [],
      "name": "highestBid",
      "outputs": [
        {
          "internalType": "uint256",
          "name": "",
          "type": "uint256"
        }
      ],
      "stateMutability": "view",
      "type": "function"
    },
    {
      "inputs": [],
      "name": "highestBidder",
      "outputs": [
        {
          "internalType": "address",
          "name": "",
          "type": "address"
        }
      ],
      "stateMutability": "view",
      "type": "function"
    },
    {
      "inputs": [],
      "name": "image",
      "outputs": [
        {
          "internalType": "string",
          "name": "",
          "type": "string"
        }
      ],
      "stateMutability": "view",
      "type": "function"
    },
    {
      "inputs": [],
      "name": "isCompleted",
      "outputs": [
        {
          "internalType": "bool",
          "name": "",
          "type": "bool"
        }
      ],
      "stateMutability": "view",
      "type": "function"
    },
    {
      "inputs": [],
      "name": "startingPrice",
      "outputs": [
        {
          "internalType": "uint256",
          "name": "",
          "type": "uint256"
        }
      ],
      "stateMutability": "view",
      "type": "function"
    },
    {
      "inputs": [],
      "name": "bid",
      "outputs": [],
      "stateMutability": "payable",
      "type": "function"
    },
    {
      "inputs": [],
      "name": "endAuction",
      "outputs": [],
      "stateMutability": "nonpayable",
      "type": "function"
    }
  ],
  "bytecode": "0x60806040523480156200001157600080fd5b5060405162000edc38038062000edc83398181016040528101906200003791906200025f565b336000806101000a81548173ffffffffffffffffffffffffffffffffffffffff021916908373ffffffffffffffffffffffffffffffffffffffff16021790555083600190805190602001906200008f92919062000126565b508260029080519060200190620000a892919062000126565b508160038190555060006004819055506000600560006101000a81548173ffffffffffffffffffffffffffffffffffffffff021916908373ffffffffffffffffffffffffffffffffffffffff160217905550806006819055506000600760006101000a81548160ff0219169083151502179055505050505062000452565b8280546200013490620003a4565b90600052602060002090601f016020900481019282620001585760008555620001a4565b82601f106200017357805160ff1916838001178555620001a4565b82800160010185558215620001a4579182015b82811115620001a357825182559160200191906001019062000186565b5b509050620001b39190620001b7565b5090565b5b80821115620001d2576000816000905550600101620001b8565b5090565b6000620001ed620001e78462000331565b620002fd565b9050828152602081018484840111156200020657600080fd5b620002138482856200036e565b509392505050565b600082601f8301126200022d57600080fd5b81516200023f848260208601620001d6565b91505092915050565b600081519050620002598162000438565b92915050565b600080600080608085870312156200027657600080fd5b600085015167ffffffffffffffff8111156200029157600080fd5b6200029f878288016200021b565b945050602085015167ffffffffffffffff811115620002bd57600080fd5b620002cb878288016200021b565b9350506040620002de8782880162000248565b9250506060620002f18782880162000248565b91505092959194509250565b6000604051905081810181811067ffffffffffffffff8211171562000327576200032662000409565b5b8060405250919050565b600067ffffffffffffffff8211156200034f576200034e62000409565b5b601f19601f8301169050602081019050919050565b6000819050919050565b60005b838110156200038e57808201518184015260208101905062000371565b838111156200039e576000848401525b50505050565b60006002820490506001821680620003bd57607f821691505b60208210811415620003d457620003d3620003da565b5b50919050565b7f4e487b7100000000000000000000000000000000000000000000000000000000600052602260045260246000fd5b7f4e487b7100000000000000000000000000000000000000000000000000000000600052604160045260246000fd5b620004438162000364565b81146200044f57600080fd5b50565b610a7a80620004626000396000f3fe6080604052600436106100915760003560e01c8063d57bde7911610059578063d57bde791461014c578063d6fbf20214610177578063f3ccaac0146101a2578063fa391c64146101cd578063fe67a54b146101f857610091565b80631998aeef146100965780633197cbb6146100a05780635ec2c7bf146100cb5780637284e416146100f657806391f9015714610121575b600080fd5b61009e61020f565b005b3480156100ac57600080fd5b506100b5610390565b6040516100c29190610920565b60405180910390f35b3480156100d757600080fd5b506100e0610396565b6040516100ed919061081f565b60405180910390f35b34801561010257600080fd5b5061010b6103ba565b604051610118919061087e565b60405180910390f35b34801561012d57600080fd5b50610136610448565b604051610143919061081f565b60405180910390f35b34801561015857600080fd5b5061016161046e565b60405161016e9190610920565b60405180910390f35b34801561018357600080fd5b5061018c610474565b6040516101999190610920565b60405180910390f35b3480156101ae57600080fd5b506101b761047a565b6040516101c4919061087e565b60405180910390f35b3480156101d957600080fd5b506101e2610508565b6040516101ef9190610863565b60405180910390f35b34801561020457600080fd5b5061020d61051b565b005b6006544210610253576040517f08c379a000000000000000000000000000000000000000000000000000000000815260040161024a906108e0565b60405180910390fd5b6004543411610297576040517f08c379a000000000000000000000000000000000000000000000000000000000815260040161028e90610900565b60405180910390fd5b60006004541461030d57600560009054906101000a900473ffffffffffffffffffffffffffffffffffffffff1673ffffffffffffffffffffffffffffffffffffffff166108fc6004549081150290604051600060405180830381858888f1935050505015801561030b573d6000803e3d6000fd5b505b3460048190555033600560006101000a81548173ffffffffffffffffffffffffffffffffffffffff021916908373ffffffffffffffffffffffffffffffffffffffff1602179055507fdd0b6c6a77960e2066c96171b4d7ac9e8b4c184011f38544afa36a5bb63ec59f333460405161038692919061083a565b60405180910390a1565b60065481565b60008054906101000a900473ffffffffffffffffffffffffffffffffffffffff1681565b600180546103c7906109d2565b80601f01602080910402602001604051908101604052809291908181526020018280546103f3906109d2565b80156104405780601f1061041557610100808354040283529160200191610440565b820191906000526020600020905b81548152906001019060200180831161042357829003601f168201915b505050505081565b600560009054906101000a900473ffffffffffffffffffffffffffffffffffffffff1681565b60045481565b60035481565b60028054610487906109d2565b80601f01602080910402602001604051908101604052809291908181526020018280546104b3906109d2565b80156105005780601f106104d557610100808354040283529160200191610500565b820191906000526020600020905b8154815290600101906020018083116104e357829003601f168201915b505050505081565b600760009054906101000a900460ff1681565b600654421015610560576040517f08c379a0000000000000000000000000000000000000000000000000000000008152600401610557906108c0565b60405180910390fd5b600760009054906101000a900460ff16156105b0576040517f08c379a00000000000000000000000000000000000000000000000000000000081526004016105a7906108a0565b60405180910390fd5b6001600760006101000a81548160ff0219169083151502179055507fdaec4582d5d9595688c8c98545fdd1c696d41c6aeaeb636737e84ed2f5c00eda600560009054906101000a900473ffffffffffffffffffffffffffffffffffffffff1660045460405161062092919061083a565b60405180910390a160008054906101000a900473ffffffffffffffffffffffffffffffffffffffff1673ffffffffffffffffffffffffffffffffffffffff166108fc6004549081150290604051600060405180830381858888f19350505050158015610690573d6000803e3d6000fd5b50565b61069c81610957565b82525050565b6106ab81610969565b82525050565b60006106bc8261093b565b6106c68185610946565b93506106d681856020860161099f565b6106df81610a33565b840191505092915050565b60006106f7601583610946565b91507f41756374696f6e20616c726561647920656e64656400000000000000000000006000830152602082019050919050565b6000610737601883610946565b91507f41756374696f6e206973207374696c6c206f6e676f696e6700000000000000006000830152602082019050919050565b6000610777601183610946565b91507f41756374696f6e2068617320656e6465640000000000000000000000000000006000830152602082019050919050565b60006107b7602f83610946565b91507f426964206d75737420626520686967686572207468616e20746865206375727260008301527f656e7420686967686573742062696400000000000000000000000000000000006020830152604082019050919050565b61081981610995565b82525050565b60006020820190506108346000830184610693565b92915050565b600060408201905061084f6000830185610693565b61085c6020830184610810565b9392505050565b600060208201905061087860008301846106a2565b92915050565b6000602082019050818103600083015261089881846106b1565b905092915050565b600060208201905081810360008301526108b9816106ea565b9050919050565b600060208201905081810360008301526108d98161072a565b9050919050565b600060208201905081810360008301526108f98161076a565b9050919050565b60006020820190508181036000830152610919816107aa565b9050919050565b60006020820190506109356000830184610810565b92915050565b600081519050919050565b600082825260208201905092915050565b600061096282610975565b9050919050565b60008115159050919050565b600073ffffffffffffffffffffffffffffffffffffffff82169050919050565b6000819050919050565b60005b838110156109bd5780820151818401526020810190506109a2565b838111156109cc576000848401525b50505050565b600060028204905060018216806109ea57607f821691505b602082108114156109fe576109fd610a04565b5b50919050565b7f4e487b7100000000000000000000000000000000000000000000000000000000600052602260045260246000fd5b6000601f19601f830116905091905056fea2646970667358221220915c627f21c23677662e16f2a052ded0cff0bc0ee093f4937a288cf95cf2070c64736f6c63430008000033",
  "immutableReferences": {},
  "source": "// SPDX-License-Identifier: MIT\r\npragma solidity ^0.8.0;\r\n\r\ncontract EnglishAuction {\r\n    address public auctioneer;\r\n    string public description;\r\n    string public image;\r\n    uint public startingPrice;\r\n    uint public highestBid;\r\n    address public highestBidder;\r\n    uint public endTime;\r\n    bool public isCompleted;\r\n\r\n    event NewBid(address bidder, uint amount);\r\n    event AuctionEnded(address winner, uint amount);\r\n\r\n    constructor(\r\n        string memory _description,\r\n        string memory _image,\r\n        uint _startingPrice,\r\n        uint _endTime\r\n    ) {\r\n        auctioneer = msg.sender;\r\n        description = _description;\r\n        image = _image;\r\n        startingPrice = _startingPrice;\r\n        highestBid = 0;\r\n        highestBidder = address(0);\r\n        endTime = _endTime;\r\n        isCompleted = false;\r\n    }\r\n\r\n    function bid() external payable {\r\n        require(block.timestamp < endTime, \"Auction has ended\");\r\n        require(\r\n            msg.value > highestBid,\r\n            \"Bid must be higher than the current highest bid\"\r\n        );\r\n\r\n        if (highestBid != 0) {\r\n            payable(highestBidder).transfer(highestBid);\r\n        }\r\n\r\n        highestBid = msg.value;\r\n        highestBidder = msg.sender;\r\n\r\n        emit NewBid(msg.sender, msg.value);\r\n    }\r\n\r\n    function endAuction() external {\r\n        require(block.timestamp >= endTime, \"Auction is still ongoing\");\r\n        require(!isCompleted, \"Auction already ended\");\r\n\r\n        isCompleted = true;\r\n        emit AuctionEnded(highestBidder, highestBid);\r\n\r\n        payable(auctioneer).transfer(highestBid);\r\n    }\r\n}\r\n",
  "sourcePath": "C:\\Users\\dani\\Desktop\\TENI DeFi\\contracts\\EnglishAuction.sol",
  "compiler": {
    "name": "solc",
    "version": "0.8.0+commit.c7dfd78e.Emscripten.clang"
  },
  "schemaVersion": "3.4.16",
  "updatedAt": "2025-03-15T21:08:24.120Z",
  "devdoc": {
    "kind": "dev",
    "methods": {},
    "version": 1
  },
  "userdoc": {
    "kind": "user",
    "methods": {},
    "version": 1
  }
}