{
  "contractName": "FixedSwapAuction",
  "abi": [
    {
      "inputs": [
        {
          "internalType": "string",
          "name": "_description",
          "type": "string"
        },
        {
          "internalType": "string",
          "name": "_image",
          "type": "string"
        },
        {
          "internalType": "uint256",
          "name": "_fixedPrice",
          "type": "uint256"
        },
        {
          "internalType": "uint256",
          "name": "_totalSupply",
          "type": "uint256"
        }
      ],
      "stateMutability": "nonpayable",
      "type": "constructor"
    },
    {
      "anonymous": false,
      "inputs": [
        {
          "indexed": false,
          "internalType": "address",
          "name": "buyer",
          "type": "address"
        },
        {
          "indexed": false,
          "internalType": "uint256",
          "name": "amount",
          "type": "uint256"
        }
      ],
      "name": "Purchase",
      "type": "event"
    },
    {
      "inputs": [],
      "name": "auctioneer",
      "outputs": [
        {
          "internalType": "address",
          "name": "",
          "type": "address"
        }
      ],
      "stateMutability": "view",
      "type": "function"
    },
    {
      "inputs": [],
      "name": "description",
      "outputs": [
        {
          "internalType": "string",
          "name": "",
          "type": "string"
        }
      ],
      "stateMutability": "view",
      "type": "function"
    },
    {
      "inputs": [],
      "name": "fixedPrice",
      "outputs": [
        {
          "internalType": "uint256",
          "name": "",
          "type": "uint256"
        }
      ],
      "stateMutability": "view",
      "type": "function"
    },
    {
      "inputs": [],
      "name": "image",
      "outputs": [
        {
          "internalType": "string",
          "name": "",
          "type": "string"
        }
      ],
      "stateMutability": "view",
      "type": "function"
    },
    {
      "inputs": [
        {
          "internalType": "address",
          "name": "",
          "type": "address"
        }
      ],
      "name": "purchases",
      "outputs": [
        {
          "internalType": "uint256",
          "name": "",
          "type": "uint256"
        }
      ],
      "stateMutability": "view",
      "type": "function"
    },
    {
      "inputs": [],
      "name": "sold",
      "outputs": [
        {
          "internalType": "uint256",
          "name": "",
          "type": "uint256"
        }
      ],
      "stateMutability": "view",
      "type": "function"
    },
    {
      "inputs": [],
      "name": "totalSupply",
      "outputs": [
        {
          "internalType": "uint256",
          "name": "",
          "type": "uint256"
        }
      ],
      "stateMutability": "view",
      "type": "function"
    },
    {
      "inputs": [
        {
          "internalType": "uint256",
          "name": "_amount",
          "type": "uint256"
        }
      ],
      "name": "buy",
      "outputs": [],
      "stateMutability": "payable",
      "type": "function"
    }
  ],
  "bytecode": "0x60806040523480156200001157600080fd5b5060405162000d5138038062000d51833981810160405281019062000037919062000202565b336000806101000a81548173ffffffffffffffffffffffffffffffffffffffff021916908373ffffffffffffffffffffffffffffffffffffffff16021790555083600190805190602001906200008f929190620000c9565b508260029080519060200190620000a8929190620000c9565b508160038190555080600481905550600060058190555050505050620003f5565b828054620000d79062000347565b90600052602060002090601f016020900481019282620000fb576000855562000147565b82601f106200011657805160ff191683800117855562000147565b8280016001018555821562000147579182015b828111156200014657825182559160200191906001019062000129565b5b5090506200015691906200015a565b5090565b5b80821115620001755760008160009055506001016200015b565b5090565b6000620001906200018a84620002d4565b620002a0565b905082815260208101848484011115620001a957600080fd5b620001b684828562000311565b509392505050565b600082601f830112620001d057600080fd5b8151620001e284826020860162000179565b91505092915050565b600081519050620001fc81620003db565b92915050565b600080600080608085870312156200021957600080fd5b600085015167ffffffffffffffff8111156200023457600080fd5b6200024287828801620001be565b945050602085015167ffffffffffffffff8111156200026057600080fd5b6200026e87828801620001be565b93505060406200028187828801620001eb565b92505060606200029487828801620001eb565b91505092959194509250565b6000604051905081810181811067ffffffffffffffff82111715620002ca57620002c9620003ac565b5b8060405250919050565b600067ffffffffffffffff821115620002f257620002f1620003ac565b5b601f19601f8301169050602081019050919050565b6000819050919050565b60005b838110156200033157808201518184015260208101905062000314565b8381111562000341576000848401525b50505050565b600060028204905060018216806200036057607f821691505b602082108114156200037757620003766200037d565b5b50919050565b7f4e487b7100000000000000000000000000000000000000000000000000000000600052602260045260246000fd5b7f4e487b7100000000000000000000000000000000000000000000000000000000600052604160045260246000fd5b620003e68162000307565b8114620003f257600080fd5b50565b61094c80620004056000396000f3fe60806040526004361061007b5760003560e01c80637284e4161161004e5780637284e4161461012c578063842a77d314610157578063d96a094a14610194578063f3ccaac0146101b05761007b565b806302c7e7af1461008057806318160ddd146100ab5780631efba6c2146100d65780635ec2c7bf14610101575b600080fd5b34801561008c57600080fd5b506100956101db565b6040516100a291906106f1565b60405180910390f35b3480156100b757600080fd5b506100c06101e1565b6040516100cd91906106f1565b60405180910390f35b3480156100e257600080fd5b506100eb6101e7565b6040516100f891906106f1565b60405180910390f35b34801561010d57600080fd5b506101166101ed565b604051610123919061064b565b60405180910390f35b34801561013857600080fd5b50610141610211565b60405161014e919061068f565b60405180910390f35b34801561016357600080fd5b5061017e60048036038101906101799190610522565b61029f565b60405161018b91906106f1565b60405180910390f35b6101ae60048036038101906101a9919061054b565b6102b7565b005b3480156101bc57600080fd5b506101c561046a565b6040516101d2919061068f565b60405180910390f35b60055481565b60045481565b60035481565b60008054906101000a900473ffffffffffffffffffffffffffffffffffffffff1681565b6001805461021e90610847565b80601f016020809104026020016040519081016040528092919081815260200182805461024a90610847565b80156102975780601f1061026c57610100808354040283529160200191610297565b820191906000526020600020905b81548152906001019060200180831161027a57829003601f168201915b505050505081565b60066020528060005260406000206000915090505481565b600454816005546102c89190610728565b1115610309576040517f08c379a0000000000000000000000000000000000000000000000000000000008152600401610300906106b1565b60405180910390fd5b60035481610317919061077e565b3414610358576040517f08c379a000000000000000000000000000000000000000000000000000000000815260040161034f906106d1565b60405180910390fd5b806005600082825461036a9190610728565b9250508190555080600660003373ffffffffffffffffffffffffffffffffffffffff1673ffffffffffffffffffffffffffffffffffffffff16815260200190815260200160002060008282546103c09190610728565b925050819055507f2499a5330ab0979cc612135e7883ebc3cd5c9f7a8508f042540c34723348f63233826040516103f8929190610666565b60405180910390a160008054906101000a900473ffffffffffffffffffffffffffffffffffffffff1673ffffffffffffffffffffffffffffffffffffffff166108fc349081150290604051600060405180830381858888f19350505050158015610466573d6000803e3d6000fd5b5050565b6002805461047790610847565b80601f01602080910402602001604051908101604052809291908181526020018280546104a390610847565b80156104f05780601f106104c5576101008083540402835291602001916104f0565b820191906000526020600020905b8154815290600101906020018083116104d357829003601f168201915b505050505081565b600081359050610507816108e8565b92915050565b60008135905061051c816108ff565b92915050565b60006020828403121561053457600080fd5b6000610542848285016104f8565b91505092915050565b60006020828403121561055d57600080fd5b600061056b8482850161050d565b91505092915050565b61057d816107d8565b82525050565b600061058e8261070c565b6105988185610717565b93506105a8818560208601610814565b6105b1816108d7565b840191505092915050565b60006105c9601583610717565b91507f4e6f7420656e6f756768206974656d73206c65667400000000000000000000006000830152602082019050919050565b6000610609601883610717565b91507f496e636f7272656374207061796d656e7420616d6f756e7400000000000000006000830152602082019050919050565b6106458161080a565b82525050565b60006020820190506106606000830184610574565b92915050565b600060408201905061067b6000830185610574565b610688602083018461063c565b9392505050565b600060208201905081810360008301526106a98184610583565b905092915050565b600060208201905081810360008301526106ca816105bc565b9050919050565b600060208201905081810360008301526106ea816105fc565b9050919050565b6000602082019050610706600083018461063c565b92915050565b600081519050919050565b600082825260208201905092915050565b60006107338261080a565b915061073e8361080a565b9250827fffffffffffffffffffffffffffffffffffffffffffffffffffffffffffffffff0382111561077357610772610879565b5b828201905092915050565b60006107898261080a565b91506107948361080a565b9250817fffffffffffffffffffffffffffffffffffffffffffffffffffffffffffffffff04831182151516156107cd576107cc610879565b5b828202905092915050565b60006107e3826107ea565b9050919050565b600073ffffffffffffffffffffffffffffffffffffffff82169050919050565b6000819050919050565b60005b83811015610832578082015181840152602081019050610817565b83811115610841576000848401525b50505050565b6000600282049050600182168061085f57607f821691505b60208210811415610873576108726108a8565b5b50919050565b7f4e487b7100000000000000000000000000000000000000000000000000000000600052601160045260246000fd5b7f4e487b7100000000000000000000000000000000000000000000000000000000600052602260045260246000fd5b6000601f19601f8301169050919050565b6108f1816107d8565b81146108fc57600080fd5b50565b6109088161080a565b811461091357600080fd5b5056fea26469706673582212201e056305cebde4bd25a7177dc957f1cecb6c5ffd4e347f421df68dc19a2d1fa764736f6c63430008000033",
  "immutableReferences": {},
  "source": "// SPDX-License-Identifier: MIT\r\npragma solidity ^0.8.0;\r\n\r\ncontract FixedSwapAuction {\r\n    address public auctioneer;\r\n    string public description;\r\n    string public image;\r\n    uint public fixedPrice;\r\n    uint public totalSupply;\r\n    uint public sold;\r\n\r\n    mapping(address => uint) public purchases;\r\n\r\n    event Purchase(address buyer, uint amount);\r\n\r\n    constructor(\r\n        string memory _description,\r\n        string memory _image,\r\n        uint _fixedPrice,\r\n        uint _totalSupply\r\n    ) {\r\n        auctioneer = msg.sender;\r\n        description = _description;\r\n        image = _image;\r\n        fixedPrice = _fixedPrice;\r\n        totalSupply = _totalSupply;\r\n        sold = 0;\r\n    }\r\n\r\n    function buy(uint _amount) external payable {\r\n        require(sold + _amount <= totalSupply, \"Not enough items left\");\r\n        require(msg.value == _amount * fixedPrice, \"Incorrect payment amount\");\r\n\r\n        sold += _amount;\r\n        purchases[msg.sender] += _amount;\r\n\r\n        emit Purchase(msg.sender, _amount);\r\n\r\n        // Transfer funds to the auctioneer\r\n        payable(auctioneer).transfer(msg.value);\r\n    }\r\n}\r\n",
  "sourcePath": "C:\\Users\\dani\\Desktop\\TENI DeFi\\contracts\\FixedSwapAuction.sol",
  "compiler": {
    "name": "solc",
    "version": "0.8.0+commit.c7dfd78e.Emscripten.clang"
  },
  "schemaVersion": "3.4.16",
  "updatedAt": "2025-03-15T21:08:24.125Z",
  "devdoc": {
    "kind": "dev",
    "methods": {},
    "version": 1
  },
  "userdoc": {
    "kind": "user",
    "methods": {},
    "version": 1
  }
}