{
  "contractName": "SealedBidAuction",
  "abi": [
    {
      "inputs": [
        {
          "internalType": "string",
          "name": "_description",
          "type": "string"
        },
        {
          "internalType": "string",
          "name": "_image",
          "type": "string"
        },
        {
          "internalType": "uint256",
          "name": "_endTime",
          "type": "uint256"
        }
      ],
      "stateMutability": "nonpayable",
      "type": "constructor"
    },
    {
      "anonymous": false,
      "inputs": [
        {
          "indexed": false,
          "internalType": "address",
          "name": "winner",
          "type": "address"
        },
        {
          "indexed": false,
          "internalType": "uint256",
          "name": "amount",
          "type": "uint256"
        }
      ],
      "name": "AuctionEnded",
      "type": "event"
    },
    {
      "inputs": [],
      "name": "auctioneer",
      "outputs": [
        {
          "internalType": "address",
          "name": "",
          "type": "address"
        }
      ],
      "stateMutability": "view",
      "type": "function"
    },
    {
      "inputs": [
        {
          "internalType": "address",
          "name": "",
          "type": "address"
        }
      ],
      "name": "bids",
      "outputs": [
        {
          "internalType": "bytes32",
          "name": "sealedBid",
          "type": "bytes32"
        },
        {
          "internalType": "uint256",
          "name": "deposit",
          "type": "uint256"
        }
      ],
      "stateMutability": "view",
      "type": "function"
    },
    {
      "inputs": [],
      "name": "description",
      "outputs": [
        {
          "internalType": "string",
          "name": "",
          "type": "string"
        }
      ],
      "stateMutability": "view",
      "type": "function"
    },
    {
      "inputs": [],
      "name": "endTime",
      "outputs": [
        {
          "internalType": "uint256",
          "name": "",
          "type": "uint256"
        }
      ],
      "stateMutability": "view",
      "type": "function"
    },
    {
      "inputs": [],
      "name": "highestBid",
      "outputs": [
        {
          "internalType": "uint256",
          "name": "",
          "type": "uint256"
        }
      ],
      "stateMutability": "view",
      "type": "function"
    },
    {
      "inputs": [],
      "name": "highestBidder",
      "outputs": [
        {
          "internalType": "address",
          "name": "",
          "type": "address"
        }
      ],
      "stateMutability": "view",
      "type": "function"
    },
    {
      "inputs": [],
      "name": "image",
      "outputs": [
        {
          "internalType": "string",
          "name": "",
          "type": "string"
        }
      ],
      "stateMutability": "view",
      "type": "function"
    },
    {
      "inputs": [],
      "name": "isCompleted",
      "outputs": [
        {
          "internalType": "bool",
          "name": "",
          "type": "bool"
        }
      ],
      "stateMutability": "view",
      "type": "function"
    },
    {
      "inputs": [
        {
          "internalType": "bytes32",
          "name": "_sealedBid",
          "type": "bytes32"
        }
      ],
      "name": "placeBid",
      "outputs": [],
      "stateMutability": "payable",
      "type": "function"
    },
    {
      "inputs": [
        {
          "internalType": "uint256",
          "name": "_bidAmount",
          "type": "uint256"
        },
        {
          "internalType": "string",
          "name": "_secret",
          "type": "string"
        }
      ],
      "name": "revealBid",
      "outputs": [],
      "stateMutability": "nonpayable",
      "type": "function"
    },
    {
      "inputs": [],
      "name": "endAuction",
      "outputs": [],
      "stateMutability": "nonpayable",
      "type": "function"
    }
  ],
  "bytecode": "0x60806040523480156200001157600080fd5b506040516200144c3803806200144c83398181016040528101906200003791906200020d565b336000806101000a81548173ffffffffffffffffffffffffffffffffffffffff021916908373ffffffffffffffffffffffffffffffffffffffff16021790555082600190805190602001906200008f929190620000d4565b508160029080519060200190620000a8929190620000d4565b50806003819055506000600460006101000a81548160ff021916908315150217905550505050620003ea565b828054620000e2906200033c565b90600052602060002090601f01602090048101928262000106576000855562000152565b82601f106200012157805160ff191683800117855562000152565b8280016001018555821562000152579182015b828111156200015157825182559160200191906001019062000134565b5b50905062000161919062000165565b5090565b5b808211156200018057600081600090555060010162000166565b5090565b60006200019b6200019584620002c9565b62000295565b905082815260208101848484011115620001b457600080fd5b620001c184828562000306565b509392505050565b600082601f830112620001db57600080fd5b8151620001ed84826020860162000184565b91505092915050565b6000815190506200020781620003d0565b92915050565b6000806000606084860312156200022357600080fd5b600084015167ffffffffffffffff8111156200023e57600080fd5b6200024c86828701620001c9565b935050602084015167ffffffffffffffff8111156200026a57600080fd5b6200027886828701620001c9565b92505060406200028b86828701620001f6565b9150509250925092565b6000604051905081810181811067ffffffffffffffff82111715620002bf57620002be620003a1565b5b8060405250919050565b600067ffffffffffffffff821115620002e757620002e6620003a1565b5b601f19601f8301169050602081019050919050565b6000819050919050565b60005b838110156200032657808201518184015260208101905062000309565b8381111562000336576000848401525b50505050565b600060028204905060018216806200035557607f821691505b602082108114156200036c576200036b62000372565b5b50919050565b7f4e487b7100000000000000000000000000000000000000000000000000000000600052602260045260246000fd5b7f4e487b7100000000000000000000000000000000000000000000000000000000600052604160045260246000fd5b620003db81620002fc565b8114620003e757600080fd5b50565b61105280620003fa6000396000f3fe60806040526004361061009c5760003560e01c80637284e416116100645780637284e4161461017a57806391f90157146101a5578063d57bde79146101d0578063f3ccaac0146101fb578063fa391c6414610226578063fe67a54b146102515761009c565b80632163b8c5146100a15780633197cbb6146100ca578063497ecfc5146100f55780635ec2c7bf1461011157806362ea82db1461013c575b600080fd5b3480156100ad57600080fd5b506100c860048036038101906100c3919061096f565b610268565b005b3480156100d657600080fd5b506100df6104a3565b6040516100ec9190610d92565b60405180910390f35b61010f600480360381019061010a9190610946565b6104a9565b005b34801561011d57600080fd5b5061012661055b565b6040516101339190610c28565b60405180910390f35b34801561014857600080fd5b50610163600480360381019061015e919061091d565b61057f565b604051610171929190610c87565b60405180910390f35b34801561018657600080fd5b5061018f6105a3565b60405161019c9190610cb0565b60405180910390f35b3480156101b157600080fd5b506101ba610631565b6040516101c79190610c28565b60405180910390f35b3480156101dc57600080fd5b506101e5610657565b6040516101f29190610d92565b60405180910390f35b34801561020757600080fd5b5061021061065d565b60405161021d9190610cb0565b60405180910390f35b34801561023257600080fd5b5061023b6106eb565b6040516102489190610c6c565b60405180910390f35b34801561025d57600080fd5b506102666106fe565b005b6003544210156102ad576040517f08c379a00000000000000000000000000000000000000000000000000000000081526004016102a490610d12565b60405180910390fd5b600460009054906101000a900460ff16156102fd576040517f08c379a00000000000000000000000000000000000000000000000000000000081526004016102f490610cd2565b60405180910390fd5b6000600560003373ffffffffffffffffffffffffffffffffffffffff1673ffffffffffffffffffffffffffffffffffffffff16815260200190815260200160002090508282604051602001610353929190610c00565b604051602081830303815290604052805190602001208160000154146103ae576040517f08c379a00000000000000000000000000000000000000000000000000000000081526004016103a590610d32565b60405180910390fd5b82816001015410156103f5576040517f08c379a00000000000000000000000000000000000000000000000000000000081526004016103ec90610d72565b60405180910390fd5b600754831115610448578260078190555033600660006101000a81548173ffffffffffffffffffffffffffffffffffffffff021916908373ffffffffffffffffffffffffffffffffffffffff1602179055505b3373ffffffffffffffffffffffffffffffffffffffff166108fc8483600101546104729190610e35565b9081150290604051600060405180830381858888f1935050505015801561049d573d6000803e3d6000fd5b50505050565b60035481565b60035442106104ed576040517f08c379a00000000000000000000000000000000000000000000000000000000081526004016104e490610d52565b60405180910390fd5b604051806040016040528082815260200134815250600560003373ffffffffffffffffffffffffffffffffffffffff1673ffffffffffffffffffffffffffffffffffffffff168152602001908152602001600020600082015181600001556020820151816001015590505050565b60008054906101000a900473ffffffffffffffffffffffffffffffffffffffff1681565b60056020528060005260406000206000915090508060000154908060010154905082565b600180546105b090610efd565b80601f01602080910402602001604051908101604052809291908181526020018280546105dc90610efd565b80156106295780601f106105fe57610100808354040283529160200191610629565b820191906000526020600020905b81548152906001019060200180831161060c57829003601f168201915b505050505081565b600660009054906101000a900473ffffffffffffffffffffffffffffffffffffffff1681565b60075481565b6002805461066a90610efd565b80601f016020809104026020016040519081016040528092919081815260200182805461069690610efd565b80156106e35780601f106106b8576101008083540402835291602001916106e3565b820191906000526020600020905b8154815290600101906020018083116106c657829003601f168201915b505050505081565b600460009054906101000a900460ff1681565b600354421015610743576040517f08c379a000000000000000000000000000000000000000000000000000000000815260040161073a90610cf2565b60405180910390fd5b600460009054906101000a900460ff1615610793576040517f08c379a000000000000000000000000000000000000000000000000000000000815260040161078a90610cd2565b60405180910390fd5b6001600460006101000a81548160ff0219169083151502179055507fdaec4582d5d9595688c8c98545fdd1c696d41c6aeaeb636737e84ed2f5c00eda600660009054906101000a900473ffffffffffffffffffffffffffffffffffffffff16600754604051610803929190610c43565b60405180910390a160008054906101000a900473ffffffffffffffffffffffffffffffffffffffff1673ffffffffffffffffffffffffffffffffffffffff166108fc6007549081150290604051600060405180830381858888f19350505050158015610873573d6000803e3d6000fd5b50565b600061088961088484610dde565b610dad565b9050828152602081018484840111156108a157600080fd5b6108ac848285610ebb565b509392505050565b6000813590506108c381610fd7565b92915050565b6000813590506108d881610fee565b92915050565b600082601f8301126108ef57600080fd5b81356108ff848260208601610876565b91505092915050565b60008135905061091781611005565b92915050565b60006020828403121561092f57600080fd5b600061093d848285016108b4565b91505092915050565b60006020828403121561095857600080fd5b6000610966848285016108c9565b91505092915050565b6000806040838503121561098257600080fd5b600061099085828601610908565b925050602083013567ffffffffffffffff8111156109ad57600080fd5b6109b9858286016108de565b9150509250929050565b6109cc81610e69565b82525050565b6109db81610e7b565b82525050565b6109ea81610e87565b82525050565b60006109fb82610e0e565b610a058185610e19565b9350610a15818560208601610eca565b610a1e81610fc6565b840191505092915050565b6000610a3482610e0e565b610a3e8185610e2a565b9350610a4e818560208601610eca565b80840191505092915050565b6000610a67601583610e19565b91507f41756374696f6e20616c726561647920656e64656400000000000000000000006000830152602082019050919050565b6000610aa7601883610e19565b91507f41756374696f6e206973207374696c6c206f6e676f696e6700000000000000006000830152602082019050919050565b6000610ae7601983610e19565b91507f42696464696e67207068617365206973206e6f74206f766572000000000000006000830152602082019050919050565b6000610b27601283610e19565b91507f496e76616c6964206269642072657665616c00000000000000000000000000006000830152602082019050919050565b6000610b67601683610e19565b91507f42696464696e672074696d652068617320656e646564000000000000000000006000830152602082019050919050565b6000610ba7601483610e19565b91507f496e73756666696369656e74206465706f7369740000000000000000000000006000830152602082019050919050565b610be381610eb1565b82525050565b610bfa610bf582610eb1565b610f2f565b82525050565b6000610c0c8285610be9565b602082019150610c1c8284610a29565b91508190509392505050565b6000602082019050610c3d60008301846109c3565b92915050565b6000604082019050610c5860008301856109c3565b610c656020830184610bda565b9392505050565b6000602082019050610c8160008301846109d2565b92915050565b6000604082019050610c9c60008301856109e1565b610ca96020830184610bda565b9392505050565b60006020820190508181036000830152610cca81846109f0565b905092915050565b60006020820190508181036000830152610ceb81610a5a565b9050919050565b60006020820190508181036000830152610d0b81610a9a565b9050919050565b60006020820190508181036000830152610d2b81610ada565b9050919050565b60006020820190508181036000830152610d4b81610b1a565b9050919050565b60006020820190508181036000830152610d6b81610b5a565b9050919050565b60006020820190508181036000830152610d8b81610b9a565b9050919050565b6000602082019050610da76000830184610bda565b92915050565b6000604051905081810181811067ffffffffffffffff82111715610dd457610dd3610f97565b5b8060405250919050565b600067ffffffffffffffff821115610df957610df8610f97565b5b601f19601f8301169050602081019050919050565b600081519050919050565b600082825260208201905092915050565b600081905092915050565b6000610e4082610eb1565b9150610e4b83610eb1565b925082821015610e5e57610e5d610f39565b5b828203905092915050565b6000610e7482610e91565b9050919050565b60008115159050919050565b6000819050919050565b600073ffffffffffffffffffffffffffffffffffffffff82169050919050565b6000819050919050565b82818337600083830152505050565b60005b83811015610ee8578082015181840152602081019050610ecd565b83811115610ef7576000848401525b50505050565b60006002820490506001821680610f1557607f821691505b60208210811415610f2957610f28610f68565b5b50919050565b6000819050919050565b7f4e487b7100000000000000000000000000000000000000000000000000000000600052601160045260246000fd5b7f4e487b7100000000000000000000000000000000000000000000000000000000600052602260045260246000fd5b7f4e487b7100000000000000000000000000000000000000000000000000000000600052604160045260246000fd5b6000601f19601f8301169050919050565b610fe081610e69565b8114610feb57600080fd5b50565b610ff781610e87565b811461100257600080fd5b50565b61100e81610eb1565b811461101957600080fd5b5056fea2646970667358221220d222552746a694a62c987007e9159a5687a86a47cca96db3076f5f36d580491564736f6c63430008000033",
  "immutableReferences": {},
  "source": "// SPDX-License-Identifier: MIT\r\npragma solidity ^0.8.0;\r\n\r\ncontract SealedBidAuction {\r\n    address public auctioneer;\r\n    string public description;\r\n    string public image;\r\n    uint public endTime;\r\n    bool public isCompleted;\r\n\r\n    struct Bid {\r\n        bytes32 sealedBid;\r\n        uint deposit;\r\n    }\r\n\r\n    mapping(address => Bid) public bids;\r\n    address public highestBidder;\r\n    uint public highestBid;\r\n\r\n    event AuctionEnded(address winner, uint amount);\r\n\r\n    constructor(\r\n        string memory _description,\r\n        string memory _image,\r\n        uint _endTime\r\n    ) {\r\n        auctioneer = msg.sender;\r\n        description = _description;\r\n        image = _image;\r\n        endTime = _endTime;\r\n        isCompleted = false;\r\n    }\r\n\r\n    function placeBid(bytes32 _sealedBid) external payable {\r\n        require(block.timestamp < endTime, \"Bidding time has ended\");\r\n        bids[msg.sender] = Bid({sealedBid: _sealedBid, deposit: msg.value});\r\n    }\r\n\r\n    function revealBid(uint _bidAmount, string memory _secret) external {\r\n        require(block.timestamp >= endTime, \"Bidding phase is not over\");\r\n        require(!isCompleted, \"Auction already ended\");\r\n\r\n        Bid storage bid = bids[msg.sender];\r\n        require(\r\n            bid.sealedBid == keccak256(abi.encodePacked(_bidAmount, _secret)),\r\n            \"Invalid bid reveal\"\r\n        );\r\n        require(bid.deposit >= _bidAmount, \"Insufficient deposit\");\r\n\r\n        if (_bidAmount > highestBid) {\r\n            highestBid = _bidAmount;\r\n            highestBidder = msg.sender;\r\n        }\r\n\r\n        // Refund excess deposit\r\n        payable(msg.sender).transfer(bid.deposit - _bidAmount);\r\n    }\r\n\r\n    function endAuction() external {\r\n        require(block.timestamp >= endTime, \"Auction is still ongoing\");\r\n        require(!isCompleted, \"Auction already ended\");\r\n\r\n        isCompleted = true;\r\n        emit AuctionEnded(highestBidder, highestBid);\r\n\r\n        // Transfer funds to the auctioneer\r\n        payable(auctioneer).transfer(highestBid);\r\n    }\r\n}\r\n",
  "sourcePath": "C:\\Users\\dani\\Desktop\\TENI DeFi\\contracts\\SealedBidAuction.sol",
  "compiler": {
    "name": "solc",
    "version": "0.8.0+commit.c7dfd78e.Emscripten.clang"
  },
  "schemaVersion": "3.4.16",
  "updatedAt": "2025-03-15T21:08:24.130Z",
  "devdoc": {
    "kind": "dev",
    "methods": {},
    "version": 1
  },
  "userdoc": {
    "kind": "user",
    "methods": {},
    "version": 1
  }
}